:100000006F50405113000000130000001300000067
:100010001300000013000000130000001300000094
:100020001300000013000000130000001300000084
:08003000130000007300100032
:1000380000000000000000002053000024530000CE
:10004800000000005A5400000000000000000000FA
:100058005C5400005E540000000000000000000036
:10006800448000000000000062540000000000000E
:100078006A83000066540000685400006A54000057
:100088006C5400006E54000070540000725400005C
:100098007454000076540000785400007A5400002C
:1000A8007C5400007E5400008054000082540000FC
:1000B8008454000086540000885400008A540000CC
:1000C8008C5400008E54000090540000925400009C
:1000D8009454000096540000985400009A5400006C
:1000E800084100003E510000A0540000A254000046
:1000F800A4540000A6540000A8540000AA5400000C
:10010800AC540000AE540000B6810000B2540000A8
:10011800B4540000B6540000B8540000BA540000AB
:10012800BC540000BE540000C0540000C25400007B
:10013800C4540000C6540000C8540000CA5400004B
:10014800E0250000CE540000D0540000D254000036
:10015800D4540000D6540000D8540000DA540000EB
:10016800DC540000DE540000E0540000E2540000BB
:10017800E4540000E6540000E8540000EA5400008B
:10018800EC540000EE540000F0540000F25400005B
:10019800F4540000F6540000F8540000FA5400002B
:1001A800FC540000FE5400000055000002550000F9
:1001B8000455000006550000085500000A550000C7
:1001C8000C5500000E550000105500001255000097
:1001D8000000000000000000000000000000000017
:1001E8000000000000000000000000000000000007
:0801F8000000000000000000FF
:10020000397101436EC619A0397141536AC866CA73
:1002100062CC5ECE19A0397101535AD056D252D455
:100220004ED64AD826DA22DC06DE330161408282CD
:1002300041114AC026C222C406C68282B24D410183
:10024000024D924C224CB24B4101024B924A224A3F
:10025000B2494101024992442244B24041018280A4
:100260003D432A876373C3029377F700BDEFADE583
:10027000937606FF3D8ABA960CC34CC30CC74CC795
:100280004107E36BD7FE11E28280B306C3408A06C2
:100290009702000096966780A6002307B700A30682
:1002A000B7002306B700A305B7002305B700A304D2
:1002B000B7002304B700A303B7002303B700A302CA
:1002C000B7002302B700A301B7002301B700A300C2
:1002D000B7002300B700828093F5F50F9396850051
:1002E000D58D93960501D58D61B79396270097021A
:1002F000000096968682E78086FA9680C1171D8F49
:100300003E96E374C3F8A5B70100010001000100A7
:10031000010001000100014582803307C5009307F9
:10032000001063C7E702EFF21FEF3289AE89AA849B
:10033000014493170401C18363FE270133878900B9
:10034000A6970C231395070141817D3F0504D5B77E
:10035000014582800545D5BD010001000100010075
:10036000010001000100010001000100014582803F
:10037000EFF21FEC4111AA840144931704012EC629
:10038000C18332C463FEC700338584001375F50F43
:10039000E137B2452246B387850088A30504F1BF43
:1003A0000545410145BDEFF21FE72A89AE8432843D
:1003B0009309F00F370A0100B70A01007D14137486
:1003C000F40F630B34038C2003550900353F0345BC
:1003D000090059379C20638AA70013058A5EEF80C5
:1003E000407713850A5FEF80C07683270900850474
:1003F00085072320F900D9B789BDEFF27FE32E9658
:100400004111AA841374F60F88202EC6B137B24565
:1004100088A19C40850585079CC093F7F50FE315DF
:10042000F4FE410105BDEFF2BFE07971C1651384AF
:10043000855B41469385855B0A85EFD050674146D1
:10044000930504010808EFD0906641469305040225
:100450000810EFD0D065B71600203717002081476D
:100460001386012D9386062513070724C1453308FB
:10047000F100032808003385C70000082320050188
:100480003308F400032808003385D7000010232028
:1004900005013308F400032808003385E7009107BD
:1004A00023200501E395B7FCEF303026B7070100A4
:1004B00083A7C7601306000023A6F18C23A6F18E44
:1004C0003707010003270761B706010023A0E18E6B
:1004D0009567938707E223A2F18E23A4C18EB70705
:1004E000010083A7476183A6866123ACF18C23AE0C
:1004F000D18C23AAF18C138781B210C750C3370760
:1005000001000327C76123A4C1B223A8E182B70772
:10051000010003A50762EF40B05823A6A182B707E8
:10052000010003A54762EF40B05B23A4A182EF4026
:10053000803B370701000327876237050100130559
:10054000855E23A2E182EF80C060370501001305BC
:10055000C562EF8000604561F5B9EFF27FCA93850F
:10056000C11F131425009388C50013888500138AC2
:100570004500C6864286338B8500AA899307000012
:10058000D2851385C11F2320FB00EF303005B7074C
:10059000002093878702A2978843938B4181EFD0F5
:1005A0005028B717010003A687B683A6C7B6CE9B0F
:1005B000EFB0B0262A8C03850B00AE8C9384C1204B
:1005C000EFC000752A86AE866285E685B70C0020EE
:1005D000EFB0B024938C8C01EFD0702F338984005E
:1005E000A29C371E01002320A90003A50C0083252F
:1005F0004EB69389818023A0A900EFC05056138383
:10060000C400138D840091042A879A866A86A68581
:100610001385C1209387018AEF20D05B93070000E8
:100620002320F900EF40601A930700002320FB000D
:100630009388812013884120D285370A0020C686FE
:1006400042861385C11F130ACA00EF302079229A0F
:10065000832D0A0003850B00B7070080B3CDFD0092
:10066000EFD0F002AA856E85EFD06011371E010031
:1006700083254EB62320A90003A50900930D000091
:10068000EFC0F04D138381212A879A866A8693876B
:10069000018AA6851385C120EF20D0532320B901FC
:1006A000EF40A01283250A002E85EFC0B0142A8ADD
:1006B00003850B00EE8BEFD0807DAA855285EFD0AD
:1006C000000CB707010083A507612320A90003A53B
:1006D0000C00EFD0C00A371E010083254EB623A0C0
:1006E000A900EFC0D047138381212A879A866A86A2
:1006F0009387018AA6851385C120EF20B04D232062
:10070000B901EF40800C938781B2A29703AA07003A
:10071000938741B3A2978C435285EFC0B00D938766
:1007200001B4A297AA8A2320AB008843D285938480
:10073000C121EFC0300CA29488C0B7070020B704D5
:1007400000209387070093844403A2943E940840BA
:10075000D285EFC0300A88C02320590123A0B901F7
:10076000EF303010E1BCEFF2BFAC2E84AA85371514
:1007700001001305459EEF80C03D2285EFD0700A31
:100780002A8637150100AE861305859EEF80603CF2
:10079000D1B4EFF2FFA941112EC4AA85371501008B
:1007A000B2861305459E36C6EF80A03A2246B24671
:1007B000371501001305859EEF80A039410159BC12
:1007C000EFF21FA72E84AA85371501001305459E59
:1007D000EF80203837150100A2851305859EEF8034
:1007E00040378DBCEFF23FA39384C18898408D477A
:1007F00063C5E706138481891C4013090006B3070B
:10080000F9029389819AAA853385F900EFD0B0382F
:10081000370501001305855EEF80A0333705010021
:100820001305857CEF80E0320C403715010013057D
:10083000459EB305B902CE95EF80A0313705010082
:100840001305457DEF80E0301C4011478507B3E775
:10085000E7021CC09C4085079CC0C5BAEFF25F9DB3
:100860005137CDBAEFF2DF9C37150100130585B47F
:10087000EF80202E996773900780B707EFBE37E7A8
:1008800000E0938707083CC76FF0DF9CEFF25F9AA8
:1008900037140140130504808565EF7080750546A7
:1008A000130504808565EF708071F16593850520DF
:1008B00013850199EF70301A3725014085451305DE
:1008C0000580EF700073EF70A0033715010013056A
:1008D00005A8EF80002837150100130585A9EF80D2
:1008E0004027B70401001385845EEF80802637150A
:1008F00001001305C5AAEF80C025371501001305B7
:10090000C5ABEF80002537150100130545ADEF801D
:10091000402437150100130505AEEF8080233715FD
:100920000100130505B0EF80C02237150100130543
:10093000C5B0EF8000221385845EEF8080213715DB
:100940000100130585B1EF80C020371501008145F6
:10095000130585B2EF80E01F371501001305C5B2FE
:10096000EF80201F3715010093050054130545B48F
:10097000EF80201E23A801887D34EF400024EF2063
:10098000901FEF30D04BEF70606F01468565130507
:100990000480EF70C0626FF0FF8B01479306000682
:1009A0003306E5000306060093178701E187631409
:1009B000B6069305F005254613978701618763CF37
:1009C000E504B306F50094228507938606FD93F6A9
:1009D000F60FE363D6FE8147A54829489305F00545
:1009E000B306E50003860600930606FD93F6F60FB0
:1009F00063E1D802B387070305079376F70F1397D0
:100A000086016187938707FDB297C207C183E3F927
:100A1000D5FC3E8582800507E314D7F88147D5BF12
:100A2000EFF21F81830715001307C004AA846388AF
:100A3000E700130700056380E7046FF0BF81B70587
:100A400001009385C57DEFD0301719C59305A0032C
:100A50002685A1372399A18AB70501009385C57E14
:100A60002685EFD0701571D99305A00326853537FB
:100A70002398A18AD9B7B70501009385457FEFD0A8
:100A8000B01345DD930530072685013F1384418B64
:100A90000AA01E209305A0032685C207C18381CF2B
:100AA000ED3D9307C0033305F5021A203A95420540
:100AB00041810AA059B7D535EDBFEFF26FF703A713
:100AC0004189930700063387E70283A701881385CE
:100AD000819A8145B306E500958F8507BA973E95C3
:100AE000EFE0605CEFD0A05E6FF0CFF6EFF24FF476
:100AF00003A74189930700063387E70283A701888C
:100B00001385819A29468145B306E500958F8507AF
:100B1000BA973E95EFE0806E6FF0CFF3EFF24FF1B2
:100B200003A7418993070006AA85B387E7021385C7
:100B3000819A3E95EFD0B00423A0A1883335A00060
:100B40006FF04FF1EFF2CFEED13F6FF0AFF0EFF279
:100B5000AFEB9389818083A7090023AEF186938749
:100B60000181984323ACE18A1307400698C303A789
:100B7000C1989387C18A98C3EF3030450545EF305F
:100B8000204F1387C11F14439387C12094C354433C
:100B900013058005B7040020D4C314475847938B2E
:100BA000C18794C7D8C79307000023A0F900BD37B9
:100BB0009389C18A138B8180938A818B138A0181E7
:100BC0001384C11F938404226311050C130590053F
:100BD000B137631C050A1305A00589376317050A99
:100BE00085479CA00145EFF05F979C206386070A2C
:100BF0000545EFF09F969C2089E71305A005393F36
:100C000001C50945EFF07F9513058005013F11C926
:100C1000F13D01C95D35AA8503A581B2EFC0803DD4
:100C200008C013059005DD3D11C9C93501C97135ED
:100C3000AA8503A5C1B2EFC0E03B48C01305A005DB
:100C4000F13D11C9653501C98D3DAA8503A501B3E3
:100C5000EFC0403A08C49306C4001306840093050D
:100C600044001385C11FEF30601783A70B002320BA
:100C7000FB0083A70A002320FA0083A7C19823A0C2
:100C8000F900EF30003E6FF0AFDB130580052380E5
:100C900004006935E31805F4130590054135E3199F
:100CA00005F4A1BFEFF2CFD813850199EF70C06AA8
:100CB000371501001305C5A4EF70B06983A5C1867F
:100CC00037150100130585A58505EF7090686FF055
:100CD0006FD8EFF2EFD27571371A00209387018930
:100CE000130ACA481384819A3EC683270A08032739
:100CF0004A08998F93F7F70795CB03A7C1888D47CB
:100D0000938CC18863C4E70213850199EF70406238
:100D100062056185A947138701879384418763171B
:100D2000F5029440A9EA2388018631A8130600063B
:100D300081450818EFF0CFD29387C1B49C33138D4F
:100D4000C1B4639F072649616FF04FCFB547E30AEF
:100D5000F5FC9307A0036314F5001C23F9D394401A
:100D60009307E005E3CFD7FA9307B003631AF522A0
:100D700085471CA39DBF938D818983A70D00130612
:100D800000061823B38AC70213898189B309540165
:100D9000CE96238006006312071C32479305E004B9
:100DA0004E85BA9723800700EFD0605D630A051A6D
:100DB00023A0A1883305354105055695294681456F
:100DC0002295EFE0A043938BC18683A70B00138D80
:100DD000C1892320AD008507138B0188938AC189BF
:100DE0009389C186630EF50403A50D001306000662
:100DF000B70501003305A602938505652295EFD05E
:100E0000A05B1DED3705010013058565EF7070547B
:100E10003705010013050566EF70B05383A50B007D
:100E20003704010013054469EF70B05283250D00AB
:100E300013054469EF70F051B53523A0040021B7C4
:100E400003250900930B00069305A002B30B75035D
:100E5000B30D74016E85EFD080523DC18147014DC5
:100E6000EE861306A0023387F60003070700630827
:100E7000C7008507E207E187334DA701EDB72320BF
:100E8000AB003305B54105055E9581452295EFE040
:100E90008021EFB0B05B6308A5053705010013059D
:100EA0008565EF70104B3705010013058569EF70FC
:100EB000504A3715010083A50900130585A59DBF7C
:100EC0003705010013058565EF70B048370501004F
:100ED0001305856BEF70F0473705010083A5090006
:100EE0001305456981BF83A70A0023A0F900832960
:100EF00009001305000693057004B3093503B30A0E
:100F000034015685EFD0A04705CD23A0A188330535
:100F1000554105054E9581452295EFE0C018EFB08B
:100F2000F0528D4763EEA70083C78186ADE783C784
:100F3000C1B499E73705010013050571EF707041E1
:100F40008327090011478507B3E7E7022320F9004B
:100F500083A70C00850723A0FC0023A0040071B325
:100F60009305A0024E85EFD0804151D13705010095
:100F700013058565EF70F03D370501001305456EDB
:100F8000EF70303D83A5C186370501001305456923
:100F9000EF70303C5DB5370501001305457179BF31
:100FA0001C23E39407D483A781891387160098C074
:100FB00013070006B387E702A297B69788A335B355
:100FC00083A7418713844187E39F07D6814C138908
:100FD000819A93890189B70B010003274D26832746
:100FE0000D26E302F7D603A7C1888D47138CC1886D
:100FF000E3CBE7D413058D25EF607000A947938DEF
:1010000001876304F502B5476301F5029307A00366
:101010006315F50083C70D0089CB18409307E005E1
:1010200063C5E700FD576317F50E03270D268327D9
:101030004D26631FF7061385CB78EF709031370587
:1010400001001305057AEF70D03083A7C19893068D
:10105000C00323A0F18C03A6C18B3D67130707A62D
:10106000918F33D7E70237F63600130606E8B70547
:1010700001009385457B0808B376D70233D6C702B3
:10108000EF70702F370501001305855EEF70702C2F
:10109000371501000C08130585B2EF70902B1385EE
:1010A000C1B4EF10102C85451385C1B4EF10501456
:1010B00083C70D0099CF0818EFF09F96814713075B
:1010C00000061418BE96238006008507E39BE7FE02
:1010D000814C1040E30906C4938681899C42130722
:1010E000000623800D003387E702232004004A977F
:1010F00032972300070005463387F90010A3032722
:101100000C00850705072320EC001147B3E7E70231
:101110009CC2E1B59307B0036310F50285472380B5
:10112000FD00180993871C00BA9C2380ACFA939C9D
:10113000870193DC8C4155B583C70D00FDF383A770
:1011400081899306170014C093060006B387D7025F
:10115000CA97BA9788A3374700401375F50F83578E
:10116000074093F70708E5DF420541812312A740B6
:10117000ADB503A7C19823A6E18A03A74189938748
:101180000189BA979C2399EBEFF28F8A370501000A
:1011900013050571EF70F01B6FF0CF8B8280EFF2BB
:1011A000AF869384C11F1384C120014993890186AE
:1011B000138A418A914AB387290103850700EFF01A
:1011C000FF9529CDEFF07F8FB3072A01AA8B8823E3
:1011D00011E59387618B88231375F50FEFC0304BB2
:1011E0008C40EFC0C059DE85EFB0D06008C0050963
:1011F00091041104E31159FD13056004EFF01F92EF
:1012000001CDEFF09F8B930500002A84EFC00046CC
:101210006354A00023A481806FF08F829C401CC087
:10122000F9B7EFF2EF80A53F13059004EFF01F8FA1
:101230001384C19911CDEFF05F8808C01305A00495
:10124000EFF0DF8D11C9EFF05F8748C06FF08F803E
:10125000930700001CC0DDB7930700005CC0FDB71A
:10126000EFE21FFD03A9C1212A840841CA859384A6
:10127000C121EFC00048635405002320240103A9C5
:1012800044004840CA85EFC0C0466354050023228D
:10129000240184440844A685EFC0A045635305009B
:1012A00004C4B704002003A9440308409384440302
:1012B000CA85EFC0A03B6354A0002320240103A9EA
:1012C00044004840CA85EFC0603A6354A00023221E
:1012D000240184440844A685EFC040396353A0002C
:1012E00004C46FE03FF7EFE2BFF11385C1208D3FEB
:1012F00003A7C1989384C12003A5C11F8C4023A6D6
:10130000E18A83AA8180EFC0A030CA8C1384C11FF8
:10131000371A0100938D4121138D012131E1CC4019
:101320004840EFC0E02E0DED83254AB65685EFC04C
:1013300000032A879387018A93868121138641219E
:10134000938501211385C120EF20C0089C401CC05B
:10135000DC405CC09C441CC4DC445CC46FE01FEEF9
:1013600003A50181EFC0B032D685EFC0404183258F
:101370004AB6EFB0D07EB707010083A5877DEFB0F6
:10138000107E2A879387018A938681216E86EA855B
:101390001385C12055BFEFE21FE81384C1992A8944
:1013A000484001111379F90FEFC0B0472ACC08402B
:1013B0002ECEEFC010476246F246EF701043EFC0EA
:1013C00010512ACC03A50181EFC0702C83A5818028
:1013D000EFC0E03AB717010083A547B6EFB0307809
:1013E000B707010083A5877DEFB0707783C7018AB7
:1013F000E2489384C1203EC24AC02A8889470547F3
:1014000081461386C1999385C1201385C11F13841A
:10141000C11FEF10E0779C401CC0DC405CC09C44C6
:101420001CC4DC445CC403A7C19823A6E18A0561FF
:101430006FE0BFE1EFE2DFDF996773900780EF3085
:10144000D0010546C14537150140EF6050370546CC
:10145000C14537150140EF6090360546C145371547
:101460000140EF60D0350546C14537150140EF60BA
:101470001035370501001305855EEF70806D371557
:101480000100130505A6EF70C06C371501001305A8
:1014900085F4EF70006CEFF0EFBC01A0EFE25FD9D4
:1014A0001386C18A83A6C1980C4203A641888D8EFB
:1014B0009387C18A6374D60011C2AD3F83A6418071
:1014C000A1CA03A7C1989C43B307F74063F2F6048F
:1014D00003C7018D83C7118D93F7F70F639AE70256
:1014E0000546C14537150140EF60702D0546C145E1
:1014F00037150140EF60B02C0546C1453715014056
:10150000EF60F02B0546C14537150140EF60302BE9
:10151000EF10D0696FE01FD4EFE29FD1EF30E0739E
:101520009387818698231DE3054798A303A7C18667
:10153000370501001305855E23A4E188EF70606123
:101540003705010013054571EF70A0606FE09FD073
:1015500003C581868280EFE2BFCD83C7018AAA845A
:1015600013054005238CF186EFF04FDB09E50149B7
:101570004A856FE03FCE2A89EFF02FD4EFC0D00B21
:10158000138481871375F50F08A075D13705010005
:101590001305855EEF70E05B930790066384F404A7
:1015A00063CE9700930780066387F4020C203715FB
:1015B0000100130585B2EF70C0595DBF9307D006D7
:1015C0006387F4029307A00DE392F4FE3715010040
:1015D000130545A329A0371501001305C59EEF701B
:1015E0004057E9B737150100130545A0CDBF3715A2
:1015F00001001305C5A1E5B7EFE29FC05D711305BA
:101600007004EFF0AFD163060516EFF00FCBEFC01B
:10161000807C91476303F50C63CCA7008947630E78
:10162000F50863C5A70A63500508EFF09FB459A0F9
:101630009307A0056303F51063C8A700F147E316FD
:10164000F5FEEFF0CFD0D5B79307B005630AF50EDE
:101650009307C005E31BF5FC13055004EFF00FCC16
:1016600019E1EF3080161384C11F814493890186EC
:1016700013898120138A81B2930A8400B387990069
:1016800003850700EFF08FC911C98D47639EF40AE7
:10169000EFF0AFC248C44A85EF205003850491475C
:1016A000E39EF4FC59B783C7818681EBEFF03FAF2F
:1016B000EFF07FC361616FE07FB883C7818699E7F0
:1016C000EFF03FB60545EFF01FCDEDB783C781863C
:1016D00089E7EFF01FB50145FDB713050005EFF0F1
:1016E000EFC3014411C5EFF04FBDEFC0E0742A8491
:1016F00013053005EFF08FC201CDEFF00FBCB70737
:10170000010083A5C760EFC08007EFC0E0722A84A4
:10171000EF30A00B03A7C19883A6C198BE843A946A
:1017200023A6D18A83A7C198E3F187F0EF60D04662
:10173000EF30802CEFF09FD6F5B7238B018AF5B5FB
:101740000547238BE18AD5B5EFF02FB79397240097
:10175000330BF400D297AA858843EFB0B009232059
:10176000AB00CA865686930544002285EF200067A9
:1017700035B71305D004EFF06FBA19E16F00F051DF
:10178000EFF0AFB3EFC0206513079006AA876300A0
:10179000E566634EA7147147630BE5506342A70AE1
:1017A0005947630DE546634EA7044947630DE50CB1
:1017B000634EA7024547E31AE5E60146C1453715E2
:1017C0000140EF60C07F0146C14537150140EF6021
:1017D000007F0146C14537150140EF60407E01465C
:1017E000C14537150140EF60807D81B551476306E3
:1017F000E5405547E31BE5E21385C1B4EF10400116
:101800002DB56547630EE5466341A7025D47630C4E
:10181000E5406147E31BE5E01385C1B4EF10C00369
:1018200003A7C19823AEE18A09B569476300E5467D
:101830006D47E31CE5DE1385C1B4EF106010F5B30E
:1018400013072005630CE56A6341A7027947630D1E
:10185000E54A6347E54A7D476301E55613071005EE
:10186000E315E5DCEFF00F80C9B313075005630CF7
:10187000E572634DA702130730056305E56813079A
:101880004005E314E5DA13053005EFF02FA96300F6
:101890000568EFF08FA2B707010083A5C760EFB01E
:1018A000106EEFC0605923A2A18041B31307C00599
:1018B000630DE57013078006E319E5D6130580066E
:1018C000EFF07FC9E31305D613053005EFF00FA540
:1018D00001CDEFF08F9E03C48187938701970A049F
:1018E0003E94EFC0404F08C0EF3000373DBB1307B8
:1018F000C00CE306E5186349A72213077007E3004D
:10190000E5086340A71C130720076306E5766346D6
:10191000A7181307D006E31AE5D01305D006EFF099
:101920009FC3E31405D013053005EFF02F9F938478
:101930008187138A019709C9EFF02F988020EFC0A3
:1019400080490A04529408C0EF30003103C90400F2
:101950000A09B3072A01884383AAC198B71B01006B
:10196000EFC0E052938701963E9983270900AA8C25
:101970007D593EC4B717010003AC87809389019657
:10198000371D0100E28D83A7C1981307803EB387FE
:101990005741637CF708B717010013850787EF707D
:1019A000401B9C208A07CE978843EFC08067B717FB
:1019B00001002A86AE8613854787EF708019B71716
:1019C00001001385C787EF70C0188C2013854B86E4
:1019D000EF70201813050D88EF70A01703A501976D
:1019E000EFC0E04AEFC0203FAA8513854B86EF7019
:1019F00040163715010013054588EF708015FD5717
:101A00006301F94A83A7C1988965938505719D8D06
:101A1000CA951307803EB3D5E502371501001305BB
:101A200085A5EF70001383AAC198EF20F07CEFF03A
:101A3000FFA6FD57631CF948A2456685EFB0104329
:101A40009C208A073EC63307FA006353A04608432A
:101A5000EFC0E043EE85EFB0D07BB247CE978C432A
:101A6000EFB03049E341A0F203A9C198FD57E30C60
:101A7000F9F0634B090003A7C19889679387F77052
:101A800033072741E3F1E7F003A7C19823AEE18ACA
:101A900003A7C19823A6E18A49BE13073007630450
:101AA000E55C13075007E312E5B803A50188930529
:101AB000A0021505EFC0B00CE30905B6A30F05FEA3
:101AC000ADB61307C0086306E530634EA7001307E1
:101AD00080076303E56A130790070545E397E7B4BA
:101AE000EF20005999B61307900C630BE5741307A8
:101AF000B00C0144E31BE5B2371900209384018642
:101B0000130909259149B387840003850700EFF085
:101B1000EF8019C5EFE07FFA93172400CA9788C3B6
:101B20000504E31234FF11B61307D012E302E504F3
:101B3000634DA7021307E00C6305E57E6347E57676
:101B40001307C00DE307E5001307D00DE31FE5AC55
:101B500013053005EFE09FFCE30905ACEFE0FFF56E
:101B6000EFC0602723A6A180C9B413070019E302C0
:101B7000E5126344A7061307E012E307E50E130717
:101B8000F012E314E5AA13055004EFE03FF9814495
:101B9000E30B050EEFE07FF2EFC0E023AA84E354ED
:101BA000050EB717010003A4478013053005EFE0C9
:101BB000FFF601C5EFE07FF02A8413053004EFE063
:101BC000FFF5154611C5EFE05FEFEFC0C0202A8694
:101BD000A6852285EF30600A89BC1307003A6306A8
:101BE000E5181307703EE312E5A42384018603A7DA
:101BF000818823A6E186EFF0FF83371501001305E6
:101C00004582EF6010751385C1B4EF00903D371524
:101C1000010013054583EF60D07301BC1385C1B487
:101C2000EF00F04219B49389418903A40900130914
:101C30000006330489029384819AB71501009385C5
:101C4000458433858400EFC02077E300059E93052B
:101C50004400A6950808EFC000740C0805461385DB
:101C6000C1B4EF00304383A50900B305B902A695BE
:101C7000371501001305459EEF60B06D6FF0FF9AB8
:101C80001385C1B4EF00F03D6FF03F9A1384C1B4E7
:101C90003C20E38C079813053005EFE03FE8E306AE
:101CA0000598EFE0BFE42322A4266FF01F9803A558
:101CB00001889305A002138401881105EFC0206CF0
:101CC000AA8415C503A54189930700069305E0047E
:101CD000B387A7021385819A3E95EFC0406A9305AA
:101CE0000002EFC0C069050508C0A38F04FE0C40C8
:101CF000014691051385C1B4EF00D0396FF0FF9212
:101D0000238601B46FF07F929387C1B4BC23E38E26
:101D100007901385C1B4EF00505003A501889305C7
:101D2000A002938401881105EFC060652A8915C55A
:101D300003A54189930700069305E004B387A70232
:101D40001385819A3E95EFC0806393050002EFC032
:101D50000063050588C0A30F09FE8C401385C1B43C
:101D60009105EF00103C6FF05F8C03A5018893058F
:101D7000A002138401881505EFC06060AA8415C510
:101D800003A54189930700069305E004B387A702E2
:101D90001385819A3E95EFC0805E93050002EFC0E7
:101DA000005E050508C0A38F04FE0C401385C1B476
:101DB0009505EF00F0356FF05F8703A7C1983705F1
:101DC00001001305855E23A0E18CEF6090580C089C
:101DD00045B513053005EFE07FD4E3080584EFE057
:101DE000DFCDEFB0507F23AAA1966FF01F84EFF0F4
:101DF0008FF6E31C0582371501001305C584EF60DB
:101E00005055138481871C20138701968A07BA973F
:101E10008843B7140100EFC0C0202A86AE86138520
:101E20004485EF601053371501001305C585EF6039
:101E300050521C20138701978A07BA978843EFC036
:101E40000005EFC0001E2A86AE8613854485EF602C
:101E500050503715010013050586EF60904F08209C
:101E6000EF20302AAA853715010013054586EF605B
:101E7000504E3715010013058586EF60904D7D5556
:101E8000EF203028AA8537150100130585B2EF60D1
:101E9000504C37150100130545F1EF60904B6FF082
:101EA0007F813715010013058588EF60904AA5BE34
:101EB0000843EFB0D07DE285EFB0C013B247CE97B4
:101EC0008C43EFB0A07AE35105BA75BC9C208A0719
:101ED0003387F900D29788433AC6EFB0507B324738
:101EE000AA850843EFB0F032EFB0F06E9357F5419A
:101EF0003D8D1D8DA947E3D0A7B8BDB6A383018A48
:101F00006FF0AFF20547A383E18A6FF00FF213057C
:101F10008005EFE0BFC029CDEF20300B1305800511
:101F2000EFE0DFBF19C50546C14537150140EF6039
:101F3000000913059005EFE07FBE19C50546C145B0
:101F400037150140EF60A0071305A005EFE01FBDA6
:101F500019C50546C14537150140EF604006130518
:101F60005004EFE0BFBB630205EC05466FF05F87EE
:101F700013059005EFE09FBA45F11305A005EFE0CA
:101F8000FFB959F913055004EFE05FB951F5EF209F
:101F9000D0030546C14537150140EF604002EF20F0
:101FA000700D6FF08FE813053005EFE03FB7EFE0FD
:101FB000DFB0B707010083A5C760EFB0407CEFB08A
:101FC000B06723A2A1886FF04FE6B717010003ACFA
:101FD000C780B71A00200144138B01869384012D1A
:101FE000938A0A25B3078B0003850700EFE01FB330
:101FF00031CD8D476312F406EFE03FACE2852A8ACB
:10200000EFB0206F63520504C844D285EFB020358D
:10201000AA89AA8503A5418D1389012CEFB02076EA
:1020200023AAA18C03A5CA00CE85EFB0407523A6D4
:10203000AA000325C900EFB0F071CE85EFB020747F
:10204000EFB0905F2326A90023A644010504914721
:10205000E31AF4F86FF06FDDEFE03FA6931724006A
:10206000A69788C3E5B73715010013050589EF600A
:1020700010336FF08FDB371501001305C592EF6049
:10208000502D1384C11F0840B7140100EFB07079C0
:102090002A86AE861385849EEF60B02B371501002B
:1020A00013050593EF60F02A4840EFB090772A8639
:1020B000AE861385849EEF60D02937150100130585
:1020C0004593EF6010290844EFB0B0752A86AE86BC
:1020D0001385849EEF60F027371501001305859363
:1020E000EF6030274844EFB0D0732A8637150100DF
:1020F000AE861305C593EF60D02537150100130593
:102100004594EF6010250145EF20C074EFB03058C2
:1021100083A5012D1384012DEFB06024EFB0707002
:102120002A86AE861385849EEF60B0220545EF2097
:102130006072EFB0D0554C40EFB06022EFB0706EDF
:102140002A8637150100AE8613050595EF607020CD
:102150000945EF202070EFB090530C44EFB02020E1
:10216000EFB0306C2A8637150100AE8613058595D1
:10217000EF60301E6FF06FCB01456FF07F96371523
:10218000010013054596EF60D01C371501001305BB
:102190000598EF60101C37150140930500081305E2
:1021A00005C0EF3020668547631DF506B7150100B1
:1021B0009385C58137140100130584B2EF6070194F
:1021C0003715010013058598EF60B01837150140E9
:1021D00093050020130505C0EF30C06285476317E3
:1021E000F504B71501009385C581130584B2EF602E
:1021F00050163715010013050599EF609015371536
:10220000014093050040130505C0EF30A05F8547EE
:102210006313F502B71501009385C581130584B2D8
:10222000A1BCB71501009385058169B7B7150100F9
:10223000938505815DBFB715010093850581F9BFC1
:102240003719002001449384018613090924114A97
:10225000B387840003850700EFE05F8C11C9EFE0CE
:10226000DF8593192400CA99EFB0103D23A0A9007F
:102270000504E31F44FDEF1050496FF00FBB130539
:102280003005EFE0BF8909C5EFE03F8323A6A18CAD
:1022900013054005EFE09F8819E16FF00FB9EFE0FB
:1022A000DF8123A6A18E6FF04FB813053005EFE054
:1022B000FF8609C5EFE07F8023A0A18E13054005AE
:1022C000EFE0DF8509C5EFE04FFF23A4A18E1305E2
:1022D0002004EFE0BF8419C5EFE02FFEEFB0D0354A
:1022E00023A2A18E13058005EFE05F8309C5EFE00F
:1022F000CFFC23ACA18C1305A005EFE03F8209C5FC
:10230000EFE0AFFB23AEA18C13055004EFE01F817B
:1023100019E16FF08FB1EFE04FFA23AAA18C6FF0B3
:10232000CFB0014493840186138981B28D49B3876C
:10233000840003850700EFE06FFE19C5EFE0EFF7BB
:1023400093172400CA9788C30504E31234FF6FF083
:10235000CFAD13053005EFE06FFC19E16FF0EFAC86
:10236000EFE0AFF5EFB0302723A8A1806FF0EFAB1F
:1023700013050005EFE08FFA09C5EFE00FF423A87D
:10238000A18213059004EFE06FF919C5EFE0EFF2B9
:10239000EF20107123A6A18213054004EFE00FF88F
:1023A00019C5EFE08FF1EF20B07323A4A1821305CC
:1023B0003004EFE0AFF609C5EFE02FF023A2A182D1
:1023C000EF2060523705010013050571EF6060785A
:1023D0003715010013058599EF60A07703A50183E8
:1023E00037140100EFB0F0432A86AE861305849EB1
:1023F000EF602076371501001305C599EF60607511
:1024000003A5C182EF20D06BEFB0B0412A86AE8623
:102410001305849EEF60E073371501001305059ADC
:10242000EF60207303A58182EF20906DEFB0703FC5
:102430002A86AE861305849EEF60A07137150100D1
:102440001305459AEF60E07003A54182EFB0703D3F
:102450002A86AE861305849EEF60A06F37150100B3
:10246000130585F46FF02FFB13053005EFE00FEB3C
:102470009307000001C5EFE04FE4AA873E85EF1007
:1024800070286FF08F9AB717010003A407806FF0D0
:10249000CFF1EF2080336FF04F9913054005EFE047
:1024A000EFE7B704010051C1EFE02FE1EFB0D01822
:1024B0001375F50F1384818708A015C51385845EF5
:1024C000EF60206913054005EF50D06D0C203715E3
:1024D000010013054585EF60C0673715010013053E
:1024E000859A6FF04FF313056004EFE02FE301CD01
:1024F000EFE0AFDC930500002A84EFB020176354AF
:10250000A00023A481801385845EEF60806437156A
:1025100001001305C59BEF60C0633715010083C53B
:10252000018A130585BC6FF02FF51385845EEF607B
:102530004062371501001305059DEF60806183A59A
:1025400041899307000637150100B387B7029385C9
:10255000819A1305459EBE95EF60A05F3705010087
:102560001305457D6FF02FEBEFD21FCAEFE00FB2DE
:10257000894A1384819A930B0006114C83A7C18862
:102580001389C18863C4FA00EFE0AFF48145138575
:10259000C1B4B9298327090095C7938441898C4028
:1025A0001385C1B4B385BB02A2954929EFF0CF844E
:1025B00083270900FD172320F9009C408507B3E716
:1025C00087039CC0EF204043EFE05FEDEF10F01970
:1025D00075B7EFD2FFC51385C1B449206FD09FC72F
:1025E000EFD21FC53754004093055052130504C065
:1025F000EF30500739C19387812283A6070803561D
:1026000044C083A547081387160042061377F703D3
:1026100041826306B700BE9690A223A0E70883A775
:10262000C1983755004093874706930550521305CC
:1026300005C023A2F18CEF30B0063754004093055B
:102640006062130504C0EF30F00119C593056062A4
:10265000130504C0EF30D0046FD0DFBFEFD25FBDF1
:102660009307C559232AF548B715010093070010B1
:102670002A84232CF54823100500230105009385A7
:1026800045D61305C549EFB0105185472300F46ABC
:1026900083A7C1989387077D232EF4686FD09FBBD3
:1026A000EFD21FB6130A452341112A845285AE8901
:1026B000EF40D07C71E54E85EFB0F04E9307C447F4
:1026C00001493EC4130BE002B71B0100371C010097
:1026D000B38AA900B71C0100371D0100930D5448AF
:1026E000A2455285EF504000AA843DE1830754483B
:1026F000A5C3E38767FF8347444813F767006DF37B
:10270000032644490307060011E36E860327446A43
:1027100005094209135909011DE3C18B95CF938522
:102720004CBF5685EF602045CE8513058DBFEF6009
:102730004042CE852285AD3729ED23800A008327CC
:10274000446A09476398E7028317846AE39A27F982
:10275000268541016FD09FAE93854B84328532C66A
:10276000EFB0904569DD3246CE851305CCC0EF60F1
:10277000403EF1B70547E395E7F62314246B8DB788
:10278000AA84AA8537150100130505C2EF60603CD5
:10279000C1B7AA8475BFEFD2BFA941112E85B285FA
:1027A00032C6EF40B06D2A84324601E93715010088
:1027B000B285130585C3EF60C039228541016FD012
:1027C0007FA9EFD2FFA641112E85B28532C6EF4018
:1027D000B07132468307960091E3114541016FD0F5
:1027E0007FA7EFD2FFA4117191672A84938707A373
:1027F0001306B00F814548003EC0EFD07FA68A8502
:102800002322046A2285EFF0BFE911616FD09FA4F3
:102810003C218DEFEFD2DFA1930545002A840145CD
:10282000EF405029AA8509C9371501001305C5BA1B
:10283000EF6020326FD01FA23715010081451305CC
:1028400005BDEF60003185473CA0EDB78280A30055
:1028500005002301050082803C2199C385471CB1F6
:1028600082801C3199C3A30005008280EFD25F9C57
:10287000411174001305852502C6EF40303C19C58F
:10288000371501001305C5D0EF60A02C324541017A
:102890006FD05F9C3C21A5CFEFD29F9941112EC6EE
:1028A000130485250DCE37150100130505C5EF600E
:1028B000402AB24505462285EF40D021AA8511C99C
:1028C00037150100130505C7EF60A02841016FD03F
:1028D0007F983715010081451305C5C8F5B7371531
:1028E00001001305C5CAEF60C026B24529462285FE
:1028F000EF40501EAA8511C537150100130505CDFF
:10290000E1B73715010081451305C5CE75BF82803B
:10291000EFD21F9285473CB10146EFF0BFF76FD071
:102920007F93EFD2FF902E85EF40B06201C9AA8558
:1029300037150100130505B7EF60A0216FD09F91F7
:10294000EFD21F8F3C2195CF2A8437150100130544
:1029500005D4EF6000208325042637050100130508
:102960004569EF60001F1305F002EF50B023832587
:10297000442637150100130585B2EF60801D6FD026
:102980007F8D37150100130545D5EF60801CC5BF4D
:10299000EFD21F8A2E852E84EFB0F020AA849305F3
:1029A000E0042285EFB0B01D15ED1385F4FF2295EC
:1029B000B5471CB1A9473CA1A3010500370501009B
:1029C00013058565EF60E01837150100130585B81C
:1029D000EF60201837150100130585F4EF606017CC
:1029E0006FD05F879305A002EFB070197D15C9B74E
:1029F00091E98347056A8DC383A7C1980327C569F9
:102A000063ECE7003C212300056A99E7EFD25F827F
:102A1000EFF01FE06FD01F848280EFD27F8193049C
:102A200085252A842685EF4070392685EF40D043DE
:102A300023000400A30104006FD0DF81EFD24FFF19
:102A4000370400208347C45605498DC7AE84B715A7
:102A50000100938585D22685EFB010161DE513057C
:102A6000C456A685EFF0DFF21304C4563C3091C77C
:102A7000EFE09FB84A856FD0EFFD370501001305E1
:102A80000571EF60000D0149F5B71305C456EFF06D
:102A9000DFF8371501001305C5D2EF60800BD9BFF1
:102AA000EFD20FF909472322E56A2314B56AB285EC
:102AB000EFF01FBF6FD00FFAEFD28FF785472322B9
:102AC000F56A2A84EFF0DFBD8315846A37150100AB
:102AD000130585B2EF60E0070355846A6FD08FF766
:102AE000EFD20FF59305F0021305C549EFB0300999
:102AF000133515006FD00FF6EFD28FF31305C549CC
:102B0000EFB070096FD00FF5AA8703850700630542
:102B1000B50001CD8507D5BF2E8581C9238007006B
:102B20008507038707007DFB05458280EFD24FF0C4
:102B30009305F0021305C549EFF01FFD6FD08FF12B
:102B4000EFD20FEF2E849307C549B71501003E85DC
:102B50009385C5C4EFB0D000A285EFB070006FD0F0
:102B60006FEFEFD2EFEC2A84EF103046EF105054A5
:102B700013058425EF40502FA3000400EF10904F61
:102B800037150100130505BAEFD05FCD6FD08FEC7C
:102B9000EFD20FE7939A2600330B56013971832445
:102BA0000B00BA89330755012E893E8C0C438347AD
:102BB00001082A8A268542CAC68C3ED032C2EFA0BE
:102BC000604312468A0933073A01B307360180434E
:102BD0000C432AC422853EC20A0CEFA0A041B307D1
:102BE0008901B30B8A0183A50B002AC68843EFA095
:102BF00050628327C900A2452AC83ED48327CA0051
:102C00003ECCB7070080BD8C3D8CB307590188438B
:102C1000EFA03060B30739012A8DB2458843EFA099
:102C2000505FAA8DEA852685EFA07035EE852AD6FD
:102C30002285EFA0D034B257AA853E85EFA0803B15
:102C4000EE852AD62685EFA09033EA85AA8D2285C7
:102C5000EFA0F032AA856E85EFA0B05BB257BE85BB
:102C6000EF60E050930500002A8DEFA0902863509C
:102C700005026A85EFB0E03AB717010003A687D6D0
:102C800083A6C7D6EF80E054EFB060442A8D825708
:102C900099CF6A85EFB0E038B717010003A687D651
:102CA00083A6C7D6EF90F002EFB060422A8DC247EC
:102CB000139517000581EFB0C0362AD02ED26A8551
:102CC000E685EFA0D02BEFB0C03502569256EF60EC
:102CD000C031EFB0C03FAA8DEFB0A034B7170100EC
:102CE00003A607D783A647D7EF90C0276346051CE6
:102CF0006E85EF60601AEFB02014931D050193DD1F
:102D00000D0163930D00854D6E85EFB04018AA8CC0
:102D1000AA856A85EFA0A0642A8D4245E685EFA0CA
:102D20000064E2452AC82255EFA0B04EE685EFA028
:102D300000632AD46A85EFB0C02EB716010003A63F
:102D400086D783A6C6D72ACC2ECEEF90002D624719
:102D5000F2473A86BE86EF90402CB71701002A86CC
:102D6000AE8603A507D883A547D8EF908076EFB04D
:102D7000003603A70B009C00E29723A8E7FE032779
:102D8000CA00AA8C054A3ADE980056973ACC9800B9
:102D90004E97814B3AD03E8C93170A01C18363F35F
:102DA000B711E14763CC7709EA852685EFA0301D8E
:102DB000AA89E6852285EFA0901CAA854E85EFA002
:102DC0006023AA89E6852685EFA0701BAA84EA8580
:102DD0002285EFA0D01AAA852685EFA090431388FC
:102DE0001B00931B8801AA8493DB8B414E84A24570
:102DF0002685050AEFA00020E247B24523A8A7FEDA
:102E00002285EFA0201F8257C24523A8A7FE0325D5
:102E10000CFFEFA0201E2328ACFEA2557255EFA098
:102E2000601D2ADE0818EFE0AFC352475C0174183A
:102E300030184C180818EF00E059B9BF5285EFB0B0
:102E40000005EA85EFA0B0132A84EF50B07CAA8970
:102E50002285EF60201183270B0037070080AA8AA4
:102E6000B3CBE7009247CE855E858043EFA030115B
:102E7000AA84D6852285EFA09010AA852685EFA08A
:102E80006017D685AA845E85EFA0700FAA8ACE85CA
:102E90002285EFA0D00EAA855685EFA090372A8410
:102EA000814BB1B752475C019306C90013068900F4
:102EB000930549004A85392B21616FD02FB8EFD295
:102EC0002FB42A84485D4111AE8B328BEFB080085D
:102ED0002A89284083298404EFB0C0072A8C4E85B4
:102EE000EFA0F07A93050000AA8CEFA06072630057
:102EF000051ECA854A85EFA09008AA84E2856285EE
:102F0000EFA0F007AA852685EFA0B030EFB06011E2
:102F10002A8A6685AE8AEFB0C0102A86AE86EF8018
:102F2000402B2A86AE865285D685EF80901DEFB065
:102F3000001AEF50F060EFA0106AAA846840EFB06A
:102F40006001AA8A33053041EFA070749305000038
:102F5000AA89EFA0E06B630F0516D6855685EFA012
:102F600010022A8ACA854A85EFA07001AA85528577
:102F7000EFA0302AEFB0E00A2A8D4E85AE8DEFB07B
:102F8000400A2A86AE86EF80C0242A86AE866A85ED
:102F9000EE85EF801017EFB08013EF50F06F032A2B
:102FA0000401EFA05063B3099A403385A940635FE1
:102FB000050A930500006685EFA08065630F051084
:102FC0006685EFB000062A86AE862A8DAE8DEF802C
:102FD00040202AC452852EC6EFA0D077EFB06004FF
:102FE0002247B2472A86AE863A85BE85EF90E00238
:102FF0002AC42EC66285E285EFA06078EFB0600239
:103000002247B2472A86AE863A85BE85EF90604C4D
:103010002A8CAE8C5685D685EFA06076EFB0600026
:103020002A86AE866285E685EF80A01AB717010072
:1030300003A687DE83A6C7DE2A8CAE8C6A85EE8562
:10304000EF80B07D2A86AE866285E685EF80700BC4
:10305000EFB0E007EF50D04EEFA0F057AA846353D3
:1030600005008144014563E34401D284996773906C
:10307000078083470405E207E187B1E344C8AA94C7
:10308000DE8504CC4A85EFA0806FEF50704BEFA037
:10309000B05A930780076374F50013058007DA853B
:1030A00028C04A85EFA0A06DEF509049EFA0D058FE
:1030B000930780076374F5001305800768C099675C
:1030C000938787087390078041016FD02F9713056E
:1030D000000085B513050000C9B5130500009DBFAC
:1030E000EFD20F954111AA842E8532C6EFA0206938
:1030F0002A84A6852685EF90F06F3246B285EFA030
:103100000068AA852285EFA0D010EF60600641011B
:103110006FD04F94ADC925CAEFD2EF8F2E8403A98B
:10312000C5020854B284CA85EFA0804E21C18347EE
:103130009403B9E703AA84024A85D285EFA000531D
:103140006350A00448581058B7090080D285334511
:103150003501EFF0FFF8AA854A85EFA08059635941
:103160000500485408D48547230CF4026FD0EF8D36
:10317000485810588C5433453501EFF07FF6DDB7D1
:1031800023242403CDB78280EFD2EF889387018D6B
:10319000982319677310078003C9118D13078708D7
:1031A0001379F90F73100780982333072741318B68
:1031B0000DCF8023014675143D888149138A012E65
:1031C000930A4005630324036204618411E04144CF
:1031D0007D141374F40FB3045403CE85D294268562
:1031E000EFF05FF34E86A689F1BF6FD00F8635C52D
:1031F00083479503BDE3EFD20F82032A850283A99B
:103200008502AE842A84CE855285EFA0804E635B12
:1032100005024858105837090080D28533452501EA
:10322000EFF01FECAA854E85EFA0A04C635E050071
:1032300080548854A285EFA0A03D09C5854780D45D
:10324000238CF4026FD06F80485810580C543345CB
:103250002501EFF0FFE82A84E9BF8280EFC2BFFBBF
:1032600003C4118D81441374F40F01459389012E19
:10327000930A4005414B9387018D9C236304F4021C
:103280003309540305046204A68561844E994A8675
:10329000EFF0FFF563136401014426851374F40F06
:1032A000CA84D1BF0146A685EFF07FF46FC0FFF955
:1032B000EFC29FF583C4118D4111E204E184014402
:1032C0009389012E130A4005C14B9387018D9C23DE
:1032D0006389F404338944034E9905CC83478403FE
:1032E00081E78347890395C7B3874403832A440250
:1032F000D685CE978857EFA080062AC60854D68573
:10330000EFA0E0053246AA852285EFF05FBB230CD3
:1033100004028504E204E1846393740181444A84D5
:103320006DB70DCC44502685EFA0B04FB717010004
:103330002A86AE8603A507DF83A547DFEF80605CA2
:10334000EFA0F0582AC60854A685EFA040013246E7
:10335000AA852285EFF0BFB6230C040241016FC09D
:103360003FEEEFC2FFECEFF03FE2EFF03FEFEFF0A8
:103370003FF46FC03FEE2388018CA388018CB71700
:1033800000209387072623A0070023A2070023A479
:10339000070023A607009387012B1307000098C39B
:1033A000D8C398C7D8C723A4E18C82809386118D97
:1033B0001387018D8C2210231376F60F630BB60052
:1033C0009C2293F7F70F14236385D7008507BD8BE5
:1033D000DDBF8280EFC2DFE2BA8C3E8B9387018D26
:1033E0009C2359711387018D8507E207E1873EC64B
:1033F0003ACA3247C147AE8BB28936896313F700A8
:1034000002C69387118D9C233247631BF7002AC89D
:10341000EF409078EF10405EEFE04F884245D5B71F
:103420009384012D8C40084137040100138A012D3B
:10343000EFA0E03483250461EF90D03BEF50D0251E
:10344000EFA07019CC40AA8A03A50B00EFA020338F
:1034500083250461EF90103AEF501024EFA0B017CD
:103460008C44AA8B03A50900EFA060318325046179
:10347000EF905038EF505022EFA0F015CC442A8C3A
:1034800003250900EFA0A02F83250461EF9090365B
:10349000EF509020EFA03014B717002013870726B5
:1034A000584722C83ED42A89938907266304E50A2F
:1034B00083C7018A138701968A07BA978C4303A5AD
:1034C0008181EFA0A01A6356A00237050100130501
:1034D000855E23A62901EF50C0673715010013054B
:1034E00085DAEF50006737150100130585F4EF50BA
:1034F000406683A7C900B307F94013D5F741A98FE8
:103500003385A740EFA0B018B707010083A5877DDA
:103510002A840325CA00EFA08026AA85EF90902D6B
:10352000AA852285EFA080146356A002370501000A
:103530001305855E23A62901EF50A0613715010010
:10354000130545DCEF50E06037150100130585F4E5
:10355000EF502060D24713074005802383A5090060
:103560009387012E1374F40F3307E4029384012E22
:10357000BA97238807042380070263D5BA0005475A
:103580002380E70203A5490063DDAB001307400574
:103590003307E40226978347070293E727002300B7
:1035A000F70283A68900635DDC001307400533073B
:1035B000E40226978347070293E747002300F702B8
:1035C00003A7C900635DE900130640053306C40282
:1035D00026968347060293E787002300F602B38707
:1035E000BA4013D6F7413348F6003308C840338653
:1035F000AB409357F6413D8EB306DC401D8E93D70A
:10360000F641BD8E3307E9409D8E9357F7413D8FBC
:103610001D8F83A7C18093084005B30814033307A7
:10362000F70293074006A69823A0080123A2C8002A
:1036300023A4D800B347F702368723A6F80063D344
:10364000F6003E876347C7786346070163D5D70016
:10365000B68711A0C287130740053307E4029546D9
:1036600026971CCB63FBF65C83A7818A7CC78347C4
:103670000B00A300F7026388BA000146C145371565
:103680000140EF40D01393074005B307F402A6971B
:10369000DC4399C70146C14537150140EF40301260
:1036A00093074005B307F402A6979C4799C70146C4
:1036B000C14537150140EF409010130B4005330B07
:1036C0006403269B8327CB00639C075603AB818E44
:1036D000E6855A85EF9090796343A000668B03A539
:1036E00009003385AA40EFA0807A83250A00EF9075
:1036F0001047AAC82AD003A549003385AB40EFA0E4
:10370000007983254A00EF909045AACA2A8D03A527
:1037100089003305AC40EFA0807783258A00EF90C5
:103720001044AACCAA8C03A5C9003305A940EFA078
:1037300000768325CA00EF909042AA8903A5C18034
:10374000EFA0E074AA854E85EFA06003B7070100E3
:1037500083A5877DEF90B04093074005B307F4023F
:10376000AACE15478256A69790436368C74ED043AA
:103770006365C74E90476362C74E0605058188DBC7
:1037800093074005B307F402370A010003258A6254
:10379000A69783AC0703E685EF90703CDA85EF903F
:1037A000107ED2471387118D9C23182352D0AA89EB
:1037B000998F93F7F70F13FBF7003ECC1307EBFF3E
:1037C000954763ECE706EFA0D005B71701002A86FE
:1037D000AE8603A507D983A547D9EF808012B71716
:1037E000010003A687D783A6C7D7EF70901EEF50BE
:1037F000A03FEF90204C2A8A03A5418E637FAA0246
:1038000033054541060533556503EFA0A074C24753
:1038100083A50761EF90007EEF5000682AD25285A1
:10382000EFA040739255EF90E07CB7170100AA8596
:1038300003A587D8EF90B032AA89130A4005330A4E
:103840004403CE856685EF909073AA8D014D269A2C
:103850002322AA0203250A01EFA0C06FCE852A8B7E
:10386000EF90F071EF50C04DEFA0005D8257370729
:103870000080232EAA0203AA87629347F7FF371717
:1038800000203ED6930707252AD23ED89C083387CE
:10389000A7010C434E85EF90906E9C103387A701D3
:1038A000B25708C33377F500C257BA853ADEB386FC
:1038B000A7019442368536DCEF90B0636350050271
:1038C000E25672573685BA85EF907029D2852ADC88
:1038D000EF90D0596344A00062573A8A110DC14756
:1038E000E316FDFA8257528583A58762EF907060D8
:1038F000635405049309010603A50900D2859109C3
:10390000EF90F06723AEA9FE9C18E39737FF930969
:103910004005B3093403D2856E85EF905066A699B1
:1039200023A2A9021255EFA0E062D285EF90306584
:10393000EFA0805023AEA902130A4005330A4403C6
:10394000E6855A85EF90B021AA89269A832D0A0030
:1039500063930D3483274A00639F073283278A00CD
:10396000639B073283A5C18EEF907061EF50403D9D
:10397000EFA0804C2324AA04130A4005330A440311
:10398000269A03258A04EFA0E05CCE852A8BEF906F
:10399000101D232AAA025A85EFA0A068B7170100BC
:1039A00003A687D983A6C7D9EF802067EF90002AA6
:1039B000C247232EAA0003A5818D83A50761138D1D
:1039C000818DEF90D05BC2472A8A03A5C18D83A564
:1039D0000761A65CEF90B05A93951C008581AA8977
:1039E000EF9030519387C18D3ED263590500D28547
:1039F0004E85EF90B0476343A0004E8AC24703A5AF
:103A0000418D83A50761365BEF90705793151B00BE
:103A10008581AA89EF90F04D9387418D3ED66359F9
:103A20000500D2854E85EF9070446343A0004E8A16
:103A300093074005B307F402D285A69783A94702EE
:103A40004E85EF90B0426343A0004E8AE247138751
:103A5000818CB98B3AC8D289638C071283290700FD
:103A60004E85EFA0005CB717010003A607DA83A616
:103A700047DAEF804044635CA0349387012B8C438A
:103A80000655EF901079EFA0C0599387012B2AD8E3
:103A90002EDA1655CC43EF90D077EFA080582A86C7
:103AA000AE86EF8080574258D2582ACC4286C686CE
:103AB00042852ECEC685EF804056F24762472A8661
:103AC000AE863A85BE85EF70C070EF50C05EEFA045
:103AD000006093074005B307F402032D0D00AA858B
:103AE0002AD86A85A697DC533ECCEF909040635C61
:103AF000052C42576A85BA85EF9070062A8D938708
:103B0000012B8C476685EF90D0709257931C15005F
:103B100093DC1C009C43E6853E853ED0EF90703DD3
:103B2000635E05008257E6853E85EF905003EA8587
:103B3000AA8CEF90B0336343A000668D9387012B6E
:103B4000CC475A85EF90F06CB257131B1500135BEE
:103B50001B0083AC0700DA856685EF909039635DC2
:103B60000500DA856685EF90807FEA852A8BEF90E5
:103B7000F02F6343A0005A8DE2456A85EF903040F4
:103B80002A8BAA854E85EF90D03663430500DA89EB
:103B900093074005B307F402A697C85B23A6370333
:103BA000905BB717010083A5C7D8B70700803D8D8C
:103BB000EFF00FD3CE852A8BEF90502B6343A000FC
:103BC000DA89930740053304F4025A85A294C05061
:103BD00023A43403A285EF9070291345F5FF854790
:103BE0007D814146A38CA402238CF4028C101385A2
:103BF000012BEFA0C06BC247A285528580C3EF9016
:103C000000762AC8A2854E85EF9060754246AA8547
:103C10002685EFF0CFAA52471C8641468C001CA394
:103C2000A257D6C0DEC213850726E2C4CAC6EFA0DB
:103C30000068EFF00FF3EF00004465616FC00FE024
:103C40000146C14537150140EF4060378327CB005F
:103C5000E38E07A603AB018EA5BCB6853685EF9033
:103C60001032AA89EA856A85EF907031AA854E855F
:103C7000EF904038AA89E6856685EF905030AA8596
:103C80004E85EF902037EF50A04E93074005B307C5
:103C9000F402A697EDB4930C4005B30C940383A5EE
:103CA000C18C4E85EF90B02DEF508009EFA0C01869
:103CB00003AA012C138D012CA69C23A4AC04EFA015
:103CC00060292AD26E85EFA0801C9257AA853E8576
:103CD000EF90F02ADA85EF908068AA8D5285EFA0E8
:103CE0006027AA856E85EF9070186354A00023A406
:103CF0004C05930C4005B30C9403032A4D00A69C7D
:103D000003A58C04EFA00025AA8D03A54C00EFA00D
:103D10000018AA856E85EF909026DA85EF902064D2
:103D2000AA8D5285EFA00023AA856E85EF9010140E
:103D30006354A00023A44C05930C4005B30C9403DA
:103D4000032ACD00A69C03A58C04EFA0A020AA8D79
:103D500003A5CC00EFA0A013AA856E85EF903022BA
:103D6000DA85EF90C05FAA8D5285EFA0A01EAA85CC
:103D70006E85EF90B00F6354A00023A44C05930C04
:103D80004005B30C9403032A8D00A69C03A58C0464
:103D9000EFA0401C2A8D03A58C00EFA0400FAA8540
:103DA0006A85EF90D01DDA85EF90605B2A8B528593
:103DB000EFA0401AAA855A85EF90500BE35EA0BA97
:103DC00023A44C0555BE825703AD87620DBBD28933
:103DD000C1B3E3410689B2876FF0FF87EFC2AFC37B
:103DE0009384012D08412E8A8C40411136C432C67D
:103DF00037090100EF90B01883250961B719002039
:103E000013840926EF90001FEF500009EF90B07C5B
:103E1000CC4008C003250A00EF9070168325096185
:103E2000EF90401DEF504007EF90F07A32468C44FF
:103E300048C00842EF90B01483250961EF90801BC1
:103E4000EF508005EF903079A246CC4408C48842F8
:103E5000EF90F01283250961EF90C019EF50C00375
:103E6000EF90707748C49306C4001306840093054E
:103E7000440013850926EF00F0171307000023A460
:103E8000E18C9387012B98C3D8C398C7D8C7410149
:103E90006FC0AFBBEFC2CFB983A5812D08413714E6
:103EA000002013040426EF90900DB707010083A5AE
:103EB0000761EF902014EF40307EEF90D07108C47E
:103EC00013058400EF0090156FC0CFB8EFC24FB656
:103ED00083A5C12D08413714002013040426EF9058
:103EE000100AB707010083A50761EF90A010EF400B
:103EF000B07AEF90506E48C41305C400EF00D013A1
:103F00006FC04FB523ACA1808280EFC2CFB037190C
:103F1000002001449389012C130909249384012D65
:103F2000414AB30789008843B38A8900EFA0800221
:103F3000B38784008C431104EF907004EF90D06F2E
:103F400023A0AA00E31F44FD6FC02FB083C6018DDC
:103F500083C7118D93F7F70F6388D70083C7118D3F
:103F60008507BD8BA388F18C8280EFC26FAC9387ED
:103F7000618F9C2393F7F70F1389618F9384718F5F
:103F80001384818F91EB9C2093F7F70F91E71C200E
:103F900093F7F70F6385070C370501001305855E5E
:103FA000EF40303B371501001305C5E0EF40703A94
:103FB0008347090093F7F70F8DC7B717002003A5B4
:103FC0000728EF90D06C83A5012DEF904039EFA02A
:103FD00040052A8637150100AE861305C5E1EF407E
:103FE00050379C2093F7F70F95C7B717002093879A
:103FF0000728C843EF90B06983A5412DEF90203684
:10400000EFA020022A8637150100AE86130545E28F
:10401000EF4030341C2093F7F70F95C7B7170020F7
:10402000938707288847EF90906683A5812DEF90AE
:104030000033EF90107F2A8637150100AE861305F6
:10404000C5E2EF40103137150100130585F4EF404C
:1040500050302300090023800400230004006FC0B7
:104060006F9F238B018EA38B018E238C018E828008
:10407000238EA1808280EFC2AF9B8545370500402B
:10408000EF1050466FC00F9D2967130707C4938731
:10409000018F636DA7041567130707E2AA8563798B
:1040A000A7048981114737450F00130505243345BF
:1040B000B50298A3930730064205418163E5A70442
:1040C000EFC20F97371501004111130585DF2EC68A
:1040D000EF403028B24537150100130585B2EF4097
:1040E00050271305400641016FC0CF96BA8555BFD2
:1040F0000967130707716376A700935515000947F1
:104100005DB705474DB78280797185453705004019
:1041100022D626D44AD24ED052CE56CC5ACA5EC8E7
:1041200062C666C46AC26EC0EF10703F6303054486
:10413000854537050040EF10104083A74192138456
:10414000419299EF83C6018D83C7118D93F7F70FC5
:104150006398D72E9305007D37050040EF10303B64
:104160001C406388074083C707022388F190858B32
:104170001389C1909389019193840182638C0732E2
:1041800005469305000237150140EF305063FD5797
:104190009CA083C7C181A1CB3715014093050008BE
:1041A000130505C0EF10006683C6C1859387419053
:1041B0003387A6403337E0006386A60294239DC26E
:1041C000144090426350C002371600208325062712
:1041D000944A371600202320B6288545238BB18EBC
:1041E0002320D90098A383C70900898B638E072CED
:1041F000371A014005469305000413050A80EF3085
:10420000105CFD579CB083C7C181A1CB93050020F2
:1042100013050AC0EF10005F83C6D18593875190C4
:104220003387A6403337E0006388A60294238DC607
:10423000104054426352D002B716002093860627DE
:10424000CC42B716002093860628CCC28545A38BA6
:10425000B18E144A2320D90098A383C70900918BFB
:1042600063800728371A01400146916513050A80CB
:10427000EF30F054FD57BCA083C7C181A1CB93059B
:10428000004013050AC0EF10E05783C6E18593870D
:1042900061903387A6403337E0006388A6029423F9
:1042A0008DC6104014466352D002B7160020938684
:1042B00006278C46B7160020938606288CC68545AF
:1042C000238CB18E144A2320D90098A383C70900F8
:1042D000A18B6382072237150140054685451305EA
:1042E0000580EF30D04DFD57B7190140BCB0014AF1
:1042F000938B09C0B71A00208387018F184063563B
:10430000FA209387819194431843369798C3635B4F
:10431000E002054691455E85EF30704A1440938770
:1043200081919843944A01469145158F98C39C20EA
:1043300013870A271443E207E187B6975E851CC3FB
:10434000EF30F04718409387C19194435843369714
:1043500098C3635FE0020546930500081385098052
:10436000EF30F04514409387C1919843944A014639
:1043700093050008158F98C39C3013870A27544370
:10438000E207E187B697138509805CC3EF303043BD
:1043900018409387019294431847369798C3635DFA
:1043A000E0020546A16513850980EF3050411440B5
:1043B000938701929843944A0146A165158F98C34B
:1043C000BC2013870A271447E207E187B6971385B5
:1043D00009801CC7EF30B03E184093874191944349
:1043E0005847369798C3635DE002054689451385B3
:1043F0000980EF30D03C1440938741919843944A10
:1044000001468945158F98C3BC3013870A27544746
:10441000E207E187B697138509805CC7EF30303A31
:1044200083270900184085072320F9008327090006
:10443000184B63FCE70C050A620A135A8A416DBDEA
:1044400003C7118D93074005B387E7023717002094
:10445000130707D0BA97CA3F05472388E704238884
:10446000E7041CC023A00190EFF01FC22399A18E86
:104470000387018F2394E1901C4003D50704239AFE
:10448000A18EEFF07FC023AEA18EAA853705004034
:10449000EF10F0071C409C4B8583B307F04023AC22
:1044A000F19023AEF19023A0F19223AAF19023A6DC
:1044B00001907DB101469305000237150140EF30B0
:1044C000103085479CA005B3371501400146930580
:1044D000000413050580EF30902E85479CB0B5BBD6
:1044E000371501400546916513050580EF30302DE5
:1044F0008547BCA0E1BB3715014001468545130542
:104500000580EF30D02B8547C5B3184083270900BD
:10451000544B63EFF606504F83A6C18F9384C18F2F
:10452000B387C602B396C602E183505FA206D58F59
:104530003443B697C207C183239AF18E1387418F04
:104540006373F60012A30A23EFF01FB4AA89AA85A9
:1045500037050040EF10A07B88404E9588C018407A
:1045600083270900184B63E6E70023200400EFF0DF
:10457000FF9D3254A25412598259724AE24A524B58
:10458000C24B324CA24C124D824D4561730020301B
:1045900083270900144F63F2F604544F83A7019058
:1045A0007843938401903385D702B397D702618112
:1045B000A2075D8D9317050103D5418FC183637BEE
:1045C000F500131507014181E370E5F813150701A4
:1045D00041819DBF1D8D4205FDB783D5218F3705D4
:1045E0000040EF10C07283D781901387018F1CA306
:1045F000BDB7EFB2FFC301112A8485450545EF1011
:104600008047930730024C08370500403ECAE084DB
:10461000231D0100EF106062054685453705004007
:10462000EF10C06D9307C0127C8685475C876800D9
:1046300085473EC8EF10601F05616FB0BFC1EFB284
:104640003FBF930500023715014037140140EF309A
:10465000501A1305048093050004EF3090191305D8
:1046600004809165EF30F018130504808545EF3024
:104670005018C14537150140EF30B0170546C14508
:1046800037150140EF30B013C14537150140EF3009
:1046900050160546C14537150140EF305012C1454F
:1046A00037150140EF30F0140546C145371501407C
:1046B000EF30F010C14537150140EF30901305463B
:1046C000C14537150140EF30900F130504C0930525
:1046D0000008EF3090140546130504C09305000848
:1046E000EF30F00D130504C093050020EF30F012F9
:1046F0000546130504C093050020EF30500C130548
:1047000004C093050040EF3050110546130504C066
:1047100093050040EF30B00A130504C09145EF3017
:10472000500D130504C001469145EF305009054670
:10473000C14537150140EF309008130504809305FB
:104740000008EF30100B13050480014693050008A4
:10475000EF30F0060546C14537150140EF30300611
:1047600013050480A165EF30D008130504800146CD
:10477000A165EF30D0040546C14537150140EF3043
:104780001004130504808945EF30B006130504803A
:1047900001468945EF30B0020546C1453715014055
:1047A000EF30F00113054006EFF0BFE48545370513
:1047B0000040EF1020530547238EE18099679387CF
:1047C0008708739007806FB0FFA8EFB27FA603C77A
:1047D000018D83C7118D93F7F70F6395E70083A7CA
:1047E000419299C7EF30503B012CEFC03FCBC5B78A
:1047F0006FB05FA61967731007800841B7170020D4
:104800009387072788C38C4113078708CCC31042BE
:1048100090C79442D4C773100780828099677390C1
:1048200007801441371700201307072714C7938701
:10483000870873900780828099677390078014417E
:10484000371700201307072754C7938787087390EB
:1048500007808280996773900780131725003715AA
:104860000020130505273A95084193878708739020
:1048700007808280EFB2DF9BEFF03FF50546C14530
:1048800037150140EF30A0730546C145371501408B
:10489000EF30E0720546C14537150140EF30207218
:1048A0000546C14537150140EF3060716FB09F9AE2
:1048B000EFB21F98814537050040EF10A04203C7B3
:1048C000018D83C7118D93F7F70F639BE700854533
:1048D0003705004023A20192EF10C0406FB09F97B0
:1048E000EFF0CFE6E9BFEFB2BF9483A5C182B7175F
:1048F000010003A5070FEF80902623ACA1926FB0B3
:104900007F956355050003C5419382809387019588
:10491000AA9788238280EFB21F9041112A849DC5F7
:1049200037050100130585652EC6EF408022B2458C
:1049300037150100130585BCEF40A0213715010094
:10494000130585E7EF40E020EFC0DFAE4567930633
:10495000470F85471307470F7D4683994600635EDF
:1049600034059386F7FF8A068A07BA96BA97839426
:1049700026000395270003990600058DEF9020512E
:104980002A8A33052441EF908050AA855285EF8012
:10499000105F2A8433852941EF90604FAA852285D4
:1049A000EF80F01B2A842685EF90604EAA85228531
:1049B000EF80406441016FB05F8985079106E39EF7
:1049C000C7F813050000FDB7EFB29F8603A5C19697
:1049D0008145EFF05FF423A0A1961307000023A206
:1049E000E1969967739007802380019493878708E5
:1049F000739007806FB01F8683C7019493F7F70FFA
:104A0000638C071AEFB25F80EFF01FFC83A401965E
:104A100003A90197138441954A85EF904047A685E5
:104A2000EF80307FB717010083A58780AA89EF80C8
:104A3000F0436352A00685471CA0B717010003A4EA
:104A4000070F03A5C19413890195EF904044A685F3
:104A5000EF80304A6359051403A58183EF9020430A
:104A6000A685EF80B0406350A0142285EF90A03659
:104A700005852300A90093874194984383A6C19894
:104A8000998E0567130777BB6375D70003A7C19895
:104A900098C36FB0EFFAB717010083A587014E8561
:104AA000EF803045634405006317090085471CA06B
:104AB0001304000079B71C201389C19299C793078A
:104AC00000002320F9002300040083A501834E8504
:104AD000EF80F04A832509002A8A4E85EF808051B5
:104AE00003A4C193AA89A285EF80B040634B05005F
:104AF00003A481934E85A285EF8050376343A000C5
:104B00004E8483A5C182232089002285EF8030470F
:104B1000138481920C40AA8A2685EF80906F83A52A
:104B2000818213898194EF809045EF90804FB71771
:104B3000010003A6070283A64702EF70004E2A8BEE
:104B400003250900AE8BEF90C04DB717010003A6F7
:104B5000870283A6C702EF70404C2A86AE865A852C
:104B6000DE85EF600067EF908056AA892320A900B8
:104B700004C0D6855285EF80E047CE85EF8070690E
:104B8000930500002A84EF80D036E34305F2B7177F
:104B9000010003A9070F2285CA85EF80302DE3525B
:104BA000A0EA4A8479BD37150100130505032300E7
:104BB0000900EF30107AC1B58280EFB26FE71307BA
:104BC000000023AEE19283A5C182B717010003A5BF
:104BD000070FEF80C07823ACA192914537150140B3
:104BE000EF3020410146894537150140EF30C03D87
:104BF000EF30E04C595723A6E194B717010003A901
:104C000087011384418308408145EFF0DFD0CA85D6
:104C1000EF80302E635605001C40C1171CC0D5B76D
:104C20001307A00F23ACE182B717010003A9C70E39
:104C30001384019308408145EFF0FFCDCA85EF80D2
:104C4000F0226356A0001C40C1071CC0D5B72D45FB
:104C5000EF30A0286FB00FE08280EFB26FDD23A8A5
:104C6000019623AA019601469145371501402388F4
:104C70000194EF30C0346FB0EFDDEFB26FD839710F
:104C800083AAC19832CA854763DBB7003715010094
:104C9000130505EBEF30F06B21616FB02FDAAA8CB2
:104CA000371501001305C5EDAE84EF30906AEFF0C3
:104CB000DFFA63D90414130700F8238AE192130C76
:104CC0000008B717010083AB87E9B717010003A8F5
:104CD000C7DE83A787DE130B000042CE3ECCB7179A
:104CE000010003A847EA83A707EA628442D23ED0C4
:104CF000B717010003A8C7D783A787D7628A42D610
:104D00003ED4B717010003A8C7EA83A787EA56C4B1
:104D100056C802C6054D02C2DA893ED842DA83CDB2
:104D2000019493FDFD0F63800D28EFF0FFC963C46C
:104D3000040E9397240013870196BA9783A907005E
:104D4000CE855A85EF8090126343A0004E8BCE85AE
:104D50005E85EF80101A63430500CE8B63010D045E
:104D6000E6854E85EF809010635FA022A24703A7DF
:104D7000C1981D8F85679387873863F6E722B3074D
:104D80008A40858793F7F70F63DA0408238AF19244
:104D900083AAC198A247668BB387FA403EC6E685D0
:104DA0004E85EF801015014D635F051E03A7C19866
:104DB00085679387873833075741014D63F5E71EB1
:104DC00083A7C1983EC492476351F01CA247324763
:104DD000B3875741338DE700B307F7403384870229
:104DE000CD473344A403529463D0871E63DA04286A
:104DF0009307C00E63C987029307F00F228A6348A6
:104E00008C020DA893870195A6971307F00798A326
:104E1000130CF0077DB583A941961DB71387019543
:104E200026971CA3B5B71304C00E9307F00F228A70
:104E30003384874037150100D285130505EFEF3025
:104E4000505137150100A285130505F0EF30705061
:104E50005E85EF90001D2A8637150100AE8613058A
:104E6000C5F0EF30104F5A85EF90A01B2A863715FA
:104E70000100AE86130585F1EF30B04D124789472A
:104E800063D5E7106A85EF908000B707010083A51E
:104E9000C760EF80C04C2A8D2285EF707067624634
:104EA000F246EF7080172ADC2EDE5A85DE85EF8011
:104EB0005036EF90001702569256EF7000162256A9
:104EC000B256EF7080156257F2572A86AE863A8541
:104ED000BE85EF601023EF90801FEF9080142A862C
:104EE0002ADC37150100AE86130545F22EDEEF30C1
:104EF00050466A85EF90E0122A8637150100AE868B
:104F0000130505F3EF30F0446257F2574256D2567C
:104F10003A85BE85EF706010EF90601BAA8B371545
:104F200001001305C5F3EF30D0425E85EF90600FAE
:104F30002A8637150100AE861305C5F4EF3070419F
:104F4000DE855E85EF80000BEA85EF804041EF90C3
:104F5000400D2A8637150100AE86130585F5EF3022
:104F6000503FDE856A85EF809001B717010083A569
:104F7000C7E9EF80D000EF90C00A2A8637150100FC
:104F8000AE86130545F6EF30D03CB3078A0085871F
:104F900093F7F70F63DD0402238AF1929247E68BC1
:104FA0006E8D85073EC2B717010083A5C780668551
:104FB000EF804004CE85EF80C073635F0500371536
:104FC0000100130505F7F9B1514A5144A5B51387FE
:104FD000019526971CA3D9B7424783A7C198998FFB
:104FE0001307007D6377F70463D9040683CD4193EB
:104FF000371501001305C5F9EF30B0354E85EF9038
:1050000040022A8637150100AE861305859EEF30D3
:1050100050343715010013050586EF3090333715EE
:105020000100EE85130585B2EF30B03283A7C19839
:105030003EC883A7C19803A7C198BA972247B387F0
:105040005741998F37571200130707F86371F7021A
:1050500037150100130545FA35B993870195A697D1
:105060003715010083CD07001305C58471B792473A
:105070005247E356F7CA37150100130545FC19B925
:105080009307B00E63D787001304B00E9307E00FA9
:1050900079BB9307E00F9DB3EFB28F992A84EFF0AD
:1050A000DFBBEFC0EFCA05E53705010013058565D5
:1050B000EF30302A37150100A285130585BCEF308B
:1050C0005029371501001305C504EF309028EFC0B3
:1050D000AFC46FB02F98EFB2AF952A84EFF0FFB74F
:1050E000EFC00FC705E53705010013058565EF30F3
:1050F000502637150100A285130585BCEF307025B9
:10510000371501001305C507EF30B024EFC0CFC03D
:105110006FB04F94EFB2CF91EFC08FC309ED370559
:10512000010013058565EF30D02237150100130506
:10513000C50AEF301022EFC02FBE6FB0AF91411102
:1051400022C63704004085451305044026C44AC2E0
:10515000EF00F03C6306050E130504408545EF00A3
:10516000903D83C7C1831384C18393845195C1E764
:1051700083C701959CA095EB0146914537150140E9
:10518000EF20F0631C201D4785071CA083C7719585
:1051900093846195138471956367F70E45678A0759
:1051A000130747E3BA979C43828705469145371515
:1051B0000140EF20D0600146914537150140EF20B6
:1051C00010600546914537150140EF20505F3729A3
:1051D00001400146854513050980EF20505E0546D4
:1051E000854513050980EF20905D0146854513052F
:1051F0000980EF20D05C98201C20E3E5E7F8ADBFE4
:1052000085471CA09820BD4763FCE70213870194E3
:105210001023938601941376F60F13878195938755
:10522000C19519E60C4323A6B1968C4323A4B196ED
:10523000054690A2238004002320070023A0070036
:105240003244A24412494101730020303725014005
:1052500013050540E52193878195984309852A9791
:1052600098C3894779BF8D4769BF914759BF954713
:1052700049BF994779B79D4769B79C20230004002F
:1052800085079CA041B73705010013058565EF3000
:10529000500C37150100130545E5EF30900B9DB715
:1052A000EFA21FF9EF80F057B717010003A607E739
:1052B00083A647E7EF607056EF8070616FA09FF99B
:1052C000EFA21FF7EF80F055B717010003A607E71D
:1052D00083A647E7EF60E062EF80705F6FA09FF703
:1052E000EFA21FF5EF80F053B717010003A607E701
:1052F00083A647E7EF60E060EF80705D6FA09FF5E9
:10530000EFA21FF3EF80F051B717010003A607E7E4
:1053100083A647E7EF607050EF80705B6FA09FF34C
:1053200073002030EF20C052AA8537150100130505
:105330000517EF301002EF200052AA853715010043
:1053400013050518EF30F000EF202050AA8537151F
:10535000010013050519EF30C07F01A0B717024007
:105360009843B706FFF841111367170098C3D84355
:1053700037060200758FD8C39843B706F7FEFD16AF
:10538000758F98C39843B706FCFFFD16758F98C3B9
:10539000D843B70681FFFD16758FD8C39843B7066B
:1053A00000ECFD16758F98C33707FF0098C723A63A
:1053B000070202C402C69843C166558F98C3B71648
:1053C000024005679C42F18F3EC6A24785073EC456
:1053D000B24781E7A247E397E7FEB71702409C4335
:1053E0001397E7006357070685473EC63247854750
:1053F000631FF704B7170240D843B706C1FFFD1675
:10540000D8C3D843D8C3D84313670740D8C3D843B9
:10541000758FD8C3D843B7061D00558FD8C398439E
:10542000B7060001558F98C3984393166700E3DDD4
:1054300006FED843B7160240719BD8C3D843136702
:105440002700D8C32147DC42B18BE39EE7FE410130
:10545000828002C661BF01A001A001A001A001A03D
:1054600001A001A001A001A001A001A001A001A034
:1054700001A001A001A001A001A001A001A001A024
:1054800001A001A001A001A001A001A001A001A014
:1054900001A001A001A001A001A001A001A001A004
:1054A00001A001A001A001A001A001A001A001A0F4
:1054B00001A001A001A001A001A001A001A001A0E4
:1054C00001A001A001A001A001A001A001A001A0D4
:1054D00001A001A001A001A001A001A001A001A0C4
:1054E00001A001A001A001A001A001A001A001A0B4
:1054F00001A001A001A001A001A001A001A001A0A4
:1055000001A001A001A001A001A001A001A001A093
:1055100001A001A097B1FF1F9381C15017B10020D6
:10552000130141AE17D50000130585C297B5FF1FC3
:10553000938545AD1386818663FAC50083220500F5
:1055400023A0550011059105E3EAC5FE1385818668
:1055500097C5FF1F938585FC6377B5002320050061
:105560001105E36DB5FEFD42739002BCAD42739030
:105570004280B76200009382820873A0023097B223
:10558000FFFF9382A2AB93E2320073905230EFF0B0
:10559000FFDC97D2FFFF938262FD73901234730099
:1055A0002030EFA2FFC8B727014093870740631C54
:1055B000F500854513050020F129814513050020DC
:1055C000D1296FA03FC9B737014093870780E31AFD
:1055D000F5FE8545130500407529814513050040FA
:1055E000C5B75C413707F1E01307F7EF944D7D8FA6
:1055F0009C41D58FD44DD58FD441A206D58FD98F5C
:105600005CC11C4537F7F1FF1307D77FD4457D8F69
:105610009C49D58F94458606D58FD98F1CC55C557E
:10562000370710FF7D177D8FDC29FD1793F7F70FE4
:10563000D207D98F5CD582801C4589C593E71700B6
:105640001CC58280F99BEDBF1C4593E787001CC5F4
:10565000828008450D81058982801C4593E74700BB
:105660001CC5828008450981058982801C4591C539
:1056700037075000D98F1CC582803707B0FF7D17D0
:10568000F98FD5BFA54763F7B7048D47138765FF2B
:105690003307F7020328C5009D47B397E70093C778
:1056A000F7FFB3F70701B396E600DD8E54C59947BF
:1056B00063E3C70495477D163306F6025859FD4744
:1056C000B397C70093C7F7FFF98F3396C5005D8E78
:1056D00050D982800D473387E502032805019D4795
:1056E000B397E70093C7F7FFB3F70701B396E60058
:1056F000DD8E14C96DBFB14763E2C70295476516D9
:105700003306F6021859FD47B397C70093C7F7FF52
:10571000F98F3396C5005D8E10D9828095474D165E
:105720003306F6025855FD47B397C70093C7F7FFF6
:10573000F98FB395C500DD8D4CD582806845420553
:10574000418182809C4513F7070113F8F70001C7D8
:10575000D8413368E8008E2113F7F50F39C318419B
:105760008146854E3D4F930F800293028004214E67
:105770003396DE00B3F8C500631116039398260034
:1057800033131F011343F3FF3377E300B3181801FA
:1057900033E7E800639FF70550C98506E39AC6FD25
:1057A00018C11307F00F6375B70454412146854EA5
:1057B0003D4F930F800293028004414EB398CE0078
:1057C00033F715016392E80213172600011733130C
:1057D000EF001343F3FFB376D3003317E800D98EFD
:1057E000639DF701232A15010506E319C6FD54C17F
:1057F0008280E39457FA10C94DB7E39757FE2328E8
:105800001501DDB708456D8D3335A00082800CC9C8
:1058100082804CC98280AD67373700409387A7AA42
:105820001CC3828023ACA196828093878197944386
:10583000182181E63C21920721A894430546639FE5
:10584000C6023C21103192076314D60093E707F893
:10585000B7E600E093F7F70FBA962380F640854647
:10586000935757003397E6005441A5C29387070426
:105870008A07B7E600E0B69798C382808C438946D2
:105880006391D50214313C216365D6008A06B69730
:105890005DB79386E6038A06B69793F7F70F9207EC
:1058A00075B790438D46631CD60014313C21636468
:1058B000D6008606E9BF9386C6078606F1BF9443E5
:1058C0009147E39EF6F81C31BDB7938707064DB7A5
:1058D000B7160240DC4251777D17F98F5D8DC8C243
:1058E0008280371702405C439146B18B6385D700B5
:1058F000A1466382D706B7177A00938707201CC199
:10590000371602405C4237070020130707049183D3
:10591000BD8BBA9794231C41B3D7D7005CC15442C6
:10592000A1829D8ABA969422B3D6D70014C5544258
:10593000AD829D8A36971823B3D7E7005CC55842DD
:105940003983937637001387418436971823B3D76A
:10595000E7021CC982805C435843C166C983758FC6
:10596000B7F6FF1F83A6C670BD8B89071396160175
:1059700063480600C54601466392D702C94739A865
:105980008946638FD702BD46638ED702C146638EB8
:10599000D702C54601466393D700C1471DEF37477D
:1059A000024003270780418B05C737177A0013078A
:1059B0000720B307F7021CC121D61C41858381B79C
:1059C00001466DBF0546B547D1BF0146BD47F9B792
:1059D00037173D0013070790E9BFB7150240D855A8
:1059E0009316F700D85563DF060411833D8B9306A9
:1059F000170037177A00130707203357D70218C14B
:105A0000D455A182BD8A8DE295463307D70205831E
:105A100018C137170240585714413D8B050733D73B
:105A2000E60218C1184171B785456394B600E54692
:105A3000E9BFBD456396B600D1463387E602C9BFCC
:105A40008906E5BF3D8B9306170037177A001307C9
:105A500007203357D702F1B799C5371702401C4FBB
:105A60005D8D08CF8280B7170240984F1345F5FF30
:105A7000798D88CF828099C5371702405C4F5D8D44
:105A800048CF8280B7170240D84F1345F5FF798D74
:105A9000C8CF828099C5371702405C475D8D48C7E3
:105AA0008280B7170240D8471345F5FF798DC8C7E4
:105AB000828099C5371702401C4B5D8D08CB8280D0
:105AC000B7170240984B1345F5FF798D88CB82803C
:105AD0001A218D6793870704B6217D8F9E21D58F6C
