:100000006F50C059130000001300000013000000DF
:100010001300000013000000130000001300000094
:100020001300000013000000130000001300000084
:08003000130000007300100032
:100038000000000000000000A8530000AC530000BE
:1000480000000000E2540000000000000000000072
:10005800E4540000E6540000000000000000000026
:10006800CC80000000000000EA54000000000000FE
:10007800F2830000EE540000F0540000F254000037
:10008800F4540000F6540000F8540000FA5400003C
:10009800FC540000FE54000000550000025500000A
:1000A8000455000006550000085500000A550000D8
:1000B8000C5500000E5500001055000012550000A8
:1000C8001455000016550000185500001A55000078
:1000D8001C5500001E550000205500002255000048
:1000E8005E410000C6510000285500002A55000056
:1000F8002C5500002E5500003055000032550000E8
:1001080034550000365500003E8200003A55000084
:100118003C5500003E550000405500004255000087
:100128004455000046550000485500004A55000057
:100138004C5500004E550000505500005255000027
:100148002A26000056550000585500005A55000050
:100158005C5500005E5500006055000062550000C7
:100168006455000066550000685500006A55000097
:100178006C5500006E550000705500007255000067
:100188007455000076550000785500007A55000037
:100198007C5500007E550000805500008255000007
:1001A8008455000086550000885500008A550000D7
:1001B8008C5500008E5500009055000092550000A7
:1001C8009455000096550000985500009A55000077
:1001D8000000000000000000000000000000000017
:1001E8000000000000000000000000000000000007
:0801F8000000000000000000FF
:10020000397101436EC619A0397141536AC866CA73
:1002100062CC5ECE19A0397101535AD056D252D455
:100220004ED64AD826DA22DC06DE330161408282CD
:1002300041114AC026C222C406C68282B24D410183
:10024000024D924C224CB24B4101024B924A224A3F
:10025000B2494101024992442244B24041018280A4
:100260003D432A876373C3029377F700BDEFADE583
:10027000937606FF3D8ABA960CC34CC30CC74CC795
:100280004107E36BD7FE11E28280B306C3408A06C2
:100290009702000096966780A6002307B700A30682
:1002A000B7002306B700A305B7002305B700A304D2
:1002B000B7002304B700A303B7002303B700A302CA
:1002C000B7002302B700A301B7002301B700A300C2
:1002D000B7002300B700828093F5F50F9396850051
:1002E000D58D93960501D58D61B79396270097021A
:1002F000000096968682E78086FA9680C1171D8F49
:100300003E96E374C3F8A5B70100010001000100A7
:10031000010001000100014582803307C5009307F9
:10032000001063C7E702EFF21FEF3289AE89AA849B
:10033000014493170401C18363FE270133878900B9
:10034000A6970C231395070141817D3F0504D5B77E
:10035000014582800545D5BD010001000100010075
:10036000010001000100010001000100014582803F
:10037000EFF21FEC4111AA840144931704012EC629
:10038000C18332C463FEC700338584001375F50F43
:10039000E137B2452246B387850088A30504F1BF43
:1003A0000545410145BDEFF21FE72A89AE8432843D
:1003B0009309F00F370A0100B70A01007D14137486
:1003C000F40F630B34038C2003550900353F0345BC
:1003D000090059379C20638AA70013050A67EF803C
:1003E000C07F13858A67EF80407F832709008504DB
:1003F00085072320F900D9B789BDEFF27FE32E9658
:100400004111AA841374F60F88202EC6B137B24565
:1004100088A19C40850585079CC093F7F50FE315DF
:10042000F4FE410105BDEFF2BFE07971C1651384AF
:1004300005644146938505640A85EFD0D06F414637
:10044000930504010808EFD0106F4146930504029C
:100450000810EFD0506EB7160020371700208147E4
:100460001386812C9386062513070724C14533087C
:10047000F100032808003385C70000082320050188
:100480003308F400032808003385D7000010232028
:1004900005013308F400032808003385E7009107BD
:1004A00023200501E395B7FCEF30902BB70701003F
:1004B00083A747691306000023A6F18C23A6F18EBB
:1004C0003707010003278769B706010023A0E18EE3
:1004D0009567938707E223A2F18E23A4C18EB70705
:1004E000010083A7C76983A6066A23ACF18C23AEFB
:1004F000D18C23AAF18C1387C1B210C750C3370720
:1005000001000327476A23A6C1B223A8E182B707E7
:10051000010003A5876AEF40306123A6A182B707D7
:10052000010003A5C76AEF40306423A4A182EF4015
:100530008041370701000327076B370501001305CA
:10054000056723A2E182EF804069370501001305AA
:10055000456BEF8080684561F5B9EFF27FCA9385FE
:10056000411F131425009388C50013888500138A42
:100570004500C6864286338B8500AA899307000012
:10058000D2851385411F2320FB00EF30900AB70767
:10059000002093874703A2978843938B4181EFD034
:1005A000D030B717010003A607BF83A647BFCE9B75
:1005B000EFB0302F2A8C03850B00AE8C9384412042
:1005C000EFC0807D2A86AE866285E685B70C002066
:1005D000EFB0302D938C4C02EFD0F037338984008C
:1005E000A29C371E01002320A90003A50C0083252F
:1005F000CEBE9389818023A0A900EFC0D05E138373
:10060000C400138D840091042A879A866A86A68581
:10061000138541209387018AEF2030619307000002
:100620002320F900EF406020930700002320FB0007
:10063000938801201388C11FD285370A0020C686FF
:1006400042861385411F130A8A01EF30807E229A69
:10065000832D0A0003850B00B7070080B3CDFD0092
:10066000EFD0700BAA856E85EFD0E019371E010020
:100670008325CEBE2320A90003A50900930D000009
:10068000EFC07056138301212A879A866A86938762
:10069000018AA68513854120EF2030592320B90116
:1006A000EF40A01883250A002E85EFC0301D2A8A4E
:1006B00003850B00EE8BEFD01006AA855285EFD094
:1006C0008014B707010083A587692320A90003A52B
:1006D0000C00EFD04013371E01008325CEBE23A0AF
:1006E000A900EFC05050138301212A879A866A8699
:1006F0009387018AA68513854120EF20105323207C
:10070000B901EF4080129387C1B2A29703AA0700F4
:10071000B707002093870700A2978C435285EFC04C
:10072000F015938781B3A297AA8A2320AB00884350
:10073000D28593844121EFC07014A29488C0B7077A
:100740000020B70400209387C70093840404A29478
:100750003E940840D285EFC0701288C02320590112
:1007600023A0B901EF305015D1BCEFF27FAC2E843D
:10077000AA85371501001305C5A6EF80004622851E
:10078000EFD0B0122A8637150100AE86130505A7F3
:10079000EF80A044C1B4EFF2BFA941112EC4AA85D5
:1007A00037150100B2861305C5A636C6EF80E042B4
:1007B0002246B24637150100130505A7EF80E04138
:1007C000410149BCEFF2DFA62E84AA85371501004E
:1007D0001305C5A6EF80604037150100A2851305FB
:1007E00005A7EF80803FBDB4EFF2FFA29384C188DC
:1007F00098408D4763C5E706138481891C4013091F
:100800000006B307F9029389C19AAA853385F900D6
:10081000EFD0F0403705010013050567EF80E03B9E
:100820003715010013050585EF80203B0C40371577
:1008300001001305C5A6B305B902CE95EF80E039D6
:10084000371501001305C585EF8020391C4011477D
:100850008507B3E7E7021CC09C4085079CC0F5B242
:10086000EFF21F9D5137FDB2EFF29F9C371501004B
:10087000130505BDEF806036996773900780B70751
:10088000EFBE37E700E0938707083CC76FF09F9CF7
:10089000EFF21F9A37140140130504808565EF704D
:1008A000C07D0546130504808565EF70C079F1654C
:1008B0009385052013854199EF70702237250140FB
:1008C000854513050580EF70407BEF70E00B371511
:1008D0000100130585B0EF80403037150100130586
:1008E00005B2EF80802FB704010013850467EF8005
:1008F000C02E37150100130545B3EF80002E3715C4
:100900000100130545B4EF80402D37150100130594
:10091000C5B5EF80802C37150100130585B6EF8033
:10092000C02B37150100130585B8EF80002B371554
:100930000100130545B9EF80402A13850467EF8055
:10094000C02937150100130505BAEF8000293715B6
:1009500001008145130505BBEF80202837150100F4
:10096000130545BBEF806027371501009305005440
:100970001305C5BCEF80602623A801886D34EF40C5
:10098000C029EF20B024EF307051EF70A0770146FE
:10099000856513050480EF70006B6FF0BF8B014716
:1009A000930600063306E500030606009317870149
:1009B000E1876314B6069305F00525461397870172
:1009C000618763CFE504B306F5009422850793861B
:1009D00006FD93F6F60FE363D6FE8147A548294846
:1009E0009305F005B306E50003860600930606FDB1
:1009F00093F6F60F63E1D802B387070305079376F2
:100A0000F70F139786016187938707FDB297C20797
:100A1000C183E3F9D5FC3E8582800507E314D7F84E
:100A20008147D5BFEFF2DF80830715001307C004AD
:100A3000AA846388E700130700056380E7046FF06A
:100A40007F81B715010093854586EFD0701F19C5CA
:100A50009305A0032685A1372399A18AB715010024
:100A6000938545872685EFD0B01D71D99305A003E6
:100A7000268535372398A18AD9B7B7150100938504
:100A8000C587EFD0F01B45DD930530072685013F74
:100A90001384418B0AA01E209305A0032685C2075C
:100AA000C18381CFED3D9307C0033305F5021A20C2
:100AB0003A95420541810AA059B7D535EDBFEFF20D
:100AC0002FF703A74189930700063387E70283A71F
:100AD00001881385C19A8145B306E500958F850786
:100AE000BA973E95EFE0A064EFD0E0666FF08FF626
:100AF000EFF20FF403A74189930700063387E7025B
:100B000083A701881385C19A29468145B306E5006C
:100B1000958F8507BA973E95EFE0C0766FF08FF31B
:100B2000EFF20FF103A7418993070006AA85B38767
:100B3000E7021385C19A3E95EFD0F00C23A0A1885F
:100B40003335A0006FF00FF1EFF28FEED13F6FF071
:100B50006FF0EFF26FEB9389818083A7090023AEDA
:100B6000F18693870181984323ACE18A13074006FD
:100B700098C303A701999387C18A98C3EF30F04ABD
:100B80000545EF3040541387411F1443938741209C
:100B900094C3544313058005B7040020D4C31447FD
:100BA0005847938BC18794C7D8C79307000023A0E9
:100BB000F900BD379389C18A138B8180938A818B19
:100BC000138A01811384411F938484226311050CCD
:100BD00013059005B137631C050A1305A005893775
:100BE0006317050A85479CA00945EFF01F979C20D5
:100BF0006386070A0145EFF05F969C2089E713059D
:100C00009005393F01C50545EFF03F951305800577
:100C1000013F11C9F13D01C95D35AA8503A5C1B2E6
:100C2000EFC0C04508C013059005DD3D11C9C935A9
:100C300001C97135AA8503A501B3EFC0204448C09E
:100C40001305A005F13D11C9653501C98D3DAA8582
:100C500003A541B3EFC0804208C49306C400130645
:100C60008400930544001385411FEF30801C83A747
:100C70000B002320FB0083A70A002320FA0083A790
:100C8000019923A0F900EF3020436FF06FDB1305CB
:100C9000A005238004006935E31805F413058005D9
:100CA0004135E31905F4A1BFEFF28FD813854199BF
:100CB000EF70007337150100130545ADEF70F0714B
:100CC00083A5C18637150100130505AE8505EF70B4
:100CD000D0706FF02FD8EFF2AFD27571371A0020B5
:100CE00093870189130ACA481384C19A3EC6832791
:100CF0000A0803274A08998F93F7F70795CB03A7AC
:100D0000C1888D47938CC18863C4E70213854199DC
:100D1000EF70806A62056185A94713870187938414
:100D200041876317F5029440A9EA2388018631A818
:100D30001306000681450818EFF08FD2938741B45F
:100D40009C33138D41B46397072849616FF00FCF2F
:100D5000B547E30AF5FC9307A0036314F5001C23D1
:100D6000F9D394409307E005E3CFD7FA9307B00394
:100D70006312F52485471CA39DBF938D818983A7AA
:100D80000D00130600061823B38AC7021389818950
:100D9000B3095401CE96238006006318071C32471E
:100DA0009305E0044E85BA9723800700EFD0A06535
:100DB0006300051C23A0A188330535410505569520
:100DC000294681452295EFE0E04B938BC18683A7AE
:100DD0000B00138DC1892320AD008507138B01887B
:100DE000938AC1899389C186630EF50403A50D001A
:100DF00013060006B70501003305A6029385856D2D
:100E00002295EFD0E0631DED370501001305056E57
:100E1000EF70B05C370501001305856EEF70F05B75
:100E200083A50B00370401001305C471EF70F05A5D
:100E300083250D001305C471EF70305AB53523A01A
:100E4000040021B703250900930B00069305A002B7
:100E5000B30B7503B30D74016E85EFD0C05A3DC15D
:100E60008147014DEE861306A0023387F600030783
:100E700007006308C7008507E207E187334DA70134
:100E8000EDB72320AB003305B54105055E958145DF
:100E90002295EFE0C029EFB0F0636308A5053705A0
:100EA00001001305056EEF7050533705010013055F
:100EB0000572EF7090523715010083A509001305E4
:100EC00005AE9DBF370501001305056EEF70F050AC
:100ED0003705010013050574EF7030503705010028
:100EE00083A509001305C57181BF83A70A0023A04C
:100EF000F900832909001305000693057004B3095E
:100F00003503B30A34015685EFD0E04F31C123A039
:100F1000A1883305554105054E9581452295EFE0A1
:100F20000021EFB0305B8D4763E4A70283C7818661
:100F3000BDEB83C741B489EF3705010013058579FF
:100F4000EF70B04937150100130545F8EF70B04D4B
:100F50008327090011478507B3E7E7022320F9003B
:100F600083A70C00850723A0FC0023A0040041B345
:100F70009305A0024E85EFD0004925DD370501001D
:100F80001305056EEF707045370501001305C57632
:100F9000EF70B04483A5C186370501001305C57104
:100FA000EF70B04369BD370501001305C579EF70D7
:100FB000D04279BF1C23E39C07D283A78189138782
:100FC000160098C013070006B387E702A297B697EA
:100FD00088A331BB83A7418713844187E39707D652
:100FE000814C1389C19A93890189B71B010003279A
:100FF0004D2683270D26E30AF7D403A7C1888D4722
:10100000138CC188E3C3E7D413058D25EF60B007C7
:10101000A947938D01876304F502B5476301F50283
:101020009307A0036315F50083C70D0089CB184013
:101030009307E00563C5E700FD576317F50E032727
:101040000D2683274D26631FF70613854B81EF700E
:10105000D0383715010013058582EF70103883A74B
:1010600001999306C00323A0F18C03A6C18B3D67B1
:10107000130707A6918F33D7E70237F6360013061A
:1010800006E8B71501009385C5830808B376D70233
:1010900033D6C702EF70B036370501001305056778
:1010A000EF70B033371501000C08130505BBEF7066
:1010B000D032138541B4EF1030308545138541B4EB
:1010C000EF10B01783C70D0099CF0818EFF09F9568
:1010D0008147130700061418BE9623800600850773
:1010E000E39BE7FE814C1040E30106C493868189AF
:1010F0009C421307000623800D003387E70223205C
:1011000004004A9732972300070005463387F90009
:1011100010A303270C00850705072320EC001147C7
:10112000B3E7E7029CC2E1B59307B0036310F50291
:1011300085472380FD00180993871C00BA9C2380F3
:10114000ACFA939C870193DC8C4155B583C70D00A5
:10115000FDF383A781899306170014C09306000648
:10116000B387D702CA97BA9788A337470040137549
:10117000F50F8357074093F70708E5DF42054181E4
:101180002312A740ADB503A7019923A6E18A03A7BF
:10119000418993870189BA979C238DE3EFF24F89A8
:1011A0003705010013058579EF70302337150100ED
:1011B000130545F8EF7030276FF0CF898280EFF28A
:1011C000AF849384411F1384412001499389018690
:1011D000138A418A914AB387290103850700EFF0FA
:1011E0003F9429CDEFF0BF8DB3072A01AA8B882346
:1011F00011E59387618B88231375F50FEFC0B0510C
:101200008C40EFC04060DE85EFB0506708C0050934
:1012100091041104E31159FD13056004EFF05F9090
:1012200001CDEFF0DF89930500002A84EFC0804CE8
:101230006354A00023A481806FF08F809C401CC069
:10124000F9B7EFE2FFFEA53F13059004EFF05F8DC5
:101250001384019A11CDEFF09F8608C01305A004F6
:10126000EFF01F8C11C9EFF09F8548C06FE09FFE23
:10127000930700001CC0DDB7930700005CC0FDB7FA
:10128000EFE21FFB03A941212A840841CA85938408
:101290004121EFC0804E635405002320240103A99F
:1012A00044004840CA85EFC0404D635405002322E6
:1012B000240184440844A685EFC0204C63530500F4
:1012C00004C4B704002003A9040408409384040460
:1012D000CA85EFC020426354A0002320240103A943
:1012E00044004840CA85EFC0E0406354A000232278
:1012F000240184440844A685EFC0C03F6353A00086
:1013000004C46FE03FF5EFE2BFEF138541208D3F4E
:1013100003A701999384412003A5411F8C4023A674
:10132000E18A83AA8180EFC02037CA8C1384411FD1
:10133000371A0100938DC120138D812031E1CC40FB
:101340004840EFC060350DED8325CABE5685EFC01D
:1013500080092A879387018A938601211386C120F9
:101360009385812013854120EF20200C9C401CC0D8
:10137000DC405CC09C441CC4DC445CC46FE01FECDB
:1013800003A50181EFC03039D685EFC0C047832562
:10139000CABEEFC04005B717010083A50786EFC09E
:1013A00080042A879387018A938601216E86EA85C5
:1013B0001385412055BFEFE21FE61384019A2A8965
:1013C000484001111379F90FEFC0304E2ACC084084
:1013D0002ECEEFC0904D6246F246EF709049EFC0BE
:1013E00090572ACC03A50181EFC0F03283A58180FC
:1013F000EFC06041B717010083A5C7BEEFB0B07E54
:10140000B717010083A50786EFB0F07D83C7018A77
:10141000E248938441203EC24AC02A888947054752
:1014200081461386019A938541201385411F1384B9
:10143000411FEF10407B9C401CC0DC405CC09C44C2
:101440001CC4DC445CC403A7019923A6E18A05619E
:101450006FE0BFDFEFE2DFDD996773900780EF3069
:10146000D0050546C14537150140EF60D03D054622
:10147000C14537150140EF60103D0546C1453715A0
:101480000140EF60503C0546C14537150140EF6013
:10149000903B3705010013050567EF7000743715A1
:1014A0000100130585AEEF70407337150100130579
:1014B00045F8EF704077EFF02FBB01A0EFE25FD768
:1014C0001386C18A83A601990C4203A641888D8E9A
:1014D0009387C18A6374D60011C2AD3F83A6418051
:1014E000A1CA03A701999C43B307F74063F2F6042E
:1014F00003C7018D83C7118D93F7F70F639AE70236
:101500000546C14537150140EF60F0330546C1453A
:1015100037150140EF6030330546C14537150140AE
:10152000EF6070320546C14537150140EF60B031BC
:10153000EF10306D6FE01FD2EFE29FCFEF30E0771A
:101540009387818698231DE3054798A303A7C18647
:10155000370501001305056723A4E188EF70E067F4
:10156000370501001305C579EF7020676FE09FCE46
:1015700003C581868280EFE2BFCB83C7018AAA843C
:1015800013054005238CF186EFF08FD909E5014959
:101590004A856FE03FCC2A89EFF06FD2EFC050123E
:1015A000138481871375F50F08A075D137050100E5
:1015B00013050567EF706062930790066384F40477
:1015C00063CE9700930780066387F4020C203715DB
:1015D0000100130505BBEF7040605DBF9307D006A7
:1015E0006387F4029307A00DE392F4FE3715010020
:1015F0001305C5AB29A037150100130545A7EF70EA
:10160000C05DE9B7371501001305C5A8CDBF371573
:101610000100130545AAE5B7EFE29FBE5D71130512
:101620007004EFF0EFCF630C0516EFF04FC9EFC079
:10163000100391476309F50C63CCA7008947630445
:10164000F50A63CBA70A63530508EFF0DFB349A897
:101650009307A0056309F51063CBA700F147E316D4
:10166000F5FEEFF00FCF05472384E192F9BF930712
:10167000B005630DF50E9307C005E318F5FC1305DF
:101680005004EFF0EFC919E1EF30201A1384411F25
:1016900081449389018613890120138AC1B2930A78
:1016A0008400B387990003850700EFF06FC711C965
:1016B0008D476391F40CEFF08FC048C44A85EF204A
:1016C000500685049147E39EF4FC41B783C78186A9
:1016D00099EBEFF0DFAEEFF01FC305472384E192F3
:1016E00061616FE0BFB583C7818699E7EFF07FB591
:1016F0000545EFF05FCCEDB783C7818689E7EFF052
:101700005FB40145FDB713050005EFF06FC101445B
:1017100011C5EFF0CFBAEFC0A07A2A8413053005C7
:10172000EFF00FC001CDEFF08FB9B707010083A52F
:101730004769EFC0400DEFC0A0782A84EF30E00E7B
:1017400003A7019983A60199BE843A9423A6D18A5E
:1017500083A70199E3FB87EEEF60904CEF30C02F39
:10176000EFF0DFD5F5B7238B018AC5B50547238B8D
:10177000E18AE1BDEFF0AFB493972400330BF4009E
:10178000D297AA858843EFB0700F2320AB00CA869A
:101790005686930544002285EF20A0691DB71305E6
:1017A000D004EFF0EFB719E16F00D053EFF02FB195
:1017B000EFC0E06A13079006AA876300E566634EF0
:1017C000A7147147630BE5506342A70A5947630D9D
:1017D000E546634EA7044947630DE50C634EA70237
:1017E0004547E314E5E60146C14537150140EF6082
:1017F00090050146C14537150140EF60D004014610
:10180000C14537150140EF6010040146C145371549
:101810000140EF60500315BD51476306E540554751
:10182000E315E5E2138541B4EF10200339BD6547A8
:10183000630EE5466341A7025D47630CE5406147DF
:10184000E315E5E0138541B4EF10A00503A7019966
:1018500023AEE18ADDBB69476300E5466D47E316C9
:10186000E5DE138541B4EF104012C5B31307200520
:101870006308E56C6341A7027947630DE54A634756
:10188000E54A7D476301E55613071005E31FE5DAD6
:10189000EFE09FFD5DBB130750056308E574634DE2
:1018A000A702130730056301E56A13074005E31E2D
:1018B000E5D813053005EFF0AFA6630C0568EFF02F
:1018C0000FA0B707010083A54769EFB0D073EFC041
:1018D000205F23A2A18095BB1307C0056309E572B1
:1018E00013078006E313E5D613058006EFF0BFC8A3
:1018F000E31D05D413053005EFF08FA201CDEFF005
:101900000F9C03C48187938741970A043E94EFC0DC
:10191000005508C0EF30403A0DBB1307C00CE3027E
:10192000E51A6349A72213077007E30CE508634033
:10193000A71C130720076302E5786346A71813075F
:10194000D006E314E5D01305D006EFF0DFC2E31EA6
:1019500005CE13053005EFF0AF9C93848187138A81
:10196000419709C9EFF0AF958020EFC0404F0A04BE
:10197000529408C0EF30403403C904000A09B30789
:101980002A01884383AA0199B71B0100EFC0A05820
:10199000938741963E9983270900AA8C7D593EC4BE
:1019A000B717010003AC078993894196371D0100E1
:1019B000E28D83A701991307803EB3875741637C6B
:1019C000F708B71701001385878FEF7000219C205F
:1019D0008A07CE978843EFC0406DB71701002A866B
:1019E000AE861385C78FEF70401FB71701001385B0
:1019F0004790EF70801E8C201385CB8EEF70E01D1A
:101A000013058D90EF70601D03A54197EFC0A050A6
:101A1000EFC0E044AA851385CB8EEF70001C37150C
:101A200001001305C590EF70401BFD57630DF94A87
:101A300083A701998965938505719D8DCA951307C3
:101A4000803EB3D5E50237150100130505AEEF70F2
:101A5000C01883AA0199EF302000EFF03FA6FD5790
:101A60006318F94AA2456685EFB0D0489C208A07E2
:101A70003EC63307FA00635FA0460843EFC0A049A3
:101A8000EE85EFC08001B247CE978C43EFB0F04EA9
:101A9000E341A0F203A90199FD57E30CF9F0634B70
:101AA000090003A7019989679387F77033072741D6
:101AB000E3F1E7F003A7019923AEE18A03A70199B7
:101AC00023A6E18A59B6130730076300E55E1307C2
:101AD0005007E31CE5B603A501889305A002150590
:101AE000EFC07012E30305B6A30F05FEB9BE1307DE
:101AF000C0086306E530634EA70013078007630F35
:101B0000E56A130790070545E391E7B4EF20A05B72
:101B10002DBE1307900C6307E5761307B00C014444
:101B2000E315E5B2371900209384018613090925CE
:101B30009149B387840003850700EFE07FFE19C554
:101B4000EFE0FFF793172400CA9788C30504E31258
:101B500034FFE5BC1307D012E30EE504634DA70282
:101B60001307E00CE301E5006343E5781307C00DBC
:101B7000E303E5021307D00DE319E5AC13053005C7
:101B8000EFE01FFAE30305ACEFE07FF3EFC0202D99
:101B900023A6A1805DBC13070019E301E51463448B
:101BA000A7061307E012E306E5101307F012E31E81
:101BB000E5A813055004EFE0BFF68144E30A0510E1
:101BC000EFE0FFEFEFC0A029AA84E3530510B71799
:101BD000010003A4C78813053005EFE07FF401C5B9
:101BE000EFE0FFED2A8413053004EFE07FF31546A4
:101BF00011C5EFE0DFECEFC080262A86A68522859E
:101C0000EF30A00D99B41307003A6306E5181307E7
:101C1000703EE31CE5A22384018603A7818823A6E6
:101C2000E186EFF03F83371501001305C58AEF60A9
:101C3000D07A138541B4EF00703F371501001305CA
:101C4000C58BEF60907911B4138541B4EF00D04497
:101C5000EDBA9389418903A40900130900063304EE
:101C600089029384C19AB71501009385C58C338589
:101C70008400EFC0E07CE30A059C93054400A69530
:101C80000808EFC0C0790C080546138541B4EF0081
:101C9000104583A50900B305B902A69537150100C3
:101CA0001305C5A6EF6070736FF03F9A138541B4BA
:101CB000EF00D03F6FF07F99138441B43C20E3865E
:101CC000079813053005EFE0BFE5E3000598EFE066
:101CD0003FE22322A4266FF05F9703A501889305B6
:101CE000A002138401881105EFC0E071AA8415C514
:101CF00003A54189930700069305E004B387A70273
:101D00001385C19A3E95EFC0007093050002EFC0A5
:101D1000806F050508C0A38F04FE0C4001469105A5
:101D2000138541B4EF00B03B6FF03F92238201B4C2
:101D30006FF0BF91938741B4BC23E388079013856C
:101D400041B4EF00305203A501889305A0029384AB
:101D500001881105EFC0206B2A8915C503A54189AB
:101D6000930700069305E004B387A7021385C19A81
:101D70003E95EFC0406993050002EFC0C0680505BD
:101D800088C0A30F09FE8C40138541B49105EF0074
:101D9000F03D6FF09F8B03A501889305A00213848B
:101DA00001881505EFC02066AA8415C503A54189E1
:101DB000930700069305E004B387A7021385C19A31
:101DC0003E95EFC0406493050002EFC0C063050577
:101DD00008C0A38F04FE0C40138541B49505EF00A5
:101DE000D0376FF09F8603A70199370501001305CF
:101DF000056723A0E18CEF60505E0C0845B5130524
:101E00003005EFE0FFD1E3020584EFE05FCBEFC0E8
:101E1000000523ACA1966FF05F83EFF0CFF5E316DA
:101E200005823705010013058579EF60105B3715D2
:101E30000100130545F8EF60105F37150100130529
:101E4000458DEF609059138481871C20138741963C
:101E50008A07BA978843B7140100EFC000252A8685
:101E6000AE861385C48DEF605057371501001305FA
:101E7000458EEF6090561C20138741978A07BA97CA
:101E80008843EFC04009EFC040222A86AE86138502
:101E9000C48DEF609054371501001305858EEF60F7
:101EA000D0530820EF20F02BAA8537150100130529
:101EB000C58EEF609052371501001305058FEF6056
:101EC000D0517D55EF20F029AA8537150100130563
:101ED00005BBEF609050371501001305C5F9EF60A1
:101EE000D04F6FF0EFFF3715010013050591EF603C
:101EF000D04E85B60843EFC00002E285EFB000186F
:101F0000B247CE978C43EFB0E07EE35505B855B4A9
:101F10009C208A073387F900D29788433AC6EFB0EE
:101F2000907F3247AA850843EFB03037EFB0307367
:101F30009357F5413D8D1D8DA947E3D4A7B699BEB2
:101F4000A383018A6FF06FF00547A383E18A6FF0E6
:101F5000CFEF13058005EFE0BFBC29CDEF20F00CDB
:101F600013058005EFE0DFBB19C50546C1453715F0
:101F70000140EF60400D13059005EFE07FBA19C5F1
:101F80000546C14537150140EF60E00B1305A0057C
:101F9000EFE01FB919C50546C14537150140EF608F
:101FA000800A13055004EFE0BFB7630005EA054659
:101FB0006FF0DF8513059005EFE09FB645F113053F
:101FC000A005EFE0FFB559F913055004EFE05FB548
:101FD00051F5EF2090050546C14537150140EF60EA
:101FE0008006EF20300F6FF04FE613053005EFE06D
:101FF0003FB3EFE0DFACB707010083A54769EFB05F
:102000009000EFB0F06B23A2A1886FF00FE4B71738
:10201000010003AC4789B71A00200144138B0186E5
:102020009384812C938A0A25B3078B0003850700CC
:10203000EFE01FAF31CD8D476312F406EFE03FA80C
:10204000E2852A8AEFB0607363520504C844D285E2
:10205000EFB06039AA89AA8503A5418D1389812B28
:10206000EFB0607A23AAA18C03A5CA00CE85EFB099
:10207000807923A6AA000325C900EFB03076CE856B
:10208000EFB06078EFB0D0632326A90023A6440107
:1020900005049147E31AF4F86FF02FDBEFE03FA25D
:1020A00093172400A69788C3E5B7371501001305D9
:1020B0008591EF6050376FF04FD937150100130548
:1020C000459BEF6090311384411F0840B714010015
:1020D000EFB0B07D2A86AE86138504A7EF60F02F9F
:1020E000371501001305859BEF60302F4840EFB096
:1020F000D07B2A86AE86138504A7EF60102E371595
:1021000001001305C59BEF60502D0844EFB0F07936
:102110002A86AE86138504A7EF60302C37150100A0
:102120001305059CEF60702B4844EFB010782A86A9
:1021300037150100AE861305459CEF60102A371550
:1021400001001305C59CEF6050290145EF20807602
:10215000EFB0705C83A5812C1384812CEFB0A02894
:10216000EFB0B0742A86AE86138504A7EF60F02620
:102170000545EF202074EFB0105A4C40EFB0A02678
:10218000EFB0B0722A8637150100AE861305859D23
:10219000EF60B0240945EF20E071EFB0D0570C4458
:1021A000EFB06024EFB070702A8637150100AE865C
:1021B0001305059EEF6070226FF02FC901456FF087
:1021C000FF94371501001305C59EEF6010213715E8
:1021D0000100130585A0EF605020371501409305DD
:1021E0000008130505C0EF30606A8547631DF506DA
:1021F000B71501009385458A37140100130504BB08
:10220000EF60B01D37150100130505A1EF60F01C4C
:102210003715014093050020130505C0EF30006716
:1022200085476317F504B71501009385458A1305A3
:1022300004BBEF60901A37150100130585A1EF600C
:10224000D0193715014093050040130505C0EF3044
:10225000E06385476313F502B71501009385458A4E
:10226000130504BB81B4B71501009385858969B74F
:10227000B7150100938585895DBFB715010093856A
:102280008589F9BF37190020014493840186130919
:102290000924114AB387840003850700EFE05F88B3
:1022A00011C9EFE0DF8193192400CA99EFB05041C2
:1022B00023A0A9000504E31F44FDEF10704A6FF04E
:1022C000CFB813053005EFE0BF8509C5EFE02FFF5C
:1022D00023A6A18C13054005EFE09F8419E16FF060
:1022E000CFB6EFE0CFFD23A6A18E6FF00FB613059A
:1022F0003005EFE0FF8209C5EFE06FFC23A0A18E5F
:1023000013054005EFE0DF8109C5EFE04FFB23A493
:10231000A18E13052004EFE0BF8019C5EFE02FFA6E
:10232000EFB0103A23A2A18E13058005EFE04FFF16
:1023300009C5EFE0CFF823ACA18C1305A005EFE0B1
:102340002FFE09C5EFE0AFF723AEA18C13055004B3
:10235000EFE00FFD19E16FF04FAFEFE04FF623AA6A
:10236000A18C6FF08FAE0144938401861389C1B2B2
:102370008D49B387840003850700EFE06FFA19C524
:10238000EFE0EFF393172400CA9788C30504E31224
:1023900034FF6FF08FAB13053005EFE06FF819E1F4
:1023A0006FF0AFAAEFE0AFF1EFB0702B23A8A180E0
:1023B0006FF0AFA913050005EFE08FF609C5EFE058
:1023C0000FF023A8A18213059004EFE06FF519C563
:1023D000EFE0EFEEEF20507523A6A1821305400435
:1023E000EFE00FF419C5EFE08FEDEF20F07723A4B5
:1023F000A18213053004EFE0AFF209C5EFE02FEC46
:1024000023A2A182EF20205437050100130585790E
:10241000EF60A07CB7140100138544F8EF60B000B2
:1024200037150100130505A2EF60207B03A501838A
:1024300037140100EFB070472A86AE86130504A753
:10244000EF60A07937150100130545A2EF60E07831
:1024500003A5C182EF20506FEFB030452A86AE86CB
:10246000130504A7EF60607737150100130585A2F7
:10247000EF60A07603A58182EF201071EFB0F042EB
:102480002A86AE86130504A7EF6020753715010074
:102490001305C5A2EF60607403A54182EFB0F04060
:1024A0002A86AE86130504A7EF602073138544F8CF
:1024B00009B113053005EFE0AFE69307000001C551
:1024C000EFE0EFDFAA873E85EF1030296FF0EF973E
:1024D000B717010003A487886FF0EFEFEF20E03417
:1024E0006FF0AF9613054005EFE08FE3B7040100EE
:1024F00051C1EFE0CFDCEFB0B01C1375F50F1384C2
:10250000818708A015C513850467EF60006D13056A
:102510004005EF50B0710C20371501001305C58D33
:10252000EF60A06B37150100130505A36FF06FF185
:1025300013056004EFE0CFDE01CDEFE04FD8930547
:1025400000002A84EFB0001B6354A00023A4818004
:1025500013850467EF60606837150100130545A413
:10256000EF60A0673715010083C5018A130505C513
:102570006FF04FF313850467EF6020663715010095
:10258000130585A5EF60606583A541899307000663
:1025900037150100B387B7029385C19A1305C5A605
:1025A000BE95EF608063371501001305C5856FF098
:1025B0004FE9EFD27FC5EFE0AFAD894A1384C19AEE
:1025C000930B0006114C83A7C1881389C18863C48B
:1025D000FA00EFE04FF08145138541B4B929832714
:1025E000090095C7938441898C40138541B4B38514
:1025F000BB02A2954929EFF02F8283270900FD171E
:102600002320F9009C408507B3E787039CC0EF2097
:10261000A044EFE0BFEAEF10B01A75B7EFD25FC188
:10262000138541B449206FD0FFC2EFD27FC0375429
:10263000004093055052130504C0EF30300B39C1F0
:102640009387012283A60708035644C083A5470841
:102650001387160042061377F70341826306B7001B
:10266000BE9690A223A0E70883A7019937550040A2
:102670009387470693055052130505C023A2F18C9A
:10268000EF30900A3754004093056062130504C090
:10269000EF30D00519C593056062130504C0EF3013
:1026A000B0086FD03FBBEFD2BFB89307C559232AFC
:1026B000F548B7150100930700102A84232CF5482C
:1026C00023100500230105009385C5DE1305C549C8
:1026D000EFB0F05485472300F46A83A701999387EC
:1026E000077D232EF4686FD0FFB6EFD27FB1130AB7
:1026F000452341112A845285AE89EF50A00071E52F
:102700004E85EFB0D0529307C44701493EC4130B26
:10271000E002B71B0100371C0100B38AA900B71CF7
:102720000100371D0100930D5448A2455285EF501A
:102730002004AA843DE183075448A5C3E38767FFCB
:102740008347444813F767006DF3032644490307A2
:10275000060011E36E860327446A050942091359EE
:1027600009011DE3C18B95CF9385CCC75685EF60DA
:102770000049CE8513050DC8EF602046CE85228521
:10278000AD3729ED23800A008327446A09476398FF
:10279000E7028317846AE39A27F9268541016FD0FF
:1027A000FFA99385CB8C328532C6EFB0704969DDC5
:1027B0003246CE8513054CC9EF602042F1B705477C
:1027C000E395E7F62314246B8DB7AA84AA85371501
:1027D0000100130585CAEF604040C1B7AA8475BFE8
:1027E000EFD21FA541112E85B28532C6EF40907100
:1027F0002A84324601E937150100B285130505CC5C
:10280000EF60A03D228541016FD0DFA4EFD25FA22F
:1028100041112E85B28532C6EF409075324683074E
:10282000960091E3114541016FD0DFA2EFD25FA086
:10283000117191672A84938707A31306B00F81450E
:1028400048003EC0EFD0DFA18A852322046A22859A
:10285000EFF0BFE911616FD0FF9F3C218DEFEFD208
:102860003F9D930545002A840145EF40302DAA8500
:1028700009C937150100130545C3EF6000366FD055
:102880007F9D371501008145130585C5EF60E03454
:1028900085473CA0EDB78280A30005002301050019
:1028A00082803C2199C385471CB182801C3199C329
:1028B000A30005008280EFD2BF9741117400130579
:1028C000852502C6EF40104019C5371501001305D4
:1028D00045D9EF608030324541016FD0BF973C2130
:1028E000A5CFEFD2FF9441112EC6130485250DCE3E
:1028F00037150100130585CDEF60202EB245054642
:102900002285EF40B025AA8511C9371501001305AE
:1029100085CFEF60802C41016FD0DF933715010028
:102920008145130545D1F5B737150100130545D38A
:10293000EF60A02AB24529462285EF403022AA85C1
:1029400011C537150100130585D5E1B7371501000D
:102950008145130545D775BF8280EFD27F8D8547AE
:102960003CB10146EFF0BFF76FD0DF8EEFD25F8C46
:102970002E85EF40906601C9AA8537150100130521
:1029800085BFEF6080256FD0FF8CEFD27F8A3C211E
:1029900095CF2A8437150100130585DCEF60E0230D
:1029A00083250426370501001305C571EF60E02279
:1029B0001305F002EF5090278325442637150100B8
:1029C000130505BBEF6060216FD0DF88371501006C
:1029D0001305C5DDEF606020C5BFEFD27F852E8572
:1029E0002E84EFB0D024AA849305E0042285EFB0B2
:1029F000902115ED1385F4FF2295B5471CB1A94729
:102A00003CA1A3010500370501001305056EEF6029
:102A1000C01C37150100130505C1EF60001C3715F8
:102A20000100130545F8EF6000206FD0BF829305C9
:102A3000A002EFB0501D7D15C9B791E98347056A23
:102A40008DC383A701990327C56963ECE7003C2187
:102A50002300056A99E7EFD2AFFDEFF01FE06FD0DA
:102A60006FFF8280EFD2CFFC930485252A842685D0
:102A7000EF40503D2685EF40B04723000400A301FE
:102A800004006FD02FFDEFD2AFFA37040020834748
:102A9000C45605498DC7AE84B7150100938505DB83
:102AA0002685EFB0F0190DED1305C456A685EFF09D
:102AB000DFF21304C4563C3091C7EFE0FFB54A85FE
:102AC0006FD04FF93705010013058579EF60E010ED
:102AD00037150100130545F8EF60E0140149C5B74B
:102AE0001305C456EFF01FF837150100130545DB39
:102AF000EF60A00EE9B7EFD2AFF309472322E56AF2
:102B00002314B56AB285EFF05FBE6FD0AFF4EFD299
:102B10002FF285472322F56A2A84EFF01FBD831523
:102B2000846A37150100130505BBEF60000B0355E0
:102B3000846A6FD02FF2EFD2AFEF9305F002130546
:102B4000C549EFB0500C133515006FD0AFF0EFD280
:102B50002FEE1305C549EFB0900C6FD0AFEFAA87E9
:102B6000038507006305B50001CD8507D5BF2E8518
:102B700081C9238007008507038707007DFB054582
:102B80008280EFD2EFEA9305F0021305C549EFF01A
:102B90001FFD6FD02FECEFD2AFE92E849307C5490C
:102BA000B71501003E85938545CDEFB0F003A285B2
:102BB000EFB090036FD00FEAEFD28FE72A84EF10C7
:102BC000D046EF10F05413058425EF407032A30077
:102BD0000400EF10305037150100130585C2EFD007
:102BE0003FC86FD02FE7EFD2AFE1939A2600330BA7
:102BF0005601397183240B00BA89330755012E8998
:102C00003E8C0C43834701082A8A268542CAC68C1B
:102C10003ED032C2EFA0804612468A0933073A01FD
:102C2000B307360180430C432AC422853EC20A0CF6
:102C3000EFA0C044B3078901B30B8A0183A50B0041
:102C40002AC68843EFA070658327C900A2452AC819
:102C50003ED48327CA003ECCB7070080BD8C3D8C94
:102C6000B30759018843EFA05063B30739012A8D98
:102C7000B2458843EFA07062AA8DEA852685EFA051
:102C80009038EE852AD62285EFA0F037B257AA8574
:102C90003E85EFA0A03EEE852AD62685EFA0B03671
:102CA000EA85AA8D2285EFA01036AA856E85EFA051
:102CB000D05EB257BE85EF600054930500002A8DA8
:102CC000EFA0B02B635005026A85EFB0003EB71746
:102CD000010003A607DF83A647DFEF800058EFB0AF
:102CE00080472A8D825799CF6A85EFB0003CB7178D
:102CF000010003A607DF83A647DFEF901006EFB0C1
:102D000080452A8DC247139517000581EFB0E03941
:102D10002AD02ED26A85E685EFA0F02EEFB0E038FB
:102D200002569256EF60E034EFB0E042AA8DEFB069
:102D3000C037B717010003A687DF83A6C7DFEF9070
:102D4000E02A6346051C6E85EF60801DEFB04017DA
:102D5000931D050193DD0D0163930D00854D6E8577
:102D6000EFB0601BAA8CAA856A85EFA0C0672A8D88
:102D70004245E685EFA02067E2452AC82255EFA02C
:102D8000D051E685EFA020662AD46A85EFB0E03105
:102D9000B716010003A606E083A646E02ACC2ECE95
:102DA000EF9020306247F2473A86BE86EF90602F60
:102DB000B71701002A86AE8603A587E083A5C7E082
:102DC000EF90A079EFB0203903A70B009C00E297A9
:102DD00023A8E7FE0327CA00AA8C054A3ADE98001A
:102DE00056973ACC98004E97814B3AD03E8C931729
:102DF0000A01C18363F3B711E14763CC7709EA8520
:102E00002685EFA05020AA89E6852285EFA0B01F75
:102E1000AA854E85EFA08026AA89E6852685EFA0A3
:102E2000901EAA84EA852285EFA0F01DAA8526853A
:102E3000EFA0B04613881B00931B8801AA8493DB84
:102E40008B414E84A2452685050AEFA02023E24748
:102E5000B24523A8A7FE2285EFA040228257C24593
:102E600023A8A7FE03250CFFEFA040212328ACFEDA
:102E7000A2557255EFA080202ADE0818EFE04FC05F
:102E800052475C01741830184C180818EF00E059CC
:102E9000B9BF5285EFB02008EA85EFA0D0162A848A
:102EA000EF50D07FAA892285EF60401483270B0062
:102EB00037070080AA8AB3CBE7009247CE855E85AC
:102EC0008043EFA05014AA84D6852285EFA0B013CA
:102ED000AA852685EFA0801AD685AA845E85EFA0F4
:102EE0009012AA8ACE852285EFA0F011AA85568578
:102EF000EFA0B03A2A84814BB1B752475C019306E8
:102F0000C90013068900930549004A85392B2161C0
:102F10006FD0CFB2EFD2CFAE2A84485D4111AE8BD5
:102F2000328BEFB0A00B2A89284083298404EFB0AC
:102F3000E00A2A8C4E85EFA0107E93050000AA8C33
:102F4000EFA080756300051ECA854A85EFA0B00B0F
:102F5000AA84E2856285EFA0100BAA852685EFA0E2
:102F6000D033EFB080142A8A6685AE8AEFB0E013C2
:102F70002A86AE86EF80602E2A86AE865285D6855A
:102F8000EF80B020EFB0201DEF501064EFA0306D47
:102F9000AA846840EFB08004AA8A33053041EFA0CC
:102FA000907793050000AA89EFA0006F630F0516C4
:102FB000D6855685EFA030052A8ACA854A85EFA0B6
:102FC0009004AA855285EFA0502DEFB0000E2A8DF7
:102FD0004E85AE8DEFB0600D2A86AE86EF80E0277D
:102FE0002A86AE866A85EE85EF80301AEFB0A0168D
:102FF000EF501073032A0401EFA07066B3099A40E2
:103000003385A940635F050A930500006685EFA03C
:10301000A068630F05106685EFB020092A86AE868A
:103020002A8DAE8DEF8060232AC452852EC6EFA074
:10303000F07AEFB080072247B2472A86AE863A85FB
:10304000BE85EF9000062AC42EC66285E285EFA0F9
:10305000807BEFB080052247B2472A86AE863A854C
:10306000BE85EF90804F2A8CAE8C5685D685EFA01A
:103070008079EFB080032A86AE866285E685EF8090
:10308000C01DB717010003A607E783A647E72A8CF0
:10309000AE8C6A85EE85EF90C0002A86AE8662858A
:1030A000E685EF80900EEFB0000BEF50F051EFA0EF
:1030B000105BAA84635305008144014563E3440126
:1030C000D28499677390078083470405E207E187FC
:1030D000B1E344C8AA94DE8504CC4A85EFA0A0726F
:1030E000EF50904EEFA0D05D930780076374F5001A
:1030F00013058007DA8528C04A85EFA0C070EF501D
:10310000B04CEFA0F05B930780076374F5001305E4
:10311000800768C09967938787087390078041018B
:103120006FD0CF911305000085B513050000C9B518
:10313000130500009DBFEFD2AF8F4111AA842E85E9
:1031400032C6EFA0406C2A84A6852685EF901073C6
:103150003246B285EFA0206BAA852285EFA0F0133E
:10316000EF60800941016FD0EF8EADC925CAEFD263
:103170008F8A2E8403A9C5020854B284CA85EFA0A1
:10318000A05121C183479403B9E703AA84024A8569
:10319000D285EFA020566350A00448581058B709B4
:1031A0000080D28533453501EFF0FFF8AA854A85C6
:1031B000EFA0A05C63590500485408D48547230C50
:1031C000F4026FD08F88485810588C54334535011D
:1031D000EFF07FF6DDB723242403CDB78280EFD252
:1031E0008F839387018D982319677310078003C914
:1031F000118D130787081379F90F7310078098232F
:1032000033072741318B0DCF8023014675143D884C
:103210008149138A812D930A4005630324036204C4
:10322000618411E041447D141374F40FB30454031A
:10323000CE85D2942685EFF05FF34E86A689F1BF46
:103240006FD0AF8035C583479503BDE3EFC2BFFCA8
:10325000032A850283A98502AE842A84CE855285FD
:10326000EFA0A051635B0502485810583709008051
:10327000D28533452501EFF01FECAA854E85EFA0DE
:10328000C04F635E050080548854A285EFA0C04003
:1032900009C5854780D4238CF4026FC01FFB4858B2
:1032A00010580C5433452501EFF0FFE82A84E9BF9C
:1032B0008280EFC25FF603C4118D81441374F40F52
:1032C00001459389812D930A4005414B9387018DD8
:1032D0009C236304F4023309540305046204A685A5
:1032E00061844E994A86EFF0FFF56313640101444F
:1032F00026851374F40FCA84D1BF0146A685EFF06A
:103300007FF46FC09FF4EFC23FF083C4118D411171
:10331000E204E18401449389812D130A4005C14BE5
:103320009387018D9C236389F404338944034E9968
:1033300005CC8347840381E78347890395C7B38717
:103340004403832A4402D685CE978857EFA0A0096C
:103350002AC60854D685EFA000093246AA852285E0
:10336000EFF05FBB230C04028504E204E184639365
:10337000740181444A846DB70DCC44502685EFA07A
:10338000D052B71701002A86AE8603A587E783A52A
:10339000C7E7EF80805FEFA0105C2AC60854A685BF
:1033A000EFA060043246AA852285EFF0BFB6230C59
:1033B000040241016FC0DFE8EFC29FE7EFF03FE298
:1033C000EFF03FEFEFF03FF46FC0DFE82388018CB0
:1033D000A388018CB71700209387072623A0070036
:1033E00023A2070023A4070023A607009387812AAE
:1033F0001307000098C3D8C398C7D8C723A4E18C8B
:1034000082809386118D1387018D8C221023137671
:10341000F60F630BB6009C2293F7F70F1423638516
:10342000D7008507BD8BDDBF8280EFC27FDDBA8C00
:103430003E8B9387018D9C2359711387018D8507DE
:10344000E207E1873EC63ACA3247C147AE8BB2892E
:1034500036896313F70002C69387118D9C23324788
:10346000631BF7002AC8EF40B07BEF10E05EEFE08F
:10347000EF844245D5B79384812C8C4008413704B2
:103480000100138A812CEFA0003883258469EF9016
:10349000F03EEF50F028EFA0901CCC40AA8A03A584
:1034A0000B00EFA0403683258469EF90303DEF504C
:1034B0003027EFA0D01A8C44AA8B03A50900EFA0F7
:1034C000803483258469EF90703BEF507025EFA026
:1034D0001019CC442A8C03250900EFA0C0328325A3
:1034E0008469EF90B039EF50B023EFA05017B717B1
:1034F000002013870726584722C83ED42A8993897B
:1035000007266304E50A83C7018A138741968A0761
:10351000BA978C4303A58181EFA0C01D6356A0021A
:10352000370501001305056723A62901EF50E06A5E
:1035300037150100130505E3EF50206A3715010028
:10354000130545F8EF50206E83A7C900B307F94073
:1035500013D5F741A98F3385A740EFA0D01BB7172C
:10356000010083A507862A840325CA00EFA0A029AD
:10357000AA85EF90B030AA852285EFA0A0176356E8
:10358000A002370501001305056723A62901EF50A6
:10359000C064371501001305C5E4EF50006437150A
:1035A0000100130545F8EF500068D24713074005A6
:1035B000802383A509009387812D1374F40F3307AB
:1035C000E4029384812DBA9723880704238007029D
:1035D00063D5BA0005472380E70203A5490063DDF0
:1035E000AB00130740053307E40226978347070221
:1035F00093E727002300F70283A68900635DDC00C0
:10360000130740053307E40226978347070293E731
:1036100047002300F70203A7C900635DE900130612
:1036200040053306C40226968347060293E78700C7
:103630002300F602B387BA4013D6F7413348F600A9
:103640003308C8403386AB409357F6413D8EB306EE
:10365000DC401D8E93D7F641BD8E3307E9409D8E29
:103660009357F7413D8F1D8F83A7C1809308400575
:10367000B30814033307F70293074006A69823A064
:10368000080123A2C80023A4D800B347F702368755
:1036900023A6F80063D3F6003E876347C7786346E6
:1036A000070163D5D700B68711A0C287130740056D
:1036B0003307E402954626971CCB63FBF65C83A791
:1036C000818A7CC783470B00A300F7026388BA0096
:1036D0000146C14537150140EF40F01693074005FC
:1036E000B307F402A697DC4399C70146C1453715D5
:1036F0000140EF40501593074005B307F402A69729
:103700009C4799C70146C14537150140EF40B013AA
:10371000130B4005330B6403269B8327CB00639C6C
:10372000075603AB818EE6855A85EF90B07C6343E4
:10373000A000668B03A509003385AA40EFA0A07DF9
:1037400083250A00EF90304AAAC82AD003A5490071
:103750003385AB40EFA0207C83254A00EF90B04832
:10376000AACA2A8D03A589003305AC40EFA0A07A30
:1037700083258A00EF903047AACCAA8C03A5C90004
:103780003305A940EFA020798325CA00EF90B0450A
:10379000AA8903A5C180EFA00078AA854E85EFA075
:1037A0008006B717010083A50786EF90D0439307E3
:1037B0004005B307F402AACE15478256A697904358
:1037C0006368C74ED0436365C74E90476362C74E78
:1037D0000605058188DB93074005B307F402370A25
:1037E000010003250A6BA69783AC0703E685EF90DB
:1037F000903FDA85EFA02001D2471387118D9C23DB
:10380000182352D0AA89998F93F7F70F13FBF7006B
:103810003ECC1307EBFF954763ECE706EFA0F008FB
:10382000B71701002A86AE8603A587E183A5C7E105
:10383000EF80A015B717010003A607E083A647E0B5
:10384000EF70B021EF50C042EF90404F2A8A03A59D
:10385000418E637FAA023305454106053355650352
:10386000EFA0C077C24783A58769EF903001EF5082
:10387000206B2AD25285EFA060769255EF9010000F
:10388000B7170100AA8503A507E1EF90D035AA89F3
:10389000130A4005330A4403CE856685EF90B0765F
:1038A000AA8D014D269A2322AA0203250A01EFA020
:1038B000E072CE852A8BEF901075EF50E050EFA0AC
:1038C0002060825737070080232EAA0203AA076BC5
:1038D0009347F7FF371700203ED6930707252AD2D4
:1038E0003ED89C083387A7010C434E85EF90B071FA
:1038F0009C103387A701B25708C33377F500C2572E
:10390000BA853ADEB386A7019442368536DCEF905D
:10391000D06663500502E25672573685BA85EF903D
:10392000902CD2852ADCEF90F05C6344A0006257B3
:103930003A8A110DC147E316FDFA8257528583A5D5
:10394000076BEF909063635405049309010603A588
:103950000900D2859109EF90106B23AEA9FE9C1847
:10396000E39737FF93094005B3093403D2856E8589
:10397000EF907069A69923A2A9021255EFA00066E4
:10398000D285EF905068EFA0A05323AEA902130A8E
:103990004005330A4403E6855A85EF90D024AA896E
:1039A000269A832D0A0063930D3483274A00639F70
:1039B000073283278A00639B073283A5C18EEF906D
:1039C0009064EF506040EFA0A04F2324AA04130A94
:1039D0004005330A4403269A03258A04EFA00060B9
:1039E000CE852A8BEF903020232AAA025A85EFA099
:1039F000C06BB717010003A607E283A647E2EF807A
:103A0000406AEF90202DC247232EAA0003A5818D86
:103A100083A58769138D818DEF90F05EC2472A8A56
:103A200003A5C18D83A58769A65CEF90D05D9395B2
:103A30001C008581AA89EF9050549387C18D3ED296
:103A400063590500D2854E85EF90D04A6343A000AC
:103A50004E8AC24703A5418D83A58769365BEF90E7
:103A6000905A93151B008581AA89EF901051938776
:103A7000418D3ED663590500D2854E85EF90904723
:103A80006343A0004E8A93074005B307F402D28532
:103A9000A69783A947024E85EF90D0456343A000C7
:103AA0004E8AE2471387818CB98B3AC8D289638CDE
:103AB0000712832907004E85EFA0205FB71701008A
:103AC00003A687E283A6C7E2EF806047635CA03469
:103AD0009387812A8C430655EF90307CEFA0E05C01
:103AE0009387812A2AD82EDA1655CC43EF90F07AA4
:103AF000EFA0A05B2A86AE86EF80A05A4258D2582B
:103B00002ACC4286C68642852ECEC685EF80605975
:103B1000F24762472A86AE863A85BE85EF70E0732B
:103B2000EF50E061EFA0206393074005B307F40274
:103B3000032D0D00AA852AD86A85A697DC533ECCB2
:103B4000EF90B043635C052C42576A85BA85EF90CD
:103B500090092A8D9387812A8C476685EF90F073B0
:103B60009257931C150093DC1C009C43E6853E8510
:103B70003ED0EF909040635E05008257E6853E851B
:103B8000EF907006EA85AA8CEF90D0366343A000D0
:103B9000668D9387812ACC475A85EF901070B25773
:103BA000131B1500135B1B0083AC0700DA856685C9
:103BB000EF90B03C635D0500DA856685EF90B0025A
:103BC000EA852A8BEF9010336343A0005A8DE245BB
:103BD0006A85EF9050432A8BAA854E85EF90F03985
:103BE00063430500DA8993074005B307F402A697FB
:103BF000C85B23A63703905BB717010083A547E195
:103C0000B70700803D8DEFF00FD3CE852A8BEF9064
:103C1000702E6343A000DA89930740053304F40251
:103C20005A85A294C05023A43403A285EF90902C0F
:103C30001345F5FF85477D814146A38CA402238C63
:103C4000F4028C101385812AEFA0E06EC247A28592
:103C5000528580C3EF9020792AC8A2854E85EF90C7
:103C600080784246AA852685EFF0CFAA52471C8667
:103C700041468C001CA3A257D6C0DEC2138507267E
:103C8000E2C4CAC6EFA0206BEFF00FF3EF000044D0
:103C900065616FC0AFDA0146C14537150140EF409D
:103CA000803A8327CB00E38E07A603AB018EA5BC29
:103CB000B6853685EF903035AA89EA856A85EF901A
:103CC0009034AA854E85EF90603BAA89E68566858B
:103CD000EF907033AA854E85EF90403AEF50C05177
:103CE00093074005B307F402A697EDB4930C400583
:103CF000B30C940383A5C18C4E85EF90D030EF5068
:103D0000A00CEFA0E01B03AA812B138D812BA69C96
:103D100023A4AC04EFA0802C2AD26E85EFA0A01FB4
:103D20009257AA853E85EF90102EDA85EF90A06B12
:103D3000AA8D5285EFA0802AAA856E85EF90901BF0
:103D40006354A00023A44C05930C4005B30C9403CA
:103D5000032A4D00A69C03A58C04EFA02028AA8D61
:103D600003A54C00EFA0201BAA856E85EF90B0291B
:103D7000DA85EF904067AA8D5285EFA02026AA85AC
:103D80006E85EF9030176354A00023A44C05930C6C
:103D90004005B30C9403032ACD00A69C03A58C0414
:103DA000EFA0C023AA8D03A5CC00EFA0C016AA8562
:103DB0006E85EF905025DA85EF90E062AA8D5285EE
:103DC000EFA0C021AA856E85EF90D0126354A000A9
:103DD00023A44C05930C4005B30C9403032A8D00D7
:103DE000A69C03A58C04EFA0601F2A8D03A58C0060
:103DF000EFA06012AA856A85EF90F020DA85EF9037
:103E0000805E2A8B5285EFA0601DAA855A85EF90AF
:103E1000700EE35EA0BA23A44C0555BE825703ADD5
:103E2000076B0DBBD289C1B3E3410689B2876FF03E
:103E3000FF87EFC24FBE9384812C08412E8A8C40AD
:103E4000411136C432C637090100EF90D01B8325DB
:103E50008969B719002013840926EF902022EF50BA
:103E6000200CEF90D07FCC4008C003250A00EF90D3
:103E7000901983258969EF906020EF50600AEF90D8
:103E8000107E32468C4448C00842EF90D0178325FC
:103E90008969EF90A01EEF50A008EF90507CA246D9
:103EA000CC4408C48842EF90101683258969EF90AE
:103EB000E01CEF50E006EF90907A48C49306C400EF
:103EC000130684009305440013850926EF0090181B
:103ED0001307000023A4E18C9387812A98C3D8C3D9
:103EE00098C7D8C741016FC04FB6EFC26FB483A562
:103EF000012D08413714002013040426EF90B01060
:103F0000B707010083A58769EF904017EF50400184
:103F1000EF90F07408C413058400EF0030166FC0F2
:103F20006FB3EFC2EFB083A5412D084137140020D5
:103F300013040426EF90300DB707010083A58769AD
:103F4000EF90C013EF40D07DEF90707148C413051F
:103F5000C400EF0070146FC0EFAF23ACA18082806B
:103F6000EFC26FAB3719002001449389812B1309ED
:103F700009249384812C414AB30789008843B38A7A
:103F80008900EFA0A005B38784008C431104EF9053
:103F90009007EF90F07223A0AA00E31F44FD6FC0CA
:103FA000CFAA83C6018D83C7118D93F7F70F63885E
:103FB000D70083C7118D8507BD8BA388F18C8280C4
:103FC000EFC20FA79387618F9C2393F7F70F138995
:103FD000618F9384718F1384818F91EB9C2093F771
:103FE000F70F91E71C2093F7F70F6385070C370550
:103FF000010013050567EF40503E3715010013051A
:1040000045E9EF40903D8347090093F7F70F8DC7CF
:10401000B717002003A50728EF90F06F83A5812C28
:10402000EF90603CEFA060082A8637150100AE864D
:10403000130545EAEF40703A9C2093F7F70F95C7B8
:10404000B717002093870728C843EF90D06C83A54B
:10405000C12CEF904039EFA040052A8637150100AA
:10406000AE861305C5EAEF4050371C2093F7F70FD3
:1040700095C7B7170020938707288847EF90B06946
:1040800083A5012DEF902036EFA020022A86371558
:104090000100AE86130545EBEF40303437150100C3
:1040A000130545F8EF403038230009002380040051
:1040B000230004006FC00F9A238B018EA38B018E07
:1040C000238C018E8280238EA1808280EFC24F9646
:1040D000854537050040EF1070496FC0AF972967DD
:1040E000130707C49387018F636DA7041567130730
:1040F00007E2AA856379A7048981114737450F0034
:10410000130505243345B50298A3930730064205ED
:10411000418163E5A704EFC2AF913715010041115A
:10412000130505E82EC6EF40502BB24537150100A8
:10413000130505BBEF40702A1305400641016FC00F
:104140006F91BA8555BF0967130707716376A7009A
:104150009355150009475DB705474DB782807971C2
:1041600085453705004022D626D44AD24ED052CEBD
:1041700056CC5ACA5EC862C666C46AC26EC0EF1028
:10418000904263070544854537050040EF103043F2
:1041900083A741921384419299EF83C6018D83C70F
:1041A000118D93F7F70F6395D7249305007D37059D
:1041B0000040EF10503E1C40638C074083C707024D
:1041C0002388F190858B1389C19093890191938401
:1041D00001826389072805469305000237150140CF
:1041E000EF307066FD579CA083C70900898B638000
:1041F000072E371A014005469305000413050A806F
:10420000EF307064FD579CB083C7C181A1CB93058B
:10421000002013050AC0EF10606783C6D18593871D
:1042200051903387A6403337E0006388A602942379
:104230008DC6104054426352D002B71600209386B8
:104240000627CC42B716002093860628CCC28545A7
:10425000A38BB18E144A2320D90098A383C70900E9
:10426000918B63820728371501400546930500208E
:1042700013050580EF30305DFD57BCA083C70900F2
:10428000A18B6389072C3715014005468545130529
:104290000580EF30505BFD57B7190140BCB0014AB3
:1042A000938B09C0B71A00208387018F1840635D84
:1042B000FA2A9387819194431843369798C3635B96
:1042C000E002054691455E85EF30F0571440938734
:1042D00081919843944A01469145158F98C39C203B
:1042E00013870A271443E207E187B6975E851CC34C
:1042F000EF30705518409387C191944358433697D7
:1043000098C3635FE00205469305000813850980A2
:10431000EF30705314409387C1919843944A0146FB
:1043200093050008158F98C39C3013870A275443C0
:10433000E207E187B697138509805CC3EF30B05080
:1043400018409387019294431847369798C3635D4A
:10435000E0020546A16513850980EF30D04E144078
:10436000938701929843944A0146A165158F98C39B
:10437000BC2013870A271447E207E187B697138505
:1043800009801CC7EF30304C18409387419194430B
:104390005847369798C3635DE00205468945138503
:1043A0000980EF30504A1440938741919843944AD2
:1043B00001468945158F98C3BC3013870A27544797
:1043C000E207E187B697138509805CC7EF30B047F5
:1043D00083270900184085072320F9008327090057
:1043E000184B63F3E718050A620A135A8A416DBD38
:1043F00003C7118D93074005B387E70237170020E5
:10440000130707D0BA97CA3F05472388E7042388D4
:10441000E7041CC023A00190EFF07FCC2399A18E6C
:104420000387018F2394E1901C4003D50704239A4E
:10443000A18EEFF0DFCA23AEA18EAA85370500401A
:10444000EF1070151C409C4B8583B307F04023ACE4
:10445000F19023AEF19023A0F19223AAF19023A62C
:10446000019091BB01469305000237150140EF30E2
:10447000903D83C7C181054A23804401E38607D666
:104480003715014093050008130505C0EF100040E3
:1044900083C6C185938741903387A6403337E000B8
:1044A0006385A602942395C214409042635FC000C6
:1044B0003716002083250627944A3716002023202C
:1044C000B628238B418F2320D90098A331BB371501
:1044D000014001469305000413050580EF30B03616
:1044E00085479CB0A5BBB71A014001469305002043
:1044F00013850A80EF30303583C7C181054A238197
:104500004401E38D07D69305004013850AC0EF10E0
:10451000E03783C6E185938761903387A6403337C0
:10452000E0006387A602942385C6104014466351B9
:10453000D002B7160020938606278C46B7160020B7
:10454000938606288CC6238C418F144A2320D900D9
:1045500098A32DB337150140014685451305058005
:10456000EF30702E85470DBB184083270900544B50
:1045700063EFF606504F83A6C18F9384C18FB38734
:10458000C602B396C602E183505FA206D58F3443BC
:10459000B697C207C183239AF18E1387418F637345
:1045A000F60012A30A23EFF09FB3AA89AA85370564
:1045B0000040EF10407E88404E9588C01840832709
:1045C0000900184B63E6E70023200400EFF07F9D0D
:1045D0003254A25412598259724AE24A524BC24B87
:1045E000324CA24C124D824D45617300203083271E
:1045F0000900144F63F2F604544F83A701907843E7
:10460000938401903385D702B397D7026181A207C3
:104610005D8D9317050103D5418FC183637BF50041
:10462000131507014181E370E5F813150701418176
:104630009DBF1D8D4205FDB783D5218F37050040F5
:10464000EF10607583D781901387018F1CA3BDB7CE
:10465000EFB21FBE01112A8485450545EF10204A9F
:10466000930730024C08370500403ECAE084231D02
:104670000100EF1000650546854537050040EF1045
:1046800060709307C0127C8685475C876800854709
:104690003EC8EF10002205616FB0DFBBEFB25FB91B
:1046A000930500023715014037140140EF30F01C2C
:1046B0001305048093050004EF30301C13050480BB
:1046C00093050020EF30701B130504808545EF3003
:1046D000D01AC14537150140EF30301A0546C145A3
:1046E00037150140EF303016C14537150140EF3026
:1046F000D0180546C14537150140EF30D014C145EB
:1047000037150140EF3070170546C1453715014098
:10471000EF307013C14537150140EF3010160546D4
:10472000C14537150140EF301012130504C0930541
:104730000020EF3010170546130504C09305002034
:10474000EF307010130504C093050008EF307015AA
:104750000546130504C093050008EF30D00E13057D
:1047600004C093050040EF30D0130546130504C084
:1047700093050040EF30300D130504C09145EF3034
:10478000D00F130504C001469145EF30D00B05460C
:10479000C14537150140EF30100B13050480930518
:1047A0000008EF30900D13050480014693050008C2
:1047B000EF3070090546C14537150140EF30B008AC
:1047C00013050480A165EF30500B130504800146EA
:1047D000A165EF3050070546C14537150140EF3060
:1047E0009006130504808945EF30300913050480D5
:1047F00001468945EF3030050546C1453715014072
:10480000EF30700413054006EFF09FE4854537054F
:104810000040EF10A0550547238EE18099679387EC
:104820008708739007806FB0FFA2EFB27FA003C725
:10483000018D83C7118D93F7F70F6395E70083A769
:10484000419299C7EF30D03D012CEFC03FC7C5B7AB
:104850006FB05FA01967731007800841B717002079
:104860009387072788C38C4113078708CCC310425E
:1048700090C79442D4C77310078082809967739061
:1048800007801441371700201307072714C79387A1
:10489000870873900780828099677390078014411E
:1048A000371700201307072754C79387870873908B
:1048B000078082809967739007801317250037154A
:1048C0000020130505273A950841938787087390C0
:1048D00007808280EFB2DF95EFF03FF50546C145D6
:1048E00037150140EF3020760546C14537150140A8
:1048F000EF3060750546C14537150140EF30A074B3
:104900000546C14537150140EF30E0736FB09F9405
:10491000EFB21F92814537050040EF10204503C7D5
:10492000018D83C7118D93F7F70F639BE7008545D2
:104930003705004023A20192EF1040436FB09F91D2
:10494000EFF02FE6E9BFEFB2BF8E83A5C182B717A4
:10495000010003A58717EF80102923AEA1926FB045
:104960007F8F6355050003C58193828093874195AE
:10497000AA9788238280EFB21F8A41112A849DC59D
:10498000370501001305056E2EC6EF400025B24520
:1049900037150100130505C5EF4020243715010028
:1049A000130505F0EF406023EFC0DFAA45679306CB
:1049B000C71785471307C7177D4683994600635E6F
:1049C00034059386F7FF8A068A07BA96BA978394C6
:1049D00026000395270003990600058DEF90A0534C
:1049E0002A8A33052441EF900053AA855285EF802F
:1049F00090612A8433852941EF90E051AA85228570
:104A0000EF80701E2A842685EF90E050AA852285CB
:104A1000EF80C06641016FB05F8385079106E39E1A
:104A2000C7F813050000FDB7EFB29F8003A50197FB
:104A30008145EFF05FF423A2A1961307000023A4A1
:104A4000E196996773900780238201949387870882
:104A5000739007806FB01F8083C7419493F7F70F5F
:104A6000638C071AEFB24FFAEFF01FFC83A4419654
:104A700003A94197138481954A85EF90C049A68583
:104A8000EF90A001B717010083A50789AA89EF80DD
:104A900070466352A00685471CA0B717010003A407
:104AA000871703A5019513894195EF90C046A68508
:104AB000EF80B04C6359051403A58183EF90A045A6
:104AC000A685EF8030436350A0142285EF902039F3
:104AD00005852300A90093878194984383A60199B3
:104AE000998E0567130777BB6375D70003A70199F4
:104AF00098C36FB0EFF4B717010083A5070A4E857E
:104B0000EF80B047634405006317090085471CA088
:104B10001304000079B71C201389019399C79307E8
:104B200000002320F9002300040083A501834E85A3
:104B3000EF80704D832509002A8A4E85EF8000544E
:104B400003A40194AA89A285EF803043634B05003A
:104B500003A4C1934E85A285EF80D0396343A000A2
:104B60004E8483A5C182232089002285EF80B0492D
:104B70001384C1920C40AA8A2685EF80107283A507
:104B800081821389C194EF801048EF900052B717CB
:104B9000010003A6870A83A6C70AEF7080502A8BFC
:104BA00003250900AE8BEF904050B717010003A614
:104BB000070B83A6470BEF70C04E2A86AE865A8538
:104BC000DE85EF608069EF900059AA892320A90053
:104BD00004C0D6855285EF80604ACE85EF80F06BA9
:104BE000930500002A84EF805039E34305F2B7179C
:104BF000010003A987172285CA85EF80B02FE352F1
:104C0000A0EA4A8479BD371501001305850B2300FE
:104C10000900EF30907CC1B58280EFB26FE11307DD
:104C2000000023A0E19483A5C182B717010003A56A
:104C30008717EF80407B23AEA19291453715014045
:104C4000EF30A0430146894537150140EF30404021
:104C5000EF30604F595723A8E194B717010003A91B
:104C6000070A1384418308408145EFF0DFD0CA85ED
:104C7000EF80B030635605001C40C1171CC0D5B78B
:104C80001307A00F23ACE182B717010003A9471750
:104C90001384419308408145EFF0FFCDCA85EF8032
:104CA00070256356A0001C40C1071CC0D5B72D4518
:104CB000EF30202B6FB00FDA8280EFB26FD723AACC
:104CC000019623AC01960146914537150140238A90
:104CD0000194EF3040376FB0EFD7EFB26FD2397138
:104CE00083AA019932CA854763DBB70037150100F3
:104CF000130585F3EF30706E21616FB02FD42A8CCD
:104D000037150100130545F6AE84EF30106DEFF056
:104D1000DFFA63DA0414130700F8238CE192930B93
:104D20000008B717010003AB07F2930700003EC667
:104D3000BE89B717010003A847E783A707E75E848A
:104D400042CE3ECCB717010003A8C7F283A787F273
:104D50005E8A42D23ED0B717010003A847E083A77E
:104D600007E056C442D63ED4B717010003A847F364
:104D700083A707F3D68D02C8854C02C23ED842DA1B
:104D800003CD4194137DFD0F63000D28EFF0DFC9C3
:104D900063C4040E9397240013874196BA9783A99E
:104DA00007003245CE85EF80F0146343A0004EC665
:104DB000CE855A85EF80701C634305004E8B63815E
:104DC0000C04E2854E85EF80F012635FA022A247BB
:104DD00003A701991D8F85679387873863F6E722BC
:104DE000B3078A40858793F7F70F63DA0408238CAB
:104DF000F19283AA0199A24762C6B387FA403EC8DE
:104E0000E2854E85EF807017814C635F051E03A716
:104E1000019985679387873833075741814C63F53C
:104E2000E71E83A701993EC492476351F01CA24735
:104E30004247B3875741B38CE700B307F740338449
:104E40008702CD4733449403529463D0871E63DDB9
:104E5000042A9307C00E63C987029307F00F228AC2
:104E600063C88B020DA893874195A6971307F00797
:104E700098A3930BF00775B583A981961DB7138787
:104E8000419526971CA3B5B71304C00E9307F00FE6
:104E9000228A3384874037150100D285130585F7B0
:104EA000EF30B05337150100A285130585F8EF30B8
:104EB000D0525A85EF90601F2A8637150100AE86C2
:104EC000130545F9EF3070513245EF90001E2A86E8
:104ED00037150100AE86130505FAEF301050124762
:104EE000894763D5E7106685EF90E002B7070100B8
:104EF00083A54769EF80204FAA8C2285EF70D06987
:104F00006246F246EF70E0192ADC32452EDEDA8581
:104F1000EF80B038EF90601902569256EF7060182B
:104F20002256B256EF70E0176257F2572A86AE86C5
:104F30003A85BE85EF607025EF90E021EF90E01696
:104F40002A862ADC37150100AE861305C5FA2EDE47
:104F5000EF30B0486685EF9040152A86371501007E
:104F6000AE86130585FBEF3050476257F257425625
:104F7000D2563A85BE85EF70C012EF90C01D2A8BC5
:104F800037150100130545FCEF3030455A85EF9089
:104F9000C0112A8637150100AE86130545FDEF3096
:104FA000D043DA855A85EF80600DE685EF80A04317
:104FB000EF90A00F2A8637150100AE86130505FE77
:104FC000EF30B041DA856685EF80F003B717010056
:104FD00083A547F2EF803003EF90200D2A86371526
:104FE0000100AE861305C5FEEF30303FB3078A00DF
:104FF000858793F7F70F63DD0402238CF1929247C4
:10500000628BEA8C85073EC2B717010083A54789EA
:105010006285EF80A006CE85EF802076635F050075
:1050200037150100130585FFF1B1514A5144A5B56B
:105030001387419526971CA3D9B783A70199130716
:10504000007DB387B7416372F70637050100B71DCE
:10505000010063D004081305857903CD8193EF30F7
:10506000D03713854DF8EF30103C3715010013058C
:105070004502EF3090364E85EF9020032A86371593
:105080000100AE86130505A7EF3030353715010056
:105090001305858EEF30703437150100EA8513054E
:1050A00005BBEF30903383AD019983A7019903A726
:1050B0000199BA972247B3875741998F3757120002
:1050C000130707F86379F702371501001305C502C6
:1050D00015B193874195A6971305857903CD0700F0
:1050E000EF30B02F13854DF8EF30F0333715010056
:1050F0001305458DBDBF92475247E353F7C8371597
:1051000001001305C504FDB69307B00E63D78700F1
:105110001304B00E9307E00FA5BB9307E00F81B314
:10512000EFB20F912A84EFF05FB9EFC06FC405E5CD
:10513000370501001305056EEF30302A37150100E1
:10514000A285130505C5EF30502937150100130559
:10515000450DEF309028EFC02FBE6FB0AF8FEFB28C
:105160002F8D2A84EFF07FB5EFC08FC005E537059E
:1051700001001305056EEF30502637150100A2859A
:10518000130505C5EF3070253715010013054510CF
:10519000EF30B024EFC04FBA6FB0CF8BEFB24F8972
:1051A000EFC00FBD09ED370501001305056EEF30A7
:1051B000D0223715010013054513EF301022EFC040
:1051C000AFB76FB02F89411122C637040040854523
:1051D0001305044026C44AC2EF00F03C6306050EE6
:1051E000130504408545EF00903D83C7C1831384B8
:1051F000C18393849195C1E783C741959CA095EBAA
:105200000146914537150140EF20F0631C201D47F2
:1052100085071CA083C7B1959384A1951384B1958C
:105220006367F70E45678A071307C7EBBA979C4376
:1052300082870546914537150140EF20D060014631
:10524000914537150140EF2010600546914537150F
:105250000140EF20505F3729014001468545130585
:105260000980EF20505E0546854513050980EF2033
:10527000905D0146854513050980EF20D05C98209C
:105280001C20E3E5E7F8ADBF85471CA09820BD478B
:1052900063FCE702138741941023938641941376AD
:1052A000F60F1387C1959387019619E60C4323A83F
:1052B000B1968C4323A6B196054690A223800400A4
:1052C0002320070023A007003244A24412494101D1
:1052D000730020303725014013050540E5219387F1
:1052E000C195984309852A9798C3894779BF8D4707
:1052F00069BF914759BF954749BF994779B79D47BE
:1053000069B79C202300040085079CA041B737059E
:1053100001001305056EEF30500C37150100130521
:10532000C5EDEF30900B9DB7EFA29FF0EF80F057E7
:10533000B717010003A687EF83A6C7EFEF6070568B
:10534000EF8070616FA01FF1EFA29FEEEF80F0552C
:10535000B717010003A687EF83A6C7EFEF60E062EF
:10536000EF80705F6FA01FEFEFA29FECEF80F05314
:10537000B717010003A687EF83A6C7EFEF60E060D1
:10538000EF80705D6FA01FEDEFA29FEAEF80F051FC
:10539000B717010003A687EF83A6C7EFEF60705031
:1053A000EF80705B6FA01FEB73002030EF20C052C6
:1053B000AA85371501001305851FEF301002EF2075
:1053C0000052AA853715010013058520EF30F00043
:1053D000EF202050AA853715010013058521EF30F5
:1053E000C07F01A0B71702409843B706FFF84111EC
:1053F0001367170098C3D84337060200758FD8C3C8
:105400009843B706F7FEFD16758F98C39843B70605
:10541000FCFFFD16758F98C3D843B70681FFFD16B4
:10542000758FD8C39843B70600ECFD16758F98C3E7
:105430003707FF0098C723A6070202C402C6984395
:10544000C166558F98C3B716024005679C42F18F1D
:105450003EC6A24785073EC4B24781E7A247E3970D
:10546000E7FEB71702409C431397E7006357070610
:1054700085473EC632478547631FF704B71702408A
:10548000D843B706C1FFFD16D8C3D843D8C3D84305
:1054900013670740D8C3D843758FD8C3D843B7061E
:1054A0001D00558FD8C39843B7060001558F98C388
:1054B000984393166700E3DD06FED843B716024013
:1054C000719BD8C3D84313672700D8C32147DC4258
:1054D000B18BE39EE7FE4101828002C661BF01A05D
:1054E00001A001A001A001A001A001A001A001A0B4
:1054F00001A001A001A001A001A001A001A001A0A4
:1055000001A001A001A001A001A001A001A001A093
:1055100001A001A001A001A001A001A001A001A083
:1055200001A001A001A001A001A001A001A001A073
:1055300001A001A001A001A001A001A001A001A063
:1055400001A001A001A001A001A001A001A001A053
:1055500001A001A001A001A001A001A001A001A043
:1055600001A001A001A001A001A001A001A001A033
:1055700001A001A001A001A001A001A001A001A023
:1055800001A001A001A001A001A001A001A001A013
:1055900001A001A001A001A001A001A097B1FF1FDF
:1055A0009381C14817B100201301C1A517D5000090
:1055B000130585C297B5FF1F9385C5A41386818601
:1055C00063FAC5008322050023A05500110591054B
:1055D000E3EAC5FE1385818697C5FF1F938505F411
:1055E0006377B500232005001105E36DB5FEFD428C
:1055F000739002BCAD4273904280B7620000938208
:10560000820873A0023097B2FFFF938222A393E235
:10561000320073905230EFF0FFDC97D2FFFF93829D
:1056200082F97390123473002030EFA27FC0B72745
:10563000014093870740631CF50085451305002052
:10564000F129814513050020D1296FA0BFC0B737CC
:10565000014093870780E31AF5FE85451305004056
:105660007529814513050040C5B75C413707F1E056
:105670001307F7EF944D7D8F9C41D58FD44DD58F77
:10568000D441A206D58FD98F5CC11C4537F7F1FFF5
:105690001307D77FD4457D8F9C49D58F94458606C7
:1056A000D58FD98F1CC55C55370710FF7D177D8FAF
:1056B000DC29FD1793F7F70FD207D98F5CD58280CD
:1056C0001C4589C593E717001CC58280F99BEDBF77
:1056D0001C4593E787001CC5828008450D8105891C
:1056E00082801C4593E747001CC5828008450981DC
:1056F000058982801C4591C537075000D98F1CC58C
:1057000082803707B0FF7D17F98FD5BFA54763F7B4
:10571000B7048D47138765FF3307F7020328C500D9
:105720009D47B397E70093C7F7FFB3F70701B39619
:10573000E600DD8E54C5994763E3C70495477D169F
:105740003306F6025859FD47B397C70093C7F7FFD2
:10575000F98F3396C5005D8E50D982800D4733870F
:10576000E502032805019D47B397E70093C7F7FFBC
:10577000B3F70701B396E600DD8E14C96DBFB147DC
:1057800063E2C702954765163306F6021859FD47CE
:10579000B397C70093C7F7FFF98F3396C5005D8EA7
:1057A00010D9828095474D163306F6025855FD47AD
:1057B000B397C70093C7F7FFF98FB395C500DD8D89
:1057C0004CD5828068454205418182809C4513F713
:1057D000070113F8F70001C7D8413368E8008E21AC
:1057E00013F7F50F39C318418146854E3D4F930F8E
:1057F000800293028004214E3396DE00B3F8C50088
:10580000631116039398260033131F011343F3FF0C
:105810003377E300B318180133E7E800639FF70517
:1058200050C98506E39AC6FD18C11307F00F6375CA
:10583000B70454412146854E3D4F930F8002930299
:105840008004414EB398CE0033F715016392E8020D
:105850001317260001173313EF001343F3FFB3763A
:10586000D3003317E800D98E639DF701232A150171
:105870000506E319C6FD54C18280E39457FA10C9A6
:105880004DB7E39757FE23281501DDB708456D8D09
:105890003335A00082800CC982804CC98280AD67FC
:1058A000373700409387A7AA1CC3828023AEA196F6
:1058B00082809387C1979443182181E63C21920707
:1058C00021A894430546639FC6023C2110319207EC
:1058D0006314D60093E707F8B7E600E093F7F70FF5
:1058E000BA962380F6408546935757003397E600D3
:1058F0005441A5C2938707048A07B7E600E0B6972C
:1059000098C382808C4389466391D50214313C212F
:105910006365D6008A06B6975DB79386E6038A0666
:10592000B69793F7F70F920775B790438D46631CB0
:10593000D60014313C216364D6008606E9BF938605
:10594000C6078606F1BF94439147E39EF6F81C31E3
:10595000BDB7938707064DB7B7160240DC425177B3
:105960007D17F98F5D8DC8C28280371702405C4376
:105970009146B18B6385D700A1466382D706B717DE
:105980007A00938707201CC1371602405C42370714
:1059900000201307C7049183BD8BBA9794231C4141
:1059A000B3D7D7005CC15442A1829D8ABA96942293
:1059B000B3D6D70014C55442AD829D8A36971823BA
:1059C000B3D7E7005CC55842398393763700138715
:1059D000418436971823B3D7E7021CC982805C4301
:1059E0005843C166C983758FB7F6FF1F83A6C6707B
:1059F000BD8B89071396160163480600C54601460C
:105A00006392D702C94739A88946638FD702BD463A
:105A1000638ED702C146638ED702C54601466393A3
:105A2000D700C1471DEF3747024003270780418B4E
:105A300005C737177A0013070720B307F7021CC101
:105A400021D61C41858381B701466DBF0546B54708
:105A5000D1BF0146BD47F9B737173D00130707907F
:105A6000E9BFB7150240D8559316F700D85563DF44
:105A7000060411833D8B9306170037177A0013072E
:105A800007203357D70218C1D455A182BD8A8DE2B1
:105A900095463307D702058318C137170240585778
:105AA00014413D8B050733D7E60218C1184171B781
:105AB00085456394B600E546E9BFBD456396B600EB
:105AC000D1463387E602C9BF8906E5BF3D8B930601
:105AD000170037177A00130707203357D702F1B79B
