:100000006F50A05C130000001300000013000000FC
:100010001300000013000000130000001300000094
:100020001300000013000000130000001300000084
:08003000130000007300100032
:100038000000000000000000D6530000DA53000062
:100048000000000010550000000000000000000043
:1000580012550000145500000000000000000000C8
:10006800FA800000000000001855000000000000A1
:100078002A8400001C5500001E5500002055000071
:100088002255000024550000265500002855000080
:100098002A5500002C5500002E5500003055000050
:1000A8003255000034550000365500003855000020
:1000B8003A5500003C5500003E55000040550000F0
:1000C80042550000445500004655000048550000C0
:1000D8004A5500004C5500004E5500005055000090
:1000E800384100009C51000056550000585500004A
:1000F8005A5500005C5500005E5500006055000030
:1001080062550000645500007682000068550000C2
:100118006A5500006C5500006E55000070550000CF
:10012800725500007455000076550000785500009F
:100138007A5500007C5500007E550000805500006F
:1001480010260000845500008655000088550000E0
:100158008A5500008C5500008E550000905500000F
:1001680092550000945500009655000098550000DF
:100178009A5500009C5500009E550000A0550000AF
:10018800A2550000A4550000A6550000A85500007F
:10019800AA550000AC550000AE550000B05500004F
:1001A800B2550000B4550000B6550000B85500001F
:1001B800BA550000BC550000BE550000C0550000EF
:1001C800C2550000C4550000C6550000C8550000BF
:1001D8000000000000000000000000000000000017
:1001E8000000000000000000000000000000000007
:0801F8000000000000000000FF
:10020000397101436EC619A0397141536AC866CA73
:1002100062CC5ECE19A0397101535AD056D252D455
:100220004ED64AD826DA22DC06DE330161408282CD
:1002300041114AC026C222C406C68282B24D410183
:10024000024D924C224CB24B4101024B924A224A3F
:10025000B2494101024992442244B24041018280A4
:100260003D432A876373C3029377F700BDEFADE583
:10027000937606FF3D8ABA960CC34CC30CC74CC795
:100280004107E36BD7FE11E28280B306C3408A06C2
:100290009702000096966780A6002307B700A30682
:1002A000B7002306B700A305B7002305B700A304D2
:1002B000B7002304B700A303B7002303B700A302CA
:1002C000B7002302B700A301B7002301B700A300C2
:1002D000B7002300B700828093F5F50F9396850051
:1002E000D58D93960501D58D61B79396270097021A
:1002F000000096968682E78086FA9680C1171D8F49
:100300003E96E374C3F8A5B70100010001000100A7
:10031000010001000100014582803307C5009307F9
:10032000001063C7E702EFF21FEF3289AE89AA849B
:10033000014493170401C18363FE270133878900B9
:10034000A6970C231395070141817D3F0504D5B77E
:10035000014582800545D5BD010001000100010075
:10036000010001000100010001000100014582803F
:10037000EFF21FEC4111AA840144931704012EC629
:10038000C18332C463FEC700338584001375F50F43
:10039000E137B2452246B387850088A30504F1BF43
:1003A0000545410145BDEFF21FE72A89AE8432843D
:1003B0009309F00F370A0100B70A01007D14137486
:1003C000F40F630B34038C2003550900353F0345BC
:1003D000090059379C20638AA70013058A6AEF80B9
:1003E000500313850A6BEF80D00283270900850430
:1003F00085072320F900D9B789BDEFF27FE32E9658
:100400004111AA841374F60F88202EC6B137B24565
:1004100088A19C40850585079CC093F7F50FE315DF
:10042000F4FE410105BDEFF2BFE07971C1651384AF
:1004300085674146938585670A85EFD050734146AD
:10044000930504010808EFD0907241469305040219
:100450000810EFD0D071B716002037170020814761
:100460001386812D9386862513078724C14533087B
:10047000F100032808003385C70000082320050188
:100480003308F400032808003385D7000010232028
:1004900005013308F400032808003385E7009107BD
:1004A00023200501E395B7FCEF303029B7070100A1
:1004B00083A7C76C1306000023A6F18C23A6F18E38
:1004C000370701000327076DB706010023A0E18E5F
:1004D0009567938707E223A2F18E23A4C18EB70705
:1004E000010083A7476D83A6866D23ACF18C23AEF4
:1004F000D18C23AAF18C138701B310C750C33707DF
:1005000001000327C76D23A8C1B223A8E182B70762
:10051000010003A5076EEF40106423A6A182B70770
:10052000010003A5476EEF40106723A4A182EF40AE
:10053000E03E370701000327876E370501001305EA
:10054000856A23A2E182EF80C06C370501001305A4
:10055000C56EEF80006C4561F5B9EFF27FCA9385F7
:100560004120131425009388C50013888500138A41
:100570004500C6864286338B8500AA899307000012
:10058000D285138541202320FB00EF303008B707C8
:10059000002093878702A2978843938B4181EFD0F5
:1005A0005034B717010003A687C283A6C7C2CE9BEB
:1005B000EFB0B0322A8C03850B00AE8C93844121BE
:1005C000EFC010012A86AE866285E685B70C002052
:1005D000EFB0B030938C8C01EFD0703B3389840046
:1005E000A29C371E01002320A90003A50C0083252F
:1005F0004EC29389818023A0A900EFC0506213836B
:10060000C400138D840091042A879A866A86A68581
:10061000138541219387018AEF20D05E9307000064
:100620002320F900EF40C01D930700002320FB00AA
:10063000938801211388C120D285370A0020C686FD
:10064000428613854120130ACA00EF30207C229A8B
:10065000832D0A0003850B00B7070080B3CDFD0092
:10066000EFD0F00EAA856E85EFD0601D371E010019
:1006700083254EC22320A90003A50900930D000085
:10068000EFC0F059138301222A879A866A869387DE
:10069000018AA68513854121EF20D0562320B90178
:1006A000EF40001683250A002E85EFC0B0202A8A6D
:1006B00003850B00EE8BEFD09009AA855285EFD011
:1006C0000018B707010083A5076D2320A90003A523
:1006D0000C00EFD0C016371E010083254EC223A0A8
:1006E000A900EFC0D053138301222A879A866A8615
:1006F0009387018AA68513854121EF20B0502320DE
:10070000B901EF40E00F938701B3A29703AA070056
:100710009387C1B3A2978C435285EFC0B0199387DA
:1007200081B4A297AA8A2320AB008843D285938400
:100730004122EFC03018A29488C0B7070020B70448
:1007400000209387070093844403A2943E940840BA
:10075000D285EFC0301688C02320590123A0B901EB
:10076000EF303013E1BCEFF2BFAC2E84AA85371511
:100770000100130545AAEF80C0492285EFD070160D
:100780002A8637150100AE86130585AAEF806048DA
:10079000D1B4EFF2FFA941112EC4AA85371501008B
:1007A000B286130545AA36C6EF80A0462246B24659
:1007B00037150100130585AAEF80A045410159BCFA
:1007C000EFF21FA72E84AA8537150100130545AA4D
:1007D000EF80204437150100A285130585AAEF801C
:1007E00040438DBCEFF23FA39384C18898408D476E
:1007F00063C5E706138481891C4013090006B3070B
:10080000F9029389019BAA853385F900EFD0B044A2
:10081000370501001305856AEF80A03F37150100F9
:1008200013058588EF80E03E0C4037150100130565
:1008300045AAB305B902CE95EF80A03D371501005A
:1008400013054589EF80E03C1C4011478507B3E75D
:10085000E7021CC09C4085079CC0C5BAEFF25F9DB3
:100860005137CDBAEFF2DF9C37150100130585C073
:10087000EF80203A996773900780B707EFBE37E79C
:1008800000E0938707083CC76FF0DF9CEFF25F9AA8
:1008900037140140130504808565EF70F0000546AC
:1008A000130504808565EF70E07CF1659385052074
:1008B00013854199EF703026372501408545130592
:1008C0000580EF70607EEF70000F37150100130593
:1008D00005B4EF80003437150100130585B5EF80AE
:1008E0004033B70401001385846AEF8080323715E6
:1008F00001001305C5B6EF80C0313715010013059F
:10090000C5B7EF80003137150100130545B9EF80F9
:10091000403037150100130505BAEF80802F3715D9
:100920000100130505BCEF80C02E3715010013052B
:10093000C5BCEF80002E1385846AEF80802D3715AB
:100940000100130585BDEF80C02C371501008145DE
:10095000130585BEEF80E02B371501001305C5BEDA
:10096000EF80202B3715010093050054130545C077
:10097000EF80202A23A801887D34EF406027EF20F4
:100980009022EF30104FEF70C07A01468565130555
:100990000480EF70206E6FF0FF8B01479306000616
:1009A0003306E5000306060093178701E187631409
:1009B000B6069305F005254613978701618763CF37
:1009C000E504B306F50094228507938606FD93F6A9
:1009D000F60FE363D6FE8147A54829489305F00545
:1009E000B306E50003860600930606FD93F6F60FB0
:1009F00063E1D802B387070305079376F70F1397D0
:100A000086016187938707FDB297C207C183E3F927
:100A1000D5FC3E8582800507E314D7F88147D5BF12
:100A2000EFF21F81830715001307C004AA846388AF
:100A3000E700130700056380E7046FF0BF81B71577
:100A400001009385C589EFD0302319C59305A00314
:100A50002685A1372399A18AB71501009385C58AF8
:100A60002685EFD0702171D99305A00326853537EF
:100A70002398A18AD9B7B71501009385458BEFD08C
:100A8000B01F45DD930530072685013F1384418B58
:100A90000AA01E209305A0032685C207C18381CF2B
:100AA000ED3D9307C0033305F5021A203A95420540
:100AB00041810AA059B7D535EDBFEFF26FF703A713
:100AC0004189930700063387E70283A701881385CE
:100AD000019B8145B306E500958F8507BA973E9542
:100AE000EFE06068EFD0A06A6FF0CFF6EFF24FF45E
:100AF00003A74189930700063387E70283A701888C
:100B00001385019B29468145B306E500958F85072E
:100B1000BA973E95EFE0807A6FF0CFF3EFF24FF1A6
:100B200003A7418993070006AA85B387E7021385C7
:100B3000019B3E95EFD0B01023A0A1883335A000D3
:100B40006FF04FF1EFF2CFEED13F6FF0AFF0EFF279
:100B5000AFEB9389818083A7090023AEF186938749
:100B60000181984323ACE18A1307400698C303A789
:100B700001999387C18A98C3EF3090480545EF30BB
:100B800020521387412014439387412194C3544337
:100B900013058005B7040020D4C314475847938B2E
:100BA000C18794C7D8C79307000023A0F900BD37B9
:100BB0009389C18A138B8180938A818B138A0181E7
:100BC00013844120938404226311050C13059005BE
:100BD000B137631C050A1305A00589376317050A99
:100BE00085479CA00145EFF05F979C206386070A2C
:100BF0000545EFF09F969C2089E71305A005393F36
:100C000001C50945EFF07F9513058005013F11C926
:100C1000F13D01C95D35AA8503A501B3EFC0804947
:100C200008C013059005DD3D11C9C93501C97135ED
:100C3000AA8503A541B3EFC0E04748C01305A0054E
:100C4000F13D11C9653501C98D3DAA8503A581B363
:100C5000EFC0404608C49306C40013068400930501
:100C6000440013854120EF30601A83A70B00232036
:100C7000FB0083A70A002320FA0083A7019923A081
:100C8000F900EF3000416FF0AFDB130580052380E2
:100C900004006935E31805F4130590054135E3199F
:100CA00005F4A1BFEFF2CFD813854199EF70C0765C
:100CB000371501001305C5B0EF70B07583A5C18667
:100CC00037150100130585B18505EF7090746FF03D
:100CD0006FD8EFF2EFD27571371A00209387018930
:100CE000130A4A491384019B3EC683270A08032737
:100CF0004A08998F93F7F70795CB03A7C1888D47CB
:100D0000938CC18863C4E70213854199EF70406EEC
:100D100062056185A947138701879384418763171B
:100D2000F5029440A9EA2388018631A8130600063B
:100D300081450818EFF0CFD2938741B59C33138DCE
:100D400041B5639F072649616FF04FCFB547E30A6E
:100D5000F5FC9307A0036314F5001C23F9D394401A
:100D60009307E005E3CFD7FA9307B003631AF522A0
:100D700085471CA39DBF938D818983A70D00130612
:100D800000061823B38AC70213898189B309540165
:100D9000CE96238006006312071C32479305E004B9
:100DA0004E85BA9723800700EFD06069630A051A61
:100DB00023A0A1883305354105055695294681456F
:100DC0002295EFE0A04F938BC18683A70B00138D74
:100DD000C1892320AD008507138B0188938AC189BF
:100DE0009389C186630EF50403A50D001306000662
:100DF000B70501003305A602938505712295EFD052
:100E0000A0671DED3705010013058571EF70706057
:100E10003705010013050572EF70B05F83A50B0065
:100E20003704010013054475EF70B05E83250D0093
:100E300013054475EF70F05DB53523A0040021B7AC
:100E400003250900930B00069305A002B30B75035D
:100E5000B30D74016E85EFD0805E3DC18147014DB9
:100E6000EE861306A0023387F60003070700630827
:100E7000C7008507E207E187334DA701EDB72320BF
:100E8000AB003305B54105055E9581452295EFE040
:100E9000802DEFB0B0676308A50537050100130585
:100EA0008571EF7010573705010013058575EF70D8
:100EB00050563715010083A50900130585B19DBF64
:100EC0003705010013058571EF70B0543705010037
:100ED00013058577EF70F0533705010083A50900EE
:100EE0001305457581BF83A70A0023A0F900832954
:100EF00009001305000693057004B3093503B30A0E
:100F000034015685EFD0A05305CD23A0A188330529
:100F1000554105054E9581452295EFE0C024EFB07F
:100F2000F05E8D4763EEA70083C78186ADE783C778
:100F300041B599E7370501001305057DEF70704D48
:100F40008327090011478507B3E7E7022320F9004B
:100F500083A70C00850723A0FC0023A0040071B325
:100F60009305A0024E85EFD0804D51D13705010089
:100F700013058571EF70F049370501001305457AB7
:100F8000EF70304983A5C18637050100130545750B
:100F9000EF7030485DB5370501001305457D79BF19
:100FA0001C23E39407D483A781891387160098C074
:100FB00013070006B387E702A297B69788A335B355
:100FC00083A7418713844187E39F07D6814C138908
:100FD000019B93890189B71B010003274D268327B5
:100FE0000D26E302F7D603A7C1888D47138CC1886D
:100FF000E3CBE7D413058D25EF60D00BA947938D84
:1010000001876304F502B5476301F5029307A00366
:101010006315F50083C70D0089CB18409307E005E1
:1010200063C5E700FD576317F50E03270D268327D9
:101030004D26631FF7061385CB84EF70903D37155F
:10104000010013050586EF70D03C83A70199930634
:10105000C00323A0F18C03A6C18B3D67130707A62D
:10106000918F33D7E70237F63600130606E8B71537
:101070000100938545870808B376D70233D6C702A7
:10108000EF70703B370501001305856AEF7070380B
:10109000371501000C08130585BEEF7090371385D6
:1010A00041B5EF10102F8545138541B5EF1050174E
:1010B00083C70D0099CF0818EFF09F96814713075B
:1010C00000061418BE96238006008507E39BE7FE02
:1010D000814C1040E30906C4938681899C42130722
:1010E000000623800D003387E702232004004A977F
:1010F00032972300070005463387F90010A3032722
:101100000C00850705072320EC001147B3E7E70231
:101110009CC2E1B59307B0036310F50285472380B5
:10112000FD00180993871C00BA9C2380ACFA939C9D
:10113000870193DC8C4155B583C70D00FDF383A770
:1011400081899306170014C093060006B387D7025F
:10115000CA97BA9788A3374700401375F50F83578E
:10116000074093F70708E5DF420541812312A740B6
:10117000ADB503A7019923A6E18A03A74189938707
:101180000189BA979C238DE3EFF28F8A370501001E
:101190001305057DEF70F027371501001305C5FB1A
:1011A000EF70F02B6FF00F8B8280EFF2EF8593845E
:1011B000412013844121014993890186138A418A80
:1011C000914AB387290103850700EFF03F9529CDA8
:1011D000EFF0BF8EB3072A01AA8B882311E593870E
:1011E000618B88231375F50FEFC070568C40EFC0EC
:1011F0000065DE85EFB0106C08C00509910411048C
:10120000E31159FD13056004EFF05F9101CDEFF09C
:10121000DF8A930500002A84EFC040516354A00088
:1012200023A481806FF0CF819C401CC0F9B7EFF2FE
:101230002F80A53F13059004EFF05F8E1384419A31
:1012400011CDEFF09F8708C01305A004EFF01F8DAC
:1012500011C9EFF09F8648C06FE0DFFF93070000E1
:101260001CC0DDB7930700005CC0FDB7EFE25FFC78
:1012700003A941222A840841CA8593844122EFC0F0
:101280004053635405002320240103A9440048402F
:10129000CA85EFC000526354050023222401844410
:1012A0000844A685EFC0E0506353050004C4B704AA
:1012B000002003A94403084093844403CA85EFC077
:1012C000E0466354A0002320240103A944004840C1
:1012D000CA85EFC0A0456354A000232224018444A2
:1012E0000844A685EFC080446353A00004C46FE0A7
:1012F0007FF6EFE2FFF0138541218D3F03A70199AF
:101300009384412103A541208C4023A6E18A83AA2E
:101310008180EFC0E03BCA8C13844120371A010062
:10132000938DC121138D812131E1CC404840EFC024
:10133000203A0DED83254AC25685EFC0400E2A871C
:101340009387018A938601221386C1219385812187
:1013500013854121EF20000B9C401CC0DC405CC089
:101360009C441CC4DC445CC46FE05FED03A50181B8
:10137000EFC0F03DD685EFC0804C83254AC2EFC058
:10138000000AB717010083A58789EFC040092A87A3
:101390009387018A938601226E86EA85138541210F
:1013A00055BFEFE25FE71384419A2A894840011153
:1013B0001379F90FEFC0F0522ACC08402ECEEFC0BF
:1013C00050526246F246EF70504EEFC0505C2ACC4D
:1013D00003A50181EFC0B03783A58180EFC020460F
:1013E000B717010083A547C2EFC06003B71701001C
:1013F00083A58789EFC0A00283C7018AE24893844E
:1014000041213EC24AC02A88894705478146138642
:10141000419A938541211385412013844120EF1087
:10142000207A9C401CC0DC405CC09C441CC4DC4452
:101430005CC403A7019923A6E18A05616FE0FFE080
:10144000EFE21FDF996773900780EF307004054665
:10145000C14537150140EF60F0410546C1453715DC
:101460000140EF6030410546C14537150140EF604E
:1014700070400546C14537150140EF60B03F370564
:1014800001001305856AEF70C07837150100130558
:1014900005B2EF7000783715010013058500EF7075
:1014A0004077EFF02FBC01A0EFE29FD81386C18AEE
:1014B00083A601990C4203A641888D8E9387C18A29
:1014C0006374D60011C2AD3F83A64180A1CA03A7B1
:1014D00001999C43B307F74063F2F60403C7018DFB
:1014E00083C7118D93F7F70F639AE7020546C1454D
:1014F00037150140EF6010380546C14537150140EA
:10150000EF6050370546C14537150140EF60903612
:101510000546C14537150140EF60D035EF10106C1E
:101520006FE05FD3EFE2DFD0EF3080769387818684
:1015300098231DE3054798A303A7C186370501003B
:101540001305856A23A4E188EF70A06C37050100BC
:101550001305457DEF70E06B6FE0DFCF03C581863B
:101560008280EFE2FFCC83C7018AAA84130540057D
:10157000238CF186EFF08FDA09E501494A856FE0A7
:101580007FCD2A89EFF06FD3EFC0101713848187C6
:101590001375F50F08A075D1370501001305856A8D
:1015A000EF702067930790066384F40463CE97007E
:1015B000930780066387F4020C203715010013059A
:1015C00085BEEF7000655DBF9307D0066387F402A8
:1015D0009307A00DE392F4FE37150100130545AF04
:1015E00029A0371501001305C5AAEF708062E9B77D
:1015F00037150100130545ACCDBF371501001305A4
:10160000C5ADE5B7EFE2DFBF5D7113057004EFF024
:10161000EFD0630C0516EFF04FCAEFC0D00791472B
:101620006309F50C63CCA70089476304F50A63CB13
:10163000A70A63530508EFF0DFB349A89307A00595
:101640006309F51063CBA700F147E316F5FEEFF051
:101650000FD005472384E192F9BF9307B005630DCE
:10166000F50E9307C005E318F5FC13055004EFF0E1
:10167000EFCA19E1EF30C0181384412081449389E7
:10168000018613890121138A01B3930A8400B38769
:10169000990003850700EFF06FC811C98D4763916A
:1016A000F40CEFF08FC148C44A85EF203005850463
:1016B0009147E39EF4FC41B783C7818699EBEFF035
:1016C000DFAEEFF01FC305472384E19261616FE055
:1016D000FFB683C7818699E7EFF07FB50545EFF048
:1016E0005FCCEDB783C7818689E7EFF05FB4014532
:1016F000FDB713050005EFF06FC2014411C5EFF00F
:10170000CFBBEFC0607F2A8413053005EFF00FC117
:1017100001CDEFF08FBAB707010083A5C76CEFC00A
:101720000012EFC0607D2A84EF30800D03A701997D
:1017300083A60199BE843A9423A6D18A83A70199EE
:10174000E3FB87EEEF605051EF30602EEFF0DFD516
:10175000F5B7238B018AC5B50547238BE18AE1BD27
:10176000EFF0AFB593972400330BF400D297AA851E
:101770008843EFB030142320AB00CA865686930509
:1017800044002285EF2080681DB71305D004EFF0D8
:10179000EFB819E16F007053EFF02FB2EFC0A06FF8
:1017A00013079006AA876300E566634EA714714786
:1017B000630BE5506342A70A5947630DE546634E44
:1017C000A7044947630DE50C634EA7024547E314A0
:1017D000E5E60146C14537150140EF60B009014615
:1017E000C14537150140EF60F0080146C145371586
:1017F0000140EF6030080146C14537150140EF60F8
:10180000700715BD51476306E5405547E315E5E20E
:10181000138541B5EF10C00239BD6547630EE5463B
:101820006341A7025D47630CE5406147E315E5E0CE
:10183000138541B5EF10400503A7019923AEE18A56
:10184000DDBB69476300E5466D47E316E5DE1385BA
:1018500041B5EF10E011C5B3130720056308E56C2F
:101860006341A7027947630DE54A6347E54A7D472F
:101870006301E55613071005E31FE5DAEFE09FFE6D
:101880005DBB130750056308E574634DA70213079A
:1018900030056301E56A13074005E31EE5D813052B
:1018A0003005EFF0AFA7630C0568EFF00FA1B707A5
:1018B000010083A5C76CEFB09078EFC0E06323A26E
:1018C000A18095BB1307C0056309E5721307800665
:1018D000E313E5D613058006EFF0BFC8E31D05D47A
:1018E00013053005EFF08FA301CDEFF00F9D03C47A
:1018F0008187938741970A043E94EFC0C05908C07E
:10190000EF30E0380DBB1307C00CE302E51A634962
:10191000A72213077007E30CE5086340A71C130711
:1019200020076302E5786346A7181307D006E3147F
:10193000E5D01305D006EFF0DFC2E31E05CE130598
:101940003005EFF0AF9D93848187138A419709C9D1
:10195000EFF0AF968020EFC000540A04529408C004
:10196000EF30E03203C904000A09B3072A018843B3
:1019700083AA0199B71B0100EFC0605D9387419670
:101980003E9983270900AA8C7D593EC4B7170100F0
:1019900003AC878C93894196371D0100E28D83A7A4
:1019A00001991307803EB3875741637CF708B71747
:1019B000010013850793EF70C0259C208A07CE97FE
:1019C0008843EFC00072B71701002A86AE861385E0
:1019D0004793EF700024B71701001385C793EF708A
:1019E00040238C2013854B92EF70A02213050D9499
:1019F000EF70202203A54197EFC06055EFC0A049CA
:101A0000AA8513854B92EF70C0203715010013058E
:101A10004594EF700020FD57630DF94A83A70199A3
:101A20008965938505719D8DCA951307803EB3D551
:101A3000E50237150100130585B1EF70801D83AAFB
:101A40000199EF20D07EEFF03FA6FD576318F94AC9
:101A5000A2456685EFB0904D9C208A073EC63307AD
:101A6000FA00635FA0460843EFC0604EEE85EFC00A
:101A70004006B247CE978C43EFB0B053E341A0F29B
:101A800003A90199FD57E30CF9F0634B090003A783
:101A9000019989679387F77033072741E3F1E7F0EE
:101AA00003A7019923AEE18A03A7019923A6E18A3E
:101AB00059B6130730076300E55E13075007E31CB0
:101AC000E5B603A501889305A0021505EFC0301700
:101AD000E30305B6A30F05FEB9BE1307C0086306EE
:101AE000E530634EA70013078007630FE56A13070D
:101AF00090070545E391E7B4EF20805A2DBE130708
:101B0000900C6307E5761307B00C0144E315E5B2CA
:101B10003719002093840186130989259149B387D9
:101B2000840003850700EFE07FFF19C5EFE0FFF8B1
:101B300093172400CA9788C30504E31234FFE5BC59
:101B40001307D012E30EE504634DA7021307E00C60
:101B5000E301E5006343E5781307C00DE303E50205
:101B60001307D00DE319E5AC13053005EFE01FFBBB
:101B7000E30305ACEFE07FF4EFC0E03123A6A180E2
:101B80005DBC13070019E30EE5126344A7061307B3
:101B9000E012E303E5101307F012E31EE5A81305B6
:101BA0005004EFE0BFF78144E3070510EFE0FFF0DA
:101BB000EFC0602EAA84E3500510B717010003A4FC
:101BC000478C13053005EFE07FF501C5EFE0FFEE30
:101BD0002A8413053004EFE07FF4154611C5EFE0C9
:101BE000DFEDEFC0402B2A86A6852285EF30400C22
:101BF00099B41307003A6306E5181307703EE31C17
:101C0000E5A22384018603A7818823A6E186EFF05D
:101C10003F83371501001305458EEF60907F1385D4
:101C200041B5EF00103F371501001305458FEF60F8
:101C3000507E11B4138541B5EF007044EDBA93891D
:101C4000418903A40900130900063304890293841F
:101C5000019BB71501009385459033858400EFC043
:101C6000B001E30A059C93054400A6950808EFC05F
:101C7000807E0C080546138541B5EF00B04483A56E
:101C80000900B305B902A69537150100130545AA49
:101C9000EF6030786FF03F9A138541B5EF00703FE9
:101CA0006FF07F99138441B53C20E38607981305B4
:101CB0003005EFE0BFE6E3000598EFE03FE32322C5
:101CC000A4266FF05F9703A501889305A0021384F3
:101CD00001881105EFC0A076AA8415C503A5418926
:101CE000930700069305E004B387A7021385019BC1
:101CF0003E95EFC0C07493050002EFC04074050527
:101D000008C0A38F04FE0C4001469105138541B520
:101D1000EF00503B6FF03F92238A01B46FF0BF9108
:101D2000938741B5BC23E3880790138541B5EF0045
:101D3000D05103A501889305A00293840188110561
:101D4000EFC0E06F2A8915C503A5418993070006F6
:101D50009305E004B387A7021385019B3E95EFC06E
:101D6000006E93050002EFC0806D050588C0A30FCB
:101D700009FE8C40138541B59105EF00903D6FF051
:101D80009F8B03A501889305A00213840188150584
:101D9000EFC0E06AAA8415C503A541899307000630
:101DA0009305E004B387A7021385019B3E95EFC01E
:101DB000006993050002EFC08068050508C0A38F85
:101DC00004FE0C40138541B59505EF0070376FF0A8
:101DD0009F8603A70199370501001305856A23A093
:101DE000E18CEF6010630C0845B513053005EFE09A
:101DF000FFD2E3020584EFE05FCCEFC0C00923AC63
:101E0000A1966FF05F83EFF0CFF5E31605823705FB
:101E100001001305057DEF60D05F37150100130544
:101E2000C5FBEF60D063371501001305C590EF6067
:101E3000505E138481871C20138741968A07BA97C6
:101E40008843B7140100EFC0C0292A86AE861385E7
:101E50004491EF60105C371501001305C591EF60E8
:101E6000505B1C20138741978A07BA978843EFC0BD
:101E7000000EEFC000272A86AE8613854491EF60DE
:101E800050593715010013050592EF60905808204E
:101E9000EF20902AAA853715010013054592EF60BF
:101EA00050573715010013058592EF6090567D5508
:101EB000EF209028AA8537150100130585BEEF6035
:101EC000505537150100130545FDEF6090546FF034
:101ED000EFFF3715010013058594EF60905385B629
:101EE0000843EFC0C006E285EFB0C01CB247CE97F2
:101EF0008C43EFB0B003E35505B855B49C208A0776
:101F00003387F900D29788433AC6EFC0400432477E
:101F1000AA850843EFB0F03BEFB0F0779357F54157
:101F20003D8D1D8DA947E3D4A7B699BEA383018A31
:101F30006FF06FF00547A383E18A6FF0CFEF1305D1
:101F40008005EFE0BFBD29CDEF20900B1305800584
:101F5000EFE0DFBC19C50546C14537150140EF600C
:101F6000601113059005EFE07FBB19C50546C1451B
:101F700037150140EF6000101305A005EFE01FBA10
:101F800019C50546C14537150140EF60A00E130580
:101F90005004EFE0BFB8630005EA05466FF0DF8547
:101FA00013059005EFE09FB745F11305A005EFE09D
:101FB000FFB659F913055004EFE05FB651F5EF2075
:101FC00030040546C14537150140EF60A00AEF20F7
:101FD000D00D6FF04FE613053005EFE03FB4EFE0B2
:101FE000DFADB707010083A5C76CEFB05005EFB0B8
:101FF000B07023A2A1886FF00FE4B717010003AC03
:10200000C78CB71A00200144138B01869384812D5D
:10201000938A8A25B3078B0003850700EFE01FB082
:1020200031CD8D476312F406EFE03FA9E2852A8A9D
:10203000EFB0207863520504C844D285EFB0203E4B
:10204000AA89AA8503A5418D1389812CEFB0207F31
:1020500023AAA18C03A5CA00CE85EFB0407E23A69B
:10206000AA000325C900EFB0F07ACE85EFB0207D3D
:10207000EFB090682326A90023A6440105049147E8
:10208000E31AF4F86FF02FDBEFE03FA3931724007F
:10209000A69788C3E5B73715010013050595EF60CE
:1020A000103C6FF04FD9371501001305C59EEF6046
:1020B0005036138441200840B7140100EFC060027D
:1020C0002A86AE86138584AAEF60B03437150100E6
:1020D0001305059FEF60F0334840EFC080002A866B
:1020E000AE86138584AAEF60D03237150100130540
:1020F000459FEF6010320844EFB0B07E2A86AE866E
:10210000138584AAEF60F030371501001305859F11
:10211000EF6030304844EFB0D07C2A86371501009C
:10212000AE861305C59FEF60D02E3715010013054D
:1021300045A0EF60102E0145EF202075EFB0306113
:1021400083A5812D1384812DEFB0602DEFB07079C0
:102150002A86AE86138584AAEF60B02B0545EF2052
:10216000C072EFB0D05E4C40EFB0602BEFB0707734
:102170002A8637150100AE86130505A1EF60702988
:102180000945EF208070EFB0905C0C44EFB020293F
:10219000EFB030752A8637150100AE86130585A18C
:1021A000EF6030276FF02FC901456FF0FF943715AE
:1021B0000100130545A2EF60D02537150100130576
:1021C00005A4EF601025371501409305000813059D
:1021D00005C0EF30806E8547631DF506B715010019
:1021E0009385C58D37140100130584BEEF607022FE
:1021F00037150100130585A4EF60B02137150140A4
:1022000093050020130505C0EF30206B8547631749
:10221000F504B71501009385C58D130584BEEF60E5
:10222000501F37150100130505A5EF60901E3715E7
:10223000014093050040130505C0EF300068854755
:102240006313F502B71501009385C58D130584BE90
:1022500081B4B71501009385058D69B7B7150100E5
:102260009385058D5DBFB71501009385058DF9BF79
:102270003719002001449384018613098924114AE7
:10228000B387840003850700EFE05F8911C9EFE0A1
:10229000DF8293192400CA99EFB0104623A0A90049
:1022A0000504E31F44FDEF1050496FF0CFB813054C
:1022B0003005EFE0BF8609C5EFE03F8023A6A18C83
:1022C00013054005EFE09F8519E16FF0CFB6EFE011
:1022D000CFFE23A6A18E6FF00FB613053005EFE0F9
:1022E000FF8309C5EFE06FFD23A0A18E1305400514
:1022F000EFE0DF8209C5EFE04FFC23A4A18E1305B8
:102300002004EFE0BF8119C5EFE02FFBEFB0D03E16
:1023100023A2A18E13058005EFE05F8009C5EFE0E1
:10232000CFF923ACA18C1305A005EFE02FFF09C561
:10233000EFE0AFF823AEA18C13055004EFE00FFEE1
:1023400019E16FF04FAFEFE04FF723AAA18C6FF0C8
:102350008FAE014493840186138901B38D49B387FD
:10236000840003850700EFE06FFB19C5EFE0EFF491
:1023700093172400CA9788C30504E31234FF6FF053
:102380008FAB13053005EFE06FF919E16FF0AFAADD
:10239000EFE0AFF2EFB0303023A8A1806FF0AFA92B
:1023A00013050005EFE08FF709C5EFE00FF123A853
:1023B000A18213059004EFE06FF619C5EFE0EFEF8F
:1023C000EF20707923A6A18213054004EFE00FF5FA
:1023D00019C5EFE08FEEEF20107C23A4A182130536
:1023E0003004EFE0AFF309C5EFE02FED23A2A182A7
:1023F000EF20C052370501001305057DEF60700125
:1024000037150100130585A5EF60B00003A5018312
:1024100037140100EFB0F04C2A86AE86130584AA6B
:10242000EF60207F371501001305C5A5EF60607EC2
:1024300003A5C182EF203074EFB0B04A2A86AE8681
:10244000130584AAEF60E07C37150100130505A68B
:10245000EF60207C03A58182EF20F075EFB070481B
:102460002A86AE86130584AAEF60A07A371501008C
:10247000130545A6EF60E07903A54182EFB07046F1
:102480002A86AE86130584AAEF60A078371501006E
:10249000130585006FF0AFF913053005EFE00FE885
:1024A0009307000001C5EFE04FE1AA873E85EF10DA
:1024B00070286FF04F98B717010003A4078C6FF0D6
:1024C0004FF0EF20E0336FF00F9713054005EFE07A
:1024D000EFE4B704010051C1EFE02FDEEFB0D021EF
:1024E0001375F50F1384818708A015C51385846AB9
:1024F000EF60207213054005EF50D0760C203715A1
:10250000010013054591EF60C070371501001305F8
:1025100085A66FF0CFF113056004EFE02FE001CD49
:10252000EFE0AFD9930500002A84EFB02020635478
:10253000A00023A481801385846AEF60806D371525
:1025400001001305C5A7EF60C06C3715010083C5F6
:10255000018A130585C86FF0AFF31385846AEF60B5
:10256000406B37150100130505A9EF60806A83A54C
:1025700041899307000637150100B387B702938599
:10258000019B130545AABE95EF60A06837150100B1
:10259000130545896FF0AFE9EFD21FC7EFE00FAF2A
:1025A000894A1384019B930B0006114C83A7C188B1
:1025B0001389C18863C4FA00EFE0AFF18145138548
:1025C00041B5B9298327090095C7938441898C4077
:1025D000138541B5B385BB02A2954929EFF08F82DF
:1025E00083270900FD172320F9009C408507B3E7E6
:1025F00087039CC0EF20A043EFE01FEBEF10F01922
:1026000075B7EFD2FFC2138541B549206FD09FC483
:10261000EFD21FC23754004093055052130504C037
:10262000EF30B00F39C19387012383A60708035603
:1026300044C083A547081387160042061377F703A3
:1026400041826306B700BE9690A223A0E70883A745
:10265000019937550040938747069305505213055B
:1026600005C023A2F18CEF30100F375400409305C2
:102670006062130504C0EF30500A19C5930560620B
:10268000130504C0EF30300D6FD0DFBCEFD25FBA5E
:102690009307C559232AF548B71501009307001081
:1026A0002A84232CF5482310050023010500938577
:1026B00045E21305C549EFB0105A85472300F46A77
:1026C00083A701999387077D232EF4686FD09FB865
:1026D000EFD21FB3130A452341112A845285AE89D4
:1026E000EF50200571E54E85EFB0F0579307C447D2
:1026F00001493EC4130BE002B71B0100371C010067
:10270000B38AA900B71C0100371D0100930D54487E
:10271000A2455285EF50A008AA843DE183075448A2
:10272000A5C3E38767FF8347444813F767006DF34A
:10273000032644490307060011E36E860327446A13
:1027400005094209135909011DE3C18B95CF9385F2
:102750004CCB5685EF60204ECE8513058DCBEF60B8
:10276000404BCE852285AD3729ED23800A00832793
:10277000446A09476398E7028317846AE39A27F952
:10278000268541016FD09FAB93854B90328532C631
:10279000EFB0904E69DD3246CE851305CCCCEF60AC
:1027A0004047F1B70547E395E7F62314246B8DB74F
:1027B000AA84AA8537150100130505CEEF60604590
:1027C000C1B7AA8475BFEFD2BFA641112E85B285CD
:1027D00032C6EF4010762A84324601E937150100EF
:1027E000B285130585CFEF60C042228541016FD0CD
:1027F0007FA6EFD2FFA341112E85B28532C6EF40EE
:10280000107A32468307960091E3114541016FD05B
:102810007FA4EFD2FFA1117191672A84938707A348
:102820001306B00F814548003EC0EFD07FA38A85D4
:102830002322046A2285EFF0BFE911616FD09FA1C6
:102840003C218DEFEFD2DF9E930545002A840145A0
:10285000EF40B031AA8509C9371501001305C5C677
:10286000EF60203B6FD01F9F371501008145130596
:1028700005C9EF60003A85473CA0EDB78280A30010
:1028800005002301050082803C2199C385471CB1C6
:1028900082801C3199C3A30005008280EFD25F992A
:1028A000411174001305852502C6EF40904419C5F7
:1028B000371501001305C5DCEF60A0353245410135
:1028C0006FD05F993C21A5CFEFD29F9641112EC6C4
:1028D000130485250DCE37150100130505D1EF60D2
:1028E0004033B24505462285EF40302AAA8511C9FA
:1028F00037150100130505D3EF60A03141016FD0FA
:102900007F953715010081451305C5D4F5B73715F7
:1029100001001305C5D6EF60C02FB24529462285B8
:10292000EF40B026AA8511C537150100130505D95A
:10293000E1B73715010081451305C5DA75BF8280FF
:10294000EFD21F8F85473CB10146EFF0BFF76FD044
:102950007F90EFD2FF8D2E85EF40106B01C9AA85C5
:1029600037150100130505C3EF60A02A6FD09F8EB5
:10297000EFD21F8C3C2195CF2A8437150100130517
:1029800005E0EF60002983250426370501001305C3
:102990004575EF6000281305F002EF50B02C832539
:1029A000442637150100130585BEEF6080266FD0E1
:1029B0007F8A37150100130545E1EF608025C5BF0B
:1029C000EFD21F872E852E84EFB0F029AA849305BD
:1029D000E0042285EFB0B02615ED1385F4FF2295B3
:1029E000B5471CB1A9473CA1A3010500370501006B
:1029F00013058571EF60E02137150100130585C4CB
:102A0000EF6020213715010013058500EF6060207D
:102A10006FD05F849305A002EFB070227D15C9B717
:102A200091E98347056A8DC383A701990327C56987
:102A300063ECE7003C212300056A99E7EFD24FFFE2
:102A4000EFF01FE06FD01F818280EFD26FFE930402
:102A500085252A842685EF40D0412685EF40304CDD
:102A600023000400A30104006FD0CFFEEFD24FFC7F
:102A7000370400208347445705498DC7AE84B715F6
:102A80000100938585DE2685EFB0101F1DE5130537
:102A90004457A685EFF0DFF2130444573C3091C74A
:102AA000EFE05FB64A856FD0EFFA370501001305F6
:102AB000057DEF6000160149F5B713054457EFF0A7
:102AC000DFF8371501001305C5DEEF608014D9BFAC
:102AD000EFD20FF609472322E56A2314B56AB285BF
:102AE000EFF01FBF6FD00FF7EFD28FF4854723228F
:102AF000F56A2A84EFF0DFBD8315846A371501007B
:102B0000130585BEEF60E0100355846A6FD08FF423
:102B1000EFD20FF29305F0021305C549EFB0301262
:102B2000133515006FD00FF3EFD28FF01305C549A1
:102B3000EFB070126FD00FF2AA870385070063050C
:102B4000B50001CD8507D5BF2E8581C9238007003B
:102B50008507038707007DFB05458280EFD24FED97
:102B60009305F0021305C549EFF01FFD6FD08FEEFE
:102B7000EFD20FEC2E849307C549B71501003E85AF
:102B80009385C5D0EFB0D009A285EFB070096FD0A2
:102B90006FECEFD2EFE92A84EF109046EF10B054BB
:102BA00013058425EF40B037A3000400EF10F04F69
:102BB00037150100130505C6EFD05FCA6FD08FE946
:102BC000EFD20FE4939A2600330B56013971832418
:102BD0000B00BA89330755012E893E8C0C4383477D
:102BE00001082A8A268542CAC68C3ED032C2EFA08E
:102BF000604C12468A0933073A01B3073601804315
:102C00000C432AC422853EC20A0CEFA0A04AB30797
:102C10008901B30B8A0183A50B002AC68843EFA064
:102C2000506B8327C900A2452AC83ED48327CA0017
:102C30003ECCB7070080BD8C3D8CB307590188435B
:102C4000EFA03069B30739012A8DB2458843EFA060
:102C50005068AA8DEA852685EFA0703EEE852AD6BB
:102C60002285EFA0D03DB257AA853E85EFA08044D3
:102C7000EE852AD62685EFA0903CEA85AA8D22858E
:102C8000EFA0F03BAA856E85EFA0B064B257BE8579
:102C9000EF60E059930500002A8DEFA0903163505A
:102CA00005026A85EFB0E043B717010003A687E28B
:102CB00083A6C7E2EF80E05DEFB0604D2A8D8257BA
:102CC00099CF6A85EFB0E041B717010003A687E20C
:102CD00083A6C7E2EF90F00BEFB0604B2A8DC2479E
:102CE000139517000581EFB0C03F2AD02ED26A8518
:102CF000E685EFA0D034EFB0C03E02569256EF60AA
:102D0000C03AEFB0C048AA8DEFB0A03DB7170100A0
:102D100003A607E383A647E3EF90C0306346051C94
:102D20006E85EF606023EFB0201D931D050193DDDC
:102D30000D0163930D00854D6E85EFB04021AA8C87
:102D4000AA856A85EFA0A06D2A8D4245E685EFA091
:102D5000006DE2452AC82255EFA0B057E685EFA0E6
:102D6000006C2AD46A85EFB0C037B716010003A6FD
:102D700086E383A6C6E32ACC2ECEEF9000366247C8
:102D8000F2473A86BE86EF904035B71701002A8693
:102D9000AE8603A507E483A547E4EF90807FEFB0FC
:102DA000003F03A70B009C00E29723A8E7FE032740
:102DB000CA00AA8C054A3ADE980056973ACC980089
:102DC0004E97814B3AD03E8C93170A01C18363F32F
:102DD000B711E14763CC7709EA852685EFA0302655
:102DE000AA89E6852285EFA09025AA854E85EFA0C9
:102DF000602CAA89E6852685EFA07024AA84EA853E
:102E00002285EFA0D023AA852685EFA0904C1388B9
:102E10001B00931B8801AA8493DB8B414E84A2453F
:102E20002685050AEFA00029E247B24523A8A7FEA0
:102E30002285EFA020288257C24523A8A7FE03259C
:102E40000CFFEFA020272328ACFEA2557255EFA05F
:102E500060262ADE0818EFE06FC152475C01741843
:102E600030184C180818EF00E059B9BF5285EFB080
:102E7000000EEA85EFA0B01C2A84EF60A005AA89A5
:102E80002285EF60201A83270B0037070080AA8A6B
:102E9000B3CBE7009247CE855E858043EFA0301A22
:102EA000AA84D6852285EFA09019AA852685EFA051
:102EB0006020D685AA845E85EFA07018AA8ACE8588
:102EC0002285EFA0D017AA855685EFA090402A84CE
:102ED000814BB1B752475C019306C90013068900C4
:102EE000930549004A85392B21616FD02FB5EFD268
:102EF0002FB12A84485D4111AE8B328BEFB0801127
:102F00002A89284083298404EFB0C0102A8C4E857A
:102F1000EFB0E00393050000AA8CEFA0607B630094
:102F2000051ECA854A85EFA09011AA84E2856285B4
:102F3000EFA0F010AA852685EFA0B039EFB0601A97
:102F40002A8A6685AE8AEFB0C0192A86AE86EF80DF
:102F500040342A86AE865285D685EF809026EFB023
:102F60000023EF50F069EFA01073AA846840EFB01F
:102F7000600AAA8A33053041EFA0707D93050000F6
:102F8000AA89EFA0E074630F0516D6855685EFA0D9
:102F9000100B2A8ACA854A85EFA0700AAA85528535
:102FA000EFA03033EFB0E0132A8D4E85AE8DEFB039
:102FB00040132A86AE86EF80C02D2A86AE866A85AB
:102FC000EE85EF801020EFB0801CEF50F078032AE0
:102FD0000401EFA0506CB3099A403385A940635FA8
:102FE000050A930500006685EFA0806E630F05104B
:102FF0006685EFB0000F2A86AE862A8DAE8DEF80F3
:1030000040292AC452852EC6EFB0C000EFB0600D33
:103010002247B2472A86AE863A85BE85EF90E00BFE
:103020002AC42EC66285E285EFA07001EFB0600B66
:103030002247B2472A86AE863A85BE85EF90605514
:103040002A8CAE8C5685D685EFA0607FEFB06009E4
:103050002A86AE866285E685EF80A023B717010039
:1030600003A687EA83A6C7EA2A8CAE8C6A85EE851A
:10307000EF90A0062A86AE866285E685EF80701402
:10308000EFB0E010EF50D057EFA0F060AA84635388
:1030900005008144014563E34401D284996773903C
:1030A000078083470405E207E187B1E344C8AA9497
:1030B000DE8504CC4A85EFA08078EF507054EFA0F5
:1030C000B063930780076374F50013058007DA8502
:1030D00028C04A85EFA0A076EF509052EFA0D061B3
:1030E000930780076374F5001305800768C099672C
:1030F000938787087390078041016FD02F94130541
:10310000000085B513050000C9B5130500009DBF7B
:10311000EFD20F924111AA842E8532C6EFA0207201
:103120002A84A6852685EF90F0783246B285EFA0F6
:103130000071AA852285EFA0D019EF60600F4101D0
:103140006FD04F91ADC925CAEFD2EF8C2E8403A961
:10315000C5020854B284CA85EFA0805721C18347B5
:103160009403B9E703AA84024A85D285EFA0005CE4
:103170006350A00448581058B7090080D2853345E1
:103180003501EFF0FFF8AA854A85EFA08062635908
:103190000500485408D48547230CF4026FD0EF8A09
:1031A000485810588C5433453501EFF07FF6DDB7A1
:1031B00023242403CDB78280EFD2EF859387018D3E
:1031C000982319677310078003C9118D13078708A7
:1031D0001379F90F73100780982333072741318B38
:1031E0000DCF8023014675143D888149138A812EB5
:1031F000930A4005630324036204618411E041449F
:103200007D141374F40FB3045403CE85D294268531
:10321000EFF05FF34E86A689F1BF6FD00F8335C5FF
:1032200083479503BDE3EFC21FFF032A850283A9ED
:103230008502AE842A84CE855285EFA08057635BD9
:1032400005024858105837090080D28533452501BA
:10325000EFF01FECAA854E85EFA0A055635E050038
:1032600080548854A285EFA0A04609C5854780D424
:10327000238CF4026FC07FFD485810580C5433451E
:103280002501EFF0FFE82A84E9BF8280EFC2BFF892
:1032900003C4118D81441374F40F01459389812E69
:1032A000930A4005414B9387018D9C236304F402EC
:1032B0003309540305046204A68561844E994A8645
:1032C000EFF0FFF563136401014426851374F40FD6
:1032D000CA84D1BF0146A685EFF07FF46FC0FFF628
:1032E000EFC29FF283C4118D4111E204E1840144D5
:1032F0009389812E130A4005C14B9387018D9C232E
:103300006389F404338944034E9905CC83478403CD
:1033100081E78347890395C7B3874403832A44021F
:10332000D685CE978857EFA0800F2AC60854D68539
:10333000EFA0E00E3246AA852285EFF05FBB230C9A
:1033400004028504E204E1846393740181444A84A5
:103350006DB70DCC44502685EFA0B058B7170100CB
:103360002A86AE8603A507EB83A547EBEF80606551
:10337000EFA0F0612AC60854A685EFA0400A3246A5
:10338000AA852285EFF0BFB6230C040241016FC06D
:103390003FEBEFC2FFE9EFF03FE2EFF03FEFEFF07E
:1033A0003FF46FC03FEB2388018CA388018CB717D3
:1033B00000209387872623A0070023A2070023A4C9
:1033C000070023A607009387812B1307000098C3EB
:1033D000D8C398C7D8C723A4E18C82809386118D67
:1033E0001387018D8C2210231376F60F630BB60022
:1033F0009C2293F7F70F14236385D7008507BD8BB5
:10340000DDBF8280EFC2DFDFBA8C3E8B9387018DF8
:103410009C2359711387018D8507E207E1873EC61A
:103420003ACA3247C147AE8BB28936896313F70077
:1034300002C69387118D9C233247631BF7002AC86D
:10344000EF508001EF10A05EEFE00F864245D5B748
:103450009384812D8C40084137040100138A812D0B
:10346000EFA0E03D8325046DEF90D044EF50D02EC7
:10347000EFA07022CC40AA8A03A50B00EFA0203C4D
:103480008325046DEF901043EF50102DEFA0B02076
:103490008C44AA8B03A50900EFA0603A8325046D34
:1034A000EF905041EF50502BEFA0F01ECC442A8CEF
:1034B00003250900EFA0A0388325046DEF90903F0D
:1034C000EF509029EFA0301DB717002013878726F3
:1034D000584722C83ED42A89938987266304E50A7F
:1034E00083C7018A138741968A07BA978C4303A53D
:1034F0008181EFA0A0236356A002370501001305C8
:10350000856A23A62901EF50C07037150100130505
:1035100085E6EF5000703715010013058500EF5068
:10352000406F83A7C900B307F94013D5F741A98FAE
:103530003385A740EFA0B021B717010083A5878985
:103540002A840325CA00EFA0802FAA85EF90903629
:10355000AA852285EFA0801D6356A00237050100D1
:103560001305856A23A62901EF50A06A37150100CB
:10357000130545E8EF50E069371501001305850094
:10358000EF502069D24713074005802383A5090027
:103590009387812E1374F40F3307E4029384812EF2
:1035A000BA97238807042380070263D5BA0005472A
:1035B0002380E70203A5490063DDAB001307400544
:1035C0003307E40226978347070293E72700230087
:1035D000F70283A68900635DDC001307400533070B
:1035E000E40226978347070293E747002300F70288
:1035F00003A7C900635DE900130640053306C40252
:1036000026968347060293E787002300F602B387D6
:10361000BA4013D6F7413348F6003308C840338622
:10362000AB409357F6413D8EB306DC401D8E93D7D9
:10363000F641BD8E3307E9409D8E9357F7413D8F8C
:103640001D8F83A7C18093084005B3081403330777
:10365000F70293074006A69823A0080123A2C800FA
:1036600023A4D800B347F702368723A6F80063D314
:10367000F6003E876347C7786346070163D5D700E6
:10368000B68711A0C287130740053307E4029546A9
:1036900026971CCB63FBF65C83A7818A7CC7834794
:1036A0000B00A300F7026388BA000146C145371535
:1036B0000140EF40301C93074005B307F402A69782
:1036C000DC4399C70146C14537150140EF40901AC8
:1036D00093074005B307F402A6979C4799C7014694
:1036E000C14537150140EF40F018130B4005330B6F
:1036F0006403269B8327CB00639C075603AB818E14
:10370000E6855A85EFA080026343A000668B03A57F
:1037100009003385AA40EFA0900383250A00EF90AB
:103720001050AAC82AD003A549003385AB40EFA0AA
:10373000100283254A00EF90904EAACA2A8D03A555
:1037400089003305AC40EFA0900083258A00EF90FC
:10375000104DAACCAA8C03A5C9003305A940EFA03F
:10376000007F8325CA00EF90904BAA8903A5C180F2
:10377000EFA0E07DAA854E85EFA0600CB717010091
:1037800083A58789EF90B04993074005B307F402FA
:10379000AACE15478256A69790436368C74ED0437A
:1037A0006365C74E90476362C74E0605058188DB97
:1037B00093074005B307F402370A010003258A6E18
:1037C000A69783AC0703E685EF907045DA85EFA0F6
:1037D0000007D2471387118D9C23182352D0AA8942
:1037E000998F93F7F70F13FBF7003ECC1307EBFF0E
:1037F000954763ECE706EFA0D00EB71701002A86C5
:10380000AE8603A507E583A547E5EF80801BB717C4
:10381000010003A687E383A6C7E3EF709027EF506C
:10382000A048EF9020552A8A03A5418E637FAA0203
:1038300033054541060533556503EFA0A07DC2471A
:1038400083A5076DEF901007EF5000712AD25285C3
:10385000EFA0407C9255EF90F005B7170100AA85C4
:1038600003A587E4EF90B03BAA89130A4005330A09
:103870004403CE856685EF90907CAA8D014D269AF3
:103880002322AA0203250A01EFA0C078CE852A8B45
:10389000EF90F07AEF50C056EFA0006682573707DE
:1038A0000080232EAA0203AA876E9347F7FF3717DB
:1038B00000203ED6930787252AD23ED89C0833871E
:1038C000A7010C434E85EF9090779C103387A7019A
:1038D000B25708C33377F500C257BA853ADEB386CC
:1038E000A7019442368536DCEF90B06C6350050238
:1038F000E25672573685BA85EF907032D2852ADC4F
:10390000EF90D0626344A00062573A8A110DC1471C
:10391000E316FDFA8257528583A5876EEF90706992
:10392000635405049309010603A50900D285910992
:10393000EF90F07023AEA9FE9C18E39737FF930930
:103940004005B3093403D2856E85EF90506FA69978
:1039500023A2A9021255EFA0E06BD285EF90306E42
:10396000EFA0805923AEA902130A4005330A44038D
:10397000E6855A85EF90B02AAA89269A832D0A00F7
:1039800063930D3483274A00639F073283278A009D
:10399000639B073283A5C18EEF90706AEF5040465B
:1039A000EFA080552324AA04130A4005330A4403D8
:1039B000269A03258A04EFA0E065CE852A8BEF9036
:1039C0001026232AAA025A85EFA0A071B71701007A
:1039D00003A687E583A6C7E5EF802070EF9000334C
:1039E000C247232EAA0003A5818D83A5076D138DE1
:1039F000818DEF90D064C2472A8A03A5C18D83A52B
:103A0000076DA65CEF90B06393951C008581AA8931
:103A1000EF90305A9387C18D3ED263590500D2850D
:103A20004E85EF90B0506343A0004E8AC24703A575
:103A3000418D83A5076D365BEF90706093151B0079
:103A40008581AA89EF90F0569387418D3ED66359C0
:103A50000500D2854E85EF90704D6343A0004E8ADD
:103A600093074005B307F402D285A69783A94702BE
:103A70004E85EF90B04B6343A0004E8AE247138718
:103A8000818CB98B3AC8D289638C071283290700CD
:103A90004E85EFA00065B717010003A607E683A6D1
:103AA00047E6EF80404D635CA0349387812B8C43C5
:103AB0000655EFA00002EFA0C0629387812B2AD8A1
:103AC0002EDA1655CC43EFA0C000EFA080612A8605
:103AD000AE86EF8080604258D2582ACC4286C68695
:103AE00042852ECEC685EF80405FF24762472A8628
:103AF000AE863A85BE85EF70C079EF50C067EFA003
:103B0000006993074005B307F402032D0D00AA8551
:103B10002AD86A85A697DC533ECCEF909049635C27
:103B2000052C42576A85BA85EF90700F2A8D9387CE
:103B3000812B8C476685EF90D0799257931C1500A6
:103B400093DC1C009C43E6853E853ED0EF9070469A
:103B5000635E05008257E6853E85EF90500CEA854E
:103B6000AA8CEF90B03C6343A000668D9387812BB5
:103B7000CC475A85EF90F075B257131B1500135BB5
:103B80001B0083AC0700DA856685EF909042635D89
:103B90000500DA856685EF909008EA852A8BEF901C
:103BA000F0386343A0005A8DE2456A85EF903049B2
:103BB0002A8BAA854E85EF90D03F63430500DA89B2
:103BC00093074005B307F402A697C85B23A6370303
:103BD000905BB717010083A5C7E4B70700803D8D50
:103BE000EFF00FD3CE852A8BEF9050346343A000C3
:103BF000DA89930740053304F4025A85A294C05031
:103C000023A43403A285EF9070321345F5FF854756
:103C10007D814146A38CA402238CF4028C10138571
:103C2000812BEFA0C074C247A285528580C3EF905C
:103C3000007F2AC8A2854E85EF90607E4246AA8505
:103C40002685EFF0CFAA52471C8641468C001CA364
:103C5000A257D6C0DEC213858726E2C4CAC6EFA02B
:103C60000071EFF00FF3EF00004465616FC00FDDEE
:103C70000146C14537150140EF40C03F8327CB00C7
:103C8000E38E07A603AB018EA5BCB6853685EF9003
:103C9000103BAA89EA856A85EF90703AAA854E851D
:103CA000EF904041AA89E6856685EF905039AA8554
:103CB0004E85EF902040EF50A05793074005B30783
:103CC000F402A697EDB4930C4005B30C940383A5BE
:103CD000C18C4E85EF90B036EF508012EFA0C0211E
:103CE00003AA812C138D812CA69C23A4AC04EFA0E5
:103CF00060322AD26E85EFA080259257AA853E8534
:103D0000EF90F033DA85EF908071AA8D5285EFA0A5
:103D10006030AA856E85EF9070216354A00023A4C3
:103D20004C05930C4005B30C9403032A4D00A69C4C
:103D300003A58C04EFA0002EAA8D03A54C00EFA0D4
:103D40000021AA856E85EF90902FDA85EF90206D87
:103D5000AA8D5285EFA0002CAA856E85EF90101DCC
:103D60006354A00023A44C05930C4005B30C9403AA
:103D7000032ACD00A69C03A58C04EFA0A029AA8D40
:103D800003A5CC00EFA0A01CAA856E85EF90302B78
:103D9000DA85EF90C068AA8D5285EFA0A027AA858A
:103DA0006E85EF90B0186354A00023A44C05930CCB
:103DB0004005B30C9403032A8D00A69C03A58C0434
:103DC000EFA040252A8D03A58C00EFA04018AA85FE
:103DD0006A85EF90D026DA85EF9060642A8B528551
:103DE000EFA04023AA855A85EF905014E35EA0BA55
:103DF00023A44C0555BE825703AD876E0DBBD289F7
:103E0000C1B3E3410689B2876FF0FF87EFC2AFC04D
:103E10009384812D08412E8A8C40411136C432C6CC
:103E200037090100EF90B0218325096DB7190020F3
:103E300013848926EF900028EF500012EFA0A00510
:103E4000CC4008C003250A00EF90701F8325096D40
:103E5000EF904026EF504010EFA0E00332468C4434
:103E600048C00842EF90B01D8325096DEF90802473
:103E7000EF50800EEFA02002A246CC4408C4884236
:103E8000EF90F01B8325096DEF90C022EF50C00C1E
:103E9000EFA0600048C49306C40013068400930595
:103EA000440013858926EF0050181307000023A44F
:103EB000E18C9387812B98C3D8C398C7D8C7410199
:103EC0006FC0AFB8EFC2CFB683A5012E084137143B
:103ED000002013048426EF909016B707010083A5F5
:103EE000076DEF90201DEF502007EF90D07A08C4A7
:103EF00013058400EF00F0156FC0CFB5EFC24FB3CC
:103F000083A5412E08413714002013048426EF9026
:103F10001013B707010083A5076DEF90A019EF50AC
:103F2000A003EF90507748C41305C400EF0030148D
:103F30006FC04FB223ACA1808280EFC2CFAD3719E2
:103F4000002001449389812C130989249384812DB5
:103F5000414AB30789008843B38A8900EFA0800BE8
:103F6000B38784008C431104EF90700DEF90D078EC
:103F700023A0AA00E31F44FD6FC02FAD83C6018DAF
:103F800083C7118D93F7F70F6388D70083C7118D0F
:103F90008507BD8BA388F18C8280EFC26FA99387C0
:103FA000618F9C2393F7F70F1389618F9384718F2F
:103FB0001384818F91EB9C2093F7F70F91E71C20DE
:103FC00093F7F70F6385070C370501001305856A22
:103FD000EF403044371501001305C5ECEF40704346
:103FE0008347090093F7F70F8DC7B717002003A584
:103FF0008728EF90D07583A5812DEF904042EFA0E8
:10400000400E2A8637150100AE861305C5EDEF4038
:1040100050409C2093F7F70F95C7B7170020938760
:104020008728C843EF90B07283A5C12DEF90203F41
:10403000EFA0200B2A8637150100AE86130545EE4A
:10404000EF40303D1C2093F7F70F95C7B7170020BE
:10405000938787288847EF90906F83A5012EEF9074
:10406000003CEFA000082A8637150100AE86130534
:10407000C5EEEF40103A3715010013058500EF40FB
:1040800050392300090023800400230004006FC07E
:104090006F9C238B018EA38B018E238C018E8280DB
:1040A000238EA1808280EFC2AF98854537050040FE
:1040B000EF10B04E6FC00F9A2967130707C493879C
:1040C000018F636DA7041567130707E2AA8563795B
:1040D000A7048981114737450F001305052433458F
:1040E000B50298A3930730064205418163E5A70412
:1040F000EFC20F94371501004111130585EB2EC651
:10410000EF403031B24537150100130585BEEF4051
:1041100050301305400641016FC0CF93BA8555BF9B
:104120000967130707716376A700935515000947C0
:104130005DB705474DB782807971854537050040E9
:1041400022D626D44AD24ED052CE56CC5ACA5EC8B7
:1041500062C666C46AC26EC0EF10D04763050544EC
:10416000854537050040EF10704883A741921384BE
:10417000419299EF83C6018D83C7118D93F7F70F95
:104180006399D72E9305007D37050040EF109043CB
:104190001C40638A074083C707022388F190858B00
:1041A0001389C1909389019193840182638D0732B1
:1041B00001469305000237150140EF30B06BFD5703
:1041C0009CA083C7C181A1CB37150140930500088E
:1041D000130505C0EF10606E83C6C18593874190BB
:1041E0003387A6403337E0006386A60294239DC23E
:1041F000144090426350C002371600208325862762
:10420000944A371600202324B6288545238BB18E87
:104210002320D90098A383C70900898B638F072CBB
:10422000371A014005469305000413050A80EF3054
:104230007064FD579CB083C7C181A1CB930500205A
:1042400013050AC0EF10606783C6D185938751902C
:104250003387A6403337E0006388A60294238DC6D7
:10426000104054426352D002B7160020938686272E
:10427000CC42B716002093868628CCC28545A38BF6
:10428000B18E144A2320D90098A383C70900918BCB
:1042900063810728371A0140014693050020130562
:1042A0000A80EF30305DFD57BCA083C7C181A1CB30
:1042B0009305004013050AC0EF10206083C6E18516
:1042C000938761903387A6403337E0006388A60266
:1042D00094238DC6104014466352D002B7160020B6
:1042E000938686278C46B7160020938686288CC630
:1042F0008545238CB18E144A2320D90098A383C707
:104300000900A18B638307223715014005468545C7
:1043100013050580EF301056FD57B7190140BCB0AA
:10432000014A938B09C0B71A00208387018F184078
:104330006357FA209387819194431843369798C323
:10434000635BE002054691455E85EF30B052144054
:10435000938781919843944A01469145158F98C35C
:104360009C2013878A271443E207E187B6975E856E
:104370001CC3EF30305018409387C1919443584389
:10438000369798C3635FE0020546930500081385DE
:104390000980EF30304E14409387C1919843944A7E
:1043A000014693050008158F98C39C3013878A2710
:1043B0005443E207E187B697138509805CC3EF3069
:1043C000704B18409387019294431847369798C3CF
:1043D000635DE0020546A16513850980EF309049D1
:1043E0001440938701929843944A0146A165158F22
:1043F00098C3BC2013878A271447E207E187B69742
:10440000138509801CC7EF30F0461840938741910F
:1044100094435847369798C3635DE0020546894543
:1044200013850980EF3010451440938741919843DC
:10443000944A01468945158F98C3BC3013878A2753
:104440005447E207E187B697138509805CC7EF30D0
:10445000704283270900184085072320F90083272D
:104460000900184B63FDE70C050A620A135A8A41DA
:104470006DBD03C7118D93074005B387E70237175A
:104480000020130787D0BA97CA3F05472388E7045F
:104490002388E7041CC023A00190EFF0FFC12399FB
:1044A000A18E0387018F2394E1901C4003D507045C
:1044B000239AA18EEFF05FC023AEA18EAA853705A7
:1044C0000040EF1030101C409C4B8583B307F04038
:1044D00023ACF19023AEF19023A0F19223AAF190A6
:1044E00023A6019075B105469305000237150140DA
:1044F000EF30503885479CA039BB37150140014645
:104500009305000413050580EF30D03685479CB035
:10451000ADBB371501400546930500201305058006
:10452000EF3050358547BCA0D9BB37150140014657
:10453000854513050580EF30F0338547F9BB1840FA
:1045400083270900544B63EFF606504F83A6C18FB3
:104550009384C18FB387C602B396C602E183505FCE
:10456000A206D58F3443B697C207C183239AF18E32
:104570001387418F6373F60012A30A23EFF0DFB3B2
:10458000AA89AA8537050040EF10D00388404E95D0
:1045900088C0184083270900184B63E6E7002320F2
:1045A0000400EFF0BF9D3254A25412598259724A4E
:1045B000E24A524BC24B324CA24C124D824D4561E5
:1045C0007300203083270900144F63F2F604544F20
:1045D00083A701907843938401903385D702B397E2
:1045E000D7026181A2075D8D9317050103D5418F25
:1045F000C183637BF500131507014181E370E5F882
:104600001315070141819DBF1D8D4205FDB783D55F
:10461000218F37050040EF10E07A83D78190138710
:10462000018F1CA3BDB7EFB2BFC001112A8485451D
:104630000545EF10A04F930730024C0837050040A6
:104640003ECAE084231D0100EF10806A05468545BF
:1046500037050040EF10E0759307C0127C86854750
:104660005C87680085473EC8EF10802705616FB002
:104670007FBEEFB2FFBB9305000237150140371430
:104680000140EF3070221305048093050004EF30E1
:10469000B0211305048093050020EF30F0201305AE
:1046A00004808545EF305020C14537150140EF307B
:1046B000B01F0546C14537150140EF30B01BC1455D
:1046C00037150140EF30501E0546C14537150140F2
:1046D000EF30501AC14537150140EF30F01C054648
:1046E000C14537150140EF30F018C145371501407D
:1046F000EF30901B0546C14537150140EF3090174C
:10470000130504C093050008EF30901C05461305FF
:1047100004C093050008EF30F015130504C093059D
:104720000020EF30F01A0546130504C09305002061
:10473000EF305014130504C093050040EF305019BA
:104740000546130504C093050040EF30B012130571
:1047500004C09145EF305015130504C00146914542
:10476000EF3050110546C14537150140EF3090102C
:104770001305048093050008EF301013130504801F
:10478000014693050008EF30F00E0546C145371588
:104790000140EF30300E13050480A165EF30D010DA
:1047A000130504800146A165EF30D00C0546C145D4
:1047B00037150140EF30100C130504808945EF30A8
:1047C000B00E1305048001468945EF30B00A054656
:1047D000C14537150140EF30F00913054006EFF0F1
:1047E0009FE4854537050040EF10205B0547238E89
:1047F000E180996793878708739007806FB09FA5C2
:10480000EFB21FA303C7018D83C7118D93F7F70F75
:104810006395E70083A7419299C7EF30F043012CDD
:10482000EFC09FC8C5B76FB0FFA2196773100780AC
:104830000841B71700209387872788C38C41130747
:104840008708CCC3104290C79442D4C77310078026
:1048500082809967739007801441371700201307EF
:10486000872714C79387870873900780828099678A
:10487000739007801441371700201307872754C708
:104880009387870873900780828099677390078069
:104890001317250037150020130585273A95084181
:1048A00093878708739007808280EFB27F98EFF03C
:1048B0003FF50546C14537150140EF30A07B054661
:1048C000C14537150140EF30E07A0546C14537153F
:1048D0000140EF30207A0546C14537150140EF30E1
:1048E00060796FB03F97EFB2BF94814537050040C4
:1048F000EF10A04A03C7018D83C7118D93F7F70FFF
:10490000639BE70085453705004023A20192EF1025
:10491000C0486FB03F94EFF06FE6E9BFEFB25F9130
:1049200083A5C182B717010003A5071BEF80302FB5
:1049300023AEA1926FB01F926355050003C581930A
:10494000828093874195AA9788238280EFB2BF8C9B
:1049500041112A849DC537050100130585712EC6B6
:10496000EF40202BB24537150100130585C8EF40F5
:10497000402A37150100130585F3EF408029EFC069
:104980003FAC45679306471B85471307471B7D468A
:1049900083994600635E34059386F7FF8A068A078B
:1049A000BA96BA97839426000395270003990600C8
:1049B000058DEF90C0592A8A33052441EF90205984
:1049C000AA855285EF80B0672A8433852941EF900C
:1049D0000058AA852285EF8090242A842685EF90AE
:1049E0000057AA852285EF80E06C41016FB0FF85FA
:1049F00085079106E39EC7F813050000FDB7EFB2E7
:104A00003F8303A501978145EFF05FF423A2A196B0
:104A10001307000023A4E19699677390078023820F
:104A2000019493878708739007806FB0BF8283C714
:104A3000419493F7F70F638C071AEFB2EFFCEFF096
:104A40001FFC83A4419603A94197138481954A854D
:104A5000EF90E04FA685EF90C007B717010083A540
:104A6000878CAA89EF80904C6352A00685471CA0D2
:104A7000B717010003A4071B03A5019513894195EE
:104A8000EF90E04CA685EF80D0526359051403A542
:104A90008183EF90C04BA685EF8050496350A014EE
:104AA0002285EF90403F05852300A90093878194DC
:104AB000984383A60199998E0567130777BB6375A1
:104AC000D70003A7019998C36FB08FF7B7170100FC
:104AD00083A5870D4E85EF80D04D63440500631795
:104AE000090085471CA01304000079B71C20138916
:104AF000019399C7930700002320F90023000400C5
:104B000083A501834E85EF809053832509002A8A6F
:104B10004E85EF80205A03A40194AA89A285EF80D4
:104B20005049634B050003A4C1934E85A285EF80D5
:104B3000F03F6343A0004E8483A5C18223208900F7
:104B40002285EF80D04F1384C1920C40AA8A26851B
:104B5000EF80307883A581821389C194EF80304E35
:104B6000EF902058B717010003A6070E83A6470E43
:104B7000EF70A0562A8B03250900AE8BEF9060568C
:104B8000B717010003A6870E83A6C70EEF70E05487
:104B90002A86AE865A85DE85EF60A06FEF90205F93
:104BA000AA892320A90004C0D6855285EF808050B1
:104BB000CE85EF801072930500002A84EF80703F4D
:104BC000E34305F2B717010003A9071B2285CA8535
:104BD000EF80D035E352A0EA4A8479BD3715010051
:104BE0001305050F23000900EF40A002C1B5828024
:104BF000EFB20FE41307000023A0E19483A5C18264
:104C0000B717010003A5071BEF80700123AEA19227
:104C1000914537150140EF30204901468945371548
:104C20000140EF30C045EF30E054595723A8E194DC
:104C3000B717010003A9870D1384418308408145FC
:104C4000EFF0DFD0CA85EF80D036635605001C40F8
:104C5000C1171CC0D5B71307A00F23ACE182B7174B
:104C6000010003A9C71A1384419308408145EFF05E
:104C7000FFCDCA85EF80902B6356A0001C40C10772
:104C80001CC0D5B72D45EF30A0306FB0AFDC8280AF
:104C9000EFB20FDA23AA019623AC019601469145A3
:104CA00037150140238A0194EF30C03C6FB08FDA92
:104CB000EFB20FD5397183AA019932CA854763DBF8
:104CC000B70037150100130505F7EF309074216127
:104CD0006FB0CFD62A8C371501001305C5F9AE8405
:104CE000EF303073EFF0DFFA63DA0414130700F8E3
:104CF000238CE192930B0008B717010003AB87F5F3
:104D0000930700003EC6BE89B717010003A8C7EA93
:104D100083A787EA5E8442CE3ECCB717010003A882
:104D200047F683A707F65E8A42D23ED0B717010046
:104D300003A8C7E383A787E356C442D63ED4B71778
:104D4000010003A8C7F683A787F6D68D02C8854C55
:104D500002C23ED842DA03CD4194137DFD0F6300B9
:104D60000D28EFF0DFC963C4040E93972400138766
:104D70004196BA9783A907003245CE85EF80101B74
:104D80006343A0004EC6CE855A85EF8090226343D0
:104D900005004E8B63810C04E2854E85EF8010196F
:104DA000635FA022A24703A701991D8F85679387A0
:104DB000873863F6E722B3078A40858793F7F70FB2
:104DC00063DA0408238CF19283AA0199A24762C690
:104DD000B387FA403EC8E2854E85EF80901D814C36
:104DE000635F051E03A7019985679387873833079B
:104DF0005741814C63F5E71E83A701993EC4924752
:104E00006351F01CA2474247B3875741B38CE70078
:104E1000B307F74033848702CD4733449403529459
:104E200063D0871E63DD042A9307C00E63C987021F
:104E30009307F00F228A63C88B020DA893874195D0
:104E4000A6971307F00798A3930BF00775B583A9EE
:104E500081961DB71387419526971CA3B5B71304F8
:104E6000C00E9307F00F228A338487403715010064
:104E7000D285130505FBEF30D05937150100A28507
:104E8000130505FCEF30F0585A85EF9080252A86EF
:104E900037150100AE861305C5FCEF30905732453B
:104EA000EF9020242A8637150100AE86130585FD74
:104EB000EF3030561247894763D5E7106685EF908B
:104EC0000009B707010083A5C76CEF804055AA8C85
:104ED0002285EF70F06F6246F246EF7000202ADC08
:104EE00032452EDEDA85EF80D03EEF90801F0256ED
:104EF0009256EF70801E2256B256EF70001E625717
:104F0000F2572A86AE863A85BE85EF60902BEF90E9
:104F10000028EF90001D2A862ADC37150100AE8696
:104F2000130545FE2EDEEF30D04E6685EF90601BF8
:104F30002A8637150100AE86130505FFEF30704D48
:104F40006257F2574256D2563A85BE85EF70E01846
:104F5000EF90E0232A8B371501001305C5FFEF30D2
:104F6000504B5A85EF90E0172A8637150100AE8620
:104F70001305C500EF30F049DA855A85EF808013BC
:104F8000E685EF80C049EF90C0152A8637150100ED
:104F9000AE8613058501EF30D047DA856685EF8050
:104FA000100AB717010083A5C7F5EF805009EF90ED
:104FB00040132A8637150100AE8613054502EF30EF
:104FC0005045B3078A00858793F7F70F63DD040226
:104FD000238CF1929247628BEA8C85073EC2B71709
:104FE000010083A5C78C6285EF80C00CCE85EF8061
:104FF000407C635F05003715010013050503F1B11F
:10500000514A5144A5B51387419526971CA3D9B79A
:1050100083A701991307007DB387B7416372F70631
:1050200037050100B71D010063D004081305057D95
:1050300003CD8193EF30F03D1385CDFBEF3030424F
:10504000371501001305C505EF30B03C4E85EF90D4
:1050500040092A8637150100AE86130585AAEF3070
:10506000503B3715010013050592EF30903A371584
:105070000100EA85130585BEEF30B03983AD019993
:1050800083A7019903A70199BA972247B38757418C
:10509000998F37571200130707F86379F70237150E
:1050A00001001305450615B193874195A697130591
:1050B000057D03CD0700EF30D0351385CDFBEF30F4
:1050C000103A371501001305C590BDBF92475247EE
:1050D000E353F7C83715010013054508FDB69307DC
:1050E000B00E63D787001304B00E9307E00FA5BB83
:1050F0009307E00F81B3EFB2AF932A84EFF05FB96B
:10510000EFC0CFC505E53705010013058571EF3008
:10511000503037150100A285130585C8EF30702F78
:10512000371501001305C510EF30B02EEFC08FBF4B
:105130006FB04F92EFB2CF8F2A84EFF07FB5EFC000
:10514000EFC105E53705010013058571EF30702CBF
:1051500037150100A285130585C8EF30902B371550
:1051600001001305C513EF30D02AEFC0AFBB6FB0FD
:105170006F8EEFB2EF8BEFC06FBE09ED3705010008
:1051800013058571EF30F028371501001305C5169A
:10519000EF303028EFC00FB96FB0CF8B411122C66E
:1051A0003704004085451305044026C44AC2EF0079
:1051B000704263000512130504408545EF0010435B
:1051C00083C7C1831384C18393849195C1E783C747
:1051D00041959CA095EB0146914537150140EF2084
:1051E00070691C201D4785071CA083C7B195938457
:1051F000A1951384B1956361F71245678A07130778
:1052000047EFBA979C438287054691453715014081
:10521000EF2050660146914537150140EF2090651B
:105220000546914537150140EF20D06437290140EC
:105230000146854513050980EF20D0630546854565
:1052400013050980EF201063014685451305098089
:10525000EF20506298201C20E3E5E7F8ADBF8547BA
:105260001CA09820BD4763FCE702138741941023DC
:10527000938641941376F60F1387C1959387019611
:1052800019E60C4323A8B1968C4323A6B196054694
:1052900090A2238004002320070023A0070083A6F8
:1052A000019903A68199918E1306007D6373D60838
:1052B00083C6819293F6F60FADEE37050100130514
:1052C000057DEF301015371501001305C5FBEF30D4
:1052D00010193244A244124941017300203037258D
:1052E00001401305054031239387C19598430985F3
:1052F0002A9798C38947ADB78D479DB791478DB71A
:105300009547B9BF9947A9BF9D4799BF9C202300E6
:10531000040085079CA0B1B737050100130585710E
:10532000EF30300F37150100130545F1EF30700EE7
:105330000DBF03A7019983A78199B307F74013070E
:10534000007DE378F7F883C7819293F7F70FD1D305
:1053500023840192BDBFEFA2BFEDEF809058B71735
:10536000010003A607F383A647F3EF601057EF8011
:1053700010626FA03FEEEFA2BFEBEF809056B71721
:10538000010003A607F383A647F3EF608063EF8075
:1053900010606FA03FECEFA2BFE9EF809054B71709
:1053A000010003A607F383A647F3EF608061EF8057
:1053B000105E6FA03FEAEFA2BFE7EF809052B717F1
:1053C000010003A607F383A647F3EF601051EF80B7
:1053D000105C6FA03FE873002030EF20C052AA8518
:1053E0003715010013050523EF30B002EF200052FE
:1053F000AA853715010013050524EF309001EF2031
:105400002050AA853715010013050525EF307000DF
:1054100001A0B71702409843B706FFF84111136780
:10542000170098C3D84337060200758FD8C3984336
:10543000B706F7FEFD16758F98C39843B706FCFFB5
:10544000FD16758F98C3D843B70681FFFD16758F7B
:10545000D8C39843B70600ECFD16758F98C337077D
:10546000FF0098C723A6070202C402C69843C1667C
:10547000558F98C3B716024005679C42F18F3EC610
:10548000A24785073EC4B24781E7A247E397E7FEFC
:10549000B71702409C431397E700635707068547F9
:1054A0003EC632478547631FF704B7170240D8430B
:1054B000B706C1FFFD16D8C3D843D8C3D843136776
:1054C0000740D8C3D843758FD8C3D843B7061D004B
:1054D000558FD8C39843B7060001558F98C398439A
:1054E00093166700E3DD06FED843B7160240719BB2
:1054F000D8C3D84313672700D8C32147DC42B18BF8
:10550000E39EE7FE4101828002C661BF01A001A0C7
:1055100001A001A001A001A001A001A001A001A083
:1055200001A001A001A001A001A001A001A001A073
:1055300001A001A001A001A001A001A001A001A063
:1055400001A001A001A001A001A001A001A001A053
:1055500001A001A001A001A001A001A001A001A043
:1055600001A001A001A001A001A001A001A001A033
:1055700001A001A001A001A001A001A001A001A023
:1055800001A001A001A001A001A001A001A001A013
:1055900001A001A001A001A001A001A001A001A003
:1055A00001A001A001A001A001A001A001A001A0F3
:1055B00001A001A001A001A001A001A001A001A0E3
:1055C00001A001A001A001A001A097B1FF1F93813C
:1055D000614517B100201301E1A217D500001305A2
:1055E00025C397B5FF1F9385E5A11386818663FACE
:1055F000C5008322050023A0550011059105E3EAAB
:10560000C5FE1385818697C5FF1F9385A5F1637736
:10561000B500232005001105E36DB5FEFD42739032
:1056200002BCAD4273904280B76200009382820850
:1056300073A0023097B2FFFF938242A093E2320040
:1056400073905230EFF0FFDC97D2FFFF938202F5A8
:105650007390123473002030EFA29FBDB727014032
:1056600093870740631CF500854513050020F12949
:10567000814513050020D1296FA0DFBDB737014058
:1056800093870780E31AF5FE8545130500407529C9
:10569000814513050040C5B75C413707F1E01307AA
:1056A000F7EF944D7D8F9C41D58FD44DD58FD4414C
:1056B000A206D58FD98F5CC11C4537F7F1FF1307C0
:1056C000D77FD4457D8F9C49D58F94458606D58F4D
:1056D000D98F1CC55C55370710FF7D177D8FDC29DE
:1056E000FD1793F7F70FD207D98F5CD582801C4541
:1056F00089C593E717001CC58280F99BEDBF1C4547
:1057000093E787001CC5828008450D81058982804A
:105710001C4593E747001CC582800845098105891F
:1057200082801C4591C537075000D98F1CC58280E7
:105730003707B0FF7D17F98FD5BFA54763F7B704CB
:105740008D47138765FF3307F7020328C5009D4780
:10575000B397E70093C7F7FFB3F70701B396E600E7
:10576000DD8E54C5994763E3C70495477D1633061C
:10577000F6025859FD47B397C70093C7F7FFF98F53
:105780003396C5005D8E50D982800D473387E50280
:10579000032805019D47B397E70093C7F7FFB3F7C9
:1057A0000701B396E600DD8E14C96DBFB14763E211
:1057B000C702954765163306F6021859FD47B39799
:1057C000C70093C7F7FFF98F3396C5005D8E10D9D8
:1057D000828095474D163306F6025855FD47B3971C
:1057E000C70093C7F7FFF98FB395C500DD8D4CD582
:1057F000828068454205418182809C4513F70701FC
:1058000013F8F70001C7D8413368E8008E2113F779
:10581000F50F39C318418146854E3D4F930F8002E5
:1058200093028004214E3396DE00B3F8C500631165
:1058300016039398260033131F011343F3FF3377A6
:10584000E300B318180133E7E800639FF70550C978
:105850008506E39AC6FD18C11307F00F6375B704F8
:1058600054412146854E3D4F930F800293028004A0
:10587000414EB398CE0033F715016392E802131737
:10588000260001173313EF001343F3FFB376D30061
:105890003317E800D98E639DF701232A1501050609
:1058A000E319C6FD54C18280E39457FA10C94DB77D
:1058B000E39757FE23281501DDB708456D8D333575
:1058C000A00082800CC982804CC98280AD673737C6
:1058D00000409387A7AA1CC3828023AEA196828032
:1058E0009387C1979443182181E63C21920721A810
:1058F00094430546639FC6023C211031920763140E
:10590000D60093E707F8B7E600E093F7F70FBA96EB
:105910002380F6408546935757003397E60054415D
:10592000A5C2938707048A07B7E600E0B69798C335
:1059300082808C4389466391D50214313C21636592
:10594000D6008A06B6975DB79386E6038A06B697B1
:1059500093F7F70F920775B790438D46631CD600F7
:1059600014313C216364D6008606E9BF9386C607DE
:105970008606F1BF94439147E39EF6F81C31BDB70C
:10598000938707064DB7B7160240DC4251777D1763
:10599000F98F5D8DC8C28280371702405C43914603
:1059A000B18B6385D700A1466382D706B7177A000B
:1059B000938707201CC1371602405C42370700203E
:1059C000130707049183BD8BBA9794231C41B3D767
:1059D000D7005CC15442A1829D8ABA969422B3D664
:1059E000D70014C55442AD829D8A36971823B3D789
:1059F000E7005CC5584239839376370013874184AA
:105A000036971823B3D7E7021CC982805C435843FA
:105A1000C166C983758FB7F6FF1F83A6C670BD8B9D
:105A200089071396160163480600C546014663922E
:105A3000D702C94739A88946638FD702BD46638E0E
:105A4000D702C146638ED702C54601466393D7008D
:105A5000C1471DEF3747024003270780418B05C729
:105A600037177A0013070720B307F7021CC121D6A6
:105A70001C41858381B701466DBF0546B547D1BF3F
:105A80000146BD47F9B737173D0013070790E9BF37
:105A9000B7150240D8559316F700D85563DF0604B2
:105AA00011833D8B9306170037177A0013070720E1
:105AB0003357D70218C1D455A182BD8A8DE29546CD
:105AC0003307D702058318C13717024058571441CE
:105AD0003D8B050733D7E60218C1184171B78545DC
