:100000006F708067130000001300000013000000F1
:100010001300000013000000130000001300000094
:100020001300000013000000130000001300000084
:08003000130000007300100032
:100038000000000000000000CA730000CE7300003A
:1000480000000000BE750000000000000000000075
:10005800C0750000C275000000000000000000002C
:10006800ACA1000000000000C67500000000000000
:10007800D2A40000CA750000CC750000CE7500003F
:10008800D0750000D2750000D4750000D675000048
:10009800D8750000DA750000DC750000DE75000018
:1000A800E0750000E2750000E4750000E6750000E8
:1000B800E8750000EA750000EC750000EE750000B8
:1000C800F0750000F2750000F4750000F675000088
:1000D800F8750000FA750000FC750000FE75000058
:1000E800766100009071000004760000067600003A
:1000F800087600000A7600000C7600000E760000F4
:10010800107600001276000006A3000016760000A4
:10011800187600001A7600001C7600001E76000093
:100128002076000022760000247600002676000063
:10013800287600002A7600002C7600002E76000033
:10014800CE290000327600003476000036760000B2
:10015800387600003A7600003C7600003E760000D3
:1001680040760000427600004476000046760000A3
:10017800487600004A7600004C7600004E76000073
:100188005076000052760000547600005676000043
:10019800587600005A7600005C7600005E76000013
:1001A80060760000627600006476000066760000E3
:1001B800687600006A7600006C7600006E760000B3
:1001C8007076000072760000747600007676000083
:1001D8000000000000000000000000000000000017
:1001E8000000000000000000000000000000000007
:0801F8000000000000000000FF
:10020000397101436EC619A0397141536AC866CA73
:1002100062CC5ECE19A0397101535AD056D252D455
:100220004ED64AD826DA22DC06DE330161408282CD
:1002300041114AC026C222C406C68282B24D410183
:10024000024D924C224CB24B4101024B924A224A3F
:10025000B2494101024992442244B24041018280A4
:100260003D432A876373C3029377F700BDEFADE583
:10027000937606FF3D8ABA960CC34CC30CC74CC795
:100280004107E36BD7FE11E28280B306C3408A06C2
:100290009702000096966780A6002307B700A30682
:1002A000B7002306B700A305B7002305B700A304D2
:1002B000B7002304B700A303B7002303B700A302CA
:1002C000B7002302B700A301B7002301B700A300C2
:1002D000B7002300B700828093F5F50F9396850051
:1002E000D58D93960501D58D61B79396270097021A
:1002F000000096968682E78086FA9680C1171D8F49
:100300003E96E374C3F8A5B70100010001000100A7
:10031000010001000100014582803307C5009307F9
:10032000001063C7E702EFF21FEF3289AE89AA849B
:10033000014493170401C18363FE270133878900B9
:10034000A6970C231395070141817D3F0504D5B77E
:10035000014582800545D5BD010001000100010075
:10036000010001000100010001000100014582803F
:10037000EFF21FEC4111AA840144931704012EC629
:10038000C18332C463FEC700338584001375F50F43
:10039000E137B2452246B387850088A30504F1BF43
:1003A0000545410145BDEFF21FE72A89AE8432843D
:1003B0009309F00F373A0100B73A01007D14137426
:1003C000F40F630B34038C2003550900353F0345BC
:1003D000090059379C20638AA70013054ABBEFE048
:1003E00090711385CABBEFE0107183270900850463
:1003F00085072320F900D9B789BDEFF27FE32E9658
:100400004111AA841374F60F88202EC6B137B24565
:1004100088A19C40850585079CC093F7F50FE315DF
:10042000F4FE410105BDEFF2BFE07971CD651384A3
:1004300085B74146938585B70A85EFE0B0604146B0
:10044000930504010808EFE0F05F414693050402BC
:100450000810EFE0305FB716002037170020814703
:10046000138681329386862B1307872AC14533086A
:10047000F100032808003385C70000082320050188
:100480003308F400032808003385D7000010232028
:1004900005013308F400032808003385E7009107BD
:1004A00023200501E395B7FCEF50102DB73701006D
:1004B00083A787BD1306000023A2F19223A2F19423
:1004C000373701000327C7BDB736010023ACE192DF
:1004D0009567938707E223AEF19223A0C194B737C3
:1004E000010083A707BE83A646BE23A8F19223AAD4
:1004F000D19223A6F192138701B810C750C33737A2
:100500000100032787BE23A0C1B823AAE182B73721
:10051000010003A5C7BEEF60506323A8A182B737CF
:10052000010003A507BFEF60506623A6A182EF601C
:10053000E03F37370100032747BF37350100130578
:1005400045BB23A4E182EFE0105B373501001305C2
:1005500085BFEFE0505A4561F5B9EFF27FCA938548
:100560004125131425009388C50013888500138A3C
:100570004500C6864286338B8500AA899307000012
:10058000D285138541252320FB00EF50100CB707BF
:10059000002093878702A2978843938B4181EFE0E5
:1005A000B021B737010003A6071583A64715CE9BD8
:1005B000EFC030472A8C03850B00AE8C9384412614
:1005C000EFD090152A86AE866285E685B70C0020AE
:1005D000EFC03045938C8C01EFE0D0283389840044
:1005E000A29C373E01002320A90003A50C0083250F
:1005F000CE149389818023A0A900EFD0B04F13833C
:10060000C400138D840091042A879A866A86A68581
:10061000138541269387818BEF40B06293070000DA
:100620002320F900EF60401E930700002320FB0009
:10063000938801261388C125D285370A0020C686F3
:10064000428613854125130ACA00EF501000229AF2
:10065000832D0A0003850B00B7070080B3CDFD0092
:10066000EFE0407CAA856E85EFE0C00A373E0100CE
:100670008325CE142320A90003A50900930D0000B3
:10068000EFD05047138301272A879A866A8693877B
:10069000818BA68513854126EF40B05A2320B901EE
:1006A000EF60801683250A002E85EFD0100E2A8A6F
:1006B00003850B00EE8BEFE0E076AA855285EFE034
:1006C0006005B737010083A5C7BD2320A90003A596
:1006D0000C00EFE02004373E01008325CE1423A058
:1006E000A900EFD03041138301272A879A866A86B2
:1006F0009387818BA68513854126EF409054232054
:10070000B901EF606010938701B8A29703AA0700B0
:100710009387C1B8A2978C435285EFD01007938777
:1007200081B9A297AA8A2320AB008843D2859384FB
:100730004127EFD09005A29488C0B7070020B704E6
:1007400000209387070093844403A2943E940840BA
:10075000D285EFD0900388C02320590123A0B9018E
:10076000EF501017E1BCEFF2BFAC2E84AA853735ED
:1007700001001305C5FCEFE010382285EFE0D0033F
:100780002A8637350100AE86130505FDEFE0B03649
:10079000D1B4EFF2FFA941112EC4AA85373501006B
:1007A000B2861305C5FC36C6EFE0F0342246B246E9
:1007B00037350100130505FDEFE0F033410159BC69
:1007C000EFF21FA72E84AA85373501001305C5FC5B
:1007D000EFE0703237350100A285130505FDEFE02B
:1007E00090318DBCEFF23FA39384418A98408D47AE
:1007F00063C5E7061384018B1C4013090006B30789
:10080000F902938901A0AA853385F900EFE0F04B46
:1008100037350100130545BBEFE0F02D37350100FA
:10082000130545DAEFE0302D0C4037350100130594
:10083000C5FCB305B902CE95EFE0F02B37350100CA
:10084000130505DBEFE0302B1C4011478507B3E7AC
:10085000E7021CC09C4085079CC0C5BAEFF25F9DB3
:100860005137CDBAEFF2DF9C373501001305051380
:10087000EFE07028996773900780B707EFBE37E7FE
:1008800000E0938707083CC76FF0DF9CEFF25F9AA8
:10089000EF60104737140140130504808565EF9021
:1008A000D00B0546130504808565EF90D007F165F0
:1008B000938505201385819EEF90B02F3725014049
:1008C000854513050580EF905009EF90A019373545
:1008D000010013058506EFE01022373501001305EE
:1008E0000508EFE05021B7340100138544BBEFE069
:1008F00090203735010013054509EFE0D01F37354B
:1009000001001305450AEFE0101F373501001305FC
:10091000C50BEFE0501E373501001305850CEFE0E5
:10092000901D373501001305850EEFE0D01C3735DB
:1009300001001305450FEFE0101C138544BBEFE0E9
:10094000901B3735010013050510EFE0D01A37353D
:100950000100814513050511EFE0F019373501005D
:1009600013054511EFE030193735010093050054A8
:100970001305C512EFE0301823A4018A6D34EF602F
:100980008026EF403026EF50704FEF901005014663
:10099000856513050480EF9000796FF0BF8B0147E8
:1009A000930600063306E500030606009317870149
:1009B000E1876314B6069305F00525461397870172
:1009C000618763CFE504B306F5009422850793861B
:1009D00006FD93F6F60FE363D6FE8147A548294846
:1009E0009305F005B306E50003860600930606FDB1
:1009F00093F6F60F63E1D802B387070305079376F2
:100A0000F70F139786016187938707FDB297C20797
:100A1000C183E3F9D5FC3E8582800507E314D7F84E
:100A20008147D5BFEFF2DF80830715001307C004AD
:100A3000AA846388E700130700056380E7046FF06A
:100A40007F81B7350100938585DBEFE0302A19C53A
:100A50009305A0032685A1372395A18CB735010006
:100A6000938585DC2685EFE0702871D99305A00376
:100A7000268535372394A18CD9B7B73501009385E6
:100A800005DDEFE0B02645DD930530072685013F03
:100A90001384C18C0AA01E209305A0032685C207DB
:100AA000C18381CFED3D9307C0033305F5021A20C2
:100AB0003A95420541810AA059B7D535EDBFEFF20D
:100AC0002FF703A7C18A930700063387E70283A79E
:100AD0008189138501A08145B306E500958F8507BF
:100AE000BA973E95EFF0606FEFE0C0576FF08FF66A
:100AF000EFF20FF403A7C18A930700063387E702DA
:100B000083A78189138501A029468145B306E500A5
:100B1000958F8507BA973E95EFF090016FF08FF3B0
:100B2000EFF20FF103A7C18A93070006AA85B387E6
:100B3000E702138501A03E95EFE0B01723ACA18832
:100B40003335A0006FF00FF1EFF28FEED13F6FF071
:100B50006FF0EFF26FEB9389818083A7090023AADE
:100B6000F18893870181984323A8E18C13074006FD
:100B700098C303A7419E9387418C98C3EF50D048F8
:100B80000545EF50C05513874125144393874126EF
:100B900094C3544313058005B7040020D4C31447FD
:100BA0005847938B418994C7D8C79307000023A067
:100BB000F900BD379389418C138B8180938A018D15
:100BC000138A018113844125938404236311050C46
:100BD00013059005B137631C050A1305A005893775
:100BE0006317050A85479CA00145EFF01F979C20DD
:100BF0006386070A0545EFF05F969C2089E7130599
:100C0000A005393F01C50945EFF03F951305800563
:100C1000013F11C9F13D01C95D35AA8503A501B8A0
:100C2000EFD0A03608C013059005DD3D11C9C935C8
:100C300001C97135AA8503A541B8EFD0003548C078
:100C40001305A005F13D11C9653501C98D3DAA8582
:100C500003A581B8EFD0603308C49306C40013061F
:100C600084009305440013854125EF50001E83A79F
:100C70000B002320FB0083A70A002320FA0083A790
:100C8000419E23A0F900EF50A0446FF06FDB1305E5
:100C90008005238004006935E31805F413059005E9
:100CA0004135E31905F4A1BFEFF28FD81385819E7A
:100CB000EF9010013735010013054503EFE0A06305
:100CC00083A5418837350100130505048505EFE04C
:100CD00080626FF02FD8EFF2AFD27571371A002013
:100CE0009387818A130A4A4F138401A03EC6832743
:100CF0000A0803274A08998F93F7F707B1C703A794
:100D0000418A8D47938C418A63C0E7041385819E95
:100D1000EF908078931585013735010093848188A1
:100D2000E1851305C5C18CA0EFE0E05C838604007B
:100D3000A947138791889384C1886397F6029440EA
:100D4000A9EAA384018831A8130600068145081882
:100D5000EFF00FD1938741BA9C33138D41BA639F53
:100D6000072649616FF08FCDB547E38AF6FC9307FC
:100D7000A0036394F6001C23F9D390409307E00589
:100D8000E3CFC7FA9307B003639AF62285471CA303
:100D9000B9BF938D018B83A70D001306000618239E
:100DA000B38AC7021389018BB3095401CE962380FD
:100DB00006006312071C32479305E0044E85BA977C
:100DC00023800700EFE0E06E630A051A23ACA188D8
:100DD0003305354105055695294681452295EFF0A5
:100DE0002055938B418883A70B00138D418B2320C3
:100DF000AD008507138B8189938A418B9389418844
:100E0000630EF50403A50D0013060006B7350100B7
:100E10003305A6029385C5C22295EFE0206D1DED36
:100E200037350100130545C3EFE0E04C37350100CD
:100E30001305C5C3EFE0204C83A50B003734010038
:100E4000130504C7EFE0204B83250D00130504C7ED
:100E5000EFE0604A913D23A0040021B7032509007B
:100E6000930B00069305A002B30B7503B30D740139
:100E70006E85EFE000643DC18147014DEE861306AB
:100E8000A0023387F600030707006308C700850741
:100E9000E207E187334DA701EDB72320AB0033050F
:100EA000B54105055E9581452295EFF00033EFC011
:100EB000707A6308A50537350100130545C3EFE0D7
:100EC000804337350100130545C7EFE0C042373591
:100ED000010083A50900130505049DBF37350100F6
:100EE000130545C3EFE0204137350100130545C91F
:100EF000EFE060403735010083A50900130505C701
:100F000081BF83A70A0023A0F900832909001305E4
:100F1000000693057004B3093503B30A34015685FE
:100F2000EFE0205905CD23ACA188330555410505D7
:100F30004E9581452295EFF0402AEFC0B0718D4764
:100F400063EEA70083C70188ADE783C741BA99E77D
:100F5000373501001305C5CEEFE0E03983270900DE
:100F600011478507B3E7E7022320F90083A70C00A8
:100F7000850723A0FC0023A0040095BB9305A002D5
:100F80004E85EFE0005351D137350100130545C3BD
:100F9000EFE0603637350100130505CCEFE0A035F2
:100FA00083A5418837350100130505C7EFE0A0345C
:100FB0005DB537350100130505CF79BF1C23E398D4
:100FC00007D283A7018B1307160098C013070006EA
:100FD000B387E702A297B29794A311BB83A7C188F6
:100FE0001384C188E39F07D6814C138901A093899C
:100FF000818A03274D2683270D26E304F7D603A70E
:10100000418A8D47138C418AE3CDE7D413058D25A2
:10101000EF8030152384A188A947938D91886304BC
:10102000F502B5476301F5029307A0036315F500C8
:1010300083C70D0089CB18409307E00563C5E7001F
:10104000FD576319F50E03270D2683274D266311DF
:10105000F70837350100130585D6EFE0C02937358D
:1010600001001305C5D7EFE0002983A7419E930631
:10107000C00323ACF18C03A6418D3D67130707A67F
:10108000918F33D7E70237F63600130606E8B735F7
:101090000100938505D90808B376D70233D6C70275
:1010A000EFE0E03A37350100130545BBEFE0A0243F
:1010B000373501000C0813050511EFE0C023138537
:1010C00041BAEF30F0308545138541BAEF30301921
:1010D00083C70D0099CF0818EFF0DF9481471307FD
:1010E00000061418BE96238006008507E39BE7FEE2
:1010F000814C1040E30706C49386018B9C42130782
:10110000000623800D003387E702232004004A975E
:1011100032972300070005463387F90010A3032701
:101120000C00850705072320EC001147B3E7E70211
:101130009CC2C1B59307B0036310F50285472380B5
:10114000FD00180993871C00BA9C2380ACFA939C7D
:10115000870193DC8C4171BD83C70D00FDF383A72C
:10116000018B9306170014C093060006B387D702BD
:10117000CA97BA9788A3374700401375F50F83576E
:10118000074093F70708E5DF420541812312A74096
:101190008DB503A7419E23A2E18C03A7C18A938743
:1011A000818ABA979C2399EBEFF28F88373501003B
:1011B0001305C5CEEFE020146FF0CF898280EFF2E7
:1011C000AF84938441251384412601499389018783
:1011D000138AC18B914AB387290103850700EFF079
:1011E0003F9429CDEFF0BF8DB3072A01AA8B882346
:1011F00011E59387E18C88231375F50FEFD09042AA
:101200008C40EFD02051DE85EFC0305808C0050972
:1012100091041104E31159FD13056004EFF05F9090
:1012200001CDEFF0DF89930500002A84EFD0603D07
:101230006354A00023A481806FF08F809C401CC069
:10124000F9B7EFE2FFFEA53F13059004EFF05F8DC5
:101250001384419F11CDEFF09F8608C01305A004B1
:10126000EFF01F8C11C9EFF09F8548C06FE09FFE23
:10127000930700001CC0DDB7930700005CC0FDB7FA
:10128000EFE21FFB03A941272A840841CA85938402
:101290004127EFD0603F635405002320240103A9B8
:1012A00044004840CA85EFD0203E63540500232205
:1012B000240184440844A685EFD0003D6353050013
:1012C00004C4B704002003A94403084093844403E2
:1012D000CA85EFD000336354A0002320240103A962
:1012E00044004840CA85EFD0C0316354A000232297
:1012F000240184440844A685EFD0A0306353A000A5
:1013000004C46FE03FF5EFE2BFEF138541268D3F48
:1013100003A7419E9384412603A541258C4023A227
:10132000E18C83AA8180EFD00028CA8C13844125E8
:10133000373A0100938DC126138D812631E1CC40CF
:101340004840EFD040260DED8325CA145685EFC0E6
:10135000707A2A879387818B938601271386C1260B
:101360009385812613854126EF40A00D9C401CC02B
:10137000DC405CC09C441CC4DC445CC46FE01FECDB
:1013800003A50181EFD0102AD685EFD0A0388325A0
:10139000CA14EFC03076B737010083A547DBEFC032
:1013A00070752A879387818B938601276E86EA85DD
:1013B0001385412655BFEFE21FE61384419F2A891A
:1013C000484001111379F90FEFD0103F2ACC0840A3
:1013D0002ECEEFD0703E6246F246EF904053EFD0F3
:1013E00070482ACC03A50181EFD0D02383A581804A
:1013F000EFD04032B737010083A5C714EFC0906F1C
:10140000B737010083A547DBEFC0D06E83C7818B60
:10141000E248938441263EC24AC02A88894705474C
:1014200081461386419F9385412613854125138468
:101430004125EF30C07C9C401CC0DC405CC09C441B
:101440001CC4DC445CC403A7419E23A2E18C05615B
:101450006FE0BFDFEFE2DFDD996773900780EF5049
:1014600030040546C14537150140EF80D04B054695
:10147000C14537150140EF80104B0546C145371572
:101480000140EF80504A0546C14537150140EF80C5
:10149000904937350100130545BBEFD0D06537358E
:1014A000010013058504EFD01065373501001305E1
:1014B0008567EFD05064EFF0EFBA01A0EFE25FD79D
:1014C0001386418C83A6419E0C4203A6C1898D8E52
:1014D0009387418C6374D60011C2AD3F83A64180CF
:1014E000A1CA03A7419E9C43B307F74063F2F604E9
:1014F00003C7819283C7919293F7F70F639AE7022C
:101500000546C14537150140EF80F0410546C1450C
:1015100037150140EF8030410546C1453715014080
:10152000EF8070400546C14537150140EF80B03F60
:10153000EF30B06E6FE01FD2EFE29FCFEF504076FA
:101540009387018898231DE3054798A303A7418843
:1015500037350100130545BB23A0E18AEFD0B05910
:1015600037350100130505CFEFD0F0586FE09FCE5F
:1015700003C501888280EFE2BFCB83C7818BAA8439
:10158000130540052388F188EFF08FD909E501495B
:101590004A856FE03FCC2A89EFF06FD2EFD030035D
:1015A000138401891375F50F08A075D13735010033
:1015B000130545BBEFD03054930790066384F404C1
:1015C00063CE9700930780066387F4020C203735BB
:1015D000010013050511EFD010525DBF9307D0062F
:1015E0006387F4029307A00DE392F4FE3735010000
:1015F0001305C50129A037350100130545FDEFD0BE
:10160000904FE9B7373501001305C5FECDBF37351B
:10161000010013054500E5B7EFE29FBE5D711305BC
:101620007004EFF0EFCF63060516EFF04FC9EFD06F
:10163000E07391476303F50C63CCA7008947630E01
:10164000F50863C5A70A63500508EFF09FB459A0D9
:101650009307A0056303F51063C8A700F147E316DD
:10166000F5FEEFF00FCFD5B79307B005630AF50E7F
:101670009307C005E31BF5FC13055004EFF04FCAB8
:1016800019E1EF5060181384412581449389018743
:1016900013890126138A01B8930A8400B38799003D
:1016A00003850700EFF0CFC711C98D47639EF40A89
:1016B000EFF0EFC048C44A85EF40300885049147F9
:1016C000E39EF4FC59B783C7018881EBEFF03FAF8D
:1016D000EFF07FC361616FE07FB683C7018899E750
:1016E000EFF03FB60545EFF01FCDEDB783C701889A
:1016F00089E7EFF01FB50145FDB713050005EFF0D1
:101700002FC2014411C5EFF08FBBEFD0406C2A848B
:1017100013053005EFF0CFC001CDEFF04FBAB7376A
:10172000010083A587BDEFC0F07EEFD0406A2A8418
:10173000EF50800D03A7419E83A6419EBE843A943C
:1017400023A2D18C83A7419EE3F187F0EF80505B09
:10175000EF50002FEFF09FD6F5B72387018CF5B53A
:1017600005472387E18CD5B5EFF06FB5939724003B
:10177000330BF400D297AA858843EFC010012320D1
:10178000AB00CA865686930544002285EF40E06B85
:1017900035B71305D004EFF0AFB819E16F00F0666C
:1017A000EFF0EFB1EFD0805C9307A006E30FF510E8
:1017B00063C5A724F1476303F57A63C2A70AD94733
:1017C0006304F57063CEA704C947E303F51663CE3F
:1017D000A702C547E31BF5E60146C14537150140A1
:1017E000EF8070140146C14537150140EF80B013FA
:1017F0000146C14537150140EF80F0120146C14551
:1018000037150140EF80301289B5D147630CF56878
:10181000D547E31CF5E2138541BAEF30400635B5F4
:10182000E5476306F57063C1A702DD476304F56A07
:10183000E147E31CF5E0138541BAEF30C00803A788
:10184000419E23AAE18C11B5E9476308F56EED4787
:10185000E31DF5DE138541BAEF306015FDB3930744
:101860003005E302F50C63C8A708FD47630DF57862
:1018700063C8A706F547630CF572F947E317F5DC73
:10188000938741BABC23E38207DC138541BAEF306A
:10189000A01F03A581899305A00293848189110566
:1018A000EFD030412A8915C503A5C18A93070006E8
:1018B0009305E004B387A702138501A03E95EFD0FE
:1018C000503F93050002EFD0D03E050588C0A30F1E
:1018D00009FE8C40138541BA9105EF30600BB5B31A
:1018E00093071005E30DF50293072005E31FF5D4D8
:1018F000A38F018A99BB9307C005E30AF50E63CB5A
:10190000A70293074005E305F50293075005E31E80
:10191000F5D213053005EFF0AFA0EFF04F9AB737CF
:10192000010083A587BDEFC0F05EEFD0404A23AE33
:10193000A18821BB930780066303F56E9307900689
:10194000E315F5D013059006EFF0FFC2E31F05CEB7
:10195000373501001305C5E2EFD0F0191384018972
:101960001C201387819B8A07BA978843B7340100EC
:10197000EFD080642A86AE86138544E3EFD0B0179B
:10198000373501001305C5E3EFD0F0161C2013878F
:10199000819C8A07BA978843EFD0C048EFD0C061D6
:1019A0002A86AE86138544E3EFD0F0143735010064
:1019B000130505E4EFD030140820EF40F078AA8535
:1019C00037350100130545E4EFD0F012373501003B
:1019D000130585E4EFD030127D55EF40F076AA85EF
:1019E0003735010013050511EFD0F0103735010030
:1019F00013058567EFD03010F1B99307C00CE304ED
:101A0000F52A63C2A72493077007E30EF51863CA8B
:101A1000A71C93072007E302F50863C0A71A9307E2
:101A2000B006630AF56E9307D006E310F5C21305FE
:101A3000D006EFF05FB4E31A05C013053005EFF0F0
:101A40002F8E93840189138A819C09C9EFF02F8717
:101A50008020EFD0A0310A04529408C0EF50202417
:101A600003C904000A09B3072A01884383AA419ED7
:101A7000B73B0100EFD0003B9387819B3E998327C2
:101A80000900AA8C7D593EC4B737010003AC47DE7C
:101A90009389819B373D0100E28D83A7419E130707
:101AA000803EB3875741637CF708B7370100138541
:101AB00007E5EFD050049C208A07CE978843EFD0EB
:101AC000A04FB73701002A86AE86138547E5EFD0D1
:101AD0009002B73701001385C7E5EFD0D0018C2005
:101AE00013854BE4EFD0300113050DE6EFD0B000C5
:101AF00003A5819CEFD00033EFD04027AA85138542
:101B00004BE4EFD0407F37350100130545E6EFD0B9
:101B1000807EFD57630DF95483A7419E89659385A7
:101B200005719D8DCA951307803EB3D5E502373503
:101B3000010013050504EFD0007C83AA419EEF80CD
:101B4000301CEF40F06FEFF07F971385C18DEF20D1
:101B50007031FD576313F954A2456685EFC0702AB2
:101B60009C208A073EC63307FA006359A0500843F9
:101B7000EFD0402BEE85EFC03063B247CE978C4359
:101B8000EFC09030E34BA0F003A9419EFD57E30660
:101B9000F9F0634B090003A7419E89679387F770AB
:101BA00033072741E3FBE7EE03A7419E23AAE18C1D
:101BB00003A7419E23A2E18C49BC9307300763062B
:101BC000F56C93075007E312F5A803A581899305E7
:101BD000A0021505EFD0F00DE30905A6A30F05FE41
:101BE000ADB49307C0086306F54663CDA70093071D
:101BF00080076305F57A93079007E318F5A4054578
:101C00006F00E0799307900CE300F5069307B00CA2
:101C10000144E31CF5A237190020938401871309BE
:101C2000892B9149B387840003850700EFE05FEFBC
:101C300019C5EFE0DFE893172400CA9788C30504AD
:101C4000E31234FF19B49307E012E30EF51263CBED
:101C5000A7149307C00DE30AF50E63C2A704930708
:101C6000D00CE308F5069307E00C0144E31FF59C54
:101C700093840187138901B88D49B3878400038554
:101C80000700EFE0FFE919C5EFE07FE393172400B9
:101C9000CA9788C30504E31234FF6FF01F9B9307B4
:101CA000D00DE303F50C9307D012E310F59A13055A
:101CB0000005EFE0FFE609C5EFE07FE023AAA1827F
:101CC00013059004EFE0DFE519C5EFE05FDFEF50AB
:101CD000C06723A8A18213054004EFE07FE419C583
:101CE000EFE0FFDDEF50606A23A6A1821305300408
:101CF000EFE01FE309C5EFE09FDC23A4A182EF40E2
:101D0000F042373501001305C5CEEFD0C05E373540
:101D10000100130585F7EFD0005E03A5418337343A
:101D20000100EFD060292A86AE86130504FDEFD0AE
:101D3000805C373501001305C5F7EFD0C05B03A504
:101D40000183EF508062EFD020272A86AE861305EC
:101D500004FDEFD0405A37350100130505F8EFD0E8
:101D6000805903A5C182EF504064EFD0E0242A8659
:101D7000AE86130504FDEFD000583735010013057A
:101D800045F8EFD0405703A58182EFD0E0222A86A4
:101D9000AE86130504FDEFD000563735010013055C
:101DA000856739AA93070019E30DF50463CCA70CE6
:101DB0009307F0126308F57E93070013E317F58885
:101DC00013050005EFE0DFD509C5EFE05FCF23A6DF
:101DD000A18413059004EFE0BFD419C5EFE03FCE16
:101DE000EF50A05623A4A18413054004EFE05FD375
:101DF00019C5EFE0DFCCEF50405923A2A184EF409A
:101E0000F032373501001305C5CEEFD0C04E37355F
:101E10000100130585F7EFD0004E03A5C1843734C8
:101E20000100EFD060192A86AE86130584F8EFD042
:101E3000804C373501001305C5F7EFD0C04B03A523
:101E40008184EF508052EFD020172A86AE8613058A
:101E500084F8EFD0404A37350100130505F8EFD07C
:101E6000804903A54184EF504054EFD0E0142A8606
:101E7000AE86130584F8EFD000482945EFD0C04B5B
:101E80006FF0AFFC9307003A6307F5129307703EBB
:101E9000631DF5FA2380018803A7018A23A2E18844
:101EA000EFF04FDB37350100130545E0EFD0A044DC
:101EB000138541BAEF20D01937350100130545E1EC
:101EC000EFD060436FF06FF8138541BAEF20101F19
:101ED0006FF0AFF79389C18A03A4090013090006C4
:101EE00033048902938401A0B7350100938545E24C
:101EF00033858400EFD0805F630905F493054400C7
:101F0000A6950808EFD0605C0C080546138541BA19
:101F1000EF20301F83A50900B305B902A695373518
:101F200001001305C5FCEFD0003D6FF00FF21385E3
:101F300041BAEF20F0196FF04FF1138441BA3C2001
:101F4000638507F013053005EFE09FBD630F05EED5
:101F5000EFE01FBA2322A4266FF02FEF03A581899B
:101F60009305A002138481891105EFD08054AA84BF
:101F700015C503A5C18A930700069305E004B3873E
:101F8000A702138501A03E95EFD0A0529305000251
:101F9000EFD02052050508C0A38F04FE0C40014677
:101FA0009105138541BAEF20D0156FF00FEA238217
:101FB00001BA6FF08FE903A581899305A00213840C
:101FC00081891505EFD0E04EAA8415C503A5C18A05
:101FD000930700069305E004B387A702138501A0C9
:101FE0003E95EFD0004D93050002EFD0804C0505E3
:101FF00008C0A38F04FE0C40138541BA9505EF205D
:1020000010186FF08FE403A7419E373501001305C8
:1020100045BB23ACE18CEFD0002E0C0809B71305AB
:102020008006EFF04FD5631205E213053005EFE0AF
:102030003FAF01CDEFE0BFA803C401899387819C26
:102040000A043E94EFC0905208C0EF4050456FF034
:10205000CFDF13053005EFE0BFAC630805DEEFE02E
:102060001FA6EFC0B05023A6A19C6FF00FDE37353E
:102070000100130585E6EFD00028C1B40843EFC086
:10208000705AE285EFB07070B247CE978C43EFC0C4
:102090004057E35B05AE6FF05FA09C208A07338753
:1020A000F900D29788433AC6EFC0D0573247AA8585
:1020B0000843EFC0700FEFC0704B9357F5413D8D53
:1020C0001D8DA947E3D9A7ACC1B413053005EFE0D6
:1020D0003FA51384018C9307F00F1DC9EFE03F9ECD
:1020E00093050000EFC0405A814763430502EFE0CB
:1020F0001F9DB737010083A587DEEFC0805093078F
:10210000F00F6347A000EFE09F9BEFC03046AA8727
:102110001CC06FF08FD323A0018C6FF00FD3EFE0C2
:102120006FF46FF08FD20547A38FE18A6FF0EFD184
:1021300013053005EFE0DF9E19CDEFE05F98B7376C
:10214000010083A587BDEFC0E05CEFC0504823A22B
:10215000A1806FF08FCF13058005EFE07F9C29CD24
:10216000EF40806A13058005EFE09F9B19C5054687
:10217000C14537150140EF70107B13059005EFE066
:102180003F9A19C50546C14537150140EF70B07932
:102190001305A005EFE0DF9819C50546C1453715C1
:1021A0000140EF70507813055004EFE07F97630E05
:1021B00005C805466FF0AFE413059005EFE05F96A4
:1021C00045F11305A005EFE0BF9559F9130550043B
:1021D000EFE01F9551F5EF4020630546C1453715E7
:1021E0000140EF705074EF40406D6FF00FC6B7378D
:1021F000010003ACC7DEB71A00200144138B01872E
:1022000093848132938A8A2BB3078B00038507005E
:10221000EFE01F9131CD8D476312F406EFE03F8A66
:10222000E2852A8AEFC0404663520504C844D2853D
:10223000EFC0400CAA89AA8503A5C19213898131F8
:10224000EFC0404D23A6A19203A5CA00CE85EFC0E2
:10225000604C23A6AA000325C900EFC01049CE8513
:10226000EFC0404BEFC0B0362326A90023A644019F
:1022700005049147E31AF4F86FF02FBDEFE03F84B7
:1022800093172400A69788C3E5B7373501001305D7
:1022900005E7EFD0001B6FF04FBB3735010013058A
:1022A000C5F0EFD04005138441250840B734010044
:1022B000EFC090502A86AE86138504FDEFD0A003B0
:1022C00037350100130505F1EFD0E0024840EFC0BB
:1022D000B04E2A86AE86138504FDEFD0C001373597
:1022E0000100130545F1EFD000010844EFC0D04CC8
:1022F0002A86AE86138504FDEFC0F07F37350100D6
:10230000130585F1EFC0307F4844EFC0F04A2A86BC
:1023100037350100AE861305C5F1EFC0D07D3735E6
:102320000100130545F2EFC0107D0145EF40E05676
:10233000EFC0502F83A5813213848132EFB0907BA0
:10234000EFC090472A86AE86138504FDEFC0B07AB1
:102350000545EF408054EFC0F02C4C40EFB0907931
:10236000EFC090452A8637350100AE86130505F388
:10237000EFC070780945EF404052EFC0B02A0C44DE
:10238000EFB05077EFC050432A8637350100AE8654
:10239000130585F3EFC030766FF02FAB0145EF30BA
:1023A00010546FF08FAA37350100130545F4EFC0C4
:1023B000907437350100130505F6EFC0D07337155B
:1023C000014093050008130505C0EF50005B8547E9
:1023D000631DF506B73501009385C5DF373401006D
:1023E00013050411EFC0307137350100130585F670
:1023F000EFC070703715014093050020130505C02C
:10240000EF50A05785476317F504B7350100938552
:10241000C5DF13050411EFC0106E37350100130539
:1024200005F7EFC0506D37150140930500401305C7
:1024300005C0EF50805485476313F502B73501009E
:102440009385C5DF13050411F9BCB73501009385E9
:1024500005DF69B7B7350100938505DF5DBFB73587
:102460000100938505DFF9BF3719002001449384EB
:1024700001871309892A114AB3878400038507005D
:10248000EFE00FEA11C9EFE08FE393192400CA9936
:10249000EFC0F01323A0A9000504E31F44FDEF30B3
:1024A000B02D6FF08F9A13053005EFE06FE709C587
:1024B000EFE0EFE023A2A19213054005EFE04FE625
:1024C00019E16FF08F98EFE08FDF23A2A1946FF0F6
:1024D000CF9713053005EFE0AFE409C5EFE02FDE3D
:1024E00023ACA19213054005EFE08FE309C5EFE0AF
:1024F0000FDD23A0A19413052004EFE06FE219C5BE
:10250000EFE0EFDBEFC0B00C23AEA1921305800526
:10251000EFE00FE109C5EFE08FDA23A8A1921305E0
:10252000A005EFE0EFDF09C5EFE06FD923AAA19284
:1025300013055004EFE0CFDE19E16FF00F91EFE0EB
:102540000FD823A6A1926FF04F9013053005EFE04E
:102550002FDD19E16FF06F8FEFE06FD6EFC0100144
:1025600023A8A1806FF06F8E13053005EFE04FDBDD
:1025700019E16FF08F8DEFE08FD4EFC0207F23A69D
:10258000A1806FF08F8C13053005EFE06FD99307B2
:10259000000001C5EFE0AFD2AA873E85EF30701D85
:1025A0006FF0AF8A13055004EFE08FD7814429C53F
:1025B000EFE0EFD0EFC0807BAA84635F0502B737FE
:1025C000010003A407DE13053005EFE06FD501C558
:1025D000EFE0EFCE2A8413053004EFE06FD4154608
:1025E00011C5EFE0CFCDEFC060782A86A6852285A1
:1025F000EF40006D6FF06F85B737010003A4C7DDB2
:10260000D9B7EF4060206FF04F8413054005EFE02D
:102610002FD1B734010051C1EFE06FCAEFC0207B6A
:102620001375F50F1384018908A015C5138544BBE4
:10263000EFC0704C13054005EFC010500C2037352B
:102640000100130545E3EFC0104B373501001305BA
:1026500005F96FF0FF8613056004EFE06FCC01CD44
:10266000EFE0EFC5930500002A84EFB09079635442
:10267000A00023A48180138544BBEFC0D047373529
:102680000100130545FAEFC010473735010083C537
:10269000818B1305452F6FF01F89138544BBEFC055
:1026A000904537350100130585FBEFC0D04483A565
:1026B000C18A9307000637350100B387B7029385B7
:1026C00001A01305C5FCBE95EFC0F04237350100EF
:1026D000130505DB6FF0CFFEEFD21FB3EFE00F9BCA
:1026E000094B138401A0130C000683A7418A1389A8
:1026F000418A6344FB00EFE00FDE8145138541BA58
:10270000EF20E0358327090085CB9384C18A8C4074
:10271000138541BAB305BC02A295EF200039EFE062
:10272000BFEF832709001147FD172320F9009C40C4
:102730008507B3E7E7029CC0EF408030EFE01FD889
:10274000EF3090091385C18DEF10D07179BFEFD2B2
:102750003FAE138541BAEF1050776FD0BFAF93876C
:10276000012803A5070883A747081D8D1375F507E2
:10277000828037570040835707C093F70708E5DF8B
:10278000420541812312A7C08280EFD27FAAAA848A
:102790000144B38784000385070009C90504137544
:1027A000F50F6204EFF0FFFC6184E5B76FD09FAADC
:1027B000EFD21FA82A84130540072E89EFF07FFB74
:1027C000A5471305040363DF8700A944334594023A
:1027D000130505031375F50FEFF0BFF93365940288
:1027E000130505031375F50FEFF0BFF8373501003A
:1027F0001305C526EFF07FF913052002EFF07FF7F0
:102800004A85EFF09FF813052002EFF09FF61305BD
:10281000F00FEFF01FF61305F00FEFF09FF5130523
:10282000F00FEFF01FF56FD0FFA269C5896793879E
:102830000771B347F502294741119546B3E7E7020F
:10284000938707035C849307803EB347F502B3E7A1
:10285000E70293870703DC8493074006B347F5023A
:10286000B3E7E702938707035C85B347E502336567
:10287000E502B3E7E70213050503488601471305A0
:10288000000393870703DC85130881003A98030847
:1028900008009377F70F6316A8000507E316D7FE25
:1028A000954795460147B388F6400145635A17019D
:1028B000080813881700AA97038587FF9377F80FF6
:1028C000130881003A982300A8000507E31FD7FCEE
:1028D000814715453400BE968386060013F7F70F2F
:1028E00091C694A18507E397A7FE154718A2014555
:1028F0004101828001458280EFD29F93AA842E8479
:10290000EFB030506358A000A2852685EFC0C00903
:102910006FD05F94A6852285D5BFEFD27F91797164
:102920002E8441458545EF506029854537050800CF
:10293000EF50A02A93070040FC82E1473ECE4C08AE
:102940008D47371501403ECCEF4030778567938740
:102950000780FC824C089147371501403ECEEF407E
:10296000D07522D037540040B7070C000C10130567
:1029700004C03ED402D223160102EF50C052130508
:1029800004C093055052EF50E067130504C093054F
:102990006062EF502067054693055052130504C04E
:1029A000EF50805D0145EF40507F930740045C8607
:1029B00085475C87680085473EC8EF40707E854547
:1029C000130504C0EF50E05945616FD0BF88EFD2C6
:1029D0003F863754004093055052130504C0EF5012
:1029E000A05E39C19387012883A60708035644C017
:1029F00083A547081387160042061377F703418221
:102A00006306B700BE9690A223A0E70883A7419E65
:102A1000375500409387470693055052130505C06C
:102A200023ACF190EF50005E375400409305606294
:102A3000130504C0EF50405919C593056062130592
:102A400004C0EF50205C6FD0FF80138701288327DC
:102A50004708832607087D55638AF600B306F7000A
:102A60008822850793F7F7032322F708828093864D
:102A7000012883A7060883A64608138701289387A1
:102A80000708958F93060008B3E7D7020145B3877F
:102A9000F6406359F602814763D5C70283260708CB
:102AA0003385F5000348050085073305D700850603
:102AB00093F6F603E207230005012320D708E187F8
:102AC000E1BF05458280EFD2AFF62A843735010099
:102AD00041111305052932C42EC6EFF01FCB37551F
:102AE000010013058585EFF05FCAB2452E85EFF032
:102AF000DFC91305F00FEFF0DFC71305F00FEFF09C
:102B00005FC71305F00FEFF0DFC6224612A04101A8
:102B10006FD04FF4EFD2CFF1373501001305852880
:102B2000EFF0BFC61305F00FEFF0BFC41305F00FB1
:102B3000EFF03FC41305F00FEFF0BFC36FD08FF17C
:102B4000EFD20FEF37350100130505242E84EFF087
:102B5000DFC31305E006EFF0DFC1A547130504034B
:102B600063DF8700A94433459402130505031375F9
:102B7000F50FEFF01FC033659402130505031375BD
:102B8000F50FEFF01FBF3735010013058524EFF077
:102B9000DFBF1305F00FEFF0DFBD1305F00FEFF00F
:102BA0005FBD1305F00FEFF0DFBC6FD0AFEAEFD2DF
:102BB0002FE83735010041111305852932C42EC68F
:102BC000EFF0BFBC3755010013058585EFF0FFBB63
:102BD000B2452E85EFF07FBB1305F00FEFF07FB904
:102BE0001305F00FEFF0FFB81305F00FEFF07FB80B
:102BF000224642064182239EC19041016FD08FE55B
:102C0000EFD20FE33735010041111305851532C4AA
:102C10002EC6EFF09FB73755010013058585EFF0FD
:102C2000DFB6B2452E85EFF05FB6373501001305EC
:102C3000C515EFF09FB5224615C6373501001305BF
:102C400085F0EFF09FB41305F00FEFF09FB213057E
:102C5000F00FEFF01FB21305F00FEFF09FB141013D
:102C60006FD04FDF3735010013050509D9BFEFD20B
:102C70002FDC3735010013050526AE843284EFF0D2
:102C8000DFB0A5471385040363DF9700294933C5E7
:102C90002403130505031375F50FEFF09FAD33E51E
:102CA0002403130505031375F50FEFF09FAC3735BB
:102CB000010013054526EFF05FADA547130504039A
:102CC00063DF8700A9443345940213050503137598
:102CD000F50FEFF01FAA3365940213050503137572
:102CE000F50FEFF01FA91305F00FEFF09FA81305E4
:102CF000F00FEFF01FA81305F00FEFF09FA76FD0B4
:102D00006FD5EFD2EFD2A94713074006B346F602BC
:102D10004111130500033347E602B3E6F6023367B9
:102D2000F7029386060393F6F60FD4863366F6020F
:102D3000130707031377F70F588681471306060317
:102D40001376F60F50876319A70085476396E60050
:102D500089476313D6008D478D4601473388F64077
:102D60000146635B0701100813851700B2970386BD
:102D7000C7FF93178501E18768003A9510A1050701
:102D8000E310D7FE9307400663C2B7061305E006BB
:102D90002E84EFF01F9EA5471305040363DF870011
:102DA000A94433459402130505031375F50FEFF09D
:102DB0005F9C33659402130505031375F50FEFF05F
:102DC0005F9B3735010013058525EFF01F9C6800D8
:102DD000EFF0BF9B1305F00FEFF0BF991305F00F55
:102DE000EFF03F991305F00FEFF0BF9841016FD05E
:102DF0006FC6EFD2EFC34111930700033EC4230611
:102E000001002E843DE213058006EFF09F96A54752
:102E10001305040363DF8700A944334594021305B7
:102E200005031375F50FEFF0DF9433659402130576
:102E300005031375F50FEFF0DF9337350100130528
:102E40008525EFF09F942800EFF03F941305F00FD5
:102E5000EFF03F921305F00FEFF0BF911305F00F65
:102E6000EFF03F9141016FD0EFBE89679387077103
:102E7000B347F60229479546B3E7E702938707036E
:102E80005C849307803EB347F602B3E7E70293877B
:102E90000703DC8493074006B347F602B3E7E70273
:102EA000938707035C85B347E6023366E602B3E720
:102EB000E7021306060350860147130600039387B3
:102EC0000703DC852C00BA95838505009377F70FFF
:102ED0006396C5000507E317D7FE9547954601475A
:102EE0003385F6400146635AA70010089385170002
:102EF000B297038687FF93F7F50F2C00BA9590A140
:102F00000507E311D7FE01B7EFD28FB213054007D3
:102F10002E843289EFF0FF85A5471305040363DF94
:102F20008700A94433459402130505031375F50F73
:102F3000EFF03F8433659402130505031375F50F15
:102F4000EFF03F83373501001305C526EFF0FF830F
:102F500013052002EFF0FF814A85EFF01F83130570
:102F60002002EFF01F811305F00FEFF09F80130593
:102F7000F00FEFF01F801305F00FEFF08FFF6FD011
:102F80006FADEFD2EFAA2E85B285EFF07F826FD0C2
:102F90006FACEFD2EFA9A9473355F60213074006ED
:102FA0004111130800033357E6023375F502130786
:102FB00007031377F70F5886B377F6021305050357
:102FC000C88693860703548781476319070185479D
:102FD0006316E50089476393A6008D478D46014738
:102FE000B388F6400145635B170108081388170092
:102FF000AA970385C7FF93178801E187600033080C
:10300000E4002300A8000507E31ED7FC9307400651
:1030100063E5C7041305A0062E84EFF08FF5A547DE
:1030200063E08704130504031375F50FEFF06FF4E5
:103030003735010013058525EFF02FF56800EFF017
:10304000CFF41305F00FEFF0CFF21305F00FEFF010
:103050004FF21305F00FEFF0CFF141016FD08F9FCA
:10306000A94433559402130505031375F50FEFF0CA
:103070004FF033759402130505034DBFEFD24F9BFC
:103080004111930700033EC4230601002E843DEA4C
:1030900013054007EFF0EFEDA5471305040363DFC9
:1030A0008700A94433459402130505031375F50FF2
:1030B000EFF02FEC33659402130505031375F50F3C
:1030C000EFF02FEB373501001305C526EFF0EFEBDE
:1030D00013052002EFF0EFE92800EFF00FEB1305E6
:1030E0002002EFF00FE91305F00FEFF08FE8130562
:1030F000F00FEFF00FE81305F00FEFF08FE741014D
:103100006FD04F95896793870771B357F6022947A8
:103110009546938707035C849307803EB357F60276
:10312000B3F7E70293870703DC8493074006B3579E
:10313000F602B3F7E702938707035C85B357E6020D
:103140003376E602B3F7E70213060603508601471B
:103150001306000393870703DC852C00BA9583854B
:1031600005009377F70F6396C5000507E317D7FEB1
:103170009547954601473385F6400146635AA700B7
:10318000100893851700B297038687FF93F7F50F12
:103190002C00BA9590A10507E311D7FED5BDEFD25B
:1031A0008F8741112E84CD653289938585BA254656
:1031B0004800EFC020094A85EFB01060B737010022
:1031C00003A6872783A6C7272A8AAE8AEF90107A9C
:1031D000634B051EB737010003A6072883A64728BF
:1031E0005285D685EF90B06D634FA01C930500000B
:1031F0004A85EFB06049814463570500B7070080F6
:1032000033C927018544B737010083A547DB4A85C9
:10321000EFB04050EFB0B03B6302051E3797980007
:10322000130707683357E502A947130600039546BD
:103230003377F70213070703588237470F00130746
:1032400007243357E5023377F70213070703D882C1
:1032500061671307076A3357E5023377F7021307ED
:10326000070358830967130707713357E50233775C
:10327000F70213070703D8831307803E3357E5028D
:103280003377F702130707035884130740063357B1
:10329000E5023377F70213070703D8843357F502A3
:1032A0003375F5023377F7021305050348861307D4
:1032B0000703D88501474C00BA95838505009377AD
:1032C000F70F6396C5000507E317D7FE9547254618
:1032D000A9460147B305F6409D8E1305D0026387CA
:1032E00004106315070E48820507E31AC7FE13058D
:1032F0004007EFF00FC8A5471305040363DF8700FD
:10330000A94433459402130505031375F50FEFF037
:103310004FC633659402130505031375F50FEFF0DF
:103320004FC5B73401001385C426EFF00FC613054F
:103330002002EFF00FC44800EFF02FC51305200264
:10334000EFF02FC31305F00FEFF0AFC21305F00F2E
:10335000EFF02FC21305F00FEFF0AFC113054007D8
:10336000EFF02FC1A5471305040363DF8700294948
:1033700033452403130505031375F50FEFF06FBFF5
:1033800033652403130505031375F50FEFF06FBEC6
:103390001385C426EFF06FBF13052002EFF06FBD59
:1033A0004800EFF08FBE13052002EFF08FBC13052D
:1033B000F00FEFF00FBC1305F00FEFF08FBB13050C
:1033C000F00FEFF00FBB41016FC03FE86352D7022F
:1033D0009308010113881700C697838847FF5C0094
:1033E000BA97238017019377F80FFDBDE342B7FE2C
:1033F000130841003A9823000800FDB59307E00246
:10340000DC82A30301002314010023050100C5B5DC
:10341000EFC21FE241112E8532C6EFF08FB537356E
:10342000010013050516EFF04FB632463285EFF076
:10343000CFB51305F00FEFF0CFB31305F00FEFF09A
:103440004FB31305F00FEFF0CFB241016FC09FE013
:10345000EFC21FDE373501004111130585292EC645
:10346000EFF0AFB23755010013058585EFF0EFB1EE
:10347000B2452E85EFF06FB13735010013050525F4
:10348000EFF0AFB01305F00FEFF0AFAE1305F00F94
:10349000EFF02FAE1305F00FEFF0AFAD41016FC0AD
:1034A0007FDBEFC25FD72A89794493095006130A5C
:1034B000600693041007854AEFF06FAA15CD4A8580
:1034C000EFF0AFD893178501E187638C8700634ED7
:1034D000F40081CBE3C207FEF91793F7F70FE3ED92
:1034E000FAFC1375F50F6FC05FD6E3C737FDE35ADB
:1034F000FAFEE39397FCF5B71305F00FEDB7EFC2B3
:103500003FD32A84EFF0AFA509C52285EFF0EFD3B2
:10351000D5BF1305F00F6FC0FFD3EFC27FD1138566
:10352000C18DEFF01FF8930710076313F5021385A1
:10353000C18DEFF08FD12A841385C18DEFF0EFD0CC
:103540001375F50F22051374F40F418D6FC09FD0D2
:1035500041657D15E5BFEFC2BFCD41112E892A849B
:10356000B284938581871D462800EFB0B04D2C00B2
:103570001D462285A30421014485EFF04FCF01456C
:1035800041016FC03FCDEFC23FC82A89EFF02F9DA8
:103590008D4763DBA7661385C18DEFF00FCBAA843F
:1035A0001385C18DEFF06FCAAA891385C18DEFF025
:1035B000CFC993978401E18737076500A207D98FA8
:1035C000139789016187D98F6205A20761855D8D97
:1035D000B707056513871710A2846303E55C63488A
:1035E000A710B7070465138717106301E532634717
:1035F000A704B7070065138717306307E52E634DEF
:10360000A70013871710630FE51A93871720630528
:10361000F52C01456FC0DFC213871750630CE52CF2
:1036200013871760630EE52C93871740E313F5FEAD
:10363000B7350100154693858518F9AA13871740F9
:103640006307E536634FA700138717206301E53052
:1036500093871730E31FF5FA83D5A18F8A058D056F
:1036600055AC13871760630BE53C13871770630035
:10367000E51293871750E31EF5F81387A18F831780
:103680000700635AF038FD17C207C1831EA38A07DB
:10369000239BF18E81441384618F914AB7090020E6
:1036A0001389910283D7818F63F3FA009147C20790
:1036B000C183E3D0F4F60C20138601041385495D21
:1036C000850593F5F50FEF1080449387495D83A539
:1036D00047498387050091E3CA852685EFF04F8D22
:1036E0001E208504E2048507E1841EA065BF37170C
:1036F000056593061770630CD50863C2A60693860A
:103700001740630DD54C63C5A60213871720630CC1
:10371000E54A93871730E31EF5EE373501001305B0
:10372000051CEFD02F8C373501001305851D59A1DD
:1037300093861760630FD54A130717606309E50482
:1037400093871750E317F5EC373501001305051C77
:10375000EFD04F89373501001305851EA1A9B707A2
:103760001165138717106300E5386348A702B71780
:103770000765138717906307E53E938717A0630ECD
:10378000F53AB7270565938717E0E314F5E8B735F1
:10379000010001469385451A41A03707126593063B
:1037A00017106307D53C130717206305E53E938781
:1037B0001720E310F5E6B73501001146938505178C
:1037C0004A85A9A89305000437150140EF40E01A87
:1037D0001384C18F1C203335A000370900206300FB
:1037E000F5029305000437150140EF400019B33787
:1037F000A0001CA01DC51305495DEF1040089307EC
:10380000495DBC23B70A0020938A4A5D114699EFAF
:10381000B7350100938585161385C18DEFF0AFAAEA
:10382000CDBB1305495DEF106009D1BFB73501006D
:103830001385C18D93850517EFF0EFA8375401006C
:10384000930584850145EFE0BFF693058485054522
:10385000EFE01FF6930584850945EFE07FF59305BA
:1038600084850D45EFE0DFF4938501041305495D80
:10387000EF10602B239CA18E239B018E8144138A21
:10388000818F1384618F914B138B910283570A00B0
:1038900063F3FB009147C207C18363DCF4020C2091
:1038A000138601041305495D850593F5F50FEF10A7
:1038B000002683A54A498387050091E3DA8526859A
:1038C000EFE01FEF1E208504E2048507E1841EA0BF
:1038D00075BF239D018E35BBB735010031469385F9
:1038E00045171385C18D1DBFB7350100354693853A
:1038F0000518C5BFB7350100194693850519D5B719
:10390000B7350100294693858519E1BF83D5A18F7D
:103910008A058505C205C181239BB18E83D7818F1E
:10392000E3E9B7CE1386010493F5F50F37040020C1
:103930001305445DEF10A01D1307445D83474748FE
:103940001309445DC18BC9C78325474989A083D525
:10395000A18F8A058905C205C181239BB18E83D7BA
:10396000818FE3E8B7CA370400201386010493F57A
:10397000E50F1305445DEF1080199307445D83C77D
:1039800047481309445DC18BA1C7832549498387F3
:10399000050099E3938591021305445DEF10202102
:1039A000054685451385C18DEFF0FFBA9DB183951E
:1039B000A18F85058A05C205C181239BB18E83D75E
:1039C000818FE3E8B7C41386010493F5C50FB9BF2F
:1039D000032549498307050099E313859102B7350B
:1039E0000100938545E2EFB07030E30405C2B735BE
:1039F00001009385C51939461385C18DEFF0AF8C51
:103A0000832549498387050099E3938591020545FC
:103A1000EFE01FDAFDBE370400201305445DEF1010
:103A20000013E31605D6054685451385C18DEFF0D5
:103A30009FB21305445DEF104016E1BE9384A18F41
:103A40000394040083D7818F05041317240013897E
:103A5000818FE3C0E7BCB759010093858985014593
:103A6000EFE01FD5938589850545EFE07FD49385E9
:103A700089850945EFE0DFD3938589850D454204AB
:103A8000EFE01FD3418082A00A04239B818E8144F2
:103A90001384618F914A370A0020938991020E2086
:103AA000835709008D8F63D3FA009147E3C397B61C
:103AB000850593F5F50F1386010413054A5DEF1094
:103AC000000593074A5D83A547498387050091E375
:103AD000CE852685EFE0DFCD1E208504E204850734
:103AE000E1841EA06DBF2395018C2394018CB73512
:103AF00001001D461385C18D2396018C37040020DB
:103B00009385C51A23AC018C9304445DEFE0BFFBA1
:103B100083A544491D45EFE0BFC983A54449054637
:103B20001305445DEF00F05D1305445DEF00B059EF
:103B300003A7419E23AAE18CE9BC0387D18F3705F7
:103B400000209387D18F01EB05471305455D98A3AE
:103B5000EF0010587DBC1305455D23800700EF0082
:103B6000905645BCB735010049469385451B95BB2A
:103B7000370500209307455D1305455DA3800700C9
:103B8000EF009070EF203057B73501000146938564
:103B9000451A81BBB73501001D469385C51A91B3FF
:103BA000373501001305051CEFC0DFC337350100B1
:103BB0001305451CEFC01FC3373501001305C51C95
:103BC000EFC05FC2B9B4373501001305051CEFC063
:103BD0007FC1373501001305051DE9BF37350100E9
:103BE0001305051CEFC01FC0373501001305051E66
:103BF000D1B7373501001305051CEFC0BFBE3735FF
:103C000001001305051F7DB71305F00F21B4EFC2A6
:103C10008FE09387019003A7419E9443411163F580
:103C2000E61603A7419E4A841307873E98C383D7AD
:103C3000C18D638B07141D47AA84639AE716370961
:103C400000209307495D83A547491D45EFE05FB616
:103C500003A5819B138A819B1309495DEFB020174F
:103C600013160501418291451385C18DEFF00FC1F7
:103C700003254A00EFB0A0151316050141829545B2
:103C80001385C18DEFF08FBF81451385C18DEFE0A6
:103C90003FEB2685EFF07F88C167FD176300F502D3
:103CA0009387819098436304E50E88C39307600E61
:103CB0001306600E63CFA70C23A4A19C8545138532
:103CC000C18DEFE0FFE72685EFF03F85C167FD1767
:103CD0006300F5029387C19098436302E50C88C3A3
:103CE0009307600E1306600E63CDA70A23A6A19C5E
:103CF00083A4419EA94523AC918C03A6418D1385D5
:103D0000C18D918C37F63600130606E833D6C4020F
:103D100042064182EFF08FB63D66130606A633D603
:103D2000C4029304C003AD451385C18D337696025A
:103D3000EFF0CFB403D6C18CA9451385C18D33569E
:103D40009602EFF0AFB303D6C18CAD451385C18D9C
:103D500033769602EFF08FB28357C925014685C3AB
:103D60008327492689CF1306400693873706B3D7A2
:103D7000C702032609263356F6021376F60F81454D
:103D80001385C18DEFF0EFA041016FC00FCC03A6EA
:103D9000819C81451385C18DEFE0BFF605B703A671
:103DA000C19C85451385C18DEFE0BFF591B71547DF
:103DB0006390E70603A6418D83A7818DBD6493843C
:103DC00004A6918F37F63600130606E833D6C702ED
:103DD0001307C003B3D4970283A58103420641822F
:103DE00083870500B3F4E40299E3938591020145CA
:103DF00032C6EFE0FF9B324685451385C18DEFF05B
:103E0000EFA7268689451385C18DEFF02FA7ADBF9B
:103E100021476385E70045476392E70203A5819B3D
:103E2000EFA0F07A13160501418281451385C18DFB
:103E3000EFF0CFA403D6819C8545F1B73D4763974A
:103E4000E70A03A5819BEFA0907813160501418234
:103E500081451385C18DEFF06FA203A5C19BEFA033
:103E6000107713160501418289451385C18DEFF046
:103E7000EFA09387C1919A23420741831DE31387E3
:103E800041911A239306300B93874191E3FEE6EEAE
:103E90009A239306000FE3E9E6EE9A2323A4E19C1C
:103EA000E5B59A2385466394E602138741911A2368
:103EB0009306700293874191E3F8E6EC9A23930608
:103EC0008007E3E3E6EC9A2323A6E19C75BD9E23DD
:103ED0000947E31BF7EA938741919A239306F00F72
:103EE000E3E4E6EA9A2323A0E18C79BD2D476393AE
:103EF000E70A03A6412581451385C18DEFF02FAA5E
:103F0000138941250326490085451385C18DEFF0AE
:103F10000FA90326890089451385C18DEFF02FA8CD
:103F200083D7C19113898181C207C18385E7138734
:103F300041911A238546938741916395E602B737ED
:103F4000010083A747DE05462320F9008145268529
:103F5000EFE03FEA032609008D451385C18DEFF0A0
:103F60000FA41DB59A238946639AE600B73701006E
:103F700083A747BF09462320F900C9BF9E230D47E9
:103F8000E31AF7FCB737010083A7871F0D462320EC
:103F9000F9006DBF3547E399E7DE83C7518F9384FE
:103FA000518F6390070C9389412523820190B73785
:103FB000010083A547DE03A58900EF90107D373708
:103FC0000100032707BE9387818B93860126138602
:103FD000C1259385812523A4A90013854125EF10D0
:103FE00040463735010013050521EFC0AFFF3739D3
:103FF0000100930509090145EFE08FFB93050909CD
:104000000545EFE0EFFA930509090D45EFE04FFA9A
:10401000B735010001469385C5211385C18DEFE0B9
:104020003FBEB73501000146938505221385C18D3A
:10403000EFE01FBDB735010001469385452213858A
:10404000C18DEFE0FFBBB7350100014693858522A6
:104050001385C18DEFE0DFBA238A018E85479CA0CE
:1040600025B30547639EE700130700003A868145A4
:104070001385C18D23A0E18EEFF06F928947C5B7FC
:104080000947639EE700130700003A8681451385C0
:10409000C18D23A2E18EEFF08F908D47C9B70D47F8
:1040A000639EE700130700003A8681451385C18DA2
:1040B00023A4E18EEFF0AF8E914755B71147639E71
:1040C000E700130700003A8681451385C18D23A6BA
:1040D000E18EEFF0CF8C954759B71547639AE70209
:1040E00083A5418E03A5018EEF90306A83A5818E52
:1040F000EF90B06983A5C18EEF903069B7370100AA
:1041000083A5C71FEFA0006123A8A18E994781BF97
:104110001947639EE700130700003A86814513851F
:10412000C18D23A0E18EEFF08F879D470DBF1D4706
:10413000639FE71003A9018E81451385C18D4A86CF
:10414000EFF0EF8583A9018F4A85CE85EFA0604B04
:10415000635BA004CE854A85EFA01005EFA0D06573
:10416000B737010003A6072083A64720373A01008E
:10417000B73A0100EF80907F634AA00293858AF0EE
:104180000545EFE0EFE2B7350100938505090D45E0
:10419000EFE00FE201469305CA211385C18DEFE0E0
:1041A0003FA6A1476DBDCA854E857DB7CE852382CA
:1041B00001904A85EFA0404D373B010093858AF07E
:1041C000635E05040545EFE0AFDECA854E85EFA0CE
:1041D000A07DEFA0705E03268B208326CB20EF808E
:1041E000D012EFA030682A868D451385C18DEFE08F
:1041F0001FFB654681451385C18DEFE05FA705462E
:104200009305CA211385C18DEFE09F9F9387418F4E
:104210009823E30B07B623800700CDBD0545EFE0EB
:104220002FD9CE854A85EFA02078EFA0F05803263D
:104230008B208326CB20EF80500DEFA0B0622A8622
:104240008D451385C18DEFE09FF5614665B7214728
:10425000639EE700130700003A8681451385C18DF0
:1042600023A2E18EEFE0BFF3A547D5BB25476390BE
:10427000E71203A9418E83A9018F4A85CE85EFA05D
:1042800040386350A006CE854A85EFA0E071EFA0CC
:10429000B052B737010003A6072083A64720373A5C
:1042A0000100EF80B06C6341A004A9479CA0B73423
:1042B0000100938504090545EFE08FCF938504093C
:1042C0000D45EFE0EFCE5D4685451385C18DEFE0EE
:1042D0001F9A014693050A221385C18DEFE05F9274
:1042E00065B4CA854E8555B7CE85238201904A852F
:1042F000EFA08039B7350100B73A01009385C52298
:10430000635E05040545EFE0AFCACA854E85EFA0A0
:10431000A069EFA0704A03A68A2083A6CA20EF8076
:10432000C07EEFA030542A868D451385C18DEFE005
:104330001FE75D4685451385C18DEFE05F93054618
:1043400093050A221385C18DEFE09F8B9387418FE0
:104350009823E30B07A223800700A1B50545EFE0F2
:104360002FC5CE854A85EFA02064EFA0F04403A6B8
:104370008A2083A6CA20EF804079EFA0B04E2A861B
:104380008D451385C18DEFE09FE1614665B72947F3
:10439000639EE700130700003A8681451385C18DAF
:1043A00023A4E18EEFE0BFDFAD4755B92D47639DF4
:1043B000E71003A9818E83A9018F4A85CE85EFA0DE
:1043C0004024635CA004CE854A85EFA0E05DEFA0A9
:1043D000B03EB737010003A6072083A64720373A2F
:1043E0000100EF80B058634DA002B1479CA0B734E4
:1043F0000100938504090545EFE08FBB938504090F
:104400000D45EFE0EFBA554689451385C18DEFE0C4
:104410001F86014693054A22C1B5CA854E8575B7E8
:10442000CE85238201904A85EFA00026B735010092
:10443000B73A010093850523635F05040545EFE066
:104440002FB7CA854E85EFA02056EFA0F03603A601
:104450008A2083A6CA20EF80406BEFA0B0402A8656
:104460008D451385C18DEFE09FD355468945138552
:10447000C18DEFE0CFFF054693054A221385C18D1C
:10448000EFE00FF89387418F9823E30F078E238087
:104490000700A947E9B60545EFE08FB1CE854A850B
:1044A000EFA08050EFA0503103A68A2083A6CA2037
:1044B000EF80A065EFA0103B2A868D451385C18D46
:1044C000EFE0FFCD51465DB73147639EE70013072C
:1044D00000003A8681451385C18D23A6E18EEFE069
:1044E0001FCCB547ADBE35476397E71403A9C18E0E
:1044F00083A9018F4A85CE85EFA0A0106354A00840
:10450000CE854A85EFA0404AEFA0102BB7370100B7
:1045100003A6072083A64720373A0100B73A0100D7
:10452000EF80D044938741906345A0061386519055
:1045300018229386519005071377F70F18A290233E
:1045400029E6054690A399479CA08D4763F6E700AE
:10455000B947238006009CA09385CA230545EFE058
:104560002FA5B7350100938505090D45EFE04FA450
:1045700055468D451385C18DEFE06FEF01469305DC
:104580008A2299BBCA854E85B5BF23800700B947EB
:1045900065BFCE85238007004A85EFA0E00E373B3C
:1045A00001009385CA23635F05040545EFE04FA032
:1045B000CA854E85EFA0403FEFA0102003268B2038
:1045C0008326CB20EF806054EFA0D0292A868D452A
:1045D0001385C18DEFE0BFBC6D468D451385C18D40
:1045E000EFE0EFE8054693058A221385C18DEFE0E1
:1045F0002FE19387418F9823630807F823800700F2
:10460000B147B1BC0545EFE0AF9ACE854A85EFA032
:10461000A039EFA0701A03268B208326CB20EF80D1
:10462000C04EEFA030242A868D451385C18DEFE062
:104630001FB769465DB739476394E700BD4705B4C6
:104640003D476393E7F4B735010039469385452329
:104650001385C18DEFE02FC7238A018E23800400CC
:104660006FF08FF29387019183A6419E9043637C04
:10467000D60483A6419E9386460694C383A7419E93
:1046800003A7819163E1E704EFB29FBA2A84EFE0C8
:104690005FE193075006630DF50093076006630D15
:1046A000F5001385C18DEFF08FD601456FB09FBA2D
:1046B0002285EFE05FEDF5B71385C18DEFE0EFB830
:1046C000238BA190F9BF01458280EFB27FB693079B
:1046D000C559232AF548B7350100930700102A84ED
:1046E000232CF54823100500230105009385054977
:1046F0001305C549EFA0705D85472300F46A83A7C1
:10470000419E9387077D232EF4686FB0BFB4EFB24C
:104710003FAF130A452341112A845285AE89EF50D9
:10472000200C71E54E85EFA0505B9307C44701490B
:104730003EC4130BE002B73B0100373C0100B38AD3
:10474000A900B73C0100373D0100930D5448A24534
:104750005285EF50A00FAA843DE183075448A5C3BA
:10476000E38767FF8347444813F767006DF3032629
:1047700044490307060011E36E860327446A0509CE
:104780004209135909011DE3C18B95CF93850C3262
:104790005685EFA0D04BCE8513054D32EFA0B03536
:1047A000CE852285AD3729ED23800A008327446A10
:1047B00009476398E7028317846AE39A27F92685F5
:1047C00041016FB0BFA793854BE2328532C6EFA09F
:1047D000F05169DD3246CE8513058C33EFA0B03140
:1047E000F1B70547E395E7F62314246B8DB7AA8448
:1047F000AA85373501001305C534EFA0D02FC1B706
:10480000AA8475BFEFB2DFA241112E85B28532C6F0
:10481000EF40107D2A84324601E937350100B28528
:1048200013054536EFA0302D228541016FB09FA2C0
:10483000EFB21FA041112E85B28532C6EF500001A4
:1048400032468307960091E3114541016FB09FA066
:10485000EFB21F9E117191672A84938707A31306F5
:10486000B00F814548003EC0EFB09F9F8A8523224C
:10487000046A2285EFF0BFE911616FB0BF9D3C2152
:104880008DEFEFB2FF9A930545002A840145EF4072
:10489000B038AA8509C9373501001305852DEFA069
:1048A00090256FB03F9B3735010081451305C52F1B
:1048B000EFA0702485473CA0EDB78280A3000500DF
:1048C0002301050082803C2199C385471CB1828069
:1048D0001C3199C3A30005008280EFB27F9541117E
:1048E00074001305852502C6EF40904B19C5373576
:1048F000010013058543EFA01020324541016FB040
:104900007F953C21A5CFEFB2BF9241112EC6130473
:1049100085250DCE373501001305C537EFA0B01D35
:10492000B24505462285EF403031AA8511C9373599
:1049300001001305C539EFA0101C41016FB09F9114
:104940003735010081451305853BF5B73735010043
:104950001305853DEFA0301AB24529462285EF4068
:10496000B02DAA8511C5373501001305C53FE1B744
:104970003735010081451305854175BF8280EFB24F
:104980003F8B85473CB10146EFF0BFF76FB09F8C7E
:10499000EFB21F8A2E85EF40107201C9AA85373504
:1049A00001001305C529EFA010156FB0BF8AEFB243
:1049B0003F883C2195CF2A84373501001305C54631
:1049C000EFA070138325042637350100130505C7B2
:1049D000EFA070121305F002EFA0101683254426F5
:1049E0003735010013050511EFA0F0106FB09F8659
:1049F0003735010013050548EFA0F00FC5BFEFB232
:104A00003F832E852E84EFA0502DAA849305E004C9
:104A10002285EFA0102A15ED1385F4FF2295B547E6
:104A20001CB1A9473CA1A3010500373501001305BE
:104A300045C3EFA0500C373501001305452BEFA0FF
:104A4000900B3735010013058567EFA0D00A6FB0D2
:104A50007F809305A002EFA0D0257D15C9B791E90D
:104A60008347056A8DC383A7419E0327C56963EC0D
:104A7000E7003C212300056A99E7EFB26FFBEFF0F6
:104A80001FE06FB02FFD8280EFB28FFA930485256F
:104A90002A842685EF40D0482685EF4030532300F6
:104AA0000400A30104006FB0EFFAEFB26FF837040F
:104AB00000208347445D05498DC7AE84B7350100AA
:104AC000938545452685EFA070221DE51305445DBD
:104AD000A685EFF0DFF21304445D3C3091C7EFC0D0
:104AE000BFB34A856FB00FF7373501001305C5CE48
:104AF000EFA070000149F5B71305445DEFF0DFF852
:104B00003735010013058545EFA0E07ED9BFEFB230
:104B10002FF209472322E56A2314B56AB285EFF024
:104B20001FBF6FB02FF3EFB2AFF085472322F56AB6
:104B30002A84EFF0DFBD8315846A37350100130541
:104B40000511EFA0407B0355846A6FB0AFF0EFB260
:104B50002FEE9305F0021305C549EFA0901513350C
:104B600015006FB02FEFEFB2AFEC1305C549EFA002
:104B7000D0156FB02FEEAA87038507006305B50037
:104B800001CD8507D5BF2E8581C923800700850704
:104B9000038707007DFB05458280EFB26FE993052F
:104BA000F0021305C549EFF01FFD6FB0AFEAEFB299
:104BB0002FE82E849307C549B73501003E859385BC
:104BC0008537EFA0300DA285EFA0D00C6FB08FE835
:104BD000EFB20FE62A84EF103043EF10D0511305E7
:104BE0008425EF40B03EA3000400EF10104D373590
:104BF00001001305C52CEFB07FC66FB0AFE5EFB273
:104C00002FE0939A2600330B5601397183240B0051
:104C1000BA89330755012E893E8C0C43834701081E
:104C20002A8A268542CAC68C3ED032C2EF90E03531
:104C300012468A0933073A01B307360180430C4311
:104C40002AC422853EC20A0CEF902034B3078901A2
:104C5000B30B8A0183A50B002AC68843EF90D0547A
:104C60008327C900A2452AC83ED48327CA003ECC68
:104C7000B7070080BD8C3D8CB30759018843EF9086
:104C8000B052B30739012A8DB2458843EF90D05115
:104C9000AA8DEA852685EF90F027EE852AD6228513
:104CA000EF905027B257AA853E85EF90002EEE85F3
:104CB0002AD62685EF901026EA85AA8D2285EF90C8
:104CC0007025AA856E85EF90304EB257BE85EF50A5
:104CD000505C930500002A8DEF90101B6350050275
:104CE0006A85EFA0602DB737010003A6874983A628
:104CF000C749EF70806EEFA0E0362A8D825799CFBA
:104D00006A85EFA0602BB737010003A6874983A609
:104D1000C749EF80901CEFA0E0342A8DC24713955D
:104D200017000581EFA040292AD02ED26A85E6859A
:104D3000EF90501EEFA0402802569256EF50303DA3
:104D4000EFA04032AA8DEFA02027B737010003A6BD
:104D5000074A83A6474AEF8060416346051C6E857B
:104D6000EF50D025EFA0A006931D050193DD0D01A6
:104D700063930D00854D6E85EFA0C00AAA8CAA85AD
:104D80006A85EF9020572A8D4245E685EF90805640
:104D9000E2452AC82255EF903041E685EF908055D4
:104DA0002AD46A85EFA04021B736010003A6864ABF
:104DB00083A6C64A2ACC2ECEEF80A0466247F24791
:104DC0003A86BE86EF80E045B73701002A86AE8678
:104DD00003A5074B83A5474BEF803010EFA0802839
:104DE00003A70B009C00E29723A8E7FE0327CA0055
:104DF000AA8C054A3ADE980056973ACC98004E970E
:104E0000814B3AD03E8C93170A01C18363F3B711EB
:104E1000E14763CC7709EA852685EF90B00FAA8930
:104E2000E6852285EF90100FAA854E85EF90E0155C
:104E3000AA89E6852685EF90F00DAA84EA85228569
:104E4000EF90500DAA852685EF90103613881B0031
:104E5000931B8801AA8493DB8B414E84A24526854F
:104E6000050AEF908012E247B24523A8A7FE2285EB
:104E7000EF90A0118257C24523A8A7FE03250CFF7F
:104E8000EF90A0102328ACFEA2557255EF90E00FD2
:104E90002ADE0818EFC0CFBE52475C0174183018E4
:104EA0004C180818EF00E059B9BF5285EF90907781
:104EB000EA85EF9030062A84EF501008AA892285EF
:104EC000EF50901C83270B0037070080AA8AB3CBD2
:104ED000E7009247CE855E858043EF90B003AA84B9
:104EE000D6852285EF901003AA852685EF90E009EC
:104EF000D685AA845E85EF90F001AA8ACE852285A8
:104F0000EF905001AA855685EF90102A2A84814B94
:104F1000B1B752475C019306C90013068900930597
:104F200049004A85392B21616FB04FB1EFB24FADC7
:104F30002A84485D4111AE8B328BEF90107B2A8919
:104F4000284083298404EF90507A2A8C4E85EF9074
:104F5000706D93050000AA8CEF90E0646300051E5D
:104F6000CA854A85EF90007BAA84E2856285EF902E
:104F7000607AAA852685EF903023EFA0E0032A8A85
:104F80006685AE8AEFA040032A86AE86EF70E044C5
:104F90002A86AE865285D685EF703037EFA0800C1A
:104FA000EF50406CEF90905CAA846840EF90F073F3
:104FB000AA8A33053041EF90F06693050000AA8974
:104FC000EF90605E630F0516D6855685EF9080746E
:104FD0002A8ACA854A85EF90E073AA855285EF90A8
:104FE000B01CEF90707D2A8D4E85AE8DEF90D07CF9
:104FF0002A86AE86EF70603E2A86AE866A85EE858A
:10500000EF70B030EFA00006EF50407B032A0401A0
:10501000EF90D055B3099A403385A940635F050AE4
:10502000930500006685EF900058630F05106685B4
:10503000EF9090782A86AE862A8DAE8DEF70E0399B
:105040002AC452852EC6EF90506AEF90F076224720
:10505000B2472A86AE863A85BE85EF80801C2AC478
:105060002EC66285E285EF90E06AEF90F0742247E9
:10507000B2472A86AE863A85BE85EF8000662A8CC6
:10508000AE8C5685D685EF90E068EF90F0722A8658
:10509000AE866285E685EF704034B737010003A61F
:1050A000875183A6C7512A8CAE8C6A85EE85EF8026
:1050B00040172A86AE866285E685EF701025EF9050
:1050C000707AEF50205AEF90704AAA84635305001B
:1050D0008144014563E34401D2849967739007805A
:1050E00083470405E207E187B1E344C8AA94DE855B
:1050F00004CC4A85EF900062EF50C056EF90304DDF
:10510000930780076374F50013058007DA8528C0CC
:105110004A85EF902060EF50E054EF90504B93079A
:1051200080076374F5001305800768C0996793874B
:1051300087087390078041016FB04F9013050000FE
:1051400085B513050000C9B5130500009DBFEFB27A
:105150002F8E4111AA842E8532C6EF90A05B2A843F
:10516000A6852685EF8070623246B285EF90805A20
:10517000AA852285EF905003EF50D01141016FB006
:105180006F8DADC925CAEFB20F892E8403A9C50260
:105190000854B284CA85EF90004121C1834794032B
:1051A000B9E703AA84024A85D285EF90804563500F
:1051B000A00448581058B7090080D28533453501FE
:1051C000EFF0FFF8AA854A85EF90004C635905007F
:1051D000485408D48547230CF4026FB00F87485811
:1051E00010588C5433453501EFF07FF6DDB723249A
:1051F0002403CDB78280EFB20F82938781929823E8
:1052000019677310078003C99192130787081379F0
:10521000F90F73100780982333072741318B0DCF87
:105220008023014675143D888149138A8133930A8E
:105230004005630324036204618411E041447D144A
:105240001374F40FB3045403CE85D2942685EFF083
:105250005FF34E86A689F1BF6FA03FFF35C5834738
:105260009503BDE3EFA23FFB032A850283A98502D4
:10527000AE842A84CE855285EF900041635B05029F
:105280004858105837090080D28533452501EFF082
:105290001FECAA854E85EF90203F635E0500805489
:1052A0008854A285EF90203009C5854780D4238C8F
:1052B000F4026FA09FF9485810580C54334525014B
:1052C000EFF0FFE82A84E9BF8280EFA2DFF403C495
:1052D000919281441374F40F014593898133930AA9
:1052E0004005414B938781929C236304F402330968
:1052F000540305046204A68561844E994A86EFF042
:10530000FFF563136401014426851374F40FCA8406
:10531000D1BF0146A685EFF07FF46FA01FF3EFA287
:10532000BFEE83C491924111E204E1840144938968
:105330008133130A4005C14B938781929C23638973
:10534000F404338944034E9905CC8347840381E7F1
:105350008347890395C7B3874403832A4402D685CC
:10536000CE978857EF8010792AC60854D685EF80EB
:1053700070783246AA852285EFF05FBB230C0402C9
:105380008504E204E1846393740181444A846DB727
:105390000DCC44502685EF903042B73701002A8665
:1053A000AE8603A5075283A54752EF700076EF90B3
:1053B000704B2AC60854A685EF80D0733246AA8562
:1053C0002285EFF0BFB6230C040241016FA05FE716
:1053D000EFA21FE6EFF03FE2EFF03FEFEFF03FF418
:1053E0006FA05FE723840192A3840192B717002086
:1053F0009387872C23A0070023A2070023A407007C
:1054000023A60700938781301307000098C3D8C3F1
:1054100098C7D8C723A0E192828093869192138780
:1054200081928C2210231376F60F630BB6009C2218
:1054300093F7F70F14236385D7008507BD8BDDBF76
:105440008280EFA2FFDBBA8C3E8B938781929C23F4
:105450005971138781928507E207E1873EC63ACAF0
:105460003247C147AE8BB28936896313F70002C653
:10547000938791929C233247631BF7002AC8EF5011
:105480002008EF10E05BEFC06F834245D5B79384EF
:1054900081328C40084137340100138A8132EF9009
:1054A00060278325C4BDEF80502EEF502031EF9050
:1054B000F00BCC40AA8A03A50B00EF90A025832512
:1054C000C4BDEF80902CEF50602FEF90300A8C44D9
:1054D000AA8B03A50900EF90E0238325C4BDEF80CC
:1054E000D02AEF50A02DEF907008CC442A8C0325D1
:1054F0000900EF9020228325C4BDEF801029EF50D2
:10550000E02BEF90B006B71700201387872C584781
:1055100022C83ED42A899389872C6304E50A83C76D
:10552000818B1387819B8A07BA978C4303A5C1811E
:10553000EF90200D6356A00237350100130545BBDF
:1055400023A62901EF90305B373501001305854D07
:10555000EF90705A3735010013058567EF90B05909
:1055600083A7C900B307F94013D5F741A98F338545
:10557000A740EF90300BB737010083A547DB2A84A3
:105580000325CA00EF900019AA85EF801020AA8594
:105590002285EF9000076356A002373501001305FE
:1055A00045BB23A62901EF9010553735010013059F
:1055B000454FEF9050543735010013058567EF9044
:1055C0009053D24713074005802383A50900938792
:1055D00081331374F40F3307E40293848133BA9751
:1055E000238807042380070263D5BA000547238078
:1055F000E70203A5490063DDAB001307400533074D
:10560000E40226978347070293E727002300F70267
:1056100083A68900635DDC00130740053307E402BD
:1056200026978347070293E747002300F70203A763
:10563000C900635DE900130640053306C4022696DF
:105640008347060293E787002300F602B387BA4038
:1056500013D6F7413348F6003308C8403386AB40D1
:105660009357F6413D8EB306DC401D8E93D7F6412D
:10567000BD8E3307E9409D8E9357F7413D8F1D8FB7
:1056800083A7C18093084005B30814033307F702CA
:1056900093074006A69823A0080123A2C80023A4CC
:1056A000D800B347F702368723A6F80063D3F60085
:1056B0003E876347C7786346070163D5D700B6873F
:1056C00011A0C287130740053307E40295462697C9
:1056D0001CCB63FBF65C83A7018C7CC783470B0064
:1056E000A300F7026388BA000146C145371501409F
:1056F000EF40702393074005B307F402A697DC43FD
:1057000099C70146C14537150140EF40D0219307A5
:105710004005B307F402A6979C4799C70146C145C7
:1057200037150140EF403020130B4005330B640365
:10573000269B8327CB00639C075603AB0194E68529
:105740005A85EF80106C6343A000668B03A50900A7
:105750003385AA40EF90006D83250A00EF809039D1
:10576000AAC82AD003A549003385AB40EF90806BCF
:1057700083254A00EF801038AACA2A8D03A5890024
:105780003305AC40EF90006A83258A00EF809036A5
:10579000AACCAA8C03A5C9003305A940EF90806864
:1057A0008325CA00EF801035AA8903A5C180EF9038
:1057B0006067AA854E85EF80F075B737010083A535
:1057C00047DBEF80303393074005B307F402AACEDE
:1057D00015478256A69790436368C74ED0436365CA
:1057E000C74E90476362C74E0605058188DB930765
:1057F0004005B307F402373A010003254ABFA697D4
:1058000083AC0703E685EF80F02EDA85EF80907099
:10581000D247138791929C23182352D0AA89998F3B
:1058200093F7F70F13FBF7003ECC1307EBFF9547F9
:1058300063ECE706EF904078B73701002A86AE8622
:1058400003A5074C83A5474CEF70202CB737010008
:1058500003A6874A83A6C74AEF603038EF40104B53
:10586000EF80C0652A8A03A5C193637FAA0233052E
:105870004541060533556503EF902067C24783A570
:10588000C7BDEF808070EF4070732AD25285EF90D1
:10589000C0659255EF80606FB7370100AA8503A5F8
:1058A000874BEF803025AA89130A4005330A440349
:1058B000CE856685EF801066AA8D014D269A23223B
:1058C000AA0203250A01EF904062CE852A8BEF8061
:1058D0007064EF403059EF90804F82573707008057
:1058E000232EAA0203AA47BF9347F7FF37170020CA
:1058F0003ED69307872B2AD23ED89C083387A70130
:105900000C434E85EF8010619C103387A701B2577E
:1059100008C33377F500C257BA853ADEB386A701CC
:105920009442368536DCEF80305663500502E256ED
:1059300072573685BA85EF80F01BD2852ADCEF805E
:10594000504C6344A00062573A8A110DC147E316D8
:10595000FDFA8257528583A547BFEF80F05263540A
:1059600005049309010603A50900D2859109EF807A
:10597000705A23AEA9FE9C18E39737FF93094005A0
:10598000B3093403D2856E85EF80D058A69923A23F
:10599000A9021255EF906055D285EF80B057EF9075
:1059A000004323AEA902130A4005330A4403E685E7
:1059B0005A85EF803014AA89269A832D0A006393B2
:1059C0000D3483274A00639F073283278A00639B35
:1059D000073283A54194EF80F053EF40B048EF9039
:1059E000003F2324AA04130A4005330A4403269ADD
:1059F00003258A04EF90604FCE852A8BEF80900FAD
:105A0000232AAA025A85EF90205BB737010003A62C
:105A1000874C83A6C74CEF70D000EF80A043C247ED
:105A2000232EAA0003A5019383A5C7BD138D01935F
:105A3000EF80504EC2472A8A03A5419383A5C7BD74
:105A4000A65CEF80304D93951C008581AA89EF807C
:105A5000B043938741933ED263590500D2854E856A
:105A6000EF80303A6343A0004E8AC24703A5C1923B
:105A700083A5C7BD365BEF80F04993151B00858178
:105A8000AA89EF8070409387C1923ED66359050082
:105A9000D2854E85EF80F0366343A0004E8A93078F
:105AA0004005B307F402D285A69783A947024E8525
:105AB000EF8030356343A0004E8AE247138701929E
:105AC000B98B3AC8D289638C0712832907004E85A7
:105AD000EF90804EB737010003A6074D83A6474DD0
