:100000006F50405413000000130000001300000064
:100010001300000013000000130000001300000094
:100020001300000013000000130000001300000084
:08003000130000007300100032
:10003800000000000000000050530000545300006E
:10004800000000008A5400000000000000000000CA
:100058008C5400008E5400000000000000000000D6
:1000680074800000000000009254000000000000AE
:100078009A83000096540000985400009A54000097
:100088009C5400009E540000A0540000A25400009C
:10009800A4540000A6540000A8540000AA5400006C
:1000A800AC540000AE540000B0540000B25400003C
:1000B800B4540000B6540000B8540000BA5400000C
:1000C800BC540000BE540000C0540000C2540000DC
:1000D800C4540000C6540000C8540000CA540000AC
:1000E8002441000054510000D0540000D2540000B4
:1000F800D4540000D6540000D8540000DA5400004C
:10010800DC540000DE540000E6810000E2540000E8
:10011800E4540000E6540000E8540000EA540000EB
:10012800EC540000EE540000F0540000F2540000BB
:10013800F4540000F6540000F8540000FA5400008B
:10014800FC250000FE540000005500000255000088
:100158000455000006550000085500000A55000027
:100168000C5500000E5500001055000012550000F7
:100178001455000016550000185500001A550000C7
:100188001C5500001E550000205500002255000097
:100198002455000026550000285500002A55000067
:1001A8002C5500002E550000305500003255000037
:1001B8003455000036550000385500003A55000007
:1001C8003C5500003E5500004055000042550000D7
:1001D8000000000000000000000000000000000017
:1001E8000000000000000000000000000000000007
:0801F8000000000000000000FF
:10020000397101436EC619A0397141536AC866CA73
:1002100062CC5ECE19A0397101535AD056D252D455
:100220004ED64AD826DA22DC06DE330161408282CD
:1002300041114AC026C222C406C68282B24D410183
:10024000024D924C224CB24B4101024B924A224A3F
:10025000B2494101024992442244B24041018280A4
:100260003D432A876373C3029377F700BDEFADE583
:10027000937606FF3D8ABA960CC34CC30CC74CC795
:100280004107E36BD7FE11E28280B306C3408A06C2
:100290009702000096966780A6002307B700A30682
:1002A000B7002306B700A305B7002305B700A304D2
:1002B000B7002304B700A303B7002303B700A302CA
:1002C000B7002302B700A301B7002301B700A300C2
:1002D000B7002300B700828093F5F50F9396850051
:1002E000D58D93960501D58D61B79396270097021A
:1002F000000096968682E78086FA9680C1171D8F49
:100300003E96E374C3F8A5B70100010001000100A7
:10031000010001000100014582803307C5009307F9
:10032000001063C7E702EFF21FEF3289AE89AA849B
:10033000014493170401C18363FE270133878900B9
:10034000A6970C231395070141817D3F0504D5B77E
:10035000014582800545D5BD010001000100010075
:10036000010001000100010001000100014582803F
:10037000EFF21FEC4111AA840144931704012EC629
:10038000C18332C463FEC700338584001375F50F43
:10039000E137B2452246B387850088A30504F1BF43
:1003A0000545410145BDEFF21FE72A89AE8432843D
:1003B0009309F00F370A0100B70A01007D14137486
:1003C000F40F630B34038C2003550900353F0345BC
:1003D000090059379C20638AA70013058A61EF80C2
:1003E000407A13850A62EF80C0798327090085046B
:1003F00085072320F900D9B789BDEFF27FE32E9658
:100400004111AA841374F60F88202EC6B137B24565
:1004100088A19C40850585079CC093F7F50FE315DF
:10042000F4FE410105BDEFF2BFE07971C1651384AF
:10043000855E41469385855E0A85EFD0506A4146C8
:10044000930504010808EFD0906941469305040222
:100450000810EFD0D068B71600203717002081476A
:100460001386012D9386062513070724C1453308FB
:10047000F100032808003385C70000082320050188
:100480003308F400032808003385D7000010232028
:1004900005013308F400032808003385E7009107BD
:1004A00023200501E395B7FCEF30F027B7070100E3
:1004B00083A7C7631306000023A6F18C23A6F18E41
:1004C0003707010003270764B706010023A0E18E68
:1004D0009567938707E223A2F18E23A4C18EB70705
:1004E000010083A7476483A6866423ACF18C23AE06
:1004F000D18C23AAF18C138781B210C750C3370760
:1005000001000327C76423A4C1B223A8E182B7076F
:10051000010003A50765EF40B05B23A6A182B707E2
:10052000010003A54765EF40B05E23A4A182EF4020
:10053000403D370701000327876537050100130594
:10054000856123A2E182EF80C063370501001305B6
:10055000C565EF8000634561F5B9EFF27FCA938509
:10056000C11F131425009388C50013888500138AC2
:100570004500C6864286338B8500AA899307000012
:10058000D2851385C11F2320FB00EF30F006B7078B
:10059000002093878702A2978843938B4181EFD0F5
:1005A000502BB717010003A687BA83A6C7BACE9B04
:1005B000EFB0B0292A8C03850B00AE8C9384C12048
:1005C000EFC000782A86AE866285E685B70C0020EB
:1005D000EFB0B027938C8C01EFD070323389840058
:1005E000A29C371E01002320A90003A50C0083252F
:1005F0004EBA9389818023A0A900EFC0505913837C
:10060000C400138D840091042A879A866A86A68581
:100610001385C1209387018AEF20905D9307000026
:100620002320F900EF40201C930700002320FB004B
:100630009388812013884120D285370A0020C686FE
:1006400042861385C11F130ACA00EF30E07A229A4E
:10065000832D0A0003850B00B7070080B3CDFD0092
:10066000EFD0F005AA856E85EFD06014371E01002B
:1006700083254EBA2320A90003A50900930D00008D
:10068000EFC0F050138381212A879A866A86938768
:10069000018AA6851385C120EF2090552320B9013A
:1006A000EF40601483250A002E85EFC0B0172A8A18
:1006B00003850B00EE8BEFD09000AA855285EFD01A
:1006C000000FB707010083A507642320A90003A535
:1006D0000C00EFD0C00D371E010083254EBA23A0B9
:1006E000A900EFC0D04A138381212A879A866A869F
:1006F0009387018AA6851385C120EF20704F2320A0
:10070000B901EF40400E938781B2A29703AA070078
:10071000938741B3A2978C435285EFC0B010938763
:1007200001B4A297AA8A2320AB008843D285938480
:10073000C121EFC0300FA29488C0B7070020B704D2
:1007400000209387070093844403A2943E940840BA
:10075000D285EFC0300D88C02320590123A0B901F4
:10076000EF30F011E1BCEFF2BFAC2E84AA85371553
:100770000100130545A2EF80C0402285EFD0700D27
:100780002A8637150100AE86130585A2EF80603FEB
:10079000D1B4EFF2FFA941112EC4AA85371501008B
:1007A000B286130545A236C6EF80A03D2246B2466A
:1007B00037150100130585A2EF80A03C410159BC0B
:1007C000EFF21FA72E84AA8537150100130545A255
:1007D000EF80203B37150100A285130585A2EF802D
:1007E000403A8DBCEFF23FA39384C18898408D4777
:1007F00063C5E706138481891C4013090006B3070B
:10080000F9029389819AAA853385F900EFD0B03B2C
:100810003705010013058561EF80A036371501000B
:1008200013058580EF80E0350C4037150100130576
:1008300045A2B305B902CE95EF80A034371501006B
:1008400013054581EF80E0331C4011478507B3E76E
:10085000E7021CC09C4085079CC0C5BAEFF25F9DB3
:100860005137CDBAEFF2DF9C37150100130585B87B
:10087000EF802031996773900780B707EFBE37E7A5
:1008800000E0938707083CC76FF0DF9CEFF25F9AA8
:1008900037140140130504808565EF7080780546A4
:1008A000130504808565EF708074F16593850520DC
:1008B00013850199EF70301D3725014085451305DB
:1008C0000580EF700076EF70A00637150100130564
:1008D00005ACEF80002B37150100130585ADEF80C7
:1008E000402AB704010013858461EF808029371501
:1008F00001001305C5AEEF80C028371501001305B0
:10090000C5AFEF80002837150100130545B1EF8012
:10091000402737150100130505B2EF8080263715F3
:100920000100130505B4EF80C0253715010013053C
:10093000C5B4EF80002513858461EF8080243715CE
:100940000100130585B5EF80C023371501008145EF
:10095000130585B6EF80E022371501001305C5B6F3
:10096000EF8020223715010093050054130545B888
:10097000EF80202123A801887D34EF40C025EF209F
:100980005021EF30904DEF70607201468565130580
:100990000480EF70C0656FF0FF8B0147930600067F
:1009A0003306E5000306060093178701E187631409
:1009B000B6069305F005254613978701618763CF37
:1009C000E504B306F50094228507938606FD93F6A9
:1009D000F60FE363D6FE8147A54829489305F00545
:1009E000B306E50003860600930606FD93F6F60FB0
:1009F00063E1D802B387070305079376F70F1397D0
:100A000086016187938707FDB297C207C183E3F927
:100A1000D5FC3E8582800507E314D7F88147D5BF12
:100A2000EFF21F81830715001307C004AA846388AF
:100A3000E700130700056380E7046FF0BF81B71577
:100A400001009385C581EFD0301A19C59305A00325
:100A50002685A1372399A18AB71501009385C58200
:100A60002685EFD0701871D99305A00326853537F8
:100A70002398A18AD9B7B715010093854583EFD094
:100A8000B01645DD930530072685013F1384418B61
:100A90000AA01E209305A0032685C207C18381CF2B
:100AA000ED3D9307C0033305F5021A203A95420540
:100AB00041810AA059B7D535EDBFEFF26FF703A713
:100AC0004189930700063387E70283A701881385CE
:100AD000819A8145B306E500958F8507BA973E95C3
:100AE000EFE0605FEFD0A0616FF0CFF6EFF24FF470
:100AF00003A74189930700063387E70283A701888C
:100B00001385819A29468145B306E500958F8507AF
:100B1000BA973E95EFE080716FF0CFF3EFF24FF1AF
:100B200003A7418993070006AA85B387E7021385C7
:100B3000819A3E95EFD0B00723A0A1883335A0005D
:100B40006FF04FF1EFF2CFEED13F6FF0AFF0EFF279
:100B5000AFEB9389818083A7090023AEF186938749
:100B60000181984323ACE18A1307400698C303A789
:100B7000C1989387C18A98C3EF30F0460545EF309E
:100B8000E0501387C11F14439387C12094C354437B
:100B900013058005B7040020D4C314475847938B2E
:100BA000C18794C7D8C79307000023A0F900BD37B9
:100BB0009389C18A138B8180938A818B138A0181E7
:100BC0001384C11F938404226311050C130590053F
:100BD000B137631C050A1305A00589376317050A99
:100BE00085479CA00145EFF05F979C206386070A2C
:100BF0000545EFF09F969C2089E71305A005393F36
:100C000001C50945EFF07F9513058005013F11C926
:100C1000F13D01C95D35AA8503A581B2EFC08040D1
:100C200008C013059005DD3D11C9C93501C97135ED
:100C3000AA8503A5C1B2EFC0E03E48C01305A005D8
:100C4000F13D11C9653501C98D3DAA8503A501B3E3
:100C5000EFC0403D08C49306C4001306840093050A
:100C600044001385C11FEF30201983A70B002320F8
:100C7000FB0083A70A002320FA0083A7C19823A0C2
:100C8000F900EF30C03F6FF0AFDB13058005238024
:100C900004006935E31805F4130590054135E3199F
:100CA00005F4A1BFEFF2CFD813850199EF70C06DA5
:100CB000371501001305C5A8EF70B06C83A5C18678
:100CC00037150100130585A98505EF70906B6FF04E
:100CD0006FD8EFF2EFD27571371A00209387018930
:100CE000130ACA481384819A3EC683270A08032739
:100CF0004A08998F93F7F707B1C703A7C1888D47B3
:100D0000938CC18863C0E70413850199EF70406537
:100D1000931585013705010093840187E18513054B
:100D200005688CA0EF70F06583860400A9471387DF
:100D30001187938441876397F6029440A9EAA388B8
:100D4000018631A81306000681450818EFF04FD13F
:100D50009387C1B49C33138DC1B4639F0726496147
:100D60006FF0CFCDB547E38AF6FC9307A0036394F9
:100D7000F6001C23F9D390409307E005E3CFC7FAB0
:100D80009307B003639AF62285471CA3B9BF938DDE
:100D9000818983A70D00130600061823B38AC702B2
:100DA00013898189B3095401CE962380060063120A
:100DB000071C32479305E0044E85BA97238007004D
:100DC000EFD0E05E630A051A23A0A1883305354100
:100DD00005055695294681452295EFE02045938BE0
:100DE000C18683A70B00138DC1892320AD00850721
:100DF000138B0188938AC1899389C186630EF50498
:100E000003A50D0013060006B70501003305A60271
:100E1000938505692295EFD0205D1DED3705010012
:100E200013058569EF70F055370501001305056A54
:100E3000EF70305583A50B00370401001305446D96
:100E4000EF70305483250D001305446DEF7070531F
:100E5000913D23A0040021B703250900930B000650
:100E60009305A002B30B7503B30D74016E85EFD02B
:100E700000543DC18147014DEE861306A002338721
:100E8000F600030707006308C7008507E207E1874C
:100E9000334DA701EDB72320AB003305B541050560
:100EA0005E9581452295EFE00023EFB0305D630849
:100EB000A5053705010013058569EF70904C3705CE
:100EC00001001305856DEF70D04B3715010083A528
:100ED0000900130585A99DBF370501001305856924
:100EE000EF70304A370501001305856FEF707049C8
:100EF0003705010083A509001305456D81BF83A750
:100F00000A0023A0F90083290900130500069305B0
:100F10007004B3093503B30A34015685EFD0204974
:100F200005CD23A0A1883305554105054E95814582
:100F30002295EFE0401AEFB070548D4763EEA700A2
:100F400083C78186ADE783C7C1B499E73705010040
:100F500013050575EF70F0428327090011478507D7
:100F6000B3E7E7022320F90083A70C00850723A03D
:100F7000FC0023A0040095BB9305A0024E85EFD092
:100F8000004351D13705010013058569EF70703FAB
:100F90003705010013054572EF70B03E83A5C18689
:100FA000370501001305456DEF70B03D5DB53705A0
:100FB00001001305457579BF1C23E39807D283A769
:100FC00081891307160098C013070006B387E7024C
:100FD000A297B29794A311BB83A74187138441873B
:100FE000E39F07D6814C1389819A9389018903274E
:100FF0004D2683270D26E304F7D603A7C1888D4726
:10100000138CC188E3CDE7D413058D25EF60300242
:101010002388A186A947938D11876304F502B547FC
:101020006301F5029307A0036315F50083C70D0064
:1010300089CB18409307E00563C5E700FD576319A6
:10104000F50E03270D2683274D266311F708370574
:1010500001001305C57CEF70D03237050100130580
:10106000057EEF70103283A7C1989306C00323A0BA
:10107000F18C03A6C18B3D67130707A6918F33D769
:10108000E70237F63600130606E8B7050100938538
:10109000457F0808B376D70233D6C702EF70B03069
:1010A0003705010013058561EF70B02D371501007C
:1010B0000C08130585B6EF70D02C1385C1B4EF1062
:1010C000102C85451385C1B4EF10501483C70D0053
:1010D00099CF0818EFF0DF94814713070006141822
:1010E000BE96238006008507E39BE7FE814C1040F7
:1010F000E30706C4938681899C4213070006238078
:101100000D003387E702232004004A97329723001B
:10111000070005463387F90010A303270C00850755
:1011200005072320EC001147B3E7E7029CC2C1B5D5
:101130009307B0036310F50285472380FD0018096B
:1011400093871C00BA9C2380ACFA939C870193DCA4
:101150008C4171BD83C70D00FDF383A78189930680
:10116000170014C093060006B387D702CA97BA9730
:1011700088A3374700401375F50F8357074093F74F
:101180000708E5DF420541812312A7408DB503A77B
:10119000C19823A6E18A03A7418993870189BA9759
:1011A0009C2399EBEFF2CF883705010013050575F5
:1011B000EF70301D6FF00F8A8280EFF2EF8493841E
:1011C000C11F1384C120014993890186138A418A72
:1011D000914AB387290103850700EFF03F9429CD99
:1011E000EFF0BF8DB3072A01AA8B882311E59387FF
:1011F000618B88231375F50FEFC0704C8C40EFC0E6
:10120000005BDE85EFB0106208C00509910411048F
:10121000E31159FD13056004EFF05F9001CDEFF08D
:10122000DF89930500002A84EFC040476354A00083
:1012300023A481806FF0CF809C401CC0F9B7EFE2FF
:101240003FFFA53F13059004EFF05F8D1384C19914
:1012500011CDEFF09F8608C01305A004EFF01F8C9E
:1012600011C9EFF09F8548C06FE0DFFE93070000D3
:101270001CC0DDB7930700005CC0FDB7EFE25FFB69
:1012800003A9C1212A840841CA859384C121EFC0E2
:101290004049635405002320240103A94400484029
:1012A000CA85EFC00048635405002322240184440A
:1012B0000844A685EFC0E0466353050004C4B704A4
:1012C000002003A94403084093844403CA85EFC067
:1012D000E03C6354A0002320240103A944004840BB
:1012E000CA85EFC0A03B6354A0002322240184449C
:1012F0000844A685EFC0803A6353A00004C46FE0A1
:101300007FF5EFE2FFEF1385C1208D3F03A7C19862
:101310009384C12003A5C11F8C4023A6E18A83AA20
:101320008180EFC0E031CA8C1384C11F371A0100DD
:10133000938D4121138D012131E1CC404840EFC014
:1013400020300DED83254ABA5685EFC040042A8728
:101350009387018A938681211386412193850121F8
:101360001385C120EF20C0089C401CC0DC405CC03D
:101370009C441CC4DC445CC46FE05FEC03A50181A9
:10138000EFC0F033D685EFC0804283254ABAEFC064
:101390000000B717010083A58781EFB0507F2A872F
:1013A0009387018A938681216E86EA851385C12001
:1013B00055BFEFE25FE61384C1992A8948400111C5
:1013C0001379F90FEFC0F0482ACC08402ECEEFC0B9
:1013D00050486246F246EF705044EFC050522ACC5B
:1013E00003A50181EFC0B02D83A58180EFC0203C13
:1013F000B717010083A547BAEFB07079B71701009E
:1014000083A58781EFB0B07883C7018AE2489384CF
:10141000C1203EC24AC02A888947054781461386B3
:10142000C1999385C1201385C11F1384C11FEF107B
:10143000E0779C401CC0DC405CC09C441CC4DC4485
:101440005CC403A7C19823A6E18A05616FE0FFDFB2
:10145000EFE21FDE996773900780EF307001054659
:10146000C14537150140EF6090380546C145371535
:101470000140EF60D0370546C14537150140EF60A8
:1014800010370546C14537150140EF605036370526
:10149000010013058561EF70C06E3715010013055B
:1014A00005AAEF70006E37150100130505F9EF70FE
:1014B000406DEFF02FBB01A0EFE29FD71386C18AEA
:1014C00083A6C1980C4203A641888D8E9387C18A5A
:1014D0006374D60011C2AD3F83A64180A1CA03A7A1
:1014E000C1989C43B307F74063F2F60403C7018D2C
:1014F00083C7118D93F7F70F639AE7020546C1453D
:1015000037150140EF60B02E0546C1453715014043
:10151000EF60F02D0546C14537150140EF60302DD5
:101520000546C14537150140EF60702CEF10D069BA
:101530006FE05FD2EFE2DFCFEF3080739387818679
:1015400098231DE3054798A303A7C186370501002B
:101550001305856123A4E188EF70A06237050100BF
:1015600013054575EF70E0616FE0DFCE03C581863E
:101570008280EFE2FFCB83C7018AAA84130540056E
:10158000238CF186EFF08FD909E501494A856FE098
:101590007FCC2A89EFF06FD2EFC0100D13848187C2
:1015A0001375F50F08A075D1370501001305856186
:1015B000EF70205D930790066384F40463CE970078
:1015C000930780066387F4020C203715010013058A
:1015D00085B6EF70005B5DBF9307D0066387F402AA
:1015E0009307A00DE392F4FE37150100130545A7FC
:1015F00029A0371501001305C5A2EF708058E9B77F
:1016000037150100130545A4CDBF3715010013059B
:10161000C5A5E5B7EFE2DFBE5D7113057004EFF01D
:10162000EFCF63060516EFF04FC9EFC0C07D9147BD
:101630006303F50C63CCA7008947630EF50863C507
:10164000A70A63500508EFF09FB459A09307A005BF
:101650006303F51063C8A700F147E316F5FEEFF04A
:101660000FCFD5B79307B005630AF50E9307C005F2
:10167000E31BF5FC13055004EFF04FCA19E1EF30FE
:1016800080161384C11F81449389018613898120A8
:10169000138A81B2930A8400B387990003850700F7
:1016A000EFF0CFC711C98D47639EF40AEFF0EFC08A
:1016B00048C44A85EF20500385049147E39EF4FC1B
:1016C00059B783C7818681EBEFF03FAFEFF07FC35F
:1016D00061616FE0BFB683C7818699E7EFF03FB6DF
:1016E0000545EFF01FCDEDB783C7818689E7EFF0A1
:1016F0001FB50145FDB713050005EFF02FC20144EA
:1017000011C5EFF08FBBEFC020762A84130530059A
:10171000EFF0CFC001CDEFF04FBAB707010083A5BE
:10172000C763EFC0C008EFC020742A84EF30A00B5D
:1017300003A7C19883A6C198BE843A9423A6D18AF0
:1017400083A7C198E3F187F0EF601048EF30802C59
:10175000EFF09FD6F5B7238B018AF5B50547238BAC
:10176000E18AD5B5EFF06FB593972400330BF40001
:10177000D297AA858843EFB0F00A2320AB00CA862F
:101780005686930544002285EF20006735B7130580
:10179000D004EFF0AFB819E16F00F051EFF0EFB106
:1017A000EFC0606613079006AA876300E566634E84
:1017B000A7147147630BE5506342A70A5947630DAD
:1017C000E546634EA7044947630DE50C634EA70247
:1017D0004547E31AE5E60146C14537150140EF608C
:1017E00010010146C14537150140EF605000014628
:1017F000C14537150140EF60807F0146C14537156F
:101800000140EF60C07E81B551476306E540554712
:10181000E31BE5E21385C1B4EF1040012DB5654728
:10182000630EE5466341A7025D47630CE5406147EF
:10183000E31BE5E01385C1B4EF10C00303A7C19813
:1018400023AEE18A09B569476300E5466D47E31CAD
:10185000E5DE1385C1B4EF106010F5B31307200562
:10186000630CE56A6341A7027947630DE54A634764
:10187000E54A7D476301E55613071005E315E5DCEE
:10188000EFE05FFEC9B313075005630CE572634DCB
:10189000A702130730056305E56813074005E31445
:1018A000E5DA13053005EFF06FA763000568EFF088
:1018B000CFA0B707010083A5C763EFB0506FEFC09B
:1018C000A05A23A2A18041B31307C005630DE570A0
:1018D00013078006E319E5D613058006EFF07FC9EC
:1018E000E31305D613053005EFF04FA301CDEFF05C
:1018F000CF9C03C48187938701970A043E94EFC06D
:10190000805008C0EF30A0363DBB1307C00CE30683
:10191000E5186349A72213077007E300E508634051
:10192000A71C130720076306E5766346A71813076D
:10193000D006E31AE5D01305D006EFF09FC3E314F9
:1019400005D013053005EFF06F9D93848187138ACE
:10195000019709C9EFF06F968020EFC0C04A0A04D2
:10196000529408C0EF30A03003C904000A09B3073D
:101970002A01884383AAC198B71B0100EFC02054F5
:10198000938701963E9983270900AA8C7D593EC40E
:10199000B717010003AC878493890196371D0100B6
:1019A000E28D83A7C1981307803EB3875741637CBC
:1019B000F708B71701001385078BEF70801C9C2078
:1019C0008A07CE978843EFC0C068B71701002A8600
:1019D000AE861385478BEF70C01AB71701001385C9
:1019E000C78BEF70001A8C2013854B8AEF7060193B
:1019F00013050D8CEF70E01803A50197EFC0204C84
:101A0000EFC06040AA8513854B8AEF7080173715A9
:101A100001001305458CEF70C016FD576301F94AAC
:101A200083A7C1988965938505719D8DCA95130714
:101A3000803EB3D5E50237150100130585A9EF7087
:101A4000401483AAC198EF20F07CEFF0FFA6FD5769
:101A5000631CF948A2456685EFB050449C208A0774
:101A60003EC63307FA006353A0460843EFC0204543
:101A7000EE85EFB0107DB247CE978C43EFB0704A41
:101A8000E341A0F203A9C198FD57E30CF9F0634BC1
:101A9000090003A7C19889679387F7703307274127
:101AA000E3F1E7F003A7C19823AEE18A03A7C19849
:101AB00023A6E18A49BE130730076304E55C1307D8
:101AC0005007E312E5B803A501889305A0021505A8
:101AD000EFC0F00DE30905B6A30F05FEADB6130781
:101AE000C0086306E530634EA70013078007630351
:101AF000E56A130790070545E397E7B4EF2000591F
:101B000099B61307900C630BE5741307B00C0144EE
:101B1000E31BE5B2371900209384018613090925D8
:101B20009149B387840003850700EFE03FFF19C5A3
:101B3000EFE0BFF893172400CA9788C30504E312A7
:101B400034FF11B61307D012E302E504634DA70278
:101B50001307E00C6305E57E6347E5761307C00DC8
:101B6000E307E5001307D00DE31FE5AC13053005CF
:101B7000EFE0DFFAE30905ACEFE03FF4EFC0A028A7
:101B800023A6A180C9B413070019E302E512634438
:101B9000A7061307E012E307E50E1307F012E3149C
:101BA000E5AA13055004EFE07FF78144E30B050E2F
:101BB000EFE0BFF0EFC02025AA84E354050EB7176D
:101BC000010003A4478413053005EFE03FF501C58C
:101BD000EFE0BFEE2A8413053004EFE03FF4154632
:101BE00011C5EFE09FEDEFC000222A86A685228571
:101BF000EF30000A89BC1307003A6306E5181307A3
:101C0000703EE312E5A42384018603A7818823A6FE
:101C1000E186EFF0FF833715010013054586EF607D
:101C200050761385C1B4EF00903D371501001305C0
:101C30004587EF60107501BC1385C1B4EF00F04219
:101C400019B49389418903A40900130900063304D8
:101C500089029384819AB71501009385458833855D
:101C60008400EFC06078E300059E93054400A695CC
:101C70000808EFC040750C0805461385C1B4EF0095
:101C8000304383A50900B305B902A69537150100B5
:101C9000130545A2EF60F06E6FF0FF9A1385C1B493
:101CA000EF00F03D6FF03F9A1384C1B43C20E38C09
:101CB000079813053005EFE07FE6E3060598EFE0AF
:101CC000FFE22322A4266FF01F9803A50188930545
:101CD000A002138401881105EFC0606DAA8415C5A8
:101CE00003A54189930700069305E004B387A70283
:101CF0001385819A3E95EFC0806B93050002EFC07B
:101D0000006B050508C0A38F04FE0C400146910539
:101D10001385C1B4EF00D0396FF0FF92238601B470
:101D20006FF07F929387C1B4BC23E38E0790138535
:101D3000C1B4EF00505003A501889305A00293841D
:101D400001881105EFC0A0662A8915C503A5418940
:101D5000930700069305E004B387A7021385819AD1
:101D60003E95EFC0C06493050002EFC040640505D6
:101D700088C0A30F09FE8C401385C1B49105EF0004
:101D8000103C6FF05F8C03A501889305A0021384BB
:101D900001881505EFC0A061AA8415C503A5418976
:101DA000930700069305E004B387A7021385819A81
:101DB0003E95EFC0C05F93050002EFC0405F050590
:101DC00008C0A38F04FE0C401385C1B49505EF0035
:101DD000F0356FF05F8703A7C19837050100130541
:101DE000856123A0E18CEF60D0590C0845B513053F
:101DF0003005EFE0BFD2E3080584EFE01FCCEFC071
:101E0000800023AAA1966FF01F84EFF08FF6E31CE9
:101E10000582371501001305C588EF6090561384BD
:101E200081871C20138701968A07BA978843B714C5
:101E30000100EFC000222A86AE8613854489EF6038
:101E40005054371501001305C589EF6090531C20CD
:101E5000138701978A07BA978843EFC04006EFC0FF
:101E6000401F2A86AE8613854489EF60905137154E
:101E700001001305058AEF60D0500820EF20302ABA
:101E8000AA85371501001305458AEF60904F371575
:101E900001001305858AEF60D04E7D55EF20302874
:101EA000AA8537150100130585B6EF60904D3715EB
:101EB0000100130505F9EF60D04C6FF07F813715F5
:101EC00001001305858CEF60D04BA5BE0843EFB031
:101ED000107FE285EFB00015B247CE978C43EFB08C
:101EE000E07BE35105BA75BC9C208A073387F90073
:101EF000D29788433AC6EFB0907C3247AA85084310
:101F0000EFB03034EFB030709357F5413D8D1D8DFB
:101F1000A947E3D0A7B8BDB6A383018A6FF0AFF29B
:101F20000547A383E18A6FF00FF213058005EFE008
:101F3000FFBE29CDEF20300B13058005EFE01FBE5B
:101F400019C50546C14537150140EF60400A130524
:101F50009005EFE0BFBC19C50546C14537150140E6
:101F6000EF60E0081305A005EFE05FBB19C505466B
:101F7000C14537150140EF60800713055004EFE0BD
:101F8000FFB9630205EC05466FF05F871305900506
:101F9000EFE0DFB845F11305A005EFE03FB859F9D0
:101FA00013055004EFE09FB751F5EF20D00305462D
:101FB000C14537150140EF608003EF20700D6FF0D1
:101FC0008FE813053005EFE07FB5EFE01FAFB707EF
:101FD000010083A5C763EFB0807DEFB0F06823A256
:101FE000A1886FF04FE6B717010003ACC784B71A9A
:101FF00000200144138B01869384012D938A0A25C6
:10200000B3078B0003850700EFE05FB131CD8D474B
:102010006312F406EFE07FAAE2852A8AEFB06070CF
:1020200063520504C844D285EFB06036AA89AA85F8
:1020300003A5418D1389012CEFB0607723AAA18CF1
:1020400003A5CA00CE85EFB0807623A6AA0003259B
:10205000C900EFB03073CE85EFB06075EFB0D060DF
:102060002326A90023A6440105049147E31AF4F8A6
:102070006FF06FDDEFE07FA493172400A69788C36D
:10208000E5B7371501001305058DEF6050346FF08B
:102090008FDB371501001305C596EF60902E138472
:1020A000C11F0840B7140100EFB0B07A2A86AE868F
:1020B000138584A2EF60F02C3715010013050597F6
:1020C000EF60302C4840EFB0D0782A86AE8613857A
:1020D00084A2EF60102B3715010013054597EF60C0
:1020E000502A0844EFB0F0762A86AE86138584A283
:1020F000EF6030293715010013058597EF607028D0
:102100004844EFB010752A8637150100AE861305D6
:10211000C597EF6010273715010013054598EF604C
:1021200050260145EF20C074EFB0705983A5012DF2
:102130001384012DEFB0A025EFB0B0712A86AE86D2
:10214000138584A2EF60F0230545EF206072EFB0A5
:1021500010574C40EFB0A023EFB0B06F2A86371570
:102160000100AE8613050599EF60B0210945EF2007
:102170002070EFB0D0540C44EFB06021EFB0706D20
:102180002A8637150100AE8613058599EF60701F0A
:102190006FF06FCB01456FF07F9637150100130587
:1021A000459AEF60101E371501001305059CEF607E
:1021B000501D3715014093050008130505C0EF3089
:1021C00060678547631DF506B71501009385C585D2
:1021D00037140100130584B6EF60B01A37150100FB
:1021E0001305859CEF60F019371501409305002019
:1021F000130505C0EF30006485476317F504B71574
:1022000001009385C585130584B6EF6090173715D7
:1022100001001305059DEF60D016371501409305A9
:102220000040130505C0EF30E06085476313F502F9
:10223000B71501009385C585130584B6A1BCB715F4
:1022400001009385058569B7B7150100938505855C
:102250005DBFB715010093850585F9BF37190020CB
:1022600001449384018613090924114AB387840029
:1022700003850700EFE09F8A11C9EFE01F849319DF
:102280002400CA99EFB0503E23A0A9000504E31F23
:1022900044FDEF1050496FF00FBB13053005EFE020
:1022A000FF8709C5EFE07F8123A6A18C13054005B8
:1022B000EFE0DF8619E16FF00FB9EFE01F8023A692
:1022C000A18E6FF04FB813053005EFE03F8509C5CB
:1022D000EFE0AFFE23A0A18E13054005EFE01F84C1
:1022E00009C5EFE08FFD23A4A18E13052004EFE0C4
:1022F000FF8219C5EFE06FFCEFB0103723A2A18E6B
:1023000013058005EFE09F8109C5EFE00FFB23ACCB
:10231000A18C1305A005EFE07F8009C5EFE0EFF980
:1023200023AEA18C13055004EFE04FFF19E16FF0CD
:102330008FB1EFE08FF823AAA18C6FF0CFB00144EA
:1023400093840186138981B28D49B3878400038504
:102350000700EFE0AFFC19C5EFE02FF6931724005C
:10236000CA9788C30504E31234FF6FF0CFAD13059D
:102370003005EFE0AFFA19E16FF0EFACEFE0EFF30B
:10238000EFB0702823A8A1806FF0EFAB1305000514
:10239000EFE0CFF809C5EFE04FF223A8A1821305C3
:1023A0009004EFE0AFF719C5EFE02FF1EF20507286
:1023B00023A6A18213054004EFE04FF619C5EFE014
:1023C000CFEFEF20F07423A4A18213053004EFE0D7
:1023D000EFF409C5EFE06FEE23A2A182EF20605277
:1023E0003705010013050575EF60A0793715010069
:1023F0001305859DEF60E07803A501833714010084
:10240000EFB030452A86AE86130584A2EF60607770
:10241000371501001305C59DEF60A07603A5C182A5
:10242000EF20106DEFB0F0422A86AE86130584A22D
:10243000EF602075371501001305059EEF6060748D
:1024400003A58182EF20D06EEFB0B0402A86AE8621
:10245000130584A2EF60E072371501001305459E55
:10246000EF60207203A54182EFB0B03E2A86AE86AF
:10247000130584A2EF60E07037150100130505F91C
:102480006FF02FFB13053005EFE04FE993070000D5
:1024900001C5EFE08FE2AA873E85EF1070286FF04C
:1024A0008F9AB717010003A407846FF0CFF1EF20D4
:1024B00080336FF04F9913054005EFE02FE6B70426
:1024C000010051C1EFE06FDFEFB0101A1375F50F87
:1024D0001384818708A015C513858461EF60606A45
:1024E00013054005EF50106F0C2037150100130540
:1024F0004589EF600069371501001305859E6FF06F
:102500004FF313056004EFE06FE101CDEFE0EFDA88
:10251000930500002A84EFB060186354A00023A440
:10252000818013858461EF60C06537150100130554
:10253000C59FEF6000653715010083C5018A13054B
:1025400085C06FF02FF513858461EF6080633715C8
:102550000100130505A1EF60C06283A541899307BF
:10256000000637150100B387B7029385819A1305DA
:1025700045A2BE95EF60E060371501001305458167
:102580006FF02FEBEFD25FC8EFE04FB0894A1384B2
:10259000819A930B0006114C83A7C1881389C188C7
:1025A00063C4FA00EFE0EFF281451385C1B4B929A5
:1025B0008327090095C7938441898C401385C1B452
:1025C000B385BB02A2954929EFF0CF848327090088
:1025D000FD172320F9009C408507B3E787039CC0C3
:1025E000EF204043EFE05FEDEF10F01975B7EFD249
:1025F0003FC41385C1B449206FD0DFC5EFD25FC39C
:102600003754004093055052130504C0EF30900832
:1026100039C19387812283A60708035644C083A546
:1026200047081387160042061377F70341826306B3
:10263000B700BE9690A223A0E70883A7C19837559C
:1026400000409387470693055052130505C023A207
:10265000F18CEF30F00737540040930560621305AA
:1026600004C0EF30300319C593056062130504C040
:10267000EF3010066FD01FBEEFD29FBB9307C55936
:10268000232AF548B7150100930700102A84232C4C
:10269000F5482310050023010500938545DA13054D
:1026A000C549EFB0505285472300F46A83A7C1980B
:1026B0009387077D232EF4686FD0DFB9EFD25FB424
:1026C000130A452341112A845285AE89EF40107EBA
:1026D00071E54E85EFB030509307C44701493EC4C1
:1026E000130BE002B71B0100371C0100B38AA900DD
:1026F000B71C0100371D0100930D5448A2455285B7
:10270000EF508001AA843DE183075448A5C3E387C5
:1027100067FF8347444813F767006DF30326444976
:102720000307060011E36E860327446A0509420980
:10273000135909011DE3C18B95CF93854CC3568571
:10274000EF606046CE8513058DC3EF608043CE8574
:102750002285AD3729ED23800A008327446A094783
:102760006398E7028317846AE39A27F92685410173
:102770006FD0DFAC93854B88328532C6EFB0D04640
:1027800069DD3246CE851305CCC4EF60803FF1B7DA
:102790000547E395E7F62314246B8DB7AA84AA8531
:1027A00037150100130505C6EF60A03DC1B7AA8427
:1027B00075BFEFD2FFA741112E85B28532C6EF401B
:1027C000F06E2A84324601E937150100B2851305FF
:1027D00085C7EF60003B228541016FD0BFA7EFD2D4
:1027E0003FA541112E85B28532C6EF40F0723246C8
:1027F0008307960091E3114541016FD0BFA5EFD249
:102800003FA3117191672A84938707A31306B00F22
:10281000814548003EC0EFD0BFA48A852322046AC8
:102820002285EFF0BFE911616FD0DFA23C218DEF6F
:10283000EFD21FA0930545002A840145EF40902A5E
:10284000AA8509C9371501001305C5BEEF606033BD
:102850006FD05FA0371501008145130505C1EF60FA
:10286000403285473CA0EDB78280A30005002301DC
:10287000050082803C2199C385471CB182801C31B0
:1028800099C3A30005008280EFD29F9A4111740082
:102890001305852502C6EF40703D19C537150100A7
:1028A0001305C5D4EF60E02D324541016FD09F9AEA
:1028B0003C21A5CFEFD2DF9741112EC61304852509
:1028C0000DCE37150100130505C9EF60802BB24509
:1028D00005462285EF401023AA8511C9371501004E
:1028E000130505CBEF60E02941016FD0BF96371586
:1028F000010081451305C5CCF5B737150100130557
:10290000C5CEEF600028B24529462285EF40901FD2
:10291000AA8511C537150100130505D1E1B7371593
:10292000010081451305C5D275BF8280EFD25F904B
:1029300085473CB10146EFF0BFF76FD0BF91EFD2B2
:102940003F8F2E85EF40F06301C9AA85371501003E
:10295000130505BBEF60E0226FD0DF8FEFD25F8DF4
:102960003C2195CF2A8437150100130505D8EF6067
:10297000402183250426370501001305456DEF60CE
:1029800040201305F002EF50F0248325442637152C
:102990000100130585B6EF60C01E6FD0BF8B3715E1
:1029A0000100130545D9EF60C01DC5BFEFD25F8898
:1029B0002E852E84EFB03022AA849305E004228570
:1029C000EFB0F01E15ED1385F4FF2295B5471CB14D
:1029D000A9473CA1A301050037050100130585693E
:1029E000EF60201A37150100130585BCEF606019F0
:1029F00037150100130505F9EF60A0186FD09F850A
:102A00009305A002EFB0B01A7D15C9B791E98347CD
:102A1000056A8DC383A7C1980327C56963ECE700E6
:102A20003C212300056A99E7EFD29F80EFF01FE079
:102A30006FD05F828280EFD2AFFF930485252A8416
:102A40002685EF40B03A2685EF401045230004006C
:102A5000A30104006FD01F80EFD28FFD3704002048
:102A60008347C45605498DC7AE84B71501009385C9
:102A700085D62685EFB050171DE51305C456A685EB
:102A8000EFF0DFF21304C4563C3091C7EFE09FB87B
:102A90004A856FD02FFC3705010013050575EF60DF
:102AA000400E0149F5B71305C456EFF0DFF83715AE
:102AB00001001305C5D6EF60C00CD9BFEFD24FF7A8
:102AC00009472322E56A2314B56AB285EFF01FBFD8
:102AD0006FD04FF8EFD2CFF585472322F56A2A84CD
:102AE000EFF0DFBD8315846A37150100130585B645
:102AF000EF6020090355846A6FD0CFF5EFD24FF312
:102B00009305F0021305C549EFB0700A133515009F
:102B10006FD04FF4EFD2CFF11305C549EFB0B00A33
:102B20006FD04FF3AA87038507006305B50001CD79
:102B30008507D5BF2E8581C92380070085070387B8
:102B400007007DFB05458280EFD28FEE9305F002F2
:102B50001305C549EFF01FFD6FD0CFEFEFD24FED5A
:102B60002E849307C549B71501003E859385C5C8D6
:102B7000EFB01002A285EFB0B0016FD0AFEDEFD291
:102B80002FEB2A84EF103046EF10505413058425A4
:102B9000EF409030A3000400EF10904F3715010074
:102BA000130505BEEFD09FCB6FD0CFEAEFD24FE534
:102BB000939A2600330B5601397183240B00BA898E
:102BC000330755012E893E8C0C43834701082A8A1E
:102BD000268542CAC68C3ED032C2EFA0A04412461F
:102BE0008A0933073A01B307360180430C432AC4EC
:102BF00022853EC20A0CEFA0E042B3078901B30B65
:102C00008A0183A50B002AC68843EFA0906383271F
:102C1000C900A2452AC83ED48327CA003ECCB707C4
:102C20000080BD8C3D8CB30759018843EFA07061D3
:102C3000B30739012A8DB2458843EFA09060AA8D71
:102C4000EA852685EFA0B036EE852AD62285EFA04C
:102C50001036B257AA853E85EFA0C03CEE852AD635
:102C60002685EFA0D034EA85AA8D2285EFA03034E6
:102C7000AA856E85EFA0F05CB257BE85EF6020524A
:102C8000930500002A8DEFA0D029635005026A85C4
:102C9000EFB0203CB717010003A687DA83A6C7DA96
:102CA000EF802056EFB0A0452A8D825799CF6A85D4
:102CB000EFB0203AB717010003A687DA83A6C7DA78
:102CC000EF903004EFB0A0432A8DC2471395170050
:102CD0000581EFB000382AD02ED26A85E685EFA0B4
:102CE000102DEFB0003702569256EF600033EFB070
:102CF0000041AA8DEFB0E035B717010003A607DB4E
:102D000083A647DBEF9000296346051C6E85EF60C4
:102D1000A01BEFB06015931D050193DD0D016393BA
:102D20000D00854D6E85EFB08019AA8CAA856A8545
:102D3000EFA0E0652A8D4245E685EFA04065E245BB
:102D40002AC82255EFA0F04FE685EFA040642AD4B0
:102D50006A85EFB00030B716010003A686DB83A6B4
:102D6000C6DB2ACC2ECEEF90402E6247F2473A8641
:102D7000BE86EF90802DB71701002A86AE8603A588
:102D800007DC83A547DCEF90C077EFB0403703A79F
:102D90000B009C00E29723A8E7FE0327CA00AA8C39
:102DA000054A3ADE980056973ACC98004E97814BE8
:102DB0003AD03E8C93170A01C18363F3B711E14700
:102DC00063CC7709EA852685EFA0701EAA89E6857F
:102DD0002285EFA0D01DAA854E85EFA0A024AA8948
:102DE000E6852685EFA0B01CAA84EA852285EFA09F
:102DF000101CAA852685EFA0D04413881B00931BC6
:102E00008801AA8493DB8B414E84A2452685050A5E
:102E1000EFA04021E247B24523A8A7FE2285EFA0FC
:102E200060208257C24523A8A7FE03250CFFEFA010
:102E3000601F2328ACFEA2557255EFA0A01E2ADE0B
:102E40000818EFE0AFC352475C01741830184C18F3
:102E50000818EF00E059B9BF5285EFB04006EA8587
:102E6000EFA0F0142A84EF50F07DAA892285EF604C
:102E7000601283270B0037070080AA8AB3CBE700D4
:102E80009247CE855E858043EFA07012AA84D685D6
:102E90002285EFA0D011AA852685EFA0A018D6859F
:102EA000AA845E85EFA0B010AA8ACE852285EFA005
:102EB0001010AA855685EFA0D0382A84814BB1B76F
:102EC00052475C019306C900130689009305490027
:102ED0004A85392B21616FD06FB6EFD26FB22A8449
:102EE000485D4111AE8B328BEFB0C0092A89284072
:102EF00083298404EFB000092A8C4E85EFA0307C32
:102F000093050000AA8CEFA0A0736300051ECA857C
:102F10004A85EFA0D009AA84E2856285EFA0300936
:102F2000AA852685EFA0F031EFB0A0122A8A668527
:102F3000AE8AEFB000122A86AE86EF80802C2A86F9
:102F4000AE865285D685EF80D01EEFB0401BEF5085
:102F50003062EFA0506BAA846840EFB0A002AA8A4A
:102F600033053041EFA0B07593050000AA89EFA0AA
:102F7000206D630F0516D6855685EFA050032A8A6B
:102F8000CA854A85EFA0B002AA855285EFA0702BB2
:102F9000EFB0200C2A8D4E85AE8DEFB0800B2A86C7
:102FA000AE86EF8000262A86AE866A85EE85EF80A3
:102FB0005018EFB0C014EF503071032A0401EFA095
:102FC0009064B3099A403385A940635F050A93056D
:102FD00000006685EFA0C066630F05106685EFB040
:102FE00040072A86AE862A8DAE8DEF8080212AC4C6
:102FF00052852EC6EFA01079EFB0A0052247B24748
:103000002A86AE863A85BE85EF9020042AC42EC655
:103010006285E285EFA0A079EFB0A0032247B24716
:103020002A86AE863A85BE85EF90A04D2A8CAE8C5E
:103030005685D685EFA0A077EFB0A0012A86AE8690
:103040006285E685EF80E01BB717010003A687E2E3
:1030500083A6C7E22A8CAE8C6A85EE85EF80F07E6F
:103060002A86AE866285E685EF80B00CEFB0200937
:10307000EF501050EFA03059AA84635305008144EB
:10308000014563E34401D2849967739007808347C5
:103090000405E207E187B1E344C8AA94DE8504CCC5
:1030A0004A85EFA0C070EF50B04CEFA0F05B9307E3
:1030B00080076374F50013058007DA8528C04A8508
:1030C000EFA0E06EEF50D04AEFA0105A93078007B0
:1030D0006374F5001305800768C0996793878708B4
:1030E0007390078041016FD06F951305000085B57F
:1030F00013050000C9B5130500009DBFEFD24F9323
:103100004111AA842E8532C6EFA0606A2A84A68562
:103110002685EF9030713246B285EFA04069AA85CE
:103120002285EFA01012EF60A00741016FD08F92AF
:10313000ADC925CAEFD22F8E2E8403A9C50208542B
:10314000B284CA85EFA0C04F21C183479403B9E779
:1031500003AA84024A85D285EFA040546350A0049C
:1031600048581058B7090080D28533453501EFF033
:10317000FFF8AA854A85EFA0C05A63590500485454
:1031800008D48547230CF4026FD02F8C4858105870
:103190008C5433453501EFF07FF6DDB7232424034B
:1031A000CDB78280EFD22F879387018D982319673F
:1031B0007310078003C9118D130787081379F90F5E
:1031C00073100780982333072741318B0DCF80235D
:1031D000014675143D888149138A012E930A4005E2
:1031E000630324036204618411E041447D14137479
:1031F000F40FB3045403CE85D2942685EFF05FF329
:103200004E86A689F1BF6FD04F8435C5834795039D
:10321000BDE3EFD24F80032A850283A98502AE84E5
:103220002A84CE855285EFA0C04F635B05024858C3
:10323000105837090080D28533452501EFF01FEC87
:10324000AA854E85EFA0E04D635E0500805488544A
:10325000A285EFA0E03E09C5854780D4238CF40207
:103260006FC0BFFE485810580C5433452501EFF08D
:10327000FFE82A84E9BF8280EFC2FFF903C4118D01
:1032800081441374F40F01459389012E930A40057C
:10329000414B9387018D9C236304F402330954034B
:1032A00005046204A68561844E994A86EFF0FFF515
:1032B00063136401014426851374F40FCA84D1BFDB
:1032C0000146A685EFF07FF46FC03FF8EFC2DFF351
:1032D00083C4118D4111E204E18401449389012EDC
:1032E000130A4005C14B9387018D9C236389F40425
:1032F000338944034E9905CC8347840381E7834790
:10330000890395C7B3874403832A4402D685CE97A1
:103310008857EFA0C0072AC60854D685EFA020071B
:103320003246AA852285EFF05FBB230C0402850498
:10333000E204E1846393740181444A846DB70DCC47
:1033400044502685EFA0F050B71701002A86AE86BC
:1033500003A507E383A547E3EF80A05DEFA0305A04
:103360002AC60854A685EFA080023246AA85228587
:10337000EFF0BFB6230C040241016FC07FECEFC237
:103380003FEBEFF03FE2EFF03FEFEFF03FF46FC0C5
:103390007FEC2388018CA388018CB71700209387CA
:1033A000072623A0070023A2070023A4070023A6C3
:1033B00007009387012B1307000098C3D8C398C751
:1033C000D8C723A4E18C82809386118D1387018D49
:1033D0008C2210231376F60F630BB6009C2293F712
:1033E000F70F14236385D7008507BD8BDDBF82806F
:1033F000EFC21FE1BA8C3E8B9387018D9C235971DC
:103400001387018D8507E207E1873EC63ACA324736
:10341000C147AE8BB28936896313F70002C6938722
:10342000118D9C233247631BF7002AC8EF40D079E7
:10343000EF10405EEFE04F884245D5B79384012DF1
:103440008C40084137040100138A012DEFA020367B
:1034500083250464EF90103DEF501027EFA0B01AC1
:10346000CC40AA8A03A50B00EFA060348325046436
:10347000EF90503BEF505025EFA0F0188C44AA8BF2
:1034800003A50900EFA0A03283250464EF909039D2
:10349000EF509023EFA03017CC442A8C032509006D
:1034A000EFA0E03083250464EF90D037EF50D021B7
:1034B000EFA07015B717002013870726584722C8BA
:1034C0003ED42A89938907266304E50A83C7018AC3
:1034D000138701968A07BA978C4303A58181EFA0D1
:1034E000E01B6356A002370501001305856123A682
:1034F0002901EF50006937150100130585DEEF50F3
:10350000406837150100130505F9EF50806783A760
:10351000C900B307F94013D5F741A98F3385A740F8
:10352000EFA0F019B717010083A587812A8403252E
:10353000CA00EFA0C027AA85EF90D02EAA852285C9
:10354000EFA0C0156356A002370501001305856181
:1035500023A62901EF50E06237150100130545E06D
:10356000EF50206237150100130505F9EF50606137
:10357000D24713074005802383A509009387012EB6
:103580001374F40F3307E4029384012EBA9723884F
:1035900007042380070263D5BA0005472380E702AA
:1035A00003A5490063DDAB00130740053307E402C0
:1035B00026978347070293E727002300F70283A695
:1035C0008900635DDC00130740053307E40226979A
:1035D0008347070293E747002300F70203A7C900C8
:1035E000635DE900130640053306C402269683474F
:1035F000060293E787002300F602B387BA4013D68A
:10360000F7413348F6003308C8403386AB40935740
:10361000F6413D8EB306DC401D8E93D7F641BD8E3C
:103620003307E9409D8E9357F7413D8F1D8F83A748
:10363000C18093084005B30814033307F7029307CA
:103640004006A69823A0080123A2C80023A4D800FE
:10365000B347F702368723A6F80063D3F6003E8708
:103660006347C7786346070163D5D700B68711A0C3
:10367000C287130740053307E402954626971CCB03
:1036800063FBF65C83A7818A7CC783470B00A3009A
:10369000F7026388BA000146C14537150140EF4083
:1036A000101593074005B307F402A697DC4399C7AA
:1036B0000146C14537150140EF407013930740059F
:1036C000B307F402A6979C4799C70146C145371531
:1036D0000140EF40D011130B4005330B6403269BD0
:1036E0008327CB00639C075603AB818EE6855A8502
:1036F000EF90D07A6343A000668B03A50900338561
:10370000AA40EFA0C07B83250A00EF905048AAC8CA
:103710002AD003A549003385AB40EFA0407A83252A
:103720004A00EF90D046AACA2A8D03A58900330526
:10373000AC40EFA0C07883258A00EF905045AACC1A
:10374000AA8C03A5C9003305A940EFA040778325C3
:10375000CA00EF90D043AA8903A5C180EFA02076CC
:10376000AA854E85EFA0A004B717010083A5878125
:10377000EF90F04193074005B307F402AACE154736
:103780008256A69790436368C74ED0436365C74E81
:1037900090476362C74E0605058188DB93074005A5
:1037A000B307F402370A010003258A65A69783ACA4
:1037B0000703E685EF90B03DDA85EF90507FD24762
:1037C0001387118D9C23182352D0AA89998F93F7C0
:1037D000F70F13FBF7003ECC1307EBFF954763ECA5
:1037E000E706EFA01007B71701002A86AE8603A5EB
:1037F00007DD83A547DDEF80C013B717010003A6DF
:1038000087DB83A6C7DBEF70D01FEF50E040EF905F
:10381000604D2A8A03A5418E637FAA023305454184
:10382000060533556503EFA0E075C24783A507641D
:10383000EF90407FEF5040692AD25285EFA080740C
:103840009255EF90207EB7170100AA8503A587DC6B
:10385000EF90F033AA89130A4005330A4403CE855A
:103860006685EF90D074AA8D014D269A2322AA0274
:1038700003250A01EFA00071CE852A8BEF903073EB
:10388000EF50004FEFA0405E825737070080232E95
:10389000AA0203AA87659347F7FF371700203ED691
:1038A000930707252AD23ED89C083387A7010C43EB
:1038B0004E85EF90D06F9C103387A701B25708C395
:1038C0003377F500C257BA853ADEB386A701944232
:1038D000368536DCEF90F06463500502E25672578D
:1038E0003685BA85EF90B02AD2852ADCEF90105B3E
:1038F0006344A00062573A8A110DC147E316FDFAEE
:103900008257528583A58765EF90B06163540504A3
:103910009309010603A50900D2859109EF9030694A
:1039200023AEA9FE9C18E39737FF93094005B3091E
:103930003403D2856E85EF909067A69923A2A902E1
:103940001255EFA02064D285EF907066EFA0C051B1
:1039500023AEA902130A4005330A4403E6855A85BB
:10396000EF90F022AA89269A832D0A0063930D34E2
:1039700083274A00639F073283278A00639B0732AD
:1039800083A5C18EEF90B062EF50803EEFA0C04D96
:103990002324AA04130A4005330A4403269A032564
:1039A0008A04EFA0205ECE852A8BEF90501E232A3A
:1039B000AA025A85EFA0E069B717010003A687DDC8
:1039C00083A6C7DDEF806068EF90402BC247232EAF
:1039D000AA0003A5818D83A50764138D818DEF90C7
:1039E000105DC2472A8A03A5C18D83A50764A65C22
:1039F000EF90F05B93951C008581AA89EF9070523F
:103A00009387C18D3ED263590500D2854E85EF90D4
:103A1000F0486343A0004E8AC24703A5418D83A5A9
:103A20000764365BEF90B05893151B008581AA8917
:103A3000EF90304F9387418D3ED663590500D28574
:103A40004E85EF90B0456343A0004E8A9307400532
:103A5000B307F402D285A69783A947024E85EF905B
:103A6000F0436343A0004E8AE2471387818CB98BF1
:103A70003AC8D289638C0712832907004E85EFA0CC
:103A8000405DB717010003A607DE83A647DEEF807F
:103A90008045635CA0349387012B8C430655EF90DF
:103AA000507AEFA0005B9387012B2AD82EDA1655A7
:103AB000CC43EF901079EFA0C0592A86AE86EF80F4
:103AC000C0584258D2582ACC4286C68642852ECE4D
:103AD000C685EF808057F24762472A86AE863A85D0
:103AE000BE85EF700072EF500060EFA04061930759
:103AF0004005B307F402032D0D00AA852AD86A8574
:103B0000A697DC533ECCEF90D041635C052C425726
:103B10006A85BA85EF90B0072A8D9387012B8C4771
:103B20006685EF9010729257931C150093DC1C0071
:103B30009C43E6853E853ED0EF90B03E635E050037
:103B40008257E6853E85EF909004EA85AA8CEF9037
:103B5000F0346343A000668D9387012BCC475A85D0
:103B6000EF90306EB257131B1500135B1B0083AC34
:103B70000700DA856685EF90D03A635D0500DA8547
:103B80006685EF90D000EA852A8BEF903031634351
:103B9000A0005A8DE2456A85EF9070412A8BAA8574
:103BA0004E85EF90103863430500DA89930740058E
:103BB000B307F402A697C85B23A63703905BB71739
:103BC000010083A5C7DCB70700803D8DEFF00FD360
:103BD000CE852A8BEF90902C6343A000DA8993075F
:103BE00040053304F4025A85A294C05023A4340340
:103BF000A285EF90B02A1345F5FF85477D814146A8
:103C0000A38CA402238CF4028C101385012BEFA04B
:103C1000006DC247A285528580C3EF9040772AC8C5
:103C2000A2854E85EF90A0764246AA852685EFF0C4
:103C3000CFAA52471C8641468C001CA3A257D6C06F
:103C4000DEC213850726E2C4CAC6EFA04069EFF0C2
:103C50000FF3EF00004465616FC04FDE0146C145C0
:103C600037150140EF40A0388327CB00E38E07A62D
:103C700003AB018EA5BCB6853685EF905033AA897B
:103C8000EA856A85EF90B032AA854E85EF9080393B
:103C9000AA89E6856685EF909031AA854E85EF90DA
:103CA0006038EF50E04F93074005B307F402A69742
:103CB000EDB4930C4005B30C940383A5C18C4E85E1
:103CC000EF90F02EEF50C00AEFA0001A03AA012CCB
:103CD000138D012CA69C23A4AC04EFA0A02A2AD209
:103CE0006E85EFA0C01D9257AA853E85EF90302CBF
:103CF000DA85EF90C069AA8D5285EFA0A028AA8529
:103D00006E85EF90B0196354A00023A44C05930C6A
:103D10004005B30C9403032A4D00A69C03A58C0414
:103D2000EFA04026AA8D03A54C00EFA04019AA855C
:103D30006E85EF90D027DA85EF906065AA8D528569
:103D4000EFA04024AA856E85EF9050156354A00023
:103D500023A44C05930C4005B30C9403032ACD0017
:103D6000A69C03A58C04EFA0E021AA8D03A5CC009E
:103D7000EFA0E014AA856E85EF907023DA85EF90AE
:103D80000061AA8D5285EFA0E01FAA856E85EF9095
:103D9000F0106354A00023A44C05930C4005B30C11
:103DA0009403032A8D00A69C03A58C04EFA0801D1C
:103DB0002A8D03A58C00EFA08010AA856A85EF905C
:103DC000101FDA85EF90A05C2A8B5285EFA0801B34
:103DD000AA855A85EF90900CE35EA0BA23A44C0507
:103DE00055BE825703AD87650DBBD289C1B3E34190
:103DF0000689B2876FF0FF87EFC2EFC19384012D70
:103E000008412E8A8C40411136C432C63709010060
:103E1000EF90F01983250964B7190020138409264F
:103E2000EF904020EF50400AEF90F07DCC4008C06A
:103E300003250A00EF90B01783250964EF90801ED8
:103E4000EF508008EF90307C32468C4448C00842E6
:103E5000EF90F01583250964EF90C01CEF50C00669
:103E6000EF90707AA246CC4408C48842EF90301498
:103E700083250964EF90001BEF500005EF90B078A8
:103E800048C49306C40013068400930544001385B8
:103E90000926EF00F0171307000023A4E18C938795
:103EA000012B98C3D8C398C7D8C741016FC0EFB9D9
:103EB000EFC20FB883A5812D0841371400201304E9
:103EC0000426EF90D00EB707010083A50764EF909A
:103ED0006015EF40707FEF90107308C413058400E5
:103EE000EF0090156FC00FB7EFC28FB483A5C12D3F
:103EF00008413714002013040426EF90500BB70735
:103F0000010083A50764EF90E011EF40F07BEF9094
:103F1000906F48C41305C400EF00D0136FC08FB377
:103F200023ACA1808280EFC20FAF3719002001447B
:103F30009389012C130909249384012D414AB30765
:103F400089008843B38A8900EFA0C003B387840047
:103F50008C431104EF90B005EF90107123A0AA00DC
:103F6000E31F44FD6FC06FAE83C6018D83C7118D03
:103F700093F7F70F6388D70083C7118D8507BD8B33
:103F8000A388F18C8280EFC2AFAA9387618F9C23B4
:103F900093F7F70F1389618F9384718F1384818F47
:103FA00091EB9C2093F7F70F91E71C2093F7F70F05
:103FB0006385070C3705010013058561EF40703CF0
:103FC000371501001305C5E4EF40B03B83470900F6
:103FD00093F7F70F8DC7B717002003A50728EF90B9
:103FE000106E83A5012DEF90803AEFA080062A86FF
:103FF00037150100AE861305C5E5EF4090389C20CB
:1040000093F7F70F95C7B717002093870728C84382
:10401000EF90F06A83A5412DEF906037EFA0600329
:104020002A8637150100AE86130545E6EF40703548
:104030001C2093F7F70F95C7B71700209387072821
:104040008847EF90D06783A5812DEF904034EFA093
:1040500040002A8637150100AE861305C5E6EF40FD
:10406000503237150100130505F9EF409031230058
:10407000090023800400230004006FC0AF9D238B40
:10408000018EA38B018E238C018E8280238EA180D2
:104090008280EFC2EF99854537050040EF109047C9
:1040A0006FC04F9B2967130707C49387018F636D08
:1040B000A7041567130707E2AA856379A704898116
:1040C000114737450F00130505243345B50298A362
:1040D000930730064205418163E5A704EFC24F957F
:1040E000371501004111130585E32EC6EF407029F5
:1040F000B24537150100130585B6EF40902813052A
:10410000400641016FC00F95BA8555BF0967130777
:1041100007716376A7009355150009475DB70547FA
:104120004DB78280797185453705004022D626D467
:104130004AD24ED052CE56CC5ACA5EC862C666C467
:104140006AC26EC0EF10B040630305448545370571
:104150000040EF10504183A741921384419299EFA0
:1041600083C6018D83C7118D93F7F70F6398D72E00
:104170009305007D37050040EF10703C1C406388BC
:10418000074083C707022388F190858B1389C1906C
:104190009389019193840182638C073205469305CC
:1041A000000237150140EF309064FD579CA083C793
:1041B000C181A1CB3715014093050008130505C047
:1041C000EF10406783C6C185938741903387A6402F
:1041D0003337E0006386A60294239DC214409042C8
:1041E0006350C0023716002083250627944A3716ED
:1041F00000202320B6288545238BB18E2320D900AB
:1042000098A383C70900898B638E072C371A014056
:1042100005469305000413050A80EF30505DFD57F5
:104220009CB083C7C181A1CB9305002013050AC0B0
:10423000EF10406083C6D185938751903387A640A5
:104240003337E0006388A60294238DC610405442A1
:104250006352D002B716002093860627CC42B716C9
:10426000002093860628CCC28545A38BB18E144AC4
:104270002320D90098A383C70900918B6380072866
:10428000371A01400146916513050A80EF30305618
:10429000FD57BCA083C7C181A1CB93050040130586
:1042A0000AC0EF10205983C6E18593876190338758
:1042B000A6403337E0006388A60294238DC61040E1
:1042C00014466352D002B7160020938606278C4608
:1042D000B7160020938606288CC68545238CB18EA0
:1042E000144A2320D90098A383C70900A18B6382B5
:1042F0000722371501400546854513050580EF3037
:10430000104FFD57B7190140BCB0014A938B09C04B
:10431000B71A00208387018F18406356FA209387CD
:10432000819194431843369798C3635BE002054636
:1043300091455E85EF30B04B14409387819198434F
:10434000944A01469145158F98C39C2013870A27EC
:104350001443E207E187B6975E851CC3EF3030490E
:1043600018409387C19194435843369798C3635F2D
:10437000E00205469305000813850980EF303047B9
:1043800014409387C1919843944A014693050008CD
:10439000158F98C39C3013870A275443E207E1879F
:1043A000B697138509805CC3EF307044184093873B
:1043B000019294431847369798C3635DE00205461F
:1043C000C14513850980EF309042144093870192D4
:1043D0009843944A0146C145158F98C3BC20138762
:1043E0000A271447E207E187B697138509801CC79F
:1043F000EF30F03F184093874191944358473697E8
:1044000098C3635DE0020546894513850980EF3056
:10441000103E1440938741919843944A0146894540
:10442000158F98C3BC3013870A275447E207E187EA
:10443000B697138509805CC7EF30703B832709006E
:10444000184085072320F90083270900184B63FCD7
:10445000E70C050A620A135A8A416DBD03C7118D24
:1044600093074005B387E70237170020130707D0EB
:10447000BA97CA3F05472388E7042388E7041CC08E
:1044800023A00190EFF01FC22399A18E0387018F13
:104490002394E1901C4003D50704239AA18EEFF0EA
:1044A0007FC023AEA18EAA8537050040EF103009EA
:1044B0001C409C4B8583B307F04023ACF19023AEA6
:1044C000F19023A0F19223AAF19023A601907DB14F
:1044D00001469305000237150140EF305031854702
:1044E0009CA005B337150140014693050004130550
:1044F0000580EF30D02F85479CB0B5BB3715014004
:104500000546916513050580EF30702E8547BCA0E8
:10451000E1BB371501400146854513050580EF30A5
:10452000102D8547C5B3184083270900544B63EF0E
:10453000F606504F83A6C18F9384C18FB387C602FE
:10454000B396C602E183505FA206D58F3443B69777
:10455000C207C183239AF18E1387418F6373F600DC
:1045600012A30A23EFF01FB4AA89AA8537050040D9
:10457000EF10E07C88404E9588C0184083270900E2
:10458000184B63E6E70023200400EFF0FF9D325450
:10459000A25412598259724AE24A524BC24B324CCF
:1045A000A24C124D824D45617300203083270900D3
:1045B000144F63F2F604544F83A701907843938419
:1045C00001903385D702B397D7026181A2075D8D31
:1045D0009317050103D5418FC183637BF500131544
:1045E00007014181E370E5F81315070141819DBF83
:1045F0001D8D4205FDB783D5218F37050040EF1093
:10460000007483D781901387018F1CA3BDB7EFB2CD
:104610003FC201112A8485450545EF10C048930724
:1046200030024C08370500403ECAE084231D0100DB
:10463000EF10A0630546854537050040EF10006F79
:104640009307C0127C8685475C87680085473EC813
:10465000EF10A02005616FB0FFBFEFB27FBD9305E3
:1046600000023715014037140140EF30901B13054D
:10467000048093050004EF30D01A1305048091657F
:10468000EF30301A130504808545EF309019C1458D
:1046900037150140EF30F0180546C1453715014088
:1046A000EF30F014C14537150140EF309017054643
:1046B000C14537150140EF309013C1453715014012
:1046C000EF3030160546C14537150140EF30301246
:1046D000C14537150140EF30D0140546C1453715A7
:1046E0000140EF30D010130504C093050008EF30EF
:1046F000D0150546130504C093050008EF30300FB0
:10470000130504C093050020EF303014054613054F
:1047100004C093050020EF30900D130504C09305ED
:104720000040EF3090120546130504C09305004089
:10473000EF30F00B130504C09145EF30900E1305D8
:1047400004C001469145EF30900A0546C145371532
:104750000140EF30D0091305048093050008EF30C5
:10476000500C13050480014693050008EF30300813
:104770000546C14537150140EF3070071305048029
:10478000C145EF30100A130504800146C145EF30E2
:1047900010060546C14537150140EF305005130599
:1047A00004808945EF30F0071305048001468945F0
:1047B000EF30F0030546C14537150140EF303003B7
:1047C00013054006EFF0BFE4854537050040EF10C4
:1047D00060540547238EE18099679387870873901B
:1047E00007806FB03FA7EFB2BFA403C7018D83C797
:1047F000118D93F7F70F6395E70083A7419299C74F
:10480000EF30903C012CEFC03FCBC5B76FB09FA4F9
:104810001967731007800841B7170020938707278F
:1048200088C38C4113078708CCC3104290C79442B9
:10483000D4C77310078082809967739007801441F2
:10484000371700201307072714C79387870873902B
:104850000780828099677390078014413717002082
:104860001307072754C793878708739007808280B0
:1048700099677390078013172500371500201305DB
:1048800005273A95084193878708739007808280AF
:10489000EFB21F9AEFF03FF50546C14537150140CD
:1048A000EF30E0740546C14537150140EF30207404
:1048B0000546C14537150140EF3060730546C145D7
:1048C00037150140EF30A0726FB0DF98EFB25F96FE
:1048D000814537050040EF10E04303C7018D83C7D2
:1048E000118D93F7F70F639BE7008545370500406F
:1048F00023A20192EF1000426FB0DF95EFF0CFE6F8
:10490000E9BFEFB2FF9283A5C182B717010003A5EB
:104910008713EF80D02723ACA1926FB0BF9363556C
:10492000050003C54193828093870195AA97882348
:104930008280EFB25F8E41112A849DC53705010048
:10494000130585692EC6EF40C023B2453715010017
:10495000130585C0EF40E02237150100130505EC73
:10496000EF402022EFC0DFAE45679306C7138547AF
:104970001307C7137D4683994600635E340593860B
:10498000F7FF8A068A07BA96BA978394260003959A
:10499000270003990600058DEF9060522A8A33059F
:1049A0002441EF90C051AA855285EF8050602A843F
:1049B00033852941EF90A050AA852285EF80301DD4
:1049C0002A842685EF90A04FAA852285EF808065F6
:1049D00041016FB09F8785079106E39EC7F81305D5
:1049E0000000FDB7EFB2DF8403A5C1968145EFF06B
:1049F0005FF423A0A1961307000023A2E196996714
:104A000073900780238001949387870873900780B1
:104A10006FB05F8483C7019493F7F70F638C071A15
:104A2000EFB28FFEEFF01FFC83A4019603A901975C
:104A3000138441954A85EF908048A685EF906000E9
:104A4000B717010083A58784AA89EF803045635298
:104A5000A00685471CA0B717010003A4871303A570
:104A6000C19413890195EF908045A685EF80704B26
:104A70006359051403A58183EF906044A685EF80F8
:104A8000F0416350A0142285EF90E03705852300A4
:104A9000A90093874194984383A6C198998E05678E
:104AA000130777BB6375D70003A7C19898C36FB08E
:104AB0002FF9B717010083A507064E85EF807046D2
:104AC000634405006317090085471CA01304000018
:104AD00079B71C201389C19299C79307000023203E
:104AE000F9002300040083A501834E85EF80304C3C
:104AF000832509002A8A4E85EF80C05203A4C19302
:104B0000AA89A285EF80F041634B050003A481933D
:104B10004E85A285EF8090386343A0004E8483A524
:104B2000C182232089002285EF80704813848192FE
:104B30000C40AA8A2685EF80D07083A581821389D4
:104B40008194EF80D046EF90C050B717010003A6C4
:104B5000870683A6C706EF70404F2A8B03250900FE
:104B6000AE8BEF90004FB717010003A6070783A68F
:104B70004707EF70804D2A86AE865A85DE85EF6046
:104B80004068EF90C057AA892320A90004C0D685A9
:104B90005285EF802049CE85EF80B06A93050000F2
:104BA0002A84EF801038E34305F2B717010003A908
:104BB00087132285CA85EF80702EE352A0EA4A84CB
:104BC00079BD371501001305850723000900EF3073
:104BD000507BC1B58280EFB2AFE51307000023AE72
:104BE000E19283A5C182B717010003A58713EF8067
:104BF000007A23ACA192914537150140EF30604215
:104C00000146894537150140EF30003FEF30204E17
:104C1000595723A6E194B717010003A90706138487
:104C2000418308408145EFF0DFD0CA85EF80702FC7
:104C3000635605001C40C1171CC0D5B71307A00F51
:104C400023ACE182B717010003A947131384019332
:104C500008408145EFF0FFCDCA85EF8030246356D0
:104C6000A0001C40C1071CC0D5B76FB0AFDE82806A
:104C7000EFB20FDC23A8019623AA019601469145C5
:104C80003715014023880194EF3060366FB08FDC18
:104C9000EFB20FD7397183AAC19832CA854763DB57
:104CA000B70037150100130585EFEF30906D2161D6
:104CB0006FB0CFD8AA8C37150100130545F2AE842A
:104CC000EF30306CEFF0DFFA63D90414130700F80B
:104CD000238AE192130C0008B717010083AB07EE9B
:104CE000B717010003A8C7E283A787E2130B0000F0
:104CF00042CE3ECCB717010003A8C7EE83A787EECC
:104D0000628442D23ED0B717010003A8C7DB83A755
:104D100087DB628A42D63ED4B717010003A847EF6B
:104D200083A707EF56C456C802C6054D02C2DA89EA
:104D30003ED842DA83CD019493FDFD0F63800D28A8
:104D4000EFF05FCA63C4040E9397240013870196A3
:104D5000BA9783A90700CE855A85EF803014634344
:104D6000A0004E8BCE855E85EF80B01B63430500AF
:104D7000CE8B63010D04E6854E85EF803012635FB4
:104D8000A022A24703A7C1981D8F85679387873804
:104D900063F6E722B3078A40858793F7F70F63DA54
:104DA0000408238AF19283AAC198A247668BB3872D
:104DB000FA403EC6E6854E85EF80B016014D635F32
:104DC000051E03A7C1988567938787383307574126
:104DD000014D63F5E71E83A7C1983EC49247635116
:104DE000F01CA2473247B3875741338DE700B30722
:104DF000F74033848702CD473344A403529463D0F1
:104E0000871E63DA04289307C00E63C987029307DD
:104E1000F00F228A63488C020DA893870195A6970C
:104E20001307F00798A3130CF0077DB583A94196EB
:104E30001DB71387019526971CA3B5B71304C00EA1
:104E40009307F00F228A3384874037150100D285FB
:104E5000130585F3EF30F05237150100A2851305D5
:104E600085F4EF3010525E85EF90A01E2A8637152C
:104E70000100AE86130545F5EF30B0505A85EF902E
:104E8000401D2A8637150100AE86130505F6EF3062
:104E9000504F1247894763D5E7106A85EF9020028B
:104EA000B707010083A5C763EF80604E2A8D228576
:104EB000EF7010696246F246EF7020192ADC2EDE90
:104EC0005A85DE85EF80F037EF90A0180256925693
:104ED000EF70A0172256B256EF7020176257F257A4
:104EE0002A86AE863A85BE85EF60B024EF902021F9
:104EF000EF9020162A862ADC37150100AE861305AE
:104F0000C5F62EDEEF30F0476A85EF9080142A86D2
:104F100037150100AE86130585F7EF3090466257CE
:104F2000F2574256D2563A85BE85EF700012EF9086
:104F3000001DAA8B37150100130545F8EF307044AA
:104F40005E85EF9000112A8637150100AE861305A5
:104F500045F9EF301043DE855E85EF80A00CEA85D1
:104F6000EF80E042EF90E00E2A8637150100AE8612
:104F7000130505FAEF30F040DE856A85EF803003D7
:104F8000B717010083A547EEEF807002EF90600C29
:104F90002A8637150100AE861305C5FAEF30703E3C
:104FA000B3078A00858793F7F70F63DD0402238A2E
:104FB000F1929247E68B6E8D85073EC2B7170100CE
:104FC00083A5C7846685EF80E005CE85EF80607598
:104FD000635F050037150100130585FBF9B1514AE0
:104FE0005144A5B51387019526971CA3D9B742470D
:104FF00083A7C198998F1307007D6377F70463D95E
:10500000040683CD419337150100130545FEEF30AB
:1050100050374E85EF90E0032A8637150100AE86A3
:10502000130585A2EF30F035371501001305058A09
:10503000EF30303537150100EE85130585B6EF30BA
:10504000503483A7C1983EC883A7C19803A7C198CD
:10505000BA972247B3875741998F375712001307E2
:1050600007F86371F702371501001305C5FE35B95E
:1050700093870195A6973715010083CD0700130587
:10508000C58871B792475247E356F7CA37150100F2
:105090001305C50019B99307B00E63D78700130431
:1050A000B00E9307E00F79BB9307E00F9DB3EFB20B
:1050B0002F982A84EFF0DFBBEFC04FCB05E5370513
:1050C000010013058569EF30D02B37150100A2854B
:1050D000130585C0EF30F02A371501001305450987
:1050E000EF30302AEFC00FC56FB0CF96EFB24F94BC
:1050F0002A84EFF0FFB7EFC06FC705E53705010061
:1051000013058569EF30F02737150100A2851305D7
:1051100085C0EF301027371501001305450CEF301F
:105120005026EFC02FC16FB0EF92EFB26F90EFC07B
:10513000EFC309ED3705010013058569EF307024D1
:10514000371501001305450FEF30B023EFC08FBEB8
:105150006FB04F90411122C63704004085451305BA
:10516000044026C44AC2EF00903E6309050E1305B1
:1051700004408545EF00303F83C7C1831384C1835A
:1051800093845195C1E783C701959CA095EB014697
:10519000914537150140EF2090651C201D4785077C
:1051A0001CA083C771959384619513847195636482
:1051B000F71045678A07130747E7BA979C4382872A
:1051C0000546914537150140EF2070620146914533
:1051D00037150140EF20B061054691453715014074
:1051E000EF20F0603729014001468545130509800D
:1051F000EF20F05F0546854513050980EF20305FFD
:105200000146854513050980EF20705E98201C201B
:10521000E3E5E7F8ADBF2D45EF20304F85471CA0F3
:105220009820BD4763FCE7021387019410239386FF
:1052300001941376F60F138781959387C19519E62C
:105240000C4323A6B1968C4323A4B196054690A2A5
:10525000238004002320070023A007003244A24437
:1052600012494101730020303729014013050940DC
:10527000F52993878195984309852A971305094055
:1052800098C3ED21AA8537150100130545E9EF30D4
:10529000500F894769B78D4759B7914749B7954727
:1052A000BDBF9947ADBF9D479DBF9C202300040013
:1052B00085079CA0B5B73705010013058569EF3058
:1052C000500C371501001305C5E9EF30900B89BF6D
:1052D000EFA21FF6EF80F057B717010003A687EB88
:1052E00083A6C7EBEF607056EF8070616FA09FF6EA
:1052F000EFA21FF4EF80F055B717010003A687EB6C
:1053000083A6C7EBEF60E062EF80705F6FA09FF451
:10531000EFA21FF2EF80F053B717010003A687EB4F
:1053200083A6C7EBEF60E060EF80705D6FA09FF237
:10533000EFA21FF0EF80F051B717010003A687EB33
:1053400083A6C7EBEF607050EF80705B6FA09FF09B
:1053500073002030EF20C052AA85371501001305D5
:10536000851BEF301002EF200052AA85371501008F
:105370001305851CEF30F000EF202050AA8537156B
:1053800001001305851DEF30C07F01A0B717024053
:105390009843B706FFF841111367170098C3D84325
:1053A00037060200758FD8C39843B706F7FEFD167F
:1053B000758F98C39843B706FCFFFD16758F98C389
:1053C000D843B70681FFFD16758FD8C39843B7063B
:1053D00000ECFD16758F98C33707FF0098C723A60A
:1053E000070202C402C69843C166558F98C3B71618
:1053F000024005679C42F18F3EC6A24785073EC426
:10540000B24781E7A247E397E7FEB71702409C4304
:105410001397E7006357070685473EC6324785471F
:10542000631FF704B7170240D843B706C1FFFD1644
:10543000D8C3D843D8C3D84313670740D8C3D84389
:10544000758FD8C3D843B7061D00558FD8C398436E
:10545000B7060001558F98C3984393166700E3DDA4
:1054600006FED843B7160240719BD8C3D8431367D2
:105470002700D8C32147DC42B18BE39EE7FE410100
:10548000828002C661BF01A001A001A001A001A00D
:1054900001A001A001A001A001A001A001A001A004
:1054A00001A001A001A001A001A001A001A001A0F4
:1054B00001A001A001A001A001A001A001A001A0E4
:1054C00001A001A001A001A001A001A001A001A0D4
:1054D00001A001A001A001A001A001A001A001A0C4
:1054E00001A001A001A001A001A001A001A001A0B4
:1054F00001A001A001A001A001A001A001A001A0A4
:1055000001A001A001A001A001A001A001A001A093
:1055100001A001A001A001A001A001A001A001A083
:1055200001A001A001A001A001A001A001A001A073
:1055300001A001A001A001A001A001A001A001A063
:1055400001A001A097B1FF1F9381C14D17B10020A9
:10555000130141AB17D50000130505C497B5FF1F14
:10556000938545AA1386818663FAC50083220500C8
:1055700023A0550011059105E3EAC5FE1385818638
:1055800097C5FF1F938585F96377B5002320050034
:105590001105E36DB5FEFD42739002BCAD42739000
:1055A0004280B76200009382820873A0023097B2F3
:1055B000FFFF9382A2A893E2320073905230EFF083
:1055C000FFDC97D2FFFF938222FC739012347300AA
:1055D0002030EFA2FFC5B727014093870740631C27
:1055E000F500854513050020F129814513050020AC
:1055F000D1296FA03FC6B737014093870780E31AD0
:10560000F5FE8545130500407529814513050040C9
:10561000C5B75C413707F1E01307F7EF944D7D8F75
:105620009C41D58FD44DD58FD441A206D58FD98F2B
:105630005CC11C4537F7F1FF1307D77FD4457D8F39
:105640009C49D58F94458606D58FD98F1CC55C554E
:10565000370710FF7D177D8FDC29FD1793F7F70FB4
:10566000D207D98F5CD582801C4589C593E7170086
:105670001CC58280F99BEDBF1C4593E787001CC5C4
:10568000828008450D81058982801C4593E747008B
:105690001CC5828008450981058982801C4591C509
:1056A00037075000D98F1CC582803707B0FF7D17A0
:1056B000F98FD5BFA54763F7B7048D47138765FFFB
:1056C0003307F7020328C5009D47B397E70093C748
:1056D000F7FFB3F70701B396E600DD8E54C599478F
:1056E00063E3C70495477D163306F6025859FD4714
:1056F000B397C70093C7F7FFF98F3396C5005D8E48
:1057000050D982800D473387E502032805019D4764
:10571000B397E70093C7F7FFB3F70701B396E60027
:10572000DD8E14C96DBFB14763E2C70295476516A8
:105730003306F6021859FD47B397C70093C7F7FF22
:10574000F98F3396C5005D8E10D9828095474D162E
:105750003306F6025855FD47B397C70093C7F7FFC6
:10576000F98FB395C500DD8D4CD582806845420523
:10577000418182809C4513F7070113F8F70001C7A8
:10578000D8413368E8008E2113F7F50F39C318416B
:105790008146854E3D4F930F800293028004214E37
:1057A0003396DE00B3F8C500631116039398260004
:1057B00033131F011343F3FF3377E300B3181801CA
:1057C00033E7E800639FF70550C98506E39AC6FDF5
:1057D00018C11307F00F6375B70454412146854E75
:1057E0003D4F930F800293028004414EB398CE0048
:1057F00033F715016392E8021317260001173313DC
:10580000EF001343F3FFB376D3003317E800D98ECC
:10581000639DF701232A15010506E319C6FD54C14E
:105820008280E39457FA10C94DB7E39757FE2328B7
:105830001501DDB708456D8D3335A00082800CC998
:1058400082804CC98280AD67373700409387A7AA12
:105850001CC3828023ACA196828093878197944356
:10586000182181E63C21920721A894430546639FB5
:10587000C6023C21103192076314D60093E707F863
:10588000B7E600E093F7F70FBA962380F640854617
:10589000935757003397E6005441A5C293870704F6
:1058A0008A07B7E600E0B69798C382808C438946A2
:1058B0006391D50214313C216365D6008A06B69700
:1058C0005DB79386E6038A06B69793F7F70F9207BC
:1058D00075B790438D46631CD60014313C21636438
:1058E000D6008606E9BF9386C6078606F1BF9443B5
:1058F0009147E39EF6F81C31BDB7938707064DB775
:10590000B7160240DC4251777D17F98F5D8DC8C212
:105910008280371702405C439146B18B6385D70084
:10592000A1466382D706B7177A00938707201CC168
:10593000371602405C4237070020130707049183A3
:10594000BD8BBA9794231C41B3D7D7005CC1544296
:10595000A1829D8ABA969422B3D6D70014C5544228
:10596000AD829D8A36971823B3D7E7005CC55842AD
:105970003983937637001387418436971823B3D73A
:10598000E7021CC982805C435843C166C983758F96
:10599000B7F6FF1F83A6C670BD8B89071396160145
:1059A00063480600C54601466392D702C94739A835
:1059B0008946638FD702BD46638ED702C146638E88
:1059C000D702C54601466393D700C1471DEF37474D
:1059D000024003270780418B05C737177A0013075A
:1059E0000720B307F7021CC121D61C41858381B76C
:1059F00001466DBF0546B547D1BF0146BD47F9B762
:105A000037173D0013070790E9BFB7150240D85577
:105A10009316F700D85563DF060411833D8B930678
:105A2000170037177A00130707203357D70218C11A
:105A3000D455A182BD8A8DE295463307D7020583EE
:105A400018C137170240585714413D8B050733D70B
:105A5000E60218C1184171B785456394B600E54662
:105A6000E9BFBD456396B600D1463387E602C9BF9C
:105A70008906E5BF3D8B9306170037177A00130799
:105A800007203357D702F1B799C5371702401C4F8B
:105A90005D8D08CF8280B7170240984F1345F5FF00
:105AA000798D88CF828099C5371702405C4F5D8D14
:105AB00048CF8280B7170240D84F1345F5FF798D44
:105AC000C8CF828099C5371702405C475D8D48C7B3
:105AD0008280B7170240D8471345F5FF798DC8C7B4
