:100000006F50205D1300000013000000130000007B
:100010001300000013000000130000001300000094
:100020001300000013000000130000001300000084
:08003000130000007300100032
:100038000000000000000000DE530000E253000052
:10004800000000001855000000000000000000003B
:100058001A5500001C5500000000000000000000B8
:100068000281000000000000205500000000000090
:100078003284000024550000265500002855000051
:100088002A5500002C5500002E5500003055000060
:100098003255000034550000365500003855000030
:1000A8003A5500003C5500003E5500004055000000
:1000B80042550000445500004655000048550000D0
:1000C8004A5500004C5500004E55000050550000A0
:1000D8005255000054550000565500005855000070
:1000E8003C410000A45100005E550000605500002E
:1000F8006255000064550000665500006855000010
:100108006A5500006C5500007E82000070550000A2
:1001180072550000745500007655000078550000AF
:100128007A5500007C5500007E550000805500007F
:10013800825500008455000086550000885500004F
:10014800142600008C5500008E55000090550000C4
:1001580092550000945500009655000098550000EF
:100168009A5500009C5500009E550000A0550000BF
:10017800A2550000A4550000A6550000A85500008F
:10018800AA550000AC550000AE550000B05500005F
:10019800B2550000B4550000B6550000B85500002F
:1001A800BA550000BC550000BE550000C0550000FF
:1001B800C2550000C4550000C6550000C8550000CF
:1001C800CA550000CC550000CE550000D05500009F
:1001D8000000000000000000000000000000000017
:1001E8000000000000000000000000000000000007
:0801F8000000000000000000FF
:10020000397101436EC619A0397141536AC866CA73
:1002100062CC5ECE19A0397101535AD056D252D455
:100220004ED64AD826DA22DC06DE330161408282CD
:1002300041114AC026C222C406C68282B24D410183
:10024000024D924C224CB24B4101024B924A224A3F
:10025000B2494101024992442244B24041018280A4
:100260003D432A876373C3029377F700BDEFADE583
:10027000937606FF3D8ABA960CC34CC30CC74CC795
:100280004107E36BD7FE11E28280B306C3408A06C2
:100290009702000096966780A6002307B700A30682
:1002A000B7002306B700A305B7002305B700A304D2
:1002B000B7002304B700A303B7002303B700A302CA
:1002C000B7002302B700A301B7002301B700A300C2
:1002D000B7002300B700828093F5F50F9396850051
:1002E000D58D93960501D58D61B79396270097021A
:1002F000000096968682E78086FA9680C1171D8F49
:100300003E96E374C3F8A5B70100010001000100A7
:10031000010001000100014582803307C5009307F9
:10032000001063C7E702EFF21FEF3289AE89AA849B
:10033000014493170401C18363FE270133878900B9
:10034000A6970C231395070141817D3F0504D5B77E
:10035000014582800545D5BD010001000100010075
:10036000010001000100010001000100014582803F
:10037000EFF21FEC4111AA840144931704012EC629
:10038000C18332C463FEC700338584001375F50F43
:10039000E137B2452246B387850088A30504F1BF43
:1003A0000545410145BDEFF21FE72A89AE8432843D
:1003B0009309F00F370A0100B70A01007D14137486
:1003C000F40F630B34038C2003550900353F0345BC
:1003D000090059379C20638AA70013050A6BEF8038
:1003E000D00313858A6BEF805003832709008504AF
:1003F00085072320F900D9B789BDEFF27FE32E9658
:100400004111AA841374F60F88202EC6B137B24565
:1004100088A19C40850585079CC093F7F50FE315DF
:10042000F4FE410105BDEFF2BFE07971C1651384AF
:1004300005684146938505680A85EFD0D07341462B
:10044000930504010808EFD0107341469305040298
:100450000810EFD05072B7160020371700208147E0
:100460001386C12C9386462513074724C1453308BC
:10047000F100032808003385C70000082320050188
:100480003308F400032808003385D7000010232028
:1004900005013308F400032808003385E7009107BD
:1004A00023200501E395B7FCEF307029B707010061
:1004B00083A7476D1306000023A6F18C23A6F18EB7
:1004C000370701000327876DB706010023A0E18EDF
:1004D0009567938707E223A2F18E23A4C18EB70705
:1004E000010083A7C76D83A6066E23ACF18C23AEF3
:1004F000D18C23AAF18C138701B310C750C33707DF
:1005000001000327476E23A8C1B223A8E182B707E1
:10051000010003A5876EEF40906423A6A182B70770
:10052000010003A5C76EEF40906723A4A182EF40AE
:10053000603F370701000327076F370501001305E8
:10054000056B23A2E182EF80406D370501001305A2
:10055000456FEF80806C4561F5B9EFF27FCA9385F6
:10056000811F131425009388C50013888500138A02
:100570004500C6864286338B8500AA899307000012
:10058000D2851385811F2320FB00EF307008B70749
:10059000002093874703A2978843938B4181EFD034
:1005A000D034B717010003A607C383A647C3CE9B69
:1005B000EFB030332A8C03850B00AE8C93848120FE
:1005C000EFC090012A86AE866285E685B70C0020D2
:1005D000EFB03031938C4C02EFD0F03B3389840084
:1005E000A29C371E01002320A90003A50C0083252F
:1005F000CEC29389818023A0A900EFC0D06213836B
:10060000C400138D840091042A879A866A86A68581
:10061000138581209387018AEF20105F93070000E4
:100620002320F900EF40401E930700002320FB0029
:100630009388412013880120D285370A0020C6867E
:1006400042861385811F130A8A01EF30607C229A4B
:10065000832D0A0003850B00B7070080B3CDFD0092
:10066000EFD0700FAA856E85EFD0E01D371E010018
:100670008325CEC22320A90003A50900930D000005
:10068000EFC0705A138341212A879A866A8693871E
:10069000018AA68513858120EF2010572320B901F8
:1006A000EF40801683250A002E85EFC030212A8A6C
:1006B00003850B00EE8BEFD0100AAA855285EFD090
:1006C0008018B707010083A5876D2320A90003A523
:1006D0000C00EFD04017371E01008325CEC223A0A7
:1006E000A900EFC05054138341212A879A866A8655
:1006F0009387018AA68513858120EF20F05023205F
:10070000B901EF406010938701B3A29703AA0700D5
:10071000B707002093870700A2978C435285EFC04C
:10072000F0199387C1B3A297AA8A2320AB0088430C
:10073000D28593848121EFC07018A29488C0B70736
:100740000020B70400209387C70093840404A29478
:100750003E940840D285EFC0701688C0232059010E
:1007600023A0B901EF303013D1BCEFF27FAC2E845F
:10077000AA85371501001305C5AAEF80004A228516
:10078000EFD0B0162A8637150100AE86130505ABEB
:10079000EF80A048C1B4EFF2BFA941112EC4AA85D1
:1007A00037150100B2861305C5AA36C6EF80E046AC
:1007B0002246B24637150100130505ABEF80E04530
:1007C000410149BCEFF2DFA62E84AA85371501004E
:1007D0001305C5AAEF80604437150100A2851305F3
:1007E00005ABEF808043BDB4EFF2FFA29384C188D4
:1007F00098408D4763C5E706138481891C4013091F
:100800000006B307F9029389019BAA853385F90095
:10081000EFD0F044370501001305056BEF80E03F92
:100820003715010013050589EF80203F0C4037156F
:1008300001001305C5AAB305B902CE95EF80E03DCE
:10084000371501001305C589EF80203D1C40114775
:100850008507B3E7E7021CC09C4085079CC0F5B242
:10086000EFF21F9D5137FDB2EFF29F9C371501004B
:10087000130505C1EF80603A996773900780B70749
:10088000EFBE37E700E0938707083CC76FF09F9CF7
:10089000EFF21F9A37140140130504808565EF704D
:1008A00030010546130504808565EF70207DF165F4
:1008B0009385052013854199EF70702637250140F7
:1008C000854513050580EF70A07EEF70400F37154A
:1008D0000100130585B4EF8040343715010013057E
:1008E00005B6EF808033B70401001385046BEF80F9
:1008F000C03237150100130545B7EF8000323715B8
:100900000100130545B8EF8040313715010013058C
:10091000C5B9EF80803037150100130585BAEF8027
:10092000C02F37150100130585BCEF80002F371548
:100930000100130545BDEF80402E1385046BEF8049
:10094000C02D37150100130505BEEF80002D3715AA
:1009500001008145130505BFEF80202C37150100EC
:10096000130545BFEF80602B371501009305005438
:100970001305C5C0EF80602A23A801886D34EF40BD
:10098000A027EF209022EF30504FEF70007B014600
:10099000856513050480EF70606E6FF0BF8B0147B3
:1009A000930600063306E500030606009317870149
:1009B000E1876314B6069305F00525461397870172
:1009C000618763CFE504B306F5009422850793861B
:1009D00006FD93F6F60FE363D6FE8147A548294846
:1009E0009305F005B306E50003860600930606FDB1
:1009F00093F6F60F63E1D802B387070305079376F2
:100A0000F70F139786016187938707FDB297C20797
:100A1000C183E3F9D5FC3E8582800507E314D7F84E
:100A20008147D5BFEFF2DF80830715001307C004AD
:100A3000AA846388E700130700056380E7046FF06A
:100A40007F81B71501009385458AEFD0702319C5C2
:100A50009305A0032685A1372399A18AB715010024
:100A60009385458B2685EFD0B02171D99305A003DE
:100A7000268535372398A18AD9B7B7150100938504
:100A8000C58BEFD0F01F45DD930530072685013F6C
:100A90001384418B0AA01E209305A0032685C2075C
:100AA000C18381CFED3D9307C0033305F5021A20C2
:100AB0003A95420541810AA059B7D535EDBFEFF20D
:100AC0002FF703A74189930700063387E70283A71F
:100AD00001881385019B8145B306E500958F850745
:100AE000BA973E95EFE0A068EFD0E06A6FF08FF61E
:100AF000EFF20FF403A74189930700063387E7025B
:100B000083A701881385019B29468145B306E5002B
:100B1000958F8507BA973E95EFE0C07A6FF08FF317
:100B2000EFF20FF103A7418993070006AA85B38767
:100B3000E7021385019B3E95EFD0F01023A0A1881A
:100B40003335A0006FF00FF1EFF28FEED13F6FF071
:100B50006FF0EFF26FEB9389818083A7090023AEDA
:100B6000F18693870181984323ACE18A13074006FD
:100B700098C303A701999387C18A98C3EF30D048DF
:100B80000545EF3020521387811F1443938781203E
:100B900094C3544313058005B7040020D4C31447FD
:100BA0005847938BC18794C7D8C79307000023A0E9
:100BB000F900BD379389C18A138B8180938A818B19
:100BC000138A01811384811F938484226311050C8D
:100BD00013059005B137631C050A1305A005893775
:100BE0006317050A85479CA00945EFF01F979C20D5
:100BF0006386070A0145EFF05F969C2089E713059D
:100C00009005393F01C50545EFF03F951305800577
:100C1000013F11C9F13D01C95D35AA8503A501B3A5
:100C2000EFC0C04908C013059005DD3D11C9C935A5
:100C300001C97135AA8503A541B3EFC0204848C05A
:100C40001305A005F13D11C9653501C98D3DAA8582
:100C500003A581B3EFC0804608C49306C400130601
:100C60008400930544001385811FEF30601A83A729
:100C70000B002320FB0083A70A002320FA0083A790
:100C8000019923A0F900EF3000416FF06FDB1305ED
:100C9000A005238004006935E31805F413058005D9
:100CA0004135E31905F4A1BFEFF28FD813854199BF
:100CB000EF70007737150100130545B1EF70F0753F
:100CC00083A5C18637150100130505B28505EF70B0
:100CD000D0746FF02FD8EFF2AFD27571371A0020B1
:100CE00093870189130A0A491384019B3EC683270F
:100CF0000A0803274A08998F93F7F70795CB03A7AC
:100D0000C1888D47938CC18863C4E70213854199DC
:100D1000EF70806E62056185A94713870187938410
:100D200041876317F5029440A9EA2388018631A818
:100D30001306000681450818EFF08FD2938781B41F
:100D40009C33138D81B4639F072649616FF00FCFE9
:100D5000B547E30AF5FC9307A0036314F5001C23D1
:100D6000F9D394409307E005E3CFD7FA9307B00394
:100D7000631AF52285471CA39DBF938D818983A7A4
:100D80000D00130600061823B38AC7021389818950
:100D9000B3095401CE96238006006312071C324724
:100DA0009305E0044E85BA9723800700EFD0A06931
:100DB000630A051A23A0A188330535410505569518
:100DC000294681452295EFE0E04F938BC18683A7AA
:100DD0000B00138DC1892320AD008507138B01887B
:100DE000938AC1899389C186630EF50403A50D001A
:100DF00013060006B70501003305A6029385857129
:100E00002295EFD0E0671DED37050100130505724F
:100E1000EF70B0603705010013058572EF70F05F69
:100E200083A50B00370401001305C475EF70F05E55
:100E300083250D001305C475EF70305EB53523A012
:100E4000040021B703250900930B00069305A002B7
:100E5000B30B7503B30D74016E85EFD0C05E3DC159
:100E60008147014DEE861306A0023387F600030783
:100E700007006308C7008507E207E187334DA70134
:100E8000EDB72320AB003305B54105055E958145DF
:100E90002295EFE0C02DEFB0F0676308A505370598
:100EA000010013050572EF70505737050100130557
:100EB0000576EF7090563715010083A509001305DC
:100EC00005B29DBF3705010013050572EF70F054A0
:100ED0003705010013050578EF7030543705010020
:100EE00083A509001305C57581BF83A70A0023A048
:100EF000F900832909001305000693057004B3095E
:100F00003503B30A34015685EFD0E05305CD23A055
:100F1000A1883305554105054E9581452295EFE0A1
:100F20000025EFB0305F8D4763EEA70083C7818651
:100F3000ADE783C781B499E7370501001305857DC7
:100F4000EF70B04D8327090011478507B3E7E7022B
:100F50002320F90083A70C00850723A0FC0023A011
:100F6000040071B39305A0024E85EFD0C04D51D15E
:100F70003705010013050572EF70304A370501008F
:100F80001305C57AEF70704983A5C1863705010046
:100F90001305C575EF7070485DB537050100130581
:100FA000C57D79BF1C23E39407D483A78189138768
:100FB000160098C013070006B387E702A297B697FA
:100FC00088A335B383A7418713844187E39F07D65E
:100FD000814C1389019B93890189B71B0100032769
:100FE0004D2683270D26E302F7D603A7C1888D4738
:100FF000138CC188E3CBE7D413058D25EF60100C6B
:10100000A947938D01876304F502B5476301F50293
:101010009307A0036315F50083C70D0089CB184023
:101020009307E00563C5E700FD576317F50E032737
:101030000D2683274D26631FF70613854B85EF701A
:10104000D03D3715010013058586EF70103D83A74D
:1010500001999306C00323A0F18C03A6C18B3D67C1
:10106000130707A6918F33D7E70237F6360013062A
:1010700006E8B71501009385C5870808B376D7023F
:1010800033D6C702EF70B03B370501001305056B7F
:10109000EF70B038371501000C08130505BFEF706D
:1010A000D037138581B4EF10102F8545138581B497
:1010B000EF10501783C70D0099CF0818EFF09F96D7
:1010C0008147130700061418BE9623800600850783
:1010D000E39BE7FE814C1040E30906C493868189B7
:1010E0009C421307000623800D003387E70223206C
:1010F00004004A9732972300070005463387F9001A
:1011000010A303270C00850705072320EC001147D7
:10111000B3E7E7029CC2E1B59307B0036310F502A1
:1011200085472380FD00180993871C00BA9C238003
:10113000ACFA939C870193DC8C4155B583C70D00B5
:10114000FDF383A781899306170014C09306000658
:10115000B387D702CA97BA9788A337470040137559
:10116000F50F8357074093F70708E5DF42054181F4
:101170002312A740ADB503A7019923A6E18A03A7CF
:10118000418993870189BA979C238DE3EFF24F8AB7
:10119000370501001305857DEF70302837150100F4
:1011A000130545FCEF70302C6FF0CF8A8280EFF290
:1011B000AF859384811F138481200149938901861F
:1011C000138A418A914AB387290103850700EFF00A
:1011D0003F9529CDEFF0BF8EB3072A01AA8B882354
:1011E00011E59387618B88231375F50FEFC0B05617
:1011F0008C40EFC04065DE85EFB0506C08C005093B
:1012000091041104E31159FD13056004EFF05F919F
:1012100001CDEFF0DF8A930500002A84EFC08051F2
:101220006354A00023A481806FF08F819C401CC078
:10123000F9B7EFE2FFFFA53F13059004EFF05F8ED3
:101240001384419A11CDEFF09F8708C01305A004C5
:10125000EFF01F8D11C9EFF09F8648C06FE09FFF30
:10126000930700001CC0DDB7930700005CC0FDB70A
:10127000EFE21FFC03A981212A840841CA859384D7
:101280008121EFC08053635405002320240103A96A
:1012900044004840CA85EFC04052635405002322F1
:1012A000240184440844A685EFC0205163530500FF
:1012B00004C4B704002003A9040408409384040470
:1012C000CA85EFC020476354A0002320240103A94E
:1012D00044004840CA85EFC0E0456354A000232283
:1012E000240184440844A685EFC0C0446353A00091
:1012F00004C46FE03FF6EFE2BFF0138581208D3F1D
:1013000003A701999384812003A5811F8C4023A604
:10131000E18A83AA8180EFC0203CCA8C1384811F9C
:10132000371A0100938D0121138DC12031E1CC408A
:101330004840EFC0603A0DED8325CAC25685EFC024
:10134000800E2A879387018A938641211386012183
:101350009385C12013858120EF20000B9C401CC089
:10136000DC405CC09C441CC4DC445CC46FE01FEDEA
:1013700003A50181EFC0303ED685EFC0C04C832568
:10138000CAC2EFC0400AB717010083A5078AEFC0A1
:1013900080092A879387018A938641216E86EA8590
:1013A0001385812055BFEFE21FE71384419A2A89F4
:1013B000484001111379F90FEFC030532ACC08408F
:1013C0002ECEEFC090526246F246EF70904EEFC0C4
:1013D000905C2ACC03A50181EFC0F03783A5818002
:1013E000EFC06046B717010083A5C7C2EFC0A003D6
:1013F000B717010083A5078AEFC0E00283C7018AFF
:10140000E248938481203EC24AC02A888947054722
:1014100081461386419A938581201385811F138409
:10142000811FEF10207A9C401CC0DC405CC09C44B3
:101430001CC4DC445CC403A7019923A6E18A0561AE
:101440006FE0BFE0EFE2DFDE996773900780EF3077
:10145000B0040546C14537150140EF6030420546EE
:10146000C14537150140EF6070410546C14537154C
:101470000140EF60B0400546C14537150140EF60BF
:10148000F03F370501001305056BEF700079371544
:101490000100130585B2EF70407837150100130580
:1014A0000501EF708077EFF02FBC01A0EFE25FD86D
:1014B0001386C18A83A601990C4203A641888D8EAA
:1014C0009387C18A6374D60011C2AD3F83A6418061
:1014D000A1CA03A701999C43B307F74063F2F6043E
:1014E00003C7018D83C7118D93F7F70F639AE70246
:1014F0000546C14537150140EF6050380546C145E6
:1015000037150140EF6090370546C145371501405A
:10151000EF60D0360546C14537150140EF60103603
:10152000EF10106C6FE01FD3EFE29FD0EF30C0766A
:101530009387818698231DE3054798A303A7C18657
:10154000370501001305056B23A4E188EF70E06CFB
:10155000370501001305C57DEF70206C6FE09FCF4C
:1015600003C581868280EFE2BFCC83C7018AAA844B
:1015700013054005238CF186EFF08FDA09E5014968
:101580004A856FE03FCD2A89EFF06FD3EFC0501747
:10159000138481871375F50F08A075D137050100F5
:1015A0001305056BEF706067930790066384F4047E
:1015B00063CE9700930780066387F4020C203715EB
:1015C0000100130505BFEF7040655DBF9307D006AE
:1015D0006387F4029307A00DE392F4FE3715010030
:1015E0001305C5AF29A037150100130545ABEF70F2
:1015F000C062E9B7371501001305C5ACCDBF37157B
:101600000100130545AEE5B7EFE29FBF5D7113051D
:101610007004EFF0EFD0630C0516EFF04FCAEFC087
:10162000100891476309F50C63CCA7008947630450
:10163000F50A63CBA70A63530508EFF0DFB349A8A7
:101640009307A0056309F51063CBA700F147E316E4
:10165000F5FEEFF00FD005472384E192F9BF930721
:10166000B005630DF50E9307C005E318F5FC1305EF
:101670005004EFF0EFCA19E1EF3000191384811F15
:1016800081449389018613894120138A01B3930A07
:101690008400B387990003850700EFF06FC811C974
:1016A0008D476391F40CEFF08FC148C44A85EF2059
:1016B000300585049147E39EF4FC41B783C78186DA
:1016C00099EBEFF0DFAEEFF01FC305472384E19203
:1016D00061616FE0BFB683C7818699E7EFF07FB5A0
:1016E0000545EFF05FCCEDB783C7818689E7EFF062
:1016F0005FB40145FDB713050005EFF06FC201446B
:1017000011C5EFF0CFBBEFC0A07F2A8413053005D1
:10171000EFF00FC101CDEFF08FBAB707010083A53D
:10172000476DEFC04012EFC0A07D2A84EF30C00D9E
:1017300003A7019983A60199BE843A9423A6D18A6E
:1017400083A70199E3FB87EEEF609051EF30A02E65
:10175000EFF0DFD5F5B7238B018AC5B50547238B9D
:10176000E18AE1BDEFF0AFB593972400330BF400AD
:10177000D297AA858843EFB070142320AB00CA86A5
:101780005686930544002285EF2080681DB7130517
:10179000D004EFF0EFB819E16F007053EFF02FB203
:1017A000EFC0E06F13079006AA876300E566634EFB
:1017B000A7147147630BE5506342A70A5947630DAD
:1017C000E546634EA7044947630DE50C634EA70247
:1017D0004547E314E5E60146C14537150140EF6092
:1017E000F0090146C14537150140EF603009014657
:1017F000C14537150140EF6070080146C1453715F6
:101800000140EF60B00715BD51476306E5405547FD
:10181000E315E5E2138581B4EF10C00239BD6547D9
:10182000630EE5466341A7025D47630CE5406147EF
:10183000E315E5E0138581B4EF10400503A7019996
:1018400023AEE18ADDBB69476300E5466D47E316D9
:10185000E5DE138581B4EF10E011C5B31307200551
:101860006308E56C6341A7027947630DE54A634766
:10187000E54A7D476301E55613071005E31FE5DAE6
:10188000EFE09FFE5DBB130750056308E574634DF1
:10189000A702130730056301E56A13074005E31E3D
:1018A000E5D813053005EFF0AFA7630C0568EFF03E
:1018B0000FA1B707010083A5476DEFB0D078EFC047
:1018C000206423A2A18095BB1307C0056309E572BC
:1018D00013078006E313E5D613058006EFF0BFC8B3
:1018E000E31D05D413053005EFF08FA301CDEFF014
:1018F0000F9D03C48187938741970A043E94EFC0EC
:10190000005A08C0EF3020390DBB1307C00CE302AA
:10191000E51A6349A72213077007E30CE508634043
:10192000A71C130720076302E5786346A71813076F
:10193000D006E314E5D01305D006EFF0DFC2E31EB6
:1019400005CE13053005EFF0AF9D93848187138A90
:10195000419709C9EFF0AF968020EFC040540A04C8
:10196000529408C0EF30203303C904000A09B307BA
:101970002A01884383AA0199B71B0100EFC0A05D2B
:10198000938741963E9983270900AA8C7D593EC4CE
:10199000B717010003AC078D93894196371D0100ED
:1019A000E28D83A701991307803EB3875741637C7B
:1019B000F708B717010013858793EF7000269C2066
:1019C0008A07CE978843EFC04072B71701002A8676
:1019D000AE861385C793EF704024B71701001385B7
:1019E0004794EF7080238C201385CB92EF70E02218
:1019F00013058D94EF70602203A54197EFC0A055A9
:101A0000EFC0E049AA851385CB92EF70002137150E
:101A100001001305C594EF704020FD57630DF94A8E
:101A200083A701998965938505719D8DCA951307D3
:101A3000803EB3D5E50237150100130505B2EF70FE
:101A4000C01D83AA0199EF20107FEFF03FA6FD573C
:101A50006318F94AA2456685EFB0D04D9C208A07ED
:101A60003EC63307FA00635FA0460843EFC0A04EAE
:101A7000EE85EFC08006B247CE978C43EFB0F053AF
:101A8000E341A0F203A90199FD57E30CF9F0634B80
:101A9000090003A7019989679387F77033072741E6
:101AA000E3F1E7F003A7019923AEE18A03A70199C7
:101AB00023A6E18A59B6130730076300E55E1307D2
:101AC0005007E31CE5B603A501889305A0021505A0
:101AD000EFC07017E30305B6A30F05FEB9BE1307E9
:101AE000C0086306E530634EA70013078007630F45
:101AF000E56A130790070545E391E7B4EF20805AA4
:101B00002DBE1307900C6307E5761307B00C014454
:101B1000E315E5B23719002093840186130949259E
:101B20009149B387840003850700EFE07FFF19C563
:101B3000EFE0FFF893172400CA9788C30504E31267
:101B400034FFE5BC1307D012E30EE504634DA70292
:101B50001307E00CE301E5006343E5781307C00DCC
:101B6000E303E5021307D00DE319E5AC13053005D7
:101B7000EFE01FFBE30305ACEFE07FF4EFC02032A2
:101B800023A6A1805DBC13070019E30EE512634490
:101B9000A7061307E012E303E5101307F012E31E94
:101BA000E5A813055004EFE0BFF78144E3070510F3
:101BB000EFE0FFF0EFC0A02EAA84E3500510B717A6
:101BC000010003A4C78C13053005EFE07FF501C5C4
:101BD000EFE0FFEE2A8413053004EFE07FF41546B2
:101BE00011C5EFE0DFEDEFC0802B2A86A6852285A8
:101BF000EF30800C99B41307003A6306E518130719
:101C0000703EE31CE5A22384018603A7818823A6F6
:101C1000E186EFF03F83371501001305C58EEF60B5
:101C2000D07F138581B4EF00103F371501001305F5
:101C3000C58FEF60907E11B4138581B4EF007044BE
:101C4000EDBA9389418903A40900130900063304FE
:101C500089029384019BB71501009385C590338554
:101C60008400EFC0F001E30A059C93054400A695AB
:101C70000808EFC0C07E0C080546138581B4EF004C
:101C8000B04483A50900B305B902A6953715010034
:101C90001305C5AAEF6070786FF03F9A138581B481
:101CA000EF00703F6FF07F99138481B43C20E3868E
:101CB000079813053005EFE0BFE6E3000598EFE075
:101CC0003FE32322A4266FF05F9703A501889305C5
:101CD000A002138401881105EFC0E076AA8415C51F
:101CE00003A54189930700069305E004B387A70283
:101CF0001385019B3E95EFC0007593050002EFC070
:101D00008074050508C0A38F04FE0C4001469105B0
:101D1000138581B4EF00503B6FF03F92238401B4F0
:101D20006FF0BF91938781B4BC23E388079013853C
:101D300081B4EF00D05103A501889305A0029384DC
:101D400001881105EFC020702A8915C503A54189B6
:101D5000930700069305E004B387A7021385019B50
:101D60003E95EFC0406E93050002EFC0C06D0505C3
:101D700088C0A30F09FE8C40138581B49105EF0044
:101D8000903D6FF09F8B03A501889305A0021384FB
:101D900001881505EFC0206BAA8415C503A54189EC
:101DA000930700069305E004B387A7021385019B00
:101DB0003E95EFC0406993050002EFC0C06805057D
:101DC00008C0A38F04FE0C40138581B49505EF0075
:101DD00070376FF09F8603A701993705010013053F
:101DE000056B23A0E18CEF6050630C0845B513052B
:101DF0003005EFE0FFD2E3020584EFE05FCCEFC0F7
:101E0000000A23ACA1966FF05F83EFF0CFF5E316E5
:101E10000582370501001305857DEF6010603715D9
:101E20000100130545FCEF60106437150100130530
:101E30004591EF60905E138481871C201387419643
:101E40008A07BA978843B7140100EFC0002A2A8690
:101E5000AE861385C491EF60505C37150100130501
:101E60004592EF60905B1C20138741978A07BA97D1
:101E70008843EFC0400EEFC040272A86AE86138508
:101E8000C491EF6090593715010013058592EF60FA
:101E9000D0580820EF20D02AAA8537150100130555
:101EA000C592EF6090573715010013050593EF6059
:101EB000D0567D55EF20D028AA853715010013058F
:101EC00005BFEF609055371501001305C5FDEF60A4
:101ED000D0546FF0EFFF3715010013050595EF6043
:101EE000D05385B60843EFC00007E285EFB0001D70
:101EF000B247CE978C43EFB0F003E35505B855B425
:101F00009C208A073387F900D29788433AC6EFC0EE
:101F100080043247AA850843EFB0303CEFB03078F8
:101F20009357F5413D8D1D8DA947E3D4A7B699BEC2
:101F3000A383018A6FF06FF00547A383E18A6FF0F6
:101F4000CFEF13058005EFE0BFBD29CDEF20D00B0B
:101F500013058005EFE0DFBC19C50546C1453715FF
:101F60000140EF60A01113059005EFE07FBB19C59C
:101F70000546C14537150140EF6040101305A00527
:101F8000EFE01FBA19C50546C14537150140EF609E
:101F9000E00E13055004EFE0BFB8630005EA054604
:101FA0006FF0DF8513059005EFE09FB745F113054E
:101FB000A005EFE0FFB659F913055004EFE05FB656
:101FC00051F5EF2070040546C14537150140EF601B
:101FD000E00AEF20100E6FF04FE613053005EFE03A
:101FE0003FB4EFE0DFADB707010083A5476DEFB069
:101FF0009005EFB0F07023A2A1886FF00FE4B7173F
:10200000010003AC478DB71A00200144138B0186F1
:102010009384C12C938A4A25B3078B00038507005C
:10202000EFE01FB031CD8D476312F406EFE03FA91A
:10203000E2852A8AEFB0607863520504C844D285ED
:10204000EFB0603EAA89AA8503A5418D1389C12BF3
:10205000EFB0607F23AAA18C03A5CA00CE85EFB0A4
:10206000807E23A6AA000325C900EFB0307BCE8571
:10207000EFB0607DEFB0D0682326A90023A644010D
:1020800005049147E31AF4F86FF02FDBEFE03FA36C
:1020900093172400A69788C3E5B7371501001305E9
:1020A0008595EF60503C6FF04FD93715010013054F
:1020B000459FEF6090361384811F0840B7140100DC
:1020C000EFC0A0022A86AE86138504ABEF60F03421
:1020D000371501001305859FEF6030344840EFC08D
:1020E000C0002A86AE86138504ABEF601033371527
:1020F00001001305C59FEF6050320844EFB0F07E39
:102100002A86AE86138504ABEF60303137150100A7
:10211000130505A0EF6070304844EFB0107D2A86AB
:1021200037150100AE86130545A0EF60102F371557
:1021300001001305C5A0EF60502E0145EF2060752A
:10214000EFB0706183A5C12C1384C12CEFB0A02D1A
:10215000EFB0B0792A86AE86138504ABEF60F02B22
:102160000545EF200073EFB0105F4C40EFB0A02B9F
:10217000EFB0B0772A8637150100AE86130585A12A
:10218000EF60B0290945EF20C070EFB0D05C0C447F
:10219000EFB06029EFB070752A8637150100AE8662
:1021A000130505A2EF6070276FF02FC901456FF08E
:1021B000FF94371501001305C5A2EF6010263715EF
:1021C0000100130585A4EF605025371501409305E4
:1021D0000008130505C0EF30C06E8547631DF50686
:1021E000B71501009385458E37140100130504BF10
:1021F000EF60B02237150100130505A5EF60F0214F
:102200003715014093050020130505C0EF30606BC2
:1022100085476317F504B71501009385458E1305AF
:1022200004BFEF60901F37150100130585A5EF600F
:10223000D01E3715014093050040130505C0EF304F
:10224000406885476313F502B71501009385458EF5
:10225000130504BF81B4B71501009385858D69B757
:10226000B71501009385858D5DBFB7150100938576
:10227000858DF9BF37190020014493840186130925
:102280004924114AB387840003850700EFE05F8982
:1022900011C9EFE0DF8293192400CA99EFB05046CC
:1022A00023A0A9000504E31F44FDEF1050496FF07F
:1022B000CFB813053005EFE0BF8609C5EFE03F80DA
:1022C00023A6A18C13054005EFE09F8519E16FF06F
:1022D000CFB6EFE0CFFE23A6A18E6FF00FB61305A9
:1022E0003005EFE0FF8309C5EFE06FFD23A0A18E6D
:1022F00013054005EFE0DF8209C5EFE04FFC23A4A2
:10230000A18E13052004EFE0BF8119C5EFE02FFB7C
:10231000EFB0103F23A2A18E13058005EFE05F8090
:1023200009C5EFE0CFF923ACA18C1305A005EFE0C0
:102330002FFF09C5EFE0AFF823AEA18C13055004C1
:10234000EFE00FFE19E16FF04FAFEFE04FF723AA78
:10235000A18C6FF08FAE014493840186138901B381
:102360008D49B387840003850700EFE06FFB19C533
:10237000EFE0EFF493172400CA9788C30504E31233
:1023800034FF6FF08FAB13053005EFE06FF919E103
:102390006FF0AFAAEFE0AFF2EFB0703023A8A180EA
:1023A0006FF0AFA913050005EFE08FF709C5EFE067
:1023B0000FF123A8A18213059004EFE06FF619C571
:1023C000EFE0EFEFEF20B07923A6A18213054004E0
:1023D000EFE00FF519C5EFE08FEEEF20507C23A45E
:1023E000A18213053004EFE0AFF309C5EFE02FED54
:1023F00023A2A182EF200053370501001305857D3C
:10240000EF60B00137150100130505A6EF60F0007D
:1024100003A5018337140100EFB0304D2A86AE8644
:10242000130504ABEF60607F37150100130545A667
:10243000EF60A07E03A5C182EF207074EFB0F04A78
:102440002A86AE86130504ABEF60207D37150100A8
:10245000130585A6EF60607C03A58182EF203076AE
:10246000EFB0B0482A86AE86130504ABEF60E07A81
:10247000371501001305C5A6EF60207A03A5418238
:10248000EFB0B0462A86AE86130504ABEF60E07865
:1024900037150100130505016FF0AFF9130530057D
:1024A000EFE00FE89307000001C5EFE04FE1AA87D6
:1024B0003E85EF1070286FF04F98B717010003A406
:1024C000878C6FF04FF0EF2020346FF00F971305DB
:1024D0004005EFE0EFE4B704010051C1EFE02FDE6B
:1024E000EFB010221375F50F1384818708A015C56E
:1024F0001385046BEF60607213054005EF50107791
:102500000C20371501001305C591EF6000713715D8
:102510000100130505A76FF0CFF113056004EFE08C
:102520002FE001CDEFE0AFD9930500002A84EFB092
:1025300060206354A00023A481801385046BEF60A6
:10254000C06D37150100130545A8EF60006D371504
:10255000010083C5018A130505C96FF0AFF3138528
:10256000046BEF60806B37150100130585A9EF60E0
:10257000C06A83A541899307000637150100B38718
:10258000B7029385019B1305C5AABE95EF60E0686D
:10259000371501001305C5896FF0AFE9EFD2DFC62B
:1025A000EFE00FAF894A1384019B930B0006114C97
:1025B00083A7C1881389C18863C4FA00EFE0AFF133
:1025C0008145138581B4B9298327090095C7938470
:1025D00041898C40138581B4B385BB02A2954929FA
:1025E000EFF08F8283270900FD172320F9009C401C
:1025F0008507B3E787039CC0EF20E043EFE01FEBC4
:10260000EF10F01975B7EFD2BFC2138581B449201E
:102610006FD05FC4EFD2DFC13754004093055052F2
:10262000130504C0EF30F00F39C19387412283A610
:102630000708035644C083A54708138716004206BF
:102640001377F70341826306B700BE9690A223A0DA
:10265000E70883A7019937550040938747069305FC
:102660005052130505C023A2F18CEF30500F3754A0
:10267000004093056062130504C0EF30900A19C54D
:1026800093056062130504C0EF30700D6FD09FBCDE
:10269000EFD21FBA9307C559232AF548B715010091
:1026A000930700102A84232CF548231005002301EA
:1026B00005009385C5E21305C549EFB0505A85471B
:1026C0002300F46A83A701999387077D232EF4687A
:1026D0006FD05FB8EFD2DFB2130A452341112A84CD
:1026E0005285AE89EF50600571E54E85EFB03058E8
:1026F0009307C44701493EC4130BE002B71B010016
:10270000371C0100B38AA900B71C0100371D010066
:10271000930D5448A2455285EF50E008AA843DE14C
:1027200083075448A5C3E38767FF8347444813F7EB
:1027300067006DF3032644490307060011E36E8624
:102740000327446A05094209135909011DE3C18B96
:1027500095CF9385CCCB5685EF60604ECE85130523
:102760000DCCEF60804BCE852285AD3729ED2380DF
:102770000A008327446A09476398E7028317846A3B
:10278000E39A27F9268541016FD05FAB9385CB9003
:10279000328532C6EFB0D04E69DD3246CE851305A4
:1027A0004CCDEF608047F1B70547E395E7F623147A
:1027B000246B8DB7AA84AA8537150100130585CE31
:1027C000EF60A045C1B7AA8475BFEFD27FA64111C3
:1027D0002E85B28532C6EF4050762A84324601E912
:1027E00037150100B285130505D0EF60004322853F
:1027F00041016FD03FA6EFD2BFA341112E85B28514
:1028000032C6EF40507A32468307960091E3114575
:1028100041016FD03FA4EFD2BFA1117191672A840B
:10282000938707A31306B00F814548003EC0EFD041
:102830003FA38A852322046A2285EFF0BFE9116154
:102840006FD05FA13C218DEFEFD29F9E9305450095
:102850002A840145EF40F031AA8509C937150100E6
:10286000130545C7EF60603B6FD0DF9E3715010051
:102870008145130585C9EF60403A85473CA0EDB717
:102880008280A30005002301050082803C2199C3BA
:1028900085471CB182801C3199C3A300050082804A
:1028A000EFD21F99411174001305852502C6EF4030
:1028B000D04419C537150100130545DDEF60E0353B
:1028C000324541016FD01F993C21A5CFEFD25F96D1
:1028D00041112EC6130485250DCE371501001305B1
:1028E00085D1EF608033B24505462285EF40702ADE
:1028F000AA8511C937150100130585D3EF60E031B2
:1029000041016FD03F95371501008145130545D52D
:10291000F5B737150100130545D7EF600030B24514
:1029200029462285EF40F026AA8511C537150100FA
:10293000130585D9E1B7371501008145130545DB3E
:1029400075BF8280EFD2DF8E85473CB10146EFF044
:10295000BFF76FD03F90EFD2BF8D2E85EF40506B09
:1029600001C9AA8537150100130585C3EF60E02A68
:102970006FD05F8EEFD2DF8B3C2195CF2A84371545
:102980000100130585E0EF60402983250426370503
:1029900001001305C575EF6040281305F002EF50E4
:1029A000F02C8325442637150100130505BFEF6081
:1029B000C0266FD03F8A371501001305C5E1EF60CF
:1029C000C025C5BFEFD2DF862E852E84EFB0302A1A
:1029D000AA849305E0042285EFB0F02615ED138557
:1029E000F4FF2295B5471CB1A9473CA1A3010500FE
:1029F0003705010013050572EF602022371501002D
:102A0000130505C5EF6060213715010013050501A9
:102A1000EF60A0206FD01F849305A002EFB0B0221A
:102A20007D15C9B791E98347056A8DC383A70199CD
:102A30000327C56963ECE7003C212300056A99E799
:102A4000EFD20FFFEFF01FE06FD0DF808280EFD278
:102A50002FFE930485252A842685EF401042268583
:102A6000EF40704C23000400A30104006FD08FFEE0
:102A7000EFD20FFC370400208347045705498DC768
:102A8000AE84B7150100938505DF2685EFB0501F92
:102A90001DE513050457A685EFF0DFF21304045774
:102AA0003C3091C7EFE05FB64A856FD0AFFA37058B
:102AB00001001305857DEF6040160149F5B7130548
:102AC0000457EFF0DFF837150100130545DFEF601D
:102AD000C014D9BFEFD2CFF509472322E56A2314EA
:102AE000B56AB285EFF01FBF6FD0CFF6EFD24FF4CB
:102AF00085472322F56A2A84EFF0DFBD8315846AB7
:102B000037150100130505BFEF6020110355846AD6
:102B10006FD04FF4EFD2CFF19305F0021305C54902
:102B2000EFB07012133515006FD0CFF2EFD24FF027
:102B30001305C549EFB0B0126FD0CFF1AA87038556
:102B400007006305B50001CD8507D5BF2E8581C976
:102B5000238007008507038707007DFB05458280EA
:102B6000EFD20FED9305F0021305C549EFF01FFDFD
:102B70006FD04FEEEFD2CFEB2E849307C549B71538
:102B800001003E85938545D1EFB0100AA285EFB0D4
:102B9000B0096FD02FECEFD2AFE92A84EF10D04606
:102BA000EF10F05413058425EF40F037A300040024
:102BB000EF10305037150100130585C6EFD05FCAFE
:102BC0006FD04FE9EFD2CFE3939A2600330B560133
:102BD000397183240B00BA89330755012E893E8C45
:102BE0000C43834701082A8A268542CAC68C3ED0F8
:102BF00032C2EFA0A04C12468A0933073A01B3074C
:102C0000360180430C432AC422853EC20A0CEFA041
:102C1000E04AB3078901B30B8A0183A50B002AC6DA
:102C20008843EFA0906B8327C900A2452AC83ED4F1
:102C30008327CA003ECCB7070080BD8C3D8CB3070C
:102C400059018843EFA07069B30739012A8DB24555
:102C50008843EFA09068AA8DEA852685EFA0B03E54
:102C6000EE852AD62285EFA0103EB257AA853E8572
:102C7000EFA0C044EE852AD62685EFA0D03CEA8599
:102C8000AA8D2285EFA0303CAA856E85EFA0F06466
:102C9000B257BE85EF60205A930500002A8DEFA041
:102CA000D031635005026A85EFB02044B7170100A8
:102CB00003A607E383A647E3EF80205EEFB0A04DB5
:102CC0002A8D825799CF6A85EFB02042B71701004D
:102CD00003A607E383A647E3EF90300CEFB0A04BC9
:102CE0002A8DC247139517000581EFB000402AD006
:102CF0002ED26A85E685EFA01035EFB0003F025670
:102D00009256EF60003BEFB00049AA8DEFB0E03D76
:102D1000B717010003A687E383A6C7E3EF9000314E
:102D20006346051C6E85EF60A023EFB0601D931D08
:102D3000050193DD0D0163930D00854D6E85EFB0A8
:102D40008021AA8CAA856A85EFA0E06D2A8D424574
:102D5000E685EFA0406DE2452AC82255EFA0F05766
:102D6000E685EFA0406C2AD46A85EFB00038B7162C
:102D7000010003A606E483A646E42ACC2ECEEF90FB
:102D800040366247F2473A86BE86EF908035B717E5
:102D900001002A86AE8603A587E483A5C7E4EF90E9
:102DA000C07FEFB0403F03A70B009C00E29723A831
:102DB000E7FE0327CA00AA8C054A3ADE9800569718
:102DC0003ACC98004E97814B3AD03E8C93170A012B
:102DD000C18363F3B711E14763CC7709EA852685A0
:102DE000EFA07026AA89E6852285EFA0D025AA85C6
:102DF0004E85EFA0A02CAA89E6852685EFA0B024F9
:102E0000AA84EA852285EFA01024AA852685EFA052
:102E1000D04C13881B00931B8801AA8493DB8B4141
:102E20004E84A2452685050AEFA04029E247B24517
:102E300023A8A7FE2285EFA060288257C24523A8B9
:102E4000A7FE03250CFFEFA060272328ACFEA255A8
:102E50007255EFA0A0262ADE0818EFE06FC1524796
:102E60005C01741830184C180818EF00E059B9BF0D
:102E70005285EFB0400EEA85EFA0F01C2A84EF6087
:102E8000E005AA892285EF60601A83270B003707C7
:102E90000080AA8AB3CBE7009247CE855E85804347
:102EA000EFA0701AAA84D6852285EFA0D019AA8532
:102EB0002685EFA0A020D685AA845E85EFA0B01855
:102EC000AA8ACE852285EFA01018AA855685EFA084
:102ED000D0402A84814BB1B752475C019306C900A8
:102EE00013068900930549004A85392B21616FD06B
:102EF000EFB4EFD2EFB02A84485D4111AE8B328B34
:102F0000EFB0C0112A89284083298404EFB0001152
:102F10002A8C4E85EFB0200493050000AA8CEFA008
:102F2000A07B6300051ECA854A85EFA0D011AA8444
:102F3000E2856285EFA03011AA852685EFA0F039E1
:102F4000EFB0A01A2A8A6685AE8AEFB0001A2A86E8
:102F5000AE86EF8080342A86AE865285D685EF8095
:102F6000D026EFB04023EF50306AEFA05073AA8410
:102F70006840EFB0A00AAA8A33053041EFA0B07DC7
:102F800093050000AA89EFA02075630F0516D6856A
:102F90005685EFA0500B2A8ACA854A85EFA0B00A51
:102FA000AA855285EFA07033EFB020142A8D4E858C
:102FB000AE8DEFB080132A86AE86EF80002E2A8673
:102FC000AE866A85EE85EF805020EFB0C01CEF50D2
:102FD0003079032A0401EFA0906CB3099A4033853D
:102FE000A940635F050A930500006685EFA0C06EE7
:102FF000630F05106685EFB0400F2A86AE862A8DD6
:10300000AE8DEF8080292AC452852EC6EFB0000114
:10301000EFB0A00D2247B2472A86AE863A85BE851C
:10302000EF90200C2AC42EC66285E285EFA0B00185
:10303000EFB0A00B2247B2472A86AE863A85BE85FE
:10304000EF90A0552A8CAE8C5685D685EFA0A07F38
:10305000EFB0A0092A86AE866285E685EF80E02380
:10306000B717010003A607EB83A647EB2A8CAE8CAB
:103070006A85EE85EF90E0062A86AE866285E68553
:10308000EF80B014EFB02011EF501058EFA0306176
:10309000AA84635305008144014563E34401D2845B
:1030A00099677390078083470405E207E187B1E3DE
:1030B00044C8AA94DE8504CC4A85EFA0C078EF50BE
:1030C000B054EFA0F063930780076374F500130515
:1030D0008007DA8528C04A85EFA0E076EF50D0520D
:1030E000EFA01062930780076374F5001305800753
:1030F00068C09967938787087390078041016FD0F4
:10310000EF931305000085B513050000C9B513053D
:1031100000009DBFEFD2CF914111AA842E8532C607
:10312000EFA060722A84A6852685EF90307932461A
:10313000B285EFA04071AA852285EFA0101AEF603A
:10314000A00F41016FD00F91ADC925CAEFD2AF8C4E
:103150002E8403A9C5020854B284CA85EFA0C057C3
:1031600021C183479403B9E703AA84024A85D28523
:10317000EFA0405C6350A00448581058B709008085
:10318000D28533453501EFF0FFF8AA854A85EFA0D7
:10319000C06263590500485408D48547230CF402E3
:1031A0006FD0AF8A485810588C5433453501EFF032
:1031B0007FF6DDB723242403CDB78280EFD2AF851D
:1031C0009387018D982319677310078003C9118DA8
:1031D000130787081379F90F7310078098233307B3
:1031E0002741318B0DCF8023014675143D888149DD
:1031F000138AC12D930A400563032403620461848A
:1032000011E041447D141374F40FB3045403CE85CC
:10321000D2942685EFF05FF34E86A689F1BF6FD07A
:10322000CF8235C583479503BDE3EFC2DFFE032A96
:10323000850283A98502AE842A84CE855285EFA0BB
:10324000C057635B05024858105837090080D28583
:1032500033452501EFF01FECAA854E85EFA0E05520
:10326000635E050080548854A285EFA0E04609C53E
:10327000854780D4238CF4026FC03FFD4858105816
:103280000C5433452501EFF0FFE82A84E9BF828022
:10329000EFC27FF803C4118D81441374F40F01450C
:1032A0009389C12D930A4005414B9387018D9C233F
:1032B0006304F4023309540305046204A68561849F
:1032C0004E994A86EFF0FFF56313640101442685A9
:1032D0001374F40FCA84D1BF0146A685EFF07FF4C2
:1032E0006FC0BFF6EFC25FF283C4118D4111E204DB
:1032F000E18401449389C12D130A4005C14B938792
:10330000018D9C236389F404338944034E9905CCD1
:103310008347840381E78347890395C7B3874403C1
:10332000832A4402D685CE978857EFA0C00F2AC6BD
:103330000854D685EFA0200F3246AA852285EFF0EB
:103340005FBB230C04028504E204E18463937401EF
:1033500081444A846DB70DCC44502685EFA0F058C7
:10336000B71701002A86AE8603A587EB83A5C7EBB6
:10337000EF80A065EFA030622AC60854A685EFA0B2
:10338000800A3246AA852285EFF0BFB6230C0402DC
:1033900041016FC0FFEAEFC2BFE9EFF03FE2EFF09B
:1033A0003FEFEFF03FF46FC0FFEA2388018CA38862
:1033B000018CB71700209387472623A0070023A27C
:1033C000070023A4070023A607009387C12A130739
:1033D000000098C3D8C398C7D8C723A4E18C8280C3
:1033E0009386118D1387018D8C2210231376F60F8F
:1033F000630BB6009C2293F7F70F14236385D70065
:103400008507BD8BDDBF8280EFC29FDFBA8C3E8B0C
:103410009387018D9C2359711387018D8507E207DE
:10342000E1873EC63ACA3247C147AE8BB289368978
:103430006313F70002C69387118D9C233247631BE9
:10344000F7002AC8EF50C001EF10E05EEFE00F86F2
:103450004245D5B79384C12C8C4008413704010004
:10346000138AC12CEFA0203E8325846DEF90104578
:10347000EF50102FEFA0B022CC40AA8A03A50B007A
:10348000EFA0603C8325846DEF905043EF50502DAA
:10349000EFA0F0208C44AA8B03A50900EFA0A03A6E
:1034A0008325846DEF909041EF50902BEFA0301F5B
:1034B000CC442A8C03250900EFA0E0388325846DD5
:1034C000EF90D03FEF50D029EFA0701DB71700202C
:1034D00013874726584722C83ED42A89938947260E
:1034E0006304E50A83C7018A138741968A07BA975E
:1034F0008C4303A58181EFA0E0236356A00237052A
:1035000001001305056B23A62901EF500071371543
:103510000100130505E7EF50407037150100130552
:103520000501EF50806F83A7C900B307F94013D599
:10353000F741A98F3385A740EFA0F021B71701000D
:1035400083A5078A2A840325CA00EFA0C02FAA8575
:10355000EF90D036AA852285EFA0C01D6356A00249
:10356000370501001305056B23A62901EF50E06A1A
:10357000371501001305C5E8EF50206A3715010023
:1035800013050501EF506069D247130740058023FA
:1035900083A509009387C12D1374F40F3307E40248
:1035A0009384C12DBA97238807042380070263D52B
:1035B000BA0005472380E70203A5490063DDAB009D
:1035C000130740053307E40226978347070293E772
:1035D00027002300F70283A68900635DDC00130740
:1035E00040053307E40226978347070293E7470025
:1035F0002300F70203A7C900635DE9001306400535
:103600003306C40226968347060293E78700230009
:10361000F602B387BA4013D6F7413348F6003308B1
:10362000C8403386AB409357F6413D8EB306DC402D
:103630001D8E93D7F641BD8E3307E9409D8E93577B
:10364000F7413D8F1D8F83A7C18093084005B308C4
:1036500014033307F70293074006A69823A0080136
:1036600023A2C80023A4D800B347F702368723A6B5
:10367000F80063D3F6003E876347C77863460701C7
:1036800063D5D700B68711A0C2871307400533075B
:10369000E402954626971CCB63FBF65C83A7818AE0
:1036A0007CC783470B00A300F7026388BA0001467A
:1036B000C14537150140EF40701C93074005B30723
:1036C000F402A697DC4399C70146C145371501406E
:1036D000EF40D01A93074005B307F402A6979C4722
:1036E00099C70146C14537150140EF403019130B0A
:1036F0004005330B6403269B8327CB00639C07564E
:1037000003AB818EE6855A85EFA0C0026343A0001B
:10371000668B03A509003385AA40EFA0D00383255B
:103720000A00EF905050AAC82AD003A5490033855B
:10373000AB40EFA0500283254A00EF90D04EAACABA
:103740002A8D03A589003305AC40EFA0D000832566
:103750008A00EF90504DAACCAA8C03A5C90033056E
:10376000A940EFA0407F8325CA00EF90D04BAA89E3
:1037700003A5C180EFA0207EAA854E85EFA0A00CF6
:10378000B717010083A5078AEF90F049930740051A
:10379000B307F402AACE15478256A69790436368F2
:1037A000C74ED0436365C74E90476362C74E060558
:1037B000058188DB93074005B307F402370A01004F
:1037C00003250A6FA69783AC0703E685EF90B04503
:1037D000DA85EFA04007D2471387118D9C23182369
:1037E00052D0AA89998F93F7F70F13FBF7003ECCBD
:1037F0001307EBFF954763ECE706EFA0100FB71731
:1038000001002A86AE8603A587E583A5C7E5EF807C
:10381000C01BB717010003A607E483A647E4EF70B7
:10382000D027EF50E048EF9060552A8A03A5418EDB
:10383000637FAA0233054541060533556503EFA0B2
:10384000E07DC24783A5876DEF905007EF50407130
:103850002AD25285EFA0807C9255EF903006B717A0
:103860000100AA8503A507E5EF90F03BAA89130A9A
:103870004005330A4403CE856685EF90D07CAA8D3F
:10388000014D269A2322AA0203250A01EFA00079FE
:10389000CE852A8BEF90307BEF500057EFA040662B
:1038A000825737070080232EAA0203AA076F934787
:1038B000F7FF371700203ED6930747252AD23ED878
:1038C0009C083387A7010C434E85EF90D0779C105E
:1038D0003387A701B25708C33377F500C257BA85BB
:1038E0003ADEB386A7019442368536DCEF90F06C61
:1038F00063500502E25672573685BA85EF90B032B2
:10390000D2852ADCEF9010636344A00062573A8AA4
:10391000110DC147E316FDFA8257528583A5076F43
:10392000EF90B069635405049309010603A50900EB
:10393000D2859109EF90307123AEA9FE9C18E397D0
:1039400037FF93094005B3093403D2856E85EF90A4
:10395000906FA69923A2A9021255EFA0206CD285E0
:10396000EF90706EEFA0C05923AEA902130A400574
:10397000330A4403E6855A85EF90F02AAA89269AED
:10398000832D0A0063930D3483274A00639F073217
:1039900083278A00639B073283A5C18EEF90B06AAC
:1039A000EF508046EFA0C0552324AA04130A400517
:1039B000330A4403269A03258A04EFA02066CE85A5
:1039C0002A8BEF905026232AAA025A85EFA0E07195
:1039D000B717010003A607E683A647E6EF806070ED
:1039E000EF904033C247232EAA0003A5818D83A503
:1039F000876D138D818DEF901065C2472A8A03A5CC
:103A0000C18D83A5876DA65CEF90F06393951C0034
:103A10008581AA89EF90705A9387C18D3ED26359F0
:103A20000500D2854E85EF90F0506343A0004E8A8A
:103A3000C24703A5418D83A5876D365BEF90B060CB
:103A400093151B008581AA89EF9030579387418D8C
:103A50003ED663590500D2854E85EF90B04D634345
:103A6000A0004E8A93074005B307F402D285A697BB
:103A700083A947024E85EF90F04B6343A0004E8A26
:103A8000E2471387818CB98B3AC8D289638C0712BD
:103A9000832907004E85EFA04065B717010003A6F4
:103AA00087E683A6C7E6EF80804D635CA0349387EA
:103AB000C12A8C430655EFA04002EFA00063938714
:103AC000C12A2AD82EDA1655CC43EFA00001EFA068
:103AD000C0612A86AE86EF80C0604258D2582ACC98
:103AE0004286C68642852ECEC685EF80805FF2472D
:103AF00062472A86AE863A85BE85EF70007AEF501F
:103B00000068EFA0406993074005B307F402032D56
:103B10000D00AA852AD86A85A697DC533ECCEF9083
:103B2000D049635C052C42576A85BA85EF90B00F87
:103B30002A8D9387C12A8C476685EF90107A925719
:103B4000931C150093DC1C009C43E6853E853ED00B
:103B5000EF90B046635E05008257E6853E85EF90A4
:103B6000900CEA85AA8CEF90F03C6343A000668D30
:103B70009387C12ACC475A85EF903076B257131BF2
:103B80001500135B1B0083AC0700DA856685EF9098
:103B9000D042635D0500DA856685EF90D008EA853E
:103BA0002A8BEF9030396343A0005A8DE2456A8535
:103BB000EF9070492A8BAA854E85EF9010406343A1
:103BC0000500DA8993074005B307F402A697C85B9E
:103BD00023A63703905BB717010083A547E5B70716
:103BE00000803D8DEFF00FD3CE852A8BEF9090347F
:103BF0006343A000DA89930740053304F4025A8531
:103C0000A294C05023A43403A285EF90B032134590
:103C1000F5FF85477D814146A38CA402238CF402E5
:103C20008C101385C12AEFA00075C247A28552856A
:103C300080C3EF90407F2AC8A2854E85EF90A07E7A
:103C40004246AA852685EFF0CFAA52471C864146F8
:103C50008C001CA3A257D6C0DEC213854726E2C43F
:103C6000CAC6EFA04071EFF00FF3EF0000446561AA
:103C70006FC0CFDC0146C14537150140EF40004021
:103C80008327CB00E38E07A603AB018EA5BCB685C8
:103C90003685EF90503BAA89EA856A85EF90B03A65
:103CA000AA854E85EF908041AA89E6856685EF90CA
:103CB0009039AA854E85EF906040EF50E05793070A
:103CC0004005B307F402A697EDB4930C4005B30C7E
:103CD000940383A5C18C4E85EF90F036EF50C0124F
:103CE000EFA0002203AAC12B138DC12BA69C23A4F5
:103CF000AC04EFA0A0322AD26E85EFA0C025925767
:103D0000AA853E85EF903034DA85EF90C071AA8D98
:103D10005285EFA0A030AA856E85EF90B021635444
:103D2000A00023A44C05930C4005B30C9403032A74
:103D30004D00A69C03A58C04EFA0402EAA8D03A5E0
:103D40004C00EFA04021AA856E85EF90D02FDA8538
:103D5000EF90606DAA8D5285EFA0402CAA856E85EC
:103D6000EF90501D6354A00023A44C05930C400514
:103D7000B30C9403032ACD00A69C03A58C04EFA0EA
:103D8000E029AA8D03A5CC00EFA0E01CAA856E85D2
:103D9000EF90702BDA85EF900069AA8D5285EFA025
:103DA000E027AA856E85EF90F0186354A00023A445
:103DB0004C05930C4005B30C9403032A8D00A69C7C
:103DC00003A58C04EFA080252A8D03A58C00EFA00D
:103DD0008018AA856A85EF901027DA85EF90A06495
:103DE0002A8B5285EFA08023AA855A85EF909014E4
:103DF000E35EA0BA23A44C0555BE825703AD076FFE
:103E00000DBBD289C1B3E3410689B2876FF0FF874A
:103E1000EFC26FC09384C12C08412E8A8C4041119F
:103E200036C432C637090100EF90F0218325896D31
:103E3000B719002013844926EF904028EF50401214
:103E4000EFA0E005CC4008C003250A00EF90B01FAA
:103E50008325896DEF908026EF508010EFA020041D
:103E600032468C4448C00842EF90F01D8325896D8E
:103E7000EF90C024EF50C00EEFA06002A246CC44E9
:103E800008C48842EF90301C8325896DEF90002391
:103E9000EF50000DEFA0A00048C49306C400130625
:103EA00084009305440013854926EF0090181307FA
:103EB000000023A4E18C9387C12A98C3D8C398C774
:103EC000D8C741016FC06FB8EFC28FB683A5412D2F
:103ED00008413714002013044426EF90D016B7078A
:103EE000010083A5876DEF90601DEF506007EF9094
:103EF000107B08C413058400EF0030166FC08FB527
:103F0000EFC20FB383A5812D08413714002013049D
:103F10004426EF905013B707010083A5876DEF90FB
:103F2000E019EF50E003EF90907748C41305C40008
:103F3000EF0070146FC00FB223ACA1808280EFC27B
:103F40008FAD3719002001449389C12B13094924EF
:103F50009384C12C414AB30789008843B38A8900FE
:103F6000EFA0C00BB38784008C431104EF90B00D19
:103F7000EF90107923A0AA00E31F44FD6FC0EFACBF
:103F800083C6018D83C7118D93F7F70F6388D70020
:103F900083C7118D8507BD8BA388F18C8280EFC20A
:103FA0002FA99387618F9C2393F7F70F1389618F54
:103FB0009384718F1384818F91EB9C2093F7F70F7B
:103FC00091E71C2093F7F70F6385070C3705010075
:103FD0001305056BEF40704437150100130545EDDF
:103FE000EF40B0438347090093F7F70F8DC7B7172A
:103FF000002003A54728EF90107683A5C12CEF90F1
:104000008042EFA0800E2A8637150100AE86130588
:1040100045EEEF4090409C2093F7F70F95C7B717F8
:10402000002093874728C843EF90F07283A5012DA5
:10403000EF90603FEFA0600B2A8637150100AE8637
:104040001305C5EEEF40703D1C2093F7F70F95C7A1
:10405000B7170020938747288847EF90D06F83A534
:10406000412DEF90403CEFA040082A863715010013
:10407000AE86130545EFEF40503A371501001305A2
:104080000501EF409039230009002380040023003C
:1040900004006FC02F9C238B018EA38B018E238C79
:1040A000018E8280238EA1808280EFC26F98854529
:1040B00037050040EF10F04E6FC0CF992967130706
:1040C00007C49387018F636DA7041567130707E281
:1040D000AA856379A7048981114737450F00130525
:1040E00005243345B50298A3930730064205418164
:1040F00063E5A704EFC2CF93371501004111130503
:1041000005EC2EC6EF407031B2453715010013059E
:1041100005BFEF4090301305400641016FC08F93FB
:10412000BA8555BF0967130707716376A7009355D2
:10413000150009475DB705474DB782807971854500
:104140003705004022D626D44AD24ED052CE56CC85
:104150005ACA5EC862C666C46AC26EC0EF10104812
:1041600063070544854537050040EF10B04883A735
:1041700041921384419299EF83C6018D83C7118DBB
:1041800093F7F70F6395D7249305007D370500401B
:10419000EF10D0431C40638C074083C7070223887D
:1041A000F190858B1389C190938901919384018249
:1041B0006389072805469305000237150140EF3053
:1041C000F06BFD579CA083C70900898B6380072E85
:1041D000371A014005469305000413050A80EF30A5
:1041E000F069FD579CB083C7C181A1CB9305002026
:1041F00013050AC0EF10E06C83C6D18593875190F8
:104200003387A6403337E0006388A60294238DC627
:10421000104054426352D002B716002093864627BE
:10422000CC42B716002093864628CCC28545A38B86
:10423000B18E144A2320D90098A383C70900918B1B
:1042400063820728371501400546930500201305B2
:104250000580EF30B062FD57BCA083C70900A18B79
:104260006389072C371501400546854513050580F0
:10427000EF30D060FD57B7190140BCB0014A938BB5
:1042800009C0B71A00208387018F1840635DFA2A9E
:104290009387819194431843369798C3635BE002F8
:1042A000054691455E85EF30705D1440938781919E
:1042B0009843944A01469145158F98C39C201387D3
:1042C0004A271443E207E187B6975E851CC3EF30A7
:1042D000F05A18409387C19194435843369798C336
:1042E000635FE00205469305000813850980EF30FF
:1042F000F05814409387C1919843944A014693051E
:104300000008158F98C39C3013874A275443E2074F
:10431000E187B697138509805CC3EF3030561840AB
:104320009387019294431847369798C3635DE002E0
:104330000546A16513850980EF30505414409387DA
:1043400001929843944A0146A165158F98C3BC20F9
:1043500013874A271447E207E187B6971385098038
:104360001CC7EF30B0511840938741919443584790
:10437000369798C3635DE002054689451385098039
:10438000EF30D04F1440938741919843944A0146AF
:104390008945158F98C3BC3013874A275447E207D5
:1043A000E187B697138509805CC7EF30304D8327CE
:1043B0000900184085072320F90083270900184BBE
:1043C00063F3E718050A620A135A8A416DBD03C7F1
:1043D000118D93074005B387E702371700201307B5
:1043E00047D0BA97CA3F05472388E7042388E704E4
:1043F0001CC023A00190EFF07FCC2399A18E0387EE
:10440000018F2394E1901C4003D50704239AA18EC9
:10441000EFF0DFCA23AEA18EAA8537050040EF106A
:10442000F01A1C409C4B8583B307F04023ACF190FD
:1044300023AEF19023A0F19223AAF19023A601903C
:1044400091BB01469305000237150140EF30104340
:1044500083C7C181054A23804401E38607D6371507
:10446000014093050008130505C0EF10804583C681
:10447000C185938741903387A6403337E000638539
:10448000A602942395C214409042635FC000371681
:10449000002083254627944A371600202322B62879
:1044A000238B418F2320D90098A331BB37150140BE
:1044B00001469305000413050580EF30303C854725
:1044C0009CB0A5BBB71A0140014693050020138597
:1044D0000A80EF30B03A83C7C181054A2381440185
:1044E000E38D07D69305004013850AC0EF10603DA9
:1044F00083C6E185938761903387A6403337E00018
:104500006387A602942385C6104014466351D002E7
:10451000B7160020938646278C46B7160020938650
:1045200046288CC6238C418F144A2320D90098A397
:104530002DB3371501400146854513050580EF3041
:10454000F03385470DBB184083270900544B63EFB8
:10455000F606504F83A6C18F9384C18FB387C602DE
:10456000B396C602E183505FA206D58F3443B69757
:10457000C207C183239AF18E1387418F6373F600BC
:1045800012A30A23EFF09FB3AA89AA85370500403A
:10459000EF10D00388404E9588C01840832709004B
:1045A000184B63E6E70023200400EFF07F9D3254B0
:1045B000A25412598259724AE24A524BC24B324CAF
:1045C000A24C124D824D45617300203083270900B3
:1045D000144F63F2F604544F83A7019078439384F9
:1045E00001903385D702B397D7026181A2075D8D11
:1045F0009317050103D5418FC183637BF500131524
:1046000007014181E370E5F81315070141819DBF62
:104610001D8D4205FDB783D5218F37050040EF1072
:10462000E07A83D781901387018F1CA3BDB7EFB2C7
:104630003FC001112A8485450545EF10A04F93071F
:1046400030024C08370500403ECAE084231D0100BB
:10465000EF10806A0546854537050040EF10E0758C
:104660009307C0127C8685475C87680085473EC8F3
:10467000EF10802705616FB0FFBDEFB27FBB9305E0
:1046800000023715014037140140EF307022130546
:10469000048093050004EF30B021130504809305D6
:1046A0000020EF30F020130504808545EF305020C6
:1046B000C14537150140EF30B01F0546C1453715DC
:1046C0000140EF30B01BC14537150140EF30501E9F
:1046D0000546C14537150140EF30501AC145371521
:1046E0000140EF30F01C0546C14537150140EF3061
:1046F000F018C14537150140EF30901B0546C14504
:1047000037150140EF309017130504C093050020C2
:10471000EF30901C0546130504C093050020EF30D0
:10472000F015130504C093050008EF30F01A054694
:10473000130504C093050008EF305014130504C09E
:1047400093050040EF3050190546130504C093054A
:104750000040EF30B012130504C09145EF30501502
:10476000130504C001469145EF3050110546C1457F
:1047700037150140EF3090101305048093050008B1
:10478000EF30101313050480014693050008EF3045
:10479000F00E0546C14537150140EF30300E1305C8
:1047A0000480A165EF30D010130504800146A16597
:1047B000EF30D00C0546C14537150140EF30100CE5
:1047C000130504808945EF30B00E130504800146BF
:1047D0008945EF30B00A0546C14537150140EF3035
:1047E000F00913054006EFF09FE4854537050040CA
:1047F000EF10205B0547238EE18099679387870838
:10480000739007806FB01FA5EFB29FA203C7018D01
:1048100083C7118D93F7F70F6395E70083A7419244
:1048200099C7EF30F043012CEFC05FC8C5B76FB038
:104830007FA21967731007800841B717002093877C
:10484000472788C38C4113078708CCC3104290C701
:104850009442D4C773100780828099677390078051
:104860001441371700201307472714C79387870879
:10487000739007808280996773900780144137177F
:1048800000201307472754C7938787087390078032
:1048900082809967739007801317250037150020D1
:1048A000130545273A950841938787087390078039
:1048B0008280EFB2FF97EFF03FF50546C14537150F
:1048C0000140EF30A07B0546C14537150140EF3070
:1048D000E07A0546C14537150140EF30207A05469C
:1048E000C14537150140EF3060796FB0BF96EFB228
:1048F0003F94814537050040EF10A04A03C7018D62
:1049000083C7118D93F7F70F639BE7008545370544
:10491000004023A20192EF10C0486FB0BF93EFF0A8
:104920002FE6E9BFEFB2DF9083A5C182B717010080
:1049300003A5871BEF80302F23AEA1926FB09F910C
:104940006355050003C58193828093874195AA979B
:1049500088238280EFB23F8C41112A849DC53705A0
:104960000100130505722EC6EF40202BB245371506
:104970000100130505C9EF40402A37150100130552
:1049800005F4EF408029EFC0FFAB45679306C71BD6
:1049900085471307C71B7D4683994600635E340530
:1049A0009386F7FF8A068A07BA96BA9783942600F9
:1049B0000395270003990600058DEF90C0592A8AB8
:1049C00033052441EF902059AA855285EF80B067C6
:1049D0002A8433852941EF900058AA852285EF80EB
:1049E00090242A842685EF900057AA852285EF809F
:1049F000E06C41016FB07F8585079106E39EC7F8A3
:104A000013050000FDB7EFB2BF8203A501978145F2
:104A1000EFF05FF423A2A1961307000023A4E19610
:104A20009967739007802382019493878708739016
:104A300007806FB03F8283C7419493F7F70F638C71
:104A4000071AEFB26FFCEFF01FFC83A4419603A995
:104A50004197138481954A85EF90E04FA685EF90AA
:104A6000C007B717010083A5078DAA89EF80904C76
:104A70006352A00685471CA0B717010003A4871B3B
:104A800003A5019513894195EF90E04CA685EF8031
:104A9000D0526359051403A58183EF90C04BA685BE
:104AA000EF8050496350A0142285EF90403F058568
:104AB0002300A90093878194984383A60199998E36
:104AC0000567130777BB6375D70003A7019998C3E0
:104AD0006FB00FF7B717010083A5070E4E85EF8063
:104AE000D04D634405006317090085471CA01304DB
:104AF000000079B71C201389019399C79307000020
:104B00002320F9002300040083A501834E85EF8054
:104B10009053832509002A8A4E85EF80205A03A4EA
:104B20000194AA89A285EF805049634B050003A434
:104B3000C1934E85A285EF80F03F6343A0004E8471
:104B400083A5C182232089002285EF80D04F138462
:104B5000C1920C40AA8A2685EF80307883A5818295
:104B60001389C194EF80304EEF902058B7170100A1
:104B700003A6870E83A6C70EEF70A0562A8B0325C7
:104B80000900AE8BEF906056B717010003A6070F20
:104B900083A6470FEF70E0542A86AE865A85DE85DD
:104BA000EF60A06FEF90205FAA892320A90004C0C6
:104BB000D6855285EF808050CE85EF8010729305A8
:104BC00000002A84EF80703FE34305F2B71701002D
:104BD00003A9871B2285CA85EF80D035E352A0EA5E
:104BE0004A8479BD371501001305850F230009009C
:104BF000EF40A002C1B58280EFB28FE3130700003F
:104C000023A0E19483A5C182B717010003A5871BE8
:104C1000EF80700123AEA192914537150140EF302E
:104C200020490146894537150140EF30C045EF3036
:104C3000E054595723A8E194B717010003A9070EC0
:104C40001384418308408145EFF0DFD0CA85EF80AF
:104C5000D036635605001C40C1171CC0D5B71307DA
:104C6000A00F23ACE182B717010003A9471B1384EF
:104C7000419308408145EFF0FFCDCA85EF80902B2E
:104C80006356A0001C40C1071CC0D5B72D45EF30AE
:104C9000A0306FB02FDC8280EFB28FD923AA0196AB
:104CA00023AC01960146914537150140238A0194B2
:104CB000EF30C03C6FB00FDAEFB28FD4397183AAF6
:104CC000019932CA854763DBB70037150100130528
:104CD00085F7EF30907421616FB04FD62A8C37156D
:104CE0000100130545FAAE84EF303073EFF0DFFAC0
:104CF00063DA0414130700F8238CE192930B000885
:104D0000B717010003AB07F6930700003EC6BE8944
:104D1000B717010003A847EB83A707EB5E8442CED9
:104D20003ECCB717010003A8C7F683A787F65E8AB3
:104D300042D23ED0B717010003A847E483A707E497
:104D400056C442D63ED4B717010003A847F783A73D
:104D500007F7D68D02C8854C02C23ED842DA03CD91
:104D60004194137DFD0F63000D28EFF0DFC963C48C
:104D7000040E9397240013874196BA9783A90700DE
:104D80003245CE85EF80101B6343A0004EC6CE8512
:104D90005A85EF809022634305004E8B63810C049B
:104DA000E2854E85EF801019635FA022A24703A71A
:104DB00001991D8F85679387873863F6E722B307CC
:104DC0008A40858793F7F70F63DA0408238CF19202
:104DD00083AA0199A24762C6B387FA403EC8E2851A
:104DE0004E85EF80901D814C635F051E03A70199DE
:104DF00085679387873833075741814C63F5E71EF2
:104E000083A701993EC492476351F01CA2474247D1
:104E1000B3875741B38CE700B307F7403384870269
:104E2000CD4733449403529463D0871E63DD042A34
:104E30009307C00E63C987029307F00F228A63C8E5
:104E40008B020DA893874195A6971307F00798A3A7
:104E5000930BF00775B583A981961DB7138741950C
:104E600026971CA3B5B71304C00E9307F00F228A30
:104E70003384874037150100D285130585FBEF3059
:104E8000D05937150100A285130585FCEF30F05885
:104E90005A85EF9080252A8637150100AE861305C6
:104EA00045FDEF3090573245EF9020242A86371584
:104EB0000100AE86130505FEEF30305612478947D4
:104EC00063D5E7106685EF900009B707010083A559
:104ED000476DEF804055AA8C2285EF70F06F6246D7
:104EE000F246EF7000202ADC32452EDEDA85EF80B4
:104EF000D03EEF90801F02569256EF70801E2256D1
:104F0000B256EF70001E6257F2572A86AE863A8577
:104F1000BE85EF60902BEF900028EF90001D2A8651
:104F20002ADC37150100AE861305C5FE2EDEEF30F4
:104F3000D04E6685EF90601B2A8637150100AE863D
:104F4000130585FFEF30704D6257F2574256D25627
:104F50003A85BE85EF70E018EF90E0232A8B371575
:104F6000010013054500EF30504B5A85EF90E017D4
:104F70002A8637150100AE8613054501EF30F0494A
:104F8000DA855A85EF808013E685EF80C049EF907F
:104F9000C0152A8637150100AE8613050502EF30CD
:104FA000D047DA856685EF80100AB717010083A520
:104FB00047F6EF805009EF9040132A86371501001D
:104FC000AE861305C502EF305045B3078A008587CA
:104FD00093F7F70F63DD0402238CF1929247628B03
:104FE000EA8C85073EC2B717010083A5478D62850D
:104FF000EF80C00CCE85EF80407C635F05003715E5
:10500000010013058503F1B1514A5144A5B5138739
:10501000419526971CA3D9B783A701991307007D53
:10502000B387B7416372F70637050100B71D01006A
:1050300063D004081305857D03CD8193EF30F03DE7
:1050400013854DFCEF30304237150100130545063E
:10505000EF30B03C4E85EF9040092A8637150100AD
:10506000AE86130505ABEF30503B37150100130535
:105070008592EF30903A37150100EA85130505BF98
:10508000EF30B03983AD019983A7019903A7019946
:10509000BA972247B3875741998F375712001307A2
:1050A00007F86379F702371501001305C50615B136
:1050B00093874195A6971305857D03CD0700EF30B3
:1050C000D03513854DFCEF30103A3715010013052C
:1050D0004591BDBF92475247E353F7C837150100CA
:1050E0001305C508FDB69307B00E63D787001304F8
:1050F000B00E9307E00FA5BB9307E00F81B3EFB2AB
:105100002F932A84EFF05FB9EFC08FC505E537050F
:10511000010013050572EF30503037150100A285EC
:10512000130505C9EF30702F371501001305451120
:10513000EF30B02EEFC04FBF6FB0CF91EFB24F8FB7
:105140002A84EFF07FB5EFC0AFC105E53705010058
:1051500013050572EF30702C37150100A285130579
:1051600005C9EF30902B3715010013054514EF30BA
:10517000D02AEFC06FBB6FB0EF8DEFB26F8BEFC077
:105180002FBE09ED3705010013050572EF30F02839
:105190003715010013054517EF303028EFC0CFB8A1
:1051A0006FB04F8B411122C637040040854513056F
:1051B000044026C44AC2EF00704263000512130582
:1051C00004408545EF00104383C7C1831384C18326
:1051D00093849195C1E783C741959CA095EB0146C7
:1051E000914537150140EF2070691C201D47850748
:1051F0001CA083C7B1959384A1951384B195636175
:10520000F71245678A071307C7EFBA979C4382874F
:105210000546914537150140EF20506601469145FE
:1052200037150140EF20906505469145371501403F
:10523000EF20D064372901400146854513050980D8
:10524000EF20D0630546854513050980EF201063E4
:105250000146854513050980EF20506298201C20E7
:10526000E3E5E7F8ADBF85471CA09820BD4763FC88
:10527000E702138741941023938641941376F60F27
:105280001387C1959387019619E60C4323A8B1961D
:105290008C4323A6B196054690A2238004002320C8
:1052A000070023A0070083A6019903A68199918E88
:1052B0001306007D6373D60883C6819293F6F60FBA
:1052C000ADEE370501001305857DEF30101537155C
:1052D0000100130545FCEF3010193244A244124975
:1052E000410173002030372501401305054031236B
:1052F0009387C195984309852A9798C38947ADB785
:105300008D479DB791478DB79547B9BF9947A9BFBD
:105310009D4799BF9C202300040085079CA0B1B73E
:105320003705010013050572EF30300F3715010006
:105330001305C5F1EF30700E0DBF03A7019983A7C8
:105340008199B307F7401307007DE378F7F883C727
:10535000819293F7F70FD1D323840192BDBFEFA2BF
:105360003FEDEF809058B717010003A687F383A69F
:10537000C7F3EF601057EF8010626FA0BFEDEFA290
:105380003FEBEF809056B717010003A687F383A683
:10539000C7F3EF608063EF8010606FA0BFEBEFA2F8
:1053A0003FE9EF809054B717010003A687F383A667
:1053B000C7F3EF608061EF80105E6FA0BFE9EFA2DE
:1053C0003FE7EF809052B717010003A687F383A64B
:1053D000C7F3EF601051EF80105C6FA0BFE7730060
:1053E0002030EF20C052AA85371501001305852310
:1053F000EF30B002EF200052AA85371501001305E7
:105400008524EF309001EF202050AA853715010048
:1054100013058525EF30700001A0B71702409843AF
:10542000B706FFF841111367170098C3D843370632
:105430000200758FD8C39843B706F7FEFD16758F27
:1054400098C39843B706FCFFFD16758F98C3D843E1
:10545000B70681FFFD16758FD8C39843B70600ECD9
:10546000FD16758F98C33707FF0098C723A607025C
:1054700002C402C69843C166558F98C3B71602404E
:1054800005679C42F18F3EC6A24785073EC4B247DE
:1054900081E7A247E397E7FEB71702409C431397C3
:1054A000E7006357070685473EC632478547631FB7
:1054B000F704B7170240D843B706C1FFFD16D8C39B
:1054C000D843D8C3D84313670740D8C3D843758F90
:1054D000D8C3D843B7061D00558FD8C39843B70625
:1054E0000001558F98C3984393166700E3DD06FECD
:1054F000D843B7160240719BD8C3D843136727001F
:10550000D8C32147DC42B18BE39EE7FE4101828094
:1055100002C661BF01A001A001A001A001A001A0DD
:1055200001A001A001A001A001A001A001A001A073
:1055300001A001A001A001A001A001A001A001A063
:1055400001A001A001A001A001A001A001A001A053
:1055500001A001A001A001A001A001A001A001A043
:1055600001A001A001A001A001A001A001A001A033
:1055700001A001A001A001A001A001A001A001A023
:1055800001A001A001A001A001A001A001A001A013
:1055900001A001A001A001A001A001A001A001A003
:1055A00001A001A001A001A001A001A001A001A0F3
:1055B00001A001A001A001A001A001A001A001A0E3
:1055C00001A001A001A001A001A001A001A001A0D3
:1055D00001A097B1FF1F9381614517B1002013010E
:1055E00061A217D50000130525C397B5FF1F93854A
:1055F00065A11386818663FAC5008322050023A076
:10560000550011059105E3EAC5FE1385818697C50E
:10561000FF1F9385E5F06377B50023200500110592
:10562000E36DB5FEFD42739002BCAD4273904280C3
:10563000B76200009382820873A0023097B2FFFF26
:105640009382C29F93E2320073905230EFF0FFDCFE
:1056500097D2FFFF9382C2F473901234730020300C
:10566000EFA21FBDB727014093870740631CF500D9
:10567000854513050020F129814513050020D12916
:105680006FA05FBDB737014093870780E31AF5FE2F
:105690008545130500407529814513050040C5B7B0
:1056A0005C413707F1E01307F7EF944D7D8F9C4184
:1056B000D58FD44DD58FD441A206D58FD98F5CC15B
:1056C0001C4537F7F1FF1307D77FD4457D8F9C49E1
:1056D000D58F94458606D58FD98F1CC55C55370765
:1056E00010FF7D177D8FDC29FD1793F7F70FD20789
:1056F000D98F5CD582801C4589C593E717001CC5EE
:105700008280F99BEDBF1C4593E787001CC5828012
:1057100008450D81058982801C4593E747001CC51B
:10572000828008450981058982801C4591C537071B
:105730005000D98F1CC582803707B0FF7D17F98FC5
:10574000D5BFA54763F7B7048D47138765FF3307B8
:10575000F7020328C5009D47B397E70093C7F7FFFB
:10576000B3F70701B396E600DD8E54C5994763E3AE
:10577000C70495477D163306F6025859FD47B3977F
:10578000C70093C7F7FFF98F3396C5005D8E50D9D8
:1057900082800D473387E502032805019D47B397B3
:1057A000E70093C7F7FFB3F70701B396E600DD8E76
:1057B00014C96DBFB14763E2C7029547651633064A
:1057C000F6021859FD47B397C70093C7F7FFF98F43
:1057D0003396C5005D8E10D9828095474D163306ED
:1057E000F6025855FD47B397C70093C7F7FFF98FE7
:1057F000B395C500DD8D4CD5828068454205418159
:1058000082809C4513F7070113F8F70001C7D841C0
:105810003368E8008E2113F7F50F39C3184181462C
:10582000854E3D4F930F800293028004214E3396A4
:10583000DE00B3F8C50063111603939826003313F6
:105840001F011343F3FF3377E300B318180133E765
:10585000E800639FF70550C98506E39AC6FD18C1A5
:105860001307F00F6375B70454412146854E3D4F31
:10587000930F800293028004414EB398CE0033F719
:1058800015016392E8021317260001173313EF0086
:105890001343F3FFB376D3003317E800D98E639D2B
:1058A000F701232A15010506E319C6FD54C18280BC
:1058B000E39457FA10C94DB7E39757FE2328150113
:1058C000DDB708456D8D3335A00082800CC982801C
:1058D0004CC98280AD67373700409387A7AA1CC3A5
:1058E000828023AEA19682809387C197944318212A
:1058F00081E63C21920721A894430546639FC60296
:105900003C21103192076314D60093E707F8B7E6FD
:1059100000E093F7F70FBA962380F6408546935739
:1059200057003397E6005441A5C2938707048A07BE
:10593000B7E600E0B69798C382808C4389466391AE
:10594000D50214313C216365D6008A06B6975DB74F
:105950009386E6038A06B69793F7F70F920775B713
:1059600090438D46631CD60014313C216364D600FD
:105970008606E9BF9386C6078606F1BF9443914722
:10598000E39EF6F81C31BDB7938707064DB7B716EF
:105990000240DC4251777D17F98F5D8DC8C282804D
:1059A000371702405C439146B18B6385D700A1460F
:1059B0006382D706B7177A00938707201CC1371672
:1059C00002405C42370700201307C7049183BD8B58
:1059D000BA9794231C41B3D7D7005CC15442A1822B
:1059E0009D8ABA969422B3D6D70014C55442AD828C
:1059F0009D8A36971823B3D7E7005CC55842398390
:105A0000937637001387418436971823B3D7E7027C
:105A10001CC982805C435843C166C983758FB7F641
:105A2000FF1F83A6C670BD8B8907139616016348B6
:105A30000600C54601466392D702C94739A8894680
:105A4000638FD702BD46638ED702C146638ED702ED
:105A5000C54601466393D700C1471DEF3747024053
:105A600003270780418B05C737177A0013070720E4
:105A7000B307F7021CC121D61C41858381B70146BB
:105A80006DBF0546B547D1BF0146BD47F9B73717CA
:105A90003D0013070790E9BFB7150240D85593168C
:105AA000F700D85563DF060411833D8B930617007A
:105AB00037177A00130707203357D70218C1D45578
:105AC000A182BD8A8DE295463307D702058318C1AE
:105AD00037170240585714413D8B050733D7E6026C
