:100000006F70606113000000130000001300000017
:100010001300000013000000130000001300000094
:100020001300000013000000130000001300000084
:08003000130000007300100032
:100038000000000000000000227400002674000088
:10004800000000005C7500000000000000000000D7
:100058005E750000607500000000000000000000F0
:100068004AA10000000000006475000000000000C4
:1000780070A40000687500006A7500006C750000C7
:100088006E750000707500007275000074750000D0
:1000980076750000787500007A7500007C750000A0
:1000A8007E75000080750000827500008475000070
:1000B80086750000887500008A7500008C75000040
:1000C8008E75000090750000927500009475000010
:1000D80096750000987500009A7500009C750000E0
:1000E8008A610000D4710000A2750000A4750000A8
:1000F800A6750000A8750000AA750000AC75000080
:10010800AE750000B0750000BCA20000B475000018
:10011800B6750000B8750000BA750000BC7500001F
:10012800BE750000C0750000C2750000C4750000EF
:10013800C6750000C8750000CA750000CC750000BF
:10014800E2290000D0750000D2750000D4750000C7
:10015800D6750000D8750000DA750000DC7500005F
:10016800DE750000E0750000E2750000E47500002F
:10017800E6750000E8750000EA750000EC750000FF
:10018800EE750000F0750000F2750000F4750000CF
:10019800F6750000F8750000FA750000FC7500009F
:1001A800FE7500000076000002760000047600006C
:1001B80006760000087600000A7600000C7600003B
:1001C8000E7600001076000012760000147600000B
:1001D8000000000000000000000000000000000017
:1001E8000000000000000000000000000000000007
:0801F8000000000000000000FF
:10020000397101436EC619A0397141536AC866CA73
:1002100062CC5ECE19A0397101535AD056D252D455
:100220004ED64AD826DA22DC06DE330161408282CD
:1002300041114AC026C222C406C68282B24D410183
:10024000024D924C224CB24B4101024B924A224A3F
:10025000B2494101024992442244B24041018280A4
:100260003D432A876373C3029377F700BDEFADE583
:10027000937606FF3D8ABA960CC34CC30CC74CC795
:100280004107E36BD7FE11E28280B306C3408A06C2
:100290009702000096966780A6002307B700A30682
:1002A000B7002306B700A305B7002305B700A304D2
:1002B000B7002304B700A303B7002303B700A302CA
:1002C000B7002302B700A301B7002301B700A300C2
:1002D000B7002300B700828093F5F50F9396850051
:1002E000D58D93960501D58D61B79396270097021A
:1002F000000096968682E78086FA9680C1171D8F49
:100300003E96E374C3F8A5B70100010001000100A7
:10031000010001000100014582803307C5009307F9
:10032000001063C7E702EFF21FEF3289AE89AA849B
:10033000014493170401C18363FE270133878900B9
:10034000A6970C231395070141817D3F0504D5B77E
:10035000014582800545D5BD010001000100010075
:10036000010001000100010001000100014582803F
:10037000EFF21FEC4111AA840144931704012EC629
:10038000C18332C463FEC700338584001375F50F43
:10039000E137B2452246B387850088A30504F1BF43
:1003A0000545410145BDEFF21FE72A89AE8432843D
:1003B0009309F00F373A0100B73A01007D14137426
:1003C000F40F630B34038C2003550900353F0345BC
:1003D000090059379C20638AA70013054AB5EFE04E
:1003E000706B1385CAB5EFE0F06A832709008504B6
:1003F00085072320F900D9B789BDEFF27FE32E9658
:100400004111AA841374F60F88202EC6B137B24565
:1004100088A19C40850585079CC093F7F50FE315DF
:10042000F4FE410105BDEFF2BFE07971CD651384A3
:1004300085B14146938585B10A85EFE0905A4146E2
:10044000930504010808EFE0D059414693050402E2
:100450000810EFE01059B716002037170020814729
:10046000138681329386862A13078729C14533086C
:10047000F100032808003385C70000082320050188
:100480003308F400032808003385D7000010232028
:1004900005013308F400032808003385E7009107BD
:1004A00023200501E395B7FCEF50502EB73701002C
:1004B00083A787B71306000023A2F19223A2F19429
:1004C000373701000327C7B7B736010023ACE192E5
:1004D0009567938707E223AEF19223A0C194B737C3
:1004E000010083A707B883A646B823A8F19223AAE0
:1004F000D19223A6F192138701B810C750C33737A2
:100500000100032787B823A0C1B823AAE182B73727
:10051000010003A5C7B8EF60D06823A8A182B73750
:10052000010003A507B9EF60D06B23A6A182EF609D
:10053000204437370100032747B937350100130539
:1005400045B523A4E182EFE0F054373501001305EF
:1005500085B9EFE030544561F5B9EFF27FCA938574
:100560004125131425009388C50013888500138A3C
:100570004500C6864286338B8500AA899307000012
:10058000D285138541252320FB00EF50500DB7077E
:10059000002093878702A2978843938B4181EFE0E5
:1005A000901BB737010003A6871083A6C710CE9B08
:1005B000EFC010412A8C03850B00AE8C938441263A
:1005C000EFD0700F2A86AE866285E685B70C0020D4
:1005D000EFC0103F938C8C01EFE0B0223389840090
:1005E000A29C373E01002320A90003A50C0083250F
:1005F0000E109389818023A0A900EFD09049138326
:10060000C400138D840091042A879A866A86A68581
:10061000138541269387818BEF40F0639307000099
:100620002320F900EF608022930700002320FB00C5
:10063000938801261388C125D285370A0020C686F3
:10064000428613854125130ACA00EF505001229AB1
:10065000832D0A0003850B00B7070080B3CDFD0092
:10066000EFE02076AA856E85EFE0A004373E01001A
:1006700083250E102320A90003A50900930D000077
:10068000EFD03041138301272A879A866A869387A1
:10069000818BA68513854126EF40F05B2320B901AD
:1006A000EF60C01A83250A002E85EFD0F0072A8A52
:1006B00003850B00EE8BEFE0C070AA855285EFD06A
:1006C000507FB737010083A5C7B72320A90003A532
:1006D0000C00EFD0107E373E010083250E1023A0C2
:1006E000A900EFD0103B138301272A879A866A86D8
:1006F0009387818BA68513854126EF40D055232013
:10070000B901EF60A014938701B8A29703AA07006C
:100710009387C1B8A2978C435285EFD0F00093879E
:1007200081B9A297AA8A2320AB008843D2859384FB
:100730004127EFD0607FA29488C0B7070020B7049C
:1007400000209387070093844403A2943E940840BA
:10075000D285EFD0607D88C02320590123A0B90144
:10076000EF505018E1BCEFF2BFAC2E84AA853735AC
:100770000100130505F8EFE0F0312285EFE0A07DE0
:100780002A8637350100AE86130545F8EFE0903034
:10079000D1B4EFF2FFA941112EC4AA85373501006B
:1007A000B286130505F836C6EFE0D02E2246B246D3
:1007B00037350100130545F8EFE0D02D410159BC54
:1007C000EFF21FA72E84AA8537350100130505F81F
:1007D000EFE0502C37350100A285130545F8EFE016
:1007E000702B8DBCEFF23FA39384418A98408D47D4
:1007F00063C5E7061384018B1C4013090006B30789
:10080000F902938901A0AA853385F900EFE0D0456C
:1008100037350100130545B5EFE0D0273735010026
:10082000130545D4EFE010270C40373501001305C0
:1008300005F8B305B902CE95EFE0D02537350100B4
:10084000130505D5EFE010251C4011478507B3E7D8
:10085000E7021CC09C4085079CC0C5BAEFF25F9DB3
:100860005137CDBAEFF2DF9C373501001305450E45
:10087000EFE05022996773900780B707EFBE37E724
:1008800000E0938707083CC76FF0DF9CEFF25F9AA8
:1008900037140140130504808565EF90F005054687
:1008A000130504808565EF90F001F16593850520BF
:1008B0001385819EEF90902A3725014085451305C9
:1008C0000580EF907003EF90C013373501001305DA
:1008D000C501EFE0301C3735010013054503EFE09B
:1008E000701BB7340100138544B5EFE0B01A3735FB
:1008F000010013058504EFE0F019373501001305F9
:100900008505EFE030193735010013050507EFE0E5
:100910007018373501001305C507EFE0B0173735FC
:1009200001001305C509EFE0F01637350100130586
:10093000850AEFE03016138544B5EFE0B015373582
:1009400001001305450BEFE0F01437350100814538
:100950001305450CEFE01014373501001305850C25
:10096000EFE0501337350100930500541305050ED1
:10097000EFE0501223A4018A7D34EF60002BEF409A
:10098000B027EF50F053EF90C07F01468565130507
:100990000480EF9020736FF0FF8B014793060006F1
:1009A0003306E5000306060093178701E187631409
:1009B000B6069305F005254613978701618763CF37
:1009C000E504B306F50094228507938606FD93F6A9
:1009D000F60FE363D6FE8147A54829489305F00545
:1009E000B306E50003860600930606FD93F6F60FB0
:1009F00063E1D802B387070305079376F70F1397D0
:100A000086016187938707FDB297C207C183E3F927
:100A1000D5FC3E8582800507E314D7F88147D5BF12
:100A2000EFF21F81830715001307C004AA846388AF
:100A3000E700130700056380E7046FF0BF81B73557
:100A40000100938505D6EFE0502419C59305A00356
:100A50002685A1372395A18CB7350100938505D74D
:100A60002685EFE0902271D99305A00326853537BE
:100A70002394A18CD9B7B7350100938585D7EFE0D2
:100A8000D02045DD930530072685013F1384C18CB6
:100A90000AA01E209305A0032685C207C18381CF2B
:100AA000ED3D9307C0033305F5021A203A95420540
:100AB00041810AA059B7D535EDBFEFF26FF703A713
:100AC000C18A930700063387E70283A781891385CC
:100AD00001A08145B306E500958F8507BA973E953D
:100AE000EFF08069EFE0E0516FF0CFF6EFF24FF4F6
:100AF00003A7C18A930700063387E70283A781898A
:100B0000138501A029468145B306E500958F850729
:100B1000BA973E95EFF0A07B6FF0CFF3EFF24FF175
:100B200003A7C18A93070006AA85B387E702138546
:100B300001A03E95EFE0D01123ACA1883335A00091
:100B40006FF04FF1EFF2CFEED13F6FF0AFF0EFF279
:100B5000AFEB37350100130585D5EFE070089389B9
:100B6000818083A7090023AAF18893870181984394
:100B700023A8E18C1307400698C303A7419E9387DF
:100B8000418C98C3EF50904C0545EF508056138729
:100B9000412514439387412694C35443130580058C
:100BA000B7040020D4C314475847938B418994C796
:100BB000D8C79307000023A0F9008D379389418C93
:100BC000138B8180938A018D138A018113844125BF
:100BD000938404226311050C130590058137631C6F
:100BE000050A1305A0051D3F6317050A85479CA04C
:100BF0000145EFF09F969C206386070A0545EFF0BC
:100C0000DF959C2089E71305A005093F01C509452B
:100C1000EFF0BF9413058005113711C9C13D01C91B
:100C2000693DAA8503A501B8EFD0003008C01305BF
:100C30009005ED3511C95D3D01C94135AA8503A572
:100C400041B8EFD0602E48C01305A005C13D11C9C1
:100C5000713D01C99D35AA8503A581B8EFD0C02C8F
:100C600008C49306C400130684009305440013854A
:100C70004125EF50C01E83A70B002320FB0083A754
:100C80000A002320FA0083A7419E23A0F900EF5019
:100C900060456FF0EFDA1305800523800400BD3D49
:100CA000E31805F413059005953DE31905F4A1BF7C
:100CB000EFF20FD81385819EEF90607A37350100EF
:100CC000130585FEEFE0005D83A5418837350100FF
:100CD000130545FF8505EFE0E05B6FF0AFD7EFF25E
:100CE0002FD27571371A00209387818A130A4A4ED2
:100CF000138401A03EC683270A0803274A08998F58
:100D000093F7F707B1C703A7418A8D47938C418AB0
:100D100063C0E7041385819EEF90E0719315850110
:100D20003735010093848188E1851305C5BB8CA00C
:100D3000EFE0405683860400A94713879188938487
:100D4000C1886397F6029440A9EAA384018831A878
:100D50001306000681450818EFF08FD0938741BA3B
:100D60009C33138D41BA639F072649616FF00FCD05
:100D7000B547E38AF6FC9307A0036394F6001C23AF
:100D8000F9D390409307E005E3CFC7FA9307B00388
:100D9000639AF62285471CA3B9BF938D018B83A765
:100DA0000D00130600061823B38AC7021389018BAE
:100DB000B3095401CE96238006006312071C324704
:100DC0009305E0044E85BA9723800700EFE0406862
:100DD000630A051A23ACA1883305354105055695EC
:100DE000294681452295EFF0804E938B418883A759
:100DF0000B00138D418B2320AD008507138B818958
:100E0000938A418B93894188630EF50403A50D00F5
:100E100013060006B73501003305A6029385C5BC4D
:100E20002295EFE080661DED37350100130545BDC5
:100E3000EFE04046373501001305C5BDEFE08045C2
:100E400083A50B0037340100130504C1EFE0804493
:100E500083250D00130504C1EFE0C043913D23A09D
:100E6000040021B703250900930B00069305A00297
:100E7000B30B7503B30D74016E85EFE0605D3DC18A
:100E80008147014DEE861306A0023387F600030763
:100E900007006308C7008507E207E187334DA70114
:100EA000EDB72320AB003305B54105055E958145BF
:100EB0002295EFF0602CEFC0D0736308A50537359D
:100EC0000100130545BDEFE0E03C37350100130597
:100ED00045C1EFE0203C3735010083A5090013052B
:100EE00045FF9DBF37350100130545BDEFE0803A52
:100EF00037350100130545C3EFE0C0393735010030
:100F000083A50900130505C181BF83A70A0023A09B
:100F1000F900832909001305000693057004B3093D
:100F20003503B30A34015685EFE0805205CD23AC7A
:100F3000A1883305554105054E9581452295EFF071
:100F4000A023EFC0106B8D4763EEA70083C7018815
:100F5000ADE783C741BA99E7373501001305C5C826
:100F6000EFE040338327090011478507B3E7E70225
:100F70002320F90083A70C00850723A0FC0023A0F1
:100F8000040095BB9305A0024E85EFE0604C51D163
:100F900037350100130545BDEFE0C02F373501009F
:100FA000130505C6EFE0002F83A541883735010002
:100FB000130505C1EFE0002E5DB5373501001305BF
:100FC00005C979BF1C23E39807D283A7018B1307B8
:100FD000160098C013070006B387E702A297B297DE
:100FE00094A311BB83A7C1881384C188E39F07D64C
:100FF000814C138901A09389818A03274D26832779
:101000000D26E304F7D603A7418A8D47138C418A46
:10101000E3CDE7D413058D25EF80900E2384A188BE
:10102000A947938D91886304F502B5476301F502E2
:101030009307A0036315F50083C70D0089CB184003
:101040009307E00563C5E700FD576319F50E032715
:101050000D2683274D266311F70837350100130548
:1010600085D0EFE02023373501001305C5D1EFE02F
:10107000602283A7419E9306C00323ACF18C03A694
:10108000418D3D67130707A6918F33D7E70237F6E7
:101090003600130606E8B7350100938505D3080826
:1010A000B376D70233D6C702EFE0403437350100BC
:1010B000130545B5EFE0001E373501000C08130598
:1010C000450CEFE0201D138541BAEF30B031854566
:1010D000138541BAEF30F01983C70D0099CF081876
:1010E000EFF01F948147130700061418BE96238063
:1010F00006008507E39BE7FE814C1040E30706C42A
:101100009386018B9C421307000623800D003387D2
:10111000E702232004004A97329723000700054680
:101120003387F90010A303270C0085070507232048
:10113000EC001147B3E7E7029CC2C1B59307B003C7
:101140006310F50285472380FD00180993871C0072
:10115000BA9C2380ACFA939C870193DC8C4171BDCF
:1011600083C70D00FDF383A7018B9306170014C0FE
:1011700093060006B387D702CA97BA9788A3374762
:1011800000401375F50F8357074093F70708E5DF15
:10119000420541812312A7408DB503A7419E23A29A
:1011A000E18C03A7C18A9387818ABA979C2399EB24
:1011B000EFF20F88373501001305C5C8EFE0800D49
:1011C0006FF04F898280EFF22F849384412513843E
:1011D0004126014993890187138AC18B914AB387BC
:1011E000290103850700EFF07F9329CDEFF0FF8CF5
:1011F000B3072A01AA8B882311E59387E18C882302
:101200001375F50FEFD0F03B8C40EFD0804ADE85B0
:10121000EFC0905108C0050991041104E31159FD74
:1012200013056004EFF09F8F01CDEFF01F89930548
:1012300000002A84EFD0C0366354A00023A481802C
:101240006FF00F809C401CC0F9B7EFE27FFEA53F16
:1012500013059004EFF09F8C1384419F11CDEFF0A4
:10126000DF8508C01305A004EFF05F8B11C9EFF014
:10127000DF8448C06FE01FFE930700001CC0DDB78D
:10128000930700005CC0FDB7EFE29FFA03A9412776
:101290002A840841CA8593844127EFD0C03863541B
:1012A00005002320240103A944004840CA85EFD04B
:1012B0008037635405002322240184440844A68512
:1012C000EFD060366353050004C4B704002003A9BF
:1012D0004403084093844403CA85EFD0602C6354D0
:1012E000A0002320240103A944004840CA85EFD070
:1012F000202B6354A0002322240184440844A685A3
:10130000EFD0002A6353A00004C46FE0BFF4EFE203
:101310003FEF138541268D3F03A7419E93844126CD
:1013200003A541258C4023A2E18C83AA8180EFD0C4
:101330006021CA8C13844125373A0100938DC12660
:10134000138D812631E1CC404840EFD0A01F0DED38
:1013500083250A105685EFC0D0732A879387818B27
:10136000938601271386C1269385812613854126FE
:10137000EF40600E9C401CC0DC405CC09C441CC420
:10138000DC445CC46FE09FEB03A50181EFD07023C8
:10139000D685EFD0003283250A10EFC0906FB737A3
:1013A000010083A547D5EFC0D06E2A879387818B34
:1013B000938601276E86EA851385412655BFEFE2A5
:1013C0009FE51384419F2A89484001111379F90F41
:1013D000EFD070382ACC08402ECEEFD0D0376246FE
:1013E000F246EF90A04CEFD0D0412ACC03A501816A
:1013F000EFD0301D83A58180EFD0A02BB73701003F
:1014000083A50710EFC0F068B737010083A547D563
:10141000EFC0306883C7818BE248938441263EC287
:101420004AC02A888947054781461386419F93858C
:1014300041261385412513844125EF30807D9C4052
:101440001CC0DC405CC09C441CC4DC445CC403A7DE
:10145000419E23A2E18C05616FE03FDFEFE25FDD9B
:10146000996773900780EF50F0070546C14537151F
:101470000140EF8030450546C14537150140EF80FA
:1014800070440546C14537150140EF80B04305461D
:10149000C14537150140EF80F04237350100130593
:1014A00045B5EFD0305F373501001305C5FFEFD0EC
:1014B000705E3735010013050563EFD0B05DEFF0C6
:1014C0006FBA01A0EFE2DFD61386418C83A6419E5E
:1014D0000C4203A6C1898D8E9387418C6374D6001C
:1014E00011C2AD3F83A64180A1CA03A7419E9C4380
:1014F000B307F74063F2F60403C7819283C7919262
:1015000093F7F70F639AE7020546C1453715014087
:10151000EF80503B0546C14537150140EF80903ABA
:101520000546C14537150140EF80D0390546C14514
:1015300037150140EF801039EF30706F6FE09FD1A9
:10154000EFE21FCFEF50007A9387018898231DE3C5
:10155000054798A303A7418837350100130545B512
:1015600023A0E18AEFD0105337350100130505C9D8
:10157000EFD050526FE01FCE03C501888280EFE2AA
:101580003FCB83C7818BAA84130540052388F1884C
:10159000EFF0CFD809E501494A856FE0BFCB2A8932
:1015A000EFF0AFD1EFD0807C138401891375F50F74
:1015B00008A075D137350100130545B5EFD0904D22
:1015C000930790066384F40463CE97009307800624
:1015D0006387F4020C20373501001305450CEFD06A
:1015E000704B5DBF9307D0066387F4029307A00D8D
:1015F000E392F4FE37350100130505FD29A03735C8
:101600000100130585F8EFD0F048E9B73735010040
:10161000130505FACDBF37350100130585FBE5B786
:10162000EFE21FBE5D7113057004EFF02FCF630C66
:101630000516373501001305C5DAEFD0705AEFF003
:10164000CFC7EFD0806C91476303F50C63CCA70044
:101650008947630EF50863C5A70A63500508EFF0D4
:10166000DFB359A09307A0056303F51063C8A70073
:10167000F147E316F5FEEFF08FCDD5B79307B00530
:10168000630AF50E9307C005E31BF5FC1305500430
:10169000EFF0CFC819E1EF50601B1384412581445E
:1016A0009389018713890126138A01B8930A84005C
:1016B000B387990003850700EFF04FC611C98D4726
:1016C000639EF40AEFF06FBF48C44A85EF403008CC
:1016D00085049147E39EF4FC59B783C7018881EBE9
:1016E000EFF07FAEEFF0BFC261616FE03FB583C73F
:1016F000018899E7EFF07FB50545EFF05FCCEDB7D6
:1017000083C7018889E7EFF05FB40145FDB7130592
:101710000005EFF0AFC0014411C5EFF00FBAEFD0F4
:10172000E0642A8413053005EFF04FBF01CDEFF0E0
:10173000CFB8B737010083A587B7EFC09077EFD058
:10174000E0622A84EF50801003A7419E83A6419E49
:10175000BE843A9423A2D18C83A7419EE3F187F003
:10176000EF80F053EF500032EFF0DFD5F5B723876D
:10177000018CF5B505472387E18CD5B5EFF0EFB3C4
:1017800093972400330BF400D297AA858843EFC0C7
:10179000A0792320AB00CA86568693054400228593
:1017A000EF40E06B35B71305D004EFF02FB719E128
:1017B0006F00F066EFF06FB0EFD020559307A006F2
:1017C000E30FF51063C5A724F1476303F57A63C2FD
:1017D000A70AD9476304F57063CEA704C947E3039A
:1017E000F51663CEA702C547E31BF5E60146C145E2
:1017F00037150140EF80100D0146C14537150140F6
:10180000EF80500C0146C14537150140EF80900B29
:101810000146C14537150140EF80D00A89B5D1474F
:10182000630CF568D547E31CF5E2138541BAEF3048
:10183000400635B5E5476306F57063C1A702DD478D
:101840006304F56AE147E31CF5E0138541BAEF3024
:10185000C00803A7419E23AAE18C11B5E94763089C
:10186000F56EED47E31DF5DE138541BAEF306015E7
:10187000FDB393073005E302F50C63C8A708FD47E5
:10188000630DF57863C8A706F547630CF572F94751
:10189000E317F5DC938741BABC23E38207DC1385A9
:1018A00041BAEF30A01F03A581899305A00293845C
:1018B00081891105EFD0D0392A8915C503A5C18AC0
:1018C000930700069305E004B387A702138501A0E0
:1018D0003E95EFD0F03793050002EFD07037050545
:1018E00088C0A30F09FE8C40138541BA9105EF30E3
:1018F000600BB5B393071005E30DF50293072005C0
:10190000E31FF5D4A38F018A99BB9307C005E30AAF
:10191000F50E63CBA70293074005E305F502930795
:101920005005E31EF5D213053005EFF02F9FEFF0C1
:10193000CF98B737010083A587B7EFC09057EFD096
:10194000E04223AEA18821BB930780066303F56EB6
:1019500093079006E315F5D013059006EFF03FC20C
:10196000E31F05CE37350100130505DEEFD09012D9
:10197000138401891C201387819B8A07BA978843A7
:10198000B7340100EFD0205D2A86AE86138584DE51
:10199000EFD0501037350100130505DFEFD0900F61
:1019A0001C201387819C8A07BA978843EFD0604137
:1019B000EFD0605A2A86AE86138584DEEFD0900D74
:1019C00037350100130545DFEFD0D00C0820EF407C
:1019D000F07BAA8537350100130585DFEFD0900B2A
:1019E000373501001305C5DFEFD0D00A7D55EF4034
:1019F000F079AA85373501001305450CEFD0900921
:101A00003735010013050563EFD0D008F1B993070E
:101A1000C00CE304F52A63C2A72493077007E30E02
:101A2000F51863CAA71C93072007E302F50863C0F3
:101A3000A71A9307B006630AF56E9307D006E31062
:101A4000F5C21305D006EFF09FB3E31A05C01305E6
:101A50003005EFF0AF8C93840189138A819C09C90A
:101A6000EFF0AF858020EFD0402A0A04529408C0DE
:101A7000EF50202703C904000A09B3072A0188434D
:101A800083AA419EB73B0100EFD0A0339387819B8F
:101A90003E9983270900AA8C7D593EC4B7370100BF
:101AA00003ACC7D89389819B373D0100E28D83A7A2
:101AB000419E1307803EB3875741637CF708B737D1
:101AC0000100138547E0EFD0E07C9C208A07CE9789
:101AD0008843EFD04048B73701002A86AE86138589
:101AE00087E0EFD0207BB7370100138507E1EFD007
:101AF000607A8C2013858BDFEFD0C07913054DE120
:101B0000EFD0407903A5819CEFD0A02BEFD0E01F50
:101B1000AA8513858BDFEFD0E077373501001305F9
:101B200085E1EFD02077FD57630DF95483A7419EDF
:101B30008965938505719D8DCA951307803EB3D540
:101B4000E50237350100130545FFEFD0A07483AAE5
:101B5000419EEF80D014EF40F072EFF0BF961385F6
:101B6000C18DEF207031FD576313F954A24566858E
:101B7000EFC010239C208A073EC63307FA00635942
:101B8000A0500843EFD0E023EE85EFC0D05BB24712
:101B9000CE978C43EFC03029E34BA0F003A9419EC0
:101BA000FD57E306F9F0634B090003A7419E8967DF
:101BB0009387F77033072741E3FBE7EE03A7419EC6
:101BC00023AAE18C03A7419E23A2E18C49BC930781
:101BD00030076306F56C93075007E312F5A803A5D9
:101BE00081899305A0021505EFD09006E30905A6AB
:101BF000A30F05FEADB49307C0086306F54663CD99
:101C0000A700930780076305F57A93079007E31809
:101C1000F5A405456F00E0799307900CE300F50605
:101C20009307B00C0144E31CF5A2371900209384FC
:101C300001871309892A9149B38784000385070026
:101C4000EFE0DFED19C5EFE05FE793172400CA97D7
:101C500088C30504E31234FF19B49307E012E30EBE
:101C6000F51263CBA7149307C00DE30AF50E63C208
:101C7000A7049307D00CE308F5069307E00C014492
:101C8000E31FF59C93840187138901B88D49B387BD
:101C9000840003850700EFE07FE819C5EFE0FFE16E
:101CA00093172400CA9788C30504E31234FF6FF02A
:101CB0001F9B9307D00DE303F50C9307D012E3109D
:101CC000F59A13050005EFE07FE509C5EFE0FFDEBB
:101CD00023AAA18213059004EFE05FE419C5EFE0A9
:101CE000DFDDEF50006C23A8A18213054004EFE074
:101CF000FFE219C5EFE07FDCEF50A06E23A6A182C2
:101D000013053004EFE09FE109C5EFE01FDB23A4DA
:101D1000A182EF40F045373501001305C5C8EFD06B
:101D20006057373501001305C5F2EFD0A05603A563
:101D3000418337340100EFD000222A86AE86130596
:101D400044F8EFD0205537350100130505F3EFD0E7
:101D5000605403A50183EF50C066EFD0C01F2A86F0
:101D6000AE86130544F8EFD0E05237350100130575
:101D700045F3EFD0205203A5C182EF508068EFD029
:101D8000801D2A86AE86130544F8EFD0A050373563
:101D90000100130585F3EFD0E04F03A58182EFD05A
:101DA000801B2A86AE86130544F8EFD0A04E373547
:101DB00001001305056339AA93070019E30DF50423
:101DC00063CCA70C9307F0126308F57E930700130A
:101DD000E317F58813050005EFE05FD409C5EFE0D0
:101DE000DFCD23A6A18413059004EFE03FD319C5EE
:101DF000EFE0BFCCEF50E05A23A4A18413054004C8
:101E0000EFE0DFD119C5EFE05FCBEF50805D23A29B
:101E1000A184EF40F035373501001305C5C8EFD078
:101E20006047373501001305C5F2EFD0A04603A582
:101E3000C18437340100EFD000122A86AE86130524
:101E4000C4F3EFD0204537350100130505F3EFD07B
:101E5000604403A58184EF50C056EFD0C00F2A869E
:101E6000AE861305C4F3EFD0E04237350100130509
:101E700045F3EFD0204203A54184EF508058EFD0C6
:101E8000800D2A86AE861305C4F3EFD0A040294505
:101E9000EFD060446FF0AFFC9307003A6307F51290
:101EA0009307703E631DF5FA2380018803A7018A1A
:101EB00023A2E188EFF08FDA37350100130585DBC7
:101EC000EFD0403D138541BAEF20D01937350100DE
:101ED000130585DCEFD0003C6FF06FF8138541BA35
:101EE000EF20101F6FF0AFF79389C18A03A4090098
:101EF0001309000633048902938401A0B735010059
:101F0000938585DD33858400EFD02058630905F47F
:101F100093054400A6950808EFD000550C08054627
:101F2000138541BAEF20301F83A50900B305B9021C
:101F3000A69537350100130505F8EFD0A0356FF0F1
:101F40000FF2138541BAEF20F0196FF04FF11384AF
:101F500041BA3C20638507F013053005EFE01FBC54
:101F6000630F05EEEFE09FB82322A4266FF02FEF5A
:101F700003A581899305A002138481891105EFD0FF
:101F8000204DAA8415C503A5C18A930700069305B1
:101F9000E004B387A702138501A03E95EFD0404B24
:101FA00093050002EFD0C04A050508C0A38F04FEC8
:101FB0000C4001469105138541BAEF20D0156FF012
:101FC0000FEA238201BA6FF08FE903A58189930597
:101FD000A002138481891505EFD08047AA8415C516
:101FE00003A5C18A930700069305E004B387A702FF
:101FF000138501A03E95EFD0A04593050002EFD0D8
:102000002045050508C0A38F04FE0C40138541BA86
:102010009505EF2010186FF08FE403A7419E373528
:102020000100130545B523ACE18CEFD0A0260C08C8
:1020300009B713058006EFF08FD4631205E213058C
:102040003005EFE0BFAD01CDEFE03FA703C401894C
:102050009387819C0A043E94EFC0304B08C0EF4048
:1020600050486FF0CFDF13053005EFE03FAB63085A
:1020700005DEEFE09FA4EFC0504923A6A19C6FF0BE
:102080000FDE373501001305C5E1EFD0A020C1B444
:102090000843EFC01053E285EFB01069B247CE9706
:1020A0008C43EFC0E04FE35B05AE6FF05FA09C2078
:1020B0008A073387F900D29788433AC6EFC0705039
:1020C0003247AA850843EFC01008EFC01044935769
:1020D000F5413D8D1D8DA947E3D9A7ACC1B41305CA
:1020E0003005EFE0BFA31384018C9307F00F1DC9E7
:1020F000EFE0BF9C93050000EFC0E05281476343CF
:102100000502EFE09F9BB737010083A507D9EFC019
:1021100020499307F00F6347A000EFE01F9AEFC03C
:10212000D03EAA871CC06FF08FD323A0018C6FF024
:102130000FD3EFE02FF36FF08FD20547A38FE18A23
:102140006FF0EFD113053005EFE05F9D19CDEFE0A3
:10215000DF96B737010083A587B7EFC08055EFC082
:10216000F04023A2A1806FF08FCF13058005EFE030
:10217000FF9A29CDEF40806D13058005EFE01F9A8F
:1021800019C50546C14537150140EF70B0731305F9
:102190009005EFE0BF9819C50546C14537150140C8
:1021A000EF7050721305A005EFE05F9719C5054663
:1021B000C14537150140EF70F07013055004EFE092
:1021C000FF95630E05C805466FF0AFE41305900553
:1021D000EFE0DF9445F11305A005EFE03F9459F9D6
:1021E00013055004EFE09F9351F5EF40206605463C
:1021F000C14537150140EF70F06CEF4040706FF053
:102200000FC6B737010003AC47D9B71A0020014405
:10221000138B018793848132938A8A2AB3078B00B8
:1022200003850700EFE09F8F31CD8D476312F406E1
:10223000EFE0BF88E2852A8AEFC0E03E63520504E2
:10224000C844D285EFC0E004AA89AA8503A5C1923B
:1022500013898131EFC0E04523A6A19203A5CA00EE
:10226000CE85EFC0004523A6AA000325C900EFC014
:10227000B041CE85EFC0E043EFC0502F2326A90028
:1022800023A6440105049147E31AF4F86FF02FBD2B
:10229000EFE0BF8293172400A69788C3E5B73735D0
:1022A0000100130545E2EFD0A0136FF04FBB3735A7
:1022B0000100130505ECEFC0F07D138441250840B3
:1022C000B7340100EFC030492A86AE86138544F842
:1022D000EFC0507C37350100130545ECEFC0907B13
:1022E0004840EFC050472A86AE86138544F8EFC0B9
:1022F000707A37350100130585ECEFC0B0790844DA
:10230000EFC070452A86AE86138544F8EFC09078FA
:10231000373501001305C5ECEFC0D0774844EFC056
:1023200090432A8637350100AE86130505EDEFC0D0
:10233000707637350100130585EDEFC0B0750145A6
:10234000EF40E059EFC0F02783A58132138481323A
:10235000EFB03074EFC030402A86AE86138544F863
:10236000EFC050730545EF408057EFC090254C40BB
:10237000EFB03072EFC0303E2A8637350100AE86AE
:10238000130545EEEFC010710945EF404055EFC011
:1023900050230C44EFB0F06FEFC0F03B2A86373586
:1023A0000100AE861305C5EEEFC0D06E6FF02FAB07
:1023B0000145EF3010546FF08FAA37350100130537
:1023C00085EFEFC0306D37350100130545F1EFC0E3
:1023D000706C3715014093050008130505C0EF50D8
:1023E000A0538547631DF506B7350100938545DA8F
:1023F000373401001305440CEFC0D06937350100B4
:102400001305C5F1EFC01069371501409305002091
:10241000130505C0EF50405085476317F504B735E5
:102420000100938545DA1305440CEFC0B0663735DB
:102430000100130545F2EFC0F06537150140930523
:102440000040130505C0EF50204D85476313F5028A
:10245000B7350100938545DA1305440CF9BCB7354F
:102460000100938585D969B7B7350100938585D972
:102470005DBFB7350100938585D9F9BF37190020B5
:1024800001449384018713098929114AB387840081
:1024900003850700EFE08FE811C9EFE00FE2931921
:1024A0002400CA99EFC0900C23A0A9000504E31FE3
:1024B00044FDEF30B02D6FF08F9A13053005EFE03B
:1024C000EFE509C5EFE06FDF23A2A19213054005F8
:1024D000EFE0CFE419E16FF08F98EFE00FDE23A279
:1024E000A1946FF0CF9713053005EFE02FE309C5F6
:1024F000EFE0AFDC23ACA19213054005EFE00FE263
:1025000009C5EFE08FDB23A0A19413052004EFE0C1
:10251000EFE019C5EFE06FDAEFC0500523AEA192EE
:1025200013058005EFE08FDF09C5EFE00FD923A881
:10253000A1921305A005EFE06FDE09C5EFE0EFD72C
:1025400023AAA19213055004EFE04FDD19E16FF0CB
:102550000F91EFE08FD623A6A1926FF04F90130555
:102560003005EFE0AFDB19E16FF06F8FEFE0EFD4F4
:10257000EFC0A07923A8A1806FF06F8E13053005FE
:10258000EFE0CFD919E16FF08F8DEFE00FD3EFC0FF
:10259000C07723A6A1806FF08F8C13053005EFE084
:1025A000EFD79307000001C5EFE02FD1AA873E8542
:1025B000EF30701D6FF0AF8A13055004EFE00FD6B7
:1025C000814429C5EFE06FCFEFC02074AA84635F18
:1025D0000502B737010003A487D813053005EFE0E3
:1025E000EFD301C5EFE06FCD2A8413053004EFE08F
:1025F000EFD2154611C5EFE04FCCEFC000712A862F
:10260000A6852285EF4000706FF06F85B737010017
:1026100003A447D8D9B7EF4060236FF04F84130568
:102620004005EFE0AFCFB734010051C1EFE0EFC894
:10263000EFC0C0731375F50F1384018908A015C589
:10264000138544B5EFC0104513054005EFC0B048F1
:102650000C2037350100130585DEEFC0B043373558
:102660000100130545F46FF0FF8613056004EFE0E9
:10267000EFCA01CDEFE06FC4930500002A84EFB0EC
:1026800030726354A00023A48180138544B5EFC049
:10269000704037350100130585F5EFC0B03F373581
:1026A000010083C5818B1305C52A6FF01F8913852F
:1026B00044B5EFC0303E373501001305C5F6EFC015
:1026C000703D83A5C18A9307000637350100B387A3
:1026D000B702938501A0130505F8BE95EFC0903BA6
:1026E00037350100130505D56FF0CFFEEFD2DFB10E
:1026F000EFE0CF99094B138401A0130C000683A7C8
:10270000418A1389418A6344FB00EFE04FDD814534
:10271000138541BAEF20E0358327090085CB9384E8
:10272000C18A8C40138541BAB305BC02A295EF2043
:102730000039EFE0FFEE832709001147FD17232042
:10274000F9009C408507B3E7E7029CC0EF40803367
:10275000EFE05FD7EF3090091385C18DEF10D07196
:1027600079BFEFD2FFAC138541BAEF1050776FD02D
:102770007FAE9387012803A5070883A747081D8D0F
:102780001375F507828037570040835707C093F7CA
:102790000708E5DF420541812312A7C08280EFD2FE
:1027A0003FA9AA840144B38784000385070009C9AF
:1027B00005041375F50F6204EFF0FFFC6184E5B7C3
:1027C0006FD05FA9EFD2DFA62A84130540072E89B8
:1027D000EFF07FFBA5471305040363DF8700A944DF
:1027E00033459402130505031375F50FEFF0BFF998
:1027F00033659402130505031375F50FEFF0BFF869
:102800003735010013054522EFF07FF9130520024B
:10281000EFF07FF74A85EFF09FF813052002EFF005
:102820009FF61305F00FEFF01FF61305F00FEFF012
:102830009FF51305F00FEFF01FF56FD0BFA169C52D
:10284000896793870771B347F50229474111954678
:10285000B3E7E702938707035C849307803EB3479F
:10286000F502B3E7E70293870703DC84930740068A
:10287000B347F502B3E7E702938707035C85B347E5
:10288000E5023365E502B3E7E70213050503488671
:1028900001471305000393870703DC8513088100B4
:1028A0003A98030808009377F70F6316A800050706
:1028B000E316D7FE954795460147B388F640014594
:1028C000635A1701080813881700AA97038587FF22
:1028D0009377F80F130881003A982300A8000507A2
:1028E000E31FD7FC814715453400BE96838606005A
:1028F00013F7F70F91C694A18507E397A7FE154735
:1029000018A201454101828001458280EFD25F9289
:10291000AA842E84EFB0D0486358A000A2852685F3
:10292000EFC060026FD01F93A6852285D5BFEFD27E
:102930003F9079712E8441458545EF5000228545B1
:1029400037050800EF50402393070040FC82E14721
:102950003ECE4C088D47371501403ECCEF40D06F3E
:10296000856793870780FC824C08914737150140A3
:102970003ECEEF40706E22D037540040B7070C00B7
:102980000C10130504C03ED402D223160102EF50EE
:10299000604B130504C093055052EF50806013053F
:1029A00004C093056062EF50C05F05469305505226
:1029B000130504C0EF5020560145EF40F077930710
:1029C00040045C8685475C87680085473EC8EF40C9
:1029D00010778545130504C0EF50805245616FD0D4
:1029E0007F87EFD2FF843754004093055052130580
:1029F00004C0EF50405739C19387012883A60708C8
:102A0000035644C083A54708138716004206137770
:102A1000F70341826306B700BE9690A223A0E708A1
:102A200083A7419E37550040938747069305505230
:102A3000130505C023ACF190EF50A0563754004069
:102A400093056062130504C0EF50E05119C593056A
:102A50006062130504C0EF50C0546FD0AFFF1387FE
:102A6000012883274708832607087D55638AF600D7
:102A7000B306F7008822850793F7F7032322F708A8
:102A800082809386012883A7060883A646081387B9
:102A9000012893870708958F93060008B3E7D702AC
:102AA0000145B387F6406359F602814763D5C702F3
:102AB000832607083385F50003480500850733059D
:102AC000D700850693F6F603E207230005012320CD
:102AD000D708E187E1BF05458280EFD26FF52A84F0
:102AE0003735010041111305852432C42EC6EFF09D
:102AF0001FCB374501001305857FEFF05FCAB24554
:102B00002E85EFF0DFC91305F00FEFF0DFC71305D7
:102B1000F00FEFF05FC71305F00FEFF0DFC62246AE
:102B200012A041016FD00FF3EFD28FF037350100C3
:102B300013050524EFF0BFC61305F00FEFF0BFC477
:102B40001305F00FEFF03FC41305F00FEFF0BFC314
:102B50006FD04FF0EFD2CFED373501001305851F51
:102B60002E84EFF0DFC31305E006EFF0DFC1A547C9
:102B70001305040363DF8700A9443345940213055A
:102B800005031375F50FEFF01FC0336594021305AD
:102B900005031375F50FEFF01FBF3735010013055F
:102BA0000520EFF0DFBF1305F00FEFF0DFBD1305D9
:102BB000F00FEFF05FBD1305F00FEFF0DFBC6FD04B
:102BC0006FE9EFD2EFE63735010041111305052516
:102BD00032C42EC6EFF0BFBC374501001305857F18
:102BE000EFF0FFBBB2452E85EFF07FBB1305F00F72
:102BF000EFF07FB91305F00FEFF0FFB81305F00FFA
:102C0000EFF07FB8224642064182239EC1904101E7
:102C10006FD04FE4EFD2CFE13735010041111305FA
:102C2000051132C42EC6EFF09FB7374501001305DA
:102C3000857FEFF0DFB6B2452E85EFF05FB6373512
:102C4000010013054511EFF09FB5224615C6373533
:102C500001001305C5EBEFF09FB41305F00FEFF083
:102C60009FB21305F00FEFF01FB21305F00FEFF056
:102C70009FB141016FD00FDE3735010013054504C8
:102C8000D9BFEFD2EFDA3735010013058521AE84C5
:102C90003284EFF0DFB0A5471385040363DF9700AC
:102CA000294933C52403130505031375F50FEFF008
:102CB0009FAD33E52403130505031375F50FEFF0FE
:102CC0009FAC373501001305C521EFF05FADA54777
:102CD0001305040363DF8700A944334594021305F9
:102CE00005031375F50FEFF01FAA33659402130562
:102CF00005031375F50FEFF01FA91305F00FEFF0A3
:102D00009FA81305F00FEFF01FA81305F00FEFF0C9
:102D10009FA76FD02FD4EFD2AFD1A947130740069A
:102D2000B346F6024111130500033347E602B3E64A
:102D3000F6023367F7029386060393F6F60FD486FE
:102D40003366F602130707031377F70F5886814798
:102D5000130606031376F60F50876319A7008547FD
:102D60006396E60089476313D6008D478D46014779
:102D70003388F6400146635B07011008138517008E
:102D8000B2970386C7FF93178501E18768003A95DC
:102D900010A10507E310D7FE9307400663C2B706EC
:102DA0001305E0062E84EFF01F9EA54713050403CC
:102DB00063DF8700A94433459402130505031375A7
:102DC000F50FEFF05F9C336594021305050313754F
:102DD000F50FEFF05F9B3735010013050521EFF08C
:102DE0001F9C6800EFF0BF9B1305F00FEFF0BF9939
:102DF0001305F00FEFF03F991305F00FEFF0BF98B8
:102E000041016FD02FC5EFD2AFC24111930700032C
:102E10003EC4230601002E843DE213058006EFF038
:102E20009F96A5471305040363DF8700A944334534
:102E30009402130505031375F50FEFF0DF94336566
:102E40009402130505031375F50FEFF0DF93373583
:102E5000010013050521EFF09F942800EFF03F9447
:102E60001305F00FEFF03F921305F00FEFF0BF9155
:102E70001305F00FEFF03F9141016FD0AFBD8967AF
:102E800093870771B347F60229479546B3E7E702F0
:102E9000938707035C849307803EB347F602B3E74A
:102EA000E70293870703DC8493074006B347F602E3
:102EB000B3E7E702938707035C85B347E60233660F
:102EC000E602B3E7E702130606035086014713063E
:102ED000000393870703DC852C00BA9583850500E2
:102EE0009377F70F6396C5000507E317D7FE95475D
:102EF000954601473385F6400146635AA7001008FE
:102F000093851700B297038687FF93F7F50F2C0080
:102F1000BA9590A10507E311D7FE01B7EFD24FB1E3
:102F2000130540072E843289EFF0FF85A54713056E
:102F3000040363DF8700A9443345940213050503A6
:102F40001375F50FEFF03F84336594021305050305
:102F50001375F50FEFF03F83373501001305452258
:102F6000EFF0FF8313052002EFF0FF814A85EFF0B9
:102F70001F8313052002EFF01F811305F00FEFF000
:102F80009F801305F00FEFF01F801305F00FEFF097
:102F90008FFF6FD02FACEFD2AFA92E85B285EFF0A7
:102FA0007F826FD02FABEFD2AFA8A9473355F6027F
:102FB000130740064111130800033357E602337527
:102FC000F502130707031377F70F5886B377F60256
:102FD00013050503C8869386070354878147631941
:102FE000070185476316E50089476393A6008D476F
:102FF0008D460147B388F6400145635B1701080819
:1030000013881700AA970385C7FF93178801E187E4
:1030100060003308E4002300A8000507E31ED7FC86
:103020009307400663E5C7041305A0062E84EFF05E
:103030008FF5A54763E08704130504031375F50FA7
:10304000EFF06FF43735010013050521EFF02FF590
:103050006800EFF0CFF41305F00FEFF0CFF2130597
:10306000F00FEFF04FF21305F00FEFF0CFF1410149
:103070006FD04F9EA9443355940213050503137571
:10308000F50FEFF04FF033759402130505034DBFB4
:10309000EFD20F9A4111930700033EC423060100AB
:1030A0002E843DEA13054007EFF0EFEDA547130529
:1030B000040363DF8700A944334594021305050325
:1030C0001375F50FEFF02FEC33659402130505032C
:1030D0001375F50FEFF02FEB37350100130545227F
:1030E000EFF0EFEB13052002EFF0EFE92800EFF02F
:1030F0000FEB13052002EFF00FE91305F00FEFF0CF
:103100008FE81305F00FEFF00FE81305F00FEFF065
:103110008FE741016FD00F94896793870771B35789
:10312000F60229479546938707035C849307803E00
:10313000B357F602B3F7E70293870703DC849307DC
:103140004006B357F602B3F7E702938707035C859F
:10315000B357E6023376E602B3F7E7021306060337
:10316000508601471306000393870703DC852C0074
:10317000BA95838505009377F70F6396C500050719
:10318000E317D7FE9547954601473385F64001463C
:10319000635AA700100893851700B297038687FF2C
:1031A00093F7F50F2C00BA9590A10507E311D7FE10
:1031B000D5BDEFD24F8641112E84CD6532899385DE
:1031C00085B425464800EFC0C0014A85EFB0B0582D
:1031D000B737010003A6072383A647232A8AAE8AAE
:1031E000EF90B072634B051EB737010003A687232B
:1031F00083A6C7235285D685EF905066634FA01CE7
:10320000930500004A85EFB00042814463570500F2
:10321000B707008033C927018544B737010083A56C
:1032200047D54A85EFB0E048EFB050346302051E41
:1032300037979800130707683357E502A947130625
:10324000000395463377F702130707035882374781
:103250000F00130707243357E5023377F7021307EC
:103260000703D88261671307076A3357E50233778C
:10327000F7021307070358830967130707713357CA
:10328000E5023377F70213070703D8831307803E5D
:103290003357E5023377F702130707035884130700
:1032A00040063357E5023377F70213070703D88444
:1032B0003357F5023375F5023377F702130505032B
:1032C000488613070703D88501474C00BA958385C4
:1032D00005009377F70F6396C5000507E317D7FE40
:1032E00095472546A9460147B305F6409D8E13052F
:1032F000D002638704106315070E48820507E31A9E
:10330000C7FE13054007EFF00FC8A54713050403D8
:1033100063DF8700A9443345940213050503137541
:10332000F50FEFF04FC633659402130505031375CF
:10333000F50FEFF04FC5B734010013854422EFF0CD
:103340000FC613052002EFF00FC44800EFF02FC5A1
:1033500013052002EFF02FC31305F00FEFF0AFC2FB
:103360001305F00FEFF02FC21305F00FEFF0AFC110
:1033700013054007EFF02FC1A5471305040363DFD2
:103380008700294933452403130505031375F50FF9
:10339000EFF06FBF33652403130505031375F50FB5
:1033A000EFF06FBE13854422EFF06FBF13052002CC
:1033B000EFF06FBD4800EFF08FBE13052002EFF075
:1033C0008FBC1305F00FEFF00FBC1305F00FEFF0FB
:1033D0008FBB1305F00FEFF00FBB41016FC0FFE68D
:1033E0006352D7029308010113881700C697838898
:1033F00047FF5C00BA97238017019377F80FFDBD54
:10340000E342B7FE130841003A9823000800FDB5D7
:103410009307E002DC82A3030100231401002305CB
:103420000100C5B5EFC2DFE041112E8532C6EFF0D5
:103430008FB53735010013058511EFF04FB63246D1
:103440003285EFF0CFB51305F00FEFF0CFB31305D2
:10345000F00FEFF04FB31305F00FEFF0CFB24101D3
:103460006FC05FDFEFC2DFDC3735010041111305AC
:1034700005252EC6EFF0AFB2374501001305857F55
:10348000EFF0EFB1B2452E85EFF06FB137350100A7
:1034900013058520EFF0AFB01305F00FEFF0AFAEDE
:1034A0001305F00FEFF02FAE1305F00FEFF0AFADF7
:1034B00041016FC03FDAEFC21FD62A8979449309D0
:1034C0005006130A600693041007854AEFF06FAAAE
:1034D00015CD4A85EFF0AFD893178501E187638C4E
:1034E0008700634EF40081CBE3C207FEF91793F720
:1034F000F70FE3EDFAFC1375F50F6FC01FD5E3C7A7
:1035000037FDE35AFAFEE39397FCF5B71305F00F86
:10351000EDB7EFC2FFD12A84EFF0AFA509C5228530
:10352000EFF0EFD3D5BF1305F00F6FC0BFD2EFC2DE
:103530003FD01385C18DEFF01FF893071007631379
:10354000F5021385C18DEFF08FD12A841385C18DCB
:10355000EFF0EFD01375F50F22051374F40F418DC2
:103560006FC05FCF41657D15E5BFEFC27FCC4111D4
:103570002E892A84B284938581871D462800EFB066
:1035800050462C001D462285A30421014485EFF0FE
:103590004FCF014541016FC0FFCBEFC2FFC62A8963
:1035A000EFF02F9D8D4763DBA7661385C18DEFF08C
:1035B0000FCBAA841385C18DEFF06FCAAA8913853A
:1035C000C18DEFF0CFC993978401E187370765007C
:1035D000A207D98F139789016187D98F6205A20746
:1035E00061855D8DB707056513871710A284630396
:1035F000E55C6348A710B7070465138717106301DC
:10360000E5326347A704B7070065138717306307E0
:10361000E52E634DA70013871710630FE51A9387F4
:1036200017206305F52C01456FC09FC11387175004
:10363000630CE52C13871760630EE52C9387174006
:10364000E313F5FEB7350100154693850514F9AA75
:10365000138717406307E536634FA70013871720CA
:103660006301E53093871730E31FF5FA83D5A18F07
:103670008A058D0555AC13871760630BE53C1387EE
:1036800017706300E51293871750E31EF5F8138750
:10369000A18F83170700635AF038FD17C207C18353
:1036A0001EA38A07239BF18E81441384618F914A64
:1036B000B70900201389910283D7818F63F3FA0041
:1036C0009147C207C183E3D0F4F60C2013860104AE
:1036D0001385495C850593F5F50FEF1080449387BA
:1036E000495C83A547498387050091E3CA85268500
:1036F000EFF04F8D1E208504E2048507E1841EA0B3
:1037000065BF3717056593061770630CD50863C24C
:10371000A60693861740630DD54C63C5A602138792
:103720001720630CE54A93871730E31EF5EE373513
:10373000010013058517EFD0EF8A37350100130517
:10374000051959A193861760630FD54A13071760AF
:103750006309E50493871750E317F5EC373501004B
:1037600013058517EFD00F88373501001305051AAB
:10377000A1A9B7071165138717106300E5386348DF
:10378000A702B7170765138717906307E53E93876E
:1037900017A0630EF53AB7270565938717E0E31482
:1037A000F5E8B735010001469385C51541A03707F7
:1037B0001265930617106307D53C1307172063059E
:1037C000E53E93871720E310F5E6B7350100114673
:1037D000938585124A85A9A89305000437150140F1
:1037E000EF4080131384C18F1C203335A0003709AC
:1037F00000206300F5029305000437150140EF40F7
:10380000A011B337A0001CA01DC51305495CEF1023
:1038100040089307495CBC23B70A0020938A4A5C9E
:10382000114699EFB7350100938505121385C18DB7
:10383000EFF0AFAACDBB1305495CEF106009D1BF13
:10384000B73501001385C18D93858512EFF0EFA880
:10385000374401009305847F0145EFE0BFF69305EF
:10386000847F0545EFE01FF69305847F0945EFE06F
:103870007FF59305847F0D45EFE0DFF49385010428
:103880001305495CEF10602B239CA18E239B018EB6
:103890008144138A818F1384618F914B138B910222
:1038A00083570A0063F3FB009147C207C18363DCBF
:1038B000F4020C20138601041305495C850593F579
:1038C000F50FEF10002683A54A498387050091E391
:1038D000DA852685EFE01FEF1E208504E2048507C8
:1038E000E1841EA075BF239D018E35BBB735010055
:1038F00031469385C5121385C18D1DBFB7350100B3
:10390000354693858513C5BFB735010019469385A4
:103910008514D5B7B7350100294693850515E1BF54
:1039200083D5A18F8A058505C205C181239BB18EF0
:1039300083D7818FE3E9B7CE1386010493F5F50FA2
:10394000370400201305445CEF10A01D1307445CEE
:10395000834747481309445CC18BC9C7832547493E
:1039600089A083D5A18F8A058905C205C181239BC2
:10397000B18E83D7818FE3E8B7CA3704002013865E
:10398000010493F5E50F1305445CEF1080199307CC
:10399000445C83C747481309445CC18BA1C7832596
:1039A00049498387050099E3938591021305445C97
:1039B000EF102021054685451385C18DEFF0FFBA34
:1039C0009DB18395A18F85058A05C205C181239B81
:1039D000B18E83D7818FE3E8B7C41386010493F5D2
:1039E000C50FB9BF032549498307050099E313852E
:1039F0009102B7350100938585DDEFB01029E3040E
:103A000005C2B73501009385451539461385C18D2B
:103A1000EFF0AF8C832549498387050099E39385AF
:103A200091020545EFE01FDAFDBE370400201305C3
:103A3000445CEF100013E31605D605468545138553
:103A4000C18DEFF09FB21305445CEF104016E1BE4C
:103A50009384A18F0394040083D7818F05041317E7
:103A600024001389818FE3C0E7BCB7490100938527
:103A7000897F0145EFE01FD59385897F0545EFE0FC
:103A80007FD49385897F0945EFE0DFD39385897FD4
:103A90000D454204EFE01FD3418082A00A04239B1E
:103AA000818E81441384618F914A370A0020938963
:103AB00091020E20835709008D8F63D3FA0091473E
:103AC000E3C397B6850593F5F50F13860104130537
:103AD0004A5CEF10000593074A5C83A5474983873A
:103AE000050091E3CE852685EFE0DFCD1E2085041D
:103AF000E2048507E1841EA06DBF2395018C239409
:103B0000018CB73501001D461385C18D2396018CAC
:103B1000370400209385451623AC018C9304445C44
:103B2000EFE0BFFB83A544491D45EFE0BFC983A576
:103B3000444905461305445CEF00F05D1305445C01
:103B4000EF00B05903A7419E23AAE18CE9BC03878B
:103B5000D18F370500209387D18F01EB05471305DF
:103B6000455C98A3EF0010587DBC1305455C23808D
:103B70000700EF00905645BCB735010049469385D4
:103B8000C51695BB370500209307455C1305455CBA
:103B9000A3800700EF009070EF20305AB735010086
:103BA00001469385C51581BBB73501001D46938538
:103BB000451691B33735010013058517EFC09FC235
:103BC000373501001305C517EFC0DFC137350100D8
:103BD00013054518EFC01FC1B9B4373501001305EF
:103BE0008517EFC03FC03735010013058518E9BFC1
:103BF0003735010013058517EFC0DFBE37350100EB
:103C000013058519D1B73735010013058517EFC0A6
:103C10007FBD373501001305851A7DB71305F00FF9
:103C200021B4EFC24FDF9387019003A7419E9443D5
:103C3000411163F5E61603A7419E4A841307873EA8
:103C400098C383D7C18D638B07141D47AA84639AD9
:103C5000E716370900209307495C83A547491D45AE
:103C6000EFE05FB603A5819B138A819B1309495C32
:103C7000EFB0C00F13160501418291451385C18D28
:103C8000EFF00FC103254A00EFB0400E13160501F7
:103C9000418295451385C18DEFF08FBF8145138516
:103CA000C18DEFE03FEB2685EFF07F88C167FD1700
:103CB0006300F5029387819098436304E50E88C3FF
:103CC0009307600E1306600E63CFA70C23A4A19C7C
:103CD00085451385C18DEFE0FFE72685EFF03F8531
:103CE000C167FD176300F5029387C1909843630293
:103CF000E50C88C39307600E1306600E63CDA70A18
:103D000023A6A19C83A4419EA94523AC918C03A624
:103D1000418D1385C18D918C37F63600130606E868
:103D200033D6C40242064182EFF08FB63D661306D9
:103D300006A633D6C4029304C003AD451385C18DD6
:103D400033769602EFF0CFB403D6C18CA945138524
:103D5000C18D33569602EFF0AFB303D6C18CAD459B
:103D60001385C18D33769602EFF08FB28357C92544
:103D7000014685C38327492689CF130640069387CA
:103D80003706B3D7C702032609263356F602137641
:103D9000F60F81451385C18DEFF0EFA041016FC093
:103DA000CFCA03A6819C81451385C18DEFE0BFF684
:103DB00005B703A6C19C85451385C18DEFE0BFF50E
:103DC00091B715476390E70603A6418D83A7818DC0
:103DD000BD64938404A6918F37F63600130606E877
:103DE00033D6C7021307C003B3D4970283A5810358
:103DF0004206418283870500B3F4E40299E3938588
:103E00009102014532C6EFE0FF9B3246854513859E
:103E1000C18DEFF0EFA7268689451385C18DEFF0A0
:103E20002FA7ADBF21476385E70045476392E702AF
:103E300003A5819BEFA09073131605014182814574
:103E40001385C18DEFF0CFA403D6819C8545F1B7D2
:103E50003D476397E70A03A5819BEFA030711316D6
:103E60000501418281451385C18DEFF06FA203A545
:103E7000C19BEFA0B06F13160501418289451385E0
:103E8000C18DEFF0EFA09387C1919A234207418340
:103E90001DE3138741911A239306300B93874191B9
:103EA000E3FEE6EE9A239306000FE3E9E6EE9A239B
:103EB00023A4E19CE5B59A2385466394E602138723
:103EC00041911A239306700293874191E3F8E6EC3F
:103ED0009A2393068007E3E3E6EC9A2323A6E19C6A
:103EE00075BD9E230947E31BF7EA938741919A2307
:103EF0009306F00FE3E4E6EA9A2323A0E18C79BD70
:103F00002D476393E70A03A6412581451385C18D9B
:103F1000EFF02FAA13894125032649008545138513
:103F2000C18DEFF00FA90326890089451385C18D46
:103F3000EFF02FA883D7C19113898181C207C18374
:103F400085E7138741911A238546938741916395AD
:103F5000E602B737010083A7C7D805462320F9003A
:103F600081452685EFE03FEA032609008D4513854C
:103F7000C18DEFF00FA41DB59A238946639AE60020
:103F8000B737010083A747B909462320F900C9BF05
:103F90009E230D47E31AF7FCB737010083A7071BE1
:103FA0000D462320F9006DBF3547E399E7DE83C74F
:103FB000518F9384518F6390070C938941252382FD
:103FC0000190B737010083A5C7D803A58900EF90FA
:103FD000B07537370100032707B89387818B938625
:103FE00001261386C1259385812523A4A900138565
:103FF0004125EF104046373501001305851CEFC001
:104000006FFE37390100930549040145EFE08FFB4E
:10401000930549040545EFE0EFFA930549040D4582
:10402000EFE04FFAB735010001469385451D138532
:10403000C18DEFE03FBEB735010001469385851D78
:104040001385C18DEFE01FBDB73501000146938593
:10405000C51D1385C18DEFE0FFBBB73501000146DB
:104060009385051E1385C18DEFE0DFBA238A018E8B
:1040700085479CA025B30547639EE7001307000012
:104080003A8681451385C18D23A0E18EEFF06F92B2
:104090008947C5B70947639EE700130700003A86C2
:1040A00081451385C18D23A2E18EEFF08F908D475E
:1040B000C9B70D47639EE700130700003A868145A4
:1040C0001385C18D23A4E18EEFF0AF8E914755B7D4
:1040D0001147639EE700130700003A868145138568
:1040E000C18D23A6E18EEFF0CF8C954759B71547C8
:1040F000639AE70283A5418E03A5018EEF90D062FB
:1041000083A5818EEF90506283A5C18EEF90D06120
:10411000B737010083A5471BEFA0A05923A8A18EA4
:10412000994781BF1947639EE700130700003A864D
:1041300081451385C18D23A0E18EEFF08F879D47C8
:104140000DBF1D47639FE71003A9018E81451385AD
:10415000C18D4A86EFF0EF8583A9018F4A85CE8510
:10416000EFA00044635BA004CE854A85EFA0A07D4C
:10417000EFA0705EB737010003A6871B83A6C71B9D
:10418000373A0100B73A0100EF803078634AA00265
:104190009385CAEB0545EFE0EFE2B7350100938563
:1041A00045040D45EFE00FE2014693054A1D1385D6
:1041B000C18DEFE03FA6A1476DBDCA854E857DB795
:1041C000CE85238201904A85EFA0E045373B010070
:1041D0009385CAEB635E05040545EFE0AFDECA8553
:1041E0004E85EFA04076EFA0105703260B1C8326C8
:1041F0004B1CEF80700BEFA0D0602A868D45138595
:10420000C18DEFE01FFB654681451385C18DEFE051
:104210005FA7054693054A1D1385C18DEFE09F9F5B
:104220009387418F9823E30B07B623800700CDBD0A
:104230000545EFE02FD9CE854A85EFA0C070EFA0ED
:10424000905103260B1C83264B1CEF80F005EFA03A
:10425000505B2A868D451385C18DEFE09FF5614641
:1042600065B72147639EE700130700003A86814542
:104270001385C18D23A2E18EEFE0BFF3A547D5BB27
:1042800025476390E71203A9418E83A9018F4A85D0
:10429000CE85EFA0E0306350A006CE854A85EFA022
:1042A000806AEFA0504BB737010003A6871B83A697
:1042B000C71B373A0100EF8050656341A004A9474E
:1042C0009CA0B7340100938544040545EFE08FCFEF
:1042D000938544040D45EFE0EFCE5D46854513859B
:1042E000C18DEFE01F9A014693058A1D1385C18D8C
:1042F000EFE05F9265B4CA854E8555B7CE852382BF
:1043000001904A85EFA02032B7350100B73A01008D
:104310009385451E635E05040545EFE0AFCACA8577
:104320004E85EFA04062EFA0104303A60A1C83A6AF
:104330004A1CEF806077EFA0D04C2A868D4513850C
:10434000C18DEFE01FE75D4685451385C18DEFE028
:104350005F93054693058A1D1385C18DEFE09F8B02
:104360009387418F9823E30B07A223800700A1B511
:104370000545EFE02FC5CE854A85EFA0C05CEFA0D4
:10438000903D03A60A1C83A64A1CEF80E071EFA0B3
:1043900050472A868D451385C18DEFE09FE1614628
:1043A00065B72947639EE700130700003A868145F9
:1043B0001385C18D23A4E18EEFE0BFDFAD4755B972
:1043C0002D47639DE71003A9818E83A9018F4A853C
:1043D000CE85EFA0E01C635CA004CE854A85EFA0EB
:1043E0008056EFA05037B737010003A6871B83A67E
:1043F000C71B373A0100EF805051634DA002B1470F
:104400009CA0B7340100938544040545EFE08FBBC1
:10441000938544040D45EFE0EFBA55468945138571
:10442000C18DEFE01F8601469305CA1DC1B5CA853F
:104430004E8575B7CE85238201904A85EFA0A01ED8
:10444000B7350100B73A01009385851E635F050407
:104450000545EFE02FB7CA854E85EFA0C04EEFA00F
:10446000902F03A60A1C83A64A1CEF80E063EFA0EE
:1044700050392A868D451385C18DEFE09FD355466F
:1044800089451385C18DEFE0CFFF05469305CA1D11
:104490001385C18DEFE00FF89387418F9823E30FC9
:1044A000078E23800700A947E9B60545EFE08FB1E5
:1044B000CE854A85EFA02049EFA0F02903A60A1C6B
:1044C00083A64A1CEF80405EEFA0B0332A868D455C
:1044D0001385C18DEFE0FFCD51465DB73147639E37
:1044E000E700130700003A8681451385C18D23A696
:1044F000E18EEFE01FCCB547ADBE35476397E714BB
:1045000003A9C18E83A9018F4A85CE85EFA04009FA
:104510006354A008CE854A85EFA0E042EFA0B02307
:10452000B737010003A6871B83A6C71B373A0100D4
:10453000B73A0100EF80703D938741906345A00634
:104540001386519018229386519005071377F70F21
:1045500018A2902329E6054690A399479CA08D4771
:1045600063F6E700B947238006009CA093854A1FA5
:104570000545EFE02FA5B7350100938545040D45AE
:10458000EFE04FA455468D451385C18DEFE06FEFE9
:10459000014693050A1E99BBCA854E85B5BF238087
:1045A0000700B94765BFCE85238007004A85EFA085
:1045B0008007373B010093854A1F635F050405456B
:1045C000EFE04FA0CA854E85EFA0E037EFA0B0180E
:1045D00003260B1C83264B1CEF80004DEFA070229E
:1045E0002A868D451385C18DEFE0BFBC6D468D4594
:1045F0001385C18DEFE0EFE8054693050A1E13858C
:10460000C18DEFE02FE19387418F9823630807F86E
:1046100023800700B147B1BC0545EFE0AF9ACE85D6
:104620004A85EFA04032EFA0101303260B1C83260F
:104630004B1CEF806047EFA0D01C2A868D45138568
:10464000C18DEFE01FB769465DB739476394E70056
:10465000BD4705B43D476393E7F4B73501003946DC
:104660009385C51E1385C18DEFE02FC7238A018E68
:10467000238004006FF08FF29387019183A6419EFF
:104680009043637CD60483A6419E9386460694C3DA
:1046900083A7419E03A7819163E1E704EFB25FB96D
:1046A0002A84EFE05FE193075006630DF50093075E
:1046B0006006630DF5001385C18DEFF08FD60145BF
:1046C0006FB05FB92285EFE05FEDF5B71385C18D5F
:1046D000EFE0EFB8238BA190F9BF01458280EFB2E4
:1046E0003FB59307C559232AF548B735010093070D
:1046F00000102A84232CF54823100500230105000F
:10470000938585441305C549EFA0105685472300BE
:10471000F46A83A7419E9387077D232EF4686FB0C8
:104720007FB3EFB2FFAD130A452341112A845285AE
:10473000AE89EF50C00471E54E85EFA0F0539307AA
:10474000C44701493EC4130BE002B73B0100373CAC
:104750000100B38AA900B73C0100373D0100930D69
:104760005448A2455285EF504008AA843DE1830792
:104770005448A5C3E38767FF8347444813F767009E
:104780006DF3032644490307060011E36E860327F1
:10479000446A05094209135909011DE3C18B95CFEC
:1047A00093858C2D5685EFA07044CE851305CD2DB5
:1047B000EFA0502ECE852285AD3729ED23800A004B
:1047C0008327446A09476398E7028317846AE39A58
:1047D00027F9268541016FB07FA693858BDD328551
:1047E00032C6EFA0904A69DD3246CE8513050C2F04
:1047F000EFA0502AF1B70547E395E7F62314246BA1
:104800008DB7AA84AA853735010013054530EFA07E
:104810007028C1B7AA8475BFEFB29FA141112E8540
:10482000B28532C6EF40B0752A84324601E9373589
:104830000100B2851305C531EFA0D02522854101C5
:104840006FB05FA1EFB2DF9E41112E85B28532C6F7
:10485000EF40B07932468307960091E3114541015C
:104860006FB05F9FEFB2DF9C117191672A849387CD
:1048700007A31306B00F814548003EC0EFB05F9E0E
:104880008A852322046A2285EFF0BFE911616FB0A7
:104890007F9C3C218DEFEFB2BF99930545002A84A0
:1048A0000145EF405031AA8509C93735010013058C
:1048B0000529EFA0301E6FB0FF9937350100814503
:1048C0001305452BEFA0101D85473CA0EDB7828056
:1048D000A30005002301050082803C2199C3854780
:1048E0001CB182801C3199C3A30005008280EFB205
:1048F0003F94411174001305852502C6EF403044F2
:1049000019C5373501001305053FEFA0B018324532
:1049100041016FB03F943C21A5CFEFB27F9141118F
:104920002EC6130485250DCE3735010013054533FA
:10493000EFA05016B24505462285EF40D029AA8542
:1049400011C93735010013054535EFA0B0144101F9
:104950006FB05F9037350100814513050537F5B716
:104960003735010013050539EFA0D012B2452946AD
:104970002285EF405026AA8511C537350100130561
:10498000453BE1B73735010081451305053D75BF4E
:104990008280EFB2FF8985473CB10146EFF0BFF757
:1049A0006FB05F8BEFB2DF882E85EF40B06A01C930
:1049B000AA853735010013054525EFA0B00D6FB06E
:1049C0007F89EFB2FF863C2195CF2A8437350100DD
:1049D00013054542EFA0100C83250426373501004E
:1049E000130505C1EFA0100B1305F002EFA0B00EE8
:1049F00083254426373501001305450CEFA09009A7
:104A00006FB05F853735010013058543EFA090082F
:104A1000C5BFEFB2FF812E852E84EFA0F025AA84BA
:104A20009305E0042285EFA0B02215ED1385F4FF75
:104A30002295B5471CB1A9473CA1A3010500373514
:104A40000100130545BDEFA0F00437350100130543
:104A5000C526EFA030043735010013050563EFA02C
:104A600070036FB02FFF9305A002EFA0701E7D159D
:104A7000C9B791E98347056A8DC383A7419E032780
:104A8000C56963ECE7003C212300056A99E7EFB2B2
:104A90002FFAEFF01FE06FB0EFFB8280EFB24FF91B
:104AA000930485252A842685EF4070412685EF40B2
:104AB000D04B23000400A30104006FB0AFF9EFB2A4
:104AC0002FF7370400208347445C05498DC7AE8427
:104AD000B73501009385C5402685EFA0101B1DE565
:104AE0001305445CA685EFF0DFF21304445C3C3010
:104AF00091C7EFC0FFB24A856FB0CFF537350100DF
:104B00001305C5C8EFA000790149F5B71305445C4A
:104B1000EFF0DFF83735010013050541EFA080778E
:104B2000D9BFEFB2EFF009472322E56A2314B56A33
:104B3000B285EFF01FBF6FB0EFF1EFB26FEF8547B7
:104B40002322F56A2A84EFF0DFBD8315846A3735A6
:104B500001001305450CEFA0E0730355846A6FB0A4
:104B60006FEFEFB2EFEC9305F0021305C549EFA02C
:104B7000300E133515006FB0EFEDEFB26FEB13058C
:104B8000C549EFA0700E6FB0EFECAA870385070050
:104B90006305B50001CD8507D5BF2E8581C923806A
:104BA00007008507038707007DFB05458280EFB27C
:104BB0002FE89305F0021305C549EFF01FFD6FB014
:104BC0006FE9EFB2EFE62E849307C549B7350100D0
:104BD0003E8593850533EFA0D005A285EFA0700533
:104BE0006FB04FE7EFB2CFE42A84EF103046EF10FA
:104BF000D05413058425EF405037A3000400EF1074
:104C000010503735010013054528EFB03FC56FB090
:104C10006FE4EFB2EFDE939A2600330B5601397141
:104C200083240B00BA89330755012E893E8C0C432F
:104C3000834701082A8A268542CAC68C3ED032C2E2
:104C4000EF90802E12468A0933073A01B3073601E6
:104C500080430C432AC422853EC20A0CEF90C02C2C
:104C6000B3078901B30B8A0183A50B002AC68843C9
:104C7000EF90704D8327C900A2452AC83ED48327F0
:104C8000CA003ECCB7070080BD8C3D8CB3075901EC
:104C90008843EF90504BB30739012A8DB2458843C2
:104CA000EF90704AAA8DEA852685EF909020EE85D8
:104CB0002AD62285EF90F01FB257AA853E85EF9045
:104CC000A026EE852AD62685EF90B01EEA85AA8D0D
:104CD0002285EF90101EAA856E85EF90D046B257C0
:104CE000BE85EF50F054930500002A8DEF90B0136D
:104CF000635005026A85EFA00026B737010003A6BE
:104D0000074583A64745EF702067EFA0802F2A8DC7
:104D1000825799CF6A85EFA00024B737010003A618
:104D2000074583A64745EF803015EFA0802D2A8DDB
:104D3000C247139517000581EFA0E0212AD02ED29B
:104D40006A85E685EF90F016EFA0E02002569256B5
:104D5000EF50D035EFA0E02AAA8DEFA0C01FB737E3
:104D6000010003A6874583A6C745EF80003A634646
:104D7000051C6E85EF50701EEF90507F931D05014E
:104D800093DD0D0163930D00854D6E85EFA06003EB
:104D9000AA8CAA856A85EF90C04F2A8D4245E68588
:104DA000EF90204FE2452AC82255EF90D039E68592
:104DB000EF90204E2AD46A85EFA0E019B7360100A3
:104DC00003A6064683A646462ACC2ECEEF80403F59
:104DD0006247F2473A86BE86EF80803EB7370100D1
:104DE0002A86AE8603A5874683A5C746EF80D008EE
:104DF000EFA0202103A70B009C00E29723A8E7FE69
:104E00000327CA00AA8C054A3ADE980056973ACC86
:104E100098004E97814B3AD03E8C93170A01C1837C
:104E200063F3B711E14763CC7709EA852685EF90F4
:104E30005008AA89E6852285EF90B007AA854E859D
:104E4000EF90800EAA89E6852685EF909006AA84C9
:104E5000EA852285EF90F005AA852685EF90B02E91
:104E600013881B00931B8801AA8493DB8B414E841B
:104E7000A2452685050AEF90200BE247B24523A8FC
:104E8000A7FE2285EF90400A8257C24523A8A7FEBD
:104E900003250CFFEF9040092328ACFEA255725564
:104EA000EF9080082ADE0818EFC00FBE52475C0161
:104EB000741830184C180818EF00E059B9BF528523
:104EC000EF903070EA85EF90C07E2A84EF50B000FA
:104ED000AA892285EF50301583270B003707008001
:104EE000AA8AB3CBE7009247CE855E858043EF90D8
:104EF000407CAA84D6852285EF90A07BAA85268552
:104F0000EF908002D685AA845E85EF90807AAA8A87
:104F1000CE852285EF90E079AA855685EF90B02264
:104F20002A84814BB1B752475C019306C90013062E
:104F30008900930549004A85392B21616FB00FB074
:104F4000EFB20FAC2A84485D4111AE8B328BEF90EB
:104F5000B0732A89284083298404EF90F0722A8C48
:104F60004E85EF90106693050000AA8CEF90805D4F
:104F70006300051ECA854A85EF90A073AA84E28566
:104F80006285EF900073AA852685EF90D01BEF9085
:104F9000907C2A8A6685AE8AEF90F07B2A86AE8660
:104FA000EF70803D2A86AE865285D685EF70D02F71
:104FB000EFA02005EF50E064EF903055AA846840E0
:104FC000EF90906CAA8A33053041EF90905F930583
:104FD0000000AA89EF900057630F0516D685568505
:104FE000EF90206D2A8ACA854A85EF90806CAA8549
:104FF0005285EF905015EF9010762A8D4E85AE8D2C
:10500000EF9070752A86AE86EF7000372A86AE86DE
:105010006A85EE85EF705029EF90B07EEF50E07317
:10502000032A0401EF90704EB3099A403385A940DA
:10503000635F050A930500006685EF90A050630F3B
:1050400005106685EF9030712A86AE862A8DAE8D6A
:10505000EF7080322AC452852EC6EF90F062EF9036
:10506000906F2247B2472A86AE863A85BE85EF808A
:1050700020152AC42EC66285E285EF908063EF90EA
:10508000906D2247B2472A86AE863A85BE85EF806C
:10509000A05E2A8CAE8C5685D685EF908061EF900D
:1050A000906B2A86AE866285E685EF70E02CB73776
:1050B000010003A6074D83A6474D2A8CAE8C6A8556
:1050C000EE85EF80E00F2A86AE866285E685EF707A
:1050D000B01DEF901073EF50C052EF901043AA84B0
:1050E000635305008144014563E34401D284996719
:1050F0007390078083470405E207E187B1E344C862
:10510000AA94DE8504CC4A85EF90A05AEF50604FF8
:10511000EF90D045930780076374F500130580076F
:10512000DA8528C04A85EF90C058EF50804DEF9047
:10513000F043930780076374F5001305800768C088
:105140009967938787087390078041016FB00F8F2D
:105150001305000085B513050000C9B5130500004F
:105160009DBFEFB2EF8C4111AA842E8532C6EF901D
:1051700040542A84A6852685EF80105B3246B2858E
:10518000EF902053AA852285EF90E07BEF50700AC4
:1051900041016FB02F8CADC925CAEFB2CF872E84E5
:1051A00003A9C5020854B284CA85EF90A03921C171
:1051B00083479403B9E703AA84024A85D285EF9016
:1051C000203E6350A00448581058B7090080D2858B
:1051D00033453501EFF0FFF8AA854A85EF90A044EA
:1051E00063590500485408D48547230CF4026FB076
:1051F000CF85485810588C5433453501EFF07FF671
:10520000DDB723242403CDB78280EFB2CF8093870C
:105210008192982319677310078003C9919213072D
:1052200087081379F90F73100780982333072741F4
:10523000318B0DCF8023014675143D888149138A37
:105240008133930A4005630324036204618411E0FF
:1052500041447D141374F40FB3045403CE85D294E7
:105260002685EFF05FF34E86A689F1BF6FA0FFFDA4
:1052700035C583479503BDE3EFA2FFF9032A8502F5
:1052800083A98502AE842A84CE855285EF90A03909
:10529000635B05024858105837090080D2853345B2
:1052A0002501EFF01FECAA854E85EF90C037635EB5
:1052B000050080548854A285EF90C02809C5854711
:1052C00080D4238CF4026FA05FF8485810580C5417
:1052D00033452501EFF0FFE82A84E9BF8280EFA281
:1052E0009FF303C4919281441374F40F0145938991
:1052F0008133930A4005414B938781929C23630439
:10530000F4023309540305046204A68561844E99AE
:105310004A86EFF0FFF56313640101442685137498
:10532000F40FCA84D1BF0146A685EFF07FF46FA0C9
:10533000DFF1EFA27FED83C491924111E204E18499
:10534000014493898133130A4005C14B93878192AD
:105350009C236389F404338944034E9905CC834725
:10536000840381E78347890395C7B3874403832A6E
:105370004402D685CE978857EF80B0712AC608546C
:10538000D685EF8010713246AA852285EFF05FBB8B
:10539000230C04028504E204E184639374018144D4
:1053A0004A846DB70DCC44502685EF90D03AB7377C
:1053B00001002A86AE8603A5874D83A5C74DEF70F1
:1053C000A06EEF9010442AC60854A685EF80706C3A
:1053D0003246AA852285EFF0BFB6230C04024101B4
:1053E0006FA01FE6EFA2DFE4EFF03FE2EFF03FEF48
:1053F000EFF03FF46FA01FE623840192A384019293
:10540000B71700209387872B23A0070023A207004C
:1054100023A4070023A60700938781301307000009
:1054200098C3D8C398C7D8C723A0E1928280938637
:105430009192138781928C2210231376F60F630BBF
:10544000B6009C2293F7F70F14236385D7008507D6
:10545000BD8BDDBF8280EFA2BFDABA8C3E8B938713
:1054600081929C235971138781928507E207E18716
:105470003EC63ACA3247C147AE8BB28936896313FA
:10548000F70002C6938791929C233247631BF70073
:105490002AC8EF50C000EF10E05EEFC0AF82424577
:1054A000D5B7938481328C40084137340100138A88
:1054B0008132EF9000208325C4B7EF80F026EF50B3
:1054C000C029EF909004CC40AA8A03A50B00EF906E
:1054D000401E8325C4B7EF803025EF500028EF90A1
:1054E000D0028C44AA8B03A50900EF90801C832571
:1054F000C4B7EF807023EF504026EF901001CC44EA
:105500002A8C03250900EF90C01A8325C4B7EF80C9
:10551000B021EF508024EF90407FB7170020138711
:10552000872B584722C83ED42A899389872B630446
:10553000E50A83C7818B1387819B8A07BA978C43BF
:1055400003A5C181EF90C0056356A0023735010065
:10555000130545B523A62901EF90D0533735010037
:1055600013050549EF901053373501001305056306
:10557000EF90505283A7C900B307F94013D5F74104
:10558000A98F3385A740EF90D003B737010083A5DB
:1055900047D52A840325CA00EF90A011AA85EF8081
:1055A000B018AA852285EF80B07F6356A0023735F8
:1055B0000100130545B523A62901EF90B04D3735FD
:1055C00001001305C54AEF90F04C37350100130573
:1055D0000563EF90304CD24713074005802383A525
:1055E0000900938781331374F40F3307E402938423
:1055F0008133BA97238807042380070263D5BA0052
:1056000005472380E70203A5490063DDAB001307CC
:1056100040053307E40226978347070293E72700F4
:105620002300F70283A68900635DDC0013074005B1
:105630003307E40226978347070293E747002300D6
:10564000F70203A7C900635DE900130640053306AE
:10565000C40226968347060293E787002300F602DA
:10566000B387BA4013D6F7413348F6003308C84031
:105670003386AB409357F6413D8EB306DC401D8E1A
:1056800093D7F641BD8E3307E9409D8E9357F7417E
:105690003D8F1D8F83A7C18093084005B308140375
:1056A0003307F70293074006A69823A0080123A218
:1056B000C80023A4D800B347F702368723A6F80012
:1056C00063D3F6003E876347C7786346070163D517
:1056D000D700B68711A0C287130740053307E4023D
:1056E000954626971CCB63FBF65C83A7018C7CC791
:1056F00083470B00A300F7026388BA000146C14547
:1057000037150140EF40101C93074005B307F40222
:10571000A697DC4399C70146C14537150140EF40C4
:10572000701A93074005B307F402A6979C4799C7E0
:105730000146C14537150140EF40D018130B400515
:10574000330B6403269B8327CB00639C075603AB74
:105750000194E6855A85EF80B0646343A000668BB0
:1057600003A509003385AA40EF90A06583250A00B0
:10577000EF803032AAC82AD003A549003385AB4058
:10578000EF90206483254A00EF80B030AACA2A8DAA
:1057900003A589003305AC40EF90A06283258A0001
:1057A000EF80302FAACCAA8C03A5C9003305A940ED
:1057B000EF9020618325CA00EF80B02DAA8903A550
:1057C000C180EF900060AA854E85EF80906EB7375C
:1057D000010083A547D5EF80D02B93074005B30781
:1057E000F402AACE15478256A69790436368C74E27
:1057F000D0436365C74E90476362C74E0605058177
:1058000088DB93074005B307F402373A010003250C
:105810004AB9A69783AC0703E685EF809027DA851F
:10582000EF803069D247138791929C23182352D07E
:10583000AA89998F93F7F70F13FBF7003ECC130754
:10584000EBFF954763ECE706EF90E070B737010098
:105850002A86AE8603A5874783A5C747EF70C02475
:10586000B737010003A6074683A64746EF60D0304E
:10587000EF40B043EF80605E2A8A03A5C193637F47
:10588000AA0233054541060533556503EF90C05F15
:10589000C24783A5C7B7EF802069EF40106C2AD2BA
:1058A0005285EF90605E9255EF800068B737010037
:1058B000AA8503A50747EF80D01DAA89130A4005D2
:1058C000330A4403CE856685EF80B05EAA8D014D14
:1058D000269A2322AA0203250A01EF90E05ACE85D8
:1058E0002A8BEF80105DEF40D051EF902048825717
:1058F00037070080232EAA0203AA47B99347F7FF70
:10590000371700203ED69307872A2AD23ED89C0814
:105910003387A7010C434E85EF80B0599C10338725
:10592000A701B25708C33377F500C257BA853ADEEC
:10593000B386A7019442368536DCEF80D04E6350A3
:105940000502E25672573685BA85EF809014D285EB
:105950002ADCEF80F0446344A00062573A8A110DBC
:10596000C147E316FDFA8257528583A547B9EF80F8
:10597000904B635405049309010603A50900D285E1
:105980009109EF80105323AEA9FE9C18E39737FFCF
:1059900093094005B3093403D2856E85EF807051B9
:1059A000A69923A2A9021255EF90004ED285EF804E
:1059B0005050EF90A03B23AEA902130A4005330AD2
:1059C0004403E6855A85EF80D00CAA89269A832D58
:1059D0000A0063930D3483274A00639F07328327AD
:1059E0008A00639B073283A54194EF80904CEF407F
:1059F0005041EF90A0372324AA04130A4005330A2C
:105A00004403269A03258A04EF900048CE852A8B0A
:105A1000EF803008232AAA025A85EF90C053B73787
:105A2000010003A6074883A64748EF706079EF801E
:105A3000403CC247232EAA0003A5019383A5C7B704
:105A4000138D0193EF80F046C2472A8A03A5419344
:105A500083A5C7B7A65CEF80D04593951C008581D0
:105A6000AA89EF80503C938741933ED26359050049
:105A7000D2854E85EF80D0326343A0004E8AC24764
:105A800003A5C19283A5C7B7365BEF8090429315FB
:105A90001B008581AA89EF8010399387C1923ED679
:105AA00063590500D2854E85EF80902F6343A00097
:105AB0004E8A93074005B307F402D285A69783A9BF
:105AC00047024E85EF80D02D6343A0004E8AE24707
:105AD00013870192B98B3AC8D289638C0712832944
