:100000006F500053130000001300000013000000A5
:100010001300000013000000130000001300000094
:100020001300000013000000130000001300000084
:08003000130000007300100032
:1000380000000000000000003C5300004053000096
:1000480000000000765400000000000000000000DE
:10005800785400007A5400000000000000000000FE
:1000680060800000000000007E54000000000000D6
:1000780086830000825400008454000086540000E7
:10008800885400008A5400008C5400008E540000EC
:1000980090540000925400009454000096540000BC
:1000A800985400009A5400009C5400009E5400008C
:1000B800A0540000A2540000A4540000A65400005C
:1000C800A8540000AA540000AC540000AE5400002C
:1000D800B0540000B2540000B4540000B6540000FC
:1000E800244100005A510000BC540000BE540000D6
:1000F800C0540000C2540000C4540000C65400009C
:10010800C8540000CA540000D2810000CE54000038
:10011800D0540000D2540000D4540000D65400003B
:10012800D8540000DA540000DC540000DE5400000B
:10013800E0540000E2540000E4540000E6540000DB
:10014800FC250000EA540000EC540000EE540000C6
:10015800F0540000F2540000F4540000F65400007B
:10016800F8540000FA540000FC540000FE5400004B
:100178000055000002550000045500000655000017
:10018800085500000A5500000C5500000E550000E7
:1001980010550000125500001455000016550000B7
:1001A800185500001A5500001C5500001E55000087
:1001B8002055000022550000245500002655000057
:1001C800285500002A5500002C5500002E55000027
:1001D8000000000000000000000000000000000017
:1001E8000000000000000000000000000000000007
:0801F8000000000000000000FF
:10020000397101436EC619A0397141536AC866CA73
:1002100062CC5ECE19A0397101535AD056D252D455
:100220004ED64AD826DA22DC06DE330161408282CD
:1002300041114AC026C222C406C68282B24D410183
:10024000024D924C224CB24B4101024B924A224A3F
:10025000B2494101024992442244B24041018280A4
:100260003D432A876373C3029377F700BDEFADE583
:10027000937606FF3D8ABA960CC34CC30CC74CC795
:100280004107E36BD7FE11E28280B306C3408A06C2
:100290009702000096966780A6002307B700A30682
:1002A000B7002306B700A305B7002305B700A304D2
:1002B000B7002304B700A303B7002303B700A302CA
:1002C000B7002302B700A301B7002301B700A300C2
:1002D000B7002300B700828093F5F50F9396850051
:1002E000D58D93960501D58D61B79396270097021A
:1002F000000096968682E78086FA9680C1171D8F49
:100300003E96E374C3F8A5B70100010001000100A7
:10031000010001000100014582803307C5009307F9
:10032000001063C7E702EFF21FEF3289AE89AA849B
:10033000014493170401C18363FE270133878900B9
:10034000A6970C231395070141817D3F0504D5B77E
:10035000014582800545D5BD010001000100010075
:10036000010001000100010001000100014582803F
:10037000EFF21FEC4111AA840144931704012EC629
:10038000C18332C463FEC700338584001375F50F43
:10039000E137B2452246B387850088A30504F1BF43
:1003A0000545410145BDEFF21FE72A89AE8432843D
:1003B0009309F00F370A0100B70A01007D14137486
:1003C000F40F630B34038C2003550900353F0345BC
:1003D000090059379C20638AA70013054A60EF8003
:1003E00000791385CA60EF8080788327090085042F
:1003F00085072320F900D9B789BDEFF27FE32E9658
:100400004111AA841374F60F88202EC6B137B24565
:1004100088A19C40850585079CC093F7F50FE315DF
:10042000F4FE410105BDEFF2BFE07971C1651384AF
:10043000455D41469385455D0A85EFD0106941468B
:10044000930504010808EFD0506841469305040263
:100450000810EFD09067B7160020371700208147AB
:100460001386012D9386062513070724C1453308FB
:10047000F100032808003385C70000082320050188
:100480003308F400032808003385D7000010232028
:1004900005013308F400032808003385E7009107BD
:1004A00023200501E395B7FCEF30F027B7070100E3
:1004B00083A787621306000023A6F18C23A6F18E82
:1004C000370701000327C762B706010023A0E18EAA
:1004D0009567938707E223A2F18E23A4C18EB70705
:1004E000010083A7076383A6466323ACF18C23AE88
:1004F000D18C23AAF18C138781B210C750C3370760
:1005000001000327876323A4C1B223A8E182B707B0
:10051000010003A5C763EF40705A23A6A182B70765
:10052000010003A50764EF40705D23A4A182EF40A2
:10053000403D3707010003274764370501001305D5
:10054000456023A2E182EF80806237050100130538
:100550008564EF80C0614561F5B9EFF27FCA93858C
:10056000C11F131425009388C50013888500138AC2
:100570004500C6864286338B8500AA899307000012
:10058000D2851385C11F2320FB00EF30F006B7078B
:10059000002093878702A2978843938B4181EFD0F5
:1005A000102AB717010003A687B983A6C7B9CE9B47
:1005B000EFB070282A8C03850B00AE8C9384C12089
:1005C000EFC0C0762A86AE866285E685B70C00202D
:1005D000EFB07026938C8C01EFD0303133898400DA
:1005E000A29C371E01002320A90003A50C0083252F
:1005F0000EB99389818023A0A900EFC010581383FE
:10060000C400138D840091042A879A866A86A68581
:100610001385C1209387018AEF20905D9307000026
:100620002320F900EF40201C930700002320FB004B
:100630009388812013884120D285370A0020C686FE
:1006400042861385C11F130ACA00EF30E07A229A4E
:10065000832D0A0003850B00B7070080B3CDFD0092
:10066000EFD0B004AA856E85EFD02013371E0100AD
:1006700083250EB92320A90003A50900930D0000CE
:10068000EFC0B04F138381212A879A866A869387A9
:10069000018AA6851385C120EF2090552320B9013A
:1006A000EF40601483250A002E85EFC070162A8A59
:1006B00003850B00EE8BEFD0407FAA855285EFD0EB
:1006C000C00DB707010083A5C7622320A90003A5B9
:1006D0000C00EFD0800C371E010083250EB923A03B
:1006E000A900EFC09049138381212A879A866A86E0
:1006F0009387018AA6851385C120EF20704F2320A0
:10070000B901EF40400E938781B2A29703AA070078
:10071000938741B3A2978C435285EFC0700F9387A4
:1007200001B4A297AA8A2320AB008843D285938480
:10073000C121EFC0F00DA29488C0B7070020B70414
:1007400000209387070093844403A2943E940840BA
:10075000D285EFC0F00B88C02320590123A0B90136
:10076000EF30F011E1BCEFF2BFAC2E84AA85371553
:100770000100130505A1EF80803F2285EFD0300CEA
:100780002A8637150100AE86130545A1EF80203E6D
:10079000D1B4EFF2FFA941112EC4AA85371501008B
:1007A000B286130505A136C6EF80603C2246B246EC
:1007B00037150100130545A1EF80603B410159BC8D
:1007C000EFF21FA72E84AA8537150100130505A196
:1007D000EF80E03937150100A285130545A1EF80B0
:1007E00000398DBCEFF23FA39384C18898408D47B8
:1007F00063C5E706138481891C4013090006B3070B
:10080000F9029389819AAA853385F900EFD0703A6D
:100810003705010013054560EF806035370501009D
:100820001305457FEF80A0340C40371501001305F8
:1008300005A1B305B902CE95EF80603337150100ED
:1008400013050580EF80A0321C4011478507B3E7F0
:10085000E7021CC09C4085079CC0C5BAEFF25F9DB3
:100860005137CDBAEFF2DF9C37150100130545B7BC
:10087000EF80E02F996773900780B707EFBE37E7E7
:1008800000E0938707083CC76FF0DF9CEFF25F9AA8
:1008900037140140130504808565EF7040770546E5
:1008A000130504808565EF704073F165938505201D
:1008B00013850199EF70F01B37250140854513051D
:1008C0000580EF70C074EF706005371501001305E7
:1008D000C5AAEF80C02937150100130545ACEF808C
:1008E0000029B704010013854460EF8040283715C4
:1008F0000100130585ADEF80802737150100130532
:1009000085AEEF80C02637150100130505B0EF80D6
:100910000026371501001305C5B0EF8040253715B7
:1009200001001305C5B2EF808024371501001305BF
:1009300085B3EF80C02313854460EF8040233715D3
:100940000100130545B4EF80802237150100814571
:10095000130545B5EF80A02137150100130585B5B6
:10096000EF80E0203715010093050054130505B70B
:10097000EF80E01F23A801887D34EF40C025EF20E1
:100980005021EF30904DEF702071014685651305C1
:100990000480EF7080646FF0FF8B014793060006C0
:1009A0003306E5000306060093178701E187631409
:1009B000B6069305F005254613978701618763CF37
:1009C000E504B306F50094228507938606FD93F6A9
:1009D000F60FE363D6FE8147A54829489305F00545
:1009E000B306E50003860600930606FD93F6F60FB0
:1009F00063E1D802B387070305079376F70F1397D0
:100A000086016187938707FDB297C207C183E3F927
:100A1000D5FC3E8582800507E314D7F88147D5BF12
:100A2000EFF21F81830715001307C004AA846388AF
:100A3000E700130700056380E7046FF0BF81B71577
:100A4000010093858580EFD0F01819C59305A003A8
:100A50002685A1372399A18AB71501009385858141
:100A60002685EFD0301771D99305A0032685353739
:100A70002398A18AD9B7B715010093850582EFD0D5
:100A8000701545DD930530072685013F1384418BA2
:100A90000AA01E209305A0032685C207C18381CF2B
:100AA000ED3D9307C0033305F5021A203A95420540
:100AB00041810AA059B7D535EDBFEFF26FF703A713
:100AC0004189930700063387E70283A701881385CE
:100AD000819A8145B306E500958F8507BA973E95C3
:100AE000EFE0205EEFD060606FF0CFF6EFF24FF4F2
:100AF00003A74189930700063387E70283A701888C
:100B00001385819A29468145B306E500958F8507AF
:100B1000BA973E95EFE040706FF0CFF3EFF24FF1F0
:100B200003A7418993070006AA85B387E7021385C7
:100B3000819A3E95EFD0700623A0A1883335A0009E
:100B40006FF04FF1EFF2CFEED13F6FF0AFF0EFF279
:100B5000AFEB9389818083A7090023AEF186938749
:100B60000181984323ACE18A1307400698C303A789
:100B7000C1989387C18A98C3EF30F0460545EF309E
:100B8000E0501387C11F14439387C12094C354437B
:100B900013058005B7040020D4C314475847938B2E
:100BA000C18794C7D8C79307000023A0F900BD37B9
:100BB0009389C18A138B8180938A818B138A0181E7
:100BC0001384C11F938404226311050C130590053F
:100BD000B137631C050A1305A00589376317050A99
:100BE00085479CA00145EFF05F979C206386070A2C
:100BF0000545EFF09F969C2089E71305A005393F36
:100C000001C50945EFF07F9513058005013F11C926
:100C1000F13D01C95D35AA8503A581B2EFC0403F12
:100C200008C013059005DD3D11C9C93501C97135ED
:100C3000AA8503A5C1B2EFC0A03D48C01305A00519
:100C4000F13D11C9653501C98D3DAA8503A501B3E3
:100C5000EFC0003C08C49306C4001306840093054B
:100C600044001385C11FEF30201983A70B002320F8
:100C7000FB0083A70A002320FA0083A7C19823A0C2
:100C8000F900EF30C03F6FF0AFDB13058005238024
:100C900004006935E31805F4130590054135E3199F
:100CA00005F4A1BFEFF2CFD813850199EF70806CE6
:100CB00037150100130585A7EF70706B83A5C186FA
:100CC00037150100130545A88505EF70506A6FF0D0
:100CD0006FD8EFF2EFD27571371A00209387018930
:100CE000130ACA481384819A3EC683270A08032739
:100CF0004A08998F93F7F707B1C703A7C1888D47B3
:100D0000938CC18863C0E70413850199EF70006478
:100D1000931585013705010093840187E18513054B
:100D2000C5668CA0EF70B06483860400A947138762
:100D30001187938441876397F6029440A9EAA388B8
:100D4000018631A81306000681450818EFF04FD13F
:100D50009387C1B49C33138DC1B4639F0726496147
:100D60006FF0CFCDB547E38AF6FC9307A0036394F9
:100D7000F6001C23F9D390409307E005E3CFC7FAB0
:100D80009307B003639AF62285471CA3B9BF938DDE
:100D9000818983A70D00130600061823B38AC702B2
:100DA00013898189B3095401CE962380060063120A
:100DB000071C32479305E0044E85BA97238007004D
:100DC000EFD0A05D630A051A23A0A1883305354141
:100DD00005055695294681452295EFE0E043938B22
:100DE000C18683A70B00138DC1892320AD00850721
:100DF000138B0188938AC1899389C186630EF50498
:100E000003A50D0013060006B70501003305A60271
:100E10009385C5672295EFD0E05B1DED3705010096
:100E200013054568EF70B054370501001305C56818
:100E3000EF70F05383A50B00370401001305046C19
:100E4000EF70F05283250D001305046CEF703052E3
:100E5000913D23A0040021B703250900930B000650
:100E60009305A002B30B7503B30D74016E85EFD02B
:100E7000C0523DC18147014DEE861306A002338763
:100E8000F600030707006308C7008507E207E1874C
:100E9000334DA701EDB72320AB003305B541050560
:100EA0005E9581452295EFE0C021EFB0F05B6308CD
:100EB000A5053705010013054568EF70504B370550
:100EC00001001305456CEF70904A3715010083A5AA
:100ED0000900130545A89DBF3705010013054568A6
:100EE000EF70F048370501001305456EEF7030488C
:100EF0003705010083A509001305056C81BF83A791
:100F00000A0023A0F90083290900130500069305B0
:100F10007004B3093503B30A34015685EFD0E047B6
:100F200005CD23A0A1883305554105054E95814582
:100F30002295EFE00019EFB030538D4763EEA70024
:100F400083C78186ADE783C7C1B499E73705010040
:100F50001305C573EF70B04183270900114785075A
:100F6000B3E7E7022320F90083A70C00850723A03D
:100F7000FC0023A0040095BB9305A0024E85EFD092
:100F8000C04151D13705010013054568EF70303E6F
:100F90003705010013050571EF70703D83A5C1860B
:100FA000370501001305056CEF70703C5DB5370522
:100FB00001001305057479BF1C23E39807D283A7AA
:100FC00081891307160098C013070006B387E7024C
:100FD000A297B29794A311BB83A74187138441873B
:100FE000E39F07D6814C1389819A9389018903274E
:100FF0004D2683270D26E304F7D603A7C1888D4726
:10100000138CC188E3CDE7D413058D25EF60F00084
:101010002388A186A947938D11876304F502B547FC
:101020006301F5029307A0036315F50083C70D0064
:1010300089CB18409307E00563C5E700FD576319A6
:10104000F50E03270D2683274D266311F708370574
:1010500001001305857BEF70903137050100130502
:10106000C57CEF70D03083A7C1989306C00323A03E
:10107000F18C03A6C18B3D67130707A6918F33D769
:10108000E70237F63600130606E8B7050100938538
:10109000057E0808B376D70233D6C702EF70702FEB
:1010A0003705010013054560EF70702C37150100FE
:1010B0000C08130545B5EF70902B1385C1B4EF10E4
:1010C000102C85451385C1B4EF10501483C70D0053
:1010D00099CF0818EFF0DF94814713070006141822
:1010E000BE96238006008507E39BE7FE814C1040F7
:1010F000E30706C4938681899C4213070006238078
:101100000D003387E702232004004A97329723001B
:10111000070005463387F90010A303270C00850755
:1011200005072320EC001147B3E7E7029CC2C1B5D5
:101130009307B0036310F50285472380FD0018096B
:1011400093871C00BA9C2380ACFA939C870193DCA4
:101150008C4171BD83C70D00FDF383A78189930680
:10116000170014C093060006B387D702CA97BA9730
:1011700088A3374700401375F50F8357074093F74F
:101180000708E5DF420541812312A7408DB503A77B
:10119000C19823A6E18A03A7418993870189BA9759
:1011A0009C2399EBEFF2CF88370501001305C57337
:1011B000EF70F01B6FF00F8A8280EFF2EF84938460
:1011C000C11F1384C120014993890186138A418A72
:1011D000914AB387290103850700EFF03F9429CD99
:1011E000EFF0BF8DB3072A01AA8B882311E59387FF
:1011F000618B88231375F50FEFC0304B8C40EFC027
:10120000C059DE85EFB0D06008C005099104110413
:10121000E31159FD13056004EFF05F9001CDEFF08D
:10122000DF89930500002A84EFC000466354A000C4
:1012300023A481806FF0CF809C401CC0F9B7EFE2FF
:101240003FFFA53F13059004EFF05F8D1384C19914
:1012500011CDEFF09F8608C01305A004EFF01F8C9E
:1012600011C9EFF09F8548C06FE0DFFE93070000D3
:101270001CC0DDB7930700005CC0FDB7EFE25FFB69
:1012800003A9C1212A840841CA859384C121EFC0E2
:101290000048635405002320240103A9440048406A
:1012A000CA85EFC0C046635405002322240184444C
:1012B0000844A685EFC0A0456353050004C4B704E5
:1012C000002003A94403084093844403CA85EFC067
:1012D000A03B6354A0002320240103A944004840FC
:1012E000CA85EFC0603A6354A000232224018444DD
:1012F0000844A685EFC040396353A00004C46FE0E2
:101300007FF5EFE2FFEF1385C1208D3F03A7C19862
:101310009384C12003A5C11F8C4023A6E18A83AA20
:101320008180EFC0A030CA8C1384C11F371A01001E
:10133000938D4121138D012131E1CC404840EFC014
:10134000E02E0DED83250AB95685EFC000032A87EC
:101350009387018A938681211386412193850121F8
:101360001385C120EF20C0089C401CC0DC405CC03D
:101370009C441CC4DC445CC46FE05FEC03A50181A9
:10138000EFC0B032D685EFC0404183250AB9EFB037
:10139000D07EB717010083A54780EFB0107E2A8763
:1013A0009387018A938681216E86EA851385C12001
:1013B00055BFEFE25FE61384C1992A8948400111C5
:1013C0001379F90FEFC0B0472ACC08402ECEEFC0FA
:1013D00010476246F246EF701043EFC010512ACC1E
:1013E00003A50181EFC0702C83A58180EFC0E03A96
:1013F000B717010083A507B9EFB03078B717010020
:1014000083A54780EFB0707783C7018AE248938451
:10141000C1203EC24AC02A888947054781461386B3
:10142000C1999385C1201385C11F1384C11FEF107B
:10143000E0779C401CC0DC405CC09C441CC4DC4485
:101440005CC403A7C19823A6E18A05616FE0FFDFB2
:10145000EFE21FDE996773900780EF30D0010546F9
:10146000C14537150140EF6050370546C145371576
:101470000140EF6090360546C14537150140EF60E9
:10148000D0350546C14537150140EF6010353705A9
:10149000010013054560EF70806D371501001305DD
:1014A000C5A8EF70C06C37150100130585F7EF7004
:1014B000006CEFF02FBB01A0EFE29FD71386C18A2B
:1014C00083A6C1980C4203A641888D8E9387C18A5A
:1014D0006374D60011C2AD3F83A64180A1CA03A7A1
:1014E000C1989C43B307F74063F2F60403C7018D2C
:1014F00083C7118D93F7F70F639AE7020546C1453D
:1015000037150140EF60702D0546C1453715014084
:10151000EF60B02C0546C14537150140EF60F02B58
:101520000546C14537150140EF60302BEF10D069FB
:101530006FE05FD2EFE2DFCFEF30E0739387818619
:1015400098231DE3054798A303A7C186370501002B
:101550001305456023A4E188EF7060613705010041
:1015600013050574EF70A0606FE0DFCE03C58186C0
:101570008280EFE2FFCB83C7018AAA84130540056E
:10158000238CF186EFF08FD909E501494A856FE098
:101590007FCC2A89EFF06FD2EFC0D00B1384818704
:1015A0001375F50F08A075D13705010013054560C7
:1015B000EF70E05B930790066384F40463CE9700BA
:1015C000930780066387F4020C203715010013058A
:1015D00045B5EF70C0595DBF9307D0066387F4022D
:1015E0009307A00DE392F4FE37150100130505A63D
:1015F00029A037150100130585A1EF704057E9B701
:1016000037150100130505A3CDBF371501001305DC
:1016100085A4E5B7EFE2DFBE5D7113057004EFF05E
:10162000EFCF63060516EFF04FC9EFC0807C9147FE
:101630006303F50C63CCA7008947630EF50863C507
:10164000A70A63500508EFF09FB459A09307A005BF
:101650006303F51063C8A700F147E316F5FEEFF04A
:101660000FCFD5B79307B005630AF50E9307C005F2
:10167000E31BF5FC13055004EFF04FCA19E1EF30FE
:1016800080161384C11F81449389018613898120A8
:10169000138A81B2930A8400B387990003850700F7
:1016A000EFF0CFC711C98D47639EF40AEFF0EFC08A
:1016B00048C44A85EF20500385049147E39EF4FC1B
:1016C00059B783C7818681EBEFF03FAFEFF07FC35F
:1016D00061616FE0BFB683C7818699E7EFF03FB6DF
:1016E0000545EFF01FCDEDB783C7818689E7EFF0A1
:1016F0001FB50145FDB713050005EFF02FC20144EA
:1017000011C5EFF08FBBEFC0E0742A8413053005DC
:10171000EFF0CFC001CDEFF04FBAB707010083A5BE
:101720008762EFC08007EFC0E0722A84EF30A00B21
:1017300003A7C19883A6C198BE843A9423A6D18AF0
:1017400083A7C198E3F187F0EF60D046EF30802C9B
:10175000EFF09FD6F5B7238B018AF5B50547238BAC
:10176000E18AD5B5EFF06FB593972400330BF40001
:10177000D297AA858843EFB0B0092320AB00CA8670
:101780005686930544002285EF20006735B7130580
:10179000D004EFF0AFB819E16F00F051EFF0EFB106
:1017A000EFC0206513079006AA876300E566634EC5
:1017B000A7147147630BE5506342A70A5947630DAD
:1017C000E546634EA7044947630DE50C634EA70247
:1017D0004547E31AE5E60146C14537150140EF608C
:1017E000C07F0146C14537150140EF60007F0146CB
:1017F000C14537150140EF60407E0146C1453715B0
:101800000140EF60807D81B551476306E540554753
:10181000E31BE5E21385C1B4EF1040012DB5654728
:10182000630EE5466341A7025D47630CE5406147EF
:10183000E31BE5E01385C1B4EF10C00303A7C19813
:1018400023AEE18A09B569476300E5466D47E31CAD
:10185000E5DE1385C1B4EF106010F5B31307200562
:10186000630CE56A6341A7027947630DE54A634764
:10187000E54A7D476301E55613071005E315E5DCEE
:10188000EFE05FFEC9B313075005630CE572634DCB
:10189000A702130730056305E56813074005E31445
:1018A000E5DA13053005EFF06FA763000568EFF088
:1018B000CFA0B707010083A58762EFB0106EEFC01D
:1018C000605923A2A18041B31307C005630DE570E1
:1018D00013078006E319E5D613058006EFF07FC9EC
:1018E000E31305D613053005EFF04FA301CDEFF05C
:1018F000CF9C03C48187938701970A043E94EFC06D
:10190000404F08C0EF3000373DBB1307C00CE30663
:10191000E5186349A72213077007E300E508634051
:10192000A71C130720076306E5766346A71813076D
:10193000D006E31AE5D01305D006EFF09FC3E314F9
:1019400005D013053005EFF06F9D93848187138ACE
:10195000019709C9EFF06F968020EFC080490A0413
:10196000529408C0EF30003103C904000A09B307DC
:101970002A01884383AAC198B71B0100EFC0E05237
:10198000938701963E9983270900AA8C7D593EC40E
:10199000B717010003AC478393890196371D0100F7
:1019A000E28D83A7C1981307803EB3875741637CBC
:1019B000F708B71701001385C789EF70401B9C20FB
:1019C0008A07CE978843EFC08067B71701002A8641
:1019D000AE861385078AEF708019B717010013854B
:1019E000878AEF70C0188C2013850B89EF70201840
:1019F0001305CD8AEF70A01703A50197EFC0E04A49
:101A0000EFC0203FAA8513850B89EF70401637156C
:101A100001001305058BEF708015FD576301F94A2E
:101A200083A7C1988965938505719D8DCA95130714
:101A3000803EB3D5E50237150100130545A8EF70C8
:101A4000001383AAC198EF20F07CEFF0FFA6FD57AA
:101A5000631CF948A2456685EFB010439C208A07B5
:101A60003EC63307FA006353A0460843EFC0E04385
:101A7000EE85EFB0D07BB247CE978C43EFB03049C4
:101A8000E341A0F203A9C198FD57E30CF9F0634BC1
:101A9000090003A7C19889679387F7703307274127
:101AA000E3F1E7F003A7C19823AEE18A03A7C19849
:101AB00023A6E18A49BE130730076304E55C1307D8
:101AC0005007E312E5B803A501889305A0021505A8
:101AD000EFC0B00CE30905B6A30F05FEADB61307C2
:101AE000C0086306E530634EA70013078007630351
:101AF000E56A130790070545E397E7B4EF2000591F
:101B000099B61307900C630BE5741307B00C0144EE
:101B1000E31BE5B2371900209384018613090925D8
:101B20009149B387840003850700EFE03FFF19C5A3
:101B3000EFE0BFF893172400CA9788C30504E312A7
:101B400034FF11B61307D012E302E504634DA70278
:101B50001307E00C6305E57E6347E5761307C00DC8
:101B6000E307E5001307D00DE31FE5AC13053005CF
:101B7000EFE0DFFAE30905ACEFE03FF4EFC06027E8
:101B800023A6A180C9B413070019E302E512634438
:101B9000A7061307E012E307E50E1307F012E3149C
:101BA000E5AA13055004EFE07FF78144E30B050E2F
:101BB000EFE0BFF0EFC0E023AA84E354050EB717AF
:101BC000010003A4078313053005EFE03FF501C5CD
:101BD000EFE0BFEE2A8413053004EFE03FF4154632
:101BE00011C5EFE09FEDEFC0C0202A86A6852285B3
:101BF000EF30600A89BC1307003A6306E518130743
:101C0000703EE312E5A42384018603A7818823A6FE
:101C1000E186EFF0FF833715010013050585EF60BE
:101C200010751385C1B4EF00903D37150100130501
:101C30000586EF60D07301BC1385C1B4EF00F0429C
:101C400019B49389418903A40900130900063304D8
:101C500089029384819AB71501009385058733859E
:101C60008400EFC02077E300059E93054400A6950D
:101C70000808EFC000740C0805461385C1B4EF00D6
:101C8000304383A50900B305B902A69537150100B5
:101C9000130505A1EF60B06D6FF0FF9A1385C1B415
:101CA000EF00F03D6FF03F9A1384C1B43C20E38C09
:101CB000079813053005EFE07FE6E3060598EFE0AF
:101CC000FFE22322A4266FF01F9803A50188930545
:101CD000A002138401881105EFC0206CAA8415C5E9
:101CE00003A54189930700069305E004B387A70283
:101CF0001385819A3E95EFC0406A93050002EFC0BC
:101D0000C069050508C0A38F04FE0C40014691057B
:101D10001385C1B4EF00D0396FF0FF92238601B470
:101D20006FF07F929387C1B4BC23E38E0790138535
:101D3000C1B4EF00505003A501889305A00293841D
:101D400001881105EFC060652A8915C503A5418981
:101D5000930700069305E004B387A7021385819AD1
:101D60003E95EFC0806393050002EFC00063050558
:101D700088C0A30F09FE8C401385C1B49105EF0004
:101D8000103C6FF05F8C03A501889305A0021384BB
:101D900001881505EFC06060AA8415C503A54189B7
:101DA000930700069305E004B387A7021385819A81
:101DB0003E95EFC0805E93050002EFC0005E050512
:101DC00008C0A38F04FE0C401385C1B49505EF0035
:101DD000F0356FF05F8703A7C19837050100130541
:101DE000456023A0E18CEF6090580C0845B51305C1
:101DF0003005EFE0BFD2E3080584EFE01FCCEFB081
:101E0000507F23AAA1966FF01F84EFF08FF6E31C9A
:101E100005823715010013058587EF60505513843F
:101E200081871C20138701968A07BA978843B714C5
:101E30000100EFC0C0202A86AE8613850488EF60BB
:101E400010533715010013058588EF6050521C2090
:101E5000138701978A07BA978843EFC00005EFC040
:101E6000001E2A86AE8613850488EF605050371511
:101E700001001305C588EF60904F0820EF20302A3D
:101E8000AA853715010013050589EF60504E3715F7
:101E9000010013054589EF60904D7D55EF203028F6
:101EA000AA8537150100130545B5EF60504C37156D
:101EB0000100130585F7EF60904B6FF07F813715B8
:101EC00001001305458BEF60904AA5BE0843EFB0B3
:101ED000D07DE285EFB0C013B247CE978C43EFB010
:101EE000A07AE35105BA75BC9C208A073387F900B4
:101EF000D29788433AC6EFB0507B3247AA85084351
:101F0000EFB0F032EFB0F06E9357F5413D8D1D8D7F
:101F1000A947E3D0A7B8BDB6A383018A6FF0AFF29B
:101F20000547A383E18A6FF00FF213058005EFE008
:101F3000FFBE29CDEF20300B13058005EFE01FBE5B
:101F400019C50546C14537150140EF600009130565
:101F50009005EFE0BFBC19C50546C14537150140E6
:101F6000EF60A0071305A005EFE05FBB19C50546AC
:101F7000C14537150140EF60400613055004EFE0FE
:101F8000FFB9630205EC05466FF05F871305900506
:101F9000EFE0DFB845F11305A005EFE03FB859F9D0
:101FA00013055004EFE09FB751F5EF20D00305462D
:101FB000C14537150140EF604002EF20700D6FF012
:101FC0008FE813053005EFE07FB5EFE01FAFB707EF
:101FD000010083A58762EFB0407CEFB0B06723A219
:101FE000A1886FF04FE6B717010003AC8783B71ADB
:101FF00000200144138B01869384012D938A0A25C6
:10200000B3078B0003850700EFE05FB131CD8D474B
:102010006312F406EFE07FAAE2852A8AEFB0206F10
:1020200063520504C844D285EFB02035AA89AA8539
:1020300003A5418D1389012CEFB0207623AAA18C32
:1020400003A5CA00CE85EFB0407523A6AA000325DC
:10205000C900EFB0F071CE85EFB02074EFB0905FA3
:102060002326A90023A6440105049147E31AF4F8A6
:102070006FF06FDDEFE07FA493172400A69788C36D
:10208000E5B7371501001305C58BEF6010336FF00E
:102090008FDB3715010013058595EF60502D1384F4
:1020A000C11F0840B7140100EFB070792A86AE86D0
:1020B000138544A1EF60B02B371501001305C595BA
:1020C000EF60F02A4840EFB090772A86AE861385FD
:1020D00044A1EF60D0293715010013050596EF6084
:1020E00010290844EFB0B0752A86AE86138544A146
:1020F000EF60F0273715010013054596EF60302794
:102100004844EFB0D0732A8637150100AE86130518
:102110008596EF60D0253715010013050597EF6010
:1021200010250145EF20C074EFB0305883A5012D74
:102130001384012DEFB06024EFB070702A86AE8654
:10214000138544A1EF60B0220545EF206072EFB027
:10215000D0554C40EFB06022EFB0706E2A86371534
:102160000100AE861305C597EF6070200945EF208A
:102170002070EFB090530C44EFB02020EFB0306CE3
:102180002A8637150100AE8613054598EF60301E8C
:102190006FF06FCB01456FF07F9637150100130587
:1021A0000599EF60D01C371501001305C59AEF6043
:1021B000101C3715014093050008130505C0EF30CA
:1021C00020668547631DF506B71501009385858454
:1021D00037140100130544B5EF607019371501007D
:1021E0001305459BEF60B01837150140930500209B
:1021F000130505C0EF30C06285476317F504B715B6
:10220000010093858584130544B5EF60501637159A
:1022100001001305C59BEF6090153715014093052C
:102220000040130505C0EF30A05F85476313F5023A
:10223000B715010093858584130544B5A1BCB71576
:1022400001009385C58369B7B71501009385C583E0
:102250005DBFB71501009385C583F9BF371900200D
:1022600001449384018613090924114AB387840029
:1022700003850700EFE09F8A11C9EFE01F849319DF
:102280002400CA99EFB0103D23A0A9000504E31F64
:1022900044FDEF1050496FF00FBB13053005EFE020
:1022A000FF8709C5EFE07F8123A6A18C13054005B8
:1022B000EFE0DF8619E16FF00FB9EFE01F8023A692
:1022C000A18E6FF04FB813053005EFE03F8509C5CB
:1022D000EFE0AFFE23A0A18E13054005EFE01F84C1
:1022E00009C5EFE08FFD23A4A18E13052004EFE0C4
:1022F000FF8219C5EFE06FFCEFB0D03523A2A18EAD
:1023000013058005EFE09F8109C5EFE00FFB23ACCB
:10231000A18C1305A005EFE07F8009C5EFE0EFF980
:1023200023AEA18C13055004EFE04FFF19E16FF0CD
:102330008FB1EFE08FF823AAA18C6FF0CFB00144EA
:1023400093840186138981B28D49B3878400038504
:102350000700EFE0AFFC19C5EFE02FF6931724005C
:10236000CA9788C30504E31234FF6FF0CFAD13059D
:102370003005EFE0AFFA19E16FF0EFACEFE0EFF30B
:10238000EFB0302723A8A1806FF0EFAB1305000555
:10239000EFE0CFF809C5EFE04FF223A8A1821305C3
:1023A0009004EFE0AFF719C5EFE02FF1EF201071C7
:1023B00023A6A18213054004EFE04FF619C5EFE014
:1023C000CFEFEF20B07323A4A18213053004EFE018
:1023D000EFF409C5EFE06FEE23A2A182EF20605277
:1023E000370501001305C573EF60607837150100EC
:1023F0001305459CEF60A07703A501833714010006
:10240000EFB0F0432A86AE86130544A1EF60207634
:10241000371501001305859CEF60607503A5C18227
:10242000EF20D06BEFB0B0412A86AE86130544A1F1
:10243000EF60E073371501001305C59CEF60207352
:1024400003A58182EF20906DEFB0703F2A86AE86A3
:10245000130544A1EF60A071371501001305059D18
:10246000EF60E07003A54182EFB0703D2A86AE8632
:10247000130544A1EF60A06F37150100130585F720
:102480006FF02FFB13053005EFE04FE993070000D5
:1024900001C5EFE08FE2AA873E85EF1070286FF04C
:1024A0008F9AB717010003A4C7826FF0CFF1EF2016
:1024B00080336FF04F9913054005EFE02FE6B70426
:1024C000010051C1EFE06FDFEFB0D0181375F50FC9
:1024D0001384818708A015C513854460EF602069C7
:1024E00013054005EF50D06D0C2037150100130582
:1024F0000588EF60C067371501001305459D6FF033
:102500004FF313056004EFE06FE101CDEFE0EFDA88
:10251000930500002A84EFB020176354A00023A481
:10252000818013854460EF608064371501001305D6
:10253000859EEF60C0633715010083C5018A1305CE
:1025400085BF6FF02FF513854460EF60406237154B
:1025500001001305C59FEF60806183A54189930742
:10256000000637150100B387B7029385819A1305DA
:1025700005A1BE95EF60A05F37150100130505802A
:102580006FF02FEBEFD25FC8EFE04FB0894A1384B2
:10259000819A930B0006114C83A7C1881389C188C7
:1025A00063C4FA00EFE0EFF281451385C1B4B929A5
:1025B0008327090095C7938441898C401385C1B452
:1025C000B385BB02A2954929EFF0CF848327090088
:1025D000FD172320F9009C408507B3E787039CC0C3
:1025E000EF204043EFE05FEDEF10F01975B7EFD249
:1025F0003FC41385C1B449206FD0DFC5EFD25FC39C
:102600003754004093055052130504C0EF30500773
:1026100039C19387812283A60708035644C083A546
:1026200047081387160042061377F70341826306B3
:10263000B700BE9690A223A0E70883A7C19837559C
:1026400000409387470693055052130505C023A207
:10265000F18CEF30B00637540040930560621305EB
:1026600004C0EF30F00119C593056062130504C082
:10267000EF30D0046FD01FBEEFD29FBB9307C55978
:10268000232AF548B7150100930700102A84232C4C
:10269000F5482310050023010500938545D913054E
:1026A000C549EFB0105185472300F46A83A7C1984C
:1026B0009387077D232EF4686FD0DFB9EFD25FB424
:1026C000130A452341112A845285AE89EF40D07CFC
:1026D00071E54E85EFB0F04E9307C44701493EC403
:1026E000130BE002B71B0100371C0100B38AA900DD
:1026F000B71C0100371D0100930D5448A2455285B7
:10270000EF504000AA843DE183075448A5C3E38706
:1027100067FF8347444813F767006DF30326444976
:102720000307060011E36E860327446A0509420980
:10273000135909011DE3C18B95CF93854CC2568572
:10274000EF602045CE8513058DC2EF604042CE85F7
:102750002285AD3729ED23800A008327446A094783
:102760006398E7028317846AE39A27F92685410173
:102770006FD0DFAC93850B87328532C6EFB09045C2
:1027800069DD3246CE851305CCC3EF60403EF1B71C
:102790000547E395E7F62314246B8DB7AA84AA8531
:1027A00037150100130505C5EF60603CC1B7AA8469
:1027B00075BFEFD2FFA741112E85B28532C6EF401B
:1027C000B06D2A84324601E937150100B285130540
:1027D00085C6EF60C039228541016FD0BFA7EFD217
:1027E0003FA541112E85B28532C6EF40B071324609
:1027F0008307960091E3114541016FD0BFA5EFD249
:102800003FA3117191672A84938707A31306B00F22
:10281000814548003EC0EFD0BFA48A852322046AC8
:102820002285EFF0BFE911616FD0DFA23C218DEF6F
:10283000EFD21FA0930545002A840145EF4050299F
:10284000AA8509C9371501001305C5BDEF602032FF
:102850006FD05FA0371501008145130505C0EF60FB
:10286000003185473CA0EDB78280A300050023011D
:10287000050082803C2199C385471CB182801C31B0
:1028800099C3A30005008280EFD29F9A4111740082
:102890001305852502C6EF40303C19C537150100E8
:1028A0001305C5D3EF60A02C324541016FD09F9A2C
:1028B0003C21A5CFEFD2DF9741112EC61304852509
:1028C0000DCE37150100130505C8EF60402AB2454B
:1028D00005462285EF40D021AA8511C93715010090
:1028E000130505CAEF60A02841016FD0BF963715C8
:1028F000010081451305C5CBF5B737150100130558
:10290000C5CDEF60C026B24529462285EF40501E56
:10291000AA8511C537150100130505D0E1B7371594
:10292000010081451305C5D175BF8280EFD25F904C
:1029300085473CB10146EFF0BFF76FD0BF91EFD2B2
:102940003F8F2E85EF40B06201C9AA85371501007F
:10295000130505BAEF60A0216FD0DF8FEFD25F8D36
:102960003C2195CF2A8437150100130505D7EF6068
:10297000002083250426370501001305056CEF6050
:10298000001F1305F002EF50B023832544263715AE
:102990000100130545B5EF60801D6FD0BF8B371563
:1029A0000100130545D8EF60801CC5BFEFD25F88DA
:1029B0002E852E84EFB0F020AA849305E0042285B2
:1029C000EFB0B01D15ED1385F4FF2295B5471CB18E
:1029D000A9473CA1A301050037050100130545687F
:1029E000EF60E01837150100130585BBEF60201874
:1029F00037150100130585F7EF6060176FD09F85CD
:102A00009305A002EFB070197D15C9B791E983470E
:102A1000056A8DC383A7C1980327C56963ECE700E6
:102A20003C212300056A99E7EFD29F80EFF01FE079
:102A30006FD05F828280EFD2AFFF930485252A8416
:102A40002685EF4070392685EF40D04323000400EF
:102A5000A30104006FD01F80EFD28FFD3704002048
:102A60008347C45605498DC7AE84B71501009385C9
:102A700085D52685EFB010161DE51305C456A6852D
:102A8000EFF0DFF21304C4563C3091C7EFE09FB87B
:102A90004A856FD02FFC370501001305C573EF6021
:102AA000000D0149F5B71305C456EFF0DFF83715EF
:102AB00001001305C5D5EF60800BD9BFEFD24FF7EA
:102AC00009472322E56A2314B56AB285EFF01FBFD8
:102AD0006FD04FF8EFD2CFF585472322F56A2A84CD
:102AE000EFF0DFBD8315846A37150100130545B586
:102AF000EF60E0070355846A6FD0CFF5EFD24FF354
:102B00009305F0021305C549EFB0300913351500E0
:102B10006FD04FF4EFD2CFF11305C549EFB0700974
:102B20006FD04FF3AA87038507006305B50001CD79
:102B30008507D5BF2E8581C92380070085070387B8
:102B400007007DFB05458280EFD28FEE9305F002F2
:102B50001305C549EFF01FFD6FD0CFEFEFD24FED5A
:102B60002E849307C549B71501003E859385C5C7D7
:102B7000EFB0D000A285EFB070006FD0AFEDEFD214
:102B80002FEB2A84EF103046EF10505413058425A4
:102B9000EF40502FA3000400EF10904F37150100B5
:102BA000130505BDEFD09FCB6FD0CFEAEFD24FE535
:102BB000939A2600330B5601397183240B00BA898E
:102BC000330755012E893E8C0C43834701082A8A1E
:102BD000268542CAC68C3ED032C2EFA06043124660
:102BE0008A0933073A01B307360180430C432AC4EC
:102BF00022853EC20A0CEFA0A041B3078901B30BA6
:102C00008A0183A50B002AC68843EFA05062832760
:102C1000C900A2452AC83ED48327CA003ECCB707C4
:102C20000080BD8C3D8CB30759018843EFA0306014
:102C3000B30739012A8DB2458843EFA0505FAA8DB2
:102C4000EA852685EFA07035EE852AD62285EFA08D
:102C5000D034B257AA853E85EFA0803BEE852AD6B8
:102C60002685EFA09033EA85AA8D2285EFA0F03269
:102C7000AA856E85EFA0B05BB257BE85EF60E050CD
:102C8000930500002A8DEFA09028635005026A8505
:102C9000EFB0E03AB717010003A687D983A6C7D9DA
:102CA000EF80E054EFB060442A8D825799CF6A8557
:102CB000EFB0E038B717010003A687D983A6C7D9BC
:102CC000EF90F002EFB060422A8DC24713951700D3
:102CD0000581EFB0C0362AD02ED26A85E685EFA0F6
:102CE000D02BEFB0C03502569256EF60C031EFB036
:102CF000C03FAA8DEFB0A034B717010003A607DAD2
:102D000083A647DAEF90C0276346051C6E85EF6007
:102D1000601AEFB02014931D050193DD0D0163933C
:102D20000D00854D6E85EFB04018AA8CAA856A8586
:102D3000EFA0A0642A8D4245E685EFA00064E2453D
:102D40002AC82255EFA0B04EE685EFA000632AD432
:102D50006A85EFB0C02EB716010003A686DA83A6F7
:102D6000C6DA2ACC2ECEEF90002D6247F2473A8683
:102D7000BE86EF90402CB71701002A86AE8603A5C9
:102D800007DB83A547DBEF908076EFB0003603A723
:102D90000B009C00E29723A8E7FE0327CA00AA8C39
:102DA000054A3ADE980056973ACC98004E97814BE8
:102DB0003AD03E8C93170A01C18363F3B711E14700
:102DC00063CC7709EA852685EFA0301DAA89E685C0
:102DD0002285EFA0901CAA854E85EFA06023AA89CA
:102DE000E6852685EFA0701BAA84EA852285EFA0E0
:102DF000D01AAA852685EFA0904313881B00931B49
:102E00008801AA8493DB8B414E84A2452685050A5E
:102E1000EFA00020E247B24523A8A7FE2285EFA03D
:102E2000201F8257C24523A8A7FE03250CFFEFA051
:102E3000201E2328ACFEA2557255EFA0601D2ADE8D
:102E40000818EFE0AFC352475C01741830184C18F3
:102E50000818EF00E059B9BF5285EFB00005EA85C8
:102E6000EFA0B0132A84EF50B07CAA892285EF60CE
:102E7000201183270B0037070080AA8AB3CBE70015
:102E80009247CE855E858043EFA03011AA84D68517
:102E90002285EFA09010AA852685EFA06017D68521
:102EA000AA845E85EFA0700FAA8ACE852285EFA046
:102EB000D00EAA855685EFA090372A84814BB1B7F2
:102EC00052475C019306C900130689009305490027
:102ED0004A85392B21616FD06FB6EFD26FB22A8449
:102EE000485D4111AE8B328BEFB080082A892840B3
:102EF00083298404EFB0C0072A8C4E85EFA0F07AB6
:102F000093050000AA8CEFA060726300051ECA85BD
:102F10004A85EFA09008AA84E2856285EFA0F007B9
:102F2000AA852685EFA0B030EFB060112A8A6685A9
:102F3000AE8AEFB0C0102A86AE86EF80402B2A867C
:102F4000AE865285D685EF80901DEFB0001AEF5007
:102F5000F060EFA0106AAA846840EFB06001AA8A0E
:102F600033053041EFA0707493050000AA89EFA0EB
:102F7000E06B630F0516D6855685EFA010022A8AEE
:102F8000CA854A85EFA07001AA855285EFA0302A34
:102F9000EFB0E00A2A8D4E85AE8DEFB0400A2A864A
:102FA000AE86EF80C0242A86AE866A85EE85EF80E5
:102FB0001017EFB08013EF50F06F032A0401EFA059
:102FC0005063B3099A403385A940635F050A9305AE
:102FD00000006685EFA08065630F05106685EFB081
:102FE00000062A86AE862A8DAE8DEF8040202AC448
:102FF00052852EC6EFA0D077EFB060042247B247CB
:103000002A86AE863A85BE85EF90E0022AC42EC697
:103010006285E285EFA06078EFB060022247B24798
:103020002A86AE863A85BE85EF90604C2A8CAE8C9F
:103030005685D685EFA06076EFB060002A86AE8612
:103040006285E685EF80A01AB717010003A687E125
:1030500083A6C7E12A8CAE8C6A85EE85EF80B07DB1
:103060002A86AE866285E685EF80700BEFB0E007BA
:10307000EF50D04EEFA0F057AA846353050081446F
:10308000014563E34401D2849967739007808347C5
:103090000405E207E187B1E344C8AA94DE8504CCC5
:1030A0004A85EFA0806FEF50704BEFA0B05A9307A6
:1030B00080076374F50013058007DA8528C04A8508
:1030C000EFA0A06DEF509049EFA0D0589307800774
:1030D0006374F5001305800768C0996793878708B4
:1030E0007390078041016FD06F951305000085B57F
:1030F00013050000C9B5130500009DBFEFD24F9323
:103100004111AA842E8532C6EFA020692A84A685A3
:103110002685EF90F06F3246B285EFA00068AA8551
:103120002285EFA0D010EF60600641016FD08F9232
:10313000ADC925CAEFD22F8E2E8403A9C50208542B
:10314000B284CA85EFA0804E21C183479403B9E7BA
:1031500003AA84024A85D285EFA000536350A004DD
:1031600048581058B7090080D28533453501EFF033
:10317000FFF8AA854A85EFA0805963590500485495
:1031800008D48547230CF4026FD02F8C4858105870
:103190008C5433453501EFF07FF6DDB7232424034B
:1031A000CDB78280EFD22F879387018D982319673F
:1031B0007310078003C9118D130787081379F90F5E
:1031C00073100780982333072741318B0DCF80235D
:1031D000014675143D888149138A012E930A4005E2
:1031E000630324036204618411E041447D14137479
:1031F000F40FB3045403CE85D2942685EFF05FF329
:103200004E86A689F1BF6FD04F8435C5834795039D
:10321000BDE3EFD24F80032A850283A98502AE84E5
:103220002A84CE855285EFA0804E635B0502485804
:10323000105837090080D28533452501EFF01FEC87
:10324000AA854E85EFA0A04C635E0500805488548B
:10325000A285EFA0A03D09C5854780D4238CF40248
:103260006FC0BFFE485810580C5433452501EFF08D
:10327000FFE82A84E9BF8280EFC2FFF903C4118D01
:1032800081441374F40F01459389012E930A40057C
:10329000414B9387018D9C236304F402330954034B
:1032A00005046204A68561844E994A86EFF0FFF515
:1032B00063136401014426851374F40FCA84D1BFDB
:1032C0000146A685EFF07FF46FC03FF8EFC2DFF351
:1032D00083C4118D4111E204E18401449389012EDC
:1032E000130A4005C14B9387018D9C236389F40425
:1032F000338944034E9905CC8347840381E7834790
:10330000890395C7B3874403832A4402D685CE97A1
:103310008857EFA080062AC60854D685EFA0E0059E
:103320003246AA852285EFF05FBB230C0402850498
:10333000E204E1846393740181444A846DB70DCC47
:1033400044502685EFA0B04FB71701002A86AE86FD
:1033500003A507E283A547E2EF80605CEFA0F05889
:103360002AC60854A685EFA040013246AA852285C8
:10337000EFF0BFB6230C040241016FC07FECEFC237
:103380003FEBEFF03FE2EFF03FEFEFF03FF46FC0C5
:103390007FEC2388018CA388018CB71700209387CA
:1033A000072623A0070023A2070023A4070023A6C3
:1033B00007009387012B1307000098C3D8C398C751
:1033C000D8C723A4E18C82809386118D1387018D49
:1033D0008C2210231376F60F630BB6009C2293F712
:1033E000F70F14236385D7008507BD8BDDBF82806F
:1033F000EFC21FE1BA8C3E8B9387018D9C235971DC
:103400001387018D8507E207E1873EC63ACA324736
:10341000C147AE8BB28936896313F70002C6938722
:10342000118D9C233247631BF7002AC8EF40907828
:10343000EF10405EEFE04F884245D5B79384012DF1
:103440008C40084137040100138A012DEFA0E034BD
:103450008325C462EF90D03BEF50D025EFA07019C8
:10346000CC40AA8A03A50B00EFA020338325C462B9
:10347000EF90103AEF501024EFA0B0178C44AA8BB5
:1034800003A50900EFA060318325C462EF90503896
:10349000EF505022EFA0F015CC442A8C03250900F0
:1034A000EFA0A02F8325C462EF909036EF509020BC
:1034B000EFA03014B717002013870726584722C8FB
:1034C0003ED42A89938907266304E50A83C7018AC3
:1034D000138701968A07BA978C4303A58181EFA0D1
:1034E000A01A6356A002370501001305456023A604
:1034F0002901EF50C06737150100130585DDEF5036
:10350000006737150100130585F7EF50406683A764
:10351000C900B307F94013D5F741A98F3385A740F8
:10352000EFA0B018B717010083A547802A840325B0
:10353000CA00EFA08026AA85EF90902DAA8522854B
:10354000EFA080146356A002370501001305456003
:1035500023A62901EF50A06137150100130545DFAF
:10356000EF50E06037150100130585F7EF5020603C
:10357000D24713074005802383A509009387012EB6
:103580001374F40F3307E4029384012EBA9723884F
:1035900007042380070263D5BA0005472380E702AA
:1035A00003A5490063DDAB00130740053307E402C0
:1035B00026978347070293E727002300F70283A695
:1035C0008900635DDC00130740053307E40226979A
:1035D0008347070293E747002300F70203A7C900C8
:1035E000635DE900130640053306C402269683474F
:1035F000060293E787002300F602B387BA4013D68A
:10360000F7413348F6003308C8403386AB40935740
:10361000F6413D8EB306DC401D8E93D7F641BD8E3C
:103620003307E9409D8E9357F7413D8F1D8F83A748
:10363000C18093084005B30814033307F7029307CA
:103640004006A69823A0080123A2C80023A4D800FE
:10365000B347F702368723A6F80063D3F6003E8708
:103660006347C7786346070163D5D700B68711A0C3
:10367000C287130740053307E402954626971CCB03
:1036800063FBF65C83A7818A7CC783470B00A3009A
:10369000F7026388BA000146C14537150140EF4083
:1036A000D01393074005B307F402A697DC4399C7EC
:1036B0000146C14537150140EF40301293074005E0
:1036C000B307F402A6979C4799C70146C145371531
:1036D0000140EF409010130B4005330B6403269B11
:1036E0008327CB00639C075603AB818EE6855A8502
:1036F000EF9090796343A000668B03A509003385A2
:10370000AA40EFA0807A83250A00EF901047AAC84C
:103710002AD003A549003385AB40EFA0007983256B
:103720004A00EF909045AACA2A8D03A58900330567
:10373000AC40EFA0807783258A00EF901044AACC9C
:10374000AA8C03A5C9003305A940EFA00076832504
:10375000CA00EF909042AA8903A5C180EFA0E0744F
:10376000AA854E85EFA06003B717010083A54780A7
:10377000EF90B04093074005B307F402AACE154777
:103780008256A69790436368C74ED0436365C74E81
:1037900090476362C74E0605058188DB93074005A5
:1037A000B307F402370A010003254A64A69783ACE5
:1037B0000703E685EF90703CDA85EF90107ED247E4
:1037C0001387118D9C23182352D0AA89998F93F7C0
:1037D000F70F13FBF7003ECC1307EBFF954763ECA5
:1037E000E706EFA0D005B71701002A86AE8603A52D
:1037F00007DC83A547DCEF808012B717010003A622
:1038000087DA83A6C7DAEF70901EEF50A03FEF90E3
:10381000204C2A8A03A5418E637FAA0233054541C5
:10382000060533556503EFA0A074C24783A5C762A0
:10383000EF90007EEF5000682AD25285EFA04073CF
:103840009255EF90E07CB7170100AA8503A587DBAE
:10385000EF90B032AA89130A4005330A4403CE859B
:103860006685EF909073AA8D014D269A2322AA02B5
:1038700003250A01EFA0C06FCE852A8BEF90F0716F
:10388000EF50C04DEFA0005D825737070080232E18
:10389000AA0203AA47649347F7FF371700203ED6D2
:1038A000930707252AD23ED89C083387A7010C43EB
:1038B0004E85EF90906E9C103387A701B25708C3D6
:1038C0003377F500C257BA853ADEB386A701944232
:1038D000368536DCEF90B06363500502E2567257CE
:1038E0003685BA85EF907029D2852ADCEF90D059C1
:1038F0006344A00062573A8A110DC147E316FDFAEE
:103900008257528583A54764EF9070606354050425
:103910009309010603A50900D2859109EF90F0678C
:1039200023AEA9FE9C18E39737FF93094005B3091E
:103930003403D2856E85EF905066A69923A2A90222
:103940001255EFA0E062D285EF903065EFA0805075
:1039500023AEA902130A4005330A4403E6855A85BB
:10396000EF90B021AA89269A832D0A0063930D3423
:1039700083274A00639F073283278A00639B0732AD
:1039800083A5C18EEF907061EF50403DEFA0804C59
:103990002324AA04130A4005330A4403269A032564
:1039A0008A04EFA0E05CCE852A8BEF90101D232ABD
:1039B000AA025A85EFA0A068B717010003A687DC0A
:1039C00083A6C7DCEF802067EF90002AC247232E32
:1039D000AA0003A5818D83A5C762138D818DEF9009
:1039E000D05BC2472A8A03A5C18D83A5C762A65CA6
:1039F000EF90B05A93951C008581AA89EF903051C1
:103A00009387C18D3ED263590500D2854E85EF90D4
:103A1000B0476343A0004E8AC24703A5418D83A5EA
:103A2000C762365BEF90705793151B008581AA899A
:103A3000EF90F04D9387418D3ED663590500D285B6
:103A40004E85EF9070446343A0004E8A9307400573
:103A5000B307F402D285A69783A947024E85EF905B
:103A6000B0426343A0004E8AE2471387818CB98B32
:103A70003AC8D289638C0712832907004E85EFA0CC
:103A8000005CB717010003A607DD83A647DDEF80C2
:103A90004044635CA0349387012B8C430655EF9020
:103AA0001079EFA0C0599387012B2AD82EDA16552A
:103AB000CC43EF90D077EFA080582A86AE86EF8077
:103AC00080574258D2582ACC4286C68642852ECE8E
:103AD000C685EF804056F24762472A86AE863A8511
:103AE000BE85EF70C070EF50C05EEFA0006093071E
:103AF0004005B307F402032D0D00AA852AD86A8574
:103B0000A697DC533ECCEF909040635C052C425767
:103B10006A85BA85EF9070062A8D9387012B8C47B2
:103B20006685EF90D0709257931C150093DC1C00B3
:103B30009C43E6853E853ED0EF90703D635E050078
:103B40008257E6853E85EF905003EA85AA8CEF9078
:103B5000B0336343A000668D9387012BCC475A8511
:103B6000EF90F06CB257131B1500135B1B0083AC76
:103B70000700DA856685EF909039635D0500DA8588
:103B80006685EF90807FEA852A8BEF90F02F634364
:103B9000A0005A8DE2456A85EF9030402A8BAA85B5
:103BA0004E85EF90D03663430500DA8993074005D0
:103BB000B307F402A697C85B23A63703905BB71739
:103BC000010083A5C7DBB70700803D8DEFF00FD361
:103BD000CE852A8BEF90502B6343A000DA899307A0
:103BE00040053304F4025A85A294C05023A4340340
:103BF000A285EF9070291345F5FF85477D814146E9
:103C0000A38CA402238CF4028C101385012BEFA04B
:103C1000C06BC247A285528580C3EF9000762AC848
:103C2000A2854E85EF9060754246AA852685EFF005
:103C3000CFAA52471C8641468C001CA3A257D6C06F
:103C4000DEC213850726E2C4CAC6EFA00068EFF003
:103C50000FF3EF00004465616FC04FDE0146C145C0
:103C600037150140EF4060378327CB00E38E07A66E
:103C700003AB018EA5BCB6853685EF901032AA89BC
:103C8000EA856A85EF907031AA854E85EF904038BD
:103C9000AA89E6856685EF905030AA854E85EF901B
:103CA0002037EF50A04E93074005B307F402A697C4
:103CB000EDB4930C4005B30C940383A5C18C4E85E1
:103CC000EF90B02DEF508009EFA0C01803AA012C8F
:103CD000138D012CA69C23A4AC04EFA060292AD24A
:103CE0006E85EFA0801C9257AA853E85EF90F02A42
:103CF000DA85EF908068AA8D5285EFA06027AA85AB
:103D00006E85EF9070186354A00023A44C05930CAB
:103D10004005B30C9403032A4D00A69C03A58C0414
:103D2000EFA00025AA8D03A54C00EFA00018AA85DE
:103D30006E85EF909026DA85EF902064AA8D5285EB
:103D4000EFA00023AA856E85EF9010146354A000A5
:103D500023A44C05930C4005B30C9403032ACD0017
:103D6000A69C03A58C04EFA0A020AA8D03A5CC00DF
:103D7000EFA0A013AA856E85EF903022DA85EF9030
:103D8000C05FAA8D5285EFA0A01EAA856E85EF9018
:103D9000B00F6354A00023A44C05930C4005B30C52
:103DA0009403032A8D00A69C03A58C04EFA0401C5D
:103DB0002A8D03A58C00EFA0400FAA856A85EF909D
:103DC000D01DDA85EF90605B2A8B5285EFA0401AF8
:103DD000AA855A85EF90500BE35EA0BA23A44C0548
:103DE00055BE825703AD47640DBBD289C1B3E341D1
:103DF0000689B2876FF0FF87EFC2EFC19384012D70
:103E000008412E8A8C40411136C432C63709010060
:103E1000EF90B0188325C962B719002013840926D2
:103E2000EF90001FEF500009EF90B07CCC4008C02D
:103E300003250A00EF9070168325C962EF90401D9C
:103E4000EF504007EF90F07A32468C4448C0084269
:103E5000EF90B0148325C962EF90801BEF5080056E
:103E6000EF903079A246CC4408C48842EF90F0121B
:103E70008325C962EF90C019EF50C003EF907077AF
:103E800048C49306C40013068400930544001385B8
:103E90000926EF00F0171307000023A4E18C938795
:103EA000012B98C3D8C398C7D8C741016FC0EFB9D9
:103EB000EFC20FB883A5812D0841371400201304E9
:103EC0000426EF90900DB707010083A5C762EF901D
:103ED0002014EF40307EEF90D07108C413058400A9
:103EE000EF0090156FC00FB7EFC28FB483A5C12D3F
:103EF00008413714002013040426EF90100AB70776
:103F0000010083A5C762EF90A010EF40B07AEF9058
:103F1000506E48C41305C400EF00D0136FC08FB3B8
:103F200023ACA1808280EFC20FAF3719002001447B
:103F30009389012C130909249384012D414AB30765
:103F400089008843B38A8900EFA08002B387840088
:103F50008C431104EF907004EF90D06F23A0AA005F
:103F6000E31F44FD6FC06FAE83C6018D83C7118D03
:103F700093F7F70F6388D70083C7118D8507BD8B33
:103F8000A388F18C8280EFC2AFAA9387618F9C23B4
:103F900093F7F70F1389618F9384718F1384818F47
:103FA00091EB9C2093F7F70F91E71C2093F7F70F05
:103FB0006385070C3705010013054560EF40303B72
:103FC000371501001305C5E3EF40703A8347090038
:103FD00093F7F70F8DC7B717002003A50728EF90B9
:103FE000D06C83A5012DEF904039EFA040052A86C3
:103FF00037150100AE861305C5E4EF4050379C200D
:1040000093F7F70F95C7B717002093870728C84382
:10401000EF90B06983A5412DEF902036EFA02002EC
:104020002A8637150100AE86130545E5EF4030348A
:104030001C2093F7F70F95C7B71700209387072821
:104040008847EF90906683A5812DEF900033EF9025
:10405000107F2A8637150100AE861305C5E5EF40AF
:10406000103137150100130585F7EF40503023005C
:10407000090023800400230004006FC0AF9D238B40
:10408000018EA38B018E238C018E8280238EA180D2
:104090008280EFC2EF99854537050040EF1050460A
:1040A0006FC04F9B2967130707C49387018F636D08
:1040B000A7041567130707E2AA856379A704898116
:1040C000114737450F00130505243345B50298A362
:1040D000930730064205418163E5A704EFC24F957F
:1040E000371501004111130585E22EC6EF40302837
:1040F000B24537150100130545B5EF4050271305AC
:10410000400641016FC00F95BA8555BF0967130777
:1041100007716376A7009355150009475DB70547FA
:104120004DB78280797185453705004022D626D467
:104130004AD24ED052CE56CC5ACA5EC862C666C467
:104140006AC26EC0EF10703F6303054485453705B2
:104150000040EF10104083A741921384419299EFE1
:1041600083C6018D83C7118D93F7F70F6398D72E00
:104170009305007D37050040EF10303B1C406388FD
:10418000074083C707022388F190858B1389C1906C
:104190009389019193840182638C073205469305CC
:1041A000000237150140EF305063FD579CA083C7D4
:1041B000C181A1CB3715014093050008130505C047
:1041C000EF10006683C6C185938741903387A64070
:1041D0003337E0006386A60294239DC214409042C8
:1041E0006350C0023716002083250627944A3716ED
:1041F00000202320B6288545238BB18E2320D900AB
:1042000098A383C70900898B638E072C371A014056
:1042100005469305000413050A80EF30105CFD5736
:104220009CB083C7C181A1CB9305002013050AC0B0
:10423000EF10005F83C6D185938751903387A640E6
:104240003337E0006388A60294238DC610405442A1
:104250006352D002B716002093860627CC42B716C9
:10426000002093860628CCC28545A38BB18E144AC4
:104270002320D90098A383C70900918B6380072866
:10428000371A01400146916513050A80EF30F0545A
:10429000FD57BCA083C7C181A1CB93050040130586
:1042A0000AC0EF10E05783C6E1859387619033879A
:1042B000A6403337E0006388A60294238DC61040E1
:1042C00014466352D002B7160020938606278C4608
:1042D000B7160020938606288CC68545238CB18EA0
:1042E000144A2320D90098A383C70900A18B6382B5
:1042F0000722371501400546854513050580EF3037
:10430000D04DFD57B7190140BCB0014A938B09C08D
:10431000B71A00208387018F18406356FA209387CD
:10432000819194431843369798C3635BE002054636
:1043300091455E85EF30704A144093878191984390
:10434000944A01469145158F98C39C2013870A27EC
:104350001443E207E187B6975E851CC3EF30F04750
:1043600018409387C19194435843369798C3635F2D
:10437000E00205469305000813850980EF30F045FB
:1043800014409387C1919843944A014693050008CD
:10439000158F98C39C3013870A275443E207E1879F
:1043A000B697138509805CC3EF303043184093877C
:1043B000019294431847369798C3635DE00205461F
:1043C000C14513850980EF30504114409387019215
:1043D0009843944A0146C145158F98C3BC20138762
:1043E0000A271447E207E187B697138509801CC79F
:1043F000EF30B03E18409387419194435847369729
:1044000098C3635DE0020546894513850980EF3056
:10441000D03C1440938741919843944A0146894582
:10442000158F98C3BC3013870A275447E207E187EA
:10443000B697138509805CC7EF30303A83270900AF
:10444000184085072320F90083270900184B63FCD7
:10445000E70C050A620A135A8A416DBD03C7118D24
:1044600093074005B387E70237170020130707D0EB
:10447000BA97CA3F05472388E7042388E7041CC08E
:1044800023A00190EFF01FC22399A18E0387018F13
:104490002394E1901C4003D50704239AA18EEFF0EA
:1044A0007FC023AEA18EAA8537050040EF10F0072C
:1044B0001C409C4B8583B307F04023ACF19023AEA6
:1044C000F19023A0F19223AAF19023A601907DB14F
:1044D00001469305000237150140EF301030854743
:1044E0009CA005B337150140014693050004130550
:1044F0000580EF30902E85479CB0B5BB3715014045
:104500000546916513050580EF30302D8547BCA029
:10451000E1BB371501400146854513050580EF30A5
:10452000D02B8547C5B3184083270900544B63EF50
:10453000F606504F83A6C18F9384C18FB387C602FE
:10454000B396C602E183505FA206D58F3443B69777
:10455000C207C183239AF18E1387418F6373F600DC
:1045600012A30A23EFF01FB4AA89AA8537050040D9
:10457000EF10A07B88404E9588C018408327090023
:10458000184B63E6E70023200400EFF0FF9D325450
:10459000A25412598259724AE24A524BC24B324CCF
:1045A000A24C124D824D45617300203083270900D3
:1045B000144F63F2F604544F83A701907843938419
:1045C00001903385D702B397D7026181A2075D8D31
:1045D0009317050103D5418FC183637BF500131544
:1045E00007014181E370E5F81315070141819DBF83
:1045F0001D8D4205FDB783D5218F37050040EF1093
:10460000C07283D781901387018F1CA3BDB7EFB20F
:104610003FC201112A8485450545EF108047930765
:1046200030024C08370500403ECAE084231D0100DB
:10463000EF1060620546854537050040EF10C06DFC
:104640009307C0127C8685475C87680085473EC813
:10465000EF10601F05616FB0FFBFEFB27FBD930524
:1046600000023715014037140140EF30501A13058E
:10467000048093050004EF309019130504809165C0
:10468000EF30F018130504808545EF305018C14510
:1046900037150140EF30B0170546C14537150140C9
:1046A000EF30B013C14537150140EF3050160546C5
:1046B000C14537150140EF305012C1453715014053
:1046C000EF30F0140546C14537150140EF30F010CA
:1046D000C14537150140EF3090130546C1453715E8
:1046E0000140EF30900F130504C093050008EF3030
:1046F00090140546130504C093050008EF30F00D33
:10470000130504C093050020EF30F0120546130591
:1047100004C093050020EF30500C130504C093052E
:104720000040EF3050110546130504C093050040CA
:10473000EF30B00A130504C09145EF30500D13055A
:1047400004C001469145EF3050090546C145371573
:104750000140EF3090081305048093050008EF3006
:10476000100B13050480014693050008EF30F00696
:104770000546C14537150140EF303006130504806A
:10478000C145EF30D008130504800146C145EF3024
:10479000D0040546C14537150140EF30100413051C
:1047A00004808945EF30B006130504800146894531
:1047B000EF30B0020546C14537150140EF30F0013A
:1047C00013054006EFF0BFE4854537050040EF10C4
:1047D00020530547238EE18099679387870873905C
:1047E00007806FB03FA7EFB2BFA403C7018D83C797
:1047F000118D93F7F70F6395E70083A7419299C74F
:10480000EF30503B012CEFC03FCBC5B76FB09FA43A
:104810001967731007800841B7170020938707278F
:1048200088C38C4113078708CCC3104290C79442B9
:10483000D4C77310078082809967739007801441F2
:10484000371700201307072714C79387870873902B
:104850000780828099677390078014413717002082
:104860001307072754C793878708739007808280B0
:1048700099677390078013172500371500201305DB
:1048800005273A95084193878708739007808280AF
:10489000EFB21F9AEFF03FF50546C14537150140CD
:1048A000EF30A0730546C14537150140EF30E07287
:1048B0000546C14537150140EF3020720546C14518
:1048C00037150140EF3060716FB0DF98EFB25F963F
:1048D000814537050040EF10A04203C7018D83C713
:1048E000118D93F7F70F639BE7008545370500406F
:1048F00023A20192EF10C0406FB0DF95EFF0CFE63A
:10490000E9BFEFB2FF9283A5C182B717010003A5EB
:104910000712EF80902623ACA1926FB0BF9363552E
:10492000050003C54193828093870195AA97882348
:104930008280EFB25F8E41112A849DC53705010048
:10494000130545682EC6EF408022B2453715010099
:10495000130585BFEF40A02137150100130585EA37
:10496000EF40E020EFC0DFAE456793064712854772
:10497000130747127D4683994600635E340593868C
:10498000F7FF8A068A07BA96BA978394260003959A
:10499000270003990600058DEF9020512A8A3305E0
:1049A0002441EF908050AA855285EF80105F2A84C1
:1049B00033852941EF90604FAA852285EF80F01B57
:1049C0002A842685EF90604EAA852285EF80406478
:1049D00041016FB09F8785079106E39EC7F81305D5
:1049E0000000FDB7EFB2DF8403A5C1968145EFF06B
:1049F0005FF423A0A1961307000023A2E196996714
:104A000073900780238001949387870873900780B1
:104A10006FB05F8483C7019493F7F70F638C071A15
:104A2000EFB28FFEEFF01FFC83A4019603A901975C
:104A3000138441954A85EF904047A685EF80307FEB
:104A4000B717010083A54783AA89EF80F04363521B
:104A5000A00685471CA0B717010003A4071203A5F1
:104A6000C19413890195EF904044A685EF80304AA8
:104A70006359051403A58183EF902043A685EF8039
:104A8000B0406350A0142285EF90A0360585230026
:104A9000A90093874194984383A6C198998E05678E
:104AA000130777BB6375D70003A7C19898C36FB08E
:104AB0002FF9B717010083A587044E85EF80304595
:104AC000634405006317090085471CA01304000018
:104AD00079B71C201389C19299C79307000023203E
:104AE000F9002300040083A501834E85EF80F04A7E
:104AF000832509002A8A4E85EF80805103A4C19343
:104B0000AA89A285EF80B040634B050003A481937E
:104B10004E85A285EF8050376343A0004E8483A565
:104B2000C182232089002285EF803047138481923F
:104B30000C40AA8A2685EF80906F83A58182138915
:104B40008194EF809045EF90804FB717010003A646
:104B5000070583A64705EF70004E2A8B0325090041
:104B6000AE8BEF90C04DB717010003A6870583A653
:104B7000C705EF70404C2A86AE865A85DE85EF6009
:104B80000067EF908056AA892320A90004C0D6852B
:104B90005285EF80E047CE85EF8070699305000075
:104BA0002A84EF80D036E34305F2B717010003A94A
:104BB00007122285CA85EF80302DE352A0EA4A848D
:104BC00079BD371501001305050623000900EF30F4
:104BD000107AC1B58280EFB2AFE51307000023AEB3
:104BE000E19283A5C182B717010003A50712EF80E8
:104BF000C07823ACA192914537150140EF30204198
:104C00000146894537150140EF30C03DEF30E04C9B
:104C1000595723A6E194B717010003A98704138409
:104C2000418308408145EFF0DFD0CA85EF80302E08
:104C3000635605001C40C1171CC0D5B71307A00F51
:104C400023ACE182B717010003A9C71113840193B4
:104C500008408145EFF0FFCDCA85EF80F022635612
:104C6000A0001C40C1071CC0D5B72D45EF30A028BF
:104C70006FB04FDE8280EFB2AFDB23A8019623AA8C
:104C80000196014691453715014023880194EF3084
:104C9000C0346FB02FDCEFB2AFD6397183AAC198A0
:104CA00032CA854763DBB70037150100130505EEEF
:104CB000EF30F06B21616FB06FD8AA8C371501000F
:104CC0001305C5F0AE84EF30906AEFF0DFFA63D9D8
:104CD0000414130700F8238AE192130C0008B71795
:104CE000010083AB87ECB717010003A8C7E183A7D6
:104CF00087E1130B000042CE3ECCB717010003A89A
:104D000047ED83A707ED628442D23ED0B71701007A
:104D100003A8C7DA83A787DA628A42D63ED4B717D8
:104D2000010003A8C7ED83A787ED56C456C802C685
:104D3000054D02C2DA893ED842DA83CD019493FD53
:104D4000FD0F63800D28EFF0FFC963C4040E939735
:104D5000240013870196BA9783A90700CE855A8548
:104D6000EF8090126343A0004E8BCE855E85EF806E
:104D7000101A63430500CE8B63010D04E6854E8552
:104D8000EF809010635FA022A24703A7C1981D8FF8
:104D900085679387873863F6E722B3078A4085875C
:104DA00093F7F70F63DA0408238AF19283AAC19874
:104DB000A247668BB387FA403EC6E6854E85EF80F4
:104DC0001015014D635F051E03A7C1988567938782
:104DD000873833075741014D63F5E71E83A7C19814
:104DE0003EC492476351F01CA2473247B3875741F4
:104DF000338DE700B307F74033848702CD47334450
:104E0000A403529463D0871E63DA04289307C00E6C
:104E100063C987029307F00F228A63488C020DA8AA
:104E200093870195A6971307F00798A3130CF00733
:104E30007DB583A941961DB71387019526971CA3BD
:104E4000B5B71304C00E9307F00F228A338487404E
:104E500037150100D285130505F2EF305051371593
:104E60000100A285130505F3EF3070505E85EF90C9
:104E7000001D2A8637150100AE861305C5F3EF30F5
:104E8000104F5A85EF90A01B2A8637150100AE8679
:104E9000130585F4EF30B04D1247894763D5E7100D
:104EA0006A85EF908000B707010083A58762EF80D5
:104EB000C04C2A8D2285EF7070676246F246EF7013
:104EC00080172ADC2EDE5A85DE85EF805036EF9083
:104ED000001702569256EF7000162256B256EF7027
:104EE00080156257F2572A86AE863A85BE85EF60F6
:104EF0001023EF90801FEF9080142A862ADC37154C
:104F00000100AE86130545F52EDEEF3050466A856A
:104F1000EF90E0122A8637150100AE86130505F6DC
:104F2000EF30F0446257F2574256D2563A85BE856A
:104F3000EF706010EF90601BAA8B3715010013050E
:104F4000C5F6EF30D0425E85EF90600F2A863715A8
:104F50000100AE861305C5F7EF307041DE855E8532
:104F6000EF80000BEA85EF804041EF90400D2A86EC
:104F700037150100AE86130585F8EF30503FDE850A
:104F80006A85EF809001B717010083A5C7ECEF8019
:104F9000D000EF90C00A2A8637150100AE861305AF
:104FA00045F9EF30D03CB3078A00858793F7F70FB8
:104FB00063DD0402238AF1929247E68B6E8D8507AA
:104FC0003EC2B717010083A587836685EF80400442
:104FD000CE85EF80C073635F0500371501001305B0
:104FE00005FAF9B1514A5144A5B5138701952697A1
:104FF0001CA3D9B7424783A7C198998F1307007D97
:105000006377F70463D9040683CD41933715010014
:105010001305C5FCEF30B0354E85EF9040022A866F
:1050200037150100AE86130545A1EF305034371512
:1050300001001305C588EF30903337150100EE8568
:10504000130545B5EF30B03283A7C1983EC883A79A
:10505000C19803A7C198BA972247B3875741998F40
:1050600037571200130707F86371F702371501006D
:10507000130545FD35B993870195A69737150100AE
:1050800083CD07001305858771B792475247E356D2
:10509000F7CA37150100130545FF19B99307B00E7C
:1050A00063D787001304B00E9307E00F79BB930713
:1050B000E00F9DB3EFB2CF972A84EFF0DFBBEFC0D4
:1050C000EFCA05E53705010013054568EF30302AC2
:1050D00037150100A285130585BFEF30502937151C
:1050E00001001305C507EF309028EFC0AFC46FB0C3
:1050F0006F96EFB2EF932A84EFF0FFB7EFC00FC7C0
:1051000005E53705010013054568EF3050263715D2
:105110000100A285130585BFEF307025371501000A
:105120001305C50AEF30B024EFC0CFC06FB08F9227
:10513000EFB20F90EFC08FC309ED370501001305E3
:105140004568EF30D022371501001305C50DEF304B
:105150001022EFC02FBE6FB0EF8F411122C637046F
:10516000004085451305044026C44AC2EF00F03CC8
:105170006306050E130504408545EF00903D83C787
:10518000C1831384C18393845195C1E783C701957B
:105190009CA095EB0146914537150140EF20F06347
:1051A0001C201D4785071CA083C7719593846195BA
:1051B000138471956367F70E45678A07130747E6FF
:1051C000BA979C4382870546914537150140EF20E9
:1051D000D0600146914537150140EF20106005462B
:1051E000914537150140EF20505F372901400146B6
:1051F000854513050980EF20505E0546854513055A
:105200000980EF20905D0146854513050980EF2058
:10521000D05C98201C20E3E5E7F8ADBF85471CA0D3
:105220009820BD4763FCE7021387019410239386FF
:1052300001941376F60F138781959387C19519E62C
:105240000C4323A6B1968C4323A4B196054690A2A5
:10525000238004002320070023A007003244A24437
:1052600012494101730020303725014013050540E4
:10527000E52193878195984309852A9798C38947A3
:1052800079BF8D4769BF914759BF954749BF994736
:1052900079B79D4769B79C202300040085079CA02F
:1052A00041B73705010013054568EF30500C37153D
:1052B0000100130545E8EF30900B9DB7EFA25FF7B3
:1052C000EF80F057B717010003A607EA83A647EA65
:1052D000EF607056EF8070616FA0DFF7EFA25FF5AF
:1052E000EF80F055B717010003A607EA83A647EA47
:1052F000EF60E062EF80705F6FA0DFF5EFA25FF319
:10530000EF80F053B717010003A607EA83A647EA28
:10531000EF60E060EF80705D6FA0DFF3EFA25FF100
:10532000EF80F051B717010003A607EA83A647EA0A
:10533000EF607050EF80705B6FA0DFF17300203082
:10534000EF20C052AA85371501001305051AEF306A
:105350001002EF200052AA85371501001305051B26
:10536000EF30F000EF202050AA853715010013051B
:10537000051CEF30C07F01A0B71702409843B70665
:10538000FFF841111367170098C3D843370602008E
:10539000758FD8C39843B706F7FEFD16758F98C36F
:1053A0009843B706FCFFFD16758F98C3D843B70620
:1053B00081FFFD16758FD8C39843B70600ECFD1624
:1053C000758F98C33707FF0098C723A6070202C44A
:1053D00002C69843C166558F98C3B7160240056749
:1053E0009C42F18F3EC6A24785073EC4B24781E783
:1053F000A247E397E7FEB71702409C431397E700E5
:105400006357070685473EC632478547631FF70443
:10541000B7170240D843B706C1FFFD16D8C3D8431B
:10542000D8C3D84313670740D8C3D843758FD8C3B0
:10543000D843B7061D00558FD8C39843B70600015F
:10544000558F98C3984393166700E3DD06FED84353
:10545000B7160240719BD8C3D84313672700D8C33F
:105460002147DC42B18BE39EE7FE4101828002C608
:1054700061BF01A001A001A001A001A001A001A0A5
:1054800001A001A001A001A001A001A001A001A014
:1054900001A001A001A001A001A001A001A001A004
:1054A00001A001A001A001A001A001A001A001A0F4
:1054B00001A001A001A001A001A001A001A001A0E4
:1054C00001A001A001A001A001A001A001A001A0D4
:1054D00001A001A001A001A001A001A001A001A0C4
:1054E00001A001A001A001A001A001A001A001A0B4
:1054F00001A001A001A001A001A001A001A001A0A4
:1055000001A001A001A001A001A001A001A001A093
:1055100001A001A001A001A001A001A001A001A083
:1055200001A001A001A001A001A001A001A001A073
:1055300097B1FF1F9381014F17B10020130181AC78
:1055400017D500001305C5C397B5FF1F938585AB1D
:105550001386818663FAC5008322050023A05500C7
:1055600011059105E3EAC5FE1385818697C5FF1FE6
:105570009385C5FA6377B500232005001105E36D17
:10558000B5FEFD42739002BCAD4273904280B7629B
:1055900000009382820873A0023097B2FFFF9382CB
:1055A000E2A993E2320073905230EFF0FFDC97D221
:1055B000FFFF938262FD7390123473002030EFA2DC
:1055C0003FC7B727014093870740631CF500854517
:1055D00013050020F129814513050020D1296FA072
:1055E0007FC7B737014093870780E31AF5FE8545EB
:1055F000130500407529814513050040C5B75C417E
:105600003707F1E01307F7EF944D7D8F9C41D58F5D
:10561000D44DD58FD441A206D58FD98F5CC11C45FE
:1056200037F7F1FF1307D77FD4457D8F9C49D58F7E
:1056300094458606D58FD98F1CC55C55370710FF5A
:105640007D177D8FDC29FD1793F7F70FD207D98FD0
:105650005CD582801C4589C593E717001CC58280F4
:10566000F99BEDBF1C4593E787001CC58280084568
:105670000D81058982801C4593E747001CC5828007
:1056800008450981058982801C4591C5370750006E
:10569000D98F1CC582803707B0FF7D17F98FD5BF22
:1056A000A54763F7B7048D47138765FF3307F702F4
:1056B0000328C5009D47B397E70093C7F7FFB3F7EB
:1056C0000701B396E600DD8E54C5994763E3C7042E
:1056D00095477D163306F6025859FD47B397C70024
:1056E00093C7F7FFF98F3396C5005D8E50D982803E
:1056F0000D473387E502032805019D47B397E7006F
:1057000093C7F7FFB3F70701B396E600DD8E14C920
:105710006DBFB14763E2C702954765163306F602CF
:105720001859FD47B397C70093C7F7FFF98F339612
:10573000C5005D8E10D9828095474D163306F6025E
:105740005855FD47B397C70093C7F7FFF98FB39537
:10575000C500DD8D4CD5828068454205418182803F
:105760009C4513F7070113F8F70001C7D8413368C8
:10577000E8008E2113F7F50F39C318418146854E95
:105780003D4F930F800293028004214E3396DE003A
:10579000B3F8C500631116039398260033131F0155
:1057A0001343F3FF3377E300B318180133E7E8003E
:1057B000639FF70550C98506E39AC6FD18C1130714
:1057C000F00F6375B70454412146854E3D4F930F4A
:1057D000800293028004414EB398CE0033F7150146
:1057E0006392E8021317260001173313EF001343E7
:1057F000F3FFB376D3003317E800D98E639DF7012A
:10580000232A15010506E319C6FD54C18280E394DD
:1058100057FA10C94DB7E39757FE23281501DDB796
:1058200008456D8D3335A00082800CC982804CC93B
:105830008280AD67373700409387A7AA1CC3828058
:1058400023ACA1968280938781979443182181E6A7
:105850003C21920721A894430546639FC6023C2140
:10586000103192076314D60093E707F8B7E600E01B
:1058700093F7F70FBA962380F64085469357570063
:105880003397E6005441A5C2938707048A07B7E619
:1058900000E0B69798C382808C4389466391D50215
:1058A00014313C216365D6008A06B6975DB79386AE
:1058B000E6038A06B69793F7F70F920775B79043FA
:1058C0008D46631CD60014313C216364D6008606E5
:1058D000E9BF9386C6078606F1BF94439147E39ECE
:1058E000F6F81C31BDB7938707064DB7B7160240CF
:1058F000DC4251777D17F98F5D8DC8C282803717E2
:1059000002405C439146B18B6385D700A146638218
:10591000D706B7177A00938707201CC137160240B5
:105920005C4237070020130707049183BD8BBA97A9
:1059300094231C41B3D7D7005CC15442A1829D8AF5
:10594000BA969422B3D6D70014C55442AD829D8A2C
:1059500036971823B3D7E7005CC55842398393764E
:1059600037001387418436971823B3D7E7021CC941
:1059700082805C435843C166C983758FB7F6FF1FA9
:1059800083A6C670BD8B890713961601634806006F
:10599000C54601466392D702C94739A88946638F35
:1059A000D702BD46638ED702C146638ED702C54675
:1059B00001466393D700C1471DEF374702400327D5
:1059C0000780418B05C737177A0013070720B307F5
:1059D000F7021CC121D61C41858381B701466DBFEA
:1059E0000546B547D1BF0146BD47F9B737173D005A
:1059F00013070790E9BFB7150240D8559316F70073
:105A0000D85563DF060411833D8B930617003717C3
:105A10007A00130707203357D70218C1D455A18243
:105A2000BD8A8DE295463307D702058318C1371723
:105A30000240585714413D8B050733D7E60218C181
:105A4000184171B785456394B600E546E9BFBD4589
:105A50006396B600D1463387E602C9BF8906E5BF23
:105A60003D8B9306170037177A001307072033572B
:105A7000D702F1B799C5371702401C4F5D8D08CF8B
:105A80008280B7170240984F1345F5FF798D88CF74
:105A9000828099C5371702405C4F5D8D48CF828068
:105AA000B7170240D84F1345F5FF798DC8CF8280D4
:105AB00099C5371702405C475D8D48C78280B7178C
:105AC0000240D8471345F5FF798DC8C7828099C534
:105AD000371702401C4B5D8D08CB8280B717024000
