:100000006F50405C1300000013000000130000005C
:100010001300000013000000130000001300000094
:100020001300000013000000130000001300000084
:08003000130000007300100032
:100038000000000000000000D0530000D45300006E
:10004800000000000A550000000000000000000049
:100058000C5500000E5500000000000000000000D4
:10006800F4800000000000001255000000000000AD
:100078002484000016550000185500001A55000089
:100088001C5500001E550000205500002255000098
:100098002455000026550000285500002A55000068
:1000A8002C5500002E550000305500003255000038
:1000B8003455000036550000385500003A55000008
:1000C8003C5500003E5500004055000042550000D8
:1000D8004455000046550000485500004A550000A8
:1000E800384100009651000050550000525500005C
:1000F8005455000056550000585500005A55000048
:100108005C5500005E5500007082000062550000DA
:100118006455000066550000685500006A550000E7
:100128006C5500006E5500007055000072550000B7
:100138007455000076550000785500007A55000087
:10014800102600007E5500008055000082550000F2
:100158008455000086550000885500008A55000027
:100168008C5500008E5500009055000092550000F7
:100178009455000096550000985500009A550000C7
:100188009C5500009E550000A0550000A255000097
:10019800A4550000A6550000A8550000AA55000067
:1001A800AC550000AE550000B0550000B255000037
:1001B800B4550000B6550000B8550000BA55000007
:1001C800BC550000BE550000C0550000C2550000D7
:1001D8000000000000000000000000000000000017
:1001E8000000000000000000000000000000000007
:0801F8000000000000000000FF
:10020000397101436EC619A0397141536AC866CA73
:1002100062CC5ECE19A0397101535AD056D252D455
:100220004ED64AD826DA22DC06DE330161408282CD
:1002300041114AC026C222C406C68282B24D410183
:10024000024D924C224CB24B4101024B924A224A3F
:10025000B2494101024992442244B24041018280A4
:100260003D432A876373C3029377F700BDEFADE583
:10027000937606FF3D8ABA960CC34CC30CC74CC795
:100280004107E36BD7FE11E28280B306C3408A06C2
:100290009702000096966780A6002307B700A30682
:1002A000B7002306B700A305B7002305B700A304D2
:1002B000B7002304B700A303B7002303B700A302CA
:1002C000B7002302B700A301B7002301B700A300C2
:1002D000B7002300B700828093F5F50F9396850051
:1002E000D58D93960501D58D61B79396270097021A
:1002F000000096968682E78086FA9680C1171D8F49
:100300003E96E374C3F8A5B70100010001000100A7
:10031000010001000100014582803307C5009307F9
:10032000001063C7E702EFF21FEF3289AE89AA849B
:10033000014493170401C18363FE270133878900B9
:10034000A6970C231395070141817D3F0504D5B77E
:10035000014582800545D5BD010001000100010075
:10036000010001000100010001000100014582803F
:10037000EFF21FEC4111AA840144931704012EC629
:10038000C18332C463FEC700338584001375F50F43
:10039000E137B2452246B387850088A30504F1BF43
:1003A0000545410145BDEFF21FE72A89AE8432843D
:1003B0009309F00F370A0100B70A01007D14137486
:1003C000F40F630B34038C2003550900353F0345BC
:1003D000090059379C20638AA70013050A6AEF8039
:1003E000F00213858A6AEF80700283270900850472
:1003F00085072320F900D9B789BDEFF27FE32E9658
:100400004111AA841374F60F88202EC6B137B24565
:1004100088A19C40850585079CC093F7F50FE315DF
:10042000F4FE410105BDEFF2BFE07971C1651384AF
:1004300005674146938505670A85EFD0F07241460E
:10044000930504010808EFD0307241469305040279
:100450000810EFD07071B7160020371700208147C1
:100460001386812D9386862513078724C14533087B
:10047000F100032808003385C70000082320050188
:100480003308F400032808003385D7000010232028
:1004900005013308F400032808003385E7009107BD
:1004A00023200501E395B7FCEF303029B7070100A1
:1004B00083A7476C1306000023A6F18C23A6F18EB8
:1004C000370701000327876CB706010023A0E18EE0
:1004D0009567938707E223A2F18E23A4C18EB70705
:1004E000010083A7C76C83A6066D23ACF18C23AEF5
:1004F000D18C23AAF18C138701B310C750C33707DF
:1005000001000327476D23A8C1B223A8E182B707E2
:10051000010003A5876DEF40B06323A6A182B70752
:10052000010003A5C76DEF40B06623A4A182EF4090
:10053000803E370701000327076E370501001305CA
:10054000056A23A2E182EF80606C37050100130584
:10055000456EEF80A06B4561F5B9EFF27FCA9385D8
:100560004120131425009388C50013888500138A41
:100570004500C6864286338B8500AA899307000012
:10058000D285138541202320FB00EF303008B707C8
:10059000002093878702A2978843938B4181EFD0F5
:1005A000F033B717010003A607C283A647C2CE9B4C
:1005B000EFB050322A8C03850B00AE8C938441211E
:1005C000EFC0B0002A86AE866285E685B70C0020B3
:1005D000EFB05030938C8C01EFD0103B3389840006
:1005E000A29C371E01002320A90003A50C0083252F
:1005F000CEC19389818023A0A900EFC0F06113834D
:10060000C400138D840091042A879A866A86A68581
:10061000138541219387018AEF20D05E9307000064
:100620002320F900EF40601D930700002320FB000A
:10063000938801211388C120D285370A0020C686FD
:10064000428613854120130ACA00EF30207C229A8B
:10065000832D0A0003850B00B7070080B3CDFD0092
:10066000EFD0900EAA856E85EFD0001D371E0100D9
:100670008325CEC12320A90003A50900930D000006
:10068000EFC09059138301222A879A866A8693873E
:10069000018AA68513854121EF20D0562320B90178
:1006A000EF40A01583250A002E85EFC050202A8A2E
:1006B00003850B00EE8BEFD03009AA855285EFD071
:1006C000A017B707010083A5876C2320A90003A505
:1006D0000C00EFD06016371E01008325CEC123A089
:1006E000A900EFC07053138301222A879A866A8675
:1006F0009387018AA68513854121EF20B0502320DE
:10070000B901EF40800F938701B3A29703AA0700B6
:100710009387C1B3A2978C435285EFC0501993873A
:1007200081B4A297AA8A2320AB008843D285938400
:100730004122EFC0D017A29488C0B7070020B704A9
:1007400000209387070093844403A2943E940840BA
:10075000D285EFC0D01588C02320590123A0B9014C
:10076000EF303013E1BCEFF2BFAC2E84AA85371511
:1007700001001305C5A9EF8060492285EFD010164E
:100780002A8637150100AE86130505AAEF800048BA
:10079000D1B4EFF2FFA941112EC4AA85371501008B
:1007A000B2861305C5A936C6EF8040462246B2463A
:1007B00037150100130505AAEF804045410159BCDA
:1007C000EFF21FA72E84AA85371501001305C5A9CE
:1007D000EF80C04337150100A285130505AAEF80FD
:1007E000E0428DBCEFF23FA39384C18898408D47CF
:1007F00063C5E706138481891C4013090006B3070B
:10080000F9029389019BAA853385F900EFD0504402
:10081000370501001305056AEF80403F37150100D9
:1008200013050588EF80803E0C4037150100130545
:10083000C5A9B305B902CE95EF80403D371501003B
:100840001305C588EF80803C1C4011478507B3E73E
:10085000E7021CC09C4085079CC0C5BAEFF25F9DB3
:100860005137CDBAEFF2DF9C37150100130505C0F3
:10087000EF80C039996773900780B707EFBE37E7FD
:1008800000E0938707083CC76FF0DF9CEFF25F9AA8
:1008900037140140130504808565EF70900005460C
:1008A000130504808565EF70807CF16593850520D4
:1008B00013854199EF70D0253725014085451305F3
:1008C0000580EF70007EEF70A00E37150100130554
:1008D00085B3EF80A03337150100130505B5EF8010
:1008E000E032B70401001385046AEF802032371527
:1008F0000100130545B6EF8060313715010013057F
:1009000045B7EF80A030371501001305C5B8EF805B
:10091000E02F37150100130585B9EF80202F37151B
:100920000100130585BBEF80602E3715010013050C
:1009300045BCEF80A02D1385046AEF80202D37156C
:100940000100130505BDEF80602C371501008145BE
:10095000130505BEEF80802B37150100130545BE3A
:10096000EF80C02A37150100930500541305C5BF59
:10097000EF80C02923A801887D34EF400027EF20B5
:100980009022EF30D04EEF70607A014685651305F6
:100990000480EF70C06D6FF0FF8B01479306000677
:1009A0003306E5000306060093178701E187631409
:1009B000B6069305F005254613978701618763CF37
:1009C000E504B306F50094228507938606FD93F6A9
:1009D000F60FE363D6FE8147A54829489305F00545
:1009E000B306E50003860600930606FD93F6F60FB0
:1009F00063E1D802B387070305079376F70F1397D0
:100A000086016187938707FDB297C207C183E3F927
:100A1000D5FC3E8582800507E314D7F88147D5BF12
:100A2000EFF21F81830715001307C004AA846388AF
:100A3000E700130700056380E7046FF0BF81B71577
:100A4000010093854589EFD0D02219C59305A003F5
:100A50002685A1372399A18AB71501009385458A78
:100A60002685EFD0102171D99305A003268535374F
:100A70002398A18AD9B7B71501009385C58AEFD00D
:100A8000501F45DD930530072685013F1384418BB8
:100A90000AA01E209305A0032685C207C18381CF2B
:100AA000ED3D9307C0033305F5021A203A95420540
:100AB00041810AA059B7D535EDBFEFF26FF703A713
:100AC0004189930700063387E70283A701881385CE
:100AD000019B8145B306E500958F8507BA973E9542
:100AE000EFE00068EFD0406A6FF0CFF6EFF24FF41E
:100AF00003A74189930700063387E70283A701888C
:100B00001385019B29468145B306E500958F85072E
:100B1000BA973E95EFE0207A6FF0CFF3EFF24FF106
:100B200003A7418993070006AA85B387E7021385C7
:100B3000019B3E95EFD0501023A0A1883335A00033
:100B40006FF04FF1EFF2CFEED13F6FF0AFF0EFF279
:100B5000AFEB9389818083A7090023AEF186938749
:100B60000181984323ACE18A1307400698C303A789
:100B700001999387C18A98C3EF3030480545EF301B
:100B800020521387412014439387412194C3544337
:100B900013058005B7040020D4C314475847938B2E
:100BA000C18794C7D8C79307000023A0F900BD37B9
:100BB0009389C18A138B8180938A818B138A0181E7
:100BC00013844120938404226311050C13059005BE
:100BD000B137631C050A1305A00589376317050A99
:100BE00085479CA00145EFF05F979C206386070A2C
:100BF0000545EFF09F969C2089E71305A005393F36
:100C000001C50945EFF07F9513058005013F11C926
:100C1000F13D01C95D35AA8503A501B3EFC02049A7
:100C200008C013059005DD3D11C9C93501C97135ED
:100C3000AA8503A541B3EFC0804748C01305A005AE
:100C4000F13D11C9653501C98D3DAA8503A581B363
:100C5000EFC0E04508C49306C40013068400930562
:100C6000440013854120EF30601A83A70B00232036
:100C7000FB0083A70A002320FA0083A7019923A081
:100C8000F900EF3000416FF0AFDB130580052380E2
:100C900004006935E31805F4130590054135E3199F
:100CA00005F4A1BFEFF2CFD813854199EF706076BC
:100CB00037150100130545B0EF70507583A5C18647
:100CC00037150100130505B18505EF7030746FF01D
:100CD0006FD8EFF2EFD27571371A00209387018930
:100CE000130A4A491384019B3EC683270A08032737
:100CF0004A08998F93F7F70795CB03A7C1888D47CB
:100D0000938CC18863C4E70213854199EF70E06D4D
:100D100062056185A947138701879384418763171B
:100D2000F5029440A9EA2388018631A8130600063B
:100D300081450818EFF0CFD2938741B59C33138DCE
:100D400041B5639F072649616FF04FCFB547E30A6E
:100D5000F5FC9307A0036314F5001C23F9D394401A
:100D60009307E005E3CFD7FA9307B003631AF522A0
:100D700085471CA39DBF938D818983A70D00130612
:100D800000061823B38AC70213898189B309540165
:100D9000CE96238006006312071C32479305E004B9
:100DA0004E85BA9723800700EFD00069630A051AC1
:100DB00023A0A1883305354105055695294681456F
:100DC0002295EFE0404F938BC18683A70B00138DD4
:100DD000C1892320AD008507138B0188938AC189BF
:100DE0009389C186630EF50403A50D001306000662
:100DF000B70501003305A602938585702295EFD0D3
:100E000040671DED3705010013050571EF70106097
:100E10003705010013058571EF70505F83A50B0046
:100E2000370401001305C474EF70505E83250D0074
:100E30001305C474EF70905DB53523A0040021B78D
:100E400003250900930B00069305A002B30B75035D
:100E5000B30D74016E85EFD0205E3DC18147014D19
:100E6000EE861306A0023387F60003070700630827
:100E7000C7008507E207E187334DA701EDB72320BF
:100E8000AB003305B54105055E9581452295EFE040
:100E9000202DEFB050676308A50537050100130545
:100EA0000571EF70B0563705010013050575EF7039
:100EB000F0553715010083A50900130505B19DBF45
:100EC0003705010013050571EF7050543705010017
:100ED00013050577EF7090533705010083A50900CE
:100EE0001305C57481BF83A70A0023A0F9008329D5
:100EF00009001305000693057004B3093503B30A0E
:100F000034015685EFD0405305CD23A0A188330589
:100F1000554105054E9581452295EFE06024EFB0DF
:100F2000905E8D4763EEA70083C78186ADE783C7D8
:100F300041B599E7370501001305857CEF70104D29
:100F40008327090011478507B3E7E7022320F9004B
:100F500083A70C00850723A0FC0023A0040071B325
:100F60009305A0024E85EFD0204D51D137050100E9
:100F700013050571EF709049370501001305C57918
:100F8000EF70D04883A5C186370501001305C574ED
:100F9000EF70D0475DB5370501001305C57C79BFFB
:100FA0001C23E39407D483A781891387160098C074
:100FB00013070006B387E702A297B69788A335B355
:100FC00083A7418713844187E39F07D6814C138908
:100FD000019B93890189B71B010003274D268327B5
:100FE0000D26E302F7D603A7C1888D47138CC1886D
:100FF000E3CBE7D413058D25EF60700BA947938DE4
:1010000001876304F502B5476301F5029307A00366
:101010006315F50083C70D0089CB18409307E005E1
:1010200063C5E700FD576317F50E03270D268327D9
:101030004D26631FF70613854B84EF70303D37153F
:10104000010013058585EF70703C83A70199930615
:10105000C00323A0F18C03A6C18B3D67130707A62D
:10106000918F33D7E70237F63600130606E8B71537
:1010700001009385C5860808B376D70233D6C70228
:10108000EF70103B370501001305056AEF7010384B
:10109000371501000C08130505BEEF7030371385B6
:1010A00041B5EF10102F8545138541B5EF1050174E
:1010B00083C70D0099CF0818EFF09F96814713075B
:1010C00000061418BE96238006008507E39BE7FE02
:1010D000814C1040E30906C4938681899C42130722
:1010E000000623800D003387E702232004004A977F
:1010F00032972300070005463387F90010A3032722
:101100000C00850705072320EC001147B3E7E70231
:101110009CC2E1B59307B0036310F50285472380B5
:10112000FD00180993871C00BA9C2380ACFA939C9D
:10113000870193DC8C4155B583C70D00FDF383A770
:1011400081899306170014C093060006B387D7025F
:10115000CA97BA9788A3374700401375F50F83578E
:10116000074093F70708E5DF420541812312A740B6
:10117000ADB503A7019923A6E18A03A74189938707
:101180000189BA979C238DE3EFF28F8A370501001E
:101190001305857CEF709027371501001305C5FBFB
:1011A000EF70902B6FF00F8B8280EFF2EF859384BE
:1011B000412013844121014993890186138A418A80
:1011C000914AB387290103850700EFF03F9529CDA8
:1011D000EFF0BF8EB3072A01AA8B882311E593870E
:1011E000618B88231375F50FEFC010568C40EFC04C
:1011F000A064DE85EFB0B06B08C00509910411044E
:10120000E31159FD13056004EFF05F9101CDEFF09C
:10121000DF8A930500002A84EFC0E0506354A000E9
:1012200023A481806FF0CF819C401CC0F9B7EFF2FE
:101230002F80A53F13059004EFF05F8E1384419A31
:1012400011CDEFF09F8708C01305A004EFF01F8DAC
:1012500011C9EFF09F8648C06FE0DFFF93070000E1
:101260001CC0DDB7930700005CC0FDB7EFE25FFC78
:1012700003A941222A840841CA8593844122EFC0F0
:10128000E052635405002320240103A94400484090
:10129000CA85EFC0A0516354050023222401844471
:1012A0000844A685EFC080506353050004C4B7040A
:1012B000002003A94403084093844403CA85EFC077
:1012C00080466354A0002320240103A94400484021
:1012D000CA85EFC040456354A00023222401844402
:1012E0000844A685EFC020446353A00004C46FE007
:1012F0007FF6EFE2FFF0138541218D3F03A70199AF
:101300009384412103A541208C4023A6E18A83AA2E
:101310008180EFC0803BCA8C13844120371A0100C2
:10132000938DC121138D812131E1CC404840EFC024
:10133000C0390DED8325CAC15685EFC0E00D2A875F
:101340009387018A938601221386C1219385812187
:1013500013854121EF20000B9C401CC0DC405CC089
:101360009C441CC4DC445CC46FE05FED03A50181B8
:10137000EFC0903DD685EFC0204C8325CAC1EFC099
:10138000A009B717010083A50789EFC0E0082A87E5
:101390009387018A938601226E86EA85138541210F
:1013A00055BFEFE25FE71384419A2A894840011153
:1013B0001379F90FEFC090522ACC08402ECEEFC01F
:1013C000F0516246F246EF70F04DEFC0F05B2ACC70
:1013D00003A50181EFC0503783A58180EFC0C045D0
:1013E000B717010083A5C7C1EFC00003B7170100FD
:1013F00083A50789EFC0400283C7018AE24893842E
:1014000041213EC24AC02A88894705478146138642
:10141000419A938541211385412013844120EF1087
:10142000207A9C401CC0DC405CC09C441CC4DC4452
:101430005CC403A7019923A6E18A05616FE0FFE080
:10144000EFE21FDF996773900780EF3010040546C5
:10145000C14537150140EF6090410546C14537153C
:101460000140EF60D0400546C14537150140EF60AF
:1014700010400546C14537150140EF60503F370524
:1014800001001305056AEF70607837150100130538
:1014900085B1EF70A0773715010013058500EF7057
:1014A000E076EFF02FBC01A0EFE29FD81386C18A4F
:1014B00083A601990C4203A641888D8E9387C18A29
:1014C0006374D60011C2AD3F83A64180A1CA03A7B1
:1014D00001999C43B307F74063F2F60403C7018DFB
:1014E00083C7118D93F7F70F639AE7020546C1454D
:1014F00037150140EF60B0370546C145371501404B
:10150000EF60F0360546C14537150140EF603036D3
:101510000546C14537150140EF607035EF10106C7E
:101520006FE05FD3EFE2DFD0EF30207693878186E4
:1015300098231DE3054798A303A7C186370501003B
:101540001305056A23A4E188EF70406C370501009C
:101550001305C57CEF70806B6FE0DFCF03C581861C
:101560008280EFE2FFCC83C7018AAA84130540057D
:10157000238CF186EFF08FDA09E501494A856FE0A7
:101580007FCD2A89EFF06FD3EFC0B0161384818727
:101590001375F50F08A075D1370501001305056A0D
:1015A000EF70C066930790066384F40463CE9700DF
:1015B000930780066387F4020C203715010013059A
:1015C00005BEEF70A0645DBF9307D0066387F40289
:1015D0009307A00DE392F4FE371501001305C5AE85
:1015E00029A037150100130545AAEF702062E9B75D
:1015F000371501001305C5ABCDBF37150100130525
:1016000045ADE5B7EFE2DFBF5D7113057004EFF0A4
:10161000EFD0630C0516EFF04FCAEFC0700791478B
:101620006309F50C63CCA70089476304F50A63CB13
:10163000A70A63530508EFF0DFB349A89307A00595
:101640006309F51063CBA700F147E316F5FEEFF051
:101650000FD005472384E192F9BF9307B005630DCE
:10166000F50E9307C005E318F5FC13055004EFF0E1
:10167000EFCA19E1EF306018138441208144938947
:10168000018613890121138A01B3930A8400B38769
:10169000990003850700EFF06FC811C98D4763916A
:1016A000F40CEFF08FC148C44A85EF203005850463
:1016B0009147E39EF4FC41B783C7818699EBEFF035
:1016C000DFAEEFF01FC305472384E19261616FE055
:1016D000FFB683C7818699E7EFF07FB50545EFF048
:1016E0005FCCEDB783C7818689E7EFF05FB4014532
:1016F000FDB713050005EFF06FC2014411C5EFF00F
:10170000CFBBEFC0007F2A8413053005EFF00FC177
:1017100001CDEFF08FBAB707010083A5476CEFC08A
:10172000A011EFC0007D2A84EF30200D03A701999E
:1017300083A60199BE843A9423A6D18A83A70199EE
:10174000E3FB87EEEF60F050EF30002EEFF0DFD5D7
:10175000F5B7238B018AC5B50547238BE18AE1BD27
:10176000EFF0AFB593972400330BF400D297AA851E
:101770008843EFB0D0132320AB00CA86568693056A
:1017800044002285EF2080681DB71305D004EFF0D8
:10179000EFB819E16F007053EFF02FB2EFC0406F58
:1017A00013079006AA876300E566634EA714714786
:1017B000630BE5506342A70A5947630DE546634E44
:1017C000A7044947630DE50C634EA7024547E314A0
:1017D000E5E60146C14537150140EF605009014675
:1017E000C14537150140EF6090080146C1453715E6
:1017F0000140EF60D0070146C14537150140EF6059
:10180000100715BD51476306E5405547E315E5E26E
:10181000138541B5EF10C00239BD6547630EE5463B
:101820006341A7025D47630CE5406147E315E5E0CE
:10183000138541B5EF10400503A7019923AEE18A56
:10184000DDBB69476300E5466D47E316E5DE1385BA
:1018500041B5EF10E011C5B3130720056308E56C2F
:101860006341A7027947630DE54A6347E54A7D472F
:101870006301E55613071005E31FE5DAEFE09FFE6D
:101880005DBB130750056308E574634DA70213079A
:1018900030056301E56A13074005E31EE5D813052B
:1018A0003005EFF0AFA7630C0568EFF00FA1B707A5
:1018B000010083A5476CEFB03078EFC0806323A2AE
:1018C000A18095BB1307C0056309E5721307800665
:1018D000E313E5D613058006EFF0BFC8E31D05D47A
:1018E00013053005EFF08FA301CDEFF00F9D03C47A
:1018F0008187938741970A043E94EFC0605908C0DE
:10190000EF3080380DBB1307C00CE302E51A6349C2
:10191000A72213077007E30CE5086340A71C130711
:1019200020076302E5786346A7181307D006E3147F
:10193000E5D01305D006EFF0DFC2E31E05CE130598
:101940003005EFF0AF9D93848187138A419709C9D1
:10195000EFF0AF968020EFC0A0530A04529408C065
:10196000EF30803203C904000A09B3072A01884313
:1019700083AA0199B71B0100EFC0005D93874196D0
:101980003E9983270900AA8C7D593EC4B7170100F0
:1019900003AC078C93894196371D0100E28D83A724
:1019A00001991307803EB3875741637CF708B71747
:1019B000010013858792EF7060259C208A07CE97DF
:1019C0008843EFC0A071B71701002A86AE86138541
:1019D000C792EF70A023B717010013854793EF70EC
:1019E000E0228C201385CB91EF70402213058D935C
:1019F000EF70C02103A54197EFC00055EFC04049EB
:101A0000AA851385CB91EF7060203715010013056F
:101A1000C593EF70A01FFD57630DF94A83A7019985
:101A20008965938505719D8DCA951307803EB3D551
:101A3000E50237150100130505B1EF70201D83AADB
:101A40000199EF20707EEFF03FA6FD576318F94A29
:101A5000A2456685EFB0304D9C208A073EC633070D
:101A6000FA00635FA0460843EFC0004EEE85EFC06A
:101A7000E005B247CE978C43EFB05053E341A0F25C
:101A800003A90199FD57E30CF9F0634B090003A783
:101A9000019989679387F77033072741E3F1E7F0EE
:101AA00003A7019923AEE18A03A7019923A6E18A3E
:101AB00059B6130730076300E55E13075007E31CB0
:101AC000E5B603A501889305A0021505EFC0D01661
:101AD000E30305B6A30F05FEB9BE1307C0086306EE
:101AE000E530634EA70013078007630FE56A13070D
:101AF00090070545E391E7B4EF20805A2DBE130708
:101B0000900C6307E5761307B00C0144E315E5B2CA
:101B10003719002093840186130989259149B387D9
:101B2000840003850700EFE07FFF19C5EFE0FFF8B1
:101B300093172400CA9788C30504E31234FFE5BC59
:101B40001307D012E30EE504634DA7021307E00C60
:101B5000E301E5006343E5781307C00DE303E50205
:101B60001307D00DE319E5AC13053005EFE01FFBBB
:101B7000E30305ACEFE07FF4EFC0803123A6A18042
:101B80005DBC13070019E30EE5126344A7061307B3
:101B9000E012E303E5101307F012E31EE5A81305B6
:101BA0005004EFE0BFF78144E3070510EFE0FFF0DA
:101BB000EFC0002EAA84E3500510B717010003A45C
:101BC000C78B13053005EFE07FF501C5EFE0FFEEB1
:101BD0002A8413053004EFE07FF4154611C5EFE0C9
:101BE000DFEDEFC0E02A2A86A6852285EF30E00BE4
:101BF00099B41307003A6306E5181307703EE31C17
:101C0000E5A22384018603A7818823A6E186EFF05D
:101C10003F83371501001305C58DEF60307F1385B5
:101C200041B5EF00103F371501001305C58EEF6079
:101C3000F07D11B4138541B5EF007044EDBA93897E
:101C4000418903A40900130900063304890293841F
:101C5000019BB71501009385C58F33858400EFC0C4
:101C60005001E30A059C93054400A6950808EFC0BF
:101C7000207E0C080546138541B5EF00B04483A5CE
:101C80000900B305B902A695371501001305C5A9CA
:101C9000EF60D0776FF03F9A138541B5EF00703F4A
:101CA0006FF07F99138441B53C20E38607981305B4
:101CB0003005EFE0BFE6E3000598EFE03FE32322C5
:101CC000A4266FF05F9703A501889305A0021384F3
:101CD00001881105EFC04076AA8415C503A5418986
:101CE000930700069305E004B387A7021385019BC1
:101CF0003E95EFC0607493050002EFC0E0730505E8
:101D000008C0A38F04FE0C4001469105138541B520
:101D1000EF00503B6FF03F92238A01B46FF0BF9108
:101D2000938741B5BC23E3880790138541B5EF0045
:101D3000D05103A501889305A00293840188110561
:101D4000EFC0806F2A8915C503A541899307000656
:101D50009305E004B387A7021385019B3E95EFC06E
:101D6000A06D93050002EFC0206D050588C0A30F8C
:101D700009FE8C40138541B59105EF00903D6FF051
:101D80009F8B03A501889305A00213840188150584
:101D9000EFC0806AAA8415C503A541899307000690
:101DA0009305E004B387A7021385019B3E95EFC01E
:101DB000A06893050002EFC02068050508C0A38F46
:101DC00004FE0C40138541B59505EF0070376FF0A8
:101DD0009F8603A70199370501001305056A23A013
:101DE000E18CEF60B0620C0845B513053005EFE0FB
:101DF000FFD2E3020584EFE05FCCEFC0600923ACC3
:101E0000A1966FF05F83EFF0CFF5E31605823705FB
:101E100001001305857CEF60705F37150100130525
:101E2000C5FBEF6070633715010013054590EF6047
:101E3000F05D138481871C20138741968A07BA9727
:101E40008843B7140100EFC060292A86AE86138547
:101E5000C490EF60B05B3715010013054591EF604A
:101E6000F05A1C20138741978A07BA978843EFC01E
:101E7000A00DEFC0A0262A86AE861385C490EF6021
:101E8000F0583715010013058591EF603058082090
:101E9000EF20302AAA85371501001305C591EF60A0
:101EA000F0563715010013050592EF6030567D5549
:101EB000EF203028AA8537150100130505BEEF6015
:101EC000F05437150100130545FDEF6030546FF0F5
:101ED000EFFF3715010013050594EF60305385B609
:101EE0000843EFC06006E285EFB0601CB247CE97B2
:101EF0008C43EFB05003E35505B855B49C208A07D6
:101F00003387F900D29788433AC6EFC0E0033247DF
:101F1000AA850843EFB0903BEFB090779357F54117
:101F20003D8D1D8DA947E3D4A7B699BEA383018A31
:101F30006FF06FF00547A383E18A6FF0CFEF1305D1
:101F40008005EFE0BFBD29CDEF20300B13058005E4
:101F5000EFE0DFBC19C50546C14537150140EF600C
:101F6000001113059005EFE07FBB19C50546C1457B
:101F700037150140EF60A00F1305A005EFE01FBA71
:101F800019C50546C14537150140EF60400E1305E0
:101F90005004EFE0BFB8630005EA05466FF0DF8547
:101FA00013059005EFE09FB745F11305A005EFE09D
:101FB000FFB659F913055004EFE05FB651F5EF2075
:101FC000D0030546C14537150140EF60400AEF20B8
:101FD000700D6FF04FE613053005EFE03FB4EFE012
:101FE000DFADB707010083A5476CEFB0F004EFB099
:101FF000507023A2A1886FF00FE4B717010003AC63
:10200000478CB71A00200144138B01869384812DDD
:10201000938A8A25B3078B0003850700EFE01FB082
:1020200031CD8D476312F406EFE03FA9E2852A8A9D
:10203000EFB0C07763520504C844D285EFB0C03D0D
:10204000AA89AA8503A5418D1389812CEFB0C07E92
:1020500023AAA18C03A5CA00CE85EFB0E07D23A6FC
:10206000AA000325C900EFB0907ACE85EFB0C07CFE
:10207000EFB030682326A90023A644010504914748
:10208000E31AF4F86FF02FDBEFE03FA3931724007F
:10209000A69788C3E5B73715010013058594EF604F
:1020A000B03B6FF04FD9371501001305459EEF6027
:1020B000F035138441200840B7140100EFC000023E
:1020C0002A86AE86138504AAEF60503437150100C6
:1020D0001305859EEF6090334840EFC020002A86AC
:1020E000AE86138504AAEF60703237150100130520
:1020F000C59EEF60B0310844EFB0507E2A86AE86B0
:10210000138504AAEF609030371501001305059F71
:10211000EF60D02F4844EFB0707C2A86371501005D
:10212000AE861305459FEF60702E3715010013052D
:10213000C59FEF60B02D0145EF20C074EFB0D060B7
:1021400083A5812D1384812DEFB0002DEFB0107980
:102150002A86AE86138504AAEF60502B0545EF2032
:102160006072EFB0705E4C40EFB0002BEFB01077B4
:102170002A8637150100AE86130585A0EF60102969
:102180000945EF202070EFB0305C0C44EFB0C02860
:10219000EFB0D0742A8637150100AE86130505A16D
:1021A000EF60D0266FF02FC901456FF0FF9437150F
:1021B00001001305C5A1EF60702537150100130557
:1021C00085A3EF60B024371501409305000813057F
:1021D00005C0EF30206E8547631DF506B715010079
:1021E0009385458D37140100130504BEEF6010225E
:1021F00037150100130505A4EF6050213715014084
:1022000093050020130505C0EF30C06A85476317AA
:10221000F504B71501009385458D130504BEEF60E5
:10222000F01E37150100130585A4EF60301E371529
:10223000014093050040130505C0EF30A0678547B6
:102240006313F502B71501009385458D130504BE90
:1022500081B4B71501009385858C69B7B715010066
:102260009385858C5DBFB71501009385858CF9BF7B
:102270003719002001449384018613098924114AE7
:10228000B387840003850700EFE05F8911C9EFE0A1
:10229000DF8293192400CA99EFB0B04523A0A900AA
:1022A0000504E31F44FDEF1050496FF0CFB813054C
:1022B0003005EFE0BF8609C5EFE03F8023A6A18C83
:1022C00013054005EFE09F8519E16FF0CFB6EFE011
:1022D000CFFE23A6A18E6FF00FB613053005EFE0F9
:1022E000FF8309C5EFE06FFD23A0A18E1305400514
:1022F000EFE0DF8209C5EFE04FFC23A4A18E1305B8
:102300002004EFE0BF8119C5EFE02FFBEFB0703E76
:1023100023A2A18E13058005EFE05F8009C5EFE0E1
:10232000CFF923ACA18C1305A005EFE02FFF09C561
:10233000EFE0AFF823AEA18C13055004EFE00FFEE1
:1023400019E16FF04FAFEFE04FF723AAA18C6FF0C8
:102350008FAE014493840186138901B38D49B387FD
:10236000840003850700EFE06FFB19C5EFE0EFF491
:1023700093172400CA9788C30504E31234FF6FF053
:102380008FAB13053005EFE06FF919E16FF0AFAADD
:10239000EFE0AFF2EFB0D02F23A8A1806FF0AFA98C
:1023A00013050005EFE08FF709C5EFE00FF123A853
:1023B000A18213059004EFE06FF619C5EFE0EFEF8F
:1023C000EF20107923A6A18213054004EFE00FF55A
:1023D00019C5EFE08FEEEF20B07B23A4A182130597
:1023E0003004EFE0AFF309C5EFE02FED23A2A182A7
:1023F000EF206052370501001305857CEF60100166
:1024000037150100130505A5EF60500003A50183F2
:1024100037140100EFB0904C2A86AE86130504AA4B
:10242000EF60C07E37150100130545A5EF60007E03
:1024300003A5C182EF20D073EFB0504A2A86AE8642
:10244000130504AAEF60807C37150100130585A5EC
:10245000EF60C07B03A58182EF209075EFB010483C
:102460002A86AE86130504AAEF60407A371501006C
:102470001305C5A5EF60807903A54182EFB0104632
:102480002A86AE86130504AAEF604078371501004E
:10249000130585006FF0AFF913053005EFE00FE885
:1024A0009307000001C5EFE04FE1AA873E85EF10DA
:1024B00070286FF04F98B717010003A4878B6FF057
:1024C0004FF0EF2080336FF00F9713054005EFE0DA
:1024D000EFE4B704010051C1EFE02FDEEFB070214F
:1024E0001375F50F1384818708A015C51385046A39
:1024F000EF60C07113054005EF5070760C20371562
:1025000001001305C590EF606070371501001305D9
:1025100005A66FF0CFF113056004EFE02FE001CDC9
:10252000EFE0AFD9930500002A84EFB0C01F6354D9
:10253000A00023A481801385046AEF60206D371505
:102540000100130545A7EF60606C3715010083C5D6
:10255000018A130505C86FF0AFF31385046AEF60B5
:10256000E06A37150100130585A8EF60206A83A58E
:1025700041899307000637150100B387B702938599
:10258000019B1305C5A9BE95EF6040683715010092
:102590001305C5886FF0AFE9EFD21FC7EFE00FAFAB
:1025A000894A1384019B930B0006114C83A7C188B1
:1025B0001389C18863C4FA00EFE0AFF18145138548
:1025C00041B5B9298327090095C7938441898C4077
:1025D000138541B5B385BB02A2954929EFF08F82DF
:1025E00083270900FD172320F9009C408507B3E7E6
:1025F00087039CC0EF204043EFE01FEBEF10F01982
:1026000075B7EFD2FFC2138541B549206FD09FC483
:10261000EFD21FC23754004093055052130504C037
:10262000EF30500F39C19387012383A60708035663
:1026300044C083A547081387160042061377F703A3
:1026400041826306B700BE9690A223A0E70883A745
:10265000019937550040938747069305505213055B
:1026600005C023A2F18CEF30B00E37540040930523
:102670006062130504C0EF30F00919C5930560626C
:10268000130504C0EF30D00C6FD0DFBCEFD25FBABF
:102690009307C559232AF548B71501009307001081
:1026A0002A84232CF5482310050023010500938577
:1026B000C5E11305C549EFB0B05985472300F46A59
:1026C00083A701999387077D232EF4686FD09FB865
:1026D000EFD21FB3130A452341112A845285AE89D4
:1026E000EF50C00471E54E85EFB090579307C44793
:1026F00001493EC4130BE002B71B0100371C010067
:10270000B38AA900B71C0100371D0100930D54487E
:10271000A2455285EF504008AA843DE18307544802
:10272000A5C3E38767FF8347444813F767006DF34A
:10273000032644490307060011E36E860327446A13
:1027400005094209135909011DE3C18B95CF9385F2
:10275000CCCA5685EF60C04DCE8513050DCBEF601A
:10276000E04ACE852285AD3729ED23800A008327F4
:10277000446A09476398E7028317846AE39A27F952
:10278000268541016FD09FAB9385CB8F328532C6B2
:10279000EFB0304E69DD3246CE8513054CCCEF608C
:1027A000E046F1B70547E395E7F62314246B8DB7B0
:1027B000AA84AA8537150100130585CDEF60004571
:1027C000C1B7AA8475BFEFD2BFA641112E85B285CD
:1027D00032C6EF40B0752A84324601E93715010050
:1027E000B285130505CFEF606042228541016FD0AD
:1027F0007FA6EFD2FFA341112E85B28532C6EF40EE
:10280000B07932468307960091E3114541016FD0BC
:102810007FA4EFD2FFA1117191672A84938707A348
:102820001306B00F814548003EC0EFD07FA38A85D4
:102830002322046A2285EFF0BFE911616FD09FA1C6
:102840003C218DEFEFD2DF9E930545002A840145A0
:10285000EF405031AA8509C937150100130545C657
:10286000EF60C03A6FD01F9F3715010081451305F7
:1028700085C8EF60A03985473CA0EDB78280A300F2
:1028800005002301050082803C2199C385471CB1C6
:1028900082801C3199C3A30005008280EFD25F992A
:1028A000411174001305852502C6EF40304419C557
:1028B00037150100130545DCEF6040353245410115
:1028C0006FD05F993C21A5CFEFD29F9641112EC6C4
:1028D000130485250DCE37150100130585D0EF6053
:1028E000E032B24505462285EF40D029AA8511C9BC
:1028F00037150100130585D2EF60403141016FD0DB
:102900007F95371501008145130545D4F5B7371577
:102910000100130545D6EF60602FB2452946228598
:10292000EF405026AA8511C537150100130585D83B
:10293000E1B7371501008145130545DA75BF82807F
:10294000EFD21F8F85473CB10146EFF0BFF76FD044
:102950007F90EFD2FF8D2E85EF40B06A01C9AA8526
:1029600037150100130585C2EF60402A6FD09F8E96
:10297000EFD21F8C3C2195CF2A8437150100130517
:1029800085DFEF60A02883250426370501001305A5
:10299000C574EF60A0271305F002EF50502C83257B
:1029A000442637150100130505BEEF6020266FD0C1
:1029B0007F8A371501001305C5E0EF602025C5BFEC
:1029C000EFD21F872E852E84EFB09029AA8493051D
:1029D000E0042285EFB0502615ED1385F4FF229513
:1029E000B5471CB1A9473CA1A3010500370501006B
:1029F00013050571EF60802137150100130505C42B
:102A0000EF60C0203715010013058500EF6000203E
:102A10006FD05F849305A002EFB010227D15C9B777
:102A200091E98347056A8DC383A701990327C56987
:102A300063ECE7003C212300056A99E7EFD24FFFE2
:102A4000EFF01FE06FD01F818280EFD26FFE930402
:102A500085252A842685EF4070412685EF40D04B9E
:102A600023000400A30104006FD0CFFEEFD24FFC7F
:102A7000370400208347445705498DC7AE84B715F6
:102A80000100938505DE2685EFB0B01E1DE5130518
:102A90004457A685EFF0DFF2130444573C3091C74A
:102AA000EFE05FB64A856FD0EFFA370501001305F6
:102AB000857CEF60A0150149F5B713054457EFF089
:102AC000DFF837150100130545DEEF602014D9BF8C
:102AD000EFD20FF609472322E56A2314B56AB285BF
:102AE000EFF01FBF6FD00FF7EFD28FF4854723228F
:102AF000F56A2A84EFF0DFBD8315846A371501007B
:102B0000130505BEEF6080100355846A6FD08FF403
:102B1000EFD20FF29305F0021305C549EFB0D011C3
:102B2000133515006FD00FF3EFD28FF01305C549A1
:102B3000EFB010126FD00FF2AA870385070063056C
:102B4000B50001CD8507D5BF2E8581C9238007003B
:102B50008507038707007DFB05458280EFD24FED97
:102B60009305F0021305C549EFF01FFD6FD08FEEFE
:102B7000EFD20FEC2E849307C549B71501003E85AF
:102B8000938545D0EFB07009A285EFB010096FD0E2
:102B90006FECEFD2EFE92A84EF103046EF1050547B
:102BA00013058425EF405037A3000400EF10904F29
:102BB00037150100130585C5EFD05FCA6FD08FE9C7
:102BC000EFD20FE4939A2600330B56013971832418
:102BD0000B00BA89330755012E893E8C0C4383477D
:102BE00001082A8A268542CAC68C3ED032C2EFA08E
:102BF000004C12468A0933073A01B3073601804375
:102C00000C432AC422853EC20A0CEFA0404AB307F7
:102C10008901B30B8A0183A50B002AC68843EFA064
:102C2000F06A8327C900A2452AC83ED48327CA0078
:102C30003ECCB7070080BD8C3D8CB307590188435B
:102C4000EFA0D068B30739012A8DB2458843EFA0C1
:102C5000F067AA8DEA852685EFA0103EEE852AD67C
:102C60002285EFA0703DB257AA853E85EFA0204493
:102C7000EE852AD62685EFA0303CEA85AA8D2285EE
:102C8000EFA0903BAA856E85EFA05064B257BE8539
:102C9000EF608059930500002A8DEFA0303163501A
:102CA00005026A85EFB08043B717010003A607E26B
:102CB00083A647E2EF80805DEFB0004D2A8D8257FA
:102CC00099CF6A85EFB08041B717010003A607E2EC
:102CD00083A647E2EF90900BEFB0004B2A8DC247DE
:102CE000139517000581EFB0603F2AD02ED26A8578
:102CF000E685EFA07034EFB0603E02569256EF606A
:102D0000603AEFB06048AA8DEFB0403DB7170100C0
:102D100003A687E283A6C7E2EF9060306346051CF6
:102D20006E85EF600023EFB0C01C931D050193DD9D
:102D30000D0163930D00854D6E85EFB0E020AA8CE8
:102D4000AA856A85EFA0406D2A8D4245E685EFA0F1
:102D5000A06CE2452AC82255EFA05057E685EFA0A7
:102D6000A06B2AD46A85EFB06037B716010003A6BE
:102D700006E383A646E32ACC2ECEEF90A035624729
:102D8000F2473A86BE86EF90E034B71701002A86F4
:102D9000AE8603A587E383A5C7E3EF90207FEFB05E
:102DA000A03E03A70B009C00E29723A8E7FE0327A1
:102DB000CA00AA8C054A3ADE980056973ACC980089
:102DC0004E97814B3AD03E8C93170A01C18363F32F
:102DD000B711E14763CC7709EA852685EFA0D025B6
:102DE000AA89E6852285EFA03025AA854E85EFA029
:102DF000002CAA89E6852685EFA01024AA84EA85FE
:102E00002285EFA07023AA852685EFA0304C138879
:102E10001B00931B8801AA8493DB8B414E84A2453F
:102E20002685050AEFA0A028E247B24523A8A7FE01
:102E30002285EFA0C0278257C24523A8A7FE0325FD
:102E40000CFFEFA0C0262328ACFEA2557255EFA0C0
:102E500000262ADE0818EFE06FC152475C017418A3
:102E600030184C180818EF00E059B9BF5285EFB080
:102E7000A00DEA85EFA0501C2A84EF604005AA89C6
:102E80002285EF60C01983270B0037070080AA8ACC
:102E9000B3CBE7009247CE855E858043EFA0D01983
:102EA000AA84D6852285EFA03019AA852685EFA0B1
:102EB0000020D685AA845E85EFA01018AA8ACE8548
:102EC0002285EFA07017AA855685EFA030402A848E
:102ED000814BB1B752475C019306C90013068900C4
:102EE000930549004A85392B21616FD02FB5EFD268
:102EF0002FB12A84485D4111AE8B328BEFB0201187
:102F00002A89284083298404EFB060102A8C4E85DA
:102F1000EFB0800393050000AA8CEFA0007B630054
:102F2000051ECA854A85EFA03011AA84E285628514
:102F3000EFA09010AA852685EFA05039EFB0001AB7
:102F40002A8A6685AE8AEFB060192A86AE86EF803F
:102F5000E0332A86AE865285D685EF803026EFB0E4
:102F6000A022EF509069EFA0B072AA846840EFB041
:102F7000000AAA8A33053041EFA0107D93050000B6
:102F8000AA89EFA08074630F0516D6855685EFA039
:102F9000B00A2A8ACA854A85EFA0100AAA855285F6
:102FA000EFA0D032EFB080132A8D4E85AE8DEFB0FA
:102FB000E0122A86AE86EF80602D2A86AE866A856C
:102FC000EE85EF80B01FEFB0201CEF509078032A01
:102FD0000401EFA0F06BB3099A403385A940635F09
:102FE000050A930500006685EFA0206E630F0510AB
:102FF0006685EFB0A00E2A86AE862A8DAE8DEF8054
:10300000E0282AC452852EC6EFB06000EFB0000D54
:103010002247B2472A86AE863A85BE85EF90800B5E
:103020002AC42EC66285E285EFA01001EFB0000B26
:103030002247B2472A86AE863A85BE85EF90005574
:103040002A8CAE8C5685D685EFA0007FEFB00009A4
:103050002A86AE866285E685EF804023B717010099
:1030600003A687EA83A6C7EA2A8CAE8C6A85EE851A
:10307000EF9040062A86AE866285E685EF801014C2
:10308000EFB08010EF507057EFA09060AA846353A8
:1030900005008144014563E34401D284996773903C
:1030A000078083470405E207E187B1E344C8AA9497
:1030B000DE8504CC4A85EFA02078EF501054EFA0B5
:1030C0005063930780076374F50013058007DA8562
:1030D00028C04A85EFA04076EF503052EFA07061D3
:1030E000930780076374F5001305800768C099672C
:1030F000938787087390078041016FD02F94130541
:10310000000085B513050000C9B5130500009DBF7B
:10311000EFD20F924111AA842E8532C6EFA0C07162
:103120002A84A6852685EF9090783246B285EFA056
:10313000A070AA852285EFA07019EF60000F4101F1
:103140006FD04F91ADC925CAEFD2EF8C2E8403A961
:10315000C5020854B284CA85EFA0205721C1834715
:103160009403B9E703AA84024A85D285EFA0A05B45
:103170006350A00448581058B7090080D2853345E1
:103180003501EFF0FFF8AA854A85EFA02062635968
:103190000500485408D48547230CF4026FD0EF8A09
:1031A000485810588C5433453501EFF07FF6DDB7A1
:1031B00023242403CDB78280EFD2EF859387018D3E
:1031C000982319677310078003C9118D13078708A7
:1031D0001379F90F73100780982333072741318B38
:1031E0000DCF8023014675143D888149138A812EB5
:1031F000930A4005630324036204618411E041449F
:103200007D141374F40FB3045403CE85D294268531
:10321000EFF05FF34E86A689F1BF6FD00F8335C5FF
:1032200083479503BDE3EFC21FFF032A850283A9ED
:103230008502AE842A84CE855285EFA02057635B39
:1032400005024858105837090080D28533452501BA
:10325000EFF01FECAA854E85EFA04055635E050098
:1032600080548854A285EFA0404609C5854780D484
:10327000238CF4026FC07FFD485810580C5433451E
:103280002501EFF0FFE82A84E9BF8280EFC2BFF892
:1032900003C4118D81441374F40F01459389812E69
:1032A000930A4005414B9387018D9C236304F402EC
:1032B0003309540305046204A68561844E994A8645
:1032C000EFF0FFF563136401014426851374F40FD6
:1032D000CA84D1BF0146A685EFF07FF46FC0FFF628
:1032E000EFC29FF283C4118D4111E204E1840144D5
:1032F0009389812E130A4005C14B9387018D9C232E
:103300006389F404338944034E9905CC83478403CD
:1033100081E78347890395C7B3874403832A44021F
:10332000D685CE978857EFA0200F2AC60854D68599
:10333000EFA0800E3246AA852285EFF05FBB230CFA
:1033400004028504E204E1846393740181444A84A5
:103350006DB70DCC44502685EFA05058B71701002B
:103360002A86AE8603A507EB83A547EBEF800065B1
:10337000EFA090612AC60854A685EFA0E009324666
:10338000AA852285EFF0BFB6230C040241016FC06D
:103390003FEBEFC2FFE9EFF03FE2EFF03FEFEFF07E
:1033A0003FF46FC03FEB2388018CA388018CB717D3
:1033B00000209387872623A0070023A2070023A4C9
:1033C000070023A607009387812B1307000098C3EB
:1033D000D8C398C7D8C723A4E18C82809386118D67
:1033E0001387018D8C2210231376F60F630BB60022
:1033F0009C2293F7F70F14236385D7008507BD8BB5
:10340000DDBF8280EFC2DFDFBA8C3E8B9387018DF8
:103410009C2359711387018D8507E207E1873EC61A
:103420003ACA3247C147AE8BB28936896313F70077
:1034300002C69387118D9C233247631BF7002AC86D
:10344000EF502001EF10405EEFE00F864245D5B708
:103450009384812D8C40084137040100138A812D0B
:10346000EFA0803D8325846CEF907044EF50702E68
:10347000EFA01022CC40AA8A03A50B00EFA0C03B0E
:103480008325846CEF90B042EF50B02CEFA0502019
:103490008C44AA8B03A50900EFA0003A8325846C15
:1034A000EF90F040EF50F02AEFA0901ECC442A8C11
:1034B00003250900EFA040388325846CEF90303F4E
:1034C000EF503029EFA0D01CB717002013878726B4
:1034D000584722C83ED42A89938987266304E50A7F
:1034E00083C7018A138741968A07BA978C4303A53D
:1034F0008181EFA040236356A00237050100130528
:10350000056A23A62901EF506070371501001305E5
:1035100085E6EF50A06F3715010013058500EF50C9
:10352000E06E83A7C900B307F94013D5F741A98F0F
:103530003385A740EFA05021B717010083A507E40A
:103540002A840325CA00EFA0202FAA85EF903036E9
:10355000AA852285EFA0201D6356A0023705010031
:103560001305056A23A62901EF50406A37150100AB
:10357000130545E8EF5080693715010013058500F4
:10358000EF50C068D24713074005802383A5090088
:103590009387812E1374F40F3307E4029384812EF2
:1035A000BA97238807042380070263D5BA0005472A
:1035B0002380E70203A5490063DDAB001307400544
:1035C0003307E40226978347070293E72700230087
:1035D000F70283A68900635DDC001307400533070B
:1035E000E40226978347070293E747002300F70288
:1035F00003A7C900635DE900130640053306C40252
:1036000026968347060293E787002300F602B387D6
:10361000BA4013D6F7413348F6003308C840338622
:10362000AB409357F6413D8EB306DC401D8E93D7D9
:10363000F641BD8E3307E9409D8E9357F7413D8F8C
:103640001D8F83A7C18093084005B3081403330777
:10365000F70293074006A69823A0080123A2C800FA
:1036600023A4D800B347F702368723A6F80063D314
:10367000F6003E876347C7786346070163D5D700E6
:10368000B68711A0C287130740053307E4029546A9
:1036900026971CCB63FBF65C83A7818A7CC7834794
:1036A0000B00A300F7026388BA000146C145371535
:1036B0000140EF40D01B93074005B307F402A697E3
:1036C000DC4399C70146C14537150140EF40301A28
:1036D00093074005B307F402A6979C4799C7014694
:1036E000C14537150140EF409018130B4005330BCF
:1036F0006403269B8327CB00639C075603AB818E14
:10370000E6855A85EFA020026343A000668B03A5DF
:1037100009003385AA40EFA0300383250A00EF900B
:10372000B04FAAC82AD003A549003385AB40EFA00B
:10373000B00183254A00EF90304EAACA2A8D03A516
:1037400089003305AC40EFA0300083258A00EF905C
:10375000B04CAACCAA8C03A5C9003305A940EFA0A0
:10376000A07E8325CA00EF90304BAA8903A5C180B3
:10377000EFA0807DAA854E85EFA0000CB717010051
:1037800083A50789EF90504993074005B307F402DA
:10379000AACE15478256A69790436368C74ED0437A
:1037A0006365C74E90476362C74E0605058188DB97
:1037B00093074005B307F402370A010003250A6E98
:1037C000A69783AC0703E685EF901045DA85EFA056
:1037D000A006D2471387118D9C23182352D0AA89A3
:1037E000998F93F7F70F13FBF7003ECC1307EBFF0E
:1037F000954763ECE706EFA0700EB71701002A8625
:10380000AE8603A507E583A547E5EF80201BB71724
:10381000010003A607E383A647E3EF703027EF50CC
:103820004048EF90C0542A8A03A5418E637FAA02C4
:1038300033054541060533556503EFA0407DC2477A
:1038400083A5876CEF90B006EF50A0702AD2528506
:10385000EFA0E07B9255EF909005B7170100AA8585
:1038600003A547E4EF90503BAA89130A4005330AA9
:103870004403CE856685EF90307CAA8D014D269A53
:103880002322AA0203250A01EFA06078CE852A8BA5
:10389000EF90907AEF506056EFA0A06582573707FF
:1038A0000080232EAA0203AA076E9347F7FF37175B
:1038B00000203ED6930787252AD23ED89C0833871E
:1038C000A7010C434E85EF9030779C103387A701FA
:1038D000B25708C33377F500C257BA853ADEB386CC
:1038E000A7019442368536DCEF90506C6350050298
:1038F000E25672573685BA85EF901032D2852ADCAF
:10390000EF9070626344A00062573A8A110DC1477C
:10391000E316FDFA8257528583A5076EEF90106972
:10392000635405049309010603A50900D285910992
:10393000EF90907023AEA9FE9C18E39737FF930990
:103940004005B3093403D2856E85EF90F06EA699D9
:1039500023A2A9021255EFA0806BD285EF90D06D03
:10396000EFA0205923AEA902130A4005330A4403ED
:10397000E6855A85EF90502AAA89269A832D0A0057
:1039800063930D3483274A00639F073283278A009D
:10399000639B073283A5C18EEF90106AEF50E0451C
:1039A000EFA020552324AA04130A4005330A440338
:1039B000269A03258A04EFA08065CE852A8BEF9096
:1039C000B025232AAA025A85EFA04071B71701003B
:1039D00003A687E583A6C7E5EF80C06FEF90A0320E
:1039E000C247232EAA0003A5818D83A5876C138D62
:1039F000818DEF907064C2472A8A03A5C18D83A58B
:103A0000876CA65CEF90506393951C008581AA8912
:103A1000EF90D0599387C18D3ED263590500D2856E
:103A20004E85EF9050506343A0004E8AC24703A5D5
:103A3000418D83A5876C365BEF90106093151B005A
:103A40008581AA89EF9090569387418D3ED6635920
:103A50000500D2854E85EF90104D6343A0004E8A3D
:103A600093074005B307F402D285A69783A94702BE
:103A70004E85EF90504B6343A0004E8AE247138778
:103A8000818CB98B3AC8D289638C071283290700CD
:103A90004E85EFA0A064B717010003A607E683A632
:103AA00047E6EF80E04C635CA0349387812B8C4326
:103AB0000655EFA0A001EFA060629387812B2AD862
:103AC0002EDA1655CC43EFA06000EFA020612A86C5
:103AD000AE86EF8020604258D2582ACC4286C686F5
:103AE00042852ECEC685EF80E05EF24762472A8689
:103AF000AE863A85BE85EF706079EF506067EFA0C3
:103B0000A06893074005B307F402032D0D00AA85B2
:103B10002AD86A85A697DC533ECCEF903049635C87
:103B2000052C42576A85BA85EF90100F2A8D93872E
:103B3000812B8C476685EF9070799257931C150006
:103B400093DC1C009C43E6853E853ED0EF901046FA
:103B5000635E05008257E6853E85EF90F00BEA85AF
:103B6000AA8CEF90503C6343A000668D9387812B15
:103B7000CC475A85EF909075B257131B1500135B15
:103B80001B0083AC0700DA856685EF903042635DE9
:103B90000500DA856685EF903008EA852A8BEF907C
:103BA00090386343A0005A8DE2456A85EF90D04873
:103BB0002A8BAA854E85EF90703F63430500DA8912
:103BC00093074005B307F402A697C85B23A6370303
:103BD000905BB717010083A587E4B70700803D8D90
:103BE000EFF00FD3CE852A8BEF90F0336343A00024
:103BF000DA89930740053304F4025A85A294C05031
:103C000023A43403A285EF9010321345F5FF8547B6
:103C10007D814146A38CA402238CF4028C10138571
:103C2000812BEFA06074C247A285528580C3EF90BC
:103C3000A07E2AC8A2854E85EF90007E4246AA85C6
:103C40002685EFF0CFAA52471C8641468C001CA364
:103C5000A257D6C0DEC213858726E2C4CAC6EFA02B
:103C6000A070EFF00FF3EF00004465616FC00FDD4F
:103C70000146C14537150140EF40603F8327CB0027
:103C8000E38E07A603AB018EA5BCB6853685EF9003
:103C9000B03AAA89EA856A85EF90103AAA854E85DE
:103CA000EF90E040AA89E6856685EF90F038AA8516
:103CB0004E85EF90C03FEF50405793074005B30744
:103CC000F402A697EDB4930C4005B30C940383A5BE
:103CD000C18C4E85EF905036EF502012EFA060213E
:103CE00003AA812C138D812CA69C23A4AC04EFA0E5
:103CF00000322AD26E85EFA020259257AA853E85F4
:103D0000EF909033DA85EF902071AA8D5285EFA065
:103D10000030AA856E85EF9010216354A00023A483
:103D20004C05930C4005B30C9403032A4D00A69C4C
:103D300003A58C04EFA0A02DAA8D03A54C00EFA035
:103D4000A020AA856E85EF90302FDA85EF90C06CA9
:103D5000AA8D5285EFA0A02BAA856E85EF90B01C8E
:103D60006354A00023A44C05930C4005B30C9403AA
:103D7000032ACD00A69C03A58C04EFA04029AA8DA0
:103D800003A5CC00EFA0401CAA856E85EF90D02A39
:103D9000DA85EF906068AA8D5285EFA04027AA854A
:103DA0006E85EF9050186354A00023A44C05930C2B
:103DB0004005B30C9403032A8D00A69C03A58C0434
:103DC000EFA0E0242A8D03A58C00EFA0E017AA85C0
:103DD0006A85EF907026DA85EF9000642A8B528511
:103DE000EFA0E022AA855A85EF90F013E35EA0BA17
:103DF00023A44C0555BE825703AD076E0DBBD28977
:103E0000C1B3E3410689B2876FF0FF87EFC2AFC04D
:103E10009384812D08412E8A8C40411136C432C6CC
:103E200037090100EF9050218325896CB7190020D4
:103E300013848926EF90A027EF50A011EFA0400532
:103E4000CC4008C003250A00EF90101F8325896C21
:103E5000EF90E025EF50E00FEFA0800332468C4456
:103E600048C00842EF90501D8325896CEF902024B4
:103E7000EF50200EEFA0C001A246CC4408C48842F7
:103E8000EF90901B8325896CEF906022EF50600CBF
:103E9000EFA0000048C49306C400130684009305F5
:103EA000440013858926EF00F0171307000023A4B0
:103EB000E18C9387812B98C3D8C398C7D8C7410199
:103EC0006FC0AFB8EFC2CFB683A5012E084137143B
:103ED000002013048426EF903016B707010083A555
:103EE000876CEF90C01CEF50C006EF90707A08C44A
:103EF00013058400EF0090156FC0CFB5EFC24FB32C
:103F000083A5412E08413714002013048426EF9026
:103F1000B012B707010083A5876CEF904019EF50EE
:103F20004003EF90F07648C41305C400EF00D013AF
:103F30006FC04FB223ACA1808280EFC2CFAD3719E2
:103F4000002001449389812C130989249384812DB5
:103F5000414AB30789008843B38A8900EFA0200B48
:103F6000B38784008C431104EF90100DEF907078AC
:103F700023A0AA00E31F44FD6FC02FAD83C6018DAF
:103F800083C7118D93F7F70F6388D70083C7118D0F
:103F90008507BD8BA388F18C8280EFC26FA99387C0
:103FA000618F9C2393F7F70F1389618F9384718F2F
:103FB0001384818F91EB9C2093F7F70F91E71C20DE
:103FC00093F7F70F6385070C370501001305056AA2
:103FD000EF40D043371501001305C5ECEF40104307
:103FE0008347090093F7F70F8DC7B717002003A584
:103FF0008728EF90707583A5812DEF90E041EFA0A9
:10400000E00D2A8637150100AE861305C5EDEF4099
:10401000F03F9C2093F7F70F95C7B71700209387C1
:104020008728C843EF90507283A5C12DEF90C03E02
:10403000EFA0C00A2A8637150100AE86130545EEAB
:10404000EF40D03C1C2093F7F70F95C7B71700201F
:10405000938787288847EF90306F83A5012EEF90D4
:10406000A03BEFA0A0072A8637150100AE861305F6
:10407000C5EEEF40B0393715010013058500EF405C
:10408000F0382300090023800400230004006FC0DF
:104090006F9C238B018EA38B018E238C018E8280DB
:1040A000238EA1808280EFC2AF98854537050040FE
:1040B000EF10504E6FC00F9A2967130707C49387FC
:1040C000018F636DA7041567130707E2AA8563795B
:1040D000A7048981114737450F001305052433458F
:1040E000B50298A3930730064205418163E5A70412
:1040F000EFC20F94371501004111130585EB2EC651
:10410000EF40D030B24537150100130505BEEF4032
:10411000F02F1305400641016FC0CF93BA8555BFFC
:104120000967130707716376A700935515000947C0
:104130005DB705474DB782807971854537050040E9
:1041400022D626D44AD24ED052CE56CC5ACA5EC8B7
:1041500062C666C46AC26EC0EF107047630305444E
:10416000854537050040EF10104883A7419213841E
:10417000419299EF83C6018D83C7118D93F7F70F95
:104180006398D72E9305007D37050040EF1030432C
:104190001C406388074083C707022388F190858B02
:1041A0001389C1909389019193840182638C0732B2
:1041B00005469305000237150140EF30506BFD575F
:1041C0009CA083C7C181A1CB37150140930500088E
:1041D000130505C0EF10006E83C6C185938741901B
:1041E0003387A6403337E0006386A60294239DC23E
:1041F000144090426350C002371600208325862762
:10420000944A371600202324B6288545238BB18E87
:104210002320D90098A383C70900898B638E072CBC
:10422000371A014005469305000413050A80EF3054
:104230001064FD579CB083C7C181A1CB93050020BA
:1042400013050AC0EF10006783C6D185938751908C
:104250003387A6403337E0006388A60294238DC6D7
:10426000104054426352D002B7160020938686272E
:10427000CC42B716002093868628CCC28545A38BF6
:10428000B18E144A2320D90098A383C70900918BCB
:1042900063800728371A01400146916513050A809B
:1042A000EF30F05CFD57BCA083C7C181A1CB930563
:1042B000004013050AC0EF10E05F83C6E1859387D5
:1042C00061903387A6403337E0006388A6029423C9
:1042D0008DC6104014466352D002B7160020938654
:1042E00086278C46B7160020938686288CC685457F
:1042F000238CB18E144A2320D90098A383C70900C8
:10430000A18B6382072237150140054685451305B9
:104310000580EF30D055FD57B7190140BCB0014AB8
:10432000938B09C0B71A00208387018F184063560A
:10433000FA209387819194431843369798C3635B1F
:10434000E002054691455E85EF3070521440938738
:1043500081919843944A01469145158F98C39C20BA
:1043600013878A271443E207E187B6975E851CC34B
:10437000EF30F04F18409387C191944358433697DC
:1043800098C3635FE0020546930500081385098022
:10439000EF30F04D14409387C1919843944A014601
:1043A00093050008158F98C39C3013878A275443C0
:1043B000E207E187B697138509805CC3EF30304B85
:1043C00018409387019294431847369798C3635DCA
:1043D000E0020546A16513850980EF30504914407D
:1043E000938701929843944A0146A165158F98C31B
:1043F000BC2013878A271447E207E187B697138505
:1044000009801CC7EF30B046184093874191944310
:104410005847369798C3635DE00205468945138582
:104420000980EF30D0441440938741919843944AD7
:1044300001468945158F98C3BC3013878A27544796
:10444000E207E187B697138509805CC7EF303042F9
:1044500083270900184085072320F90083270900D6
:10446000184B63FCE70C050A620A135A8A416DBDBA
:1044700003C7118D93074005B387E7023717002064
:10448000130787D0BA97CA3F05472388E7042388D4
:10449000E7041CC023A00190EFF01FC22399A18E56
:1044A0000387018F2394E1901C4003D50704239ACE
:1044B000A18EEFF07FC023AEA18EAA853705004004
:1044C000EF10F00F1C409C4B8583B307F04023ACEA
:1044D000F19023AEF19023A0F19223AAF19023A6AC
:1044E00001907DB101469305000237150140EF3080
:1044F000103885479CA005B3371501400146930548
:10450000000413050580EF30903685479CB0B5BB9D
:10451000371501400546916513050580EF303035AC
:104520008547BCA0E1BB3715014001468545130511
:104530000580EF30D0338547C5B318408327090085
:10454000544B63EFF606504F83A6C18F9384C18FFF
:10455000B387C602B396C602E183505FA206D58F29
:104560003443B697C207C183239AF18E1387418FD4
:104570006373F60012A30A23EFF01FB4AA89AA8579
:1045800037050040EF10B00388404E9588C01840B2
:1045900083270900184B63E6E70023200400EFF0AF
:1045A000FF9D3254A25412598259724AE24A524B28
:1045B000C24B324CA24C124D824D456173002030EB
:1045C00083270900144F63F2F604544F83A7019028
:1045D0007843938401903385D702B397D7026181E2
:1045E000A2075D8D9317050103D5418FC183637BBE
:1045F000F500131507014181E370E5F81315070174
:1046000041819DBF1D8D4205FDB783D5218F3705A3
:104610000040EF10C07A83D781901387018F1CA3CD
:10462000BDB7EFB2FFC001112A8485450545EF10E3
:10463000804F930730024C08370500403ECAE084A3
:10464000231D0100EF10606A0546854537050040CF
:10465000EF10C0759307C0127C8685475C876800A1
:1046600085473EC8EF10602705616FB0BFBEEFB24F
:104670003FBC930500023715014037140140EF306D
:1046800050221305048093050004EF309021130598
:1046900004809165EF30F020130504808545EF30EC
:1046A0005020C14537150140EF30B01F0546C145C8
:1046B00037150140EF30B01BC14537150140EF30D1
:1046C000501E0546C14537150140EF30501AC1450F
:1046D00037150140EF30F01C0546C1453715014044
:1046E000EF30F018C14537150140EF30901B0546FB
:1046F000C14537150140EF309017130504C09305ED
:104700000008EF30901C0546130504C0930500080F
:10471000EF30F015130504C093050020EF30F01AB8
:104720000546130504C093050020EF30501413050F
:1047300004C093050040EF3050190546130504C02E
:1047400093050040EF30B012130504C09145EF30DF
:104750005015130504C001469145EF305011054630
:10476000C14537150140EF309010130504809305C3
:104770000008EF301013130504800146930500086C
:10478000EF30F00E0546C14537150140EF30300ED1
:1047900013050480A165EF30D01013050480014695
:1047A000A165EF30D00C0546C14537150140EF300B
:1047B000100C130504808945EF30B00E13050480FA
:1047C00001468945EF30B00A0546C145371501401D
:1047D000EF30F00913054006EFF0BFE485453705DB
:1047E0000040EF10205B0547238EE1809967938797
:1047F0008708739007806FB0FFA5EFB27FA303C750
:10480000018D83C7118D93F7F70F6395E70083A799
:10481000419299C7EF30F043012CEFC0FFC8C5B7F4
:104820006FB05FA31967731007800841B7170020A6
:104830009387872788C38C4113078708CCC310420E
:1048400090C79442D4C77310078082809967739091
:1048500007801441371700201307872714C7938751
:10486000870873900780828099677390078014414E
:10487000371700201307872754C79387870873903B
:10488000078082809967739007801317250037157A
:104890000020130585273A95084193878708739070
:1048A00007808280EFB2DF98EFF03FF50546C14503
:1048B00037150140EF30A07B0546C1453715014053
:1048C000EF30E07A0546C14537150140EF30207AD8
:1048D0000546C14537150140EF3060796FB09F97AD
:1048E000EFB21F95814537050040EF10A04A03C77E
:1048F000018D83C7118D93F7F70F639BE700854503
:104900003705004023A20192EF10C0486FB09F947A
:10491000EFF0CFE6E9BFEFB2BF9183A5C182B71731
:10492000010003A5071BEF80302F23AEA1926FB0CB
:104930007F926355050003C58193828093874195DB
:10494000AA9788238280EFB21F8D41112A849DC5CA
:1049500037050100130505712EC6EF40202BB24527
:1049600037150100130505C8EF40402A371501002F
:10497000130585F3EF408029EFC09FAC4567930690
:10498000471B85471307471B7D4683994600635E97
:1049900034059386F7FF8A068A07BA96BA978394F6
:1049A00026000395270003990600058DEF90C05956
:1049B0002A8A33052441EF902059AA855285EF8039
:1049C000B0672A8433852941EF900058AA85228553
:1049D000EF8090242A842685EF900057AA852285AF
:1049E000EF80E06C41016FB05F8685079106E39E22
:1049F000C7F813050000FDB7EFB29F8303A5019729
:104A00008145EFF05FF423A2A1961307000023A4D1
:104A1000E1969967739007802382019493878708B2
:104A2000739007806FB01F8383C7419493F7F70F8C
:104A3000638C071AEFB24FFDEFF01FFC83A4419681
:104A400003A94197138481954A85EF90E04FA6858D
:104A5000EF90C007B717010083A5078CAA89EF80E4
:104A6000904C6352A00685471CA0B717010003A411
:104A7000071B03A5019513894195EF90E04CA6858E
:104A8000EF80D0526359051403A58183EF90C04B8A
:104A9000A685EF8050496350A0142285EF90403FD7
:104AA00005852300A90093878194984383A60199E3
:104AB000998E0567130777BB6375D70003A7019924
:104AC00098C36FB0EFF7B717010083A5870D4E8528
:104AD000EF80D04D634405006317090085471CA093
:104AE0001304000079B71C201389019399C7930719
:104AF00000002320F9002300040083A501834E85D4
:104B0000EF809053832509002A8A4E85EF80205A32
:104B100003A40194AA89A285EF805049634B050044
:104B200003A4C1934E85A285EF80F03F6343A000AC
:104B30004E8483A5C182232089002285EF80D04F37
:104B40001384C1920C40AA8A2685EF80307883A511
:104B500081821389C194EF80304EEF902058B717AF
:104B6000010003A6070E83A6470EEF70A0562A8BFE
:104B700003250900AE8BEF906056B717010003A61E
:104B8000870E83A6C70EEF70E0542A86AE865A853C
:104B9000DE85EF60A06FEF90205FAA892320A90037
:104BA00004C0D6855285EF808050CE85EF8010728C
:104BB000930500002A84EF80703FE34305F2B717A6
:104BC000010003A9071B2285CA85EF80D035E35277
:104BD000A0EA4A8479BD371501001305050F2300AB
:104BE0000900EF40A002C1B58280EFB26FE4130765
:104BF000000023A0E19483A5C182B717010003A59B
:104C0000071BEF80700123AEA1929145371501403B
:104C1000EF3020490146894537150140EF30C04546
:104C2000EF30E054595723A8E194B717010003A9C6
:104C3000870D1384418308408145EFF0DFD0CA859A
:104C4000EF80D036635605001C40C1171CC0D5B795
:104C50001307A00F23ACE182B717010003A9C71AFD
:104C60001384419308408145EFF0FFCDCA85EF8062
:104C7000902B6356A0001C40C1071CC0D5B72D4522
:104C8000EF30A0306FB00FDD8280EFB26FDA23AA71
:104C9000019623AC01960146914537150140238AC0
:104CA0000194EF30C03C6FB0EFDAEFB26FD53971DD
:104CB00083AA019932CA854763DBB7003715010023
:104CC000130505F7EF30907421616FB02FD72A8C50
:104CD000371501001305C5F9AE84EF303073EFF0DE
:104CE000DFFA63DA0414130700F8238CE192930BC4
:104CF0000008B717010003AB87F5930700003EC615
:104D0000BE89B717010003A8C7EA83A787EA5E84B4
:104D100042CE3ECCB717010003A847F683A707F69B
:104D20005E8A42D23ED0B717010003A847E383A7AB
:104D300007E356C442D63ED4B717010003A8C7F60E
:104D400083A787F6D68D02C8854C02C23ED842DAC8
:104D500003CD4194137DFD0F63000D28EFF0DFC9F3
:104D600063C4040E9397240013874196BA9783A9CE
:104D700007003245CE85EF80101B6343A0004EC66E
:104D8000CE855A85EF809022634305004E8B638168
:104D90000C04E2854E85EF801019635FA022A247C4
:104DA00003A701991D8F85679387873863F6E722EC
:104DB000B3078A40858793F7F70F63DA0408238CDB
:104DC000F19283AA0199A24762C6B387FA403EC80E
:104DD000E2854E85EF80901D814C635F051E03A721
:104DE000019985679387873833075741814C63F56D
:104DF000E71E83A701993EC492476351F01CA24766
:104E00004247B3875741B38CE700B307F740338479
:104E10008702CD4733449403529463D0871E63DDE9
:104E2000042A9307C00E63C987029307F00F228AF2
:104E300063C88B020DA893874195A6971307F007C7
:104E400098A3930BF00775B583A981961DB71387B7
:104E5000419526971CA3B5B71304C00E9307F00F16
:104E6000228A3384874037150100D285130505FB5C
:104E7000EF30D05937150100A285130505FCEF303E
:104E8000F0585A85EF9080252A8637150100AE86A6
:104E90001305C5FCEF3090573245EF9020242A8649
:104EA00037150100AE86130585FDEF3030561247E9
:104EB000894763D5E7106685EF900009B7070100C1
:104EC00083A5476CEF804055AA8C2285EF70F06F68
:104ED0006246F246EF7000202ADC32452EDEDA858B
:104EE000EF80D03EEF90801F02569256EF70801EEA
:104EF0002256B256EF70001E6257F2572A86AE86CF
:104F00003A85BE85EF60902BEF900028EF90001D52
:104F10002A862ADC37150100AE86130545FE2EDEF3
:104F2000EF30D04E6685EF90601B2A863715010062
:104F3000AE86130505FFEF30704D6257F2574256AB
:104F4000D2563A85BE85EF70E018EF90E0232A8BA9
:104F5000371501001305C5FFEF30504B5A85EF9010
:104F6000E0172A8637150100AE861305C500EF301D
:104F7000F049DA855A85EF808013E685EF80C049D5
:104F8000EF90C0152A8637150100AE8613058501FE
:104F9000EF30D047DA856685EF80100AB717010039
:104FA00083A5C7F5EF805009EF9040132A86371587
:104FB0000100AE8613054502EF305045B3078A0065
:104FC000858793F7F70F63DD0402238CF1929247F4
:104FD000628BEA8C85073EC2B717010083A5478C18
:104FE0006285EF80C00CCE85EF80407C635F05005A
:104FF0003715010013050503F1B1514A5144A5B518
:105000001387419526971CA3D9B783A70199130746
:10501000007DB387B7416372F70637050100B71DFE
:10502000010063D004081305857C03CD8193EF3024
:10503000F03D1385CDFBEF303042371501001305ED
:10504000C505EF30B03C4E85EF9040092A863715F4
:105050000100AE86130505AAEF30503B371501005D
:1050600013058591EF30903A37150100EA85130555
:1050700005BEEF30B03983AD019983A7019903A72D
:105080000199BA972247B3875741998F3757120032
:10509000130707F86379F702371501001305450672
:1050A00015B193874195A6971305857C03CD07001D
:1050B000EF30D0351385CDFBEF30103A37150100B6
:1050C00013054590BDBF92475247E353F7C83715C4
:1050D000010013054508FDB69307B00E63D787009E
:1050E0001304B00E9307E00FA5BB9307E00F81B345
:1050F000EFB20F942A84EFF05FB9EFC02FC605E539
:105100003705010013050571EF30503037150100E8
:10511000A285130505C8EF30702F37150100130560
:10512000C510EF30B02EEFC0EFBF6FB0AF92EFB24F
:105130002F902A84EFF07FB5EFC04FC205E5370509
:10514000010013050571EF30702C37150100A285A1
:10515000130505C8EF30902B371501001305C51353
:10516000EF30D02AEFC00FBC6FB0CF8EEFB24F8CB4
:10517000EFC0CFBE09ED3705010013050571EF3013
:10518000F028371501001305C516EF303028EFC0A1
:105190006FB96FB02F8C411122C63704004085458E
:1051A0001305044026C44AC2EF0070426300051292
:1051B000130504408545EF00104383C7C183138462
:1051C000C18393849195C1E783C741959CA095EBDA
:1051D0000146914537150140EF2070691C201D479D
:1051E00085071CA083C7B1959384A1951384B195BD
:1051F0006361F71245678A07130747EFBA979C4325
:1052000082870546914537150140EF2050660146DB
:10521000914537150140EF209065054691453715BA
:105220000140EF20D0643729014001468545130530
:105230000980EF20D0630546854513050980EF20DE
:1052400010630146854513050980EF2050629820C0
:105250001C20E3E5E7F8ADBF85471CA09820BD47BB
:1052600063FCE702138741941023938641941376DD
:10527000F60F1387C1959387019619E60C4323A86F
:10528000B1968C4323A6B196054690A223800400D4
:105290002320070023A0070083A6019903A6819974
:1052A000918E1306007D6373D60883C6819293F6B0
:1052B000F60FADEE370501001305857CEF301015B4
:1052C000371501001305C5FBEF3010193244A24415
:1052D0001249410173002030372501401305054074
:1052E00031239387C195984309852A9798C38947A5
:1052F000ADB78D479DB791478DB79547B9BF9947D2
:10530000A9BF9D4799BF9C202300040085079CA04E
:10531000B1B73705010013050571EF30300F3715B0
:105320000100130545F1EF30700E0DBF03A7019981
:1053300083A78199B307F7401307007DE378F7F857
:1053400083C7819293F7F70FD1D323840192BDBF16
:10535000EFA21FEEEF809058B717010003A607F3E6
:1053600083A647F3EF601057EF8010626FA09FEEA7
:10537000EFA21FECEF809056B717010003A607F3CA
:1053800083A647F3EF608063EF8010606FA09FEC0F
:10539000EFA21FEAEF809054B717010003A607F3AE
:1053A00083A647F3EF608061EF80105E6FA09FEAF5
:1053B000EFA21FE8EF809052B717010003A607F392
:1053C00083A647F3EF601051EF80105C6FA09FE859
:1053D00073002030EF20C052AA8537150100130555
:1053E0000523EF30B002EF200052AA8537150100E7
:1053F00013050524EF309001EF202050AA853715C2
:10540000010013050525EF30700001A0B717024019
:105410009843B706FFF841111367170098C3D843A4
:1054200037060200758FD8C39843B706F7FEFD16FE
:10543000758F98C39843B706FCFFFD16758F98C308
:10544000D843B70681FFFD16758FD8C39843B706BA
:1054500000ECFD16758F98C33707FF0098C723A689
:10546000070202C402C69843C166558F98C3B71697
:10547000024005679C42F18F3EC6A24785073EC4A5
:10548000B24781E7A247E397E7FEB71702409C4384
:105490001397E7006357070685473EC6324785479F
:1054A000631FF704B7170240D843B706C1FFFD16C4
:1054B000D8C3D843D8C3D84313670740D8C3D84309
:1054C000758FD8C3D843B7061D00558FD8C39843EE
:1054D000B7060001558F98C3984393166700E3DD24
:1054E00006FED843B7160240719BD8C3D843136752
:1054F0002700D8C32147DC42B18BE39EE7FE410180
:10550000828002C661BF01A001A001A001A001A08C
:1055100001A001A001A001A001A001A001A001A083
:1055200001A001A001A001A001A001A001A001A073
:1055300001A001A001A001A001A001A001A001A063
:1055400001A001A001A001A001A001A001A001A053
:1055500001A001A001A001A001A001A001A001A043
:1055600001A001A001A001A001A001A001A001A033
:1055700001A001A001A001A001A001A001A001A023
:1055800001A001A001A001A001A001A001A001A013
:1055900001A001A001A001A001A001A001A001A003
:1055A00001A001A001A001A001A001A001A001A0F3
:1055B00001A001A001A001A001A001A001A001A0E3
:1055C00001A001A097B1FF1F9381C14517B1002031
:1055D000130141A317D50000130585C397B5FF1F1D
:1055E000938545A21386818663FAC5008322050050
:1055F00023A0550011059105E3EAC5FE13858186B8
:1056000097C5FF1F938505F26377B500232005003A
:105610001105E36DB5FEFD42739002BCAD4273907F
:105620004280B76200009382820873A0023097B272
:10563000FFFF9382A2A093E2320073905230EFF00A
:10564000FFDC97D2FFFF938262F5739012347300F0
:105650002030EFA2FFBDB727014093870740631CAE
:10566000F500854513050020F1298145130500202B
:10567000D1296FA03FBEB737014093870780E31A57
:10568000F5FE854513050040752981451305004049
:10569000C5B75C413707F1E01307F7EF944D7D8FF5
:1056A0009C41D58FD44DD58FD441A206D58FD98FAB
:1056B0005CC11C4537F7F1FF1307D77FD4457D8FB9
:1056C0009C49D58F94458606D58FD98F1CC55C55CE
:1056D000370710FF7D177D8FDC29FD1793F7F70F34
:1056E000D207D98F5CD582801C4589C593E7170006
:1056F0001CC58280F99BEDBF1C4593E787001CC544
:10570000828008450D81058982801C4593E747000A
:105710001CC5828008450981058982801C4591C588
:1057200037075000D98F1CC582803707B0FF7D171F
:10573000F98FD5BFA54763F7B7048D47138765FF7A
:105740003307F7020328C5009D47B397E70093C7C7
:10575000F7FFB3F70701B396E600DD8E54C599470E
:1057600063E3C70495477D163306F6025859FD4793
:10577000B397C70093C7F7FFF98F3396C5005D8EC7
:1057800050D982800D473387E502032805019D47E4
:10579000B397E70093C7F7FFB3F70701B396E600A7
:1057A000DD8E14C96DBFB14763E2C7029547651628
:1057B0003306F6021859FD47B397C70093C7F7FFA2
:1057C000F98F3396C5005D8E10D9828095474D16AE
:1057D0003306F6025855FD47B397C70093C7F7FF46
:1057E000F98FB395C500DD8D4CD5828068454205A3
:1057F000418182809C4513F7070113F8F70001C728
:10580000D8413368E8008E2113F7F50F39C31841EA
:105810008146854E3D4F930F800293028004214EB6
:105820003396DE00B3F8C500631116039398260083
:1058300033131F011343F3FF3377E300B318180149
:1058400033E7E800639FF70550C98506E39AC6FD74
:1058500018C11307F00F6375B70454412146854EF4
:105860003D4F930F800293028004414EB398CE00C7
:1058700033F715016392E80213172600011733135B
:10588000EF001343F3FFB376D3003317E800D98E4C
:10589000639DF701232A15010506E319C6FD54C1CE
:1058A0008280E39457FA10C94DB7E39757FE232837
:1058B0001501DDB708456D8D3335A00082800CC918
:1058C00082804CC98280AD67373700409387A7AA92
:1058D0001CC3828023AEA19682809387C197944394
:1058E000182181E63C21920721A894430546639F35
:1058F000C6023C21103192076314D60093E707F8E3
:10590000B7E600E093F7F70FBA962380F640854696
:10591000935757003397E6005441A5C29387070475
:105920008A07B7E600E0B69798C382808C43894621
:105930006391D50214313C216365D6008A06B6977F
:105940005DB79386E6038A06B69793F7F70F92073B
:1059500075B790438D46631CD60014313C216364B7
:10596000D6008606E9BF9386C6078606F1BF944334
:105970009147E39EF6F81C31BDB7938707064DB7F4
:10598000B7160240DC4251777D17F98F5D8DC8C292
:105990008280371702405C439146B18B6385D70004
:1059A000A1466382D706B7177A00938707201CC1E8
:1059B000371602405C423707002013070704918323
:1059C000BD8BBA9794231C41B3D7D7005CC1544216
:1059D000A1829D8ABA969422B3D6D70014C55442A8
:1059E000AD829D8A36971823B3D7E7005CC558422D
:1059F0003983937637001387418436971823B3D7BA
:105A0000E7021CC982805C435843C166C983758F15
:105A1000B7F6FF1F83A6C670BD8B890713961601C4
:105A200063480600C54601466392D702C94739A8B4
:105A30008946638FD702BD46638ED702C146638E07
:105A4000D702C54601466393D700C1471DEF3747CC
:105A5000024003270780418B05C737177A001307D9
:105A60000720B307F7021CC121D61C41858381B7EB
:105A700001466DBF0546B547D1BF0146BD47F9B7E1
:105A800037173D0013070790E9BFB7150240D855F7
:105A90009316F700D85563DF060411833D8B9306F8
:105AA000170037177A00130707203357D70218C19A
:105AB000D455A182BD8A8DE295463307D70205836E
:105AC00018C137170240585714413D8B050733D78B
:105AD000E60218C1184171B785456394B600E546E2
