:100000006F70604013000000130000001300000038
:100010001300000013000000130000001300000094
:100020001300000013000000130000001300000084
:08003000130000007300100032
:1000380000000000000000001272000016720000AC
:10004800000000004C7300000000000000000000E9
:100058004E73000050730000000000000000000014
:100068003A9F0000000000005473000000000000E8
:1000780060A20000587300005A7300005C7300000F
:100088005E73000060730000627300006473000018
:1000980066730000687300006A7300006C730000E8
:1000A8006E730000707300007273000074730000B8
:1000B80076730000787300007A7300007C73000088
:1000C8007E73000080730000827300008473000058
:1000D80086730000887300008A7300008C73000028
:1000E8006E5F0000B86F0000927300009473000008
:1000F80096730000987300009A7300009C730000C8
:100108009E730000A073000094A00000A473000078
:10011800A6730000A8730000AA730000AC73000067
:10012800AE730000B0730000B2730000B473000037
:10013800B6730000B8730000BA730000BC73000007
:10014800C0280000C0730000C2730000C473000020
:10015800C6730000C8730000CA730000CC730000A7
:10016800CE730000D0730000D2730000D473000077
:10017800D6730000D8730000DA730000DC73000047
:10018800DE730000E0730000E2730000E473000017
:10019800E6730000E8730000EA730000EC730000E7
:1001A800EE730000F0730000F2730000F4730000B7
:1001B800F6730000F8730000FA730000FC73000087
:1001C800FE73000000740000027400000474000054
:1001D8000000000000000000000000000000000017
:1001E8000000000000000000000000000000000007
:0801F8000000000000000000FF
:10020000397101436EC619A0397141536AC866CA73
:1002100062CC5ECE19A0397101535AD056D252D455
:100220004ED64AD826DA22DC06DE330161408282CD
:1002300041114AC026C222C406C68282B24D410183
:10024000024D924C224CB24B4101024B924A224A3F
:10025000B2494101024992442244B24041018280A4
:100260003D432A876373C3029377F700BDEFADE583
:10027000937606FF3D8ABA960CC34CC30CC74CC795
:100280004107E36BD7FE11E28280B306C3408A06C2
:100290009702000096966780A6002307B700A30682
:1002A000B7002306B700A305B7002305B700A304D2
:1002B000B7002304B700A303B7002303B700A302CA
:1002C000B7002302B700A301B7002301B700A300C2
:1002D000B7002300B700828093F5F50F9396850051
:1002E000D58D93960501D58D61B79396270097021A
:1002F000000096968682E78086FA9680C1171D8F49
:100300003E96E374C3F8A5B70100010001000100A7
:10031000010001000100014582803307C5009307F9
:10032000001063C7E702EFF21FEF3289AE89AA849B
:10033000014493170401C18363FE270133878900B9
:10034000A6970C231395070141817D3F0504D5B77E
:10035000014582800545D5BD010001000100010075
:10036000010001000100010001000100014582803F
:10037000EFF21FEC4111AA840144931704012EC629
:10038000C18332C463FEC700338584001375F50F43
:10039000E137B2452246B387850088A30504F1BF43
:1003A0000545410145BDEFF21FE72A89AE8432843D
:1003B0009309F00F373A0100B73A01007D14137426
:1003C000F40F630B34038C2003550900353F0345BC
:1003D000090059379C20638AA70013054A94EFE06F
:1003E000704A1385CA94EFE0F04983270900850419
:1003F00085072320F900D9B789BDEFF27FE32E9658
:100400004111AA841374F60F88202EC6B137B24565
:1004100088A19C40850585079CC093F7F50FE315DF
:10042000F4FE410105BDEFF2BFE07971CD651384A3
:1004300085904146938585900A85EFE09039414645
:10044000930504010808EFE0D03841469305040203
:100450000810EFE01038B71600203717002081474A
:10046000138641329386462A13074729C14533082C
:10047000F100032808003385C70000082320050188
:100480003308F400032808003385D7000010232028
:1004900005013308F400032808003385E7009107BD
:1004A00023200501E395B7FCEF50101CB73701007E
:1004B00083A787961306000023A0F19223A0F1944E
:1004C000373701000327C796B736010023AAE19208
:1004D0009567938707E223ACF19223AEC192B737B9
:1004E000010083A7079783A6469723A6F19223A826
:1004F000D19223A4F1921387C1B710C750C33737E5
:1005000001000327879723AEC1B623AAE182B7373C
:10051000010003A5C797EF60D04723A8A182B73792
:10052000010003A50798EF60D04A23A6A182EF60DF
:10053000602237370100032747983735010013053C
:10054000459423A4E182EFE0F03337350100130531
:100550008598EFE030334561F5B9EFF27FCA9385B6
:100560000125131425009388C50013888500138A7C
:100570004500C6864286338B8500AA899307000012
:10058000D285138501252320FB00EF50007BB707A0
:10059000002093878702A2978843938B4181EFE0E5
:1005A000807AB737010003A607EE83A647EECE9BFD
:1005B000EFC010202A8C03850B00AE8C938401269B
:1005C000EFD0606E2A86AE866285E685B70C002085
:1005D000EFC0101E938C8C01EFE0B00133898400D2
:1005E000A29C373E01002320A90003A50C0083250F
:1005F000CEED9389818023A0A900EFD090281383AA
:10060000C400138D840091042A879A866A86A68581
:10061000138501269387418BEF40D051930700004B
:100620002320F900EF60C000930700002320FB00A7
:100630009388C12513888125D285370A0020C68674
:10064000428613850125130ACA00EF50006F229AD3
:10065000832D0A0003850B00B7070080B3CDFD0092
:10066000EFE02055AA856E85EFD0B063373E0100DC
:100670008325CEED2320A90003A50900930D0000DA
:10068000EFD030201383C1262A879A866A86938703
:10069000418BA68513850126EF40D0492320B9015F
:1006A000EF50107983250A002E85EFD0E0662A8A64
:1006B00003850B00EE8BEFE0C04FAA855285EFD08B
:1006C000505EB737010083A5C7962320A90003A574
:1006D0000C00EFD0105D373E01008325CEED23A046
:1006E000A900EFD0101A1383C1262A879A866A863A
:1006F0009387418BA68513850126EF40B0432320C5
:10070000B901EF50F0729387C1B7A29703AA07000F
:10071000938781B8A2978C435285EFD0E05F93878F
:1007200041B9A297AA8A2320AB008843D28593843B
:100730000127EFD0605EA29488C0B7070020B704FD
:1007400000209387070093844403A2943E940840BA
:10075000D285EFD0605C88C02320590123A0B90165
:10076000EF508076E1BCEFF2BFAC2E84AA8537351E
:1007700001001305C5D5EFE0F0102285EFE0A05C85
:100780002A8637350100AE86130505D6EFE0900FB7
:10079000D1B4EFF2FFA941112EC4AA85373501006B
:1007A000B2861305C5D536C6EFE0D00D2246B24657
:1007B00037350100130505D6EFE0D00C410159BCD7
:1007C000EFF21FA72E84AA85373501001305C5D582
:1007D000EFE0500B37350100A285130505D6EFE099
:1007E000700A8DBCEFF23FA39384418A98408D47F5
:1007F00063C5E7061384C18A1C4013090006B307CA
:10080000F9029389C19FAA853385F900EFE0D024CE
:100810003735010013054594EFE0D0063735010068
:10082000130545B3EFE010060C4037350100130502
:10083000C5D5B305B902CE95EFE0D0043735010038
:10084000130505B4EFE010041C4011478507B3E71A
:10085000E7021CC09C4085079CC0C5BAEFF25F9DB3
:100860005137CDBAEFF2DF9C37350100130505ECA7
:10087000EFE05001996773900780B707EFBE37E745
:1008800000E0938707083CC76FF0DF9CEFF25F9AA8
:1008900037140140130504808565EF90E064054638
:1008A000130504808565EF90E060F1659385052070
:1008B0001385419EEF90D0083725014085451305EB
:1008C0000580EF906062EF80D0723735010013052C
:1008D00085DFEFE0207B37350100130505E1EFE010
:1008E000607AB734010013854494EFE0A07937357E
:1008F0000100130545E2EFE0E0783735010013050C
:1009000045E3EFE02078373501001305C5E4EFE05B
:10091000607737350100130585E5EFE0A0763735C0
:100920000100130585E7EFE0E07537350100130599
:1009300045E8EFE0207513854494EFE0A074373567
:100940000100130505E9EFE0E0733735010081454B
:10095000130505EAEFE0007337350100130545EA9A
:10096000EFE0407237350100930500541305C5EBE5
:10097000EFE0407123A4018A7D34EF604009EF402D
:100980009015EF503032EF90205E014685651305DB
:100990000480EF9020526FF0FF8BEFF27F89FD35DE
:1009A00001A00147930600063306E5000306060092
:1009B00093178701E1876314B6069305F005254672
:1009C00013978701618763CFE504B306F50094228E
:1009D0008507938606FD93F6F60FE363D6FE8147FF
:1009E000A54829489305F005B306E50003860600EF
:1009F000930606FD93F6F60F63E1D802B38707036B
:100A000005079376F70F139786016187938707FD94
:100A1000B297C207C183E3F9D5FC3E858280050702
:100A2000E314D7F88147D5BFEFF29F808307150005
:100A30001307C004AA846388E700130700056380D6
:100A4000E7046FF03F81B7350100938585B4EFE08F
:100A5000D00219C59305A0032685A1372393A18C45
:100A6000B7350100938585B52685EFE0100171D972
:100A70009305A003268535372392A18CD9B7B735C6
:100A80000100938505B6EFE0407F45DD9305300713
:100A90002685013F1384818C0AA01E209305A003A4
:100AA0002685C207C18381CFED3D9307C00333057F
:100AB000F5021A203A95420541810AA059B7D53569
:100AC000EDBFEFF2EFF603A5818981450505EFF053
:100AD000A049EFE000326FF0EFF7EFF26FF503A5FA
:100AE0008189294681450505EFF0605D6FF08FF63D
:100AF000EFF20FF4AA851385C19FEFE0607423AC79
:100B0000A1883335A0006FF0EFF4EFF26FF2CD372C
:100B10006FF04FF4EFF24FEF9389818083A70900C4
:100B200023AAF18893870181984323A6E18C1307B8
:100B3000400698C303A7019E9387018C98C3EF508A
:100B4000302F0545EF502039138701251443938733
:100B5000012694C3544313058005B7040020D4C371
:100B600014475847938B418994C7D8C7930700000F
:100B700023A0F900B53F9389018C138B8180938A60
:100B8000C18C138A0181138401259384042263118B
:100B9000050C13059005A93F631C050A1305A00564
:100BA000813F6317050A85479CA00145EFF0FF9A36
:100BB0009C206386070A0545EFF03F9A9C2089E751
:100BC0001305A005353701C50945EFF01F99130539
:100BD0008005393F11C9113701C9E535AA8503A53B
:100BE000C1B7EFD0601308C013059005113711C9C4
:100BF000ED3501C9F935AA8503A501B8EFD0C011BB
:100C000048C01305A005ED3511C9C13D01C9553DC9
:100C1000AA8503A541B8EFD0201008C49306C400EC
:100C2000130684009305440013850125EF50E0105E
:100C300083A70B002320FB0083A70A002320FA00D0
:100C400083A7019E23A0F900EF5000286FF04FDF2B
:100C50001305800523800400613DE31805F41305A6
:100C600090057935E31905F4A1BFEFF26FDC138528
:100C7000419EEF90C05D37350100130545DCEFE084
:100C8000604083A5418837350100130505DD8505E2
:100C9000EFE0403F6FF00FDCEFF28FD67571371A3F
:100CA00000209387818A130A0A4E1384C19F3EC68F
:100CB00083270A0803274A08998F93F7F707B1C7D4
:100CC00003A7418A8D47938C418A63C0E70413854B
:100CD000419EEF904055931585013735010093846F
:100CE0008188E1851305C59A8CA0EFE0A039838641
:100CF0000400A947138791889384C1886397F602FB
:100D00009440A9EAA384018831A81306000681450E
:100D10000818EFF0EFD4938701BA9C33138D01BA12
:100D2000639F072649616FF06FD1B547E38AF6FCF0
:100D30009307A0036394F6001C23F9D39040930714
:100D4000E005E3CFC7FA9307B003639AF62285471D
:100D50001CA3B9BF938DC18A83A70D00130600069B
:100D60001823B38AC7021389C18AB3095401CE96E6
:100D7000238006006312071C32479305E0044E856A
:100D8000BA9723800700EFE0A04B630A051A23AC53
:100D9000A18833053541050556952946814522959B
:100DA000EFF0E031938B418883A70B00138D018B0B
:100DB0002320AD008507138B8189938A018B93894A
:100DC0004188630EF50403A50D0013060006B73530
:100DD00001003305A6029385C59B2295EFE0E0490B
:100DE0001DED373501001305459CEFE0A02937358F
:100DF00001001305C59CEFE0E02883A50B00373404
:100E00000100130504A0EFE0E02783250D00130582
:100E100004A0EFE02027913D23A0040021B7032583
:100E20000900930B00069305A002B30B7503B30DE5
:100E300074016E85EFE0C0403DC18147014DEE86F3
:100E40001306A0023387F600030707006308C700F4
:100E50008507E207E187334DA701EDB72320AB00FB
:100E60003305B54105055E9581452295EFF0C00F2C
:100E7000EFC030576308A505373501001305459CC1
:100E8000EFE0402037350100130545A0EFE0801F5B
:100E90003735010083A50900130505DD9DBF3735F2
:100EA00001001305459CEFE0E01D373501001305F7
:100EB00045A2EFE0201D3735010083A50900130589
:100EC00005A081BF83A70A0023A0F9008329090098
:100ED0001305000693057004B3093503B30A340102
:100EE0005685EFE0E03505CD23ACA18833055541AB
:100EF00005054E9581452295EFF00007EFC0704E35
:100F00008D4763EEA70083C70188ADE783C701BAA9
:100F100099E7373501001305C5A7EFE0A016832731
:100F2000090011478507B3E7E7022320F90083A7EB
:100F30000C00850723A0FC0023A0040095BB9305AB
:100F4000A0024E85EFE0C02F51D1373501001305C7
:100F5000459CEFE0201337350100130505A5EFE0B0
:100F6000601283A5418837350100130505A0EFE025
:100F700060115DB537350100130505A879BF1C2345
:100F8000E39807D283A7C18A1307160098C01307F6
:100F90000006B387E702A297B29794A311BB83A779
:100FA000C1881384C188E39F07D6814C1389C19FF0
:100FB0009389818A03274D2683270D26E304F7D6DC
:100FC00003A7418A8D47138C418AE3CDE7D41305EB
:100FD0008D25EF80E0712384A188A947938D9188A6
:100FE0006304F502B5476301F5029307A003631597
:100FF000F50083C70D0089CB18409307E00563C552
:10100000E700FD576319F50E03270D2683274D26AC
:101010006311F70837350100130585AFEFE080064F
:10102000373501001305C5B0EFE0C00583A7019E69
:101030009306C00323AAF18C03A6018D3D67130715
:1010400007A6918F33D7E70237F63600130606E876
:10105000B7350100938505B20808B376D70233D6B9
:10106000C702EFE0A0173735010013054594EFE004
:101070006001373501000C08130505EAEFE0800038
:10108000138501BAEF30F0238545138501BAEF309F
:10109000300C83C70D0099CF0818EFF0FF988147F7
:1010A000130700061418BE96238006008507E39BED
:1010B000E7FE814C1040E30706C49386C18A9C4238
:1010C0001307000623800D003387E7022320040066
:1010D0004A9732972300070005463387F90010A38B
:1010E00003270C00850705072320EC001147B3E711
:1010F000E7029CC2C1B59307B0036310F5028547B0
:101100002380FD00180993871C00BA9C2380ACFA49
:10111000939C870193DC8C4171BD83C70D00FDF367
:1011200083A7C18A9306170014C093060006B387ED
:10113000D702CA97BA9788A3374700401375F50FAF
:101140008357074093F70708E5DF420541812312E3
:10115000A7408DB503A7019E23A0E18C83C7818A98
:1011600099EBEFF2EF8C373501001305C5A7EFD0EF
:1011700070716FF02F8E8280EFF20F8993840125BA
:101180001384012601499389C186138A818B914A70
:10119000B387290103850700EFF09F9529CDEFF074
:1011A0005F92B3072A01AA8B882311E59387A18C4C
:1011B00088231375F50FEFD0D01F8C40EFD0602E31
:1011C000DE85EFC0703508C0050991041104E311F4
:1011D00059FD13056004EFF0BF9101CDEFF07F8E54
:1011E000930500002A84EFD0A01A6354A00023A422
:1011F00081806FF0EF849C401CC0F9B7EFF24F8301
:10120000A53F13059004EFF0BF8E1384019F11CD0D
:10121000EFF03F8B08C01305A004EFF07F8D11C9DC
:10122000EFF03F8A48C06FF0EF82930700001CC0C8
:10123000DDB7930700005CC0FDB7EFE27FFF03A9B5
:1012400001272A840841CA8593840127EFD0A01C76
:10125000635405002320240103A944004840CA85A3
:10126000EFD0601B6354050023222401844408440A
:10127000A685EFD0401A6353050004C4B7040020CC
:1012800003A94403084093844403CA85EFD0401067
:101290006354A0002320240103A944004840CA85C8
:1012A000EFD0000F6354A00023222401844408449B
:1012B000A685EFD0E00D6353A00004C46FE09FF952
:1012C000EFE21FF4138501268D3F03A7019E93844F
:1012D000012603A501258C4023A0E18C83AA8180EF
:1012E000EFD04005CA8C13840125373A0100938D55
:1012F0008126138D412631E1CC404840EFD0800358
:101300000DED8325CAED5685EFC0B0572A87938728
:10131000418B9386C12613868126938541261385AA
:101320000126EF4020019C401CC0DC405CC09C4476
:101330001CC4DC445CC46FE07FF003A50181EFD0E6
:101340005007D685EFD0E0158325CAEDEFC0705366
:10135000B737010083A547B4EFC0B0522A879387FF
:10136000418B9386C1266E86EA851385012655BF7B
:10137000EFE27FEA1384019F2A8948400111137923
:10138000F90FEFD0501C2ACC08402ECEEFD0B01B66
:101390006246F246EF908030EFD0B0252ACC03A50C
:1013A0000181EFD0100183A58180EFD0800FB73786
:1013B000010083A5C7EDEFC0D04CB737010083A56E
:1013C00047B4EFC0104C83C7418BE2489384012699
:1013D0003EC24AC02A888947054781461386019F35
:1013E000938501261385012513840125EF30407074
:1013F0009C401CC0DC405CC09C441CC4DC445CC4FD
:1014000003A7019E23A0E18C05616FE01FE4EFE2DA
:101410003FE2996773900780EF50006B0546C14526
:1014200037150140EF8010290546C14537150140A9
:10143000EF8050280546C14537150140EF809027C1
:101440000546C14537150140EF80D02637350100EC
:1014500013054594EFD0104337350100130585DDA2
:10146000EFD05042373501001305053FEFD09041D2
:10147000EFF04FBF01A0EFE2BFDB1386018C83A624
:10148000019E0C4203A6C1898D8E9387018C6374E3
:10149000D60011C2AD3F83A64180A1CA03A7019E19
:1014A0009C43B307F74063F2F60403C7419283C736
:1014B000519293F7F70F639AE7020546C145371536
:1014C0000140EF80301F0546C14537150140EF80D0
:1014D000701E0546C14537150140EF80B01D054619
:1014E000C14537150140EF80F01CEF3030626FE0EE
:1014F0007FD6EFE2FFD3EF50205D938701889823DA
:101500001DE3054798A303A741883735010013055C
:10151000459423A0E18AEFD0F0363735010013055A
:1015200005A8EFD030366FE0FFD203C50188828076
:10153000EFE21FD083C7418BAA841305400523889F
:10154000F188EFF0EFDA09E501494A856FE09FD0B5
:101550002A89EFF00FD7EFD06060138401891375EB
:10156000F50F08A075D13735010013054594EFD06C
:101570007031930790066384F40463CE9700930759
:1015800080066387F4020C2037350100130505EA55
:10159000EFD0502F5DBF9307D0066387F402930707
:1015A000A00DE392F4FE373501001305C5DA29A03A
:1015B00037350100130545D6EFD0D02CE9B73735C4
:1015C00001001305C5D7CDBF37350100130545D937
:1015D000E5B7EFE2FFC25D7113057004EFF04FD184
:1015E00063060516EFF0EFCDEFD02051914763036E
:1015F000F50C63CCA7008947630EF50863C5A70AFD
:1016000063500508EFF01FB559A09307A0056303C9
:10161000F51063C8A700F147E316F5FEEFF08FCF92
:10162000D5B79307B005630AF50E9307C005E31B12
:10163000F5FC13055004EFF0AFCB19E1EF40507FFC
:101640001384012581449389C1861389C125138A96
:10165000C1B7930A8400B387990003850700EFF0B0
:101660002FC911C98D47639EF40AEFF08FC548C496
:101670004A85EF40807B85049147E39EF4FC59B78F
:1016800083C7018881EBEFF03FAFEFF07FC361616B
:101690006FE0DFBA83C7018899E7EFF03FB60545F1
:1016A000EFF01FCDEDB783C7018889E7EFF01FB5D5
:1016B0000145FDB713050005EFF08FC3014411C5C7
:1016C000EFF02FC0EFD080492A8413053005EFF0EA
:1016D0002FC201CDEFF0EFBEB737010083A587968B
:1016E000EFC0305CEFD080472A84EF40707403A7CE
:1016F000019E83A6019EBE843A9423A0D18C83A729
:10170000019EE3F187F0EF809038EF50E015EFF0A5
:101710009FD6F5B72385018CF5B505472385E18C68
:10172000D5B5EFF00FBA93972400330BF400D2979E
:10173000AA858843EFC0405E2320AB00CA86568648
:10174000930544002285EF40405F35B71305D00470
:10175000EFF00FBA19E16F00B062EFF08FB6EFD083
:10176000C0399307A006E30DF50C63CEA722F1471D
:101770006300F57863C2A70AD947630DF56E63CE9F
:10178000A704C947E301F51263CEA702C547E31BCF
:10179000F5E60146C14537150140EF80A0710146CD
:1017A000C14537150140EF80E0700146C14537154E
:1017B0000140EF8020700146C14537150140EF80A0
:1017C000606F89B5D1476305F568D547E31CF5E23D
:1017D000138501BAEF20D07935B5E5476303F56E7F
:1017E00063C1A702DD47630DF568E147E31CF5E03F
:1017F000138501BAEF20507C03A7019E23A8E18C3A
:1018000011B5E9476305F56CED47E31DF5DE13857A
:1018100001BAEF30E008FDB393073005E300F508A7
:1018200063C1A708FD47630CF57463C1A706F547BC
:101830006302F570F947E317F5DC938701BABC231F
:10184000E38207DC138501BAEF30201303A58189F9
:101850009305A002938481891105EFD0701E2A8917
:1018600019CD9305E0041385C19FEFD0701D93053A
:101870000002EFD0F01C050588C0A30F09FE8C40C4
:10188000138501BA9105EF20D07FADBB93071005FA
:10189000E302F50093072005E316F5D6A38D018A30
:1018A00095B39307C005E30FF50A63CBA70293072F
:1018B0004005630AF57E93075005E315F5D413053B
:1018C0003005EFF0EFA2EFF0CF9FB737010083A50F
:1018D0008796EFC0103DEFD0602823AEA1881DB3DE
:1018E000930780066309F56A93079006E31CF5D019
:1018F00013059006EFF0DFC3E31605D0373501007E
:101900001305C5BBEFD00078138401891C20138711
:10191000419B8A07BA978843B7340100EFD0A042B1
:101920002A86AE86138544BCEFD0C07537350100DA
:101930001305C5BCEFD000751C201387419C8A0796
:10194000BA978843EFD0E026EFD0E03F2A86AE86F4
:10195000138544BCEFD0007337350100130505BD76
:10196000EFD040720820EF40B060AA853735010003
:10197000130545BDEFD0007137350100130585BD56
:10198000EFD040707D55EF40B05EAA85373501003D
:10199000130505EAEFD0006F373501001305053F49
:1019A000EFD0406EEDB19307C00CE309F52663C29A
:1019B000A72493077007E303F51663CAA71C9307D0
:1019C0002007E307F50463C0A71A9307B006630F67
:1019D000F56A9307D006E317F5C21305D006EFF0BA
:1019E0003FB5E31105C213053005EFF06F90938406
:1019F0000189138A419C09C9EFF0AF8C8020EFD098
:101A0000C00F0A04529408C0EF50E00B03C9040051
:101A10000A09B3072A01884383AA019EB73B010044
:101A2000EFD020199387419B3E9983270900AA8C08
:101A30007D593EC4B737010003AC47B79389419B3A
:101A4000373D0100E28D83A7019E1307803EB387D7
:101A50005741637CF708B7370100138507BEEFD005
:101A600060629C208A07CE978843EFD0C02DB7379D
:101A700001002A86AE86138547BEEFD0A060B73737
:101A800001001385C7BEEFD0E05F8C2013854BBDEE
:101A9000EFD0405F13050DBFEFD0C05E03A5419CA2
:101AA000EFD02011EFD06005AA8513854BBDEFD094
:101AB000605D37350100130545BFEFD0A05CFD57D1
:101AC0006303F95283A7019E8965938505719D8DF6
:101AD000CA951307803EB3D5E502373501001305DB
:101AE00005DDEFD0205A83AA019EEF80407AEF40B7
:101AF000B057EFF05F981385818DEF20D025FD570B
:101B00006318F950A2456685EFC090089C208A07AB
:101B10003EC63307FA00635FA04C0843EFD060096C
:101B2000EE85EFC05041B247CE978C43EFC0B00E68
:101B3000E34BA0F003A9019EFD57E306F9F0634BC8
:101B4000090003A7019E89679387F7703307274130
:101B5000E3FBE7EE03A7019E23A8E18C03A7019E08
:101B600023A0E18C45B493073007630BF568930716
:101B70005007E319F5A803A581899305A00215056F
:101B8000EFD0006CE30005A8A30F05FEA5BC9307EA
:101B9000C008630CF54263CDA70093078007630A72
:101BA000F57693079007E31FF5A405456F0080764F
:101BB0009307900CE305F5029307B00C0144E3137F
:101BC000F5A4371900209384C1861309492A914945
:101BD000B387840003850700EFE09FF119C5EFE0AC
:101BE0005FEE93172400CA9788C30504E31234FFFD
:101BF00011BC9307E012E303F51063CBA71493071E
:101C0000C00DE30FF50A63C2A7049307D00CE30DE0
:101C1000F5029307E00C0144E316F59E9384C18618
:101C20001389C1B78D49B387840003850700EFE0AE
:101C30003FEC19C5EFE0FFE893172400CA9788C36B
:101C40000504E31234FF6FF0FF9B9307D00DE30808
:101C5000F5089307D012E317F59A13050005EFE096
:101C60003FE909C5EFE0FFE523AAA182130590042F
:101C7000EFE01FE819C5EFE0DFE4EF50805123A843
:101C8000A18213054004EFE0BFE619C5EFE07FE352
:101C9000EF50205423A6A18213053004EFE05FE546
:101CA00009C5EFE01FE223A4A182EF40B02A373537
:101CB00001001305C5A7EFD0E03C3735010013053F
:101CC00085D0EFD0203C03A5418337340100EFD00D
:101CD00080072A86AE86130504D6EFD0A03A3735A2
:101CE00001001305C5D0EFD0E03903A50183EF5003
:101CF000404CEFD040052A86AE86130504D6EFD0BF
:101D0000603837350100130505D1EFD0A03703A5A2
:101D1000C182EF50004EEFD000032A86AE86130535
:101D200004D6EFD0203637350100130545D1EFD06A
:101D3000603503A58182EFD000012A86AE861305A7
:101D400004D6EFD02034373501001305053F39AAFA
:101D500093070019E302F50263CCA70C9307F01276
:101D6000630DF57A93070013E31EF588130500054C
:101D7000EFE01FD809C5EFE0DFD423A6A184130547
:101D80009004EFE0FFD619C5EFE0BFD3EF506040FD
:101D900023A4A18413054004EFE09FD519C5EFE00B
:101DA0005FD2EF50004323A2A184EF40B01A373531
:101DB00001001305C5A7EFD0E02C3735010013054E
:101DC00085D0EFD0202C03A5C18437340100EFC0AB
:101DD00090772A86AE86130584D1EFD0A02A3735B6
:101DE00001001305C5D0EFD0E02903A58184EF5091
:101DF000403CEFC050752A86AE86130584D1EFD0E3
:101E0000602837350100130505D1EFD0A02703A5C1
:101E10004184EF50003EEFC010732A86AE86130552
:101E200084D1EFD020262945EFD0E0296FF08FFD37
:101E30009307003A6304F5109307703E6314F5FCB2
:101E40002380018803A7018A23A2E188EFF02FDC19
:101E500037350100130545B9EFD0C022138501BA0B
:101E6000EF20300E37350100130545BAEFD0802141
:101E70006FF04FF9138501BAEF2070136FF08FF8F0
:101E8000B7350100938545BB1385C19F9384C19FDE
:101E9000EFD0A03E630805F6938544000808EFD014
:101EA000A03B0C080546138501BAEF20B0149385BA
:101EB000C19F373501001305C5D5EFD0A01C6FF0C9
:101EC0006FF4138501BAEF20D00F6FF0AFF31384D6
:101ED00001BA3C20638807F213053005EFE05FC1CB
:101EE000630205F2EFE07FBF2322A4266FF08FF19B
:101EF00003A581899305A002138481891105EFD080
:101F00002034AA8419CD9305E0041385C19FEFD036
:101F1000203393050002EFD0A032050508C0A38F3F
:101F200004FE0C4001469105138501BAEF20900C88
:101F30006FF04FED238001BA6FF0CFEC03A58189DC
:101F40009305A002138481891505EFD0602FAA8420
:101F500019CD9305E0041385C19FEFD0602E930542
:101F60000002EFD0E02D050508C0A38F04FE0C4051
:101F7000138501BA9505EF20B00F6FF0AFE803A706
:101F8000019E373501001305459423AAE18CEFD05B
:101F9000600F0C0839BF13058006EFF06FD963138B
:101FA00005E613053005EFE0BFB401CDEFE07FB1EA
:101FB00003C401899387419C0A043E94EFC0F03327
:101FC00008C0EF4050306FF0EFE313053005EFE04D
:101FD0003FB2630905E2EFE0DFAEEFC0103223A4A9
:101FE000A19C6FF02FE237350100130585BFEFD0BC
:101FF0006009D5BC0843EFC0D03BE285EFB0D051BB
:10200000B247CE978C43EFC0A038E35505B225BC4C
:102010009C208A073387F900D29788433AC6EFC0DD
:1020200050393247AA850843EFC0E070EFC0F02C6A
:102030009357F5413D8D1D8DA947E3D4A7B0DDBC75
:1020400013053005EFE0DFAA1384C18B9307F00F6F
:102050001DC9EFE01FA793050000EFC0C03B8147FB
:1020600063430502EFE0FFA5B737010083A587B7FB
:10207000EFC000329307F00F6347A000EFE07FA4AA
:10208000EFC0B027AA871CC06FF0CFD723AE018A5C
:102090006FF04FD7EFE00FFD6FF0CFD60547A38D60
:1020A000E18A6FF02FD613053005EFE07FA419CD3C
:1020B000EFE03FA1B737010083A58796EFC0603EF0
:1020C000EFC0D02923A2A1806FF0CFD313058005E4
:1020D000EFE01FA229CDEF40A05513058005EFE0EA
:1020E0003FA119C50546C14537150140EF70905C09
:1020F00013059005EFE0DF9F19C50546C14537156B
:102100000140EF70305B1305A005EFE07F9E19C51D
:102110000546C14537150140EF70D05913055004ED
:10212000EFE01F9D630005CE05466FF0EFE8130555
:102130009005EFE0FF9B45F11305A005EFE05F9BE5
:1021400059F913055004EFE0BF9A51F5EF40404EA6
:102150000546C14537150140EF70D055EF40605836
:102160006FF04FCAB737010003ACC7B7371900206B
:102170000144138AC186938441321309492AB30763
:102180008A0003850700EFE0BF9631CD8D476312CB
:10219000F406EFE01F93E285AA8BEFC0C0276352DD
:1021A0000504C844DE85EFB0D06DAA8AAA8503A5D0
:1021B000819293894131EFC0C02E23A4A1920325BF
:1021C000C900D685EFC0E02D2326A90003A5C900CC
:1021D000EFC0902AD685EFC0C02CEFC0301823A6E0
:1021E000A90023A6740105049147E31AF4F86FF0DF
:1021F0006FC1EFE01F8D93172400A69788C3E5B742
:1022000037350100130505C0EFC0907C6FF08FBF1C
:10221000373501001305C5C9EFC0D0661384012509
:102220000840B7340100EFC010322A86AE8613850D
:1022300004D6EFC0306537350100130505CAEFC07D
:1022400070644840EFC030302A86AE86138504D6CD
:10225000EFC0506337350100130545CAEFC09062E7
:102260000844EFC0502E2A86AE86138504D6EFC0F0
:10227000706137350100130585CAEFC0B06048446E
:10228000EFC0702C2A8637350100AE861305C5CA0B
:10229000EFC0505F37350100130545CBEFC0905EAE
:1022A0000145EF400042EFC0D01083A541321384B6
:1022B0004132EFB0105DEFC010292A86AE8613853B
:1022C00004D6EFC0305C0545EF40A03FEFC0700E74
:1022D0004C40EFB0105BEFC010272A863735010065
:1022E000AE86130505CCEFC0F0590945EF40603DBF
:1022F000EFC0300C0C44EFB0D058EFC0D0242A8689
:1023000037350100AE86130585CCEFC0B0576FF0AE
:102310006FAF0145EF30303C6FF0CFAE3735010085
:10232000130545CDEFC0105637350100130505CF15
:10233000EFC050553715014093050008130505C03F
:10234000EF50803C8547631DF506B7350100938546
:10235000C5B837340100130504EAEFC0B052373571
:102360000100130585CFEFC0F051371501409305EB
:102370000020130505C0EF50203985476317F50489
:10238000B73501009385C5B8130504EAEFC0904F37
:1023900037350100130505D0EFC0D04E3715014089
:1023A00093050040130505C0EF50003685476313C1
:1023B000F502B73501009385C5B8130504EAF5BCED
:1023C000B7350100938505B869B7B7350100938526
:1023D00005B85DBFB7350100938505B8F9BF37195A
:1023E000002001449384C18613094929114AB38707
:1023F000840003850700EFE0AFEF11C9EFE06FEC59
:1024000093192400CA99EFC0607523A0A9000504A0
:10241000E31F44FDEF3050256FF0CF9E13053005CC
:10242000EFE00FED09C5EFE0CFE923A0A19213057E
:102430004005EFE0EFEB19E16FF0CF9CEFE06FE8C4
:1024400023A0A1946FF00F9C13053005EFE04FEA35
:1024500009C5EFE00FE723AAA19213054005EFE0BD
:102460002FE909C5EFE0EFE523AEA19213052004A3
:10247000EFE00FE819C5EFE0CFE4EFC0206E23AC2A
:10248000A19213058005EFE0AFE609C5EFE06FE329
:1024900023A6A1921305A005EFE08FE509C5EFE0A3
:1024A0004FE223A8A19213055004EFE06FE419E175
:1024B0006FF04F95EFE0EFE023A4A1926FF08F94BF
:1024C00013053005EFE0CFE219E16FF0AF93EFE0D5
:1024D0004FDFEFC0806223A8A1806FF0AF92130599
:1024E0003005EFE0EFE019E16FF0CF91EFE06FDD45
:1024F000EFC0A06023A6A1806FF0CF901305300538
:10250000EFE00FDF9307000001C5EFE08FDBAA8744
:102510003E85EF3010156FF0EF8E13055004EFE09D
:102520002FDD814429C5EFE0CFD9EFC0005DAA843B
:10253000635F0502B737010003A407B71305300531
:10254000EFE00FDB01C5EFE0CFD72A84130530049D
:10255000EFE00FDA154611C5EFE0AFD6EFC0E05956
:102560002A86A6852285EF4020586FF0AF89B737BD
:10257000010003A4C7B6D9B7EF40800B6FF08F8876
:1025800013054005EFE0CFD6B734010051C1EFE0AD
:102590004FD3EFC0A05C1375F50F1384018908A019
:1025A00015C513854494EFC0F02D13054005EFC009
:1025B00090310C2037350100130545BCEFC0902C3D
:1025C00037350100130505D26FF05F8A13056004EB
:1025D000EFE00FD201CDEFE0CFCE930500002A84CB
:1025E000EFB0105B6354A00023A481801385449452
:1025F000EFC0502937350100130545D3EFC09028AF
:102600003735010083C5418B130545086FF0FF8AFC
:1026100013854494EFC0102737350100130585D486
:10262000EFC05026373501009385C19F1305C5D5EE
:10263000EFC0502537350100130505B46FF01F8337
:10264000EFD21FBF138501BAEF1050776FD09FC034
:102650009387C12703A5070883A747081D8D137516
:10266000F507828037570040835707C093F7070864
:10267000E5DF420541812312A7C08280EFD25FBB14
:10268000AA840144B38784000385070009C90504AF
:102690001375F50F6204EFF0FFFC6184E5B76FD0AE
:1026A0007FBBEFD2FFB82A84130540072E89EFF0D5
:1026B0007FFBA5471305040363DF8700A944334567
:1026C0009402130505031375F50FEFF0BFF9336599
:1026D0009402130505031375F50FEFF0BFF83735B6
:1026E00001001305C5FFEFF07FF913052002EFF09D
:1026F0007FF74A85EFF09FF813052002EFF09FF671
:102700001305F00FEFF01FF61305F00FEFF09FF534
:102710001305F00FEFF01FF56FD0DFB369C58967C0
:1027200093870771B347F502294741119546B3E7EF
:10273000E702938707035C849307803EB347F50263
:10274000B3E7E70293870703DC8493074006B347A8
:10275000F502B3E7E702938707035C85B347E50219
:102760003365E502B3E7E702130505034886014731
:102770001305000393870703DC85130881003A984B
:10278000030808009377F70F6316A8000507E31600
:10279000D7FE954795460147B388F6400145635AF1
:1027A0001701080813881700AA97038587FF9377F6
:1027B000F80F130881003A982300A8000507E31FCB
:1027C000D7FC814715453400BE968386060013F773
:1027D000F70F91C694A18507E397A7FE154718A2A6
:1027E00001454101828001458280EFD27FA4AA8405
:1027F0002E84EFB0F0396358A000A2852685EFB093
:1028000090736FD03FA5A6852285D5BFEFD25FA27A
:1028100079712E8441458545EF5020138545370554
:102820000800EF50601493070040FC82E1473ECE61
:102830004C088D47371501403ECCEF40F06085676E
:1028400093870780FC824C089147371501403ECEA4
:10285000EF40905F22D037540040B7070C000C10B7
:10286000130504C03ED402D223160102EF50803C6F
:10287000130504C093055052EF50A051130504C036
:1028800093056062EF50E0500546930550521305E2
:1028900004C0EF5040470145EF40106993074004E2
:1028A0005C8685475C87680085473EC8EF40306896
:1028B0008545130504C0EF50A04345616FD09F9933
:1028C000EFD21F973754004093055052130504C0B0
:1028D000EF50604839C19387C12783A60708035684
:1028E00044C083A547081387160042061377F703F1
:1028F00041826306B700BE9690A223A0E70883A793
:10290000019E3755004093874706930550521305A3
:1029100005C023AAF190EF50C047375400409305FB
:102920006062130504C0EF50004319C5930560624F
:10293000130504C0EF50E0456FD0DF911387C12726
:1029400083274708832607087D55638AF600B30668
:10295000F7008822850793F7F7032322F708828080
:102960009386C12783A7060883A646081387C12735
:1029700093870708958F93060008B3E7D7020145B0
:10298000B387F6406359F602814763D5C7028326B1
:1029900007083385F5000348050085073305D70090
:1029A000850693F6F603E207230005012320D708E6
:1029B000E187E1BF05458280EFD29F872A843735C2
:1029C000010041111305050232C42EC6EFF01FCBE2
:1029D000374501001305055DEFF05FCAB2452E854E
:1029E000EFF0DFC91305F00FEFF0DFC71305F00FAD
:1029F000EFF05FC71305F00FEFF0DFC6224612A01D
:102A000041016FD03F85EFD2BF82373501001305FA
:102A10008501EFF0BFC61305F00FEFF0BFC413053B
:102A2000F00FEFF03FC41305F00FEFF0BFC36FD00E
:102A30007F82EFD2EFFF37350100130505FD2E84AD
:102A4000EFF0DFC31305E006EFF0DFC1A547130584
:102A5000040363DF8700A94433459402130505038B
:102A60001375F50FEFF01FC03365940213050503CE
:102A70001375F50FEFF01FBF37350100130585FD06
:102A8000EFF0DFBF1305F00FEFF0DFBD1305F00F20
:102A9000EFF05FBD1305F00FEFF0DFBC6FD08FFBE1
:102AA000EFD20FF93735010041111305850232C409
:102AB0002EC6EFF0BFBC374501001305055DEFF0F2
:102AC000FFBBB2452E85EFF07FBB1305F00FEFF093
:102AD0007FB91305F00FEFF0FFB81305F00FEFF01B
:102AE0007FB8224642064182239CC19041016FD0AB
:102AF0006FF6EFD2EFF3373501004111130585EE84
:102B000032C42EC6EFF09FB7374501001305055DAF
:102B1000EFF0DFB6B2452E85EFF05FB63735010036
:102B20001305C5EEEFF09FB5224615C637350100F7
:102B3000130585C9EFF09FB41305F00FEFF09FB2B6
:102B40001305F00FEFF01FB21305F00FEFF09FB178
:102B500041016FD02FF037350100130505E2D9BFD1
:102B6000EFD20FED37350100130505FFAE84328437
:102B7000EFF0DFB0A5471385040363DF9700294911
:102B800033C52403130505031375F50FEFF09FAD4F
:102B900033E52403130505031375F50FEFF09FAC20
:102BA00037350100130545FFEFF05FADA54713056D
:102BB000040363DF8700A94433459402130505032A
:102BC0001375F50FEFF01FAA336594021305050383
:102BD0001375F50FEFF01FA91305F00FEFF09FA885
:102BE0001305F00FEFF01FA81305F00FEFF09FA7EC
:102BF0006FD04FE6EFD2CFE3A94713074006B346A5
:102C0000F6024111130500033347E602B3E6F6026C
:102C10003367F7029386060393F6F60FD48633667E
:102C2000F602130707031377F70F58868147130639
:102C300006031376F60F50876319A700854763963E
:102C4000E60089476313D6008D478D4601473388D8
:102C5000F6400146635B0701100813851700B29721
:102C60000386C7FF93178501E18768003A9510A195
:102C70000507E310D7FE9307400663C2B7061305A6
:102C8000E0062E84EFF01F9EA5471305040363DFC3
:102C90008700A94433459402130505031375F50F06
:102CA000EFF05F9C33659402130505031375F50F70
:102CB000EFF05F9B37350100130585FEEFF01F9C99
:102CC0006800EFF0BF9B1305F00FEFF0BF991305FD
:102CD000F00FEFF03F991305F00FEFF0BF984101AF
:102CE0006FD04FD7EFD2CFD44111930700033EC42A
:102CF000230601002E843DE213058006EFF09F9627
:102D0000A5471305040363DF8700A94433459402F4
:102D1000130505031375F50FEFF0DF943365940287
:102D2000130505031375F50FEFF0DF933735010039
:102D3000130585FEEFF09F942800EFF03F941305F4
:102D4000F00FEFF03F921305F00FEFF0BF91130576
:102D5000F00FEFF03F9141016FD0CFCF896793879C
:102D60000771B347F60229479546B3E7E702938711
:102D700007035C849307803EB347F602B3E7E7029C
:102D800093870703DC8493074006B347F602B3E753
:102D9000E702938707035C85B347E6023366E602E2
:102DA000B3E7E70213060603508601471306000344
:102DB00093870703DC852C00BA95838505009377FC
:102DC000F70F6396C5000507E317D7FE95479546AD
:102DD00001473385F6400146635AA70010089385E2
:102DE0001700B297038687FF93F7F50F2C00BA956B
:102DF00090A10507E311D7FE01B7EFD26FC313050A
:102E000040072E843289EFF0FF85A54713050403A0
:102E100063DF8700A9443345940213050503137546
:102E2000F50FEFF03F843365940213050503137526
:102E3000F50FEFF03F83373501001305C5FFEFF0C5
:102E4000FF8313052002EFF0FF814A85EFF01F8317
:102E500013052002EFF01F811305F00FEFF09F80A4
:102E60001305F00FEFF01F801305F00FEFF08FFF49
:102E70006FD04FBEEFD2CFBB2E85B285EFF07F82F1
:102E80006FD04FBDEFD2CFBAA9473355F602130723
:102E900040064111130800033357E6023375F5026B
:102EA000130707031377F70F5886B377F602130556
:102EB0000503C88693860703548781476319070172
:102EC00085476316E50089476393A6008D478D46C5
:102ED0000147B388F6400145635B17010808138872
:102EE0001700AA970385C7FF93178801E187600041
:102EF0003308E4002300A8000507E31ED7FC93076E
:102F0000400663E5C7041305A0062E84EFF08FF595
:102F1000A54763E08704130504031375F50FEFF06D
:102F20006FF437350100130585FEEFF02FF56800CB
:102F3000EFF0CFF41305F00FEFF0CFF21305F00F21
:102F4000EFF04FF21305F00FEFF0CFF141016FD02A
:102F50006FB0A94433559402130505031375F50F9B
:102F6000EFF04FF033759402130505034DBFEFD218
:102F70002FAC4111930700033EC4230601002E84A9
:102F80003DEA13054007EFF0EFEDA54713050403F5
:102F900063DF8700A94433459402130505031375C5
:102FA000F50FEFF02FEC336594021305050313754D
:102FB000F50FEFF02FEB373501001305C5FFEFF0EC
:102FC000EFEB13052002EFF0EFE92800EFF00FEB35
:102FD00013052002EFF00FE91305F00FEFF08FE873
:102FE0001305F00FEFF00FE81305F00FEFF08FE788
:102FF00041016FD02FA6896793870771B357F602F7
:1030000029479546938707035C849307803EB3570F
:10301000F602B3F7E70293870703DC8493074006C1
:10302000B357F602B3F7E702938707035C85B357FC
:10303000E6023376E602B3F7E7021306060350868C
:1030400001471306000393870703DC852C00BA951C
:10305000838505009377F70F6396C5000507E3178F
:10306000D7FE9547954601473385F6400146635A9A
:10307000A700100893851700B297038687FF93F780
:10308000F50F2C00BA9590A10507E311D7FED5BD29
:10309000EFD26F9841112E84CD6532899385859347
:1030A00025464800EFB0F0724A85EFB0D049B737F7
:1030B000010003A6870083A6C7002A8AAE8AEF9084
:1030C000D063634B051EB737010003A6070183A633
:1030D00047015285D685EF907057634FA01C93052A
:1030E00000004A85EFB02033814463570500B707DD
:1030F000008033C927018544B737010083A547B451
:103100004A85EFB0003AEFB070256302051E37978D
:103110009800130707683357E502A9471306000311
:1031200095463377F70213070703588237470F0096
:10313000130707243357E5023377F7021307070312
:10314000D88261671307076A3357E5023377F702BE
:103150001307070358830967130707713357E502FD
:103160003377F70213070703D8831307803E3357DB
:10317000E5023377F7021307070358841307400665
:103180003357E5023377F70213070703D884335721
:10319000F5023375F5023377F70213050503488608
:1031A00013070703D88501474C00BA9583850500AE
:1031B0009377F70F6396C5000507E317D7FE95478A
:1031C0002546A9460147B305F6409D8E1305D0025A
:1031D000638704106315070E48820507E31AC7FECC
:1031E00013054007EFF00FC8A5471305040363DF7D
:1031F0008700A94433459402130505031375F50FA1
:10320000EFF04FC633659402130505031375F50FF0
:10321000EFF04FC5B73401001385C4FFEFF00FC6C0
:1032200013052002EFF00FC44800EFF02FC513057F
:103230002002EFF02FC31305F00FEFF0AFC213051C
:10324000F00FEFF02FC21305F00FEFF0AFC1130531
:103250004007EFF02FC1A5471305040363DF870084
:10326000294933452403130505031375F50FEFF0C2
:103270006FBF33652403130505031375F50FEFF0D6
:103280006FBE1385C4FFEFF06FBF13052002EFF090
:103290006FBD4800EFF08FBE13052002EFF08FBC2A
:1032A0001305F00FEFF00FBC1305F00FEFF08FBB1D
:1032B0001305F00FEFF00FBB41016FC01FF9635210
:1032C000D7029308010113881700C697838847FF28
:1032D0005C00BA97238017019377F80FFDBDE34296
:1032E000B7FE130841003A9823000800FDB5930784
:1032F000E002DC82A3030100231401002305010086
:10330000C5B5EFC2FFF241112E8532C6EFF08FB581
:1033100037350100130505EFEFF04FB63246328521
:10332000EFF0CFB51305F00FEFF0CFB31305F00FAB
:10333000EFF04FB31305F00FEFF0CFB241016FC0C4
:103340007FF1EFC2FFEE3735010041111305850211
:103350002EC6EFF0AFB2374501001305055DEFF063
:10336000EFB1B2452E85EFF06FB13735010013058F
:1033700005FEEFF0AFB01305F00FEFF0AFAE1305A1
:10338000F00FEFF02FAE1305F00FEFF0AFAD4101EE
:103390006FC05FECEFC23FE82A8979449309500679
:1033A000130A600693041007854AEFF06FAA15CD43
:1033B0004A85EFF0AFD893178501E187638C8700CA
:1033C000634EF40081CBE3C207FEF91793F7F70FC2
:1033D000E3EDFAFC1375F50F6FC03FE7E3C737FD68
:1033E000E35AFAFEE39397FCF5B71305F00FEDB738
:1033F000EFC21FE42A84EFF0AFA509C52285EFF0E4
:10340000EFD3D5BF1305F00F6FC0DFE4EFC25FE26B
:103410001385818DEFF01FF8930710076313F502F2
:103420001385818DEFF08FD12A841385818DEFF084
:10343000EFD01375F50F22051374F40F418D6FC093
:103440007FE141657D15E5BFEFC29FDE41112E8909
:103450002A84B284938581871D462800EFB0703797
:103460002C001D462285A30421014485EFF04FCF97
:10347000014541016FC01FDEEFC21FD92A89EFF05D
:103480002F9D8D4763DBA7661385818DEFF00FCBF2
:10349000AA841385818DEFF06FCAAA891385818D67
:1034A000EFF0CFC993978401E18737076500A20742
:1034B000D98F139789016187D98F6205A20761852A
:1034C0005D8DB707056513871710A2846303E55C5C
:1034D0006348A710B7070465138717106301E53227
:1034E0006347A704B7070065138717306307E52E06
:1034F000634DA70013871710630FE51A93871720F2
:103500006305F52C01456FC0BFD313871750630CBB
:10351000E52C13871760630EE52C93871740E313A0
:10352000F5FEB73501001546938585F1F9AA138795
:1035300017406307E536634FA70013871720630121
:10354000E53093871730E31FF5FA83D5618F8A053D
:103550008D0555AC13871760630BE53C1387177017
:103560006300E51293871750E31EF5F81387618F08
:1035700083170700635AF038FD17C207C1831EA3E3
:103580008A072399F18E81441384218F914AB709C8
:1035900000201389510283D7418F63F3FA009147CA
:1035A000C207C183E3D0F4F60C201386C103138550
:1035B000095C850593F5F50FEF1080449387095C4E
:1035C00083A547498387050091E3CA852685EFF0E7
:1035D0004F8D1E208504E2048507E1841EA065BF8F
:1035E0003717056593061770630CD50863C2A606E6
:1035F00093861740630DD54C63C5A6021387172029
:10360000630CE54A93871730E31EF5EE373501006A
:10361000130505F5EFD00F9D37350100130585F62D
:1036200059A193861760630FD54A13071760630982
:10363000E50493871750E317F5EC373501001305C0
:1036400005F5EFD02F9A37350100130585F7A1A9AD
:10365000B7071165138717106300E5386348A702A1
:10366000B7170765138717906307E53E938717A081
:10367000630EF53AB7270565938717E0E314F5E87D
:10368000B73501000146938545F341A03707126520
:10369000930617106307D53C130717206305E53E13
:1036A00093871720E310F5E6B7350100114693859F
:1036B00005F04A85A9A89305000437150140EF409D
:1036C000A0041384818F1C203335A000370900200B
:1036D0006300F5029305000437150140EF40C00276
:1036E000B337A0001CA01DC51305095CEF104008EE
:1036F0009307095CBC23B70A0020938A0A5C114631
:1037000099EFB7350100938585EF1385818DEFF033
:10371000AFAACDBB1305095CEF106009D1BFB73567
:1037200001001385818D938505F0EFF0EFA83744F4
:1037300001009305045D0145EFE0BFF69305045DCC
:103740000545EFE01FF69305045D0945EFE07FF5C1
:103750009305045D0D45EFE0DFF49385C103130588
:10376000095CEF10602B239AA18E2399018E81446E
:10377000138A418F1384218F914B138B51028357EE
:103780000A0063F3FB009147C207C18363DCF402C4
:103790000C201386C1031305095C850593F5F50F0D
:1037A000EF10002683A54A498387050091E3DA8557
:1037B0002685EFE01FEF1E208504E2048507E184E3
:1037C0001EA075BF239B018E35BBB7350100314666
:1037D000938545F01385818D1DBFB73501003546B2
:1037E000938505F1C5BFB73501001946938505F2EC
:1037F000D5B7B73501002946938585F2E1BF83D55A
:10380000618F8A058505C205C1812399B18E83D751
:10381000418FE3E9B7CE1386C10393F5F50F370463
:1038200000201305045CEF10A01D1307045C834700
:1038300047481309045CC18BC9C78325474989A040
:1038400083D5618F8A058905C205C1812399B18E0F
:1038500083D7418FE3E8B7CA370400201386C1033A
:1038600093F5E50F1305045CEF1080199307045CD2
:1038700083C747481309045CC18BA1C78325494905
:103880008387050099E3938551021305045CEF10CB
:103890002021054685451385818DEFF0FFBA9DB146
:1038A0008395618F85058A05C205C1812399B18EF3
:1038B00083D7418FE3E8B7C41386C10393F5C50FDF
:1038C000B9BF032549498307050099E313855102D0
:1038D000B7350100938545BBEFB0301AE30405C24C
:1038E000B73501009385C5F239461385818DEFF018
:1038F000AF8C832549498387050099E3938551025D
:103900000545EFE01FDAFDBE370400201305045C17
:10391000EF100013E31605D6054685451385818D06
:10392000EFF09FB21305045CEF104016E1BE9384E4
:10393000618F0394040083D7418F0504131724007B
:103940001389418FE3C0E7BCB74901009385095D46
:103950000145EFE01FD59385095D0545EFE07FD474
:103960009385095D0945EFE0DFD39385095D0D453A
:103970004204EFE01FD3418082A00A042399818E84
:1039800081441384218F914A370A00209389510280
:103990000E20835709008D8F63D3FA009147E3C34C
:1039A00097B6850593F5F50F1386C10313050A5CD9
:1039B000EF10000593070A5C83A54749838705003C
:1039C00091E3CE852685EFE0DFCD1E208504E2045D
:1039D0008507E1841EA06DBF2393018C2392018C87
:1039E000B73501001D461385818D2394018C370462
:1039F00000209385C5F323AA018C9304045CEFE0B7
:103A0000BFFB83A544491D45EFE0BFC983A54449D9
:103A100005461305045CEF00F05D1305045CEF0040
:103A2000B05903A7019E23A8E18CE9BC0387918FBD
:103A3000370500209387918F01EB05471305055C3F
:103A400098A3EF0010587DBC1305055C2380070088
:103A5000EF00905645BCB73501004946938545F4C3
:103A600095BB370500209307055C1305055CA38013
:103A70000700EF009070EF20904AB7350100014633
:103A8000938545F381BBB73501001D469385C5F38A
:103A900091B337350100130505F5EFC0BFD43735B5
:103AA0000100130545F5EFC0FFD3373501001305BD
:103AB000C5F5EFC03FD3B9B437350100130505F59F
:103AC000EFC05FD237350100130505F6E9BF373582
:103AD0000100130505F5EFC0FFD0373501001305D0
:103AE00005F7D1B737350100130505F5EFC09FCFB6
:103AF00037350100130505F87DB71305F00F21B424
:103B0000EFC26FF19387C18F03A7019E94434111C8
:103B100063F5E61603A7019E4A841307873E98C300
:103B200083D7818D638B07141D47AA84639AE71698
:103B3000370900209307095C83A547491D45EFE03D
:103B40005FB603A5419B138A419B1309095CEFB043
:103B5000E00013160501418291451385818DEFF038
:103B60000FC103254A00EFA0707F131605014182A3
:103B700095451385818DEFF08FBF81451385818D2C
:103B8000EFE03FEB2685EFF07F88C167FD1763000C
:103B9000F5029387419098436304E50E88C3930729
:103BA000600E1306600E63CFA70C23A2A19C85456F
:103BB0001385818DEFE0FFE72685EFF03F85C16734
:103BC000FD176300F5029387819098436302E50C2B
:103BD00088C39307600E1306600E63CDA70A23A463
:103BE000A19C83A4019EA94523AA918C03A6018DC3
:103BF0001385818D918C37F63600130606E833D68F
:103C0000C40242064182EFF08FB63D66130606A657
:103C100033D6C4029304C003AD451385818D33763A
:103C20009602EFF0CFB403D6818CA9451385818D20
:103C300033569602EFF0AFB303D6818CAD451385B2
:103C4000818D33769602EFF08FB28357C9250146F6
:103C500085C38327492689CF1306400693873706F5
:103C6000B3D7C702032609263356F6021376F60F9A
:103C700081451385818DEFF0EFA041016FC0EFDC2E
:103C800003A6419C81451385818DEFE0BFF605B702
:103C900003A6819C85451385818DEFE0BFF591B723
:103CA00015476390E70603A6018D83A7418DBD6488
:103CB000938404A6918F37F63600130606E833D6B0
:103CC000C7021307C003B3D4970283A5410342067A
:103CD000418283870500B3F4E40299E3938551029E
:103CE000014532C6EFE0FF9B324685451385818D45
:103CF000EFF0EFA7268689451385818DEFF02FA77A
:103D0000ADBF21476385E70045476392E70203A5FE
:103D1000419BEFA0B06413160501418281451385D4
:103D2000818DEFF0CFA403D6419C8545F1B73D4787
:103D30006397E70A03A5419BEFA0506213160501A4
:103D4000418281451385818DEFF06FA203A5819B90
:103D5000EFA0D06013160501418289451385818D3E
:103D6000EFF0EFA0938781919A23420741831DE3EF
:103D7000138701911A239306300B93870191E3FE79
:103D8000E6EE9A239306000FE3E9E6EE9A2323A2D8
:103D9000E19CE5B59A2385466394E6021387019179
:103DA0001A239306700293870191E3F8E6EC9A23B5
:103DB00093068007E3E3E6EC9A2323A4E19C75BD18
:103DC0009E230947E31BF7EA938701919A23930601
:103DD000F00FE3E4E6EA9A2323AEE18A79BD2D47AA
:103DE0006393E70A03A6012581451385818DEFF0D2
:103DF0002FAA138901250326490085451385818D46
:103E0000EFF00FA90326890089451385818DEFF016
:103E10002FA883D7819113898181C207C18385E748
:103E2000138701911A238546938701916395E602D2
:103E3000B737010083A747B705462320F90081451E
:103E40002685EFE03FEA032609008D451385818D25
:103E5000EFF00FA41DB59A238946639AE600B737A1
:103E6000010083A7479809462320F900C9BF9E2374
:103E70000D47E31AF7FCB737010083A787F80D4613
:103E80002320F9006DBF3547E399E7DE83C7118F23
:103E90009384118F6390070C9389012523800190EF
:103EA000B737010083A547B703A58900EF90D06617
:103EB00037370100032707979387418B9386C125E6
:103EC000138681259385412523A4A9001385012507
:103ED000EF10404637350100130505FAEFC09F90FB
:103EE00037390100930509E20145EFE08FFB9305A7
:103EF00009E20545EFE0EFFA930509E20D45EFE031
:103F00004FFAB735010001469385C5FA1385818DB7
:103F1000EFE03FBEB73501000146938505FB1385F1
:103F2000818DEFE01FBDB73501000146938545FB4C
:103F30001385818DEFE0FFBBB73501000146938506
:103F400085FB1385818DEFE0DFBA2388018E8547DD
:103F50009CA025B30547639EE700130700003A863F
:103F600081451385818D23AEE18CEFF06F928947F7
:103F7000C5B70947639EE700130700003A868145ED
:103F80001385818D23A0E18EEFF08F908D47C9B707
:103F90000D47639EE700130700003A8681451385AD
:103FA000818D23A2E18EEFF0AF8E914755B7114777
:103FB000639EE700130700003A8681451385818DD3
:103FC00023A4E18EEFF0CF8C954759B71547639A3C
:103FD000E70283A5018E03A5C18DEF90F05383A561
:103FE000418EEF90705383A5818EEF90F052B737DA
:103FF000010083A5C7F8EFA0C04A23A6A18E994768
:1040000081BF1947639EE700130700003A86814588
:104010001385818D23AEE18CEFF08F879D470DBF17
:104020001D47639FE71003A9C18D81451385818DCD
:104030004A86EFF0EF8583A9C18E4A85CE85EFA031
:104040002035635BA004CE854A85EFA0C06EEFA04B
:10405000904FB737010003A607F983A647F9373A0F
:104060000100B73A0100EF805069634AA0029385CE
:104070008AC90545EFE0EFE2B7350100938505E217
:104080000D45EFE00FE201469305CAFA1385818DD5
:10409000EFE03FA6A1476DBDCA854E857DB7CE85B1
:1040A000238001904A85EFA00037373B01009385BC
:1040B0008AC9635E05040545EFE0AFDECA854E851B
:1040C000EFA06067EFA0304803268BF98326CBF979
:1040D000EF80807CEFA0F0512A868D451385818D7D
:1040E000EFE01FFB654681451385818DEFE05FA7FB
:1040F00005469305CAFA1385818DEFE09F9F93874C
:10410000018F9823E30B07B623800700CDBD05453B
:10411000EFE02FD9CE854A85EFA0E061EFA0B04255
:1041200003268BF98326CBF9EF800077EFA0704C44
:104130002A868D451385818DEFE09FF5614665B731
:104140002147639EE700130700003A8681451385E7
:10415000818D23A0E18EEFE0BFF3A547D5BB2547B6
:104160006390E71203A9018E83A9C18E4A85CE858B
:10417000EFA000226350A006CE854A85EFA0A05B89
:10418000EFA0703CB737010003A607F983A647F9F3
:10419000373A0100EF8070566341A004A9479CA004
:1041A000B7340100938504E20545EFE08FCF938596
:1041B00004E20D45EFE0EFCE5D4685451385818D28
:1041C000EFE01F9A014693050AFB1385818DEFE00E
:1041D0005F9265B4CA854E8555B7CE852380019020
:1041E0004A85EFA04023B7350100B73A0100938517
:1041F000C5FB635E05040545EFE0AFCACA854E8581
:10420000EFA06053EFA0303403A68AF983A6CAF961
:10421000EF808068EFA0F03D2A868D451385818D63
:10422000EFE01FE75D4685451385818DEFE05F93E5
:10423000054693050AFB1385818DEFE09F8B9387DD
:10424000018F9823E30B07A223800700A1B5054542
:10425000EFE02FC5CE854A85EFA0E04DEFA0B02E50
:1042600003A68AF983A6CAF9EF800063EFA070382D
:104270002A868D451385818DEFE09FE1614665B704
:104280002947639EE700130700003A86814513859E
:10429000818D23A2E18EEFE0BFDFAD4755B92D47F9
:1042A000639DE71003A9418E83A9C18E4A85CE85FF
:1042B000EFA0000E635CA004CE854A85EFA0A04766
:1042C000EFA07028B737010003A607F983A647F9C6
:1042D000373A0100EF807042634DA002B1479CA0C5
:1042E000B7340100938504E20545EFE08FBB938569
:1042F00004E20D45EFE0EFBA554689451385818DFF
:10430000EFE01F86014693054AFBC1B5CA854E857D
:1043100075B7CE85238001904A85EFA0C00FB735D1
:104320000100B73A0100938505FC635F050405456C
:10433000EFE02FB7CA854E85EFA0E03FEFA0B02099
:1043400003A68AF983A6CAF9EF800055EFA0702A68
:104350002A868D451385818DEFE09FD3554689458B
:104360001385818DEFE0CFFF054693054AFB13854A
:10437000818DEFE00FF89387018F9823E30F078E6D
:1043800023800700A947E9B60545EFE08FB1CE8548
:104390004A85EFA0403AEFA0101B03A68AF983A636
:1043A000CAF9EF80604FEFA0D0242A868D4513858F
:1043B000818DEFE0FFCD51465DB73147639EE70049
:1043C000130700003A8681451385818D23A4E18E71
:1043D000EFE01FCCB547ADBE35476397E71403A99F
:1043E000818E83A9C18E4A85CE85EF90707A635401
:1043F000A008CE854A85EFA00034EFA0D014B737CF
:10440000010003A607F983A647F9373A0100B73A36
:104410000100EF80902E938701906345A0061386DC
:10442000119018229386119005071377F70F18A2A1
:10443000902329E6054690A399479CA08D4763F6F3
:10444000E700B947238006009CA09385CAFC054578
:10445000EFE02FA5B7350100938505E20D45EFE0AC
:104460004FA455468D451385818DEFE06FEF0146D2
:1044700093058AFB99BBCA854E85B5BF238007008B
:10448000B94765BFCE85238007004A85EF90B07895
:10449000373B01009385CAFC635F05040545EFE0E7
:1044A0004FA0CA854E85EFA00029EFA0D0090326B2
:1044B0008BF98326CBF9EF80203EEFA090132A865C
:1044C0008D451385818DEFE0BFBC6D468D4513850D
:1044D000818DEFE0EFE8054693058AFB1385818D1A
:1044E000EFE02FE19387018F9823630807F823807B
:1044F0000700B147B1BC0545EFE0AF9ACE854A85CC
:10450000EFA06023EFA0300403268BF98326CBF9BC
:10451000EF808038EFA0F00D2A868D451385818DC0
:10452000EFE01FB769465DB739476394E700BD47C1
:1045300005B43D476393E7F4B735010039469385E9
:1045400045FC1385818DEFE02FC72388018E2380E2
:1045500004006FF08FF29387C19083A6019E904371
:10456000637CD60483A6019E9386460694C383A7E4
:10457000019E03A7419163E1E704EFB27FCB2A8458
:10458000EFE05FE193075006630DF50093076006C7
:10459000630DF5001385818DEFF08FD601456FB067
:1045A0007FCB2285EFE05FEDF5B71385818DEFE0DE
:1045B000EFB82389A190F9BF01458280EFB25FC7B0
:1045C0009307C559232AF548B73501009307001012
:1045D0002A84232CF5482310050023010500938528
:1045E00005221305C549EFA0304785472300F46A2B
:1045F00083A7019E9387077D232EF4686FB09FC524
:10460000EFB21FC0130A452341112A845285AE8997
:10461000EF40F07571E54E85EFA010459307C44754
:1046200001493EC4130BE002B73B0100373C0100D7
:10463000B38AA900B73C0100373D0100930D5448EF
:10464000A2455285EF407079AA843DE18307544822
:10465000A5C3E38767FF8347444813F767006DF3FB
:10466000032644490307060011E36E860327446AC4
:1046700005094209135909011DE3C18B95CF9385A3
:104680000C0B5685EFA09035CE8513054D0BEFA092
:10469000701FCE852285AD3729ED23800A00832740
:1046A000446A09476398E7028317846AE39A27F903
:1046B000268541016FB09FB893854BBB328532C6CA
:1046C000EFA0B03B69DD3246CE8513058C0CEFA020
:1046D000701BF1B70547E395E7F62314246B8DB7FC
:1046E000AA84AA85373501001305C50DEFA09019DE
:1046F000C1B7AA8475BFEFB2BFB341112E85B28591
:1047000032C6EF40D0662A84324601E937350100CF
:10471000B2851305450FEFA0F016228541016FB059
:104720007FB3EFB2FFB041112E85B28532C6EF40A4
:10473000D06A32468307960091E3114541016FB07C
:104740007FB1EFB2FFAE117191672A84938707A3FF
:104750001306B00F814548003EC0EFB07FB08A8598
:104760002322046A2285EFF0BFE911616FB09FAE8A
:104770003C218DEFEFB2DFAB930545002A84014564
:10478000EF407022AA8509C9373501001305850657
:10479000EFA0500F6FB01FAC3735010081451305F6
:1047A000C508EFA0300E85473CA0EDB78280A3007E
:1047B00005002301050082803C2199C385471CB177
:1047C00082801C3199C3A30005008280EFB25FA6EE
:1047D000411174001305852502C6EF40503519C5F7
:1047E000373501001305851CEFA0D0093245410182
:1047F0006FB05FA63C21A5CFEFB29FA341112EC69B
:10480000130485250DCE373501001305C510EFA023
:104810007007B24505462285EF40F01AAA8511C9F6
:10482000373501001305C512EFA0D00541016FB067
:104830007FA237350100814513058514F5B737355B
:10484000010013058516EFA0F003B2452946228525
:10485000EF407017AA8511C5373501001305C5183B
:10486000E1B73735010081451305851A75BF828090
:10487000EFB21F9C85473CB10146EFF0BFF76FB028
:104880007F9DEFB2FF9A2E85EF40D05B01C9AA85CC
:10489000373501001305C502EFA0C07E6FB09F9BA6
:1048A000EFB21F993C2195CF2A84373501001305BB
:1048B000C51FEFA0207D8325042637350100130591
:1048C00005A0EFA0207C1305F002EFA0C07F832598
:1048D000442637350100130505EAEFA0A07A6FB032
:1048E0007F973735010013050521EFA0A079C5BFDB
:1048F000EFB21F942E852E84EFA01017AA84930583
:10490000E0042285EFA0D01315ED1385F4FF229566
:10491000B5471CB1A9473CA1A301050037350100EB
:104920001305459CEFA000763735010013054504BB
:10493000EFA04075373501001305053FEFA08074E7
:104940006FB05F919305A002EFA0900F7D15C9B7DE
:1049500091E98347056A8DC383A7019E0327C56933
:1049600063ECE7003C212300056A99E7EFB25F8C16
:10497000EFF01FE06FB01F8E8280EFB27F8B930449
:1049800085252A842685EF4090322685EF40F03C2D
:1049900023000400A30104006FB0DF8BEFB25F8936
:1049A000370400208347045C05498DC7AE84B735C2
:1049B00001009385451E2685EFA0300C1DE51305EB
:1049C000045CA685EFF0DFF21304045C3C3091C771
:1049D000EFC03FC04A856FB0FF8737350100130530
:1049E000C5A7EFA0206A0149F5B71305045CEFF0F5
:1049F000DFF8373501001305851EEFA0A068D9BF89
:104A0000EFB21F8309472322E56A2314B56AB285F2
:104A1000EFF01FBF6FB01F84EFB29F818547232245
:104A2000F56A2A84EFF0DFBD8315846A373501000B
:104A3000130505EAEFA000650355846A6FB09F81F6
:104A4000EFB20FFF9305F0021305C549EFA0407FB9
:104A5000133515006FB01F80EFB28FFD1305C549E8
:104A6000EFA0807F6FB00FFFAA8703850700630563
:104A7000B50001CD8507D5BF2E8581C923800700EC
:104A80008507038707007DFB05458280EFB24FFA5B
:104A90009305F0021305C549EFF01FFD6FB08FFBC2
:104AA000EFB20FF92E849307C549B73501003E8553
:104AB00093858510EFA0E076A285EFA080766FB099
:104AC0006FF9EFB2EFF62A84EF109036EF10304511
:104AD00013058425EF407028A3000400EF107040F8
:104AE000373501001305C505EFB05FD76FB08FF6FE
:104AF000EFB20FF1939A2600330B560139718324DC
:104B00000B00BA89330755012E893E8C0C4383472D
:104B100001082A8A268542CAC68C3ED032C2EF904E
:104B2000A01F12468A0933073A01B30736018043B2
:104B30000C432AC422853EC20A0CEF90E01DB30745
:104B40008901B30B8A0183A50B002AC68843EF9025
:104B5000903E8327C900A2452AC83ED48327CA00B5
:104B60003ECCB7070080BD8C3D8CB307590188430C
:104B7000EF90703CB30739012A8DB2458843EF901E
:104B8000903BAA8DEA852685EF90B011EE852AD656
:104B90002285EF901011B257AA853E85EF90C0177D
:104BA000EE852AD62685EF90D00FEA85AA8D22853C
:104BB000EF90300FAA856E85EF90F037B257BE8523
:104BC000EF501046930500002A8DEF90D0046350FB
:104BD00005026A85EFA02017B737010003A68722D8
:104BE00083A6C722EF704058EFA0A0202A8D8257DD
:104BF00099CF6A85EFA02015B737010003A6872259
:104C000083A6C722EF805006EFA0A01E2A8DC247C0
:104C1000139517000581EFA000132AD02ED26A85C4
:104C2000E685EF901008EFA0001202569256EF5062
:104C3000F026EFA0001CAA8DEFA0E010B73701000E
:104C400003A6072383A64723EF80202B6346051C7A
:104C50006E85EF50900FEF907070931D050193DDFE
:104C60000D0163930D00854D6E85EF909074AA8CB5
:104C7000AA856A85EF90E0402A8D4245E685EF904F
:104C80004040E2452AC82255EF90F02AE685EF9091
:104C9000403F2AD46A85EFA0000BB736010003A677
:104CA000862383A6C6232ACC2ECEEF8060306247AF
:104CB000F2473A86BE86EF80A02FB73701002A86DA
:104CC000AE8603A5072483A54724EF80E079EFA0F3
:104CD000401203A70B009C00E29723A8E7FE0327DE
:104CE000CA00AA8C054A3ADE980056973ACC98003A
:104CF0004E97814B3AD03E8C93170A01C18363F3E0
:104D0000B711E14763CC7709EA852685EF90607992
:104D1000AA89E6852285EF90C078AA854E85EF8026
:104D2000B07FAA89E6852685EF90A077AA84EA85D8
:104D30002285EF900077AA852685EF90D01F1388F3
:104D40001B00931B8801AA8493DB8B414E84A245F0
:104D50002685050AEF80507CE247B24523A8A7FECE
:104D60002285EF80707B8257C24523A8A7FE0325CA
:104D70000CFFEF80707A2328ACFEA2557255EF80AD
:104D8000B0792ADE0818EFC04FCB52475C01741887
:104D900030184C180818EF00E059B9BF5285EF9051
:104DA0005061EA85EF90E06F2A84EF50C071AA89C4
:104DB0002285EF50500683270B0037070080AA8A10
:104DC000B3CBE7009247CE855E858043EF90606D60
:104DD000AA84D6852285EF90C06CAA852685EF80AF
:104DE000B073D685AA845E85EF90A06BAA8ACE8523
:104DF0002285EF90006BAA855685EF90D0132A8408
:104E0000814BB1B752475C019306C9001306890074
:104E1000930549004A85392B21616FB02FC2EFB24B
:104E20002FBE2A84485D4111AE8B328BEF90D06447
:104E30002A89284083298404EF9010642A8C4E85A7
:104E4000EF90305793050000AA8CEF90A04E6300BE
:104E5000051ECA854A85EF90C064AA84E2856285F2
:104E6000EF902064AA852685EF90F00CEF90B06D4E
:104E70002A8A6685AE8AEF90106D2A86AE86EF701C
:104E8000A02E2A86AE865285D685EF70F020EF9050
:104E90005076EF500056EF905046AA846840EF904D
:104EA000B05DAA8A33053041EF90B0509305000001
:104EB000AA89EF902048630F0516D6855685EF9096
:104EC000405E2A8ACA854A85EF90A05DAA855285F0
:104ED000EF907006EF9030672A8D4E85AE8DEF9083
:104EE00090662A86AE86EF7020282A86AE866A856E
:104EF000EE85EF70701AEF90D06FEF500065032AC7
:104F00000401EF90903FB3099A403385A940635F55
:104F1000050A930500006685EF90C041630F0510F8
:104F20006685EF9050622A86AE862A8DAE8DEF7030
:104F3000A0232AC452852EC6EF901054EF90B06083
:104F40002247B2472A86AE863A85BE85EF80400664
:104F50002AC42EC66285E285EF90A054EF90B05E21
:104F60002247B2472A86AE863A85BE85EF80C04F7B
:104F70002A8CAE8C5685D685EF90A052EF90B05C0F
:104F80002A86AE866285E685EF70001EB73701007F
:104F900003A6872A83A6C72A2A8CAE8C6A85EE854B
:104FA000EF8000012A86AE866285E685EF70D00E1E
:104FB000EF903064EF50E043EF903034AA846353B5
:104FC00005008144014563E34401D28499677390ED
:104FD000078083470405E207E187B1E344C8AA9448
:104FE000DE8504CC4A85EF90C04BEF508040EF90B7
:104FF000F036930780076374F50013058007DA85A0
:1050000028C04A85EF90E049EF50A03EEF90103560
:10501000930780076374F5001305800768C09967DC
:10502000938787087390078041016FB02FA1130504
:10503000000085B513050000C9B5130500009DBF2C
:10504000EFB20F9F4111AA842E8532C6EF906045C2
:105050002A84A6852685EF80304C3246B285EF90B3
:105060004044AA852285EF90006DEF50807B41017E
:105070006FB04F9EADC925CAEFB2EF992E8403A938
:10508000C5020854B284CA85EF90C02A21C1834763
:105090009403B9E703AA84024A85D285EF90402F92
:1050A0006350A00448581058B7090080D285334592
:1050B0003501EFF0FFF8AA854A85EF90C0356359B6
:1050C0000500485408D48547230CF4026FB0EF97CD
:1050D000485810588C5433453501EFF07FF6DDB752
:1050E00023242403CDB78280EFB2EF9293874192BD
:1050F000982319677310078003C951921307870813
:105100001379F90F73100780982333072741318BE8
:105110000DCF8023014675143D888149138A4133A0
:10512000930A4005630324036204618411E041444F
:105130007D141374F40FB3045403CE85D2942685E2
:10514000EFF05FF34E86A689F1BF6FB00F9035C5C3
:1051500083479503BDE3EFB20F8C032A850283A931
:105160008502AE842A84CE855285EF90C02A635B87
:1051700005024858105837090080D285334525016B
:10518000EFF01FECAA854E85EF90E028635E0500E6
:1051900080548854A285EF90E01909C5854780D4D2
:1051A000238CF4026FB06F8A485810580C54334562
:1051B0002501EFF0FFE82A84E9BF8280EFB2AF85D6
:1051C00003C4519281441374F40F01459389413310
:1051D000930A4005414B938741929C236304F40258
:1051E0003309540305046204A68561844E994A86F6
:1051F000EFF0FFF563136401014426851374F40F87
:10520000CA84D1BF0146A685EFF07FF46FB0EF836B
:10521000EFA29FFF83C451924111E204E184014453
:1052200093894133130A4005C14B938741929C23D4
:105230006389F404338944034E9905CC834784037E
:1052400081E78347890395C7B3874403832A4402D0
:10525000D685CE978857EF80D0622AC60854D68567
:10526000EF8030623246AA852285EFF05FBB230CC7
:1052700004028504E204E1846393740181444A8456
:105280006DB70DCC44502685EF90F02BB737010059
:105290002A86AE8603A5072B83A5472BEF70C05F38
:1052A000EF9030352AC60854A685EF80905D3246CF
:1052B000AA852285EFF0BFB6230C040241016FA03E
:1052C0003FF8EFA2FFF6EFF03FE2EFF03FEFEFF035
:1052D0003FF46FA03FF823820192A3820192B71797
:1052E00000209387472B23A0070023A2070023A4B5
:1052F000070023A60700938741301307000098C3D7
:10530000D8C398C7D8C723AEE190828093865192C4
:10531000138741928C2210231376F60F630BB6008D
:105320009C2293F7F70F14236385D7008507BD8B65
:10533000DDBF8280EFA2DFECBA8C3E8B9387419277
:105340009C235971138741928507E207E1873EC686
:105350003ACA3247C147AE8BB28936896313F70028
:1053600002C6938751929C233247631BF7002AC8D9
:10537000EF40F071EF10404FEFC0EF8F4245D5B7CF
:10538000938441328C40084137340100138A413202
:10539000EF9020118325C496EF801018EF50E01A8B
:1053A000EF90A075CC40AA8A03A50B00EF90600F88
:1053B0008325C496EF805016EF502019EF90E073CC
:1053C0008C44AA8B03A50900EF90A00D8325C496F9
:1053D000EF809014EF506017EF902072CC442A8C2D
:1053E00003250900EF90E00B8325C496EF80D012CF
:1053F000EF50A015EF906070B71700201387472B70
:10540000584722C83ED42A899389472B6304E50A6A
:1054100083C7418B1387419B8A07BA978C4303A5A7
:10542000C181EF80F0766356A00237350100130585
:10543000459423A62901EF90F04437350100130568
:105440008526EF903044373501001305053FEF9076
:10545000704383A7C900B307F94013D5F741A98F5B
:105460003385A740EF90E074B737010083A547B4B8
:105470002A840325CA00EF90C002AA85EF80D009D4
:10548000AA852285EF80D0706356A00237350100CF
:105490001305459423A62901EF90D03E373501002E
:1054A00013054528EF90103E373501001305053FE1
:1054B000EF90503DD24713074005802383A5090094
:1054C000938741331374F40F3307E4029384413319
:1054D000BA97238807042380070263D5BA000547DB
:1054E0002380E70203A5490063DDAB0013074005F5
:1054F0003307E40226978347070293E72700230038
:10550000F70283A68900635DDC00130740053307BB
:10551000E40226978347070293E747002300F70238
:1055200003A7C900635DE900130640053306C40202
:1055300026968347060293E787002300F602B38787
:10554000BA4013D6F7413348F6003308C8403386D3
:10555000AB409357F6413D8EB306DC401D8E93D78A
:10556000F641BD8E3307E9409D8E9357F7413D8F3D
:105570001D8F83A7C18093084005B3081403330728
:10558000F70293074006A69823A0080123A2C800AB
:1055900023A4D800B347F702368723A6F80063D3C5
:1055A000F6003E876346C7786346070163D5D70098
:1055B000B68711A0C287130740053307E40295465A
:1055C00026971CCB63FAF65C83A7C18B7CC7834705
:1055D0000B00A300F7026388BA000146C1453715E6
:1055E0000140EF40300D93074005B307F402A69742
:1055F000DC4399C70146C14537150140EF40900B88
:1056000093074005B307F402A6979C4799C7014644
:10561000C14537150140EF40F009130B4005330B2E
:105620006403269B8327CB00639B075603ABC19380
:10563000E6855A85EF80D0556343A000668B03A5AD
:1056400009003385AA40EF90C05683250A00EF80F9
:105650005023AAC82AD003A549003385AB40EF9058
:10566000405583254A00EF80D021AACA2A8D03A580
:1056700089003305AC40EF90C05383258A00EF804A
:105680005020AACCAA8C03A5C9003305A940EF90ED
:1056900040528325CA00EF80D01EAA8903A5C1808D
:1056A000EF902051AA854E85EF80B05FB73701009B
:1056B00083A547B4EF80F01C93074005B307F402BD
:1056C000AACE15478256A69790436367C74ED0432C
:1056D0006364C74E90476361C74E0605058188DB4A
:1056E00093074005B307F402373A010003254A98AF
:1056F000A69783AC0703E685EF80B018DA85EF80C4
:10570000505AD247138751929C23182352D0AA890A
:10571000998F93F7F70F13FBF7003ECC1307EBFFBE
:10572000954763ECE706EF900062B73701002A86E1
:10573000AE8603A5072583A54725EF70E015B7378B
:10574000010003A6872383A6C723EF60F021EF4063
:10575000D034EF80804F2A8A03A58193637FAA0209
:1057600033054541060533556503EF90E050C247C8
:1057700083A5C796EF80405AEF40305D2AD252850C
:10578000EF90804F9255EF802059B7370100AA85DE
:1057900003A58724EF80F00EAA89130A4005330A77
:1057A0004403CE856685EF80D04FAA8D014D269AA1
:1057B0002322AA0203250A01EF90004CCE852A8BF2
:1057C000EF80304EEF40F042EF904039825737077C
:1057D0000080232EAA0203AA47989347F7FF3717A2
:1057E00000203ED69307472A2AD23ED89C0833870A
:1057F000A7010C434E85EF80D04A9C103387A70148
:10580000B25708C33377F500C257BA853ADEB3867C
:10581000A7019442368536DCEF80F03F63500502E5
:10582000E25672573685BA85EF80B005D2852ADCFC
:10583000EF8010366344A00062573A8A110DC147C9
:10584000E316FDFA8257528583A54798EF80B03C56
:10585000635405049309010603A50900D285910943
:10586000EF80304423AEA9FE9C18E39737FF9309DD
:105870004005B3093403D2856E85EF809042A69926
:1058800023A2A9021255EF90203FD285EF807041EC
:10589000EF90C02C23AEA902130A4005330A44033B
:1058A000E6855A85EF80E07DAA89269A832D0A0035
:1058B00063920D3483274A00639E073283278A0050
:1058C000639A073283A50194EF80B03DEF407032B8
:1058D000EF90C0282324AA04130A4005330A440386
:1058E000269A03258A04EF902039CE852A8BEF80F3
:1058F0004079232AAA025A85EF90E044B737010085
:1059000003A6872583A6C725EF70806AEF80602DE8
:10591000C247232EAA0003A5C19283A5C796138D63
:10592000C192EF801038C2472A8A03A5019383A54C
:10593000C796A65CEF80F03693951C008581AA89F6
:10594000EF80702D938701933ED263590500D28575
:105950004E85EF80F0236343A0004E8AC24703A523
:10596000819283A5C796365BEF80B03393151B00F9
:105970008581AA89EF80302A938781923ED6635928
:105980000500D2854E85EF80B0206343A0004E8A8B
:1059900093074005B307F402D285A69783A947026F
:1059A0004E85EF80F01E6343A0004E8AE2471387C6
:1059B000C191B98B3AC8D289638C07128329070039
:1059C0004E85EF904038B737010003A6072683A61F
:1059D0004726EF70A047635BA034938741308C4328
:1059E0000655EF805055EF900036938741302AD806
:1059F0002EDA1655CC43EF801054EF90C0342A862F
:105A0000AE86EF70E05A4258D2582ACC4286C686FB
:105A100042852ECEC685EF70A059F24762472A868E
:105A2000AE863A85BE85EF602074EF40F053EF906C
:105A3000403C93074005B307F402032D0D00AA85EF
:105A40002AD86A85A697DC533ECCEF80D01C635BD6
:105A5000052C42576A85BA85EF80A0622A8D93870C
:105A600041308C476685EF80104D9257931C15008E
:105A700093DC1C009C43E6853E853ED0EF80B01948
:105A8000635E05008257E6853E85EF80805FEA858C
:105A9000AA8CEF80F00F6343A000668D938741309E
:105AA000CC475A85EF803049B257131B1500135B62
:105AB0001B0083AC0700DA856685EF80D015635D37
:105AC0000500DA856685EF80C05BEA852A8BEF806A
:105AD000300C6343A0005A8DE2456A85EF80701C4C
