:100000006F50805613000000130000001300000022
:100010001300000013000000130000001300000094
:100020001300000013000000130000001300000084
:08003000130000007300100032
:100038000000000000000000745300007853000026
:1000480000000000AE5400000000000000000000A6
:10005800B0540000B254000000000000000000008E
:100068009880000000000000B65400000000000066
:10007800C8830000BA540000BC540000BE540000FD
:10008800C0540000C2540000C4540000C65400000C
:10009800C8540000CA540000CC540000CE540000DC
:1000A800D0540000D2540000D4540000D6540000AC
:1000B800D8540000DA540000DC540000DE5400007C
:1000C800E0540000E2540000E4540000E65400004C
:1000D800E8540000EA540000EC540000EE5400001C
:1000E8002C4100008A510000F4540000F65400002E
:1000F800F8540000FA540000FC540000FE540000BC
:10010800005500000255000014820000065500004A
:10011800085500000A5500000C5500000E55000057
:100128001055000012550000145500001655000027
:10013800185500001A5500001C5500001E550000F7
:100148000426000022550000245500002655000012
:10015800285500002A5500002C5500002E55000097
:100168003055000032550000345500003655000067
:10017800385500003A5500003C5500003E55000037
:100188004055000042550000445500004655000007
:10019800485500004A5500004C5500004E550000D7
:1001A80050550000525500005455000056550000A7
:1001B800585500005A5500005C5500005E55000077
:1001C8006055000062550000645500006655000047
:1001D8000000000000000000000000000000000017
:1001E8000000000000000000000000000000000007
:0801F8000000000000000000FF
:10020000397101436EC619A0397141536AC866CA73
:1002100062CC5ECE19A0397101535AD056D252D455
:100220004ED64AD826DA22DC06DE330161408282CD
:1002300041114AC026C222C406C68282B24D410183
:10024000024D924C224CB24B4101024B924A224A3F
:10025000B2494101024992442244B24041018280A4
:100260003D432A876373C3029377F700BDEFADE583
:10027000937606FF3D8ABA960CC34CC30CC74CC795
:100280004107E36BD7FE11E28280B306C3408A06C2
:100290009702000096966780A6002307B700A30682
:1002A000B7002306B700A305B7002305B700A304D2
:1002B000B7002304B700A303B7002303B700A302CA
:1002C000B7002302B700A301B7002301B700A300C2
:1002D000B7002300B700828093F5F50F9396850051
:1002E000D58D93960501D58D61B79396270097021A
:1002F000000096968682E78086FA9680C1171D8F49
:100300003E96E374C3F8A5B70100010001000100A7
:10031000010001000100014582803307C5009307F9
:10032000001063C7E702EFF21FEF3289AE89AA849B
:10033000014493170401C18363FE270133878900B9
:10034000A6970C231395070141817D3F0504D5B77E
:10035000014582800545D5BD010001000100010075
:10036000010001000100010001000100014582803F
:10037000EFF21FEC4111AA840144931704012EC629
:10038000C18332C463FEC700338584001375F50F43
:10039000E137B2452246B387850088A30504F1BF43
:1003A0000545410145BDEFF21FE72A89AE8432843D
:1003B0009309F00F370A0100B70A01007D14137486
:1003C000F40F630B34038C2003550900353F0345BC
:1003D000090059379C20638AA70013054A64EF80FF
:1003E000207D1385CA64EF80A07C832709008504E3
:1003F00085072320F900D9B789BDEFF27FE32E9658
:100400004111AA841374F60F88202EC6B137B24565
:1004100088A19C40850585079CC093F7F50FE315DF
:10042000F4FE410105BDEFF2BFE07971C1651384AF
:1004300045614146938545610A85EFD0306D41465F
:10044000930504010808EFD0706C4146930504023F
:100450000810EFD0B06BB716002037170020814787
:100460001386412D9386462513074724C14533083B
:10047000F100032808003385C70000082320050188
:100480003308F400032808003385D7000010232028
:1004900005013308F400032808003385E7009107BD
:1004A00023200501E395B7FCEF307028B707010062
:1004B00083A787661306000023A6F18C23A6F18E7E
:1004C000370701000327C766B706010023A0E18EA6
:1004D0009567938707E223A2F18E23A4C18EB70705
:1004E000010083A7076783A6466723ACF18C23AE80
:1004F000D18C23AAF18C1387C1B210C750C3370720
:1005000001000327876723A6C1B223A8E182B707AA
:10051000010003A5C767EF40F05D23A6A182B707DE
:10052000010003A50768EF40F06023A4A182EF401B
:10053000C03D370701000327476837050100130551
:10054000456423A2E182EF80A06637050100130510
:100550008568EF80E0654561F5B9EFF27FCA938564
:100560000120131425009388C50013888500138A81
:100570004500C6864286338B8500AA899307000012
:10058000D285138501202320FB00EF307007B707C9
:10059000002093878702A2978843938B4181EFD0F5
:1005A000302EB717010003A687BC83A6C7BCCE9B1D
:1005B000EFB0902C2A8C03850B00AE8C9384012124
:1005C000EFC0E07A2A86AE866285E685B70C002009
:1005D000EFB0902A938C8C01EFD050353389840092
:1005E000A29C371E01002320A90003A50C0083252F
:1005F0000EBC9389818023A0A900EFC0305C1383D7
:10060000C400138D840091042A879A866A86A68581
:10061000138501219387018AEF20105E9307000064
:100620002320F900EF40A01C930700002320FB00CB
:100630009388C12013888120D285370A0020C6867E
:10064000428613850120130ACA00EF30607B229A8C
:10065000832D0A0003850B00B7070080B3CDFD0092
:10066000EFD0D008AA856E85EFD04017371E010065
:1006700083250EBC2320A90003A50900930D0000CB
:10068000EFC0D0531383C1212A879A866A86938745
:10069000018AA68513850121EF2010562320B90178
:1006A000EF40E01483250A002E85EFC0901A2A8AB5
:1006B00003850B00EE8BEFD07003AA855285EFD037
:1006C000E011B707010083A5C7662320A90003A591
:1006D0000C00EFD0A010371E010083250EBC23A014
:1006E000A900EFC0B04D1383C1212A879A866A867C
:1006F0009387018AA68513850121EF20F04F2320DF
:10070000B901EF40C00E9387C1B2A29703AA0700B8
:10071000938781B3A2978C435285EFC09013938740
:1007200041B4A297AA8A2320AB008843D285938440
:100730000122EFC01012A29488C0B7070020B704AE
:1007400000209387070093844403A2943E940840BA
:10075000D285EFC0101088C02320590123A0B90111
:10076000EF307012E1BCEFF2BFAC2E84AA853715D2
:100770000100130505A4EF80A0432285EFD050109F
:100780002A8637150100AE86130545A4EF80404246
:10079000D1B4EFF2FFA941112EC4AA85371501008B
:1007A000B286130505A436C6EF8080402246B246C5
:1007B00037150100130545A4EF80803F410159BC66
:1007C000EFF21FA72E84AA8537150100130505A493
:1007D000EF80003E37150100A285130545A4EF8088
:1007E000203D8DBCEFF23FA39384C18898408D4794
:1007F00063C5E706138481891C4013090006B3070B
:10080000F9029389C19AAA853385F900EFD0903E09
:100810003705010013054564EF8080393715010065
:1008200013054582EF80C0380C40371501001305D1
:1008300005A4B305B902CE95EF80803737150100C6
:1008400013050583EF80C0361C4011478507B3E7C9
:10085000E7021CC09C4085079CC0C5BAEFF25F9DB3
:100860005137CDBAEFF2DF9C37150100130545BAB9
:10087000EF800034996773900780B707EFBE37E7C2
:1008800000E0938707083CC76FF0DF9CEFF25F9AA8
:1008900037140140130504808565EF70C07A054662
:1008A000130504808565EF70C076F165938505209A
:1008B00013850199EF7010203725014085451305F8
:1008C0000580EF704078EF70E008371501001305E0
:1008D000C5ADEF80E02D37150100130545AFEF8062
:1008E000202DB704010013854464EF80602C371578
:1008F0000100130585B0EF80A02B3715010013050B
:1009000085B1EF80E02A37150100130505B3EF80AC
:10091000202A371501001305C5B3EF80602937156C
:1009200001001305C5B5EF80A02837150100130598
:1009300085B6EF80E02713854464EF806027371584
:100940000100130545B7EF80A0263715010081454A
:10095000130545B8EF80C02537150100130585B88C
:10096000EF8000253715010093050054130505BAE3
:10097000EF80002423A801887D34EF404026EF203B
:10098000D021EF30104EEF70A0740146856513053D
:100990000480EF7000686FF0FF8B0147930600063C
:1009A0003306E5000306060093178701E187631409
:1009B000B6069305F005254613978701618763CF37
:1009C000E504B306F50094228507938606FD93F6A9
:1009D000F60FE363D6FE8147A54829489305F00545
:1009E000B306E50003860600930606FD93F6F60FB0
:1009F00063E1D802B387070305079376F70F1397D0
:100A000086016187938707FDB297C207C183E3F927
:100A1000D5FC3E8582800507E314D7F88147D5BF12
:100A2000EFF21F81830715001307C004AA846388AF
:100A3000E700130700056380E7046FF0BF81B71577
:100A4000010093858583EFD0101D19C59305A00380
:100A50002685A1372399A18AB7150100938585843E
:100A60002685EFD0501B71D99305A0032685353715
:100A70002398A18AD9B7B715010093850585EFD0D2
:100A8000901945DD930530072685013F1384418B7E
:100A90000AA01E209305A0032685C207C18381CF2B
:100AA000ED3D9307C0033305F5021A203A95420540
:100AB00041810AA059B7D535EDBFEFF26FF703A713
:100AC0004189930700063387E70283A701881385CE
:100AD000C19A8145B306E500958F8507BA973E9583
:100AE000EFE04062EFD080646FF0CFF6EFF24FF4AA
:100AF00003A74189930700063387E70283A701888C
:100B00001385C19A29468145B306E500958F85076F
:100B1000BA973E95EFE060746FF0CFF3EFF24FF1CC
:100B200003A7418993070006AA85B387E7021385C7
:100B3000C19A3E95EFD0900A23A0A1883335A0003A
:100B40006FF04FF1EFF2CFEED13F6FF0AFF0EFF279
:100B5000AFEB9389818083A7090023AEF186938749
:100B60000181984323ACE18A1307400698C303A789
:100B7000C1989387C18A98C3EF3070470545EF301D
:100B800060511387012014439387012194C3544378
:100B900013058005B7040020D4C314475847938B2E
:100BA000C18794C7D8C79307000023A0F900BD37B9
:100BB0009389C18A138B8180938A818B138A0181E7
:100BC00013840120938404226311050C13059005FE
:100BD000B137631C050A1305A00589376317050A99
:100BE00085479CA00145EFF05F979C206386070A2C
:100BF0000545EFF09F969C2089E71305A005393F36
:100C000001C50945EFF07F9513058005013F11C926
:100C1000F13D01C95D35AA8503A5C1B2EFC06043AE
:100C200008C013059005DD3D11C9C93501C97135ED
:100C3000AA8503A501B3EFC0C04148C01305A005B4
:100C4000F13D11C9653501C98D3DAA8503A541B3A3
:100C5000EFC0204008C49306C40013068400930527
:100C6000440013850120EF30A01983A70B00232037
:100C7000FB0083A70A002320FA0083A7C19823A0C2
:100C8000F900EF3040406FF0AFDB130580052380A3
:100C900004006935E31805F4130590054135E3199F
:100CA00005F4A1BFEFF2CFD813850199EF70A070C2
:100CB00037150100130585AAEF70906F83A5C186D3
:100CC00037150100130545AB8505EF70706E6FF0A9
:100CD0006FD8EFF2EFD27571371A00209387018930
:100CE000130A0A491384C19A3EC683270A080327B8
:100CF0004A08998F93F7F70795CB03A7C1888D47CB
:100D0000938CC18863C4E70213850199EF70206852
:100D100062056185A947138701879384418763171B
:100D2000F5029440A9EA2388018631A8130600063B
:100D300081450818EFF0CFD2938701B59C33138D0E
:100D400001B5639F072649616FF04FCFB547E30AAE
:100D5000F5FC9307A0036314F5001C23F9D394401A
:100D60009307E005E3CFD7FA9307B003631AF522A0
:100D700085471CA39DBF938D818983A70D00130612
:100D800000061823B38AC70213898189B309540165
:100D9000CE96238006006312071C32479305E004B9
:100DA0004E85BA9723800700EFD04063630A051A87
:100DB00023A0A1883305354105055695294681456F
:100DC0002295EFE08049938BC18683A70B00138D9A
:100DD000C1892320AD008507138B0188938AC189BF
:100DE0009389C186630EF50403A50D001306000662
:100DF000B70501003305A6029385C56A2295EFD099
:100E000080611DED370501001305456BEF70505AE9
:100E1000370501001305C56BEF70905983A50B00D2
:100E2000370401001305046FEF70905883250D00FF
:100E30001305046FEF70D057B53523A0040021B718
:100E400003250900930B00069305A002B30B75035D
:100E5000B30D74016E85EFD060583DC18147014DDF
:100E6000EE861306A0023387F60003070700630827
:100E7000C7008507E207E187334DA701EDB72320BF
:100E8000AB003305B54105055E9581452295EFE040
:100E90006027EFB090616308A505370501001305D1
:100EA000456BEF70F050370501001305456FEF708B
:100EB00030503715010083A50900130545AB9DBFD0
:100EC000370501001305456BEF70904E37050100A3
:100ED00013054571EF70D04D3705010083A509005A
:100EE0001305056F81BF83A70A0023A0F90083299A
:100EF00009001305000693057004B3093503B30A0E
:100F000034015685EFD0804D05CD23A0A18833054F
:100F1000554105054E9581452295EFE0A01EEFB0A5
:100F2000D0588D4763EEA70083C78186ADE783C79E
:100F300001B599E7370501001305C576EF705047F5
:100F40008327090011478507B3E7E7022320F9004B
:100F500083A70C00850723A0FC0023A0040071B325
:100F60009305A0024E85EFD0604751D137050100AF
:100F70001305456BEF70D043370501001305057469
:100F8000EF70104383A5C186370501001305056F77
:100F9000EF7010425DB5370501001305057779BF85
:100FA0001C23E39407D483A781891387160098C074
:100FB00013070006B387E702A297B69788A335B355
:100FC00083A7418713844187E39F07D6814C138908
:100FD000C19A93890189B70B010003274D26832706
:100FE0000D26E302F7D603A7C1888D47138CC1886D
:100FF000E3CBE7D413058D25EF60B005A947938DAA
:1010000001876304F502B5476301F5029307A00366
:101010006315F50083C70D0089CB18409307E005E1
:1010200063C5E700FD576317F50E03270D268327D9
:101030004D26631FF70613858B7EEF7070373705DB
:1010400001001305C57FEF70B03683A7C1989306E2
:10105000C00323A0F18C03A6C18B3D67130707A62D
:10106000918F33D7E70237F63600130606E8B71537
:101070000100938505810808B376D70233D6C702ED
:10108000EF7050353705010013054564EF7050329D
:10109000371501000C08130545B8EF707031138542
:1010A00001B5EF10502E8545138501B5EF10901650
:1010B00083C70D0099CF0818EFF09F96814713075B
:1010C00000061418BE96238006008507E39BE7FE02
:1010D000814C1040E30906C4938681899C42130722
:1010E000000623800D003387E702232004004A977F
:1010F00032972300070005463387F90010A3032722
:101100000C00850705072320EC001147B3E7E70231
:101110009CC2E1B59307B0036310F50285472380B5
:10112000FD00180993871C00BA9C2380ACFA939C9D
:10113000870193DC8C4155B583C70D00FDF383A770
:1011400081899306170014C093060006B387D7025F
:10115000CA97BA9788A3374700401375F50F83578E
:10116000074093F70708E5DF420541812312A740B6
:10117000ADB503A7C19823A6E18A03A74189938748
:101180000189BA979C238DE3EFF28F8A370501001E
:101190001305C576EF70D02137150100130545F60C
:1011A000EF70D0256FF00F8B8280EFF2EF85938484
:1011B000012013840121014993890186138A418A00
:1011C000914AB387290103850700EFF03F9529CDA8
:1011D000EFF0BF8EB3072A01AA8B882311E593870E
:1011E000618B88231375F50FEFC050508C40EFC012
:1011F000E05EDE85EFB0F06508C0050991041104DA
:10120000E31159FD13056004EFF05F9101CDEFF09C
:10121000DF8A930500002A84EFC0204B6354A000AE
:1012200023A481806FF0CF819C401CC0F9B7EFF2FE
:101230002F80A53F13059004EFF05F8E1384019A71
:1012400011CDEFF09F8708C01305A004EFF01F8DAC
:1012500011C9EFF09F8648C06FE0DFFF93070000E1
:101260001CC0DDB7930700005CC0FDB7EFE25FFC78
:1012700003A901222A840841CA8593840122EFC070
:10128000204D635405002320240103A94400484055
:10129000CA85EFC0E04B6354050023222401844437
:1012A0000844A685EFC0C04A6353050004C4B704D0
:1012B000002003A94403084093844403CA85EFC077
:1012C000C0406354A0002320240103A944004840E7
:1012D000CA85EFC0803F6354A000232224018444C8
:1012E0000844A685EFC0603E6353A00004C46FE0CD
:1012F0007FF6EFE2FFF0138501218D3F03A7C19830
:101300009384012103A501208C4023A6E18A83AAAE
:101310008180EFC0C035CA8C13840120371A0100C8
:10132000938D8121138D412131E1CC404840EFC0A4
:1013300000340DED83250ABC5685EFC020082A87AE
:101340009387018A9386C121138681219385412148
:1013500013850121EF20400A9C401CC0DC405CC08A
:101360009C441CC4DC445CC46FE05FED03A50181B8
:10137000EFC0D037D685EFC0604683250ABCEFC0EA
:10138000E003B717010083A54783EFC020032A8736
:101390009387018A9386C1216E86EA851385012190
:1013A00055BFEFE25FE71384019A2A894840011193
:1013B0001379F90FEFC0D04C2ACC08402ECEEFC0E5
:1013C000304C6246F246EF703048EFC030562ACCBF
:1013D00003A50181EFC0903183A58180EFC000405B
:1013E000B717010083A507BCEFB0507DB717010008
:1013F00083A54783EFB0907C83C7018AE24893843A
:1014000001213EC24AC02A88894705478146138682
:10141000019A938501211385012013840120EF1087
:1014200060799C401CC0DC405CC09C441CC4DC4413
:101430005CC403A7C19823A6E18A05616FE0FFE0C1
:10144000EFE21FDF996773900780EF305003054686
:10145000C14537150140EF60D03B0546C145371502
:101460000140EF60103B0546C14537150140EF6074
:10147000503A0546C14537150140EF6090393705B0
:10148000010013054564EF70A072371501001305C4
:10149000C5ABEF70E07137150100130505FBEF7068
:1014A0002071EFF02FBC01A0EFE29FD81386C18A14
:1014B00083A6C1980C4203A641888D8E9387C18A6A
:1014C0006374D60011C2AD3F83A64180A1CA03A7B1
:1014D000C1989C43B307F74063F2F60403C7018D3C
:1014E00083C7118D93F7F70F639AE7020546C1454D
:1014F00037150140EF60F0310546C1453715014011
:10150000EF6030310546C14537150140EF6070305E
:101510000546C14537150140EF60B02FEF10506B05
:101520006FE05FD3EFE2DFD0EF30607593878186A5
:1015300098231DE3054798A303A7C186370501003B
:101540001305456423A4E188EF7080663705010028
:1015500013050577EF70C0656FE0DFCF03C58186A7
:101560008280EFE2FFCC83C7018AAA84130540057D
:10157000238CF186EFF08FDA09E501494A856FE0A7
:101580007FCD2A89EFF06FD3EFC0F01013848187ED
:101590001375F50F08A075D13705010013054564D3
:1015A000EF700061930790066384F40463CE9700A4
:1015B000930780066387F4020C203715010013059A
:1015C00045B8EF70E05E5DBF9307D0066387F40215
:1015D0009307A00DE392F4FE37150100130505A94A
:1015E00029A037150100130585A4EF70605CE9B7E9
:1015F00037150100130505A6CDBF371501001305EA
:1016000085A7E5B7EFE2DFBF5D7113057004EFF06A
:10161000EFD063060516EFF04FCAEFC0B001914757
:101620006303F50C63CCA7008947630EF50863C517
:10163000A70A63500508EFF0DFB359A09307A00590
:101640006303F51063C8A700F147E316F5FEEFF05A
:101650000FD0D5B79307B005630AF50E9307C00501
:10166000E31BF5FC13055004EFF04FCB19E1EF300D
:101670000018138401208144938901861389C120B5
:10168000138AC1B2930A8400B387990003850700C7
:10169000EFF0CFC811C98D47639EF40AEFF0EFC198
:1016A00048C44A85EF20D00485049147E39EF4FCAA
:1016B00059B783C7818681EBEFF03FAFEFF07FC36F
:1016C00061616FE0BFB783C7818699E7EFF03FB6EE
:1016D0000545EFF01FCDEDB783C7818689E7EFF0B1
:1016E0001FB50145FDB713050005EFF02FC30144F9
:1016F00011C5EFF08FBCEFC0007A2A8413053005C6
:10170000EFF0CFC101CDEFF04FBBB707010083A5CC
:101710008766EFC0A00CEFC000782A84EF30200D60
:1017200003A7C19883A6C198BE843A9423A6D18A00
:1017300083A7C198E3F187F0EF60F04BEF30002E04
:10174000EFF09FD6F5B7238B018AF5B50547238BBC
:10175000E18AD5B5EFF06FB693972400330BF40010
:10176000D297AA858843EFB0D00E2320AB00CA865B
:101770005686930544002285EF20806835B713050F
:10178000D004EFF0AFB919E16F007053EFF0EFB292
:10179000EFC0406A13079006AA876300E566634EB0
:1017A000A7147147630BE5506342A70A5947630DBD
:1017B000E546634EA7044947630DE50C634EA70257
:1017C0004547E31AE5E60146C14537150140EF609C
:1017D00050040146C14537150140EF6090030146B2
:1017E000C14537150140EF60D0020146C1453715AC
:1017F0000140EF60100281B551476306E54055474F
:10180000E31BE5E2138501B5EF10C0022DB5654776
:10181000630EE5466341A7025D47630CE5406147FF
:10182000E31BE5E0138501B5EF10400503A7C19860
:1018300023AEE18A09B569476300E5466D47E31CBD
:10184000E5DE138501B5EF10E011F5B313072005B0
:101850006308E56C6341A7027947630DE54A634776
:10186000E54A7D476301E55613071005E315E5DCFE
:10187000EFE05FFFC9B3130750056308E574634DDC
:10188000A702130730056301E56A13074005E31457
:10189000E5DA13053005EFF06FA8630C0568EFF08B
:1018A000CFA1B707010083A58766EFB03073EFC003
:1018B000805E23A2A18041B31307C0056309E572CE
:1018C00013078006E319E5D613058006EFF07FC9FC
:1018D000E31305D613053005EFF04FA401CDEFF06B
:1018E000CF9D03C48187938701970A043E94EFC07C
:1018F000605408C0EF3080383DBB1307C00CE302D2
:10190000E51A6349A72213077007E30CE508634053
:10191000A71C130720076302E5786346A71813077F
:10192000D006E31AE5D01305D006EFF09FC3E31409
:1019300005D013053005EFF06F9E93848187138ADD
:10194000019709C9EFF06F978020EFC0A04E0A04FD
:10195000529408C0EF30803203C904000A09B3076B
:101960002A01884383AAC198B71B0100EFC0005821
:10197000938701963E9983270900AA8C7D593EC41E
:10198000B717010003AC478693890196371D010004
:10199000E28D83A7C1981307803EB3875741637CCC
:1019A000F708B71701001385C78CEF7060209C20E3
:1019B0008A07CE978843EFC0A06CB71701002A862C
:1019C000AE861385078DEF70A01EB7170100138533
:1019D000878DEF70E01D8C2013850B8CEF70401D00
:1019E0001305CD8DEF70C01C03A50197EFC000500B
:1019F000EFC04044AA8513850B8CEF70601B371530
:101A000001001305058EEF70A01AFD57630DF94A0A
:101A100083A7C1988965938505719D8DCA95130724
:101A2000803EB3D5E50237150100130545ABEF70D5
:101A3000201883AAC198EF20707EEFF0FFA6FD5713
:101A40006318F94AA2456685EFB030489C208A07A2
:101A50003EC63307FA00635FA0460843EFC0004963
:101A6000EE85EFC0E000B247CE978C43EFB0504E0A
:101A7000E341A0F203A9C198FD57E30CF9F0634BD1
:101A8000090003A7C19889679387F7703307274137
:101A9000E3F1E7F003A7C19823AEE18A03A7C19859
:101AA00023A6E18A49BE130730076300E55E1307EA
:101AB0005007E312E5B803A501889305A0021505B8
:101AC000EFC0D011E30905B6A30F05FEADB61307AD
:101AD000C0086306E530634EA70013078007630F55
:101AE000E56A130790070545E397E7B4EF20805AAE
:101AF00099B61307900C6307E5761307B00C014401
:101B0000E31BE5B2371900209384018613094925A8
:101B10009149B387840003850700EFF02F8019C532
:101B2000EFE0BFF993172400CA9788C30504E312B6
:101B300034FF11B61307D012E30EE504634DA7027C
:101B40001307E00CE301E5006343E5781307C00DDC
:101B5000E303E5021307D00DE31FE5AC13053005E1
:101B6000EFE0DFFBE30905ACEFE03FF5EFC0802CD1
:101B700023A6A180C9B413070019E30EE51263443C
:101B8000A7061307E012E303E5101307F012E314AE
:101B9000E5AA13055004EFE07FF88144E307051040
:101BA000EFE0BFF1EFC00029AA84E3500510B7179A
:101BB000010003A4078613053005EFE03FF601C5D9
:101BC000EFE0BFEF2A8413053004EFE03FF5154640
:101BD00011C5EFE09FEEEFC0E0252A86A68522859D
:101BE000EF30E00B89BC1307003A6306E5181307D2
:101BF000703EE312E5A42384018603A7818823A60F
:101C0000E186EFF0FF833715010013050588EF60CB
:101C1000307A138501B5EF00103F37150100130529
:101C20000589EF60F07801BC138501B5EF007044C1
:101C300019B49389418903A40900130900063304E8
:101C400089029384C19AB71501009385058A33856B
:101C50008400EFC0407CE300059E93054400A695F8
:101C60000808EFC020790C080546138501B5EF0080
:101C7000B04483A50900B305B902A6953715010044
:101C8000130505A4EF60D0726FF0FF9A138501B5BC
:101C9000EF00703F6FF03F9A138401B53C20E38C56
:101CA000079813053005EFE07FE7E3060598EFE0BE
:101CB000FFE32322A4266FF01F9803A50188930554
:101CC000A002138401881105EFC04071AA8415C5D4
:101CD00003A54189930700069305E004B387A70293
:101CE0001385C19A3E95EFC0606F93050002EFC067
:101CF000E06E050508C0A38F04FE0C400146910567
:101D0000138501B5EF00503B6FF0FF92238801B4BB
:101D10006FF07F92938701B5BC23E38E0790138504
:101D200001B5EF00D05103A501889305A00293846B
:101D300001881105EFC0806A2A8915C503A541896C
:101D4000930700069305E004B387A7021385C19AA1
:101D50003E95EFC0A06893050002EFC0206805051E
:101D600088C0A30F09FE8C40138501B59105EF00D3
:101D7000903D6FF05F8C03A501889305A00213844A
:101D800001881505EFC08065AA8415C503A54189A2
:101D9000930700069305E004B387A7021385C19A51
:101DA0003E95EFC0A06393050002EFC020630505D8
:101DB00008C0A38F04FE0C40138501B59505EF0004
:101DC00070376FF05F8703A7C198370501001305CF
:101DD000456423A0E18CEF60B05D0C0845B51305A8
:101DE0003005EFE0BFD3E3080584EFE01FCDEFC07F
:101DF000600423AAA1966FF01F84EFF08FF6E31C16
:101E00000582370501001305C576EF60705A371556
:101E10000100130545F6EF60705E371501001305EC
:101E2000858AEF60F058138481871C201387019600
:101E30008A07BA978843B7140100EFC060242A8646
:101E4000AE861385048BEF60B0563715010013057D
:101E5000858BEF60F0551C20138701978A07BA978E
:101E60008843EFC0A008EFC0A0212A86AE86138564
:101E7000048BEF60F053371501001305C58BEF603D
:101E800030530820EF20302AAA85371501001305AA
:101E9000058CEF60F051371501001305458CEF609C
:101EA00030517D55EF203028AA85371501001305E4
:101EB00045B8EF60F04F371501001305C5F7EF6027
:101EC000304F6FF0EFFF371501001305458EEF60BF
:101ED000304E85B60843EFC06001E285EFB0601771
:101EE000B247CE978C43EFB0407EE35505B855B46A
:101EF0009C208A073387F900D29788433AC6EFB00F
:101F0000F07E3247AA850843EFB09036EFB090726A
:101F10009357F5413D8D1D8DA947E3D4A7B699BED2
:101F2000A383018A6FF02FF10547A383E18A6FF045
:101F30008FF013058005EFE07FBE29CDEF20300B39
:101F400013058005EFE09FBD19C50546C14537154E
:101F50000140EF60000C13059005EFE03FBC19C590
:101F60000546C14537150140EF60A00A1305A005DD
:101F7000EFE0DFBA19C50546C14537150140EF60EE
:101F8000400913055004EFE07FB9630605EA0546F2
:101F90006FF0DF8513059005EFE05FB845F113059D
:101FA000A005EFE0BFB759F913055004EFE01FB7E4
:101FB00051F5EF20D0030546C14537150140EF60CC
:101FC0004005EF20700D6FF00FE713053005EFE0CF
:101FD000FFB4EFE09FAEB707010083A58766EFB0BF
:101FE000E07FEFB0506B23A2A1886FF0CFE4B7176A
:101FF000010003AC8786B71A00200144138B0186C9
:102000009384412D938A4A25B3078B0003850700EB
:10201000EFE0DFB031CD8D476312F406EFE0FFA9AA
:10202000E2852A8AEFB0C07263520504C844D285A3
:10203000EFB0C038AA89AA8503A5418D1389412C28
:10204000EFB0C07923AAA18C03A5CA00CE85EFB05A
:10205000E07823A6AA000325C900EFB09075CE85CD
:10206000EFB0C077EFB030632326A90023A6440168
:1020700005049147E31AF4F86FF0EFDBEFE0FFA3FC
:1020800093172400A69788C3E5B7371501001305F9
:10209000C58EEF60B0366FF00FDA3715010013050B
:1020A0008598EF60F030138401200840B7140100D8
:1020B000EFB0107D2A86AE86138544A4EF60502FC2
:1020C000371501001305C598EF60902E4840EFB01A
:1020D000307B2A86AE86138544A4EF60702D3715B9
:1020E000010013050599EF60B02C0844EFB050795A
:1020F0002A86AE86138544A4EF60902B3715010025
:1021000013054599EF60D02A4844EFB070772A86CE
:1021100037150100AE8613058599EF6070293715D4
:1021200001001305059AEF60B0280145EF20C07447
:10213000EFB0D05B83A5412D1384412DEFB0002873
:10214000EFB010742A86AE86138544A4EF60502643
:102150000545EF206072EFB070594C40EFB000269B
:10216000EFB010722A8637150100AE861305C59AA6
:10217000EF6010240945EF202070EFB030570C4479
:10218000EFB0C023EFB0D06F2A8637150100AE86BE
:102190001305459BEF60D0216FF0EFC901456FF04B
:1021A000FF94371501001305059CEF60702037156B
:1021B00001001305C59DEF60B01F37150140930561
:1021C0000008130505C0EF3020698547631DF5063B
:1021D000B71501009385858737140100130544B8AE
:1021E000EF60101D371501001305459EEF60501C70
:1021F0003715014093050020130505C0EF30C06579
:1022000085476317F504B715010093858587130586
:1022100044B8EF60F019371501001305C59EEF6053
:1022200030193715014093050040130505C0EF3004
:10223000A06285476313F502B71501009385858772
:10224000130544B881B4B71501009385C58669B7F5
:10225000B71501009385C5865DBFB715010093854D
:10226000C586F9BF371900200144938401861309FC
:102270004924114AB387840003850700EFE01F8AD1
:1022800011C9EFE09F8393192400CA99EFB0B040C1
:1022900023A0A9000504E31F44FDEF1050496FF08F
:1022A0008FB913053005EFE07F8709C5EFE0FF80A8
:1022B00023A6A18C13054005EFE05F8619E16FF0BE
:1022C0008FB7EFE08FFF23A6A18E6FF0CFB6130577
:1022D0003005EFE0BF8409C5EFE02FFE23A0A18EFB
:1022E00013054005EFE09F8309C5EFE00FFD23A430
:1022F000A18E13052004EFE07F8219C5EFE0EFFB0C
:10230000EFB0703923A2A18E13058005EFE01F8185
:1023100009C5EFE08FFA23ACA18C1305A005EFE00F
:10232000EFFF09C5EFE06FF923AEA18C1305500450
:10233000EFE0CFFE19E16FF00FB0EFE00FF823AA46
:10234000A18C6FF04FAF0144938401861389C1B211
:102350008D49B387840003850700EFE02FFC19C582
:10236000EFE0AFF593172400CA9788C30504E31282
:1023700034FF6FF04FAC13053005EFE02FFA19E191
:102380006FF06FABEFE06FF3EFB0D02A23A8A1801E
:102390006FF06FAA13050005EFE04FF809C5EFE0F5
:1023A000CFF123A8A18213059004EFE02FF719C500
:1023B000EFE0AFF0EF20107423A6A18213054004D4
:1023C000EFE0CFF519C5EFE04FEFEF20B07623A493
:1023D000A18213053004EFE06FF409C5EFE0EFEDE3
:1023E00023A2A182EF206052370501001305C576B4
:1023F000EF60007C371501001305459FEF60407BBF
:1024000003A5018337140100EFB090472A86AE86FA
:10241000130544A4EF60C079371501001305859FAB
:10242000EF60007903A5C182EF20D06EEFB0504578
:102430002A86AE86130544A4EF6080773715010025
:102440001305C59FEF60C07603A58182EF209070D1
:10245000EFB010432A86AE86130544A4EF604075A2
:1024600037150100130505A0EF60807403A54182B4
:10247000EFB010412A86AE86130544A4EF60407386
:1024800037150100130505FB6FF0AFF91305300593
:10249000EFE0CFE89307000001C5EFE00FE2AA8765
:1024A0003E85EF1070286FF00F99B717010003A455
:1024B000C7856FF04FF0EF2080336FF0CF97130593
:1024C0004005EFE0AFE5B704010051C1EFE0EFDEFA
:1024D000EFB0701C1375F50F1384818708A015C524
:1024E00013854464EF60C06C13054005EF507071B4
:1024F0000C20371501001305058BEF60606B371555
:102500000100130545A06FF0CFF113056004EFE063
:10251000EFE001CDEFE06FDA930500002A84EFB021
:10252000C01A6354A00023A4818013854464EF6023
:10253000206837150100130585A1EF606067371526
:10254000010083C5018A130585C26FF0AFF31385BF
:102550004464EF60E065371501001305C5A2EF6024
:10256000206583A541899307000637150100B387CD
:10257000B7029385C19A130505A4BE95EF60406329
:1025800037150100130505836FF0AFE9EFD2DFC700
:10259000EFE0CFAF894A1384C19A930B0006114C28
:1025A00083A7C1881389C18863C4FA00EFE06FF282
:1025B0008145138501B5B9298327090095C79384FF
:1025C00041898C40138501B5B385BB02A295492989
:1025D000EFF04F8383270900FD172320F9009C406B
:1025E0008507B3E787039CC0EF204043EFE0DFEBB4
:1025F000EF10F01975B7EFD2BFC3138501B54920AD
:102600006FD05FC5EFD2DFC2375400409305505200
:10261000130504C0EF30500A39C19387C12283A645
:102620000708035644C083A54708138716004206CF
:102630001377F70341826306B700BE9690A223A0EA
:10264000E70883A7C198375500409387470693054D
:102650005052130505C023A2F18CEF30B009375456
:10266000004093056062130504C0EF30F00419C503
:1026700093056062130504C0EF30D0076FD09FBD93
:10268000EFD21FBB9307C559232AF548B7150100A0
:10269000930700102A84232CF548231005002301FA
:1026A0000500938545DC1305C549EFB0B054854757
:1026B0002300F46A83A7C1989387077D232EF468CB
:1026C0006FD05FB9EFD2DFB3130A452341112A84DB
:1026D0005285AE89EF40D07F71E54E85EFB09052C4
:1026E0009307C44701493EC4130BE002B71B010026
:1026F000371C0100B38AA900B71C0100371D010077
:10270000930D5448A2455285EF504003AA843DE101
:1027100083075448A5C3E38767FF8347444813F7FB
:1027200067006DF3032644490307060011E36E8634
:102730000327446A05094209135909011DE3C18BA6
:1027400095CF93854CC55685EF60C048CE8513055F
:102750008DC5EF60E045CE852285AD3729ED23801C
:102760000A008327446A09476398E7028317846A4B
:10277000E39A27F9268541016FD05FAC93850B8AD8
:10278000328532C6EFB0304969DD3246CE85130559
:10279000CCC6EF60E041F1B70547E395E7F62314B7
:1027A000246B8DB7AA84AA8537150100130505C8C7
:1027B000EF600040C1B7AA8475BFEFD27FA7411177
:1027C0002E85B28532C6EF40B0702A84324601E9C8
:1027D00037150100B285130585C9EF60603D22857C
:1027E00041016FD03FA7EFD2BFA441112E85B28522
:1027F00032C6EF40B07432468307960091E311452C
:1028000041016FD03FA5EFD2BFA2117191672A8419
:10281000938707A31306B00F814548003EC0EFD051
:102820003FA48A852322046A2285EFF0BFE9116163
:102830006FD05FA23C218DEFEFD29F9F93054500A3
:102840002A840145EF40502CAA8509C9371501009B
:102850001305C5C0EF60C0356FD0DF9F371501008D
:102860008145130505C3EF60A03485473CA0EDB753
:102870008280A30005002301050082803C2199C3CA
:1028800085471CB182801C3199C3A300050082805A
:10289000EFD21F9A411174001305852502C6EF403F
:1028A000303F19C5371501001305C5D6EF6040301C
:1028B000324541016FD01F9A3C21A5CFEFD25F97DF
:1028C00041112EC6130485250DCE371501001305C1
:1028D00005CBEF60E02DB24505462285EF40D024C0
:1028E000AA8511C937150100130505CDEF60402CED
:1028F00041016FD03F963715010081451305C5CEC4
:10290000F5B7371501001305C5D0EF60602AB24551
:1029100029462285EF405021AA8511C537150100AF
:10292000130505D3E1B73715010081451305C5D45B
:1029300075BF8280EFD2DF8F85473CB10146EFF053
:10294000BFF76FD03F91EFD2BF8E2E85EF40B065BD
:1029500001C9AA8537150100130505BDEF604025A3
:102960006FD05F8FEFD2DF8C3C2195CF2A84371553
:102970000100130505DAEF60A0238325042637053F
:1029800001001305056FEF60A0221305F002EF5060
:1029900050278325442637150100130545B8EF60FD
:1029A00020216FD03F8B37150100130545DBEF6009
:1029B0002020C5BFEFD2DF872E852E84EFB0902474
:1029C000AA849305E0042285EFB0502115ED13850C
:1029D000F4FF2295B5471CB1A9473CA1A30105000E
:1029E000370501001305456BEF60801C37150100AA
:1029F000130585BEEF60C01B37150100130505FBED
:102A0000EF60001B6FD01F859305A002EFB0101D73
:102A10007D15C9B791E98347056A8DC383A7C1981E
:102A20000327C56963ECE7003C212300056A99E7A9
:102A3000EFD21F80EFF01FE06FD0DF818280EFD2F6
:102A40002FFF930485252A842685EF40703C268538
:102A5000EF40D04623000400A30104006FD08FFF95
:102A6000EFD20FFD370400208347045705498DC777
:102A7000AE84B7150100938585D82685EFB0B019CF
:102A80001DE513050457A685EFF0DFF21304045784
:102A90003C3091C7EFE01FB74A856FD0AFFB3705D9
:102AA00001001305C576EF60A0100149F5B71305C5
:102AB0000457EFF0DFF8371501001305C5D8EF60B4
:102AC000200FD9BFEFD2CFF609472322E56A23149E
:102AD000B56AB285EFF01FBF6FD0CFF7EFD24FF5D9
:102AE00085472322F56A2A84EFF0DFBD8315846AC7
:102AF00037150100130545B8EF60800B0355846A54
:102B00006FD04FF5EFD2CFF29305F0021305C54910
:102B1000EFB0D00C133515006FD0CFF3EFD24FF1DB
:102B20001305C549EFB0100D6FD0CFF2AA8703850A
:102B300007006305B50001CD8507D5BF2E8581C986
:102B4000238007008507038707007DFB05458280FA
:102B5000EFD20FEE9305F0021305C549EFF01FFD0C
:102B60006FD04FEFEFD2CFEC2E849307C549B71546
:102B700001003E859385C5CAEFB07004A285EFB011
:102B800010046FD02FEDEFD2AFEA2A84EF10304659
:102B9000EF10505413058425EF405032A300040079
:102BA000EF10904F37150100130505C0EFD01FCB74
:102BB0006FD04FEAEFD2CFE4939A2600330B560141
:102BC000397183240B00BA89330755012E893E8C55
:102BD0000C43834701082A8A268542CAC68C3ED008
:102BE00032C2EFA0004712468A0933073A01B30701
:102BF000360180430C432AC422853EC20A0CEFA052
:102C00004045B3078901B30B8A0183A50B002AC68F
:102C10008843EFA0F0658327C900A2452AC83ED4A7
:102C20008327CA003ECCB7070080BD8C3D8CB3071C
:102C300059018843EFA0D063B30739012A8DB2450B
:102C40008843EFA0F062AA8DEA852685EFA01039AF
:102C5000EE852AD62285EFA07038B257AA853E8528
:102C6000EFA0203FEE852AD62685EFA03037EA85F3
:102C7000AA8D2285EFA09036AA856E85EFA0505FC1
:102C8000B257BE85EF608054930500002A8DEFA0F7
:102C9000302C635005026A85EFB0803EB717010003
:102CA00003A687DC83A6C7DCEF808058EFB000481E
:102CB0002A8D825799CF6A85EFB0803CB717010003
:102CC00003A687DC83A6C7DCEF909006EFB0004632
:102CD0002A8DC247139517000581EFB0603A2AD0BC
:102CE0002ED26A85E685EFA0702FEFB060390256CC
:102CF0009256EF606035EFB06043AA8DEFB0403878
:102D0000B717010003A607DD83A647DDEF90602B10
:102D10006346051C6E85EF60001EEFB0C017931D63
:102D2000050193DD0D0163930D00854D6E85EFB0B8
:102D3000E01BAA8CAA856A85EFA040682A8D4245CF
:102D4000E685EFA0A067E2452AC82255EFA05052C1
:102D5000E685EFA0A0662AD46A85EFB06032B71688
:102D6000010003A686DD83A6C6DD2ACC2ECEEF9019
:102D7000A0306247F2473A86BE86EF90E02FB71741
:102D800001002A86AE8603A507DE83A547DEEF9005
:102D9000207AEFB0A03903A70B009C00E29723A88C
:102DA000E7FE0327CA00AA8C054A3ADE9800569728
:102DB0003ACC98004E97814B3AD03E8C93170A013B
:102DC000C18363F3B711E14763CC7709EA852685B0
:102DD000EFA0D020AA89E6852285EFA03020AA8521
:102DE0004E85EFA00027AA89E6852685EFA0101F53
:102DF000AA84EA852285EFA0701EAA852685EFA009
:102E0000304713881B00931B8801AA8493DB8B41F6
:102E10004E84A2452685050AEFA0A023E247B245CD
:102E200023A8A7FE2285EFA0C0228257C24523A86F
:102E3000A7FE03250CFFEFA0C0212328ACFEA2555E
:102E40007255EFA000212ADE0818EFE02FC252478A
:102E50005C01741830184C180818EF00E059B9BF1D
:102E60005285EFB0A008EA85EFA050172A84EF60E2
:102E70004000AA892285EF60C01483270B00370722
:102E80000080AA8AB3CBE7009247CE855E85804357
:102E9000EFA0D014AA84D6852285EFA03014AA858D
:102EA0002685EFA0001BD685AA845E85EFA01013AF
:102EB000AA8ACE852285EFA07012AA855685EFA03A
:102EC000303B2A84814BB1B752475C019306C9005D
:102ED00013068900930549004A85392B21616FD07B
:102EE000EFB5EFD2EFB12A84485D4111AE8B328B42
:102EF000EFB0200C2A89284083298404EFB0600BAE
:102F00002A8C4E85EFA0907E93050000AA8CEFA03E
:102F100000766300051ECA854A85EFA0300CAA849E
:102F2000E2856285EFA0900BAA852685EFA050343C
:102F3000EFB000152A8A6685AE8AEFB060142A8643
:102F4000AE86EF80E02E2A86AE865285D685EF804B
:102F50003021EFB0A01DEF509064EFA0B06DAA84B7
:102F60006840EFB00005AA8A33053041EFA0107821
:102F700093050000AA89EFA0806F630F0516D68520
:102F80005685EFA0B0052A8ACA854A85EFA01005AC
:102F9000AA855285EFA0D02DEFB0800E2A8D4E85E8
:102FA000AE8DEFB0E00D2A86AE86EF8060282A86CF
:102FB000AE866A85EE85EF80B01AEFB02017EF502D
:102FC0009073032A0401EFA0F066B3099A40338599
:102FD000A940635F050A930500006685EFA020699C
:102FE000630F05106685EFB0A0092A86AE862A8D8C
:102FF000AE8DEF80E0232AC452852EC6EFA0707BF1
:10300000EFB000082247B2472A86AE863A85BE85D1
:10301000EF9080062AC42EC66285E285EFA0007C70
:10302000EFB000062247B2472A86AE863A85BE85B3
:10303000EF9000502A8CAE8C5685D685EFA0007A92
:10304000EFB000042A86AE866285E685EF80401EDA
:10305000B717010003A607E583A647E52A8CAE8CC7
:103060006A85EE85EF9040012A86AE866285E68508
:10307000EF80100FEFB0800BEF507052EFA0905B1D
:10308000AA84635305008144014563E34401D2846B
:1030900099677390078083470405E207E187B1E3EE
:1030A00044C8AA94DE8504CC4A85EFA02073EF5073
:1030B000104FEFA0505E930780076374F50013056F
:1030C0008007DA8528C04A85EFA04071EF50304D67
:1030D000EFA0705C930780076374F5001305800709
:1030E00068C09967938787087390078041016FD004
:1030F000EF941305000085B513050000C9B513054D
:1031000000009DBFEFD2CF924111AA842E8532C616
:10311000EFA0C06C2A84A6852685EF909073324676
:10312000B285EFA0A06BAA852285EFA07014EF6096
:10313000000A41016FD00F92ADC925CAEFD2AF8D01
:103140002E8403A9C5020854B284CA85EFA0205278
:1031500021C183479403B9E703AA84024A85D28533
:10316000EFA0A0566350A00448581058B70900803B
:10317000D28533453501EFF0FFF8AA854A85EFA0E7
:10318000205D63590500485408D48547230CF40298
:103190006FD0AF8B485810588C5433453501EFF041
:1031A0007FF6DDB723242403CDB78280EFD2AF862C
:1031B0009387018D982319677310078003C9118DB8
:1031C000130787081379F90F7310078098233307C3
:1031D0002741318B0DCF8023014675143D888149ED
:1031E000138A412E930A4005630324036204618419
:1031F00011E041447D141374F40FB3045403CE85DD
:10320000D2942685EFF05FF34E86A689F1BF6FD08A
:10321000CF8335C583479503BDE3EFC2DFFF032AA4
:10322000850283A98502AE842A84CE855285EFA0CB
:103230002052635B05024858105837090080D28538
:1032400033452501EFF01FECAA854E85EFA04050D5
:10325000635E050080548854A285EFA0404109C5F3
:10326000854780D4238CF4026FC03FFE4858105825
:103270000C5433452501EFF0FFE82A84E9BF828032
:10328000EFC27FF903C4118D81441374F40F01451B
:103290009389412E930A4005414B9387018D9C23CE
:1032A0006304F4023309540305046204A6856184AF
:1032B0004E994A86EFF0FFF56313640101442685B9
:1032C0001374F40FCA84D1BF0146A685EFF07FF4D2
:1032D0006FC0BFF7EFC25FF383C4118D4111E204E9
:1032E000E18401449389412E130A4005C14B938721
:1032F000018D9C236389F404338944034E9905CCE2
:103300008347840381E78347890395C7B3874403D1
:10331000832A4402D685CE978857EFA0200A2AC672
:103320000854D685EFA080093246AA852285EFF0A1
:103330005FBB230C04028504E204E18463937401FF
:1033400081444A846DB70DCC44502685EFA050537C
:10335000B71701002A86AE8603A587E583A5C7E5D2
:10336000EF800060EFA0905C2AC60854A685EFA00D
:10337000E0043246AA852285EFF0BFB6230C040292
:1033800041016FC0FFEBEFC2BFEAEFF03FE2EFF0A9
:103390003FEFEFF03FF46FC0FFEB2388018CA38871
:1033A000018CB71700209387472623A0070023A28C
:1033B000070023A4070023A607009387412B1307C8
:1033C000000098C3D8C398C7D8C723A4E18C8280D3
:1033D0009386118D1387018D8C2210231376F60F9F
:1033E000630BB6009C2293F7F70F14236385D70075
:1033F0008507BD8BDDBF8280EFC29FE0BA8C3E8B1C
:103400009387018D9C2359711387018D8507E207EE
:10341000E1873EC63ACA3247C147AE8BB289368988
:103420006313F70002C69387118D9C233247631BF9
:10343000F7002AC8EF40307CEF10405EEFE0CF8607
:103440004245D5B79384412D8C4008413704010093
:10345000138A412DEFA080388325C466EF90703F1A
:10346000EF507029EFA0101DCC40AA8A03A50B00D5
:10347000EFA0C0368325C466EF90B03DEF50B02773
:10348000EFA0501B8C44AA8B03A50900EFA00035C8
:103490008325C466EF90F03BEF50F025EFA0901924
:1034A000CC442A8C03250900EFA040338325C46651
:1034B000EF90303AEF503024EFA0D017B71700202C
:1034C00013874726584722C83ED42A89938947261E
:1034D0006304E50A83C7018A138701968A07BA97AE
:1034E0008C4303A58181EFA0401E6356A0023705DF
:1034F00001001305456423A62901EF50606B3715C1
:103500000100130505E1EF50A06A3715010013050E
:1035100005FBEF50E06983A7C900B307F94013D555
:10352000F741A98F3385A740EFA0501CB7170100C2
:1035300083A587DE2A840325CA00EFA0202AAA8556
:10354000EF903031AA852285EFA020186356A002A3
:10355000370501001305456423A62901EF50406596
:10356000371501001305C5E2EF50806437150100DF
:10357000130505FBEF50C063D247130740058023B6
:1035800083A509009387412E1374F40F3307E402D7
:103590009384412EBA97238807042380070263D5BA
:1035A000BA0005472380E70203A5490063DDAB00AD
:1035B000130740053307E40226978347070293E782
:1035C00027002300F70283A68900635DDC00130750
:1035D00040053307E40226978347070293E7470035
:1035E0002300F70203A7C900635DE9001306400545
:1035F0003306C40226968347060293E7870023001A
:10360000F602B387BA4013D6F7413348F6003308C1
:10361000C8403386AB409357F6413D8EB306DC403D
:103620001D8E93D7F641BD8E3307E9409D8E93578B
:10363000F7413D8F1D8F83A7C18093084005B308D4
:1036400014033307F70293074006A69823A0080146
:1036500023A2C80023A4D800B347F702368723A6C5
:10366000F80063D3F6003E876347C77863460701D7
:1036700063D5D700B68711A0C2871307400533076B
:10368000E402954626971CCB63FBF65C83A7818AF0
:103690007CC783470B00A300F7026388BA0001468A
:1036A000C14537150140EF40D01693074005B307D9
:1036B000F402A697DC4399C70146C145371501407E
:1036C000EF40301593074005B307F402A6979C47D7
:1036D00099C70146C14537150140EF409013130BC0
:1036E0004005330B6403269B8327CB00639C07565E
:1036F00003AB818EE6855A85EF90307D6343A00051
:10370000668B03A509003385AA40EFA0207E8325A0
:103710000A00EF90B04AAAC82AD003A54900338511
:10372000AB40EFA0A07C83254A00EF903049AACAA5
:103730002A8D03A589003305AC40EFA0207B8325AB
:103740008A00EF90B047AACCAA8C03A5C900330524
:10375000A940EFA0A0798325CA00EF903046AA893E
:1037600003A5C180EFA08078AA854E85EFA0000751
:10377000B717010083A54783EF9050449307400596
:10378000B307F402AACE15478256A6979043636802
:10379000C74ED0436365C74E90476362C74E060568
:1037A000058188DB93074005B307F402370A01005F
:1037B00003254A68A69783AC0703E685EF9010407F
:1037C000DA85EFA0A001D2471387118D9C2318231F
:1037D00052D0AA89998F93F7F70F13FBF7003ECCCD
:1037E0001307EBFF954763ECE706EFA07009B717E7
:1037F00001002A86AE8603A587DF83A5C7DFEF8099
:103800002016B717010003A687DD83A6C7DDEF707A
:103810003022EF504043EF90C04F2A8A03A5418EDB
:10382000637FAA0233054541060533556503EFA0C2
:103830004078C24783A5C766EF90B001EF50A06BF8
:103840002AD25285EFA0E0769255EF909000B717FC
:103850000100AA8503A5C7DEEF905036AA89130A96
:103860004005330A4403CE856685EF903077AA8DF4
:10387000014D269A2322AA0203250A01EFA06073B4
:10388000CE852A8BEF909075EF506051EFA0A0602D
:10389000825737070080232EAA0203AA476893475E
:1038A000F7FF371700203ED6930747252AD23ED888
:1038B0009C083387A7010C434E85EF9030729C1013
:1038C0003387A701B25708C33377F500C257BA85CB
:1038D0003ADEB386A7019442368536DCEF90506716
:1038E00063500502E25672573685BA85EF90102D67
:1038F000D2852ADCEF90705D6344A00062573A8A5B
:10390000110DC147E316FDFA8257528583A547681A
:10391000EF901064635405049309010603A50900A0
:10392000D2859109EF90906B23AEA9FE9C18E39786
:1039300037FF93094005B3093403D2856E85EF90B4
:10394000F069A69923A2A9021255EFA08066D2853C
:10395000EF90D068EFA0205423AEA902130A4005CF
:10396000330A4403E6855A85EF905025AA89269AA2
:10397000832D0A0063930D3483274A00639F073227
:1039800083278A00639B073283A5C18EEF90106561
:10399000EF50E040EFA020502324AA04130A400572
:1039A000330A4403269A03258A04EFA08060CE855B
:1039B0002A8BEF90B020232AAA025A85EFA0406CF0
:1039C000B717010003A607E083A647E0EF80C06AAF
:1039D000EF90A02DC247232EAA0003A5818D83A5B9
:1039E000C766138D818DEF90705FC2472A8A03A549
:1039F000C18D83A5C766A65CEF90505E93951C00B1
:103A00008581AA89EF90D0549387C18D3ED26359A6
:103A10000500D2854E85EF90504B6343A0004E8A3F
:103A2000C24703A5418D83A5C766365BEF90105B47
:103A300093151B008581AA89EF9090519387418D42
:103A40003ED663590500D2854E85EF9010486343FA
:103A5000A0004E8A93074005B307F402D285A697CB
:103A600083A947024E85EF9050466343A0004E8ADB
:103A7000E2471387818CB98B3AC8D289638C0712CD
:103A8000832907004E85EFA0A05FB717010003A6AA
:103A900087E083A6C7E0EF80E047635CA0349387AC
:103AA000412B8C430655EF90B07CEFA0605D93876F
:103AB000412B2AD82EDA1655CC43EF90707BEFA01D
:103AC000205C2A86AE86EF80205B4258D2582ACCF2
:103AD0004286C68642852ECEC685EF80E059F247E3
:103AE00062472A86AE863A85BE85EF706074EF50D5
:103AF0006062EFA0A06393074005B307F402032DB3
:103B00000D00AA852AD86A85A697DC533ECCEF9093
:103B10003044635C052C42576A85BA85EF90100AE1
:103B20002A8D9387412B8C476685EF90707492574E
:103B3000931C150093DC1C009C43E6853E853ED01B
:103B4000EF901041635E05008257E6853E85EF9059
:103B5000F006EA85AA8CEF9050376343A000668D8B
:103B60009387412BCC475A85EF909070B257131B27
:103B70001500135B1B0083AC0700DA856685EF90A8
:103B8000303D635D0500DA856685EF903003EA8598
:103B90002A8BEF9090336343A0005A8DE2456A85EB
:103BA000EF90D0432A8BAA854E85EF90703A6343FD
:103BB0000500DA8993074005B307F402A697C85BAE
:103BC00023A63703905BB717010083A507DFB7076C
:103BD00000803D8DEFF00FD3CE852A8BEF90F02E35
:103BE0006343A000DA89930740053304F4025A8541
:103BF000A294C05023A43403A285EF90102D134546
:103C0000F5FF85477D814146A38CA402238CF402F5
:103C10008C101385412BEFA0606FC247A28552859F
:103C200080C3EF90A0792AC8A2854E85EF900079D5
:103C30004246AA852685EFF0CFAA52471C86414608
:103C40008C001CA3A257D6C0DEC213854726E2C44F
:103C5000CAC6EFA0A06BEFF00FF3EF000044656160
:103C60006FC0CFDD0146C14537150140EF40603AD6
:103C70008327CB00E38E07A603AB018EA5BCB685D8
:103C80003685EF90B035AA89EA856A85EF901035C0
:103C9000AA854E85EF90E03BAA89E6856685EF9080
:103CA000F033AA854E85EF90C03AEF50405293070B
:103CB0004005B307F402A697EDB4930C4005B30C8E
:103CC000940383A5C18C4E85EF905031EF50200DA9
:103CD000EFA0601C03AA412C138D412CA69C23A4A9
:103CE000AC04EFA0002D2AD26E85EFA020209257C1
:103CF000AA853E85EF90902EDA85EF90206CAA8DF4
:103D00005285EFA0002BAA856E85EF90101C63549E
:103D1000A00023A44C05930C4005B30C9403032A84
:103D20004D00A69C03A58C04EFA0A028AA8D03A596
:103D30004C00EFA0A01BAA856E85EF90302ADA8593
:103D4000EF90C067AA8D5285EFA0A026AA856E8548
:103D5000EF90B0176354A00023A44C05930C4005CA
:103D6000B30C9403032ACD00A69C03A58C04EFA0FA
:103D70004024AA8D03A5CC00EFA04017AA856E852C
:103D8000EF90D025DA85EF906063AA8D5285EFA081
:103D90004022AA856E85EF9050136354A00023A49F
:103DA0004C05930C4005B30C9403032A8D00A69C8C
:103DB00003A58C04EFA0E01F2A8D03A58C00EFA0C3
:103DC000E012AA856A85EF907021DA85EF90005F96
:103DD0002A8B5285EFA0E01DAA855A85EF90F00E40
:103DE000E35EA0BA23A44C0555BE825703AD4768D5
:103DF0000DBBD289C1B3E3410689B2876FF0FF875B
:103E0000EFC26FC19384412D08412E8A8C4041112D
:103E100036C432C637090100EF90501C8325C966AD
:103E2000B719002013844926EF90A022EF50A00C70
:103E3000EFA04000CC4008C003250A00EF90101A04
:103E40008325C966EF90E020EF50E00AEF90907E66
:103E500032468C4448C00842EF9050188325C9660A
:103E6000EF90201FEF502009EF90D07CA246CC4469
:103E700008C48842EF9090168325C966EF90601DB4
:103E8000EF506007EF90107B48C49306C400130600
:103E900084009305440013854926EF00F0171307AB
:103EA000000023A4E18C9387412B98C3D8C398C703
:103EB000D8C741016FC06FB9EFC28FB783A5C12DBD
:103EC00008413714002013044426EF903011B7073F
:103ED000010083A5C766EF90C017EF50C001EF90B7
:103EE000707508C413058400EF0090156FC08FB67D
:103EF000EFC20FB483A5012E08413714002013042C
:103F00004426EF90B00DB707010083A5C766EF9078
:103F10004014EF40507EEF90F07148C41305C40088
:103F2000EF00D0136FC00FB323ACA1808280EFC22B
:103F30008FAE3719002001449389412C130949247D
:103F40009384412D414AB30789008843B38A89008D
:103F5000EFA02006B38784008C431104EF90100873
:103F6000EF90707323A0AA00E31F44FD6FC0EFAD74
:103F700083C6018D83C7118D93F7F70F6388D70030
:103F800083C7118D8507BD8BA388F18C8280EFC21A
:103F90002FAA9387618F9C2393F7F70F1389618F63
:103FA0009384718F1384818F91EB9C2093F7F70F8B
:103FB00091E71C2093F7F70F6385070C3705010085
:103FC00013054564EF40D03E37150100130545E762
:103FD000EF40103E8347090093F7F70F8DC7B717DF
:103FE000002003A54728EF90707083A5412DEF9026
:103FF000E03CEFA0E0082A8637150100AE861305E5
:1040000045E8EF40F03A9C2093F7F70F95C7B717B4
:10401000002093874728C843EF90506D83A5812DDA
:10402000EF90C039EFA0C0052A8637150100AE8693
:104030001305C5E8EF40D0371C2093F7F70F95C75D
:10404000B7170020938747288847EF90306A83A5E9
:10405000C12DEF90A036EFA0A0022A8637150100EF
:10406000AE86130545E9EF40B0343715010013055E
:1040700005FBEF40F03323000900238004002300F8
:1040800004006FC02F9D238B018EA38B018E238C88
:10409000018E8280238EA1808280EFC26F99854538
:1040A00037050040EF1050496FC0CF9A29671307BA
:1040B00007C49387018F636DA7041567130707E291
:1040C000AA856379A7048981114737450F00130535
:1040D00005243345B50298A3930730064205418174
:1040E00063E5A704EFC2CF94371501004111130512
:1040F00005E62EC6EF40D02BB2453715010013055B
:1041000045B8EF40F02A1305400641016FC08F9477
:10411000BA8555BF0967130707716376A7009355E2
:10412000150009475DB705474DB782807971854510
:104130003705004022D626D44AD24ED052CE56CC95
:104140005ACA5EC862C666C46AC26EC0EF107042C8
:1041500063030544854537050040EF10104383A7EE
:1041600041921384419299EF83C6018D83C7118DCB
:1041700093F7F70F6398D72E9305007D370500401E
:10418000EF10303E1C406388074083C70702238836
:10419000F190858B1389C190938901919384018259
:1041A000638C073205469305000237150140EF3056
:1041B0005066FD579CA083C7C181A1CB3715014034
:1041C00093050008130505C0EF10006983C6C1857B
:1041D000938741903387A6403337E0006386A60279
:1041E00094239DC2144090426350C00237160020B1
:1041F00083254627944A371600202322B628854572
:10420000238BB18E2320D90098A383C70900898B03
:10421000638E072C371A01400546930500041305E9
:104220000A80EF30105FFD579CB083C7C181A1CBDE
:104230009305002013050AC0EF10006283C6D185E4
:10424000938751903387A6403337E0006388A602F6
:1042500094238DC6104054426352D002B7160020FA
:1042600093864627CC42B716002093864628CCC2B8
:104270008545A38BB18E144A2320D90098A383C708
:104280000900918B63800728371A01400146916528
:1042900013050A80EF30F057FD57BCA083C7C181DA
:1042A000A1CB9305004013050AC0EF10E05A83C666
:1042B000E185938761903387A6403337E0006388B8
:1042C000A60294238DC6104014466352D002B7163E
:1042D0000020938646278C46B716002093864628F2
:1042E0008CC68545238CB18E144A2320D90098A30F
:1042F00083C70900A18B6382072237150140054659
:10430000854513050580EF30D050FD57B7190140A2
:10431000BCB0014A938B09C0B71A00208387018F74
:1043200018406356FA209387819194431843369737
:1043300098C3635BE002054691455E85EF30704DA2
:104340001440938781919843944A01469145158F73
:1043500098C39C2013874A271443E207E187B69746
:104360005E851CC3EF30F04A18409387C191944397
:104370005843369798C3635FE002054693050008EB
:1043800013850980EF30F04814409387C19198431A
:10439000944A014693050008158F98C39C301387F3
:1043A0004A275443E207E187B697138509805CC327
:1043B000EF30304618409387019294431847369760
:1043C00098C3635DE0020546A16513850980EF305F
:1043D00050441440938701929843944A0146A16542
:1043E000158F98C3BC2013874A271447E207E1873B
:1043F000B697138509801CC7EF30B04118409387EA
:10440000419194435847369798C3635DE00205464F
:10441000894513850980EF30D03F1440938741913F
:104420009843944A01468945158F98C3BC30138739
:104430004A275447E207E187B697138509805CC78E
:10444000EF30303D83270900184085072320F9000D
:1044500083270900184B63FCE70C050A620A135A0C
:104460008A416DBD03C7118D93074005B387E702ED
:1044700037170020130747D0BA97CA3F054723884C
:10448000E7042388E7041CC023A00190EFF01FC2BB
:104490002399A18E0387018F2394E1901C4003D5BB
:1044A0000704239AA18EEFF07FC023AEA18EAA85C8
:1044B00037050040EF10F00A1C409C4B8583B30782
:1044C000F04023ACF19023AEF19023A0F19223AA07
:1044D000F19023A601907DB10146930500023715A6
:1044E0000140EF30103385479CA005B337150140DC
:1044F00001469305000413050580EF309031854790
:104500009CB0B5BB37150140054691651305058084
:10451000EF3030308547BCA0E1BB37150140014684
:10452000854513050580EF30D02E8547C5B318406B
:1045300083270900544B63EFF606504F83A6C18FC3
:104540009384C18FB387C602B396C602E183505FDE
:10455000A206D58F3443B697C207C183239AF18E42
:104560001387418F6373F60012A30A23EFF01FB481
:10457000AA89AA8537050040EF10A07E88404E9595
:1045800088C0184083270900184B63E6E700232002
:104590000400EFF0FF9D3254A25412598259724A1E
:1045A000E24A524BC24B324CA24C124D824D4561F5
:1045B0007300203083270900144F63F2F604544F30
:1045C00083A701907843938401903385D702B397F2
:1045D000D7026181A2075D8D9317050103D5418F35
:1045E000C183637BF500131507014181E370E5F892
:1045F0001315070141819DBF1D8D4205FDB783D570
:10460000218F37050040EF10C07583D78190138745
:10461000018F1CA3BDB7EFB2BFC101112A8485452C
:104620000545EF10804A930730024C0837050040DB
:104630003ECAE084231D0100EF10606505468545F4
:1046400037050040EF10C0709307C0127C86854785
:104650005C87680085473EC8EF10602205616FB037
:104660007FBFEFB2FFBC930500023715014037143E
:104670000140EF30501D1305048093050004EF3016
:10468000901C130504809165EF30F01B1305048026
:104690008545EF30501BC14537150140EF30B01A4A
:1046A0000546C14537150140EF30B016C1453715F5
:1046B0000140EF3050190546C14537150140EF3034
:1046C0005015C14537150140EF30F0170546C1457B
:1046D00037150140EF30F013C14537150140EF3079
:1046E00090160546C14537150140EF30901213056D
:1046F00004C093050008EF3090170546130504C069
:1047000093050008EF30F010130504C09305002056
:10471000EF30F0150546130504C093050020EF3077
:10472000500F130504C093050040EF3050140546A8
:10473000130504C093050040EF30B00D130504C00D
:104740009145EF305010130504C001469145EF30FC
:10475000500C0546C14537150140EF30900B13054D
:10476000048093050008EF30100E13050480014605
:1047700093050008EF30F0090546C14537150140A3
:10478000EF30300913050480A165EF30D00B13051D
:1047900004800146A165EF30D0070546C1453715B5
:1047A0000140EF301007130504808945EF30B00950
:1047B0001305048001468945EF30B0050546C14523
:1047C00037150140EF30F00413054006EFF0BFE469
:1047D000854537050040EF1020560547238EE180C0
:1047E000996793878708739007806FB0BFA6EFB271
:1047F0003FA403C7018D83C7118D93F7F70F63950E
:10480000E70083A7419299C7EF30F03E012CEFC03B
:10481000BFC9C5B76FB01FA41967731007800841DF
:10482000B71700209387472788C38C411307870851
:10483000CCC3104290C79442D4C7731007808280C3
:104840009967739007801441371700201307472793
:1048500014C7938787087390078082809967739045
:1048600007801441371700201307472754C7938741
:104870008708739007808280996773900780131769
:10488000250037150020130545273A9508419387E1
:104890008708739007808280EFB29F99EFF03FF511
:1048A0000546C14537150140EF30A0760546C145A4
:1048B00037150140EF30E0750546C1453715014019
:1048C000EF3020750546C14537150140EF30607463
:1048D0006FB05F98EFB2DF95814537050040EF106C
:1048E000A04503C7018D83C7118D93F7F70F639B15
:1048F000E70085453705004023A20192EF10C04331
:104900006FB05F95EFF0CFE6E9BFEFB27F9283A57E
:10491000C182B717010003A58715EF80302A23ACA9
:10492000A1926FB03F936355050003C54193828008
:1049300093870195AA9788238280EFB2DF8D41117A
:104940002A849DC5370501001305456B2EC6EF402F
:104950002026B24537150100130585C2EF404025DA
:1049600037150100130505EEEF408024EFC05FAD61
:1049700045679306C71585471307C7157D46839975
:104980004600635E34059386F7FF8A068A07BA9667
:10499000BA97839426000395270003990600058D96
:1049A000EF90C0542A8A33052441EF902054AA8501
:1049B0005285EF80B0622A8433852941EF900053FD
:1049C000AA852285EF80901F2A842685EF900052C9
:1049D000AA852285EF80E06741016FB01F878507B8
:1049E0009106E39EC7F813050000FDB7EFB25F84A0
:1049F00003A5C1968145EFF05FF423A0A1961307AC
:104A0000000023A2E19699677390078023800194A8
:104A100093878708739007806FB0DF8383C7019403
:104A200093F7F70F638C071AEFB20FFEEFF01FFC3E
:104A300083A4019603A90197138441954A85EF90B9
:104A4000E04AA685EF90C002B717010083A547860C
:104A5000AA89EF8090476352A00685471CA0B7172C
:104A6000010003A4871503A5C19413890195EF9054
:104A7000E047A685EF80D04D6359051403A58183D7
:104A8000EF90C046A685EF8050446350A014228565
:104A9000EF90403A05852300A900938741949843FD
:104AA00083A6C198998E0567130777BB6375D700F6
:104AB00003A7C19898C36FB0AFF8B717010083A5DB
:104AC00007084E85EF80D04863440500631709004E
:104AD00085471CA01304000079B71C201389C192DC
:104AE00099C7930700002320F9002300040083A541
:104AF00001834E85EF80904E832509002A8A4E85DA
:104B0000EF80205503A4C193AA89A285EF80504469
:104B1000634B050003A481934E85A285EF80F03A94
:104B20006343A0004E8483A5C1822320890022858F
:104B3000EF80D04A138481920C40AA8A2685EF80A8
:104B4000307383A5818213898194EF803049EF907F
:104B50002053B717010003A6870883A6C708EF7084
:104B6000A0512A8B03250900AE8BEF906051B71737
:104B7000010003A6070983A64709EF70E04F2A86C4
:104B8000AE865A85DE85EF60A06AEF90205AAA892A
:104B90002320A90004C0D6855285EF80804BCE85A6
:104BA000EF80106D930500002A84EF80703AE34394
:104BB00005F2B717010003A987152285CA85EF8082
:104BC000D030E352A0EA4A8479BD371501001305BD
:104BD000850923000900EF30B07DC1B58280EFB2B6
:104BE0002FE51307000023AEE19283A5C182B7171A
:104BF000010003A58715EF80607C23ACA19291454D
:104C000037150140EF3020440146894537150140F2
:104C1000EF30C040EF30E04F595723A6E194B7176B
:104C2000010003A907081384418308408145EFF080
:104C3000DFD0CA85EF80D031635605001C40C11714
:104C40001CC0D5B71307A00F23ACE182B717010032
:104C500003A947151384019308408145EFF0FFCD68
:104C6000CA85EF8090266356A0001C40C1071CC077
:104C7000D5B72D45EF30A02B6FB0CFDD8280EFB2DE
:104C80002FDB23A8019623AA0196014691453715EB
:104C9000014023880194EF30C0376FB0AFDBEFB233
:104CA0002FD6397183AAC19832CA854763DBB70012
:104CB00037150100130585F1EF30906F21616FB05A
:104CC000EFD72A8C37150100130545F4AE84EF3079
:104CD000306EEFF0DFFA63DA0414130700F8238A6A
:104CE000E192930B0008B717010003AB07F093079D
:104CF00000003EC6BE89B717010003A847E583A799
:104D000007E55E8442CE3ECCB717010003A8C7F08A
:104D100083A787F05E8A42D23ED0B717010003A86E
:104D2000C7DD83A787DD56C442D63ED4B71701003E
:104D300003A847F183A707F1D68D02C8854C02C2AC
:104D40003ED842DA03CD0194137DFD0F63000D2898
:104D5000EFF0DFC963C4040E939724001387019614
:104D6000BA9783A907003245CE85EF8010166343BA
:104D7000A0004EC6CE855A85EF80901D6343050086
:104D80004E8B63810C04E2854E85EF801014635FC7
:104D9000A022A24703A7C1981D8F856793878738F4
:104DA00063F6E722B3078A40858793F7F70F63DA44
:104DB0000408238AF19283AAC198A24762C6B387E6
:104DC000FA403EC8E2854E85EF809018814C635FC3
:104DD000051E03A7C1988567938787383307574116
:104DE000814C63F5E71E83A7C1983EC49247635187
:104DF000F01CA2474247B3875741B38CE700B30783
:104E0000F74033848702CD4733449403529463D0F0
:104E1000871E63DD042A9307C00E63C987029307C8
:104E2000F00F228A63C88B020DA893870195A6977D
:104E30001307F00798A3930BF00775B583A9419664
:104E40001DB71387019526971CA3B5B71304C00E91
:104E50009307F00F228A3384874037150100D285EB
:104E6000130585F5EF30D05437150100A2851305E1
:104E700085F6EF30F0535A85EF9080202A8637155B
:104E80000100AE86130545F7EF3090523245EF90A2
:104E9000201F2A8637150100AE86130505F8EF306E
:104EA00030511247894763D5E7106685EF900004BB
:104EB000B707010083A58766EF804050AA8C228542
:104EC000EF70F06A6246F246EF70001B2ADC324552
:104ED0002EDEDA85EF80D039EF90801A0256925696
:104EE000EF7080192256B256EF7000196257F257D0
:104EF0002A86AE863A85BE85EF609026EF90002325
:104F0000EF9000182A862ADC37150100AE861305BB
:104F1000C5F82EDEEF30D0496685EF9060162A8600
:104F200037150100AE86130585F9EF3070486257DA
:104F3000F2574256D2563A85BE85EF70E013EF9095
:104F4000E01E2A8B37150100130545FAEF30504655
:104F50005A85EF90E0122A8637150100AE861305B8
:104F600045FBEF30F044DA855A85EF80800EE68508
:104F7000EF80C044EF90C0102A8637150100AE863E
:104F8000130505FCEF30D042DA856685EF80100509
:104F9000B717010083A547F0EF805004EF90400E53
:104FA0002A8637150100AE861305C5FCEF30504048
:104FB000B3078A00858793F7F70F63DD0402238A1E
:104FC000F1929247628BEA8C85073EC2B7170100C7
:104FD00083A587866285EF80C007CE85EF80407706
:104FE000635F050037150100130585FDF1B1514AD6
:104FF0005144A5B51387019526971CA3D9B783A75C
:10500000C1981307007DB387B7416372F706370570
:105010000100B71D010063D004081305C57603CD58
:105020004193EF30F03813854DF6EF30303D3715B2
:10503000010013054500EF30B0374E85EF90400476
:105040002A8637150100AE86130545A4EF30503689
:10505000371501001305C58BEF309035371501006A
:10506000EA85130545B8EF30B03483ADC19883A706
:10507000C19803A7C198BA972247B3875741998F20
:1050800037571200130707F86379F7023715010045
:105090001305C50015B193870195A6971305C5762D
:1050A00003CD0700EF30D03013854DF6EF301035CB
:1050B000371501001305858ABDBF92475247E35358
:1050C000F7C8371501001305C502FDB69307B00EEA
:1050D00063D787001304B00E9307E00FA5BB9307B7
:1050E000E00F81B3EFB2CF942A84EFF05FB9EFC045
:1050F000EFC605E5370501001305456BEF30502B72
:1051000037150100A285130585C2EF30702A3715C7
:1051100001001305450BEF30B029EFC0AFC06FB0F1
:105120006F93EFB2EF902A84EFF07FB5EFC00FC31B
:1051300005E5370501001305456BEF30702737157E
:105140000100A285130585C2EF30902637150100B6
:105150001305450EEF30D025EFC0CFBC6FB08F8F59
:10516000EFB20F8DEFC08FBF09ED370501001305BA
:10517000456BEF30F0233715010013054511EF3073
:105180003023EFC02FBA6FB0EF8C411122C6370425
:10519000004085451305044026C44AC2EF00703D17
:1051A000630A050E130504408545EF00103E83C7D2
:1051B000C1831384C18393845195C1E783C701954B
:1051C0009CA095EB0146914537150140EF20706496
:1051D0001C201D4785071CA083C77195938461958A
:1051E00013847195636BF70E45678A071307C7E948
:1051F000BA979C4382870546914537150140EF20B9
:1052000050610146914537150140EF2090600546F9
:10521000914537150140EF20D05F37290140014605
:10522000854513050980EF20D05E054685451305A9
:105230000980EF20105E0146854513050980EF20A7
:10524000505D98201C20E3E5E7F8ADBF85471CA022
:105250009820BD4763FCE7021387019410239386CF
:1052600001941376F60F138781959387C19519E6FC
:105270000C4323A6B1968C4323A4B196054690A275
:10528000238004002320070023A0070083A7C198E0
:1052900083A741993244A24412494101730020304E
:1052A0003725014013050540E521938781959843F3
:1052B00009852A9798C3894759BF8D4749BF9147A8
:1052C00079B7954769B7994759B79D4749B79C2022
:1052D0002300040085079CA0A5BF37050100130526
:1052E000456BEF30F00C371501001305C5EBEF30BF
:1052F000300CB9BFEFA2DFF3EF809058B717010071
:1053000003A687ED83A6C7EDEF601057EF8010620C
:105310006FA05FF4EFA2DFF1EF809056B7170100A6
:1053200003A687ED83A6C7EDEF608063EF80106072
:105330006FA05FF2EFA2DFEFEF809054B71701008C
:1053400003A687ED83A6C7EDEF608061EF80105E56
:105350006FA05FF0EFA2DFEDEF809052B717010072
:1053600003A687ED83A6C7EDEF601051EF80105CB8
:105370006FA05FEE73002030EF20C052AA85371572
:1053800001001305851DEF30B002EF200052AA8501
:10539000371501001305851EEF309001EF202050D6
:1053A000AA85371501001305851FEF30700001A095
:1053B000B71702409843B706FFF84111136717006B
:1053C00098C3D84337060200758FD8C39843B706F1
:1053D000F7FEFD16758F98C39843B706FCFFFD16C0
:1053E000758F98C3D843B70681FFFD16758FD8C354
:1053F0009843B70600ECFD16758F98C33707FF007A
:1054000098C723A6070202C402C69843C166558FF7
:1054100098C3B716024005679C42F18F3EC6A2476B
:1054200085073EC4B24781E7A247E397E7FEB71777
:1054300002409C431397E7006357070685473EC623
:1054400032478547631FF704B7170240D843B706B2
:10545000C1FFFD16D8C3D843D8C3D843136707404C
:10546000D8C3D843758FD8C3D843B7061D00558F0E
:10547000D8C39843B7060001558F98C39843931635
:105480006700E3DD06FED843B7160240719BD8C320
:10549000D84313672700D8C32147DC42B18BE39E72
:1054A000E7FE4101828002C661BF01A001A001A008
:1054B00001A001A001A001A001A001A001A001A0E4
:1054C00001A001A001A001A001A001A001A001A0D4
:1054D00001A001A001A001A001A001A001A001A0C4
:1054E00001A001A001A001A001A001A001A001A0B4
:1054F00001A001A001A001A001A001A001A001A0A4
:1055000001A001A001A001A001A001A001A001A093
:1055100001A001A001A001A001A001A001A001A083
:1055200001A001A001A001A001A001A001A001A073
:1055300001A001A001A001A001A001A001A001A063
:1055400001A001A001A001A001A001A001A001A053
:1055500001A001A001A001A001A001A001A001A043
:1055600001A001A001A001A097B1FF1F9381814B71
:1055700017B10020130101A917D500001305C5C3F9
:1055800097B5FF1F938505A81386818663FAC5002A
:105590008322050023A0550011059105E3EAC5FE0D
:1055A0001385818697C5FF1F938585F76377B500BF
:1055B000232005001105E36DB5FEFD42739002BC8A
:1055C000AD4273904280B76200009382820873A05C
:1055D000023097B2FFFF938262A693E2320073908B
:1055E0005230EFF0FFDC97D2FFFF938262FA7390A4
:1055F000123473002030EFA2BFC3B7270140938756
:105600000740631CF500854513050020F1298145FD
:1056100013050020D1296FA0FFC3B737014093873E
:105620000780E31AF5FE854513050040752981457D
:1056300013050040C5B75C413707F1E01307F7EFEA
:10564000944D7D8F9C41D58FD44DD58FD441A206EA
:10565000D58FD98F5CC11C4537F7F1FF1307D77F72
:10566000D4457D8F9C49D58F94458606D58FD98F9B
:105670001CC55C55370710FF7D177D8FDC29FD1792
:1056800093F7F70FD207D98F5CD582801C4589C567
:1056900093E717001CC58280F99BEDBF1C4593E77B
:1056A00087001CC5828008450D81058982801C45C4
:1056B00093E747001CC582800845098105898280DF
:1056C0001C4591C537075000D98F1CC5828037070C
:1056D000B0FF7D17F98FD5BFA54763F7B7048D4796
:1056E000138765FF3307F7020328C5009D47B3976B
:1056F000E70093C7F7FFB3F70701B396E600DD8E27
:1057000054C5994763E3C70495477D163306F602EF
:105710005859FD47B397C70093C7F7FFF98F3396E2
:10572000C5005D8E50D982800D473387E50203287E
:1057300005019D47B397E70093C7F7FFB3F707014C
:10574000B396E600DD8E14C96DBFB14763E2C702B0
:10575000954765163306F6021859FD47B397C700FB
:1057600093C7F7FFF98F3396C5005D8E10D98280FD
:1057700095474D163306F6025855FD47B397C700B7
:1057800093C7F7FFF98FB395C500DD8D4CD58280A7
:1057900068454205418182809C4513F7070113F853
:1057A000F70001C7D8413368E8008E2113F7F50FE1
:1057B00039C318418146854E3D4F930F80029302B5
:1057C0008004214E3396DE00B3F8C5006311160342
:1057D0009398260033131F011343F3FF3377E3003D
:1057E000B318180133E7E800639FF70550C9850631
:1057F000E39AC6FD18C11307F00F6375B70454414F
:105800002146854E3D4F930F800293028004414E06
:10581000B398CE0033F715016392E8021317260000
:1058200001173313EF001343F3FFB376D30033179D
:10583000E800D98E639DF701232A15010506E319B7
:10584000C6FD54C18280E39457FA10C94DB7E3975F
:1058500057FE23281501DDB708456D8D3335A000AF
:1058600082800CC982804CC98280AD673737004086
:105870009387A7AA1CC3828023ACA19682809387BA
:1058800081979443182181E63C21920721A89443F3
:105890000546639FC6023C21103192076314D6006F
:1058A00093E707F8B7E600E093F7F70FBA9623807F
:1058B000F6408546935757003397E6005441A5C2FA
:1058C000938707048A07B7E600E0B69798C38280FB
:1058D0008C4389466391D50214313C216365D6001F
:1058E0008A06B6975DB79386E6038A06B69793F75E
:1058F000F70F920775B790438D46631CD60014319D
:105900003C216364D6008606E9BF9386C6078606F7
:10591000F1BF94439147E39EF6F81C31BDB79387DE
:1059200007064DB7B7160240DC4251777D17F98F55
:105930005D8DC8C28280371702405C439146B18BAF
:105940006385D700A1466382D706B7177A0093878D
:1059500007201CC1371602405C423707002013079E
:1059600007049183BD8BBA9794231C41B3D7D7000A
:105970005CC15442A1829D8ABA969422B3D6D700C4
:1059800014C55442AD829D8A36971823B3D7E700D9
:105990005CC5584239839376370013874184369724
:1059A0001823B3D7E7021CC982805C435843C16601
:1059B000C983758FB7F6FF1F83A6C670BD8B890795
:1059C0001396160163480600C54601466392D70246
:1059D000C94739A88946638FD702BD46638ED7026F
:1059E000C146638ED702C54601466393D700C147BF
:1059F0001DEF3747024003270780418B05C7371744
:105A00007A0013070720B307F7021CC121D61C41F7
:105A1000858381B701466DBF0546B547D1BF0146B5
:105A2000BD47F9B737173D0013070790E9BFB71512
:105A30000240D8559316F700D85563DF060411834A
:105A40003D8B9306170037177A001307072033574B
:105A5000D70218C1D455A182BD8A8DE2954633077D
:105A6000D702058318C137170240585714413D8BA0
:105A7000050733D7E60218C1184171B7854563940D
:105A8000B600E546E9BFBD456396B600D14633870B
:105A9000E602C9BF8906E5BF3D8B9306170037179D
:105AA0007A00130707203357D702F1B799C5371784
:105AB00002401C4F5D8D08CF8280B7170240984F7F
:105AC0001345F5FF798D88CF828099C5371702403D
:105AD0005C4F5D8D48CF8280B7170240D84F134589
