:100000006F70A05D130000001300000013000000DB
:100010001300000013000000130000001300000094
:100020001300000013000000130000001300000084
:08003000130000007300100032
:100038000000000000000000E6730000EA73000002
:100048000000000020750000000000000000000013
:100058002275000024750000000000000000000068
:100068000EA100000000000028750000000000003C
:1000780014A400002C7500002E75000030750000D7
:1000880032750000347500003675000038750000C0
:100098003A7500003C7500003E7500004075000090
:1000A8004275000044750000467500004875000060
:1000B8004A7500004C7500004E7500005075000030
:1000C8005275000054750000567500005875000000
:1000D8005A7500005C7500005E75000060750000D0
:1000E80092610000AC710000667500006875000040
:1000F8006A7500006C7500006E7500007075000070
:10010800727500007475000068A200007875000020
:100118007A7500007C7500007E750000807500000F
:1001280082750000847500008675000088750000DF
:100138008A7500008C7500008E75000090750000AF
:10014800EA29000094750000967500009875000073
:100158009A7500009C7500009E750000A07500004F
:10016800A2750000A4750000A6750000A87500001F
:10017800AA750000AC750000AE750000B0750000EF
:10018800B2750000B4750000B6750000B8750000BF
:10019800BA750000BC750000BE750000C07500008F
:1001A800C2750000C4750000C6750000C87500005F
:1001B800CA750000CC750000CE750000D07500002F
:1001C800D2750000D4750000D6750000D8750000FF
:1001D8000000000000000000000000000000000017
:1001E8000000000000000000000000000000000007
:0801F8000000000000000000FF
:10020000397101436EC619A0397141536AC866CA73
:1002100062CC5ECE19A0397101535AD056D252D455
:100220004ED64AD826DA22DC06DE330161408282CD
:1002300041114AC026C222C406C68282B24D410183
:10024000024D924C224CB24B4101024B924A224A3F
:10025000B2494101024992442244B24041018280A4
:100260003D432A876373C3029377F700BDEFADE583
:10027000937606FF3D8ABA960CC34CC30CC74CC795
:100280004107E36BD7FE11E28280B306C3408A06C2
:100290009702000096966780A6002307B700A30682
:1002A000B7002306B700A305B7002305B700A304D2
:1002B000B7002304B700A303B7002303B700A302CA
:1002C000B7002302B700A301B7002301B700A300C2
:1002D000B7002300B700828093F5F50F9396850051
:1002E000D58D93960501D58D61B79396270097021A
:1002F000000096968682E78086FA9680C1171D8F49
:100300003E96E374C3F8A5B70100010001000100A7
:10031000010001000100014582803307C5009307F9
:10032000001063C7E702EFF21FEF3289AE89AA849B
:10033000014493170401C18363FE270133878900B9
:10034000A6970C231395070141817D3F0504D5B77E
:10035000014582800545D5BD010001000100010075
:10036000010001000100010001000100014582803F
:10037000EFF21FEC4111AA840144931704012EC629
:10038000C18332C463FEC700338584001375F50F43
:10039000E137B2452246B387850088A30504F1BF43
:1003A0000545410145BDEFF21FE72A89AE8432843D
:1003B0009309F00F373A0100B73A01007D14137426
:1003C000F40F630B34038C2003550900353F0345BC
:1003D000090059379C20638AA70013058AAFEFE014
:1003E000B06513850AB0EFE0306583270900850406
:1003F00085072320F900D9B789BDEFF27FE32E9658
:100400004111AA841374F60F88202EC6B137B24565
:1004100088A19C40850585079CC093F7F50FE315DF
:10042000F4FE410105BDEFF2BFE07971CD651384A3
:10043000C5AB41469385C5AB0A85EFE0D054414634
:10044000930504010808EFE01054414693050402A7
:100450000810EFE05053B7160020371700208147EF
:10046000138681329386862A13078729C14533086C
:10047000F100032808003385C70000082320050188
:100480003308F400032808003385D7000010232028
:1004900005013308F400032808003385E7009107BD
:1004A00023200501E395B7FCEF50D02EB7370100AC
:1004B00083A7C7B11306000023A2F19223A2F194EF
:1004C00037370100032707B2B736010023ACE192AA
:1004D0009567938707E223AEF19223A0C194B737C3
:1004E000010083A747B283A686B223A8F19223AA6C
:1004F000D19223A6F192138701B810C750C33737A2
:1005000001000327C7B223A0C1B823AAE182B737ED
:10051000010003A507B3EF60106523A8A182B737D8
:10052000010003A547B3EF60106823A6A182EF6026
:10053000A04137370100032787B337350100130582
:1005400085AF23A4E182EFE0304F3735010013057A
:10055000C5B3EFE0704E4561F5B9EFF27FCA938500
:100560004125131425009388C50013888500138A3C
:100570004500C6864286338B8500AA899307000012
:10058000D285138541252320FB00EF50D00DB707FE
:10059000002093878702A2978843938B4181EFE0E5
:1005A000D015B737010003A6070A83A6470ACE9BDA
:1005B000EFC0503B2A8C03850B00AE8C9384412600
:1005C000EFD0B0092A86AE866285E685B70C00209A
:1005D000EFC05039938C8C01EFE0F01C338984001C
:1005E000A29C373E01002320A90003A50C0083250F
:1005F0008E099389818023A0A900EFD0D043138373
:10060000C400138D840091042A879A866A86A68581
:10061000138541269387818BEF4070649307000018
:100620002320F900EF600020930700002320FB0047
:10063000938801261388C125D285370A0020C686F3
:10064000428613854125130ACA00EF50D001229A31
:10065000832D0A0003850B00B7070080B3CDFD0092
:10066000EFE06070AA856E85EFD0F07E373E010026
:1006700083258E092320A90003A50900930D0000FE
:10068000EFD0703B138301272A879A866A86938767
:10069000818BA68513854126EF40705C2320B9012C
:1006A000EF60401883250A002E85EFD030022A8A99
:1006B00003850B00EE8BEFE0006BAA855285EFD02F
:1006C0009079B737010083A507B22320A90003A5BD
:1006D0000C00EFD05078373E010083258E0923A00F
:1006E000A900EFD05035138301272A879A866A869E
:1006F0009387818BA68513854126EF405056232092
:10070000B901EF602012938701B8A29703AA0700EE
:100710009387C1B8A2978C435285EFD0207B9387F3
:1007200081B9A297AA8A2320AB008843D2859384FB
:100730004127EFD0A079A29488C0B7070020B70462
:1007400000209387070093844403A2943E940840BA
:10075000D285EFD0A07788C02320590123A0B9010A
:10076000EF50D018E1BCEFF2BFAC2E84AA8537352C
:100770000100130505F1EFE0302C2285EFE0E07772
:100780002A8637350100AE86130545F1EFE0D02A01
:10079000D1B4EFF2FFA941112EC4AA85373501006B
:1007A000B286130505F136C6EFE010292246B2469F
:1007B00037350100130545F1EFE01028410159BC20
:1007C000EFF21FA72E84AA8537350100130505F126
:1007D000EFE0902637350100A285130545F1EFE0E3
:1007E000B0258DBCEFF23FA39384418A98408D479A
:1007F00063C5E7061384018B1C4013090006B30789
:10080000F902938901A0AA853385F900EFE0104031
:1008100037350100130585AFEFE0102237350100B1
:10082000130585CEEFE050210C403735010013054C
:1008300005F1B305B902CE95EFE010203735010080
:10084000130545CFEFE0501F1C4011478507B3E764
:10085000E7021CC09C4085079CC0C5BAEFF25F9DB3
:100860005137CDBAEFF2DF9C373501001305C507CC
:10087000EFE0901C996773900780B707EFBE37E7EA
:1008800000E0938707083CC76FF0DF9CEFF25F9AA8
:1008900037140140130504808565EF90300205464A
:1008A000130504808565EF90207E89651385C18DD1
:1008B00093850558EF202008F16593850520138561
:1008C000819EEF90702437250140854513050580F2
:1008D000EF90C07EEF90200F373501001305C5FA69
:1008E000EFE0901537350100130545FCEFE0D0141B
:1008F00037390100130589AFEFE0101437350100D7
:10090000130585FDEFE0501337350100130585FE13
:10091000EFE090123735010013050500EFE0D0112C
:10092000373501001305C500EFE010113735010020
:100930001305C502EFE0501037350100130585039C
:10094000EFE0900F130589AFEFE0100F373501008E
:1009500013054504EFE0500E3735010081451305BE
:100960004505EFE0700D3735010013058505EFE013
:10097000B00C373501009305005413050507EFE06F
:10098000B00B23A4018A4534EF60A027EF40502725
:10099000EF509050EF90807AB73501001385C18DEC
:1009A000054693854507EF20C0130146856513056D
:1009B0000480EF90606D6FF0FF8901479306000699
:1009C0003306E5000306060093178701E1876314E9
:1009D000B6069305F005254613978701618763CF17
:1009E000E504B306F50094228507938606FD93F689
:1009F000F60FE363D6FE8147A54829489305F00525
:100A0000B306E50003860600930606FD93F6F60F8F
:100A100063E1D802B387070305079376F70F1397AF
:100A200086016187938707FDB297C207C183E3F907
:100A3000D5FC3E8582800507E314D7F88147D5BFF2
:100A4000EFF20FFF830715001307C004AA84638821
:100A5000E700130700056380E7046FF0AFFFB735C9
:100A600001009385C5CFEFE0901C19C59305A00345
:100A70002685A1372395A18CB73501009385C5D074
:100A80002685EFE0D01A71D99305A0032685353766
:100A90002394A18CD9B7B7350100938545D1EFE0F8
:100AA000101945DD930530072685013F1384C18C5D
:100AB0000AA01E209305A0032685C207C18381CF0B
:100AC000ED3D9307C0033305F5021A203A95420520
:100AD00041810AA059B7D535EDBFEFF26FF503A7F5
:100AE000C18A930700063387E70283A781891385AC
:100AF00001A08145B306E500958F8507BA973E951D
:100B0000EFF0C061EFE0204A6FF0CFF4EFF24FF268
:100B100003A7C18A930700063387E70283A7818969
:100B2000138501A029468145B306E500958F850709
:100B3000BA973E95EFF0E0736FF0CFF1EFF24FEF21
:100B400003A7C18A93070006AA85B387E702138526
:100B500001A03E95EFE0100A23ACA1883335A00038
:100B60006FF04FEFEFF2CFECD13F6FF0AFEEEFF25F
:100B7000AFE99389818083A7090023AAF18893872D
:100B80000181984323A8E18C1307400698C303A76B
:100B9000419E9387418C98C3EF50D0480545EF5054
:100BA000C0551387412514439387412694C354436A
:100BB00013058005B7040020D4C314475847938B0E
:100BC000418994C7D8C79307000023A0F900BD3717
:100BD0009389418C138B8180938A018D138A0181C3
:100BE00013844125938404226311050C1305900599
:100BF000B137631C050A1305A00589376317050A79
:100C000085479CA00145EFF05F959C206386070A0D
:100C10000545EFF09F949C2089E71305A005393F17
:100C200001C50945EFF07F9313058005013F11C908
:100C3000F13D01C95D35AA8503A501B8EFD00029B2
:100C400008C013059005DD3D11C9C93501C97135CD
:100C5000AA8503A541B8EFD0602748C01305A005B9
:100C6000F13D11C9653501C98D3DAA8503A581B83E
:100C7000EFD0C02508C49306C40013068400930572
:100C8000440013854125EF50001E83A70B0023204D
:100C9000FB0083A70A002320FA0083A7419E23A01C
:100CA000F900EF50A0446FF0AFD913058005238001
:100CB00004006935E31805F4130590054135E3197F
:100CC00005F4A1BFEFF2CFD61385819EEF9060733C
:100CD00037350100130585F7EFE0005683A54188FD
:100CE00037350100130545F88505EFE0E0546FF056
:100CF0006FD6EFF2EFD07571371A00209387818A93
:100D0000130A4A4E138401A03EC683270A0803270C
:100D10004A08998F93F7F707B1C703A7418A8D4710
:100D2000938C418A63C0E7041385819EEF90E06A4B
:100D3000931585013735010093848188E18513057A
:100D400005B68CA0EFE0404F83860400A9471387C7
:100D500091889384C1886397F6029440A9EAA3849A
:100D6000018831A81306000681450818EFF04FCF1F
:100D7000938741BA9C33138D41BA639F072649611B
:100D80006FF0CFCBB547E38AF6FC9307A0036394DB
:100D9000F6001C23F9D390409307E005E3CFC7FA90
:100DA0009307B003639AF62285471CA3B9BF938DBE
:100DB000018B83A70D00130600061823B38AC70210
:100DC0001389018BB3095401CE9623800600631268
:100DD000071C32479305E0044E85BA97238007002D
:100DE000EFE04061630A051A23ACA1883305354161
:100DF00005055695294681452295EFF08047938B4E
:100E0000418883A70B00138D418B2320AD008507FC
:100E1000138B8189938A418B93894188630EF504F2
:100E200003A50D0013060006B73501003305A60221
:100E3000938505B72295EFE0805F1DED3735010002
:100E4000130585B7EFE0403F37350100130505B8BE
:100E5000EFE0803E83A50B0037340100130544BB4F
:100E6000EFE0803D83250D00130544BBEFE0C03C5F
:100E7000913D23A0040021B703250900930B000630
:100E80009305A002B30B7503B30D74016E85EFE0FB
:100E900060563DC18147014DEE861306A00233879F
:100EA000F600030707006308C7008507E207E1872C
:100EB000334DA701EDB72320AB003305B541050540
:100EC0005E9581452295EFF06025EFC0D06C6308F8
:100ED000A50537350100130585B7EFE0E035373557
:100EE0000100130585BBEFE020353735010083A5F0
:100EF0000900130545F89DBF37350100130585B777
:100F0000EFE0803337350100130585BDEFE0C032D7
:100F10003735010083A50900130545BB81BF83A7B1
:100F20000A0023A0F9008329090013050006930590
:100F30007004B3093503B30A34015685EFE0804BE2
:100F400005CD23ACA1883305554105054E95814556
:100F50002295EFF0A01CEFC010648D4763EEA70050
:100F600083C70188ADE783C741BA99E737350100E8
:100F7000130505C3EFE0402C8327090011478507BF
:100F8000B3E7E7022320F90083A70C00850723A01D
:100F9000FC0023A0040095BB9305A0024E85EFE062
:100FA000604551D137350100130585B7EFE0C02802
:100FB00037350100130545C0EFE0002883A54188BF
:100FC00037350100130545BBEFE000275DB5373528
:100FD0000100130545C379BF1C23E39807D283A7FB
:100FE000018B1307160098C013070006B387E702AA
:100FF000A297B29794A311BB83A7C1881384C18819
:10100000E39F07D6814C138901A09389818A032726
:101010004D2683270D26E304F7D603A7418A8D4783
:10102000138C418AE3CDE7D413058D25EF80900919
:101030002384A188A947938D91886304F502B5475D
:101040006301F5029307A0036315F50083C70D0044
:1010500089CB18409307E00563C5E700FD57631986
:10106000F50E03270D2683274D266311F708373524
:1010700001001305C5CAEFE0201C37350100130538
:1010800005CCEFE0601B83A7419E9306C00323AC11
:10109000F18C03A6418D3D67130707A6918F33D7C7
:1010A000E70237F63600130606E8B73501009385E8
:1010B00045CD0808B376D70233D6C702EFE0402DFE
:1010C00037350100130585AFEFE000173735010014
:1010D0000C0813054505EFE02016138541BAEF30E3
:1010E000F0308545138541BAEF30301983C70D00C4
:1010F00099CF0818EFF0DF94814713070006141802
:10110000BE96238006008507E39BE7FE814C1040D6
:10111000E30706C49386018B9C42130700062380D5
:101120000D003387E702232004004A9732972300FB
:10113000070005463387F90010A303270C00850735
:1011400005072320EC001147B3E7E7029CC2C1B5B5
:101150009307B0036310F50285472380FD0018094B
:1011600093871C00BA9C2380ACFA939C870193DC84
:101170008C4171BD83C70D00FDF383A7018B9306DE
:10118000170014C093060006B387D702CA97BA9710
:1011900088A3374700401375F50F8357074093F72F
:1011A0000708E5DF420541812312A7408DB503A75B
:1011B000419E23A2E18C03A7C18A9387818ABA97B3
:1011C0009C2399EBEFF2CF8637350100130505C359
:1011D000EFE080066FF00F888280EFF2EF82938459
:1011E00041251384412601499389C186138AC18B05
:1011F000914AB387290103850700EFF03F9429CD79
:10120000EFF0BF8DB3072A01AA8B882311E59387DE
:10121000E18C88231375F50FEFD0F0348C40EFD0BC
:101220008043DE85EFC0904A08C00509910411048F
:10123000E31159FD13056004EFF05F9001CDEFF06D
:10124000DF89930500002A84EFD0C02F6354A000EB
:1012500023A481806FE0DFFE9C401CC0F9B7EFE261
:101260003FFDA53F13059004EFF05F8D1384419F70
:1012700011CDEFF09F8608C01305A004EFF01F8C7E
:1012800011C9EFF09F8548C06FE0DFFC93070000B5
:101290001CC0DDB7930700005CC0FDB7EFE25FF94B
:1012A00003A941272A840841CA8593844127EFD0A6
:1012B000C031635405002320240103A944004840A1
:1012C000CA85EFD080306354050023222401844472
:1012D0000844A685EFD0602F6353050004C4B7040B
:1012E000002003A94403084093844403CA85EFD037
:1012F00060256354A0002320240103A94400484032
:10130000CA85EFD020246354A00023222401844402
:101310000844A685EFD000236353A00004C46FE007
:101320007FF3EFE2FFED138541268D3F03A7419E3A
:101330009384412603A541258C4023A2E18C83AAF6
:101340008180EFD0601ACA8C13844125373A01009E
:10135000938DC126138D812631E1CC404840EFD0DA
:10136000A0180DED83258A095685EFC0D06C2A8719
:101370009387818B938601271386C12693858126C7
:1013800013854126EF40A00D9C401CC0DC405CC092
:101390009C441CC4DC445CC46FE05FEA03A501818B
:1013A000EFD0701CD685EFD0002B83258A09EFC0C3
:1013B0009068B737010083A587CFEFC0D0672A8731
:1013C0009387818B938601276E86EA851385412654
:1013D00055BFEFE25FE41384419F2A894840011121
:1013E0001379F90FEFD070312ACC08402ECEEFD010
:1013F000D0306246F246EF90A045EFD0D03A2ACCEA
:1014000003A50181EFD0301683A58180EFD0A02401
:10141000B737010083A58709EFC0F061B737010036
:1014200083A587CFEFC0306183C7818BE248938467
:1014300041263EC24AC02A8889470547814613860D
:10144000419F938541261385412513844125EF3023
:10145000C07C9C401CC0DC405CC09C441CC4DC4480
:101460005CC403A7419E23A2E18C05616FE0FFDD10
:10147000EFE21FDC996773900780EF503004054658
:10148000C14537150140EF8030400546C14537154D
:101490000140EF80703F0546C14537150140EF80A0
:1014A000B03E0546C14537150140EF80F03D373568
:1014B0000100130585AFEFD0305837350100130513
:1014C000C5F8EFD07057373501001305055CEFD034
:1014D000B056EFF02FB901A0EFE29FD51386418CF3
:1014E00083A6419E0C4203A6C1898D8E9387418CB1
:1014F0006374D60011C2AD3F83A64180A1CA03A781
:10150000419E9C43B307F74063F2F60403C7819200
:1015100083C7919293F7F70F639AE7020546C14597
:1015200037150140EF8050360546C145371501405B
:10153000EF8090350546C14537150140EF80D03426
:101540000546C14537150140EF801034EF30B06ECD
:101550006FE05FD0EFE2DFCDEF50407693870188F8
:1015600098231DE3054798A303A741883735010059
:10157000130585AF23A0E18AEFD0104C3735010069
:10158000130545C3EFD0504B6FE0DFCC03C5018896
:101590008280EFE2FFC983C7818BAA8413054005CF
:1015A0002388F188EFF08FD909E501494A856FE07A
:1015B0007FCA2A89EFF06FD2EFD08075138401893A
:1015C0001375F50F08A075D137350100130585AFE8
:1015D000EFD09046930790066384F40463CE97009F
:1015E000930780066387F4020C203735010013054A
:1015F0004505EFD070445DBF9307D0066387F402C2
:101600009307A00DE392F4FE37350100130505F6AC
:1016100029A037350100130585F1EFD0F041E9B776
:1016200037350100130505F3CDBF3735010013052C
:1016300085F4E5B7EFE2DFBC5D7113057004EFF0F0
:10164000EFCF63060516EFF04FC9EFD04066914724
:101650006303F50C63CCA7008947630EF50863C5E7
:10166000A70A63500508EFF09FB459A09307A0059F
:101670006303F51063C8A700F147E316F5FEEFF02A
:101680000FCFD5B79307B005630AF50E9307C005D2
:10169000E31BF5FC13055004EFF04FCA19E1EF50BE
:1016A00060181384412581449389C18613890126DA
:1016B000138A01B8930A8400B38799000385070051
:1016C000EFF0CFC711C98D47639EF40AEFF0EFC06A
:1016D00048C44A85EF40300885049147E39EF4FCF6
:1016E00059B783C7018881EBEFF03FAFEFF07FC3BD
:1016F00061616FE0BFB483C7018899E7EFF03FB63F
:101700000545EFF01FCDEDB783C7018889E7EFF0FE
:101710001FB50145FDB713050005EFF02FC20144C9
:1017200011C5EFF08FBBEFD0A05E2A841305300502
:10173000EFF0CFC001CDEFF04FBAB737010083A56E
:10174000C7B1EFC05071EFD0A05C2A84EF50800D7C
:1017500003A7419E83A6419EBE843A9423A2D18CC6
:1017600083A7419EE3F187F0EF80B04DEF50002F4B
:10177000EFF09FD6F5B72387018CF5B50547238792
:10178000E18CD5B5EFF06FB593972400330BF400DF
:10179000D297AA858843EFC060732320AB00CA8626
:1017A0005686930544002285EF40E06B35B713055C
:1017B000D004EFF0AFB819E16F00F066EFF0EFB1D1
:1017C000EFD0E04E9307A006E30FF51063C5A72402
:1017D000F1476303F57A63C2A70AD9476304F5703A
:1017E00063CEA704C947E303F51663CEA702C54736
:1017F000E31BF5E60146C14537150140EF80D008EF
:101800000146C14537150140EF8010080146C1452A
:1018100037150140EF8050070146C145371501409B
:10182000EF80900689B5D147630CF568D547E31C76
:10183000F5E2138541BAEF30400635B5E54763065A
:10184000F57063C1A702DD476304F56AE147E31C55
:10185000F5E0138541BAEF30C00803A7419E23AAE3
:10186000E18C11B5E9476308F56EED47E31DF5DE40
:10187000138541BAEF306015FDB393073005E302DD
:10188000F50C63C8A708FD47630DF57863C8A70684
:10189000F547630CF572F947E317F5DC938741BA16
:1018A000BC23E38207DC138541BAEF30A01F03A5F8
:1018B00081899305A002938481891105EFD090332B
:1018C0002A8915C503A5C18A930700069305E0047C
:1018D000B387A702138501A03E95EFD0B0319305E1
:1018E0000002EFD03031050588C0A30F09FE8C40FF
:1018F000138541BA9105EF30600BB5B3930710051E
:10190000E30DF50293072005E31FF5D4A38F018AA9
:1019100099BB9307C005E30AF50E63CBA7029307B3
:101920004005E305F50293075005E31EF5D21305C4
:101930003005EFF0AFA0EFF04F9AB737010083A565
:10194000C7B1EFC05051EFD0A03C23AEA18821BB5E
:10195000930780066303F56E93079006E315F5D0B1
:1019600013059006EFF0FFC2E31F05CE37350100E7
:10197000130505D7EFD0500C138401891C20138761
:10198000819B8A07BA978843B7340100EFD0E056AD
:101990002A86AE86138584D7EFD0100A373501002A
:1019A000130505D8EFD050091C201387819C8A07A6
:1019B000BA978843EFD0203BEFD020542A86AE86DA
:1019C000138584D7EFD0500737350100130545D86C
:1019D000EFD090060820EF40F078AA853735010057
:1019E000130585D8EFD05005373501001305C5D84C
:1019F000EFD090047D55EF40F076AA853735010091
:101A000013054505EFD05003373501001305055C7C
:101A1000EFD09002F1B99307C00CE304F52A63C23A
:101A2000A72493077007E30EF51863CAA71C930752
:101A30002007E302F50863C0A71A9307B006630AFC
:101A4000F56E9307D006E310F5C21305D006EFF04C
:101A50005FB4E31A05C013053005EFF02F8E9384B1
:101A60000189138A819C09C9EFF02F878020EFD06C
:101A700000240A04529408C0EF50202403C9040033
:101A80000A09B3072A01884383AA419EB73B010094
:101A9000EFD0602D9387819B3E9983270900AA8C04
:101AA0007D593EC4B737010003AC87D29389819B2F
:101AB000373D0100E28D83A7419E1307803EB38727
:101AC0005741637CF708B7370100138547D9EFD03A
:101AD000A0769C208A07CE978843EFD00042B73784
:101AE00001002A86AE86138587D9EFD0E074B73718
:101AF0000100138507DAEFD020748C2013858BD872
:101B0000EFD0807313054DDAEFD0007303A5819CED
:101B1000EFD06025EFD0A019AA8513858BD8EFD020
:101B2000A07137350100130585DAEFD0E070FD575D
:101B3000630DF95483A7419E8965938505719D8D39
:101B4000CA951307803EB3D5E5023735010013056A
:101B500045F8EFD0606E83AA419EEF80900EEF4073
:101B6000F06FEFF07F971385C18DEF207031FD5737
:101B70006313F954A2456685EFC0D01C9C208A07E8
:101B80003EC63307FA006359A0500843EFD0A01DAA
:101B9000EE85EFC09055B247CE978C43EFC0F02250
:101BA000E34BA0F003A9419EFD57E306F9F0634B18
:101BB000090003A7419E89679387F7703307274180
:101BC000E3FBE7EE03A7419E23AAE18C03A7419E16
:101BD00023A2E18C49BC930730076306F56C930799
:101BE0005007E312F5A803A581899305A002150506
:101BF000EFD05000E30905A6A30F05FEADB493078F
:101C0000C0086306F54663CDA70093078007630508
:101C1000F57A93079007E318F5A405456F00E0797E
:101C20009307900CE300F5069307B00C0144E31C06
:101C3000F5A2371900209384C1861309892A914996
:101C4000B387840003850700EFE05FEF19C5EFE07D
:101C5000DFE893172400CA9788C30504E31234FF12
:101C600019B49307E012E30EF51263CBA7149307A0
:101C7000C00DE30AF50E63C2A7049307D00CE30876
:101C8000F5069307E00C0144E31FF59C9384C1869D
:101C9000138901B88D49B387840003850700EFE0FD
:101CA000FFE919C5EFE07FE393172400CA9788C3C3
:101CB0000504E31234FF6FF01F9B9307D00DE3037D
:101CC000F50C9307D012E310F59A13050005EFE029
:101CD000FFE609C5EFE07FE023AAA1821305900487
:101CE000EFE0DFE519C5EFE05FDFEF50C06723A845
:101CF000A18213054004EFE07FE419C5EFE0FFDDAA
:101D0000EF50606A23A6A18213053004EFE01FE3C1
:101D100009C5EFE09FDC23A4A182EF40F0423735F4
:101D20000100130505C3EFD020513735010013051D
:101D3000C5EBEFD0605003A5418337340100EFD0ED
:101D4000C01B2A86AE86130544F1EFD0E04E37352E
:101D50000100130505ECEFD0204E03A50183EF50E1
:101D60008062EFD080192A86AE86130544F1EFD049
:101D7000A04C37350100130545ECEFD0E04B03A52F
:101D8000C182EF504064EFD040172A86AE8613051B
:101D900044F1EFD0604A37350100130585ECEFD0F0
:101DA000A04903A58182EFD040152A86AE8613058F
:101DB00044F1EFD06048373501001305055C39AABE
:101DC00093070019E30DF50463CCA70C9307F012F9
:101DD0006308F57E93070013E317F58813050005E4
:101DE000EFE0DFD509C5EFE05FCF23A6A18413059F
:101DF0009004EFE0BFD419C5EFE03FCEEF50A056FE
:101E000023A4A18413054004EFE05FD319C5EFE0DC
:101E1000DFCCEF50405923A2A184EF40F032373598
:101E20000100130505C3EFD020413735010013052C
:101E3000C5EBEFD0604003A5C18437340100EFD07B
:101E4000C00B2A86AE861305C4ECEFD0E03E3735D2
:101E50000100130505ECEFD0203E03A58184EF506F
:101E60008052EFD080092A86AE861305C4ECEFD0ED
:101E7000A03C37350100130545ECEFD0E03B03A54E
:101E80004184EF504054EFD040072A86AE861305B8
:101E9000C4ECEFD0603A2945EFD0203E6FF0AFFCA4
:101EA0009307003A6307F5129307703E631DF5FA36
:101EB0002380018803A7018A23A2E188EFF04FDB8A
:101EC00037350100130585D4EFD00037138541BAAB
:101ED000EF20D01937350100130585D5EFD0C03577
:101EE0006FF06FF8138541BAEF20101F6FF0AFF756
:101EF0009389C18A03A409001309000633048902E7
:101F0000938401A0B7350100938585D6338584007D
:101F1000EFD0E051630905F493054400A695080845
:101F2000EFD0C04E0C080546138541BAEF20301F94
:101F300083A50900B305B902A6953735010013053D
:101F400005F1EFD0602F6FF00FF2138541BAEF204B
:101F5000F0196FF04FF1138441BA3C20638507F00C
:101F600013053005EFE09FBD630F05EEEFE01FBAEC
:101F70002322A4266FF02FEF03A581899305A002E9
:101F8000138481891105EFD0E046AA8415C503A505
:101F9000C18A930700069305E004B387A70213855F
:101FA00001A03E95EFD0004593050002EFD080449C
:101FB000050508C0A38F04FE0C400146910513855A
:101FC00041BAEF20D0156FF00FEA238201BA6FF00B
:101FD0008FE903A581899305A002138481891505E2
:101FE000EFD04041AA8415C503A5C18A9307000616
:101FF0009305E004B387A702138501A03E95EFD0B7
:10200000603F93050002EFD0E03E050508C0A38FB6
:1020100004FE0C40138541BA9505EF2010186FF0AF
:102020008FE403A7419E37350100130585AF23AC2C
:10203000E18CEFD060200C0809B713058006EFF0A3
:102040004FD5631205E213053005EFE03FAF01CD38
:10205000EFE0BFA803C401899387819C0A043E94E2
:10206000EFC0F04408C0EF4050456FF0CFDF1305DC
:102070003005EFE0BFAC630805DEEFE01FA6EFC060
:10208000104323A6A19C6FF00FDE37350100130526
:10209000C5DAEFD0601AC1B40843EFC0D04CE28576
:1020A000EFB0D062B247CE978C43EFC0A049E35B5C
:1020B00005AE6FF05FA09C208A073387F900D297A6
:1020C00088433AC6EFC0304A3247AA850843EFC07A
:1020D000D001EFC0D03D9357F5413D8D1D8DA947EF
:1020E000E3D9A7ACC1B413053005EFE03FA51384D5
:1020F000018C9307F00F1DC9EFE03F9E9305000090
:10210000EFC0A04C814763430502EFE01F9DB73746
:10211000010083A5C7D2EFC0E0429307F00F6347E9
:10212000A000EFE09F9BEFC09038AA871CC06FF023
:102130008FD323A0018C6FF00FD3EFE0AFF26FF0DD
:102140008FD20547A38FE18A6FF0EFD113053005D9
:10215000EFE0DF9E19CDEFE05F98B737010083A570
:10216000C7B1EFC0404FEFC0B03A23A2A1806FF0DB
:102170008FCF13058005EFE07F9C29CDEF40806A6B
:1021800013058005EFE09F9B19C50546C14537152E
:102190000140EF70706F13059005EFE03F9A19C58D
:1021A0000546C14537150140EF70106E1305A005B7
:1021B000EFE0DF9819C50546C14537150140EF70BE
:1021C000B06C13055004EFE07F97630E05C8054619
:1021D0006FF0AFE413059005EFE05F9645F113054E
:1021E000A005EFE0BF9559F913055004EFE01F95E6
:1021F00051F5EF4020630546C14537150140EF70AA
:10220000B068EF40406D6FF00FC6B737010003AC08
:1022100007D3B71A00200144138BC18693848132FF
:10222000938A8A2AB3078B0003850700EFE01F918A
:1022300031CD8D476312F406EFE03F8AE2852A8AAA
:10224000EFC0A03863520504C844D285EFB0B07E19
:10225000AA89AA8503A5C19213898131EFC0A03F45
:1022600023A6A19203A5CA00CE85EFC0C03E23A637
:10227000AA000325C900EFC0703BCE85EFC0A03D8A
:10228000EFC010292326A90023A644010504914785
:10229000E31AF4F86FF02FBDEFE03F8493172400AA
:1022A000A69788C3E5B737350100130545DBEFD0A6
:1022B000600D6FF04FBB37350100130505E5EFC02A
:1022C000B077138441250840B7340100EFC0F042D5
:1022D0002A86AE86138544F1EFC0107637350100AB
:1022E000130545E5EFC050754840EFC010412A8600
:1022F000AE86138544F1EFC0307437350100130505
:1023000085E5EFC070730844EFC0303F2A86AE8683
:10231000138544F1EFC05072373501001305C5E550
:10232000EFC090714844EFC0503D2A863735010018
:10233000AE86130505E6EFC0307037350100130592
:1023400085E6EFC0706F0145EF40E056EFC0B02169
:1023500083A5813213848132EFB0F06DEFC0F03984
:102360002A86AE86138544F1EFC0106D0545EF4017
:102370008054EFC0501F4C40EFB0F06BEFC0F0370F
:102380002A8637350100AE86130545E7EFC0D06ACF
:102390000945EF404052EFC0101D0C44EFB0B0694A
:1023A000EFC0B0352A8637350100AE861305C5E784
:1023B000EFC090686FF02FAB0145EF3010546FF015
:1023C0008FAA37350100130585E8EFC0F066373571
:1023D0000100130545EAEFC030663715014093054B
:1023E0000008130505C0EF50604F8547631DF506D3
:1023F000B7350100938505D4373401001305440532
:10240000EFC09063373501001305C5EAEFC0D06215
:102410003715014093050020130505C0EF50004C0F
:1024200085476317F504B7350100938505D4130577
:102430004405EFC0706037350100130545EBEFC070
:10244000B05F3715014093050040130505C0EF50FC
:10245000E04885476313F502B7350100938505D43D
:1024600013054405F9BCB7350100938545D369B719
:10247000B7350100938545D35DBFB735010093851E
:1024800045D3F9BF3719002001449384C18613094D
:102490008929114AB387840003850700EFE00FEA1A
:1024A00011C9EFE08FE393192400CA99EFC05006D9
:1024B00023A0A9000504E31F44FDEF30B02D6FF009
:1024C0008F9A13053005EFE06FE709C5EFE0EFE005
:1024D00023A2A19213054005EFE04FE619E16FF04A
:1024E0008F98EFE08FDF23A2A1946FF0CF971305B1
:1024F0003005EFE0AFE409C5EFE02FDE23ACA19299
:1025000013054005EFE08FE309C5EFE00FDD23A0E1
:10251000A19413052004EFE06FE219C5EFE0EFDBB3
:10252000EFC0007F23AEA19213058005EFE00FE11D
:1025300009C5EFE08FDA23A8A1921305A005EFE00B
:10254000EFDF09C5EFE06FD923AAA192130550046C
:10255000EFE0CFDE19E16FF00F91EFE00FD823A687
:10256000A1926FF04F9013053005EFE02FDD19E1D8
:102570006FF06F8FEFE06FD6EFC0607323A8A1807C
:102580006FF06F8E13053005EFE04FDB19E16FF050
:102590008F8DEFE08FD4EFC0807123A6A1806FF004
:1025A0008F8C13053005EFE06FD99307000001C54C
:1025B000EFE0AFD2AA873E85EF30701D6FF0AF8A93
:1025C00013055004EFE08FD7814429C5EFE0EFD029
:1025D000EFC0E06DAA84635F0502B737010003A472
:1025E00047D213053005EFE06FD501C5EFE0EFCE20
:1025F0002A8413053004EFE06FD4154611C5EFE0CF
:10260000CFCDEFC0C06A2A86A6852285EF40006D37
:102610006FF06F85B737010003A407D2D9B7EF4039
:1026200060206FF04F8413054005EFE02FD1B734E1
:10263000010051C1EFE06FCAEFC0806D1375F50F57
:102640001384018908A015C5138584AFEFC0D03E5F
:1026500013054005EFC070420C203735010013050B
:1026600085D7EFC0703D37350100130545ED6FF09C
:10267000FF8613056004EFE06FCC01CDEFE0EFC5FE
:10268000930500002A84EFB0F06B6354A00023A4EC
:102690008180138584AFEFC0303A373501001305D0
:1026A00085EEEFC070393735010083C5818B130586
:1026B000C5236FF01F89138584AFEFC0F03737351E
:1026C00001001305C5EFEFC0303783A5C18A93071A
:1026D000000637350100B387B702938501A01305C3
:1026E00005F1BE95EFC0503537350100130545CFD4
:1026F0006FF0CFFEEFD25FB1EFE04F99094B13843B
:1027000001A0130C000683A7418A1389418A634400
:10271000FB00EFE00FDE8145138541BAEF20E03585
:102720008327090085CB9384C18A8C40138541BAE5
:10273000B305BC02A295EF200039EFE0BFEF83277D
:1027400009001147FD172320F9009C408507B3E7D6
:10275000E7029CC0EF408030EFE01FD8EF309009D7
:102760001385C18DEF10D07179BFEFD27FAC138587
:1027700041BAEF1050776FD0FFAD9387012803A5C2
:10278000070883A747081D8D1375F5078280375703
:102790000040835707C093F70708E5DF42054181F2
:1027A0002312A7C08280EFD2BFA8AA840144B387B6
:1027B00084000385070009C905041375F50F620439
:1027C000EFF0FFFC6184E5B76FD0DFA8EFD25FA622
:1027D0002A84130540072E89EFF07FFBA5471305D8
:1027E000040363DF8700A9443345940213050503FE
:1027F0001375F50FEFF0BFF9336594021305050368
:102800001375F50FEFF0BFF8373501001305451BC1
:10281000EFF07FF913052002EFF07FF74A85EFF024
:102820009FF813052002EFF09FF61305F00FEFF06D
:102830001FF61305F00FEFF09FF51305F00FEFF003
:102840001FF56FD03FA169C5896793870771B347AB
:10285000F502294741119546B3E7E702938707033D
:102860005C849307803EB347F502B3E7E7029387A2
:102870000703DC8493074006B347F502B3E7E7029A
:10288000938707035C85B347E5023365E502B3E749
:10289000E7021305050348860147130500039387E4
:1028A0000703DC85130881003A9803080800937732
:1028B000F70F6316A8000507E316D7FE9547954660
:1028C0000147B388F6400145635A17010808138889
:1028D0001700AA97038587FF9377F80F13088100E5
:1028E0003A982300A8000507E31FD7FC8147154548
:1028F0003400BE968386060013F7F70F91C694A1A5
:102900008507E397A7FE154718A20145410182807C
:1029100001458280EFD2DF91AA842E84EFB09042ED
:102920006358A000A2852685EFB0307C6FD09F92BF
:10293000A6852285D5BFEFD2BF8F79712E84414500
:102940008545EF50C01D854537050800EF50001F35
:1029500093070040FC82E1473ECE4C088D47371577
:1029600001403ECCEF40906B856793870780FC82E7
:102970004C089147371501403ECEEF40306A22D0D7
:1029800037540040B7070C000C10130504C03ED4A8
:1029900002D223160102EF502047130504C093050D
:1029A0005052EF50405C130504C093056062EF5035
:1029B000805B054693055052130504C0EF50E0516B
:1029C0000145EF40B073930740045C8685475C8700
:1029D000680085473EC8EF40D0728545130504C0A6
:1029E000EF50404E45616FD0FF86EFD27F84375461
:1029F000004093055052130504C0EF50005339C1F5
:102A00009387012883A60708035644C083A5470877
:102A10001387160042061377F70341826306B70057
:102A2000BE9690A223A0E70883A7419E3755004099
:102A30009387470693055052130505C023ACF190C8
:102A4000EF5060523754004093056062130504C094
:102A5000EF50A04D19C593056062130504C0EF50F7
:102A600080506FD02FFF13870128832747088326C4
:102A700007087D55638AF600B306F70088228507AC
:102A800093F7F7032322F70882809386012883A710
:102A9000060883A646081387012893870708958FA1
:102AA00093060008B3E7D7020145B387F6406359A0
:102AB000F602814763D5C702832607083385F500F0
:102AC0000348050085073305D700850693F6F6030E
:102AD000E207230005012320D708E187E1BF054570
:102AE0008280EFD2EFF42A843735010041111305BB
:102AF000851D32C42EC6EFF01FCB374501001305EC
:102B00008579EFF05FCAB2452E85EFF0DFC9130576
:102B1000F00FEFF0DFC71305F00FEFF05FC71305FD
:102B2000F00FEFF0DFC6224612A041016FD08FF206
:102B3000EFD20FF0373501001305051DEFF0BFC6CA
:102B40001305F00FEFF0BFC41305F00FEFF03FC413
:102B50001305F00FEFF0BFC36FD0CFEFEFD24FED03
:102B600037350100130585182E84EFF0DFC31305F8
:102B7000E006EFF0DFC1A5471305040363DF87001C
:102B8000A94433459402130505031375F50FEFF0BF
:102B90001FC033659402130505031375F50FEFF09D
:102BA0001FBF3735010013050519EFF0DFBF13050F
:102BB000F00FEFF0DFBD1305F00FEFF05FBD130571
:102BC000F00FEFF0DFBC6FD0EFE8EFD26FE63735F4
:102BD000010041111305051E32C42EC6EFF0BFBC23
:102BE0003745010013058579EFF0FFBBB2452E850F
:102BF000EFF07FBB1305F00FEFF07FB91305F00F77
:102C0000EFF0FFB81305F00FEFF07FB82246420651
:102C10004182239EC19041016FD0CFE3EFD24FE1BB
:102C20003735010041111305850A32C42EC6EFF075
:102C30009FB73745010013058579EFF0DFB6B24540
:102C40002E85EFF05FB6373501001305C50AEFF0AA
:102C50009FB5224615C6373501001305C5E4EFF0D0
:102C60009FB41305F00FEFF09FB21305F00FEFF0D4
:102C70001FB21305F00FEFF09FB141016FD08FDD50
:102C800037350100130545FDD9BFEFD26FDA37356F
:102C900001001305851AAE843284EFF0DFB0A5473A
:102CA0001385040363DF9700294933C52403130503
:102CB00005031375F50FEFF09FAD33E524031305FE
:102CC00005031375F50FEFF09FAC373501001305C1
:102CD000C51AEFF05FADA5471305040363DF870056
:102CE000A94433459402130505031375F50FEFF05E
:102CF0001FAA33659402130505031375F50FEFF052
:102D00001FA91305F00FEFF09FA81305F00FEFF0C8
:102D10001FA81305F00FEFF09FA76FD0AFD3EFD22E
:102D20002FD1A94713074006B346F60241111305F8
:102D300000033347E602B3E6F6023367F7029386F1
:102D4000060393F6F60FD4863366F60213070703DD
:102D50001377F70F58868147130606031376F60F8D
:102D600050876319A70085476396E6008947631378
:102D7000D6008D478D4601473388F6400146635B98
:102D80000701100813851700B2970386C7FF931732
:102D90008501E18768003A9510A10507E310D7FE89
:102DA0009307400663C2B7061305E0062E84EFF0D2
:102DB0001F9EA5471305040363DF8700A94433451D
:102DC0009402130505031375F50FEFF05F9C33654F
:102DD0009402130505031375F50FEFF05F9B37356C
:102DE00001001305051AEFF01F9C6800EFF0BF9B70
:102DF0001305F00FEFF0BF991305F00FEFF03F99B7
:102E00001305F00FEFF0BF9841016FD0AFC4EFD2C0
:102E10002FC24111930700033EC4230601002E84F4
:102E20003DE213058006EFF09F96A54713050403C6
:102E300063DF8700A9443345940213050503137526
:102E4000F50FEFF0DF943365940213050503137556
:102E5000F50FEFF0DF93373501001305051AEFF09A
:102E60009F942800EFF03F941305F00FEFF03F928E
:102E70001305F00FEFF0BF911305F00FEFF03F9146
:102E800041016FD02FBD896793870771B347F60261
:102E900029479546B3E7E702938707035C849307C6
:102EA000803EB347F602B3E7E70293870703DC846B
:102EB00093074006B347F602B3E7E7029387070399
:102EC0005C85B347E6023366E602B3E7E702130622
:102ED0000603508601471306000393870703DC852A
:102EE0002C00BA95838505009377F70F6396C5008C
:102EF0000507E317D7FE9547954601473385F6400A
:102F00000146635AA700100893851700B2970386FD
:102F100087FF93F7F50F2C00BA9590A10507E311F1
:102F2000D7FE01B7EFD2CFB0130540072E84328908
:102F3000EFF0FF85A5471305040363DF8700A9446D
:102F400033459402130505031375F50FEFF03F8425
:102F500033659402130505031375F50FEFF03F83F6
:102F6000373501001305451BEFF0FF8313052002E1
:102F7000EFF0FF814A85EFF01F8313052002EFF089
:102F80001F811305F00FEFF09F801305F00FEFF096
:102F90001F801305F00FEFF08FFF6FD0AFABEFD2B4
:102FA0002FA92E85B285EFF07F826FD0AFAAEFD226
:102FB0002FA8A9473355F6021307400641111308FD
:102FC00000033357E6023375F5021307070313773F
:102FD000F70F5886B377F60213050503C886938664
:102FE0000703548781476319070185476316E50086
:102FF00089476393A6008D478D460147B388F64005
:103000000145635B1701080813881700AA97038519
:10301000C7FF93178801E18760003308E4002300AD
:10302000A8000507E31ED7FC9307400663E5C70425
:103030001305A0062E84EFF08FF5A54763E0870403
:10304000130504031375F50FEFF06FF43735010026
:103050001305051AEFF02FF56800EFF0CFF4130514
:10306000F00FEFF0CFF21305F00FEFF04FF2130572
:10307000F00FEFF0CFF141016FD0CF9DA944335550
:103080009402130505031375F50FEFF04FF0337538
:103090009402130505034DBFEFD28F994111930799
:1030A00000033EC4230601002E843DEA13054007B9
:1030B000EFF0EFEDA5471305040363DF8700A94494
:1030C00033459402130505031375F50FEFF02FEC4C
:1030D00033659402130505031375F50FEFF02FEB1D
:1030E000373501001305451BEFF0EFEB1305200208
:1030F000EFF0EFE92800EFF00FEB13052002EFF0FF
:103100000FE91305F00FEFF08FE81305F00FEFF064
:103110000FE81305F00FEFF08FE741016FD08F93A9
:10312000896793870771B357F602294795469387B6
:1031300007035C849307803EB357F602B3F7E702B8
:1031400093870703DC8493074006B357F602B3F76F
:10315000E702938707035C85B357E6023376E602FE
:10316000B3F7E70213060603508601471306000370
:1031700093870703DC852C00BA9583850500937738
:10318000F70F6396C5000507E317D7FE95479546E9
:1031900001473385F6400146635AA700100893851E
:1031A0001700B297038687FF93F7F50F2C00BA95A7
:1031B00090A10507E311D7FED5BDEFD2CF85411110
:1031C0002E84CD6532899385C5AE25464800EFB083
:1031D000907B4A85EFB07052B737010003A6071CF9
:1031E00083A6471C2A8AAE8AEF90706C634B051E3B
:1031F000B737010003A6871C83A6C71C5285D68556
:10320000EF901060634FA01C930500004A85EFB05B
:10321000C03B814463570500B707008033C92701CD
:103220008544B737010083A587CF4A85EFB0A04218
:10323000EFB0102E6302051E37979800130707683A
:103240003357E502A9471306000395463377F70283
:1032500013070703588237470F0013070724335714
:10326000E5023377F70213070703D8826167130774
:10327000076A3357E5023377F702130707035883CA
:103280000967130707713357E5023377F70213070E
:103290000703D8831307803E3357E5023377F702DD
:1032A000130707035884130740063357E5023377A3
:1032B000F70213070703D8843357F5023375F50275
:1032C0003377F70213050503488613070703D885EC
:1032D00001474C00BA95838505009377F70F6396F5
:1032E000C5000507E317D7FE95472546A9460147C0
:1032F000B305F6409D8E1305D00263870410631555
:10330000070E48820507E31AC7FE13054007EFF0D2
:103310000FC8A5471305040363DF8700A94433459D
:103320009402130505031375F50FEFF04FC63365CF
:103330009402130505031375F50FEFF04FC5B7346D
:1033400001001385441BEFF00FC613052002EFF0B8
:103350000FC44800EFF02FC513052002EFF02FC374
:103360001305F00FEFF0AFC21305F00FEFF02FC20F
:103370001305F00FEFF0AFC113054007EFF02FC1B9
:10338000A5471305040363DF870029493345240358
:10339000130505031375F50FEFF06FBF33652403B5
:1033A000130505031375F50FEFF06FBE1385441B6E
:1033B000EFF06FBF13052002EFF06FBD4800EFF094
:1033C0008FBE13052002EFF08FBC1305F00FEFF056
:1033D0000FBC1305F00FEFF08FBB1305F00FEFF0EC
:1033E0000FBB41016FC07FE66352D7029308010112
:1033F00013881700C697838847FF5C00BA9723801D
:1034000017019377F80FFDBDE342B7FE13084100A3
:103410003A9823000800FDB59307E002DC82A3037D
:1034200001002314010023050100C5B5EFC25FE0D0
:1034300041112E8532C6EFF08FB5373501001305E7
:10344000050BEFF04FB632463285EFF0CFB51305DE
:10345000F00FEFF0CFB31305F00FEFF04FB31305FC
:10346000F00FEFF0CFB241016FC0DFDEEFC25FDCE3
:103470003735010041111305051E2EC6EFF0AFB21E
:103480003745010013058579EFF0EFB1B2452E8580
:10349000EFF06FB13735010013058519EFF0AFB0CC
:1034A0001305F00FEFF0AFAE1305F00FEFF02FAEF6
:1034B0001305F00FEFF0AFAD41016FC0BFD9EFC200
:1034C0009FD52A89794493095006130A600693040C
:1034D0001007854AEFF06FAA15CD4A85EFF0AFD8F7
:1034E00093178501E187638C8700634EF40081CBDD
:1034F000E3C207FEF91793F7F70FE3EDFAFC137534
:10350000F50F6FC09FD4E3C737FDE35AFAFEE3938C
:1035100097FCF5B71305F00FEDB7EFC27FD12A8402
:10352000EFF0AFA509C52285EFF0EFD3D5BF1305A6
:10353000F00F6FC03FD2EFC2BFCF1385C18DEFF048
:103540001FF8930710076313F5021385C18DEFF081
:103550008FD12A841385C18DEFF0EFD01375F50F4D
:1035600022051374F40F418D6FC0DFCE41657D15C8
:10357000E5BFEFC2FFCB41112E892A84B284938527
:1035800081871D462800EFB010402C001D46228583
:10359000A30421014485EFF04FCF014541016FC0E5
:1035A0007FCBEFC27FC62A89EFF02F9D8D4763DB6B
:1035B000A7661385C18DEFF00FCBAA841385C18D4B
:1035C000EFF06FCAAA891385C18DEFF0CFC9939729
:1035D0008401E18737076500A207D98F1397890116
:1035E0006187D98F6205A20761855D8DB707056583
:1035F00013871710A2846303E55C6348A710B7071D
:103600000465138717106301E5326347A704B70702
:103610000065138717306307E52E634DA7001387F6
:103620001710630FE51A938717206305F52C0145E2
:103630006FC01FC113871750630CE52C13871760E9
:10364000630EE52C93871740E313F5FEB7350100B1
:1036500015469385850DF9AA138717406307E5364C
:10366000634FA700138717206301E5309387173056
:10367000E31FF5FA83D5A18F8A058D0555AC138715
:103680001760630BE53C138717706300E51293879F
:103690001750E31EF5F81387A18F83170700635AAD
:1036A000F038FD17C207C1831EA38A07239BF18E42
:1036B00081441384618F914AB709002013899102D4
:1036C00083D7818F63F3FA009147C207C183E3D0A8
:1036D000F4F60C20138601041385495C850593F5E7
:1036E000F50FEF1080449387495C83A54749838792
:1036F000050091E3CA852685EFF04F8D1E208504D5
:10370000E2048507E1841EA065BF371705659306AF
:103710001770630CD50863C2A60693861740630D25
:10372000D54C63C5A60213871720630CE54A93871F
:103730001730E31EF5EE3735010013058510EFD085
:103740006F8A373501001305051259A1938617605A
:10375000630FD54A130717606309E5049387175071
:10376000E317F5EC3735010013058510EFD08F878F
:103770003735010013050513A1A9B7071165138794
:1037800017106300E5386348A702B717076513876A
:1037900017906307E53E938717A0630EF53AB727A6
:1037A0000565938717E0E314F5E8B7350100014696
:1037B0009385450741A037071265930617106307E5
:1037C000D53C130717206305E53E93871720E310C8
:1037D000F5E6B735010011469385050C4A85A9A881
:1037E0009305000437150140EF40400F1384C18F4B
:1037F0001C203335A000370900206300F502930533
:10380000000437150140EF40600DB337A0001CA045
:103810001DC51305495CEF1040089307495CBC23A4
:10382000B70A0020938A4A5C114699EFB735010028
:103830009385850B1385C18DEFF0AFAACDBB130522
:10384000495CEF106009D1BFB73501001385C18D08
:103850009385050CEFF0EFA83744010093058479B8
:103860000145EFE0BFF6930584790545EFE01FF6CB
:10387000930584790945EFE07FF5930584790D453B
:10388000EFE0DFF4938501041305495CEF10602B32
:10389000239CA18E239B018E8144138A818F1384E4
:1038A000618F914B138B910283570A0063F3FB00E6
:1038B0009147C207C18363DCF4020C201386010424
:1038C0001305495C850593F5F50FEF10002683A5D8
:1038D0004A498387050091E3DA852685EFE01FEFEB
:1038E0001E208504E2048507E1841EA075BF239D88
:1038F000018E35BBB735010031469385450C1385E4
:10390000C18D1DBFB735010035469385050DC5BF77
:10391000B735010019469385050ED5B7B7350100B7
:1039200029469385850EE1BF83D5A18F8A0585053C
:10393000C205C181239BB18E83D7818FE3E9B7CEC6
:103940001386010493F5F50F370400201305445C3A
:10395000EF10A01D1307445C834747481309445CDC
:10396000C18BC9C78325474989A083D5A18F8A0503
:103970008905C205C181239BB18E83D7818FE3E87E
:10398000B7CA370400201386010493F5E50F130529
:10399000445CEF1080199307445C83C747481309C0
:1039A000445CC18BA1C7832549498387050099E3FE
:1039B000938591021305445CEF102021054685454F
:1039C0001385C18DEFF0FFBA9DB18395A18F850559
:1039D0008A05C205C181239BB18E83D7818FE3E81D
:1039E000B7C41386010493F5C50FB9BF0325494930
:1039F0008307050099E313859102B735010093858C
:103A000085D6EFB0D022E30405C2B7350100938517
:103A1000C50E39461385C18DEFF0AF8C832549491A
:103A20008387050099E3938591020545EFE01FDA4E
:103A3000FDBE370400201305445CEF100013E316AD
:103A400005D6054685451385C18DEFF09FB2130558
:103A5000445CEF104016E1BE9384A18F03940400F0
:103A600083D7818F0504131724001389818FE3C046
:103A7000E7BCB7490100938589790145EFE01FD57F
:103A8000938589790545EFE07FD493858979094548
:103A9000EFE0DFD3938589790D454204EFE01FD332
:103AA000418082A00A04239B818E81441384618F0C
:103AB000914A370A0020938991020E20835709000A
:103AC0008D8F63D3FA009147E3C397B6850593F5CD
:103AD000F50F1386010413054A5CEF1000059307E8
:103AE0004A5C83A547498387050091E3CE852685F7
:103AF000EFE0DFCD1E208504E2048507E1841EA0EF
:103B00006DBF2395018C2394018CB73501001D46B0
:103B10001385C18D2396018C370400209385450FB2
:103B200023AC018C9304445CEFE0BFFB83A54449C4
:103B30001D45EFE0BFC983A5444905461305445C14
:103B4000EF00F05D1305445CEF00B05903A7419E00
:103B500023AAE18CE9BC0387D18F37050020938726
:103B6000D18F01EB05471305455C98A3EF00105872
:103B70007DBC1305455C23800700EF00905645BCD3
:103B8000B735010049469385C50F95BB3705002021
:103B90009307455C1305455CA3800700EF00907018
:103BA000EF203057B735010001469385450781BBAB
:103BB000B73501001D469385450F91B33735010098
:103BC00013058510EFC01FC2373501001305C5105E
:103BD000EFC05FC13735010013054511EFC09FC02D
:103BE000B9B43735010013058510EFC0BFBF3735B5
:103BF000010013058511E9BF373501001305851054
:103C0000EFC05FBE3735010013058512D1B73735D8
:103C1000010013058510EFC0FFBC37350100130507
:103C200085137DB71305F00F21B4EFC2CFDE938764
:103C3000019003A7419E9443411163F5E61603A743
:103C4000419E4A841307873E98C383D7C18D638BF7
:103C500007141D47AA84639AE716370900209307C3
:103C6000495C83A547491D45EFE05FB603A5819BED
:103C7000138A819B1309495CEFB080091316050173
:103C8000418291451385C18DEFF00FC103254A0094
:103C9000EFB0000813160501418295451385C18DCB
:103CA000EFF08FBF81451385C18DEFE03FEB268597
:103CB000EFF07F88C167FD176300F502938781905D
:103CC00098436304E50E88C39307600E1306600EE5
:103CD00063CFA70C23A4A19C85451385C18DEFE07C
:103CE000FFE72685EFF03F85C167FD176300F5020A
:103CF0009387C19098436302E50C88C39307600ED5
:103D00001306600E63CDA70A23A6A19C83A4419E3F
:103D1000A94523AC918C03A6418D1385C18D918C4F
:103D200037F63600130606E833D6C402420641824F
:103D3000EFF08FB63D66130606A633D6C402930491
:103D4000C003AD451385C18D33769602EFF0CFB435
:103D500003D6C18CA9451385C18D33569602EFF069
:103D6000AFB303D6C18CAD451385C18D33769602B2
:103D7000EFF08FB28357C925014685C383274926B3
:103D800089CF1306400693873706B3D7C7020326A9
:103D900009263356F6021376F60F81451385C18D39
:103DA000EFF0EFA041016FC04FCA03A6819C81458F
:103DB0001385C18DEFE0BFF605B703A6C19C85450D
:103DC0001385C18DEFE0BFF591B715476390E70606
:103DD00003A6418D83A7818DBD64938404A6918F32
:103DE00037F63600130606E833D6C7021307C003BA
:103DF000B3D4970283A581034206418283870500DD
:103E0000B3F4E40299E393859102014532C6EFE0F1
:103E1000FF9B324685451385C18DEFF0EFA72686BF
:103E200089451385C18DEFF02FA7ADBF214763856D
:103E3000E70045476392E70203A5819BEFA0506D21
:103E400013160501418281451385C18DEFF0CFA482
:103E500003D6819C8545F1B73D476397E70A03A5E3
:103E6000819BEFA0F06A13160501418281451385FD
:103E7000C18DEFF06FA203A5C19BEFA0706913166F
:103E80000501418289451385C18DEFF0EFA093872D
:103E9000C1919A23420741831DE3138741911A235D
:103EA0009306300B93874191E3FEE6EE9A23930647
:103EB000000FE3E9E6EE9A2323A4E19CE5B59A23FB
:103EC00085466394E602138741911A239306700294
:103ED00093874191E3F8E6EC9A2393068007E3E3A6
:103EE000E6EC9A2323A6E19C75BD9E230947E31BBC
:103EF000F7EA938741919A239306F00FE3E4E6EA09
:103F00009A2323A0E18C79BD2D476393E70A03A68A
:103F1000412581451385C18DEFF02FAA13894125D5
:103F20000326490085451385C18DEFF00FA90326AF
:103F3000890089451385C18DEFF02FA883D7C191E2
:103F400013898181C207C18385E7138741911A23B1
:103F50008546938741916395E602B737010083A7B1
:103F600087D205462320F90081452685EFE03FEA08
:103F7000032609008D451385C18DEFF00FA41DB5F3
:103F80009A238946639AE600B737010083A787B36F
:103F900009462320F900C9BF9E230D47E31AF7FC09
:103FA000B737010083A707140D462320F9006DBF22
:103FB0003547E399E7DE83C7518F9384518F639030
:103FC000070C9389412523820190B737010083A50F
:103FD00087D203A58900EF90706F37370100032760
:103FE00047B29387818B938601261386C1259385DB
:103FF000812523A4A90013854125EF1040463735BC
:10400000010013058515EFC0EFFD37390100930559
:1040100049FD0145EFE08FFB930549FD0545EFE0C4
:10402000EFFA930549FD0D45EFE04FFAB735010072
:104030000146938545161385C18DEFE03FBEB73528
:1040400001000146938585161385C18DEFE01FBDE4
:10405000B735010001469385C5161385C18DEFE084
:10406000FFBBB73501000146938505171385C18D48
:10407000EFE0DFBA238A018E85479CA025B3054770
:10408000639EE700130700003A8681451385C18DC2
:1040900023A0E18EEFF06F928947C5B70947639E71
:1040A000E700130700003A8681451385C18D23A2DE
:1040B000E18EEFF08F908D47C9B70D47639EE70003
:1040C000130700003A8681451385C18D23A4E18E34
:1040D000EFF0AF8E914755B71147639EE700130786
:1040E00000003A8681451385C18D23A6E18EEFF04D
:1040F000CF8C954759B71547639AE70283A5418E40
:1041000003A5018EEF90905C83A5818EEF90105CEB
:1041100083A5C18EEF90905BB737010083A547144C
:10412000EFA0605323A8A18E994781BF1947639ED2
:10413000E700130700003A8681451385C18D23A04F
:10414000E18EEFF08F879D470DBF1D47639FE710FE
:1041500003A9018E81451385C18D4A86EFF0EF8555
:1041600083A9018F4A85CE85EFA0C03D635BA00483
:10417000CE854A85EFA06077EFA03058B7370100B1
:1041800003A6871483A6C714373A0100B73A010083
:10419000EF80F071634AA0029385CAE40545EFE021
:1041A000EFE2B7350100938545FD0D45EFE00FE2E5
:1041B000014693054A161385C18DEFE03FA6A1473E
:1041C0006DBDCA854E857DB7CE85238201904A8517
:1041D000EFA0A03F373B01009385CAE4635E05046E
:1041E0000545EFE0AFDECA854E85EFA00070EFA079
:1041F000D05003260B1583264B15EF803005EFA01A
:10420000905A2A868D451385C18DEFE01FFB6546C8
:1042100081451385C18DEFE05FA7054693054A16DA
:104220001385C18DEFE09F9F9387418F9823E30B08
:1042300007B623800700CDBD0545EFE02FD9CE8519
:104240004A85EFA0806AEFA0504B03260B1583260A
:104250004B15EF80A07FEFA010552A868D45138562
:10426000C18DEFE09FF5614665B72147639EE7008A
:10427000130700003A8681451385C18D23A2E18E84
:10428000EFE0BFF3A547D5BB25476390E71203A92D
:10429000418E83A9018F4A85CE85EFA0A02A635065
:1042A000A006CE854A85EFA04064EFA01045B73741
:1042B000010003A6871483A6C714373A0100EF80D4
:1042C000105F6341A004A9479CA0B7340100938507
:1042D00044FD0545EFE08FCF938544FD0D45EFE0AC
:1042E000EFCE5D4685451385C18DEFE01F9A0146EF
:1042F00093058A161385C18DEFE05F9265B4CA8578
:104300004E8555B7CE85238201904A85EFA0E02BDC
:10431000B7350100B73A010093854517635E050480
:104320000545EFE0AFCACA854E85EFA0005CEFA05F
:10433000D03C03A60A1583A64A15EF802071EFA092
:1043400090462A868D451385C18DEFE01FE75D46B7
:1043500085451385C18DEFE05F93054693058A1669
:104360001385C18DEFE09F8B9387418F9823E30BDB
:1043700007A223800700A1B50545EFE02FC5CE8534
:104380004A85EFA08056EFA0503703A60A1583A6F2
:104390004A15EF80A06BEFA010412A868D4513854A
:1043A000C18DEFE09FE1614665B72947639EE70055
:1043B000130700003A8681451385C18D23A4E18E41
:1043C000EFE0BFDFAD4755B92D47639DE71003A967
:1043D000818E83A9018F4A85CE85EFA0A016635CEC
:1043E000A004CE854A85EFA04050EFA01031B7372A
:1043F000010003A6871483A6C714373A0100EF8093
:10440000104B634DA002B1479CA0B73401009385C7
:1044100044FD0545EFE08FBB938544FD0D45EFE07E
:10442000EFBA554689451385C18DEFE01F860146D9
:104430009305CA16C1B5CA854E8575B7CE85238248
:1044400001904A85EFA06018B7350100B73A010026
:1044500093858517635F05040545EFE02FB7CA858F
:104460004E85EFA08048EFA0502903A60A1583A629
:104470004A15EF80A05DEFA010332A868D45138585
:10448000C18DEFE09FD3554689451385C18DEFE07F
:10449000CFFF05469305CA161385C18DEFE00FF8CF
:1044A0009387418F9823E30F078E23800700A94746
:1044B000E9B60545EFE08FB1CE854A85EFA0E04231
:1044C000EFA0B02303A60A1583A64A15EF80005873
:1044D000EFA0702D2A868D451385C18DEFE0FFCDAD
:1044E00051465DB73147639EE700130700003A86E7
:1044F00081451385C18D23A6E18EEFE01FCCB54722
:10450000ADBE35476397E71403A9C18E83A9018F18
:104510004A85CE85EFA000036354A008CE854A8566
:10452000EFA0A03CEFA0701DB737010003A68714D1
:1045300083A6C714373A0100B73A0100EF8030373D
:10454000938741906345A006138651901822938665
:10455000519005071377F70F18A2902329E6054617
:1045600090A399479CA08D4763F6E700B947238045
:1045700006009CA093854A180545EFE02FA5B735A6
:104580000100938545FD0D45EFE04FA455468D454F
:104590001385C18DEFE06FEF014693050A1799BBB4
:1045A000CA854E85B5BF23800700B94765BFCE8554
:1045B000238007004A85EFA04001373B0100938527
:1045C0004A18635F05040545EFE04FA0CA854E8594
:1045D000EFA0A031EFA0701203260B1583264B1518
:1045E000EF80C046EFA0301C2A868D451385C18D13
:1045F000EFE0BFBC6D468D451385C18DEFE0EFE860
:10460000054693050A171385C18DEFE02FE19387C7
:10461000418F9823630807F823800700B147B1BC96
:104620000545EFE0AF9ACE854A85EFA0002CEFA0BC
:10463000D00C03260B1583264B15EF802041EFA0ED
:1046400090162A868D451385C18DEFE01FB7694608
:104650005DB739476394E700BD4705B43D476393B1
:10466000E7F4B735010039469385C5171385C18D29
:10467000EFE02FC7238A018E238004006FF08FF2B2
:104680009387019183A6419E9043637CD60483A6C1
:10469000419E9386460694C383A7419E03A78191BA
:1046A00063E1E704EFB2DFB82A84EFE05FE193074C
:1046B0005006630DF50093076006630DF500138542
:1046C000C18DEFF08FD601456FB0DFB82285EFE0E6
:1046D0005FEDF5B71385C18DEFE0EFB8238BA190A7
:1046E000F9BF01458280EFB2BFB49307C559232AB1
:1046F000F548B7350100930700102A84232CF548AC
:1047000023100500230105009385853D1305C54948
:10471000EFA0D04F85472300F46A83A7419E93877B
:10472000077D232EF4686FB0FFB2EFB27FAD130A9E
:10473000452341112A845285AE89EF50800071E5EE
:104740004E85EFA0B04D9307C44701493EC4130BFB
:10475000E002B73B0100373C0100B38AA900B73C37
:104760000100373D0100930D5448A2455285EF509A
:104770000004AA843DE183075448A5C3E38767FF8B
:104780008347444813F767006DF303264449030742
:10479000060011E36E860327446A0509420913598E
:1047A00009011DE3C18B95CF93858C265685EFA01B
:1047B000303ECE851305CD26EFA01028CE8522856C
:1047C000AD3729ED23800A008327446A094763989F
:1047D000E7028317846AE39A27F9268541016FB0BF
:1047E000FFA593858BD6328532C6EFA0504469DD94
:1047F0003246CE8513050C28EFA01024F1B70547EB
:10480000E395E7F62314246B8DB7AA84AA85373580
:10481000010013054529EFA03022C1B7AA8475BF56
:10482000EFB21FA141112E85B28532C6EF407071E3
:104830002A84324601E937350100B2851305C52ABD
:10484000EFA0901F228541016FB0DFA0EFB25F9E05
:1048500041112E85B28532C6EF407075324683070E
:10486000960091E3114541016FB0DF9EEFB25F9C6E
:10487000117191672A84938707A31306B00F8145AE
:1048800048003EC0EFB0DF9D8A852322046A22855E
:10489000EFF0BFE911616FB0FF9B3C218DEFEFB2EC
:1048A0003F99930545002A840145EF40102DAA85C4
:1048B00009C93735010013050522EFA0F0176FB0C5
:1048C0007F9937350100814513054524EFA0D016A7
:1048D00085473CA0EDB78280A300050023010500B9
:1048E00082803C2199C385471CB182801C3199C3C9
:1048F000A30005008280EFB2BF934111740013053D
:10490000852502C6EF40F03F19C537350100130574
:104910000538EFA07012324541016FB0BF933C21C2
:10492000A5CFEFB2FF9041112EC6130485250DCE01
:10493000373501001305452CEFA01010B245054690
:104940002285EF409025AA8511C93735010013054E
:10495000452EEFA0700E41016FB0DF8F373501009B
:10496000814513050530F5B73735010013050532CC
:10497000EFA0900CB24529462285EF401022AA856F
:1049800011C53735010013054534E1B7373501004E
:1049900081451305053675BF8280EFB27F89854753
:1049A0003CB10146EFF0BFF76FB0DF8AEFB25F882E
:1049B0002E85EF40706601C9AA85373501001305C1
:1049C000451EEFA070076FB0FF88EFB27F863C21D5
:1049D00095CF2A84373501001305453BEFA0D0055C
:1049E0008325042637350100130545BBEFA0D0040D
:1049F0001305F002EFA07008832544263735010027
:104A000013054505EFA050036FB0DF843735010073
:104A10001305853CEFA05002C5BFEFB27F812E8504
:104A20002E84EFA0B01FAA849305E0042285EFA096
:104A3000701C15ED1385F4FF2295B5471CB1A947ED
:104A40003CA1A301050037350100130585B7EFA090
:104A5000A07E373501001305C51FEFA0E07D373577
:104A600001001305055CEFA0207D6FB0AFFE93053C
:104A7000A002EFA030187D15C9B791E98347056AF8
:104A80008DC383A7419E0327C56963ECE7003C21E2
:104A90002300056A99E7EFB2AFF9EFF01FE06FB0BE
:104AA0006FFB8280EFB2CFF8930485252A84268598
:104AB000EF40303D2685EF40904723000400A301DE
:104AC00004006FB02FF9EFB2AFF637040020834730
:104AD000445C05498DC7AE84B73501009385C5395F
:104AE0002685EFA0D0141DE51305445CA685EFF0E4
:104AF000DFF21304445C3C3091C7EFC0BFB34A857A
:104B00006FB04FF537350100130505C3EFA0C07234
:104B10000149F5B71305445CEFF0DFF837350100C4
:104B20001305053AEFA04071D9BFEFB26FF0094706
:104B30002322E56A2314B56AB285EFF01FBF6FB078
:104B40006FF1EFB2EFEE85472322F56A2A84EFF08A
:104B5000DFBD8315846A3735010013054505EFA0D5
:104B6000A06D0355846A6FB0EFEEEFB26FEC930562
:104B7000F0021305C549EFA0F007133515006FB01B
:104B80006FEDEFB2EFEA1305C549EFA030086FB043
:104B90006FECAA87038507006305B50001CD850783
:104BA000D5BF2E8581C923800700850703870700AD
:104BB0007DFB05458280EFB2AFE79305F002130558
:104BC000C549EFF01FFD6FB0EFE8EFB26FE62E843E
:104BD0009307C549B73501003E859385052CEFA0A5
:104BE000807FA285EFA0207F6FB0CFE6EFB24FE4C9
:104BF0002A84EF103043EF10D05113058425EF4085
:104C00001033A3000400EF10104D373501001305D9
:104C10004521EFB0BFC46FB0EFE3EFB26FDE939A00
:104C20002600330B5601397183240B00BA893307F0
:104C300055012E893E8C0C43834701082A8A26851C
:104C400042CAC68C3ED032C2EF90402812468A0932
:104C500033073A01B307360180430C432AC4228547
:104C60003EC20A0CEF908026B3078901B30B8A017C
:104C700083A50B002AC68843EF9030478327C900DD
:104C8000A2452AC83ED48327CA003ECCB70700807D
:104C9000BD8C3D8CB30759018843EF901045B30795
:104CA00039012A8DB2458843EF903044AA8DEA85B8
:104CB0002685EF90501AEE852AD62285EF90B019FE
:104CC000B257AA853E85EF906020EE852AD62685CC
:104CD000EF907018EA85AA8D2285EF90D017AA85EB
:104CE0006E85EF909040B257BE85EF50B04E930561
:104CF00000002A8DEF90700D635005026A85EFA0C9
:104D0000C01FB737010003A6073E83A6473EEF70DA
:104D1000E060EFA040292A8D825799CF6A85EFA0E5
:104D2000C01DB737010003A6073E83A6473EEF80AC
:104D3000F00EEFA040272A8DC2471395170005817A
:104D4000EFA0A01B2AD02ED26A85E685EF90B01086
:104D5000EFA0A01A02569256EF50902FEFA0A02479
:104D6000AA8DEFA08019B737010003A6873E83A65E
:104D7000C73EEF80C0336346051C6E85EF50301888
:104D8000EF901079931D050193DD0D0163930D00E4
:104D9000854D6E85EF90307DAA8CAA856A85EF904F
:104DA00080492A8D4245E685EF90E048E2452AC8D1
:104DB0002255EF909033E685EF90E0472AD46A853C
:104DC000EFA0A013B736010003A6063F83A6463F17
:104DD0002ACC2ECEEF8000396247F2473A86BE8653
:104DE000EF804038B73701002A86AE8603A5873F9B
:104DF00083A5C73FEF809002EFA0E01A03A70B0046
:104E00009C00E29723A8E7FE0327CA00AA8C054A64
:104E10003ADE980056973ACC98004E97814B3AD09C
:104E20003E8C93170A01C18363F3B711E14763CC4A
:104E30007709EA852685EF901002AA89E685228502
:104E4000EF907001AA854E85EF904008AA89E6850B
:104E50002685EF905000AA84EA852285EF90A07FF6
:104E6000AA852685EF90702813881B00931B880164
:104E7000AA8493DB8B414E84A2452685050AEF90D8
:104E8000E004E247B24523A8A7FE2285EF90000484
:104E90008257C24523A8A7FE03250CFFEF9000030D
:104EA0002328ACFEA2557255EF9040022ADE081866
:104EB000EFC0CFBE52475C01741830184C18081868
:104EC000EF00E059B9BF5285EF90F069EA85EF90A5
:104ED00080782A84EF50607AAA892285EF50F00EFC
:104EE00083270B0037070080AA8AB3CBE7009247DD
:104EF000CE855E858043EF900076AA84D685228594
:104F0000EF906075AA852685EF80507CD685AA84AF
:104F10005E85EF904074AA8ACE852285EF90A073BB
:104F2000AA855685EF90701C2A84814BB1B75247F1
:104F30005C019306C90013068900930549004A8560
:104F4000392B21616FB08FAFEFB28FAB2A84485DF0
:104F50004111AE8B328BEF90706D2A8928408329E6
:104F60008404EF90B06C2A8C4E85EF90D05F93054F
:104F70000000AA8CEF9040576300051ECA854A8541
:104F8000EF90606DAA84E2856285EF90C06CAA857F
:104F90002685EF909015EF9050762A8A6685AE8A26
:104FA000EF90B0752A86AE86EF7040372A86AE86BF
:104FB0005285D685EF709029EF90F07EEF50A05E7D
:104FC000EF90F04EAA846840EF905066AA8A3305AD
:104FD0003041EF90505993050000AA89EF90C050DE
:104FE000630F0516D6855685EF90E0662A8ACA8536
:104FF0004A85EF904066AA855285EF90100FEF909A
:10500000D06F2A8D4E85AE8DEF90306F2A86AE869A
:10501000EF70C0302A86AE866A85EE85EF70102369
:10502000EF907078EF50A06D032A0401EF903048A4
:10503000B3099A403385A940635F050A93050000D0
:105040006685EF90604A630F05106685EF90F06A01
:105050002A86AE862A8DAE8DEF70402C2AC45285EA
:105060002EC6EF90B05CEF9050692247B2472A8677
:10507000AE863A85BE85EF80E00E2AC42EC66285D4
:10508000E285EF90405DEF9050672247B2472A8655
:10509000AE863A85BE85EF8060582A8CAE8C5685E8
:1050A000D685EF90405BEF9050652A86AE8662858C
:1050B000E685EF70A026B737010003A6074683A652
:1050C00047462A8CAE8C6A85EE85EF80A0092A8639
:1050D000AE866285E685EF707017EF90D06CEF506A
:1050E000804CEF90D03CAA84635305008144014575
:1050F00063E34401D2849967739007808347040572
:10510000E207E187B1E344C8AA94DE8504CC4A856E
:10511000EF906054EF502049EF90903F9307800745
:105120006374F50013058007DA8528C04A85EF907F
:105130008052EF504047EF90B03D93078007637473
:10514000F5001305800768C09967938787087390F7
:10515000078041016FB08F8E1305000085B51305E0
:105160000000C9B5130500009DBFEFB26F8C41115F
:10517000AA842E8532C6EF90004E2A84A685268505
:10518000EF80D0543246B285EF90E04CAA8522855C
:10519000EF90A075EF50300441016FB0AF8BADC9F7
:1051A00025CAEFB24F872E8403A9C5020854B284E2
:1051B000CA85EF90603321C183479403B9E703AAFE
:1051C00084024A85D285EF90E0376350A0044858A6
:1051D0001058B7090080D28533453501EFF0FFF84C
:1051E000AA854A85EF90603E63590500485408D46B
:1051F0008547230CF4026FB04F85485810588C54E3
:1052000033453501EFF07FF6DDB723242403CDB716
:105210008280EFB24F809387819298231967731031
:10522000078003C99192130787081379F90F731048
:105230000780982333072741318B0DCF8023014608
:1052400075143D888149138A8133930A40056303AD
:1052500024036204618411E041447D141374F40F4B
:10526000B3045403CE85D2942685EFF05FF34E86C7
:10527000A689F1BF6FA07FFD35C583479503BDE3C8
:10528000EFA27FF9032A850283A98502AE842A84CE
:10529000CE855285EF906033635B05024858105805
:1052A00037090080D28533452501EFF01FECAA8530
:1052B0004E85EF908031635E050080548854A2854E
:1052C000EF90802209C5854780D4238CF4026FA01B
:1052D000DFF7485810580C5433452501EFF0FFE82C
:1052E0002A84E9BF8280EFA21FF303C49192814414
:1052F0001374F40F014593898133930A4005414BA0
:10530000938781929C236304F402330954030504B8
:105310006204A68561844E994A86EFF0FFF5631317
:105320006401014426851374F40FCA84D1BF014679
:10533000A685EFF07FF46FA05FF1EFA2FFEC83C4CE
:1053400091924111E204E184014493898133130A6B
:105350004005C14B938781929C236389F404338970
:1053600044034E9905CC8347840381E7834789032F
:1053700095C7B3874403832A4402D685CE978857BE
:10538000EF80706B2AC60854D685EF80D06A32460B
:10539000AA852285EFF05FBB230C04028504E2049A
:1053A000E1846393740181444A846DB70DCC445009
:1053B0002685EF909034B73701002A86AE8603A584
:1053C000874683A5C746EF706068EF90D03D2AC638
:1053D0000854A685EF8030663246AA852285EFF014
:1053E000BFB6230C040241016FA09FE5EFA25FE46A
:1053F000EFF03FE2EFF03FEFEFF03FF46FA09FE5FB
:1054000023840192A3840192B71700209387872BEE
:1054100023A0070023A2070023A4070023A6070058
:10542000938781301307000098C3D8C398C7D8C7A3
:1054300023A0E192828093869192138781928C229D
:1054400010231376F60F630BB6009C2293F7F70F29
:1054500014236385D7008507BD8BDDBF8280EFA253
:105460003FDABA8C3E8B938781929C2359711387C4
:1054700081928507E207E1873EC63ACA3247C147B3
:10548000AE8BB28936896313F70002C69387919277
:105490009C233247631BF7002AC8EF40907AEF1035
:1054A000E05BEFC06F834245D5B7938481328C4077
:1054B000084137340100138A8132EF90C0198325E7
:1054C00004B2EF80B020EF508023EF90407ECC40BC
:1054D000AA8A03A50B00EF900018832504B2EF8081
:1054E000F01EEF50C021EF90807C8C44AA8B03A566
:1054F0000900EF904016832504B2EF80301DEF5075
:105500000020EF90C07ACC442A8C03250900EF904C
:105510008014832504B2EF80701BEF50401EEF9083
:105520000079B71700201387872B584722C83ED42D
:105530002A899389872B6304E50A83C7818B1387A4
:10554000819B8A07BA978C4303A5C181EF80907F26
:105550006356A00237350100130585AF23A6290144
:10556000EF90904D3735010013050542EF90D04C78
:10557000373501001305055CEF90104C83A7C90077
:10558000B307F94013D5F741A98F3385A740EF90B2
:10559000807DB737010083A587CF2A840325CA0001
:1055A000EF90600BAA85EF807012AA852285EF80AC
:1055B00070796356A00237350100130585AF23A625
:1055C0002901EF907047373501001305C543EF906F
:1055D000B046373501001305055CEF90F045D24722
:1055E00013074005802383A5090093878133137433
:1055F000F40F3307E40293848133BA9723880704B6
:105600002380070263D5BA0005472380E70203A57C
:10561000490063DDAB00130740053307E40226971A
:105620008347070293E727002300F70283A6890038
:10563000635DDC00130740053307E40226978347C8
:10564000070293E747002300F70203A7C900635D41
:10565000E900130640053306C40226968347060276
:1056600093E787002300F602B387BA4013D6F741C9
:105670003348F6003308C8403386AB409357F641B1
:105680003D8EB306DC401D8E93D7F641BD8E3307A9
:10569000E9409D8E9357F7413D8F1D8F83A7C180B1
:1056A00093084005B30814033307F7029307400635
:1056B000A69823A0080123A2C80023A4D800B347BA
:1056C000F702368723A6F80063D3F6003E876347C8
:1056D000C7786346070163D5D700B68711A0C28794
:1056E000130740053307E402954626971CCB63FB5E
:1056F000F65C83A7018C7CC783470B00A300F702ED
:105700006388BA000146C14537150140EF40D01704
:1057100093074005B307F402A697DC4399C70146F7
:10572000C14537150140EF40301693074005B307D8
:10573000F402A6979C4799C70146C1453715014019
:10574000EF409014130B4005330B6403269B832713
:10575000CB00639C075603AB0194E6855A85EF8026
:10576000705E6343A000668B03A509003385AA40E1
:10577000EF90605F83250A00EF80F02BAAC82AD043
:1057800003A549003385AB40EF90E05D83254A00D7
:10579000EF80702AAACA2A8D03A589003305AC4080
:1057A000EF90605C83258A00EF80F028AACCAA8C59
:1057B00003A5C9003305A940EF90E05A8325CA002C
:1057C000EF807027AA8903A5C180EF90C059AA85F0
:1057D0004E85EF805068B737010083A587CFEF80F3
:1057E000902593074005B307F402AACE15478256C9
:1057F000A69790436368C74ED0436365C74E9047F2
:105800006362C74E0605058188DB93074005B30731
:10581000F402373A010003258AB3A69783AC070345
:10582000E685EF805021DA85EF80F062D24713875A
:1058300091929C23182352D0AA89998F93F7F70F3E
:1058400013FBF7003ECC1307EBFF954763ECE7062D
:10585000EF90A06AB73701002A86AE8603A587407D
:1058600083A5C740EF70801EB737010003A6073F2E
:1058700083A6473FEF60902AEF40703DEF802058AD
:105880002A8A03A5C193637FAA0233054541060511
:1058900033556503EF908059C24783A507B2EF8067
:1058A000E062EF40D0652AD25285EF9020589255A1
:1058B000EF80C061B7370100AA8503A50740EF80DC
:1058C0009017AA89130A4005330A4403CE856685DA
:1058D000EF807058AA8D014D269A2322AA02032533
:1058E0000A01EF90A054CE852A8BEF80D056EF406E
:1058F000904BEF90E041825737070080232EAA0299
:1059000003AA87B39347F7FF371700203ED69307C4
:10591000872A2AD23ED89C083387A7010C434E859C
:10592000EF8070539C103387A701B25708C33377B9
:10593000F500C257BA853ADEB386A7019442368590
:1059400036DCEF80904863500502E2567257368588
:10595000BA85EF80500ED2852ADCEF80B03E6344DA
:10596000A00062573A8A110DC147E316FDFA82572B
:10597000528583A587B3EF8050456354050493098E
:10598000010603A50900D2859109EF80D04C23AE12
:10599000A9FE9C18E39737FF93094005B309340328
:1059A000D2856E85EF80304BA69923A2A9021255AD
:1059B000EF90C047D285EF80104AEF90603523AE5C
:1059C000A902130A4005330A4403E6855A85EF808D
:1059D0009006AA89269A832D0A0063930D348327A3
:1059E0004A00639F073283278A00639B073283A59F
:1059F0004194EF805046EF40103BEF9060312324FC
:105A0000AA04130A4005330A4403269A03258A048C
:105A1000EF90C041CE852A8BEF80F001232AAA02A5
:105A20005A85EF90804DB737010003A6074183A642
:105A30004741EF702073EF800036C247232EAA0043
:105A400003A5019383A507B2138D0193EF80B040A6
:105A5000C2472A8A03A5419383A507B2A65CEF80BB
:105A6000903F93951C008581AA89EF80103693871B
:105A700041933ED263590500D2854E85EF80902C2C
:105A80006343A0004E8AC24703A5C19283A507B213
:105A9000365BEF80503C93151B008581AA89EF800F
:105AA000D0329387C1923ED663590500D2854E8588
:105AB000EF8050296343A0004E8A93074005B30747
:105AC000F402D285A69783A947024E85EF809027DE
:105AD0006343A0004E8AE24713870192B98B3AC80C
