:100000006F500053130000001300000013000000A5
:100010001300000013000000130000001300000094
:100020001300000013000000130000001300000084
:08003000130000007300100032
:1000380000000000000000003C5300004053000096
:1000480000000000765400000000000000000000DE
:10005800785400007A5400000000000000000000FE
:1000680064800000000000007E54000000000000D2
:100078008A830000825400008454000086540000E3
:10008800885400008A5400008C5400008E540000EC
:1000980090540000925400009454000096540000BC
:1000A800985400009A5400009C5400009E5400008C
:1000B800A0540000A2540000A4540000A65400005C
:1000C800A8540000AA540000AC540000AE5400002C
:1000D800B0540000B2540000B4540000B6540000FC
:1000E8002441000054510000BC540000BE540000DC
:1000F800C0540000C2540000C4540000C65400009C
:10010800C8540000CA540000D6810000CE54000034
:10011800D0540000D2540000D4540000D65400003B
:10012800D8540000DA540000DC540000DE5400000B
:10013800E0540000E2540000E4540000E6540000DB
:10014800FC250000EA540000EC540000EE540000C6
:10015800F0540000F2540000F4540000F65400007B
:10016800F8540000FA540000FC540000FE5400004B
:100178000055000002550000045500000655000017
:10018800085500000A5500000C5500000E550000E7
:1001980010550000125500001455000016550000B7
:1001A800185500001A5500001C5500001E55000087
:1001B8002055000022550000245500002655000057
:1001C800285500002A5500002C5500002E55000027
:1001D8000000000000000000000000000000000017
:1001E8000000000000000000000000000000000007
:0801F8000000000000000000FF
:10020000397101436EC619A0397141536AC866CA73
:1002100062CC5ECE19A0397101535AD056D252D455
:100220004ED64AD826DA22DC06DE330161408282CD
:1002300041114AC026C222C406C68282B24D410183
:10024000024D924C224CB24B4101024B924A224A3F
:10025000B2494101024992442244B24041018280A4
:100260003D432A876373C3029377F700BDEFADE583
:10027000937606FF3D8ABA960CC34CC30CC74CC795
:100280004107E36BD7FE11E28280B306C3408A06C2
:100290009702000096966780A6002307B700A30682
:1002A000B7002306B700A305B7002305B700A304D2
:1002B000B7002304B700A303B7002303B700A302CA
:1002C000B7002302B700A301B7002301B700A300C2
:1002D000B7002300B700828093F5F50F9396850051
:1002E000D58D93960501D58D61B79396270097021A
:1002F000000096968682E78086FA9680C1171D8F49
:100300003E96E374C3F8A5B70100010001000100A7
:10031000010001000100014582803307C5009307F9
:10032000001063C7E702EFF21FEF3289AE89AA849B
:10033000014493170401C18363FE270133878900B9
:10034000A6970C231395070141817D3F0504D5B77E
:10035000014582800545D5BD010001000100010075
:10036000010001000100010001000100014582803F
:10037000EFF21FEC4111AA840144931704012EC629
:10038000C18332C463FEC700338584001375F50F43
:10039000E137B2452246B387850088A30504F1BF43
:1003A0000545410145BDEFF21FE72A89AE8432843D
:1003B0009309F00F370A0100B70A01007D14137486
:1003C000F40F630B34038C2003550900353F0345BC
:1003D000090059379C20638AA70013058A60EF80C3
:1003E000407913850A61EF80C0788327090085046E
:1003F00085072320F900D9B789BDEFF27FE32E9658
:100400004111AA841374F60F88202EC6B137B24565
:1004100088A19C40850585079CC093F7F50FE315DF
:10042000F4FE410105BDEFF2BFE07971C1651384AF
:10043000855D41469385855D0A85EFD050694146CB
:10044000930504010808EFD0906841469305040223
:100450000810EFD0D067B71600203717002081476B
:100460001386012D9386062513070724C1453308FB
:10047000F100032808003385C70000082320050188
:100480003308F400032808003385D7000010232028
:1004900005013308F400032808003385E7009107BD
:1004A00023200501E395B7FCEF30F027B7070100E3
:1004B00083A7C7621306000023A6F18C23A6F18E42
:1004C0003707010003270763B706010023A0E18E69
:1004D0009567938707E223A2F18E23A4C18EB70705
:1004E000010083A7476383A6866323ACF18C23AE08
:1004F000D18C23AAF18C138781B210C750C3370760
:1005000001000327C76323A4C1B223A8E182B70770
:10051000010003A50764EF40705A23A6A182B70724
:10052000010003A54764EF40705D23A4A182EF4062
:10053000403D370701000327876437050100130595
:10054000856023A2E182EF80C062370501001305B8
:10055000C564EF8000624561F5B9EFF27FCA93850B
:10056000C11F131425009388C50013888500138AC2
:100570004500C6864286338B8500AA899307000012
:10058000D2851385C11F2320FB00EF30F006B7078B
:10059000002093878702A2978843938B4181EFD0F5
:1005A000502AB717010003A687B983A6C7B9CE9B07
:1005B000EFB0B0282A8C03850B00AE8C9384C12049
:1005C000EFC000772A86AE866285E685B70C0020EC
:1005D000EFB0B026938C8C01EFD07031338984005A
:1005E000A29C371E01002320A90003A50C0083252F
:1005F0004EB99389818023A0A900EFC0505813837E
:10060000C400138D840091042A879A866A86A68581
:100610001385C1209387018AEF20905D9307000026
:100620002320F900EF40201C930700002320FB004B
:100630009388812013884120D285370A0020C686FE
:1006400042861385C11F130ACA00EF30E07A229A4E
:10065000832D0A0003850B00B7070080B3CDFD0092
:10066000EFD0F004AA856E85EFD06013371E01002D
:1006700083254EB92320A90003A50900930D00008E
:10068000EFC0F04F138381212A879A866A86938769
:10069000018AA6851385C120EF2090552320B9013A
:1006A000EF40601483250A002E85EFC0B0162A8A19
:1006B00003850B00EE8BEFD0807FAA855285EFD0AB
:1006C000000EB707010083A507632320A90003A537
:1006D0000C00EFD0C00C371E010083254EB923A0BB
:1006E000A900EFC0D049138381212A879A866A86A0
:1006F0009387018AA6851385C120EF20704F2320A0
:10070000B901EF40400E938781B2A29703AA070078
:10071000938741B3A2978C435285EFC0B00F938764
:1007200001B4A297AA8A2320AB008843D285938480
:10073000C121EFC0300EA29488C0B7070020B704D3
:1007400000209387070093844403A2943E940840BA
:10075000D285EFC0300C88C02320590123A0B901F5
:10076000EF30F011E1BCEFF2BFAC2E84AA85371553
:100770000100130545A1EF80C03F2285EFD0700C2A
:100780002A8637150100AE86130585A1EF80603EED
:10079000D1B4EFF2FFA941112EC4AA85371501008B
:1007A000B286130545A136C6EF80A03C2246B2466C
:1007B00037150100130585A1EF80A03B410159BC0D
:1007C000EFF21FA72E84AA8537150100130545A156
:1007D000EF80203A37150100A285130585A1EF802F
:1007E00040398DBCEFF23FA39384C18898408D4778
:1007F00063C5E706138481891C4013090006B3070B
:10080000F9029389819AAA853385F900EFD0B03A2D
:100810003705010013058560EF80A035370501001D
:100820001305857FEF80E0340C4037150100130578
:1008300045A1B305B902CE95EF80A033371501006D
:1008400013054580EF80E0321C4011478507B3E770
:10085000E7021CC09C4085079CC0C5BAEFF25F9DB3
:100860005137CDBAEFF2DF9C37150100130585B77C
:10087000EF802030996773900780B707EFBE37E7A6
:1008800000E0938707083CC76FF0DF9CEFF25F9AA8
:1008900037140140130504808565EF7080770546A5
:1008A000130504808565EF708073F16593850520DD
:1008B00013850199EF70301C3725014085451305DC
:1008C0000580EF700075EF706005371501001305A6
:1008D00005ABEF80002A37150100130585ACEF80CA
:1008E0004029B704010013858460EF808028371504
:1008F00001001305C5ADEF80C027371501001305B2
:10090000C5AEEF80002737150100130545B0EF8015
:10091000402637150100130505B1EF8080253715F6
:100920000100130505B3EF80C0243715010013053E
:10093000C5B3EF80002413858460EF8080233715D2
:100940000100130585B4EF80C022371501008145F1
:10095000130585B5EF80E021371501001305C5B5F6
:10096000EF8020213715010093050054130545B78A
:10097000EF80202023A801887D34EF40C025EF20A0
:100980005021EF30904DEF70607101468565130581
:100990000480EF70C0646FF0FF8B01479306000680
:1009A0003306E5000306060093178701E187631409
:1009B000B6069305F005254613978701618763CF37
:1009C000E504B306F50094228507938606FD93F6A9
:1009D000F60FE363D6FE8147A54829489305F00545
:1009E000B306E50003860600930606FD93F6F60FB0
:1009F00063E1D802B387070305079376F70F1397D0
:100A000086016187938707FDB297C207C183E3F927
:100A1000D5FC3E8582800507E314D7F88147D5BF12
:100A2000EFF21F81830715001307C004AA846388AF
:100A3000E700130700056380E7046FF0BF81B71577
:100A400001009385C580EFD0301919C59305A00327
:100A50002685A1372399A18AB71501009385C58101
:100A60002685EFD0701771D99305A00326853537F9
:100A70002398A18AD9B7B715010093854582EFD095
:100A8000B01545DD930530072685013F1384418B62
:100A90000AA01E209305A0032685C207C18381CF2B
:100AA000ED3D9307C0033305F5021A203A95420540
:100AB00041810AA059B7D535EDBFEFF26FF703A713
:100AC0004189930700063387E70283A701881385CE
:100AD000819A8145B306E500958F8507BA973E95C3
:100AE000EFE0605EEFD0A0606FF0CFF6EFF24FF472
:100AF00003A74189930700063387E70283A701888C
:100B00001385819A29468145B306E500958F8507AF
:100B1000BA973E95EFE080706FF0CFF3EFF24FF1B0
:100B200003A7418993070006AA85B387E7021385C7
:100B3000819A3E95EFD0B00623A0A1883335A0005E
:100B40006FF04FF1EFF2CFEED13F6FF0AFF0EFF279
:100B5000AFEB9389818083A7090023AEF186938749
:100B60000181984323ACE18A1307400698C303A789
:100B7000C1989387C18A98C3EF30F0460545EF309E
:100B8000E0501387C11F14439387C12094C354437B
:100B900013058005B7040020D4C314475847938B2E
:100BA000C18794C7D8C79307000023A0F900BD37B9
:100BB0009389C18A138B8180938A818B138A0181E7
:100BC0001384C11F938404226311050C130590053F
:100BD000B137631C050A1305A00589376317050A99
:100BE00085479CA00145EFF05F979C206386070A2C
:100BF0000545EFF09F969C2089E71305A005393F36
:100C000001C50945EFF07F9513058005013F11C926
:100C1000F13D01C95D35AA8503A581B2EFC0803FD2
:100C200008C013059005DD3D11C9C93501C97135ED
:100C3000AA8503A5C1B2EFC0E03D48C01305A005D9
:100C4000F13D11C9653501C98D3DAA8503A501B3E3
:100C5000EFC0403C08C49306C4001306840093050B
:100C600044001385C11FEF30201983A70B002320F8
:100C7000FB0083A70A002320FA0083A7C19823A0C2
:100C8000F900EF30C03F6FF0AFDB13058005238024
:100C900004006935E31805F4130590054135E3199F
:100CA00005F4A1BFEFF2CFD813850199EF70C06CA6
:100CB000371501001305C5A7EF70B06B83A5C1867A
:100CC00037150100130585A88505EF70906A6FF050
:100CD0006FD8EFF2EFD27571371A00209387018930
:100CE000130ACA481384819A3EC683270A08032739
:100CF0004A08998F93F7F707B1C703A7C1888D47B3
:100D0000938CC18863C0E70413850199EF70406438
:100D1000931585013705010093840187E18513054B
:100D200005678CA0EF70F06483860400A9471387E1
:100D30001187938441876397F6029440A9EAA388B8
:100D4000018631A81306000681450818EFF04FD13F
:100D50009387C1B49C33138DC1B4639F0726496147
:100D60006FF0CFCDB547E38AF6FC9307A0036394F9
:100D7000F6001C23F9D390409307E005E3CFC7FAB0
:100D80009307B003639AF62285471CA3B9BF938DDE
:100D9000818983A70D00130600061823B38AC702B2
:100DA00013898189B3095401CE962380060063120A
:100DB000071C32479305E0044E85BA97238007004D
:100DC000EFD0E05D630A051A23A0A1883305354101
:100DD00005055695294681452295EFE02044938BE1
:100DE000C18683A70B00138DC1892320AD00850721
:100DF000138B0188938AC1899389C186630EF50498
:100E000003A50D0013060006B70501003305A60271
:100E1000938505682295EFD0205C1DED3705010014
:100E200013058568EF70F054370501001305056957
:100E3000EF70305483A50B00370401001305446C98
:100E4000EF70305383250D001305446CEF70705222
:100E5000913D23A0040021B703250900930B000650
:100E60009305A002B30B7503B30D74016E85EFD02B
:100E700000533DC18147014DEE861306A002338722
:100E8000F600030707006308C7008507E207E1874C
:100E9000334DA701EDB72320AB003305B541050560
:100EA0005E9581452295EFE00022EFB0305C63084B
:100EB000A5053705010013058568EF70904B3705D0
:100EC00001001305856CEF70D04A3715010083A52A
:100ED0000900130585A89DBF370501001305856826
:100EE000EF703049370501001305856EEF707048CB
:100EF0003705010083A509001305456C81BF83A751
:100F00000A0023A0F90083290900130500069305B0
:100F10007004B3093503B30A34015685EFD0204875
:100F200005CD23A0A1883305554105054E95814582
:100F30002295EFE04019EFB070538D4763EEA700A4
:100F400083C78186ADE783C7C1B499E73705010040
:100F500013050574EF70F0418327090011478507D9
:100F6000B3E7E7022320F90083A70C00850723A03D
:100F7000FC0023A0040095BB9305A0024E85EFD092
:100F8000004251D13705010013058568EF70703EAE
:100F90003705010013054571EF70B03D83A5C1868B
:100FA000370501001305456CEF70B03C5DB53705A2
:100FB00001001305457479BF1C23E39807D283A76A
:100FC00081891307160098C013070006B387E7024C
:100FD000A297B29794A311BB83A74187138441873B
:100FE000E39F07D6814C1389819A9389018903274E
:100FF0004D2683270D26E304F7D603A7C1888D4726
:10100000138CC188E3CDE7D413058D25EF60F00084
:101010002388A186A947938D11876304F502B547FC
:101020006301F5029307A0036315F50083C70D0064
:1010300089CB18409307E00563C5E700FD576319A6
:10104000F50E03270D2683274D266311F708370574
:1010500001001305C57BEF70D03137050100130582
:10106000057DEF70103183A7C1989306C00323A0BC
:10107000F18C03A6C18B3D67130707A6918F33D769
:10108000E70237F63600130606E8B7050100938538
:10109000457E0808B376D70233D6C702EF70B02F6B
:1010A0003705010013058560EF70B02C371501007E
:1010B0000C08130585B5EF70D02B1385C1B4EF1064
:1010C000102C85451385C1B4EF10501483C70D0053
:1010D00099CF0818EFF0DF94814713070006141822
:1010E000BE96238006008507E39BE7FE814C1040F7
:1010F000E30706C4938681899C4213070006238078
:101100000D003387E702232004004A97329723001B
:10111000070005463387F90010A303270C00850755
:1011200005072320EC001147B3E7E7029CC2C1B5D5
:101130009307B0036310F50285472380FD0018096B
:1011400093871C00BA9C2380ACFA939C870193DCA4
:101150008C4171BD83C70D00FDF383A78189930680
:10116000170014C093060006B387D702CA97BA9730
:1011700088A3374700401375F50F8357074093F74F
:101180000708E5DF420541812312A7408DB503A77B
:10119000C19823A6E18A03A7418993870189BA9759
:1011A0009C2399EBEFF2CF883705010013050574F6
:1011B000EF70301C6FF00F8A8280EFF2EF8493841F
:1011C000C11F1384C120014993890186138A418A72
:1011D000914AB387290103850700EFF03F9429CD99
:1011E000EFF0BF8DB3072A01AA8B882311E59387FF
:1011F000618B88231375F50FEFC0704B8C40EFC0E7
:10120000005ADE85EFB0106108C005099104110491
:10121000E31159FD13056004EFF05F9001CDEFF08D
:10122000DF89930500002A84EFC040466354A00084
:1012300023A481806FF0CF809C401CC0F9B7EFE2FF
:101240003FFFA53F13059004EFF05F8D1384C19914
:1012500011CDEFF09F8608C01305A004EFF01F8C9E
:1012600011C9EFF09F8548C06FE0DFFE93070000D3
:101270001CC0DDB7930700005CC0FDB7EFE25FFB69
:1012800003A9C1212A840841CA859384C121EFC0E2
:101290004048635405002320240103A9440048402A
:1012A000CA85EFC00047635405002322240184440B
:1012B0000844A685EFC0E0456353050004C4B704A5
:1012C000002003A94403084093844403CA85EFC067
:1012D000E03B6354A0002320240103A944004840BC
:1012E000CA85EFC0A03A6354A0002322240184449D
:1012F0000844A685EFC080396353A00004C46FE0A2
:101300007FF5EFE2FFEF1385C1208D3F03A7C19862
:101310009384C12003A5C11F8C4023A6E18A83AA20
:101320008180EFC0E030CA8C1384C11F371A0100DE
:10133000938D4121138D012131E1CC404840EFC014
:10134000202F0DED83254AB95685EFC040032A872B
:101350009387018A938681211386412193850121F8
:101360001385C120EF20C0089C401CC0DC405CC03D
:101370009C441CC4DC445CC46FE05FEC03A50181A9
:10138000EFC0F032D685EFC0804183254AB9EFB077
:10139000107FB717010083A58780EFB0507E2A87A2
:1013A0009387018A938681216E86EA851385C12001
:1013B00055BFEFE25FE61384C1992A8948400111C5
:1013C0001379F90FEFC0F0472ACC08402ECEEFC0BA
:1013D00050476246F246EF705043EFC050512ACC5E
:1013E00003A50181EFC0B02C83A58180EFC0203B15
:1013F000B717010083A547B9EFB07078B7170100A0
:1014000083A58780EFB0B07783C7018AE2489384D1
:10141000C1203EC24AC02A888947054781461386B3
:10142000C1999385C1201385C11F1384C11FEF107B
:10143000E0779C401CC0DC405CC09C441CC4DC4485
:101440005CC403A7C19823A6E18A05616FE0FFDFB2
:10145000EFE21FDE996773900780EF307001054659
:10146000C14537150140EF6090370546C145371536
:101470000140EF60D0360546C14537150140EF60A9
:1014800010360546C14537150140EF605035370528
:10149000010013058560EF70C06D3715010013055D
:1014A00005A9EF70006D37150100130585F7EF7082
:1014B000406CEFF02FBB01A0EFE29FD71386C18AEB
:1014C00083A6C1980C4203A641888D8E9387C18A5A
:1014D0006374D60011C2AD3F83A64180A1CA03A7A1
:1014E000C1989C43B307F74063F2F60403C7018D2C
:1014F00083C7118D93F7F70F639AE7020546C1453D
:1015000037150140EF60B02D0546C1453715014044
:10151000EF60F02C0546C14537150140EF60302CD7
:101520000546C14537150140EF60702BEF10D069BB
:101530006FE05FD2EFE2DFCFEF3080739387818679
:1015400098231DE3054798A303A7C186370501002B
:101550001305856023A4E188EF70A06137050100C1
:1015600013054574EF70E0606FE0DFCE03C5818640
:101570008280EFE2FFCB83C7018AAA84130540056E
:10158000238CF186EFF08FD909E501494A856FE098
:101590007FCC2A89EFF06FD2EFC0100C13848187C3
:1015A0001375F50F08A075D1370501001305856087
:1015B000EF70205C930790066384F40463CE970079
:1015C000930780066387F4020C203715010013058A
:1015D00085B5EF70005A5DBF9307D0066387F402AC
:1015E0009307A00DE392F4FE37150100130545A6FD
:1015F00029A0371501001305C5A1EF708057E9B781
:1016000037150100130545A3CDBF3715010013059C
:10161000C5A4E5B7EFE2DFBE5D7113057004EFF01E
:10162000EFCF63060516EFF04FC9EFC0C07C9147BE
:101630006303F50C63CCA7008947630EF50863C507
:10164000A70A63500508EFF09FB459A09307A005BF
:101650006303F51063C8A700F147E316F5FEEFF04A
:101660000FCFD5B79307B005630AF50E9307C005F2
:10167000E31BF5FC13055004EFF04FCA19E1EF30FE
:1016800080161384C11F81449389018613898120A8
:10169000138A81B2930A8400B387990003850700F7
:1016A000EFF0CFC711C98D47639EF40AEFF0EFC08A
:1016B00048C44A85EF20500385049147E39EF4FC1B
:1016C00059B783C7818681EBEFF03FAFEFF07FC35F
:1016D00061616FE0BFB683C7818699E7EFF03FB6DF
:1016E0000545EFF01FCDEDB783C7818689E7EFF0A1
:1016F0001FB50145FDB713050005EFF02FC20144EA
:1017000011C5EFF08FBBEFC020752A84130530059B
:10171000EFF0CFC001CDEFF04FBAB707010083A5BE
:10172000C762EFC0C007EFC020732A84EF30A00B60
:1017300003A7C19883A6C198BE843A9423A6D18AF0
:1017400083A7C198E3F187F0EF601047EF30802C5A
:10175000EFF09FD6F5B7238B018AF5B50547238BAC
:10176000E18AD5B5EFF06FB593972400330BF40001
:10177000D297AA858843EFB0F0092320AB00CA8630
:101780005686930544002285EF20006735B7130580
:10179000D004EFF0AFB819E16F00F051EFF0EFB106
:1017A000EFC0606513079006AA876300E566634E85
:1017B000A7147147630BE5506342A70A5947630DAD
:1017C000E546634EA7044947630DE50C634EA70247
:1017D0004547E31AE5E60146C14537150140EF608C
:1017E00010000146C14537150140EF60407F0146BA
:1017F000C14537150140EF60807E0146C145371570
:101800000140EF60C07D81B551476306E540554713
:10181000E31BE5E21385C1B4EF1040012DB5654728
:10182000630EE5466341A7025D47630CE5406147EF
:10183000E31BE5E01385C1B4EF10C00303A7C19813
:1018400023AEE18A09B569476300E5466D47E31CAD
:10185000E5DE1385C1B4EF106010F5B31307200562
:10186000630CE56A6341A7027947630DE54A634764
:10187000E54A7D476301E55613071005E315E5DCEE
:10188000EFE05FFEC9B313075005630CE572634DCB
:10189000A702130730056305E56813074005E31445
:1018A000E5DA13053005EFF06FA763000568EFF088
:1018B000CFA0B707010083A5C762EFB0506EEFC09D
:1018C000A05923A2A18041B31307C005630DE570A1
:1018D00013078006E319E5D613058006EFF07FC9EC
:1018E000E31305D613053005EFF04FA301CDEFF05C
:1018F000CF9C03C48187938701970A043E94EFC06D
:10190000804F08C0EF30A0363DBB1307C00CE30684
:10191000E5186349A72213077007E300E508634051
:10192000A71C130720076306E5766346A71813076D
:10193000D006E31AE5D01305D006EFF09FC3E314F9
:1019400005D013053005EFF06F9D93848187138ACE
:10195000019709C9EFF06F968020EFC0C0490A04D3
:10196000529408C0EF30A03003C904000A09B3073D
:101970002A01884383AAC198B71B0100EFC02053F6
:10198000938701963E9983270900AA8C7D593EC40E
:10199000B717010003AC878393890196371D0100B7
:1019A000E28D83A7C1981307803EB3875741637CBC
:1019B000F708B71701001385078AEF70801B9C207A
:1019C0008A07CE978843EFC0C067B71701002A8601
:1019D000AE861385478AEF70C019B71701001385CB
:1019E000C78AEF7000198C2013854B89EF7060183F
:1019F00013050D8BEF70E01703A50197EFC0204B87
:101A0000EFC0603FAA8513854B89EF7080163715AC
:101A100001001305458BEF70C015FD576301F94AAE
:101A200083A7C1988965938505719D8DCA95130714
:101A3000803EB3D5E50237150100130585A8EF7088
:101A4000401383AAC198EF20F07CEFF0FFA6FD576A
:101A5000631CF948A2456685EFB050439C208A0775
:101A60003EC63307FA006353A0460843EFC0204444
:101A7000EE85EFB0107CB247CE978C43EFB0704943
:101A8000E341A0F203A9C198FD57E30CF9F0634BC1
:101A9000090003A7C19889679387F7703307274127
:101AA000E3F1E7F003A7C19823AEE18A03A7C19849
:101AB00023A6E18A49BE130730076304E55C1307D8
:101AC0005007E312E5B803A501889305A0021505A8
:101AD000EFC0F00CE30905B6A30F05FEADB6130782
:101AE000C0086306E530634EA70013078007630351
:101AF000E56A130790070545E397E7B4EF2000591F
:101B000099B61307900C630BE5741307B00C0144EE
:101B1000E31BE5B2371900209384018613090925D8
:101B20009149B387840003850700EFE03FFF19C5A3
:101B3000EFE0BFF893172400CA9788C30504E312A7
:101B400034FF11B61307D012E302E504634DA70278
:101B50001307E00C6305E57E6347E5761307C00DC8
:101B6000E307E5001307D00DE31FE5AC13053005CF
:101B7000EFE0DFFAE30905ACEFE03FF4EFC0A027A8
:101B800023A6A180C9B413070019E302E512634438
:101B9000A7061307E012E307E50E1307F012E3149C
:101BA000E5AA13055004EFE07FF78144E30B050E2F
:101BB000EFE0BFF0EFC02024AA84E354050EB7176E
:101BC000010003A4478313053005EFE03FF501C58D
:101BD000EFE0BFEE2A8413053004EFE03FF4154632
:101BE00011C5EFE09FEDEFC000212A86A685228572
:101BF000EF30000A89BC1307003A6306E5181307A3
:101C0000703EE312E5A42384018603A7818823A6FE
:101C1000E186EFF0FF833715010013054585EF607E
:101C200050751385C1B4EF00903D371501001305C1
:101C30004586EF60107401BC1385C1B4EF00F0421B
:101C400019B49389418903A40900130900063304D8
:101C500089029384819AB71501009385458733855E
:101C60008400EFC06077E300059E93054400A695CD
:101C70000808EFC040740C0805461385C1B4EF0096
:101C8000304383A50900B305B902A69537150100B5
:101C9000130545A1EF60F06D6FF0FF9A1385C1B495
:101CA000EF00F03D6FF03F9A1384C1B43C20E38C09
:101CB000079813053005EFE07FE6E3060598EFE0AF
:101CC000FFE22322A4266FF01F9803A50188930545
:101CD000A002138401881105EFC0606CAA8415C5A9
:101CE00003A54189930700069305E004B387A70283
:101CF0001385819A3E95EFC0806A93050002EFC07C
:101D0000006A050508C0A38F04FE0C40014691053A
:101D10001385C1B4EF00D0396FF0FF92238601B470
:101D20006FF07F929387C1B4BC23E38E0790138535
:101D3000C1B4EF00505003A501889305A00293841D
:101D400001881105EFC0A0652A8915C503A5418941
:101D5000930700069305E004B387A7021385819AD1
:101D60003E95EFC0C06393050002EFC040630505D8
:101D700088C0A30F09FE8C401385C1B49105EF0004
:101D8000103C6FF05F8C03A501889305A0021384BB
:101D900001881505EFC0A060AA8415C503A5418977
:101DA000930700069305E004B387A7021385819A81
:101DB0003E95EFC0C05E93050002EFC0405E050592
:101DC00008C0A38F04FE0C401385C1B49505EF0035
:101DD000F0356FF05F8703A7C19837050100130541
:101DE000856023A0E18CEF60D0580C0845B5130541
:101DF0003005EFE0BFD2E3080584EFE01FCCEFB081
:101E0000907F23AAA1966FF01F84EFF08FF6E31C5A
:101E10000582371501001305C587EF6090551384BF
:101E200081871C20138701968A07BA978843B714C5
:101E30000100EFC000212A86AE8613854488EF603A
:101E40005053371501001305C588EF6090521C20D0
:101E5000138701978A07BA978843EFC04005EFC000
:101E6000401E2A86AE8613854488EF609050371551
:101E7000010013050589EF60D04F0820EF20302ABC
:101E8000AA853715010013054589EF60904E371577
:101E9000010013058589EF60D04D7D55EF20302876
:101EA000AA8537150100130585B5EF60904C3715ED
:101EB0000100130585F7EF60D04B6FF07F81371578
:101EC00001001305858BEF60D04AA5BE0843EFB033
:101ED000107EE285EFB00014B247CE978C43EFB08E
:101EE000E07AE35105BA75BC9C208A073387F90074
:101EF000D29788433AC6EFB0907B3247AA85084311
:101F0000EFB03033EFB0306F9357F5413D8D1D8DFD
:101F1000A947E3D0A7B8BDB6A383018A6FF0AFF29B
:101F20000547A383E18A6FF00FF213058005EFE008
:101F3000FFBE29CDEF20300B13058005EFE01FBE5B
:101F400019C50546C14537150140EF604009130525
:101F50009005EFE0BFBC19C50546C14537150140E6
:101F6000EF60E0071305A005EFE05FBB19C505466C
:101F7000C14537150140EF60800613055004EFE0BE
:101F8000FFB9630205EC05466FF05F871305900506
:101F9000EFE0DFB845F11305A005EFE03FB859F9D0
:101FA00013055004EFE09FB751F5EF20D00305462D
:101FB000C14537150140EF608002EF20700D6FF0D2
:101FC0008FE813053005EFE07FB5EFE01FAFB707EF
:101FD000010083A5C762EFB0807CEFB0F06723A259
:101FE000A1886FF04FE6B717010003ACC783B71A9B
:101FF00000200144138B01869384012D938A0A25C6
:10200000B3078B0003850700EFE05FB131CD8D474B
:102010006312F406EFE07FAAE2852A8AEFB0606FD0
:1020200063520504C844D285EFB06035AA89AA85F9
:1020300003A5418D1389012CEFB0607623AAA18CF2
:1020400003A5CA00CE85EFB0807523A6AA0003259C
:10205000C900EFB03072CE85EFB06074EFB0D05FE2
:102060002326A90023A6440105049147E31AF4F8A6
:102070006FF06FDDEFE07FA493172400A69788C36D
:10208000E5B7371501001305058CEF6050336FF08D
:102090008FDB371501001305C595EF60902D138474
:1020A000C11F0840B7140100EFB0B0792A86AE8690
:1020B000138584A1EF60F02B3715010013050596F9
:1020C000EF60302B4840EFB0D0772A86AE8613857C
:1020D00084A1EF60102A3715010013054596EF60C3
:1020E00050290844EFB0F0752A86AE86138584A186
:1020F000EF6030283715010013058596EF607027D3
:102100004844EFB010742A8637150100AE861305D7
:10211000C596EF6010263715010013054597EF604F
:1021200050250145EF20C074EFB0705883A5012DF4
:102130001384012DEFB0A024EFB0B0702A86AE86D4
:10214000138584A1EF60F0220545EF206072EFB0A7
:1021500010564C40EFB0A022EFB0B06E2A86371573
:102160000100AE8613050598EF60B0200945EF2009
:102170002070EFB0D0530C44EFB06020EFB0706C23
:102180002A8637150100AE8613058598EF60701E0C
:102190006FF06FCB01456FF07F9637150100130587
:1021A0004599EF60101D371501001305059BEF6081
:1021B000501C3715014093050008130505C0EF308A
:1021C00040678547631DF506B71501009385C584F3
:1021D00037140100130584B5EF60B01937150100FD
:1021E0001305859BEF60F01837150140930500201B
:1021F000130505C0EF30E06385476317F504B71595
:1022000001009385C584130584B5EF6090163715DA
:1022100001001305059CEF60D015371501409305AB
:102220000040130505C0EF30C06085476313F50219
:10223000B71501009385C584130584B5A1BCB715F6
:1022400001009385058469B7B7150100938505845E
:102250005DBFB715010093850584F9BF37190020CC
:1022600001449384018613090924114AB387840029
:1022700003850700EFE09F8A11C9EFE01F849319DF
:102280002400CA99EFB0503D23A0A9000504E31F24
:1022900044FDEF1050496FF00FBB13053005EFE020
:1022A000FF8709C5EFE07F8123A6A18C13054005B8
:1022B000EFE0DF8619E16FF00FB9EFE01F8023A692
:1022C000A18E6FF04FB813053005EFE03F8509C5CB
:1022D000EFE0AFFE23A0A18E13054005EFE01F84C1
:1022E00009C5EFE08FFD23A4A18E13052004EFE0C4
:1022F000FF8219C5EFE06FFCEFB0103623A2A18E6C
:1023000013058005EFE09F8109C5EFE00FFB23ACCB
:10231000A18C1305A005EFE07F8009C5EFE0EFF980
:1023200023AEA18C13055004EFE04FFF19E16FF0CD
:102330008FB1EFE08FF823AAA18C6FF0CFB00144EA
:1023400093840186138981B28D49B3878400038504
:102350000700EFE0AFFC19C5EFE02FF6931724005C
:10236000CA9788C30504E31234FF6FF0CFAD13059D
:102370003005EFE0AFFA19E16FF0EFACEFE0EFF30B
:10238000EFB0702723A8A1806FF0EFAB1305000515
:10239000EFE0CFF809C5EFE04FF223A8A1821305C3
:1023A0009004EFE0AFF719C5EFE02FF1EF201071C7
:1023B00023A6A18213054004EFE04FF619C5EFE014
:1023C000CFEFEF20B07323A4A18213053004EFE018
:1023D000EFF409C5EFE06FEE23A2A182EF20605277
:1023E0003705010013050574EF60A078371501006B
:1023F0001305859CEF60E07703A501833714010086
:10240000EFB030442A86AE86130584A1EF60607673
:10241000371501001305C59CEF60A07503A5C182A7
:10242000EF20D06BEFB0F0412A86AE86130584A171
:10243000EF602074371501001305059DEF60607390
:1024400003A58182EF20906DEFB0B03F2A86AE8663
:10245000130584A1EF60E071371501001305459D58
:10246000EF60207103A54182EFB0B03D2A86AE86B1
:10247000130584A1EF60E06F37150100130585F7A0
:102480006FF02FFB13053005EFE04FE993070000D5
:1024900001C5EFE08FE2AA873E85EF1070286FF04C
:1024A0008F9AB717010003A407836FF0CFF1EF20D5
:1024B00080336FF04F9913054005EFE02FE6B70426
:1024C000010051C1EFE06FDFEFB010191375F50F88
:1024D0001384818708A015C513858460EF60606947
:1024E00013054005EF50106E0C2037150100130541
:1024F0004588EF600068371501001305859D6FF072
:102500004FF313056004EFE06FE101CDEFE0EFDA88
:10251000930500002A84EFB060176354A00023A441
:10252000818013858460EF60C06437150100130556
:10253000C59EEF6000643715010083C5018A13054D
:1025400085BF6FF02FF513858460EF6080623715CB
:102550000100130505A0EF60C06183A541899307C1
:10256000000637150100B387B7029385819A1305DA
:1025700045A1BE95EF60E05F37150100130545806A
:102580006FF02FEBEFD25FC8EFE04FB0894A1384B2
:10259000819A930B0006114C83A7C1881389C188C7
:1025A00063C4FA00EFE0EFF281451385C1B4B929A5
:1025B0008327090095C7938441898C401385C1B452
:1025C000B385BB02A2954929EFF0CF848327090088
:1025D000FD172320F9009C408507B3E787039CC0C3
:1025E000EF204043EFE05FEDEF10F01975B7EFD249
:1025F0003FC41385C1B449206FD0DFC5EFD25FC39C
:102600003754004093055052130504C0EF30500773
:1026100039C19387812283A60708035644C083A546
:1026200047081387160042061377F70341826306B3
:10263000B700BE9690A223A0E70883A7C19837559C
:1026400000409387470693055052130505C023A207
:10265000F18CEF30B00637540040930560621305EB
:1026600004C0EF30F00119C593056062130504C082
:10267000EF30D0046FD01FBEEFD29FBB9307C55978
:10268000232AF548B7150100930700102A84232C4C
:10269000F5482310050023010500938545D913054E
:1026A000C549EFB0505185472300F46A83A7C1980C
:1026B0009387077D232EF4686FD0DFB9EFD25FB424
:1026C000130A452341112A845285AE89EF40D07CFC
:1026D00071E54E85EFB0304F9307C44701493EC4C2
:1026E000130BE002B71B0100371C0100B38AA900DD
:1026F000B71C0100371D0100930D5448A2455285B7
:10270000EF504000AA843DE183075448A5C3E38706
:1027100067FF8347444813F767006DF30326444976
:102720000307060011E36E860327446A0509420980
:10273000135909011DE3C18B95CF93854CC2568572
:10274000EF606045CE8513058DC2EF608042CE8577
:102750002285AD3729ED23800A008327446A094783
:102760006398E7028317846AE39A27F92685410173
:102770006FD0DFAC93854B87328532C6EFB0D04542
:1027800069DD3246CE851305CCC3EF60803EF1B7DC
:102790000547E395E7F62314246B8DB7AA84AA8531
:1027A00037150100130505C5EF60A03CC1B7AA8429
:1027B00075BFEFD2FFA741112E85B28532C6EF401B
:1027C000B06D2A84324601E937150100B285130540
:1027D00085C6EF60003A228541016FD0BFA7EFD2D6
:1027E0003FA541112E85B28532C6EF40B071324609
:1027F0008307960091E3114541016FD0BFA5EFD249
:102800003FA3117191672A84938707A31306B00F22
:10281000814548003EC0EFD0BFA48A852322046AC8
:102820002285EFF0BFE911616FD0DFA23C218DEF6F
:10283000EFD21FA0930545002A840145EF4050299F
:10284000AA8509C9371501001305C5BDEF606032BF
:102850006FD05FA0371501008145130505C0EF60FB
:10286000403185473CA0EDB78280A30005002301DD
:10287000050082803C2199C385471CB182801C31B0
:1028800099C3A30005008280EFD29F9A4111740082
:102890001305852502C6EF40303C19C537150100E8
:1028A0001305C5D3EF60E02C324541016FD09F9AEC
:1028B0003C21A5CFEFD2DF9741112EC61304852509
:1028C0000DCE37150100130505C8EF60802AB2450B
:1028D00005462285EF40D021AA8511C93715010090
:1028E000130505CAEF60E02841016FD0BF96371588
:1028F000010081451305C5CBF5B737150100130558
:10290000C5CDEF600027B24529462285EF40501E15
:10291000AA8511C537150100130505D0E1B7371594
:10292000010081451305C5D175BF8280EFD25F904C
:1029300085473CB10146EFF0BFF76FD0BF91EFD2B2
:102940003F8F2E85EF40B06201C9AA85371501007F
:10295000130505BAEF60E0216FD0DF8FEFD25F8DF6
:102960003C2195CF2A8437150100130505D7EF6068
:10297000402083250426370501001305456CEF60D0
:10298000401F1305F002EF50F0238325442637152E
:102990000100130585B5EF60C01D6FD0BF8B3715E3
:1029A0000100130545D8EF60C01CC5BFEFD25F889A
:1029B0002E852E84EFB03021AA849305E004228571
:1029C000EFB0F01D15ED1385F4FF2295B5471CB14E
:1029D000A9473CA1A301050037050100130585683F
:1029E000EF60201937150100130585BBEF606018F3
:1029F00037150100130585F7EF60A0176FD09F858D
:102A00009305A002EFB0B0197D15C9B791E98347CE
:102A1000056A8DC383A7C1980327C56963ECE700E6
:102A20003C212300056A99E7EFD29F80EFF01FE079
:102A30006FD05F828280EFD2AFFF930485252A8416
:102A40002685EF4070392685EF40D04323000400EF
:102A5000A30104006FD01F80EFD28FFD3704002048
:102A60008347C45605498DC7AE84B71501009385C9
:102A700085D52685EFB050161DE51305C456A685ED
:102A8000EFF0DFF21304C4563C3091C7EFE09FB87B
:102A90004A856FD02FFC3705010013050574EF60E0
:102AA000400D0149F5B71305C456EFF0DFF83715AF
:102AB00001001305C5D5EF60C00BD9BFEFD24FF7AA
:102AC00009472322E56A2314B56AB285EFF01FBFD8
:102AD0006FD04FF8EFD2CFF585472322F56A2A84CD
:102AE000EFF0DFBD8315846A37150100130585B546
:102AF000EF6020080355846A6FD0CFF5EFD24FF313
:102B00009305F0021305C549EFB0700913351500A0
:102B10006FD04FF4EFD2CFF11305C549EFB0B00934
:102B20006FD04FF3AA87038507006305B50001CD79
:102B30008507D5BF2E8581C92380070085070387B8
:102B400007007DFB05458280EFD28FEE9305F002F2
:102B50001305C549EFF01FFD6FD0CFEFEFD24FED5A
:102B60002E849307C549B71501003E859385C5C7D7
:102B7000EFB01001A285EFB0B0006FD0AFEDEFD293
:102B80002FEB2A84EF103046EF10505413058425A4
:102B9000EF40502FA3000400EF10904F37150100B5
:102BA000130505BDEFD09FCB6FD0CFEAEFD24FE535
:102BB000939A2600330B5601397183240B00BA898E
:102BC000330755012E893E8C0C43834701082A8A1E
:102BD000268542CAC68C3ED032C2EFA0A043124620
:102BE0008A0933073A01B307360180430C432AC4EC
:102BF00022853EC20A0CEFA0E041B3078901B30B66
:102C00008A0183A50B002AC68843EFA09062832720
:102C1000C900A2452AC83ED48327CA003ECCB707C4
:102C20000080BD8C3D8CB30759018843EFA07060D4
:102C3000B30739012A8DB2458843EFA0905FAA8D72
:102C4000EA852685EFA0B035EE852AD62285EFA04D
:102C50001035B257AA853E85EFA0C03BEE852AD637
:102C60002685EFA0D033EA85AA8D2285EFA03033E8
:102C7000AA856E85EFA0F05BB257BE85EF6020514C
:102C8000930500002A8DEFA0D028635005026A85C5
:102C9000EFB0203BB717010003A687D983A6C7D999
:102CA000EF802055EFB0A0442A8D825799CF6A85D6
:102CB000EFB02039B717010003A687D983A6C7D97B
:102CC000EF903003EFB0A0422A8DC2471395170052
:102CD0000581EFB000372AD02ED26A85E685EFA0B5
:102CE000102CEFB0003602569256EF600032EFB073
:102CF0000040AA8DEFB0E034B717010003A607DA51
:102D000083A647DAEF9000286346051C6E85EF60C6
:102D1000A01AEFB06014931D050193DD0D016393BC
:102D20000D00854D6E85EFB08018AA8CAA856A8546
:102D3000EFA0E0642A8D4245E685EFA04064E245BD
:102D40002AC82255EFA0F04EE685EFA040632AD4B2
:102D50006A85EFB0002FB716010003A686DA83A6B6
:102D6000C6DA2ACC2ECEEF90402D6247F2473A8643
:102D7000BE86EF90802CB71701002A86AE8603A589
:102D800007DB83A547DBEF90C076EFB0403603A7A3
:102D90000B009C00E29723A8E7FE0327CA00AA8C39
:102DA000054A3ADE980056973ACC98004E97814BE8
:102DB0003AD03E8C93170A01C18363F3B711E14700
:102DC00063CC7709EA852685EFA0701DAA89E68580
:102DD0002285EFA0D01CAA854E85EFA0A023AA894A
:102DE000E6852685EFA0B01BAA84EA852285EFA0A0
:102DF000101BAA852685EFA0D04313881B00931BC8
:102E00008801AA8493DB8B414E84A2452685050A5E
:102E1000EFA04020E247B24523A8A7FE2285EFA0FD
:102E2000601F8257C24523A8A7FE03250CFFEFA011
:102E3000601E2328ACFEA2557255EFA0A01D2ADE0D
:102E40000818EFE0AFC352475C01741830184C18F3
:102E50000818EF00E059B9BF5285EFB04005EA8588
:102E6000EFA0F0132A84EF50F07CAA892285EF604E
:102E7000601183270B0037070080AA8AB3CBE700D5
:102E80009247CE855E858043EFA07011AA84D685D7
:102E90002285EFA0D010AA852685EFA0A017D685A1
:102EA000AA845E85EFA0B00FAA8ACE852285EFA006
:102EB000100FAA855685EFA0D0372A84814BB1B771
:102EC00052475C019306C900130689009305490027
:102ED0004A85392B21616FD06FB6EFD26FB22A8449
:102EE000485D4111AE8B328BEFB0C0082A89284073
:102EF00083298404EFB000082A8C4E85EFA0307B34
:102F000093050000AA8CEFA0A0726300051ECA857D
:102F10004A85EFA0D008AA84E2856285EFA0300838
:102F2000AA852685EFA0F030EFB0A0112A8A668529
:102F3000AE8AEFB000112A86AE86EF80802B2A86FB
:102F4000AE865285D685EF80D01DEFB0401AEF5087
:102F50003061EFA0506AAA846840EFB0A001AA8A4D
:102F600033053041EFA0B07493050000AA89EFA0AB
:102F7000206C630F0516D6855685EFA050022A8A6D
:102F8000CA854A85EFA0B001AA855285EFA0702AB4
:102F9000EFB0200B2A8D4E85AE8DEFB0800A2A86C9
:102FA000AE86EF8000252A86AE866A85EE85EF80A4
:102FB0005017EFB0C013EF503070032A0401EFA098
:102FC0009063B3099A403385A940635F050A93056E
:102FD00000006685EFA0C065630F05106685EFB041
:102FE00040062A86AE862A8DAE8DEF8080202AC4C8
:102FF00052852EC6EFA01078EFB0A0042247B2474A
:103000002A86AE863A85BE85EF9020032AC42EC656
:103010006285E285EFA0A078EFB0A0022247B24718
:103020002A86AE863A85BE85EF90A04C2A8CAE8C5F
:103030005685D685EFA0A076EFB0A0002A86AE8692
:103040006285E685EF80E01AB717010003A687E1E5
:1030500083A6C7E12A8CAE8C6A85EE85EF80F07D71
:103060002A86AE866285E685EF80B00BEFB0200839
:10307000EF50104FEFA03058AA84635305008144ED
:10308000014563E34401D2849967739007808347C5
:103090000405E207E187B1E344C8AA94DE8504CCC5
:1030A0004A85EFA0C06FEF50B04BEFA0F05A9307E6
:1030B00080076374F50013058007DA8528C04A8508
:1030C000EFA0E06DEF50D049EFA0105993078007B3
:1030D0006374F5001305800768C0996793878708B4
:1030E0007390078041016FD06F951305000085B57F
:1030F00013050000C9B5130500009DBFEFD24F9323
:103100004111AA842E8532C6EFA060692A84A68563
:103110002685EF9030703246B285EFA04068AA85D0
:103120002285EFA01011EF60A00641016FD08F92B1
:10313000ADC925CAEFD22F8E2E8403A9C50208542B
:10314000B284CA85EFA0C04E21C183479403B9E77A
:1031500003AA84024A85D285EFA040536350A0049D
:1031600048581058B7090080D28533453501EFF033
:10317000FFF8AA854A85EFA0C05963590500485455
:1031800008D48547230CF4026FD02F8C4858105870
:103190008C5433453501EFF07FF6DDB7232424034B
:1031A000CDB78280EFD22F879387018D982319673F
:1031B0007310078003C9118D130787081379F90F5E
:1031C00073100780982333072741318B0DCF80235D
:1031D000014675143D888149138A012E930A4005E2
:1031E000630324036204618411E041447D14137479
:1031F000F40FB3045403CE85D2942685EFF05FF329
:103200004E86A689F1BF6FD04F8435C5834795039D
:10321000BDE3EFD24F80032A850283A98502AE84E5
:103220002A84CE855285EFA0C04E635B05024858C4
:10323000105837090080D28533452501EFF01FEC87
:10324000AA854E85EFA0E04C635E0500805488544B
:10325000A285EFA0E03D09C5854780D4238CF40208
:103260006FC0BFFE485810580C5433452501EFF08D
:10327000FFE82A84E9BF8280EFC2FFF903C4118D01
:1032800081441374F40F01459389012E930A40057C
:10329000414B9387018D9C236304F402330954034B
:1032A00005046204A68561844E994A86EFF0FFF515
:1032B00063136401014426851374F40FCA84D1BFDB
:1032C0000146A685EFF07FF46FC03FF8EFC2DFF351
:1032D00083C4118D4111E204E18401449389012EDC
:1032E000130A4005C14B9387018D9C236389F40425
:1032F000338944034E9905CC8347840381E7834790
:10330000890395C7B3874403832A4402D685CE97A1
:103310008857EFA0C0062AC60854D685EFA020061D
:103320003246AA852285EFF05FBB230C0402850498
:10333000E204E1846393740181444A846DB70DCC47
:1033400044502685EFA0F04FB71701002A86AE86BD
:1033500003A507E283A547E2EF80A05CEFA0305908
:103360002AC60854A685EFA080013246AA85228588
:10337000EFF0BFB6230C040241016FC07FECEFC237
:103380003FEBEFF03FE2EFF03FEFEFF03FF46FC0C5
:103390007FEC2388018CA388018CB71700209387CA
:1033A000072623A0070023A2070023A4070023A6C3
:1033B00007009387012B1307000098C3D8C398C751
:1033C000D8C723A4E18C82809386118D1387018D49
:1033D0008C2210231376F60F630BB6009C2293F712
:1033E000F70F14236385D7008507BD8BDDBF82806F
:1033F000EFC21FE1BA8C3E8B9387018D9C235971DC
:103400001387018D8507E207E1873EC63ACA324736
:10341000C147AE8BB28936896313F70002C6938722
:10342000118D9C233247631BF7002AC8EF40D078E8
:10343000EF10405EEFE04F884245D5B79384012DF1
:103440008C40084137040100138A012DEFA020357C
:1034500083250463EF90103CEF501026EFA0B019C5
:10346000CC40AA8A03A50B00EFA060338325046338
:10347000EF90503AEF505024EFA0F0178C44AA8BF5
:1034800003A50900EFA0A03183250463EF909038D5
:10349000EF509022EFA03016CC442A8C032509006F
:1034A000EFA0E02F83250463EF90D036EF50D020BB
:1034B000EFA07014B717002013870726584722C8BB
:1034C0003ED42A89938907266304E50A83C7018AC3
:1034D000138701968A07BA978C4303A58181EFA0D1
:1034E000E01A6356A002370501001305856023A684
:1034F0002901EF50006837150100130585DDEF50F5
:10350000406737150100130585F7EF50806683A7E4
:10351000C900B307F94013D5F741A98F3385A740F8
:10352000EFA0F018B717010083A587802A84032530
:10353000CA00EFA0C026AA85EF90D02DAA852285CB
:10354000EFA0C0146356A002370501001305856083
:1035500023A62901EF50E06137150100130545DF6F
:10356000EF50206137150100130585F7EF506060BB
:10357000D24713074005802383A509009387012EB6
:103580001374F40F3307E4029384012EBA9723884F
:1035900007042380070263D5BA0005472380E702AA
:1035A00003A5490063DDAB00130740053307E402C0
:1035B00026978347070293E727002300F70283A695
:1035C0008900635DDC00130740053307E40226979A
:1035D0008347070293E747002300F70203A7C900C8
:1035E000635DE900130640053306C402269683474F
:1035F000060293E787002300F602B387BA4013D68A
:10360000F7413348F6003308C8403386AB40935740
:10361000F6413D8EB306DC401D8E93D7F641BD8E3C
:103620003307E9409D8E9357F7413D8F1D8F83A748
:10363000C18093084005B30814033307F7029307CA
:103640004006A69823A0080123A2C80023A4D800FE
:10365000B347F702368723A6F80063D3F6003E8708
:103660006347C7786346070163D5D700B68711A0C3
:10367000C287130740053307E402954626971CCB03
:1036800063FBF65C83A7818A7CC783470B00A3009A
:10369000F7026388BA000146C14537150140EF4083
:1036A000101493074005B307F402A697DC4399C7AB
:1036B0000146C14537150140EF40701293074005A0
:1036C000B307F402A6979C4799C70146C145371531
:1036D0000140EF40D010130B4005330B6403269BD1
:1036E0008327CB00639C075603AB818EE6855A8502
:1036F000EF90D0796343A000668B03A50900338562
:10370000AA40EFA0C07A83250A00EF905047AAC8CC
:103710002AD003A549003385AB40EFA0407983252B
:103720004A00EF90D045AACA2A8D03A58900330527
:10373000AC40EFA0C07783258A00EF905044AACC1C
:10374000AA8C03A5C9003305A940EFA040768325C4
:10375000CA00EF90D042AA8903A5C180EFA02075CE
:10376000AA854E85EFA0A003B717010083A5878027
:10377000EF90F04093074005B307F402AACE154737
:103780008256A69790436368C74ED0436365C74E81
:1037900090476362C74E0605058188DB93074005A5
:1037A000B307F402370A010003258A64A69783ACA5
:1037B0000703E685EF90B03CDA85EF90507ED24764
:1037C0001387118D9C23182352D0AA89998F93F7C0
:1037D000F70F13FBF7003ECC1307EBFF954763ECA5
:1037E000E706EFA01006B71701002A86AE8603A5EC
:1037F00007DC83A547DCEF80C012B717010003A6E2
:1038000087DA83A6C7DAEF70D01EEF50E03FEF9063
:10381000604C2A8A03A5418E637FAA023305454185
:10382000060533556503EFA0E074C24783A507631F
:10383000EF90407EEF5040682AD25285EFA080730F
:103840009255EF90207DB7170100AA8503A587DB6D
:10385000EF90F032AA89130A4005330A4403CE855B
:103860006685EF90D073AA8D014D269A2322AA0275
:1038700003250A01EFA00070CE852A8BEF903072ED
:10388000EF50004EEFA0405D825737070080232E97
:10389000AA0203AA87649347F7FF371700203ED692
:1038A000930707252AD23ED89C083387A7010C43EB
:1038B0004E85EF90D06E9C103387A701B25708C396
:1038C0003377F500C257BA853ADEB386A701944232
:1038D000368536DCEF90F06363500502E25672578E
:1038E0003685BA85EF90B029D2852ADCEF90105A40
:1038F0006344A00062573A8A110DC147E316FDFAEE
:103900008257528583A58764EF90B06063540504A5
:103910009309010603A50900D2859109EF9030684B
:1039200023AEA9FE9C18E39737FF93094005B3091E
:103930003403D2856E85EF909066A69923A2A902E2
:103940001255EFA02063D285EF907065EFA0C050B4
:1039500023AEA902130A4005330A4403E6855A85BB
:10396000EF90F021AA89269A832D0A0063930D34E3
:1039700083274A00639F073283278A00639B0732AD
:1039800083A5C18EEF90B061EF50803DEFA0C04C99
:103990002324AA04130A4005330A4403269A032564
:1039A0008A04EFA0205DCE852A8BEF90501D232A3C
:1039B000AA025A85EFA0E068B717010003A687DCCA
:1039C00083A6C7DCEF806067EF90402AC247232EB2
:1039D000AA0003A5818D83A50763138D818DEF90C8
:1039E000105CC2472A8A03A5C18D83A50763A65C24
:1039F000EF90F05A93951C008581AA89EF90705141
:103A00009387C18D3ED263590500D2854E85EF90D4
:103A1000F0476343A0004E8AC24703A5418D83A5AA
:103A20000763365BEF90B05793151B008581AA8919
:103A3000EF90304E9387418D3ED663590500D28575
:103A40004E85EF90B0446343A0004E8A9307400533
:103A5000B307F402D285A69783A947024E85EF905B
:103A6000F0426343A0004E8AE2471387818CB98BF2
:103A70003AC8D289638C0712832907004E85EFA0CC
:103A8000405CB717010003A607DD83A647DDEF8082
:103A90008044635CA0349387012B8C430655EF90E0
:103AA0005079EFA0005A9387012B2AD82EDA1655A9
:103AB000CC43EF901078EFA0C0582A86AE86EF80F6
:103AC000C0574258D2582ACC4286C68642852ECE4E
:103AD000C685EF808056F24762472A86AE863A85D1
:103AE000BE85EF700071EF50005FEFA0406093075C
:103AF0004005B307F402032D0D00AA852AD86A8574
:103B0000A697DC533ECCEF90D040635C052C425727
:103B10006A85BA85EF90B0062A8D9387012B8C4772
:103B20006685EF9010719257931C150093DC1C0072
:103B30009C43E6853E853ED0EF90B03D635E050038
:103B40008257E6853E85EF909003EA85AA8CEF9038
:103B5000F0336343A000668D9387012BCC475A85D1
:103B6000EF90306DB257131B1500135B1B0083AC35
:103B70000700DA856685EF90D039635D0500DA8548
:103B80006685EF90C07FEA852A8BEF9030306343E3
:103B9000A0005A8DE2456A85EF9070402A8BAA8575
:103BA0004E85EF90103763430500DA89930740058F
:103BB000B307F402A697C85B23A63703905BB71739
:103BC000010083A5C7DBB70700803D8DEFF00FD361
:103BD000CE852A8BEF90902B6343A000DA89930760
:103BE00040053304F4025A85A294C05023A4340340
:103BF000A285EF90B0291345F5FF85477D814146A9
:103C0000A38CA402238CF4028C101385012BEFA04B
:103C1000006CC247A285528580C3EF9040762AC8C7
:103C2000A2854E85EF90A0754246AA852685EFF0C5
:103C3000CFAA52471C8641468C001CA3A257D6C06F
:103C4000DEC213850726E2C4CAC6EFA04068EFF0C3
:103C50000FF3EF00004465616FC04FDE0146C145C0
:103C600037150140EF40A0378327CB00E38E07A62E
:103C700003AB018EA5BCB6853685EF905032AA897C
:103C8000EA856A85EF90B031AA854E85EF9080383D
:103C9000AA89E6856685EF909030AA854E85EF90DB
:103CA0006037EF50E04E93074005B307F402A69744
:103CB000EDB4930C4005B30C940383A5C18C4E85E1
:103CC000EF90F02DEF50C009EFA0001903AA012CCE
:103CD000138D012CA69C23A4AC04EFA0A0292AD20A
:103CE0006E85EFA0C01C9257AA853E85EF90302BC1
:103CF000DA85EF90C068AA8D5285EFA0A027AA852B
:103D00006E85EF90B0186354A00023A44C05930C6B
:103D10004005B30C9403032A4D00A69C03A58C0414
:103D2000EFA04025AA8D03A54C00EFA04018AA855E
:103D30006E85EF90D026DA85EF906064AA8D52856B
:103D4000EFA04023AA856E85EF9050146354A00025
:103D500023A44C05930C4005B30C9403032ACD0017
:103D6000A69C03A58C04EFA0E020AA8D03A5CC009F
:103D7000EFA0E013AA856E85EF907022DA85EF90B0
:103D80000060AA8D5285EFA0E01EAA856E85EF9097
:103D9000F00F6354A00023A44C05930C4005B30C12
:103DA0009403032A8D00A69C03A58C04EFA0801C1D
:103DB0002A8D03A58C00EFA0800FAA856A85EF905D
:103DC000101EDA85EF90A05B2A8B5285EFA0801A37
:103DD000AA855A85EF90900BE35EA0BA23A44C0508
:103DE00055BE825703AD87640DBBD289C1B3E34191
:103DF0000689B2876FF0FF87EFC2EFC19384012D70
:103E000008412E8A8C40411136C432C63709010060
:103E1000EF90F01883250963B71900201384092651
:103E2000EF90401FEF504009EF90F07CCC4008C06D
:103E300003250A00EF90B01683250963EF90801DDB
:103E4000EF508007EF90307B32468C4448C00842E8
:103E5000EF90F01483250963EF90C01BEF50C0056D
:103E6000EF907079A246CC4408C48842EF9030139A
:103E700083250963EF90001AEF500004EF90B077AC
:103E800048C49306C40013068400930544001385B8
:103E90000926EF00F0171307000023A4E18C938795
:103EA000012B98C3D8C398C7D8C741016FC0EFB9D9
:103EB000EFC20FB883A5812D0841371400201304E9
:103EC0000426EF90D00DB707010083A50763EF909C
:103ED0006014EF40707EEF90107208C413058400E8
:103EE000EF0090156FC00FB7EFC28FB483A5C12D3F
:103EF00008413714002013040426EF90500AB70736
:103F0000010083A50763EF90E010EF40F07AEF9097
:103F1000906E48C41305C400EF00D0136FC08FB378
:103F200023ACA1808280EFC20FAF3719002001447B
:103F30009389012C130909249384012D414AB30765
:103F400089008843B38A8900EFA0C002B387840048
:103F50008C431104EF90B004EF90107023A0AA00DE
:103F6000E31F44FD6FC06FAE83C6018D83C7118D03
:103F700093F7F70F6388D70083C7118D8507BD8B33
:103F8000A388F18C8280EFC2AFAA9387618F9C23B4
:103F900093F7F70F1389618F9384718F1384818F47
:103FA00091EB9C2093F7F70F91E71C2093F7F70F05
:103FB0006385070C3705010013058560EF40703BF2
:103FC000371501001305C5E3EF40B03A83470900F8
:103FD00093F7F70F8DC7B717002003A50728EF90B9
:103FE000106D83A5012DEF908039EFA080052A8602
:103FF00037150100AE861305C5E4EF4090379C20CD
:1040000093F7F70F95C7B717002093870728C84382
:10401000EF90F06983A5412DEF906036EFA060022C
:104020002A8637150100AE86130545E5EF4070344A
:104030001C2093F7F70F95C7B71700209387072821
:104040008847EF90D06683A5812DEF904033EF90A5
:10405000507F2A8637150100AE861305C5E5EF406F
:10406000503137150100130585F7EF4090302300DC
:10407000090023800400230004006FC0AF9D238B40
:10408000018EA38B018E238C018E8280238EA180D2
:104090008280EFC2EF99854537050040EF1050460A
:1040A0006FC04F9B2967130707C49387018F636D08
:1040B000A7041567130707E2AA856379A704898116
:1040C000114737450F00130505243345B50298A362
:1040D000930730064205418163E5A704EFC24F957F
:1040E000371501004111130585E22EC6EF407028F7
:1040F000B24537150100130585B5EF40902713052C
:10410000400641016FC00F95BA8555BF0967130777
:1041100007716376A7009355150009475DB70547FA
:104120004DB78280797185453705004022D626D467
:104130004AD24ED052CE56CC5ACA5EC862C666C467
:104140006AC26EC0EF10703F6303054485453705B2
:104150000040EF10104083A741921384419299EFE1
:1041600083C6018D83C7118D93F7F70F6398D72E00
:104170009305007D37050040EF10303B1C406388FD
:10418000074083C707022388F190858B1389C1906C
:104190009389019193840182638C073205469305CC
:1041A000000237150140EF309063FD579CA083C794
:1041B000C181A1CB3715014093050008130505C047
:1041C000EF10206783C6C185938741903387A6404F
:1041D0003337E0006386A60294239DC214409042C8
:1041E0006350C0023716002083250627944A3716ED
:1041F00000202320B6288545238BB18E2320D900AB
:1042000098A383C70900898B638E072C371A014056
:1042100005469305000413050A80EF30505CFD57F6
:104220009CB083C7C181A1CB9305002013050AC0B0
:10423000EF10206083C6D185938751903387A640C5
:104240003337E0006388A60294238DC610405442A1
:104250006352D002B716002093860627CC42B716C9
:10426000002093860628CCC28545A38BB18E144AC4
:104270002320D90098A383C70900918B6380072866
:10428000371A01400146916513050A80EF30305519
:10429000FD57BCA083C7C181A1CB93050040130586
:1042A0000AC0EF10005983C6E18593876190338778
:1042B000A6403337E0006388A60294238DC61040E1
:1042C00014466352D002B7160020938606278C4608
:1042D000B7160020938606288CC68545238CB18EA0
:1042E000144A2320D90098A383C70900A18B6382B5
:1042F0000722371501400546854513050580EF3037
:10430000104EFD57B7190140BCB0014A938B09C04C
:10431000B71A00208387018F18406356FA209387CD
:10432000819194431843369798C3635BE002054636
:1043300091455E85EF30B04A144093878191984350
:10434000944A01469145158F98C39C2013870A27EC
:104350001443E207E187B6975E851CC3EF3030480F
:1043600018409387C19194435843369798C3635F2D
:10437000E00205469305000813850980EF303046BA
:1043800014409387C1919843944A014693050008CD
:10439000158F98C39C3013870A275443E207E1879F
:1043A000B697138509805CC3EF307043184093873C
:1043B000019294431847369798C3635DE00205461F
:1043C000C14513850980EF309041144093870192D5
:1043D0009843944A0146C145158F98C3BC20138762
:1043E0000A271447E207E187B697138509801CC79F
:1043F000EF30F03E184093874191944358473697E9
:1044000098C3635DE0020546894513850980EF3056
:10441000103D1440938741919843944A0146894541
:10442000158F98C3BC3013870A275447E207E187EA
:10443000B697138509805CC7EF30703A832709006F
:10444000184085072320F90083270900184B63FCD7
:10445000E70C050A620A135A8A416DBD03C7118D24
:1044600093074005B387E70237170020130707D0EB
:10447000BA97CA3F05472388E7042388E7041CC08E
:1044800023A00190EFF01FC22399A18E0387018F13
:104490002394E1901C4003D50704239AA18EEFF0EA
:1044A0007FC023AEA18EAA8537050040EF10F0072C
:1044B0001C409C4B8583B307F04023ACF19023AEA6
:1044C000F19023A0F19223AAF19023A601907DB14F
:1044D00001469305000237150140EF305030854703
:1044E0009CA005B337150140014693050004130550
:1044F0000580EF30D02E85479CB0B5BB3715014005
:104500000546916513050580EF30702D8547BCA0E9
:10451000E1BB371501400146854513050580EF30A5
:10452000102C8547C5B3184083270900544B63EF0F
:10453000F606504F83A6C18F9384C18FB387C602FE
:10454000B396C602E183505FA206D58F3443B69777
:10455000C207C183239AF18E1387418F6373F600DC
:1045600012A30A23EFF01FB4AA89AA8537050040D9
:10457000EF10A07B88404E9588C018408327090023
:10458000184B63E6E70023200400EFF0FF9D325450
:10459000A25412598259724AE24A524BC24B324CCF
:1045A000A24C124D824D45617300203083270900D3
:1045B000144F63F2F604544F83A701907843938419
:1045C00001903385D702B397D7026181A2075D8D31
:1045D0009317050103D5418FC183637BF500131544
:1045E00007014181E370E5F81315070141819DBF83
:1045F0001D8D4205FDB783D5218F37050040EF1093
:10460000C07283D781901387018F1CA3BDB7EFB20F
:104610003FC201112A8485450545EF108047930765
:1046200030024C08370500403ECAE084231D0100DB
:10463000EF1060620546854537050040EF10C06DFC
:104640009307C0127C8685475C87680085473EC813
:10465000EF10802005616FB0FFBFEFB27FBD930503
:1046600000023715014037140140EF30901A13054E
:10467000048093050004EF30D01913050480916580
:10468000EF303019130504808545EF309018C1458F
:1046900037150140EF30F0170546C1453715014089
:1046A000EF30F013C14537150140EF309016054645
:1046B000C14537150140EF309012C1453715014013
:1046C000EF3030150546C14537150140EF30301148
:1046D000C14537150140EF30D0130546C1453715A8
:1046E0000140EF30D00F130504C093050008EF30F0
:1046F000D0140546130504C093050008EF30300EB2
:10470000130504C093050020EF3030130546130550
:1047100004C093050020EF30900C130504C09305EE
:104720000040EF3090110546130504C0930500408A
:10473000EF30F00A130504C09145EF30900D1305DA
:1047400004C001469145EF3090090546C145371533
:104750000140EF30D0081305048093050008EF30C6
:10476000500B13050480014693050008EF30300715
:104770000546C14537150140EF307006130504802A
:10478000C145EF301009130504800146C145EF30E3
:1047900010050546C14537150140EF30500413059B
:1047A00004808945EF30F0061305048001468945F1
:1047B000EF30F0020546C14537150140EF303002B9
:1047C00013054006EFF0BFE4854537050040EF10C4
:1047D00020530547238EE18099679387870873905C
:1047E00007806FB03FA7EFB2BFA403C7018D83C797
:1047F000118D93F7F70F6395E70083A7419299C74F
:10480000EF30903B012CEFC03FCBC5B76FB09FA4FA
:104810001967731007800841B7170020938707278F
:1048200088C38C4113078708CCC3104290C79442B9
:10483000D4C77310078082809967739007801441F2
:10484000371700201307072714C79387870873902B
:104850000780828099677390078014413717002082
:104860001307072754C793878708739007808280B0
:1048700099677390078013172500371500201305DB
:1048800005273A95084193878708739007808280AF
:10489000EFB21F9AEFF03FF50546C14537150140CD
:1048A000EF30E0730546C14537150140EF30207306
:1048B0000546C14537150140EF3060720546C145D8
:1048C00037150140EF30A0716FB0DF98EFB25F96FF
:1048D000814537050040EF10A04203C7018D83C713
:1048E000118D93F7F70F639BE7008545370500406F
:1048F00023A20192EF10C0406FB0DF95EFF0CFE63A
:10490000E9BFEFB2FF9283A5C182B717010003A5EB
:104910000712EF80D02623ACA1926FB0BF936355EE
:10492000050003C54193828093870195AA97882348
:104930008280EFB25F8E41112A849DC53705010048
:10494000130585682EC6EF40C022B2453715010019
:10495000130585BFEF40E02137150100130585EAF7
:10496000EF402021EFC0DFAE456793064712854731
:10497000130747127D4683994600635E340593868C
:10498000F7FF8A068A07BA96BA978394260003959A
:10499000270003990600058DEF9060512A8A3305A0
:1049A0002441EF90C050AA855285EF80505F2A8441
:1049B00033852941EF90A04FAA852285EF80301CD6
:1049C0002A842685EF90A04EAA852285EF808064F8
:1049D00041016FB09F8785079106E39EC7F81305D5
:1049E0000000FDB7EFB2DF8403A5C1968145EFF06B
:1049F0005FF423A0A1961307000023A2E196996714
:104A000073900780238001949387870873900780B1
:104A10006FB05F8483C7019493F7F70F638C071A15
:104A2000EFB28FFEEFF01FFC83A4019603A901975C
:104A3000138441954A85EF908047A685EF80707F6B
:104A4000B717010083A58783AA89EF80304463529A
:104A5000A00685471CA0B717010003A4071203A5F1
:104A6000C19413890195EF908044A685EF80704A28
:104A70006359051403A58183EF906043A685EF80F9
:104A8000F0406350A0142285EF90E03605852300A6
:104A9000A90093874194984383A6C198998E05678E
:104AA000130777BB6375D70003A7C19898C36FB08E
:104AB0002FF9B717010083A587044E85EF80704555
:104AC000634405006317090085471CA01304000018
:104AD00079B71C201389C19299C79307000023203E
:104AE000F9002300040083A501834E85EF80304B3D
:104AF000832509002A8A4E85EF80C05103A4C19303
:104B0000AA89A285EF80F040634B050003A481933E
:104B10004E85A285EF8090376343A0004E8483A525
:104B2000C182232089002285EF80704713848192FF
:104B30000C40AA8A2685EF80D06F83A581821389D5
:104B40008194EF80D045EF90C04FB717010003A6C6
:104B5000070583A64705EF70404E2A8B0325090001
:104B6000AE8BEF90004EB717010003A6870583A612
:104B7000C705EF70804C2A86AE865A85DE85EF60C9
:104B80004067EF90C056AA892320A90004C0D685AB
:104B90005285EF802048CE85EF80B06993050000F4
:104BA0002A84EF801037E34305F2B717010003A909
:104BB00007122285CA85EF80702DE352A0EA4A844D
:104BC00079BD371501001305050623000900EF30F4
:104BD000507AC1B58280EFB2AFE51307000023AE73
:104BE000E19283A5C182B717010003A50712EF80E8
:104BF000007923ACA192914537150140EF30604117
:104C00000146894537150140EF30003EEF30204D19
:104C1000595723A6E194B717010003A98704138409
:104C2000418308408145EFF0DFD0CA85EF80702EC8
:104C3000635605001C40C1171CC0D5B71307A00F51
:104C400023ACE182B717010003A9C71113840193B4
:104C500008408145EFF0FFCDCA85EF8030236356D1
:104C6000A0001C40C1071CC0D5B76FB0AFDE82806A
:104C7000EFB20FDC23A8019623AA019601469145C5
:104C80003715014023880194EF3060356FB08FDC19
:104C9000EFB20FD7397183AAC19832CA854763DB57
:104CA000B70037150100130505EEEF30906C216158
:104CB0006FB0CFD8AA8C371501001305C5F0AE84AC
:104CC000EF30306BEFF0DFFA63D90414130700F80C
:104CD000238AE192130C0008B717010083AB87EC1D
:104CE000B717010003A8C7E183A787E1130B0000F2
:104CF00042CE3ECCB717010003A847ED83A707EDCE
:104D0000628442D23ED0B717010003A8C7DA83A756
:104D100087DA628A42D63ED4B717010003A8C7EDEE
:104D200083A787ED56C456C802C6054D02C2DA896C
:104D30003ED842DA83CD019493FDFD0F63800D28A8
:104D4000EFF05FCA63C4040E9397240013870196A3
:104D5000BA9783A90700CE855A85EF803013634345
:104D6000A0004E8BCE855E85EF80B01A63430500B0
:104D7000CE8B63010D04E6854E85EF803011635FB5
:104D8000A022A24703A7C1981D8F85679387873804
:104D900063F6E722B3078A40858793F7F70F63DA54
:104DA0000408238AF19283AAC198A247668BB3872D
:104DB000FA403EC6E6854E85EF80B015014D635F33
:104DC000051E03A7C1988567938787383307574126
:104DD000014D63F5E71E83A7C1983EC49247635116
:104DE000F01CA2473247B3875741338DE700B30722
:104DF000F74033848702CD473344A403529463D0F1
:104E0000871E63DA04289307C00E63C987029307DD
:104E1000F00F228A63488C020DA893870195A6970C
:104E20001307F00798A3130CF0077DB583A94196EB
:104E30001DB71387019526971CA3B5B71304C00EA1
:104E40009307F00F228A3384874037150100D285FB
:104E5000130505F2EF30F05137150100A285130557
:104E600005F3EF3010515E85EF90A01D2A863715AF
:104E70000100AE861305C5F3EF30B04F5A85EF90B1
:104E8000401C2A8637150100AE86130585F4EF30E5
:104E9000504E1247894763D5E7106A85EF9020018D
:104EA000B707010083A5C762EF80604D2A8D228578
:104EB000EF7010686246F246EF7020182ADC2EDE92
:104EC0005A85DE85EF80F036EF90A0170256925695
:104ED000EF70A0162256B256EF7020166257F257A6
:104EE0002A86AE863A85BE85EF60B023EF902020FB
:104EF000EF9020152A862ADC37150100AE861305AF
:104F000045F52EDEEF30F0466A85EF9080132A8655
:104F100037150100AE86130505F6EF309045625750
:104F2000F2574256D2563A85BE85EF700011EF9087
:104F3000001CAA8B371501001305C5F6EF3070432E
:104F40005E85EF9000102A8637150100AE861305A6
:104F5000C5F7EF301042DE855E85EF80A00BEA8555
:104F6000EF80E041EF90E00D2A8637150100AE8614
:104F7000130585F8EF30F03FDE856A85EF8030025B
:104F8000B717010083A5C7ECEF807001EF90600BAD
:104F90002A8637150100AE86130545F9EF30703DBE
:104FA000B3078A00858793F7F70F63DD0402238A2E
:104FB000F1929247E68B6E8D85073EC2B7170100CE
:104FC00083A5C7836685EF80E004CE85EF8060749B
:104FD000635F050037150100130505FAF9B1514A61
:104FE0005144A5B51387019526971CA3D9B742470D
:104FF00083A7C198998F1307007D6377F70463D95E
:10500000040683CD4193371501001305C5FCEF302D
:1050100050364E85EF90E0022A8637150100AE86A5
:10502000130585A1EF30F03437150100130505890C
:10503000EF30303437150100EE85130585B5EF30BC
:10504000503383A7C1983EC883A7C19803A7C198CE
:10505000BA972247B3875741998F375712001307E2
:1050600007F86371F70237150100130545FD35B9DF
:1050700093870195A6973715010083CD0700130587
:10508000C58771B792475247E356F7CA37150100F3
:10509000130545FF19B99307B00E63D787001304B2
:1050A000B00E9307E00F79BB9307E00F9DB3EFB20B
:1050B0002F982A84EFF0DFBBEFC04FCB05E5370513
:1050C000010013058568EF30D02A37150100A2854D
:1050D000130585BFEF30F029371501001305C5070B
:1050E000EF303029EFC00FC56FB0CF96EFB24F94BD
:1050F0002A84EFF0FFB7EFC06FC705E53705010061
:1051000013058568EF30F02637150100A2851305D9
:1051100085BFEF301026371501001305C50AEF30A3
:105120005025EFC02FC16FB0EF92EFB26F90EFC07C
:10513000EFC309ED3705010013058568EF307023D3
:10514000371501001305C50DEF30B022EFC08FBE3B
:105150006FB04F90411122C63704004085451305BA
:10516000044026C44AC2EF00503D6309050E1305F2
:1051700004408545EF00F03D83C7C1831384C1839C
:1051800093845195C1E783C701959CA095EB014697
:10519000914537150140EF2090641C201D4785077D
:1051A0001CA083C771959384619513847195636A7C
:1051B000F70E45678A07130747E6BA979C4382872D
:1051C0000546914537150140EF2070610146914534
:1051D00037150140EF20B060054691453715014075
:1051E000EF20F05F3729014001468545130509800E
:1051F000EF20F05E0546854513050980EF20305EFF
:105200000146854513050980EF20705D98201C201C
:10521000E3E5E7F8ADBF2D45EF20F04D85471CA035
:105220009820BD4763FCE7021387019410239386FF
:1052300001941376F60F138781959387C19519E62C
:105240000C4323A6B1968C4323A4B196054690A2A5
:10525000238004002320070023A007003244A24437
:1052600012494101730020303725014013050540E4
:10527000ED2993878195984309852A9798C3894793
:1052800079BF8D4769BF914759BF954749BF994736
:1052900079B79D4769B79C202300040085079CA02F
:1052A00041B73705010013058568EF30900C3715BD
:1052B0000100130545E8EF30D00B9DB7EFA25FF773
:1052C000EF803058B717010003A607EA83A647EA24
:1052D000EF60B056EF80B0616FA0DFF7EFA25FF52F
:1052E000EF803056B717010003A607EA83A647EA06
:1052F000EF602063EF80B05F6FA0DFF5EFA25FF398
:10530000EF803054B717010003A607EA83A647EAE7
:10531000EF602061EF80B05D6FA0DFF3EFA25FF17F
:10532000EF803052B717010003A607EA83A647EAC9
:10533000EF60B050EF80B05B6FA0DFF17300203002
:10534000EF20C052AA85371501001305051AEF306A
:105350005002EF200052AA85371501001305051BE6
:10536000EF303001EF202050AA85371501001305DA
:10537000051CEF30100001A0B71702409843B70694
:10538000FFF841111367170098C3D843370602008E
:10539000758FD8C39843B706F7FEFD16758F98C36F
:1053A0009843B706FCFFFD16758F98C3D843B70620
:1053B00081FFFD16758FD8C39843B70600ECFD1624
:1053C000758F98C33707FF0098C723A6070202C44A
:1053D00002C69843C166558F98C3B7160240056749
:1053E0009C42F18F3EC6A24785073EC4B24781E783
:1053F000A247E397E7FEB71702409C431397E700E5
:105400006357070685473EC632478547631FF70443
:10541000B7170240D843B706C1FFFD16D8C3D8431B
:10542000D8C3D84313670740D8C3D843758FD8C3B0
:10543000D843B7061D00558FD8C39843B70600015F
:10544000558F98C3984393166700E3DD06FED84353
:10545000B7160240719BD8C3D84313672700D8C33F
:105460002147DC42B18BE39EE7FE4101828002C608
:1054700061BF01A001A001A001A001A001A001A0A5
:1054800001A001A001A001A001A001A001A001A014
:1054900001A001A001A001A001A001A001A001A004
:1054A00001A001A001A001A001A001A001A001A0F4
:1054B00001A001A001A001A001A001A001A001A0E4
:1054C00001A001A001A001A001A001A001A001A0D4
:1054D00001A001A001A001A001A001A001A001A0C4
:1054E00001A001A001A001A001A001A001A001A0B4
:1054F00001A001A001A001A001A001A001A001A0A4
:1055000001A001A001A001A001A001A001A001A093
:1055100001A001A001A001A001A001A001A001A083
:1055200001A001A001A001A001A001A001A001A073
:1055300097B1FF1F9381014F17B10020130181AC78
:1055400017D500001305C5C397B5FF1F938585AB1D
:105550001386818663FAC5008322050023A05500C7
:1055600011059105E3EAC5FE1385818697C5FF1FE6
:105570009385C5FA6377B500232005001105E36D17
:10558000B5FEFD42739002BCAD4273904280B7629B
:1055900000009382820873A0023097B2FFFF9382CB
:1055A000E2A993E2320073905230EFF0FFDC97D221
:1055B000FFFF938262FD7390123473002030EFA2DC
:1055C0003FC7B727014093870740631CF500854517
:1055D00013050020F129814513050020D1296FA072
:1055E0007FC7B737014093870780E31AF5FE8545EB
:1055F000130500407529814513050040C5B75C417E
:105600003707F1E01307F7EF944D7D8F9C41D58F5D
:10561000D44DD58FD441A206D58FD98F5CC11C45FE
:1056200037F7F1FF1307D77FD4457D8F9C49D58F7E
:1056300094458606D58FD98F1CC55C55370710FF5A
:105640007D177D8FDC29FD1793F7F70FD207D98FD0
:105650005CD582801C4589C593E717001CC58280F4
:10566000F99BEDBF1C4589C593E707101CC58280D7
:1056700093F7F7EFE5BF1C4593E787001CC58280D1
:1056800008450D81058982801C4593E747001CC5AC
:10569000828008450981058982801C4591C53707AC
:1056A0005000D98F1CC582803707B0FF7D17F98F56
:1056B000D5BFA54763F7B7048D47138765FF330749
:1056C000F7020328C5009D47B397E70093C7F7FF8C
:1056D000B3F70701B396E600DD8E54C5994763E33F
:1056E000C70495477D163306F6025859FD47B39710
:1056F000C70093C7F7FFF98F3396C5005D8E50D969
:1057000082800D473387E502032805019D47B39743
:10571000E70093C7F7FFB3F70701B396E600DD8E06
:1057200014C96DBFB14763E2C702954765163306DA
:10573000F6021859FD47B397C70093C7F7FFF98FD3
:105740003396C5005D8E10D9828095474D1633067D
:10575000F6025855FD47B397C70093C7F7FFF98F77
:10576000B395C500DD8D4CD58280684542054181E9
:1057700082809C4513F7070113F8F70001C7D84151
:105780003368E8008E2113F7F50F39C318418146BD
:10579000854E3D4F930F800293028004214E339635
:1057A000DE00B3F8C5006311160393982600331387
:1057B0001F011343F3FF3377E300B318180133E7F6
:1057C000E800639FF70550C98506E39AC6FD18C136
:1057D0001307F00F6375B70454412146854E3D4FC2
:1057E000930F800293028004414EB398CE0033F7AA
:1057F00015016392E8021317260001173313EF0017
:105800001343F3FFB376D3003317E800D98E639DBB
:10581000F701232A15010506E319C6FD54C182804C
:10582000E39457FA10C94DB7E39757FE23281501A3
:10583000DDB708456D8D3335A00082800CC98280AC
:105840004CC98280AD67373700409387A7AA1CC335
:10585000828023ACA19682809387819794431821FC
:1058600081E63C21920721A894430546639FC60226
:105870003C21103192076314D60093E707F8B7E68E
:1058800000E093F7F70FBA962380F64085469357CA
:1058900057003397E6005441A5C2938707048A074F
:1058A000B7E600E0B69798C382808C43894663913F
:1058B000D50214313C216365D6008A06B6975DB7E0
:1058C0009386E6038A06B69793F7F70F920775B7A4
:1058D00090438D46631CD60014313C216364D6008E
:1058E0008606E9BF9386C6078606F1BF94439147B3
:1058F000E39EF6F81C31BDB7938707064DB73717FF
:1059000002405C439146B18B6385D700A146638218
:10591000D706B7177A00938707201CC137160240B5
:105920005C4237070020130707049183BD8BBA97A9
:1059300094231C41B3D7D7005CC15442A1829D8AF5
:10594000BA969422B3D6D70014C55442AD829D8A2C
:1059500036971823B3D7E7005CC55842398393764E
:1059600037001387418436971823B3D7E7021CC941
:1059700082805C435843C166C983758FB7F6FF1FA9
:1059800083A6C670BD8B890713961601634806006F
:10599000C54601466392D702C94739A88946638F35
:1059A000D702BD46638ED702C146638ED702C54675
:1059B00001466393D700C1471DEF374702400327D5
:1059C0000780418B05C737177A0013070720B307F5
:1059D000F7021CC121D61C41858381B701466DBFEA
:1059E0000546B547D1BF0146BD47F9B737173D005A
:1059F00013070790E9BFB7150240D8559316F70073
:105A0000D85563DF060411833D8B930617003717C3
:105A10007A00130707203357D70218C1D455A18243
:105A2000BD8A8DE295463307D702058318C1371723
:105A30000240585714413D8B050733D7E60218C181
:105A4000184171B785456394B600E546E9BFBD4589
:105A50006396B600D1463387E602C9BF8906E5BF23
:105A60003D8B9306170037177A001307072033572B
:105A7000D702F1B799C5371702401C4F5D8D08CF8B
:105A80008280B7170240984F1345F5FF798D88CF74
:105A9000828099C5371702405C4F5D8D48CF828068
:105AA000B7170240D84F1345F5FF798DC8CF8280D4
:105AB00099C5371702405C475D8D48C78280B7178C
:105AC0000240D8471345F5FF798DC8C7828099C534
:105AD000371702401C4B5D8D08CB8280B717024000
