:100000006F50A05313000000130000001300000005
:100010001300000013000000130000001300000094
:100020001300000013000000130000001300000084
:08003000130000007300100032
:100038000000000000000000465300004A53000082
:1000480000000000805400000000000000000000D4
:1000580082540000845400000000000000000000EA
:100068006E800000000000008854000000000000BE
:10007800948300008C5400008E54000090540000BB
:1000880092540000945400009654000098540000C4
:100098009A5400009C5400009E540000A054000094
:1000A800A2540000A4540000A6540000A854000064
:1000B800AA540000AC540000AE540000B054000034
:1000C800B2540000B4540000B6540000B854000004
:1000D800BA540000BC540000BE540000C0540000D4
:1000E800284100005E510000C6540000C8540000BA
:1000F800CA540000CC540000CE540000D054000074
:10010800D2540000D4540000E0810000D85400000C
:10011800DA540000DC540000DE540000E054000013
:10012800E2540000E4540000E6540000E8540000E3
:10013800EA540000EC540000EE540000F0540000B3
:1001480000260000F4540000F6540000F8540000A3
:10015800FA540000FC540000FE5400000055000052
:10016800025500000455000006550000085500001F
:100178000A5500000C5500000E55000010550000EF
:1001880012550000145500001655000018550000BF
:100198001A5500001C5500001E550000205500008F
:1001A800225500002455000026550000285500005F
:1001B8002A5500002C5500002E550000305500002F
:1001C80032550000345500003655000038550000FF
:1001D8000000000000000000000000000000000017
:1001E8000000000000000000000000000000000007
:0801F8000000000000000000FF
:10020000397101436EC619A0397141536AC866CA73
:1002100062CC5ECE19A0397101535AD056D252D455
:100220004ED64AD826DA22DC06DE330161408282CD
:1002300041114AC026C222C406C68282B24D410183
:10024000024D924C224CB24B4101024B924A224A3F
:10025000B2494101024992442244B24041018280A4
:100260003D432A876373C3029377F700BDEFADE583
:10027000937606FF3D8ABA960CC34CC30CC74CC795
:100280004107E36BD7FE11E28280B306C3408A06C2
:100290009702000096966780A6002307B700A30682
:1002A000B7002306B700A305B7002305B700A304D2
:1002B000B7002304B700A303B7002303B700A302CA
:1002C000B7002302B700A301B7002301B700A300C2
:1002D000B7002300B700828093F5F50F9396850051
:1002E000D58D93960501D58D61B79396270097021A
:1002F000000096968682E78086FA9680C1171D8F49
:100300003E96E374C3F8A5B70100010001000100A7
:10031000010001000100014582803307C5009307F9
:10032000001063C7E702EFF21FEF3289AE89AA849B
:10033000014493170401C18363FE270133878900B9
:10034000A6970C231395070141817D3F0504D5B77E
:10035000014582800545D5BD010001000100010075
:10036000010001000100010001000100014582803F
:10037000EFF21FEC4111AA840144931704012EC629
:10038000C18332C463FEC700338584001375F50F43
:10039000E137B2452246B387850088A30504F1BF43
:1003A0000545410145BDEFF21FE72A89AE8432843D
:1003B0009309F00F371A0100B71A01007D14137466
:1003C000F40F630B34038C2003550900353F0345BC
:1003D000090059379C20638AA7001305CAA6EFC0FD
:1003E000B05D13854AA7EFC0305D832709008504FF
:1003F00085072320F900D9B789BDEFF27FE32E9658
:100400004111AA841374F60F88202EC6B137B24565
:1004100088A19C40850585079CC093F7F50FE315DF
:10042000F4FE410105BDEFF2BFE07971C5651384AB
:10043000C5A341469385C5A30A85EFC0D04C41466C
:10044000930504010808EFC0104C414693050402CF
:100450000810EFC0504BB716002037170020814717
:100460001386012D9386062513070724C1453308FB
:10047000F100032808003385C70000082320050188
:100480003308F400032808003385D7000010232028
:1004900005013308F400032808003385E7009107BD
:1004A00023200501E395B7FCEF303028B717010092
:1004B00083A707A91306000023A6F18C23A6F18EBB
:1004C00037170100032747A9B716010023A0E18EC3
:1004D0009567938707E223A2F18E23A4C18EB717F5
:1004E000010083A787A983A6C6A923ACF18C23AEFC
:1004F000D18C23AAF18C138781B210C750C3371750
:100500000100032707AA23A4C1B223A8E182B717D9
:10051000010003A547AAEF40105B23A6A182B717ED
:10052000010003A587AAEF40105E23A4A182EF403B
:10053000803D371701000327C7AA371501001305AF
:10054000C5A623A2E182EFC030473715010013058D
:1005500005ABEFC070464561F5B9EFF27FCA9385F0
:10056000C11F131425009388C50013888500138AC2
:100570004500C6864286338B8500AA899307000012
:10058000D2851385C11F2320FB00EF303007B7074A
:10059000002093878702A2978843938B4181EFC005
:1005A000D00DB717010003A6070083A64700CE9B16
:1005B000EFA050332A8C03850B00AE8C9384C120AE
:1005C000EFB0B0012A86AE866285E685B70C0020C2
:1005D000EFA05031938C8C01EFC0F014338984006C
:1005E000A29C371E01002320A90003A50C0083252F
:1005F0008EFF9389818023A0A900EFB0D03B1383A5
:10060000C400138D840091042A879A866A86A68581
:100610001385C1209387018AEF20D05D93070000E6
:100620002320F900EF40601C930700002320FB000B
:100630009388812013884120D285370A0020C686FE
:1006400042861385C11F130ACA00EF30207B229A0D
:10065000832D0A0003850B00B7070080B3CDFD0092
:10066000EFC06068AA856E85EFB0F076371E010096
:1006700083258EFF2320A90003A50900930D000008
:10068000EFB07033138381212A879A866A86938715
:10069000018AA6851385C120EF20D0552320B901FA
:1006A000EF40A01483250A002E85EFB0207A2A8A15
:1006B00003850B00EE8BEFC00063AA855285EFB077
:1006C0009071B717010083A547A92320A90003A5AE
:1006D0000C00EFB05070371E010083258EFF23A061
:1006E000A900EFB0502D138381212A879A866A864C
:1006F0009387018AA6851385C120EF20B04F232060
:10070000B901EF40800E938781B2A29703AA070038
:10071000938741B3A2978C435285EFB020739387A0
:1007200001B4A297AA8A2320AB008843D285938480
:10073000C121EFB0A071A29488C0B7070020B70410
:1007400000209387070093844403A2943E940840BA
:10075000D285EFB0A06F88C02320590123A0B90132
:10076000EF303012E1BCEFF2BFAC2E84AA85371512
:100770000100130585E7EFC030242285EFC0E06F4C
:100780002A8637150100AE861305C5E7EFC0D022D3
:10079000D1B4EFF2FFA941112EC4AA85371501008B
:1007A000B286130585E736C6EFC010212246B24651
:1007B000371501001305C5E7EFC01020410159BCF2
:1007C000EFF21FA72E84AA8537150100130585E7D0
:1007D000EFC0901E37150100A2851305C5E7EFC0D5
:1007E000B01D8DBCEFF23FA39384C18898408D4724
:1007F00063C5E706138481891C4013090006B3070B
:10080000F9029389819AAA853385F900EFC01038DF
:10081000371501001305C5A6EFC0101A37150100E2
:100820001305C5C5EFC050190C403715010013055D
:1008300085E7B305B902CE95EFC010183715010052
:10084000130585C6EFC050171C4011478507B3E755
:10085000E7021CC09C4085079CC0C5BAEFF25F9DB3
:100860005137CDBAEFF2DF9C371501001305C5FDF6
:10087000EFC09014996773900780B707EFBE37E712
:1008800000E0938707083CC76FF0DF9CEFF25F9AA8
:1008900037140140130504808565EF702078054604
:1008A000130504808565EF702074F165938505203C
:1008B00013850199EF70D01C37250140854513053C
:1008C0000580EF70A075EF70000637150100130565
:1008D00045F1EFC0700E371501001305C5F2EFC0EA
:1008E000B00DB71401001385C4A6EFC0F00C371586
:1008F0000100130505F4EFC0300C37150100130596
:1009000005F5EFC0700B37150100130585F6EFC034
:10091000B00A37150100130545F7EFC0F009371588
:100920000100130545F9EFC0300937150100130523
:1009300005FAEFC070081385C4A6EFC0F00737159D
:1009400001001305C5FAEFC03007371501008145D6
:100950001305C5FBEFC0500637150100130505FC54
:10096000EFC090053715010093050054130585FD70
:10097000EFC0900423A801887D34EF402026EF20AB
:100980009021EF30D04DEF70007201468565130560
:100990000480EF7060656FF0FF8B014793060006DF
:1009A0003306E5000306060093178701E187631409
:1009B000B6069305F005254613978701618763CF37
:1009C000E504B306F50094228507938606FD93F6A9
:1009D000F60FE363D6FE8147A54829489305F00545
:1009E000B306E50003860600930606FD93F6F60FB0
:1009F00063E1D802B387070305079376F70F1397D0
:100A000086016187938707FDB297C207C183E3F927
:100A1000D5FC3E8582800507E314D7F88147D5BF12
:100A2000EFF21F81830715001307C004AA846388AF
:100A3000E700130700056380E7046FF0BF81B71577
:100A40000100938505C7EFC0901619C59305A00353
:100A50002685A1372399A18AB7150100938505C87A
:100A60002685EFC0D01471D99305A00326853537AC
:100A70002398A18AD9B7B7150100938585C8EFC01F
:100A8000101345DD930530072685013F1384418B04
:100A90000AA01E209305A0032685C207C18381CF2B
:100AA000ED3D9307C0033305F5021A203A95420540
:100AB00041810AA059B7D535EDBFEFF26FF703A713
:100AC0004189930700063387E70283A701881385CE
:100AD000819A8145B306E500958F8507BA973E95C3
:100AE000EFD0C05BEFC020446FF0CFF6EFF24FF4D1
:100AF00003A74189930700063387E70283A701888C
:100B00001385819A29468145B306E500958F8507AF
:100B1000BA973E95EFD0E06D6FF0CFF3EFF24FF163
:100B200003A7418993070006AA85B387E7021385C7
:100B3000819A3E95EFC0100423A0A1883335A00010
:100B40006FF04FF1EFF2CFEED13F6FF0AFF0EFF279
:100B5000AFEB9389818083A7090023AEF186938749
:100B60000181984323ACE18A1307400698C303A789
:100B7000C1989387C18A98C3EF3030470545EF305D
:100B800020511387C11F14439387C12094C354433A
:100B900013058005B7040020D4C314475847938B2E
:100BA000C18794C7D8C79307000023A0F900BD37B9
:100BB0009389C18A138B8180938A818B138A0181E7
:100BC0001384C11F938404226311050C130590053F
:100BD000B137631C050A1305A00589376317050A99
:100BE00085479CA00145EFF05F979C206386070A2C
:100BF0000545EFF09F969C2089E71305A005393F36
:100C000001C50945EFF07F9513058005013F11C926
:100C1000F13D01C95D35AA8503A581B2EFB000237E
:100C200008C013059005DD3D11C9C93501C97135ED
:100C3000AA8503A5C1B2EFB0602148C01305A00585
:100C4000F13D11C9653501C98D3DAA8503A501B3E3
:100C5000EFB0C01F08C49306C400130684009305B8
:100C600044001385C11FEF30601983A70B002320B8
:100C7000FB0083A70A002320FA0083A7C19823A0C2
:100C8000F900EF3000406FF0AFDB130580052380E3
:100C900004006935E31805F4130590054135E3199F
:100CA00005F4A1BFEFF2CFD813850199EF70606D05
:100CB00037150100130505EEEFC0005083A5C1866E
:100CC000371501001305C5EE8505EFC0E04E6FF046
:100CD0006FD8EFF2EFD27571371A00209387018930
:100CE000130ACA481384819A3EC683270A08032739
:100CF0004A08998F93F7F707B1C703A7C1888D47B3
:100D0000938CC18863C0E70413850199EF70E06498
:100D1000931585013715010093840187E18513053B
:100D200045AD8CA0EFC0404983860400A9471387D6
:100D30001187938441876397F6029440A9EAA388B8
:100D4000018631A81306000681450818EFF04FD13F
:100D50009387C1B49C33138DC1B4639F0726496147
:100D60006FF0CFCDB547E38AF6FC9307A0036394F9
:100D7000F6001C23F9D390409307E005E3CFC7FAB0
:100D80009307B003639AF62285471CA3B9BF938DDE
:100D9000818983A70D00130600061823B38AC702B2
:100DA00013898189B3095401CE962380060063120A
:100DB000071C32479305E0044E85BA97238007004D
:100DC000EFC0405B630A051A23A0A18833053541B3
:100DD00005055695294681452295EFD08041938B94
:100DE000C18683A70B00138DC1892320AD00850721
:100DF000138B0188938AC1899389C186630EF50498
:100E000003A50D0013060006B71501003305A60261
:100E1000938545AE2295EFC080591DED3715010031
:100E20001305C5AEEFC0403937150100130545AFB6
:100E3000EFC0803883A50B0037140100130584B27E
:100E4000EFC0803783250D00130584B2EFC0C03694
:100E5000913D23A0040021B703250900930B000650
:100E60009305A002B30B7503B30D74016E85EFC03B
:100E700060503DC18147014DEE861306A0023387C5
:100E8000F600030707006308C7008507E207E1874C
:100E9000334DA701EDB72320AB003305B541050560
:100EA0005E9581452295EFD0601FEFA0D066630864
:100EB000A505371501001305C5AEEFC0E02F3715A6
:100EC00001001305C5B2EFC0202F3715010083A51F
:100ED00009001305C5EE9DBF371501001305C5AE0A
:100EE000EFC0802D371501001305C5B4EFC0C02C2D
:100EF0003715010083A50900130585B281BF83A7BB
:100F00000A0023A0F90083290900130500069305B0
:100F10007004B3093503B30A34015685EFC0804528
:100F200005CD23A0A1883305554105054E95814582
:100F30002295EFD0A016EFA0105E8D4763EEA700BC
:100F400083C78186ADE783C7C1B499E73715010030
:100F5000130545BAEFC040268327090011478507CE
:100F6000B3E7E7022320F90083A70C00850723A03D
:100F7000FC0023A0040095BB9305A0024E85EFC0A2
:100F8000603F51D1371501001305C5AEEFC0C02237
:100F900037150100130585B7EFC0002283A5C18670
:100FA00037150100130585B2EFC000215DB5371577
:100FB0000100130585BA79BF1C23E39807D283A7E4
:100FC00081891307160098C013070006B387E7024C
:100FD000A297B29794A311BB83A74187138441873B
:100FE000E39F07D6814C1389819A9389018903274E
:100FF0004D2683270D26E304F7D603A7C1888D4726
:10100000138CC188E3CDE7D413058D25EF609001E3
:101010002388A186A947938D11876304F502B547FC
:101020006301F5029307A0036315F50083C70D0064
:1010300089CB18409307E00563C5E700FD576319A6
:10104000F50E03270D2683274D266311F708371564
:101050000100130505C2EFC0201637150100130566
:1010600045C3EFC0601583A7C1989306C00323A0B2
:10107000F18C03A6C18B3D67130707A6918F33D769
:10108000E70237F63600130606E8B7150100938528
:1010900085C40808B376D70233D6C702EFC040270D
:1010A000371501001305C5A6EFC000113715010063
:1010B0000C081305C5FBEFC020101385C1B4EF1059
:1010C000502C85451385C1B4EF10901483C70D00D3
:1010D00099CF0818EFF0DF94814713070006141822
:1010E000BE96238006008507E39BE7FE814C1040F7
:1010F000E30706C4938681899C4213070006238078
:101100000D003387E702232004004A97329723001B
:10111000070005463387F90010A303270C00850755
:1011200005072320EC001147B3E7E7029CC2C1B5D5
:101130009307B0036310F50285472380FD0018096B
:1011400093871C00BA9C2380ACFA939C870193DCA4
:101150008C4171BD83C70D00FDF383A78189930680
:10116000170014C093060006B387D702CA97BA9730
:1011700088A3374700401375F50F8357074093F74F
:101180000708E5DF420541812312A7408DB503A77B
:10119000C19823A6E18A03A7418993870189BA9759
:1011A0009C2399EBEFF2CF8837150100130545BA60
:1011B000EFC080006FF00F8A8280EFF2EF8493849B
:1011C000C11F1384C120014993890186138A418A72
:1011D000914AB387290103850700EFF03F9429CD99
:1011E000EFF0BF8DB3072A01AA8B882311E59387FF
:1011F000618B88231375F50FEFB0F02E8C40EFB0A4
:10120000803DDE85EFA0904408C0050991041104DB
:10121000E31159FD13056004EFF05F9001CDEFF08D
:10122000DF89930500002A84EFB0C0296354A00031
:1012300023A481806FF0CF809C401CC0F9B7EFE2FF
:101240003FFFA53F13059004EFF05F8D1384C19914
:1012500011CDEFF09F8608C01305A004EFF01F8C9E
:1012600011C9EFF09F8548C06FE0DFFE93070000D3
:101270001CC0DDB7930700005CC0FDB7EFE25FFB69
:1012800003A9C1212A840841CA859384C121EFB0F2
:10129000C02B635405002320240103A944004840C7
:1012A000CA85EFB0802A63540500232224018444B8
:1012B0000844A685EFB060296353050004C4B70451
:1012C000002003A94403084093844403CA85EFB077
:1012D000601F6354A0002320240103A94400484058
:1012E000CA85EFB0201E6354A00023222401844449
:1012F0000844A685EFB0001D6353A00004C46FE04E
:101300007FF5EFE2FFEF1385C1208D3F03A7C19862
:101310009384C12003A5C11F8C4023A6E18A83AA20
:101320008180EFB06014CA8C1384C11F371A01008A
:10133000938D4121138D012131E1CC404840EFB024
:10134000A0120DED83258AFF5685EFA0D0662A876F
:101350009387018A938681211386412193850121F8
:101360001385C120EF2000099C401CC0DC405CC0FC
:101370009C441CC4DC445CC46FE05FEC03A50181A9
:10138000EFB07016D685EFB0002583258AFFEFA059
:101390009062B717010083A5C7C6EFA0D0612A8766
:1013A0009387018A938681216E86EA851385C12001
:1013B00055BFEFE25FE61384C1992A8948400111C5
:1013C0001379F90FEFB0702B2ACC08402ECEEFB076
:1013D000D02A6246F246EF70A03FEFB0D0342ACC5C
:1013E00003A50181EFB0301083A58180EFB0A01E6E
:1013F000B717010083A587FFEFA0F05BB7170100C7
:1014000083A5C7C6EFA0305B83C7018AE2489384F7
:10141000C1203EC24AC02A888947054781461386B3
:10142000C1999385C1201385C11F1384C11FEF107B
:1014300020789C401CC0DC405CC09C441CC4DC4444
:101440005CC403A7C19823A6E18A05616FE0FFDFB2
:10145000EFE21FDE996773900780EF3010020546B8
:10146000C14537150140EF6030380546C145371595
:101470000140EF6070370546C14537150140EF6008
:10148000B0360546C14537150140EF60F0353715D8
:1014900001001305C5A6EFB0305237150100130542
:1014A00045EFEFB07051371501001305053EEFB061
:1014B000B050EFF02FBB01A0EFE29FD71386C18A97
:1014C00083A6C1980C4203A641888D8E9387C18A5A
:1014D0006374D60011C2AD3F83A64180A1CA03A7A1
:1014E000C1989C43B307F74063F2F60403C7018D2C
:1014F00083C7118D93F7F70F639AE7020546C1453D
:1015000037150140EF60502E0546C14537150140A3
:10151000EF60902D0546C14537150140EF60D02C96
:101520000546C14537150140EF60102CEF10106AD9
:101530006FE05FD2EFE2DFCFEF30207493878186D8
:1015400098231DE3054798A303A7C186371501001B
:101550001305C5A623A4E188EFB010463715010096
:10156000130585BAEFB050456FE0DFCE03C5818625
:101570008280EFE2FFCB83C7018AAA84130540056E
:10158000238CF186EFF08FD909E501494A856FE098
:101590007FCC2A89EFF06FD2EFB0806F1384818700
:1015A0001375F50F08A075D1371501001305C5A6F1
:1015B000EFB09040930790066384F40463CE9700E5
:1015C000930780066387F4020C203715010013058A
:1015D000C5FBEFB0703E5DBF9307D0066387F40292
:1015E0009307A00DE392F4FE37150100130585EC77
:1015F00029A037150100130505E8EFB0F03BE9B766
:1016000037150100130585E9CDBF37150100130516
:1016100005EBE5B7EFE2DFBE5D7113057004EFF097
:10162000EFCF63060516EFF04FC9EFB0406091476A
:101630006303F50C63CCA7008947630EF50863C507
:10164000A70A63500508EFF09FB459A09307A005BF
:101650006303F51063C8A700F147E316F5FEEFF04A
:101660000FCFD5B79307B005630AF50E9307C005F2
:10167000E31BF5FC13055004EFF04FCA19E1EF30FE
:10168000C0161384C11F8144938901861389812068
:10169000138A81B2930A8400B387990003850700F7
:1016A000EFF0CFC711C98D47639EF40AEFF0EFC08A
:1016B00048C44A85EF20900385049147E39EF4FCDB
:1016C00059B783C7818681EBEFF03FAFEFF07FC35F
:1016D00061616FE0BFB683C7818699E7EFF03FB6DF
:1016E0000545EFF01FCDEDB783C7818689E7EFF0A1
:1016F0001FB50145FDB713050005EFF02FC20144EA
:1017000011C5EFF08FBBEFB0A0582A841305300548
:10171000EFF0CFC001CDEFF04FBAB717010083A5AE
:1017200007A9EFA0506BEFB0A0562A84EF30E00B72
:1017300003A7C19883A6C198BE843A9423A6D18AF0
:1017400083A7C198E3F187F0EF60B047EF30E02C5A
:10175000EFF09FD6F5B7238B018AF5B50547238BAC
:10176000E18AD5B5EFF06FB593972400330BF40001
:10177000D297AA858843EFA0606D2320AB00CA866C
:101780005686930544002285EF20406735B7130540
:10179000D004EFF0AFB819E16F003052EFF0EFB1C5
:1017A000EFB0E04813079006AA876302E566634E30
:1017B000A7147147630DE5506342A70A5947630FA9
:1017C000E546634EA7044947630DE50C634EA70247
:1017D0004547E31AE5E60146C14537150140EF608C
:1017E000B0000146C14537150140EF60E07F01467A
:1017F000C14537150140EF60207F0146C1453715CF
:101800000140EF60607E81B551476308E540554770
:10181000E31BE5E21385C1B4EF1080012DB56547E8
:101820006300E5486341A7025D47630EE5406147F9
:10183000E31BE5E01385C1B4EF10000403A7C198D2
:1018400023AEE18A09B569476302E5466D47E31CAB
:10185000E5DE1385C1B4EF10A010F5B31307200522
:10186000630EE56A6341A7027947630FE54A63495E
:10187000E54A7D476303E55613071005E315E5DCEC
:10188000EFE05FFEC9B313075005630EE572634DC9
:10189000A702130730056307E56813074005E31443
:1018A000E5DA13053005EFF06FA763020568EFF086
:1018B000CFA0B717010083A507A9EFA0D051EFB0C3
:1018C000203D23A2A18041B31307C005630FE5703B
:1018D00013078006E319E5D613058006EFF07FC9EC
:1018E000E31305D613053005EFF04FA301CDEFF05C
:1018F000CF9C03C48187938701970A043E94EFB07D
:10190000003308C0EF3040373DBB1307C00CE3087D
:10191000E518634BA72213077007E302E50863424B
:10192000A71C130720076308E5766348A718130769
:10193000D006E31AE5D01305D006EFF09FC3E314F9
:1019400005D013053005EFF06F9D93848187138ACE
:10195000019709C9EFF06F968020EFB0402D0A047F
:10196000529408C0EF30403103C904000A09B3079C
:101970002A01884383AAC198B71B0100EFB0A036A3
:10198000938701963E9983270900AA8C7D593EC40E
:10199000B717010003ACC7C993890196371D010031
:1019A000E28D83A7C1981307803EB3875741637CBC
:1019B000F708B7170100138547D0EFB0E07F9C20F0
:1019C0008A07CE978843EFB0404BB71701002A86AD
:1019D000AE86138587D0EFB0207EB7170100138540
:1019E00007D1EFB0607D8C2013858BCFEFB0C07C2A
:1019F00013054DD1EFB0407C03A50197EFB0A02EA9
:101A0000EFB0E022AA8513858BCFEFB0E07A3715CF
:101A10000100130585D1EFB0207AFD576303F94A21
:101A200083A7C1988965938505719D8DCA95130714
:101A3000803EB3D5E502371501001305C5EEEFB0C2
:101A4000A07783AAC198EF60D017EF20107DEFF048
:101A5000BFA6FD57631CF948A2456685EFA09026F6
:101A60009C208A073EC63307FA006353A04608430A
:101A7000EFB06027EE85EFA0505FB247CE978C4362
:101A8000EFA0B02CE34FA0F003A9C198FD57E30AE3
:101A9000F9F0634B090003A7C19889679387F77032
:101AA00033072741E3FFE7EE03A7C19823AEE18A9E
:101AB00003A7C19823A6E18A79B613073007630408
:101AC000E55C13075007E310E5B803A5018893050B
:101AD000A0021505EFB0100AE30705B6A30F05FE37
:101AE0009DB61307C0086306E530634EA7001307D1
:101AF00080076303E56A130790070545E395E7B49C
:101B0000EF20005989B61307900C630BE574130797
:101B1000B00C0144E319E5B2371900209384018623
:101B2000130909259149B387840003850700EFE075
:101B3000FFFE19C5EFE07FF893172400CA9788C30A
:101B40000504E31234FF01B61307D012E302E504E3
:101B5000634DA7021307E00C6305E57E6347E57656
:101B60001307C00DE307E5001307D00DE31DE5AC37
:101B700013053005EFE09FFAE30705ACEFE0FFF354
:101B8000EFB0E00A23A6A1807DBC13070019E30291
:101B9000E5126344A7061307E012E307E50E1307F7
:101BA000F012E312E5AA13055004EFE03FF7814479
:101BB000E30B050EEFE07FF0EFB06007AA84E3547B
:101BC000050EB717010003A487C913053005EFE020
:101BD000FFF401C5EFE07FEE2A8413053004EFE047
:101BE000FFF3154611C5EFE05FEDEFB040042A8624
:101BF000A6852285EF30600AB9B41307003A630660
:101C0000E5181307703EE310E5A42384018603A7BB
:101C1000818823A6E186EFF0BF8337150100130505
:101C200085CBEFB060591385C1B4EF00903D3715F7
:101C30000100130585CCEFB0205831B41385C1B431
:101C4000EF00F04209B49389418903A40900130904
:101C50000006330489029384819AB71501009385A5
:101C600085CD33858400EFB08074E30E059C930529
:101C70004400A6950808EFB060710C08054613856E
:101C8000C1B4EF00304383A50900B305B902A6959E
:101C900037150100130585E7EFB000526FF0BF9ACA
:101CA0001385C1B4EF00F03D6FF0FF991384C1B408
:101CB0003C20E38A079813053005EFE03FE6E30494
:101CC0000598EFE0BFE22322A4266FF0DF9703A57B
:101CD00001889305A002138401881105EFB0806983
:101CE000AA8415C503A54189930700069305E0045E
:101CF000B387A7021385819A3E95EFB0A06793053D
:101D00000002EFB02067050508C0A38F04FE0C4059
:101D1000014691051385C1B4EF00D0396FF0BF9231
:101D2000238601B46FF03F929387C1B4BC23E38C48
:101D300007901385C1B4EF00505003A501889305A7
:101D4000A002938401881105EFB0C0622A8915C5ED
:101D500003A54189930700069305E004B387A70212
:101D60001385819A3E95EFB0E06093050002EFB0D5
:101D70006060050588C0A30F09FE8C401385C1B4BF
:101D80009105EF00103C6FF01F8C03A501889305AF
:101D9000A002138401881505EFB0C05DAA8415C5A3
:101DA00003A54189930700069305E004B387A702C2
:101DB0001385819A3E95EFB0E05B93050002EFB08A
:101DC000605B050508C0A38F04FE0C401385C1B4F9
:101DD0009505EF00F0356FF01F8703A7C198371501
:101DE00001001305C5A623A0E18CEFB0E03C0C0870
:101DF00045B513053005EFE07FD2E3060584EFE03B
:101E0000DFCBEFA0D06223AAA1966FF0DF83EFF0C3
:101E10004FF6E31A058237150100130505CEEFB022
:101E2000A039138481871C20138701968A07BA97EB
:101E30008843B7140100EFB040042A86AE861385AC
:101E400084CEEFB0603737150100130505CFEFB032
:101E5000A0361C20138701978A07BA978843EFA002
:101E60009068EFB080012A86AE86138584CEEFB0ED
:101E7000A03437150100130545CFEFB0E03308203B
:101E8000EF20302AAA8537150100130585CFEFB062
:101E9000A032371501001305C5CFEFB0E0317D55F5
:101EA000EF203028AA85371501001305C5FBEFB0D8
:101EB000A030371501001305053EEFB0E02F6FF09D
:101EC0003F81371501001305C5D1EFB0E02E95BE57
:101ED0000843EFA05061E285EF905077B247CE976C
:101EE0008C43EFA0205EE35105BA65BC9C208A07B5
:101EF0003387F900D29788433AC6EFA0D05E3247C5
:101F0000AA850843EFA07016EFA070529357F541D1
:101F10003D8D1D8DA947E3D0A7B8BDB6A383018A27
:101F20006FF06FF20547A383E18A6FF0CFF11305DD
:101F30008005EFE0BFBE29CDEF20300B13058005F3
:101F4000EFE0DFBD19C50546C14537150140EF601B
:101F5000A00913059005EFE07FBC19C50546C145F2
:101F600037150140EF6040081305A005EFE01FBBE7
:101F700019C50546C14537150140EF60E006130558
:101F80005004EFE0BFB9630005EC05466FF01F8712
:101F900013059005EFE09FB845F11305A005EFE0AC
:101FA000FFB759F913055004EFE05FB751F5EF2083
:101FB000D0030546C14537150140EF60E002EF2030
:101FC000700D6FF04FE813053005EFE03FB5EFE01F
:101FD000DFAEB717010083A507A9EFA0C05FEFA090
:101FE000304B23A2A1886FF00FE6B717010003ACB6
:101FF00007CAB71A00200144138B01869384012D70
:10200000938A0A25B3078B0003850700EFE01FB111
:1020100031CD8D476312F406EFE03FAAE2852A8AAC
:10202000EFA0A05263520504C844D285EFA0A018C7
:10203000AA89AA8503A5418D1389012CEFA0A05977
:1020400023AAA18C03A5CA00CE85EFA0C05823A661
:10205000AA000325C900EFA07055CE85EFA0A057B8
:10206000EFA010432326A90023A6440105049147AD
:10207000E31AF4F86FF02FDDEFE03FA4931724008C
:10208000A69788C3E5B737150100130545D2EFB011
:1020900060276FF04FDB37150100130505DCEFB04B
:1020A000A0111384C11F0840B7140100EFA0F05C19
:1020B0002A86AE861385C4E7EFB0001037150100FD
:1020C000130545DCEFB0400F4840EFA0105B2A86B7
:1020D000AE861385C4E7EFB0200E37150100130557
:1020E00085DCEFB0600D0844EFA030592A86AE863B
:1020F0001385C4E7EFB0400C371501001305C5DCAC
:10210000EFB0800B4844EFA050572A8637150100E6
:10211000AE86130505DDEFB0200A37150100130563
:1021200085DDEFB060090145EF20C074EFA0B03B42
:1021300083A5012D1384012DEFA0E007EFA0F0533C
:102140002A86AE861385C4E7EFB000070545EF2069
:102150006072EFA050394C40EFA0E005EFA0F051C5
:102160002A8637150100AE86130545DEEFB0C004A0
:102170000945EF202070EFA010370C44EFA0A0031A
:10218000EFA0B04F2A8637150100AE861305C5DED5
:10219000EFB080026FF02FCB01456FF07F963715BF
:1021A0000100130585DFEFB020013715010013058D
:1021B00045E1EFB0600037150140930500081305B5
:1021C00005C0EF30A0678547631DF506B715010010
:1021D000938505CB371401001305C4FBEFA0D07D18
:1021E000371501001305C5E1EFA0107D371501403B
:1021F00093050020130505C0EF3040648547631741
:10220000F504B7150100938505CB1305C4FBEFA0BA
:10221000B07A37150100130545E2EFA0F0793715C4
:10222000014093050040130505C0EF30206185474C
:102230006313F502B7150100938505CB1305C4FBA5
:10224000A1BCB7150100938545CA69B7B715010050
:10225000938545CA5DBFB7150100938545CAF9BF8F
:102260003719002001449384018613090924114A77
:10227000B387840003850700EFE05F8A11C9EFE0B0
:10228000DF8393192400CA99EFA0902023A0A9000E
:102290000504E31F44FDEF1050496FF0CFBA13055A
:1022A0003005EFE0BF8709C5EFE03F8123A6A18C91
:1022B00013054005EFE09F8619E16FF0CFB8EFE01E
:1022C000CFFF23A6A18E6FF00FB813053005EFE006
:1022D000FF8409C5EFE06FFE23A0A18E1305400522
:1022E000EFE0DF8309C5EFE04FFD23A4A18E1305C6
:1022F0002004EFE0BF8219C5EFE02FFCEFA05019DA
:1023000023A2A18E13058005EFE05F8109C5EFE0F0
:10231000CFFA23ACA18C1305A005EFE03F8009C5DF
:10232000EFE0AFF923AEA18C13055004EFE00FFFEF
:1023300019E16FF04FB1EFE04FF823AAA18C6FF0D5
:102340008FB0014493840186138981B28D49B3878C
:10235000840003850700EFE06FFC19C5EFE0EFF59F
:1023600093172400CA9788C30504E31234FF6FF063
:102370008FAD13053005EFE06FFA19E16FF0AFACE8
:10238000EFE0AFF3EFA0B00A23A8A1806FF0AFABEE
:1023900013050005EFE08FF809C5EFE00FF223A861
:1023A000A18213059004EFE06FF719C5EFE0EFF09D
:1023B000EF20707123A6A18213054004EFE00FF611
:1023C00019C5EFE08FEFEF20107423A4A18213054D
:1023D0003004EFE0AFF409C5EFE02FEE23A2A182B5
:1023E000EF20605237150100130545BAEFA0D05C0D
:1023F000371501001305C5E2EFA0105C03A50183AA
:1024000037140100EFA070272A86AE861305C4E7B3
:10241000EFA0905A37150100130505E3EFA0D0593E
:1024200003A5C182EF20306CEFA030252A86AE864E
:102430001305C4E7EFA0505837150100130545E315
:10244000EFA0905703A58182EF20F06DEFA0F0225E
:102450002A86AE861305C4E7EFA010563715010093
:10246000130585E3EFA0505503A54182EFA0F020AE
:102470002A86AE861305C4E7EFA010543715010075
:102480001305053E6FF02FFB13053005EFE00FE954
:102490009307000001C5EFE04FE2AA873E85EF10E9
:1024A00070286FF04F9AB717010003A447C96FF067
:1024B000CFF1EF2080336FF00F9913054005EFE067
:1024C000EFE5B714010051C1EFE02FDFEFA0407C32
:1024D0001375F50F1384818708A015C51385C4A64D
:1024E000EFA0904D13054005EFA030510C2037159B
:1024F0000100130585CEEFA0304C37150100130500
:10250000C5E36FF04FF313056004EFE02FE101CD59
:10251000EFE0AFDA930500002A84EF90B07A6354BD
:10252000A00023A481801385C4A6EFA0F04837152E
:102530000100130505E5EFA030483715010083C5FC
:10254000018A130505066FF02FF51385C4A6EFA0C9
:10255000B04637150100130545E6EFA0F04583A509
:1025600041899307000637150100B387B7029385A9
:10257000819A130585E7BE95EFA010443715010039
:10258000130585C66FF02FEBEFD21FC8EFE00FB039
:10259000894A1384819A930B0006114C83A7C18842
:1025A0001389C18863C4FA00EFE0AFF28145138557
:1025B000C1B4B9298327090095C7938441898C4008
:1025C0001385C1B4B385BB02A2954929EFF08F846E
:1025D00083270900FD172320F9009C408507B3E7F6
:1025E00087039CC0EF206043EFE01FEDEF10F01970
:1025F00075B7EFD2FFC31385C1B449206FD09FC513
:10260000EFD21FC33754004093055052130504C046
:10261000EF30B00739C19387812283A6070803569C
:1026200044C083A547081387160042061377F703B3
:1026300041826306B700BE9690A223A0E70883A755
:10264000C1983755004093874706930550521305AC
:1026500005C023A2F18CEF301007375400409305DA
:102660006062130504C0EF30500219C59305606223
:10267000130504C0EF3030056FD0DFBDEFD25FBB74
:102680009307C559232AF548B71501009307001091
:102690002A84232CF5482310050023010500938587
:1026A000C51F1305C549EFA0704E85472300F46A86
:1026B00083A7C1989387077D232EF4686FD09FB9B5
:1026C000EFD21FB4130A452341112A845285AE89E3
:1026D000EF40307D71E54E85EFA0504C9307C44725
:1026E00001493EC4130BE002B71B0100371C010077
:1026F000B38AA900B71C0100371D0100930D54488F
:10270000A2455285EF50A000AA843DE183075448BA
:10271000A5C3E38767FF8347444813F767006DF35A
:10272000032644490307060011E36E860327446A23
:1027300005094209135909011DE3C18B95CF938502
:10274000CC085685EFA0D03CCE8513050D09EFA02F
:10275000B026CE852285AD3729ED23800A00832758
:10276000446A09476398E7028317846AE39A27F962
:10277000268541016FD09FAC93858BCD328532C6C3
:10278000EFA0F04269DD3246CE8513054C0AEFA07A
:10279000B022F1B70547E395E7F62314246B8DB714
:1027A000AA84AA85371501001305850BEFA0D02058
:1027B000C1B7AA8475BFEFD2BFA741112E85B285DC
:1027C00032C6EF40106E2A84324601E93715010007
:1027D000B2851305050DEFA0301E228541016FD093
:1027E0007FA7EFD2FFA441112E85B28532C6EF40FC
:1027F000107232468307960091E3114541016FD074
:102800007FA5EFD2FFA2117191672A84938707A356
:102810001306B00F814548003EC0EFD07FA48A85E3
:102820002322046A2285EFF0BFE911616FD09FA2D5
:102830003C218DEFEFD2DF9F930545002A840145AF
:10284000EF40B029AA8509C93715010013054504D1
:10285000EFA090166FD01FA037150100814513051A
:102860008506EFA0701585473CA0EDB78280A300D8
:1028700005002301050082803C2199C385471CB1D6
:1028800082801C3199C3A30005008280EFD25F9A39
:10289000411174001305852502C6EF40903C19C50F
:1028A000371501001305451AEFA0101132454101FB
:1028B0006FD05F9A3C21A5CFEFD29F9741112EC6D2
:1028C000130485250DCE371501001305850EEFA0E5
:1028D000B00EB24505462285EF403022AA8511C9C7
:1028E0003715010013058510EFA0100D41016FD0C1
:1028F0007F9637150100814513054512F5B7371549
:10290000010013054514EFA0300BB245294622857E
:10291000EF40B01EAA8511C53715010013058516B5
:10292000E1B73715010081451305451875BF828051
:10293000EFD21F9085473CB10146EFF0BFF76FD053
:102940007F91EFD2FF8E2E85EF40106301C9AA85DB
:102950003715010013058500EFA010066FD09F8F7B
:10296000EFD21F8D3C2195CF2A8437150100130526
:10297000851DEFA07004832504263715010013057B
:1029800085B2EFA070031305F002EFA010078325B6
:102990004426371501001305C5FBEFA0F0016FD0E9
:1029A0007F8B371501001305C51EEFA0F000C5BFD2
:1029B000EFD21F882E852E84EFA0501EAA84930587
:1029C000E0042285EFA0101B15ED1385F4FF22957E
:1029D000B5471CB1A9473CA1A3010500371501006B
:1029E0001305C5AEEFA0407D3715010013050502A4
:1029F000EFA0807C371501001305053EEFA0C07BDA
:102A00006FD05F859305A002EFA0D0167D15C9B7E2
:102A100091E98347056A8DC383A7C1980327C569D8
:102A200063ECE7003C212300056A99E7EFD25F8061
:102A3000EFF01FE06FD01F828280EFD26FFF930410
:102A400085252A842685EF40D0392685EF403044FD
:102A500023000400A30104006FD0CFFFEFD24FFD8D
:102A6000370400208347C45605498DC7AE84B71587
:102A700001009385051C2685EFA070131DE5130545
:102A8000C456A685EFF0DFF21304C4563C3091C75C
:102A9000EFE05FB84A856FD0EFFB371501001305F3
:102AA00045BAEFA060710149F5B71305C456EFF0C0
:102AB000DFF8371501001305451CEFA0E06FD9BF03
:102AC000EFD20FF709472322E56A2314B56AB285CE
:102AD000EFF01FBF6FD00FF8EFD28FF5854723229D
:102AE000F56A2A84EFF0DFBD8315846A371501008B
:102AF0001305C5FBEFA0406C0355846A6FD08FF5BA
:102B0000EFD20FF39305F0021305C549EFA090062D
:102B1000133515006FD00FF4EFD28FF11305C549AF
:102B2000EFA0D0066FD00FF3AA87038507006305D7
:102B3000B50001CD8507D5BF2E8581C9238007004B
:102B40008507038707007DFB05458280EFD24FEEA6
:102B50009305F0021305C549EFF01FFD6FD08FEF0D
:102B6000EFD20FED2E849307C549B71501003E85BE
:102B70009385450EEFA0207EA285EFA0C07D6FD08B
:102B80006FEDEFD2EFEA2A84EF103046EF10505489
:102B900013058425EF40B02FA3000400EF10904FE1
:102BA0003715010013058503EFD05FCB6FD08FEA97
:102BB000EFD20FE5939A2600330B56013971832427
:102BC0000B00BA89330755012E893E8C0C4383478D
:102BD00001082A8A268542CAC68C3ED032C2EF90AE
:102BE000E02612468A0933073A01B30736018043CB
:102BF0000C432AC422853EC20A0CEF902025B3075D
:102C00008901B30B8A0183A50B002AC68843EF9084
:102C1000D0458327C900A2452AC83ED48327CA00CD
:102C20003ECCB7070080BD8C3D8CB307590188436B
:102C3000EF90B043B30739012A8DB2458843EF9036
:102C4000D042AA8DEA852685EF90F018EE852AD627
:102C50002285EF905018B257AA853E85EF90001F4D
:102C6000EE852AD62685EF901017EA85AA8D228553
:102C7000EF907016AA856E85EF90303FB257BE85F3
:102C8000EF50504D930500002A8DEF90100C6350CB
:102C900005026A85EFA0601EB717010003A6072092
:102CA00083A64720EF70805FEFA0E0272A8D825730
:102CB00099CF6A85EFA0601CB717010003A6072013
:102CC00083A64720EF80900DEFA0E0252A8DC24714
:102CD000139517000581EFA0401A2AD02ED26A85DD
:102CE000E685EF90500FEFA0401902569256EF5034
:102CF000302EEFA04023AA8DEFA02018B7170100B7
:102D000003A6872083A6C720EF8060326346051C98
:102D10006E85EF50D016EF90B077931D050193DDCF
:102D20000D0163930D00854D6E85EF90D07BAA8CCD
:102D3000AA856A85EF9020482A8D4245E685EF9066
:102D40008047E2452AC82255EF903032E685EF9061
:102D500080462AD46A85EFA04012B716010003A668
:102D6000062183A646212ACC2ECEEF80A0376247CB
:102D7000F2473A86BE86EF80E036B71701002A8612
:102D8000AE8603A5872183A5C721EF803001EFA080
:102D9000801903A70B009C00E29723A8E7FE0327F6
:102DA000CA00AA8C054A3ADE980056973ACC980099
:102DB0004E97814B3AD03E8C93170A01C18363F33F
:102DC000B711E14763CC7709EA852685EF90B0001B
:102DD000AA89E6852285EF901000AA854E85EF909E
:102DE000E006AA89E6852685EF90E07EAA84EA853A
:102DF0002285EF90407EAA852685EF9010271388C4
:102E00001B00931B8801AA8493DB8B414E84A2454F
:102E10002685050AEF908003E247B24523A8A7FE66
:102E20002285EF90A0028257C24523A8A7FE032562
:102E30000CFFEF90A0012328ACFEA2557255EF9035
:102E4000E0002ADE0818EFE06FC352475C017418F7
:102E500030184C180818EF00E059B9BF5285EF90B0
:102E60009068EA85EF9020772A84EF500079AA894C
:102E70002285EF50900D83270B0037070080AA8A28
:102E8000B3CBE7009247CE855E858043EF90A07478
:102E9000AA84D6852285EF900074AA852685EF80C6
:102EA000F07AD685AA845E85EF90E072AA8ACE85F4
:102EB0002285EF904072AA855685EF90101B2A84D8
:102EC000814BB1B752475C019306C90013068900D4
:102ED000930549004A85392B21616FD02FB6EFD277
:102EE0002FB22A84485D4111AE8B328BEF90106C6B
:102EF0002A89284083298404EF90506B2A8C4E85C0
:102F0000EF90705E93050000AA8CEF90E05563008F
:102F1000051ECA854A85EF90006CAA84E285628509
:102F2000EF90606BAA852685EF903014EF90F074D7
:102F30002A8A6685AE8AEF9050742A86AE86EF7034
:102F4000E0352A86AE865285D685EF703028EF9020
:102F5000907DEF50405DEF90904DAA846840EF90D7
:102F6000F064AA8A33053041EF90F05793050000D2
:102F7000AA89EF90604F630F0516D6855685EF90AE
:102F800080652A8ACA854A85EF90E064AA855285C1
:102F9000EF90B00DEF90706E2A8D4E85AE8DEF9054
:102FA000D06D2A86AE86EF70602F2A86AE866A853F
:102FB000EE85EF70B021EF901077EF50406C032A50
:102FC0000401EF90D046B3099A403385A940635F6E
:102FD000050A930500006685EF900049630F051010
:102FE0006685EF9090692A86AE862A8DAE8DEF7049
:102FF000E02A2AC452852EC6EF90505BEF90F0670E
:103000002247B2472A86AE863A85BE85EF80800D7C
:103010002AC42EC66285E285EF90E05BEF90F065F2
:103020002247B2472A86AE863A85BE85EF80005792
:103030002A8CAE8C5685D685EF90E059EF90F063E0
:103040002A86AE866285E685EF704025B7170100B7
:1030500003A6072883A647282A8CAE8C6A85EE85AE
:10306000EF8040082A86AE866285E685EF701016EE
:10307000EF90706BEF50204BEF90703BAA8463533E
:1030800005008144014563E34401D284996773904C
:10309000078083470405E207E187B1E344C8AA94A7
:1030A000DE8504CC4A85EF900053EF50C047EF9087
:1030B000303E930780076374F50013058007DA85B7
:1030C00028C04A85EF902051EF50E045EF90503CEA
:1030D000930780076374F5001305800768C099673C
:1030E000938787087390078041016FD02F95130550
:1030F000000085B513050000C9B5130500009DBF8C
:10310000EFD20F934111AA842E8532C6EF90A04CC6
:103110002A84A6852685EF8070533246B285EF90CB
:10312000804BAA852285EF904074EF50D002410178
:103130006FD04F92ADC925CAEFD2EF8D2E8403A96F
:10314000C5020854B284CA85EF90003221C183477A
:103150009403B9E703AA84024A85D285EF908036AA
:103160006350A00448581058B7090080D2853345F1
:103170003501EFF0FFF8AA854A85EF90003D6359CD
:103180000500485408D48547230CF4026FD0EF8B18
:10319000485810588C5433453501EFF07FF6DDB7B1
:1031A00023242403CDB78280EFD2EF869387018D4D
:1031B000982319677310078003C9118D13078708B7
:1031C0001379F90F73100780982333072741318B48
:1031D0000DCF8023014675143D888149138A012E45
:1031E000930A4005630324036204618411E04144AF
:1031F0007D141374F40FB3045403CE85D294268542
:10320000EFF05FF34E86A689F1BF6FD00F8435C50E
:1032100083479503BDE3EFD20F80032A850283A97C
:103220008502AE842A84CE855285EF900032635B9E
:1032300005024858105837090080D28533452501CA
:10324000EFF01FECAA854E85EF902030635E0500FD
:1032500080548854A285EF90202109C5854780D4E9
:10326000238CF4026FC07FFE485810580C5433452D
:103270002501EFF0FFE82A84E9BF8280EFC2BFF9A1
:1032800003C4118D81441374F40F01459389012EF9
:10329000930A4005414B9387018D9C236304F402FC
:1032A0003309540305046204A68561844E994A8655
:1032B000EFF0FFF563136401014426851374F40FE6
:1032C000CA84D1BF0146A685EFF07FF46FC0FFF737
:1032D000EFC29FF383C4118D4111E204E1840144E4
:1032E0009389012E130A4005C14B9387018D9C23BE
:1032F0006389F404338944034E9905CC83478403DE
:1033000081E78347890395C7B3874403832A44022F
:10331000D685CE978857EF80106A2AC60854D6857E
:10332000EF8070693246AA852285EFF05FBB230CDF
:1033300004028504E204E1846393740181444A84B5
:103340006DB70DCC44502685EF903033B717010090
:103350002A86AE8603A5872883A5C728EF70006755
:10336000EF90703C2AC60854A685EF80D0643246A0
:10337000AA852285EFF0BFB6230C040241016FC07D
:103380003FECEFC2FFEAEFF03FE2EFF03FEFEFF08C
:103390003FF46FC03FEC2388018CA388018CB717E2
:1033A00000209387072623A0070023A2070023A459
:1033B000070023A607009387012B1307000098C37B
:1033C000D8C398C7D8C723A4E18C82809386118D77
:1033D0001387018D8C2210231376F60F630BB60032
:1033E0009C2293F7F70F14236385D7008507BD8BC5
:1033F000DDBF8280EFC2DFE0BA8C3E8B9387018D08
:103400009C2359711387018D8507E207E1873EC62A
:103410003ACA3247C147AE8BB28936896313F70087
:1034200002C69387118D9C233247631BF7002AC87D
:10343000EF403079EF10605EEFE00F884245D5B77E
:103440009384012D8C40084137140100138A012D0B
:10345000EF906018832544A9EF80501FEF50202281
:10346000EF90E07CCC40AA8A03A50B00EF90A01659
:10347000832544A9EF80901DEF506020EF90207BC2
:103480008C44AA8B03A50900EF90E014832544A97E
:10349000EF80D01BEF50A01EEF906079CC442A8CB7
:1034A00003250900EF902013832544A9EF80101A0B
:1034B000EF50E01CEF90A077B71700201387072686
:1034C000584722C83ED42A89938907266304E50A0F
:1034D00083C7018A138701968A07BA978C4303A58D
:1034E0008181EF80307E6356A002371501001305FD
:1034F000C5A623A62901EF90304C3715010013050E
:103500000524EF90704B371501001305053EEF9031
:10351000B04A83A7C900B307F94013D5F741A98F73
:103520003385A740EF90207CB717010083A5C7C65D
:103530002A840325CA00EF90000AAA85EF801011A3
:10354000AA852285EF8010786356A0023715010006
:103550001305C5A623A62901EF90104637150100D3
:103560001305C525EF905045371501001305053E9D
:10357000EF909044D24713074005802383A50900AC
:103580009387012E1374F40F3307E4029384012E02
:10359000BA97238807042380070263D5BA0005473A
:1035A0002380E70203A5490063DDAB001307400554
:1035B0003307E40226978347070293E72700230097
:1035C000F70283A68900635DDC001307400533071B
:1035D000E40226978347070293E747002300F70298
:1035E00003A7C900635DE900130640053306C40262
:1035F00026968347060293E787002300F602B387E7
:10360000BA4013D6F7413348F6003308C840338632
:10361000AB409357F6413D8EB306DC401D8E93D7E9
:10362000F641BD8E3307E9409D8E9357F7413D8F9C
:103630001D8F83A7C18093084005B3081403330787
:10364000F70293074006A69823A0080123A2C8000A
:1036500023A4D800B347F702368723A6F80063D324
:10366000F6003E876347C7786346070163D5D700F6
:10367000B68711A0C287130740053307E4029546B9
:1036800026971CCB63FBF65C83A7818A7CC78347A4
:103690000B00A300F7026388BA000146C145371545
:1036A0000140EF40701493074005B307F402A6975A
:1036B000DC4399C70146C14537150140EF40D012A0
:1036C00093074005B307F402A6979C4799C70146A4
:1036D000C14537150140EF403011130B4005330B46
:1036E0006403269B8327CB00639C075603AB818E24
:1036F000E6855A85EF80105D6343A000668B03A5C5
:1037000009003385AA40EF90005E83250A00EF8010
:10371000902AAAC82AD003A549003385AB40EF9070
:10372000805C83254A00EF801029AACA2A8D03A550
:1037300089003305AC40EF90005B83258A00EF8061
:103740009027AACCAA8C03A5C9003305A940EF9005
:1037500080598325CA00EF801026AA8903A5C1805D
:10376000EF906058AA854E85EF80F066B71701008C
:1037700083A5C7C6EF80302493074005B307F40242
:10378000AACE15478256A69790436368C74ED0438A
:103790006365C74E90476362C74E0605058188DBA7
:1037A00093074005B307F402371A01000325CAAA9C
:1037B000A69783AC0703E685EF80F01FDA85EF80DC
:1037C0009061D2471387118D9C23182352D0AA8968
:1037D000998F93F7F70F13FBF7003ECC1307EBFF1E
:1037E000954763ECE706EF904069B71701002A861A
:1037F000AE8603A5872283A5C722EF70201DB717C9
:10380000010003A6072183A64721EF603029EF407E
:10381000103CEF80C0562A8A03A5418E637FAA021E
:1038200033054541060533556503EF902058C247DF
:1038300083A547A9EF808061EF4070642AD252854A
:10384000EF90C0569255EF806060B7170100AA85CF
:1038500003A50722EF803016AA89130A4005330A10
:103860004403CE856685EF801057AA8D014D269AB8
:103870002322AA0203250A01EF904053CE852A8B0A
:10388000EF807055EF40304AEF9080408257370705
:103890000080232EAA0203AAC7AA9347F7FF37176F
:1038A00000203ED6930707252AD23ED89C083387AE
:1038B000A7010C434E85EF8010529C103387A7015F
:1038C000B25708C33377F500C257BA853ADEB386DC
:1038D000A7019442368536DCEF80304763500502FD
:1038E000E25672573685BA85EF80F00CD2852ADC15
:1038F000EF80503D6344A00062573A8A110DC147E2
:10390000E316FDFA8257528583A5C7AAEF80F043DC
:10391000635405049309010603A50900D2859109A2
:10392000EF80704B23AEA9FE9C18E39737FF9309F5
:103930004005B3093403D2856E85EF80D049A6993E
:1039400023A2A9021255EF906046D285EF80B048BD
:10395000EF90003423AEA902130A4005330A440352
:10396000E6855A85EF803005AA89269A832D0A00BC
:1039700063930D3483274A00639F073283278A00AD
:10398000639B073283A5C18EEF80F044EF40B039CE
:10399000EF9000302324AA04130A4005330A44039D
:1039A000269A03258A04EF906040CE852A8BEF800B
:1039B0009000232AAA025A85EF90204CB7170100E5
:1039C00003A6072383A64723EF70C071EF80A034BE
:1039D000C247232EAA0003A5818D83A547A9138D75
:1039E000818DEF80503FC2472A8A03A5C18D83A5F0
:1039F00047A9A65CEF80303E93951C008581AA897B
:103A0000EF80B0349387C18D3ED263590500D285D3
:103A10004E85EF80302B6343A0004E8AC24703A53A
:103A2000418D83A547A9365BEF80F03A93151B00C3
:103A30008581AA89EF8070319387418D3ED6635985
:103A40000500D2854E85EF80F0276343A0004E8AA3
:103A500093074005B307F402D285A69783A94702CE
:103A60004E85EF8030266343A0004E8AE2471387DD
:103A7000818CB98B3AC8D289638C071283290700DD
:103A80004E85EF90803FB717010003A6872383A6DA
:103A9000C723EF70E04E635CA0349387012B8C4307
:103AA0000655EF80905CEF90403D9387012B2AD81C
:103AB0002EDA1655CC43EF80505BEF90003C2A86FF
:103AC000AE86EF7020624258D2582ACC4286C68613
:103AD00042852ECEC685EF70E060F24762472A86A7
:103AE000AE863A85BE85EF60607BEF40305BEF903D
:103AF000804393074005B307F402032D0D00AA8508
:103B00002AD86A85A697DC533ECCEF801024635CEC
:103B1000052C42576A85BA85EF80E0692A8D938724
:103B2000012B8C476685EF8050549257931C1500EB
:103B300093DC1C009C43E6853E853ED0EF80F02060
:103B4000635E05008257E6853E85EF80C066EA85A4
:103B5000AA8CEF8030176343A000668D9387012BFA
:103B6000CC475A85EF807050B257131B1500135B7A
:103B70001B0083AC0700DA856685EF80101D635D4E
:103B80000500DA856685EF800063EA852A8BEF8081
:103B900070136343A0005A8DE2456A85EF80B0231D
:103BA0002A8BAA854E85EF80501A63430500DA8977
:103BB00093074005B307F402A697C85B23A6370313
:103BC000905BB717010083A54722B70700803D8DA2
:103BD000EFF00FD3CE852A8BEF80D00E6343A00089
:103BE000DA89930740053304F4025A85A294C05041
:103BF00023A43403A285EF80F00C1345F5FF85471D
:103C00007D814146A38CA402238CF4028C10138581
:103C1000012BEF90404FC247A285528580C3EF80B1
:103C200080592AC8A2854E85EF80E0584246AA8571
:103C30002685EFF0CFAA52471C8641468C001CA374
:103C4000A257D6C0DEC213850726E2C4CAC6EF90CB
:103C5000804BEFF00FF3EF00004465616FC00FDEA3
:103C60000146C14537150140EF4000388327CB009E
:103C7000E38E07A603AB018EA5BCB6853685EF8023
:103C80009015AA89EA856A85EF80F014AA854E8589
:103C9000EF80C01BAA89E6856685EF80D013AA85D0
:103CA0004E85EF80A01AEF40104B93074005B307F5
:103CB000F402A697EDB4930C4005B30C940383A5CE
:103CC000C18C4E85EF803011EF40F005EF80507CC5
:103CD00003AA012C138D012CA69C23A4AC04EF9005
:103CE000E00C2AD26E85EF9000009257AA853E859F
:103CF000EF80700EDA85EF80004CAA8D5285EF9030
:103D0000E00AAA856E85EF80E07B6354A00023A4BF
:103D10004C05930C4005B30C9403032A4D00A69C5C
:103D200003A58C04EF908008AA8D03A54C00EF80BA
:103D3000907BAA856E85EF80100ADA85EF80A04718
:103D4000AA8D5285EF908006AA856E85EF808077D8
:103D50006354A00023A44C05930C4005B30C9403BA
:103D6000032ACD00A69C03A58C04EF902004AA8D05
:103D700003A5CC00EF803077AA856E85EF80B00573
:103D8000DA85EF804043AA8D5285EF902002AA8504
:103D90006E85EF8020736354A00023A44C05930C20
:103DA0004005B30C9403032A8D00A69C03A58C0444
:103DB000EF80D07F2A8D03A58C00EF80D072AA857A
:103DC0006A85EF805001DA85EF80E03E2A8B5285CC
:103DD000EF80D07DAA855A85EF80C06EE35EA0BAE1
:103DE00023A44C0555BE825703ADC7AA0DBBD2898B
:103DF000C1B3E3410689B2876FF0FF87EFC2AFC15D
:103E00009384012D08412E8A8C40411136C432C65C
:103E100037190100EF80207C832549A9B7190020BC
:103E200013840926EF808002EF407005EF80306038
:103E3000CC4008C003250A00EF80E079832549A91A
:103E4000EF80C000EF40B003EF80705E32468C44DC
:103E500048C00842EF802078832549A9EF70107F81
:103E6000EF40F001EF80B05CA246CC4408C4884229
:103E7000EF806076832549A9EF70507DEF403000D8
:103E8000EF80F05A48C49306C400130684009305DB
:103E9000440013850926EF00F0171307000023A440
:103EA000E18C9387012B98C3D8C398C7D8C7410129
:103EB0006FC0AFB9EFC2CFB783A5812D08413714CA
:103EC000002013040426EF800071B717010083A5BA
:103ED00047A9EF70B077EF40807AEF80505508C463
:103EE00013058400EF0090156FC0CFB6EFC24FB43A
:103EF00083A5C12D08413714002013040426EF8048
:103F0000806DB717010083A547A9EF703074EF40AB
:103F10000077EF80D05148C41305C400EF00D013E0
:103F20006FC04FB323ACA1808280EFC2CFAE3719F0
:103F3000002001449389012C130909249384012D45
:103F4000414AB30789008843B38A8900EF8010662D
:103F5000B38784008C431104EF80E067EF805053F7
:103F600023A0AA00E31F44FD6FC02FAE83C6018DBE
:103F700083C7118D93F7F70F6388D70083C7118D1F
:103F80008507BD8BA388F18C8280EFC26FAA9387CF
:103F9000618F9C2393F7F70F1389618F9384718F3F
:103FA0001384818F91EB9C2093F7F70F91E71C20EE
:103FB00093F7F70F6385070C371501001305C5A6A6
:103FC000EF90801F371501001305452AEF90C01EA2
:103FD0008347090093F7F70F8DC7B717002003A594
:103FE0000728EF80505083A5012DEF80C01CEF8083
:103FF000D0682A8637150100AE861305452BEF9051
:10400000A01B9C2093F7F70F95C7B7170020938745
:104010000728C843EF80304D83A5412DEF80A019BC
:10402000EF80B0652A8637150100AE861305C52BD3
:10403000EF9080181C2093F7F70F95C7B717002053
:10404000938707288847EF80104A83A5812DEF804A
:104050008016EF8090622A8637150100AE86130520
:10406000452CEF906015371501001305053EEF90C4
:10407000A0142300090023800400230004006FC063
:104080006F9D238B018EA38B018E238C018E8280EA
:10409000238EA1808280EFC2AF998545370500400D
:1040A000EF10B0466FC00F9B2967130707C49387B3
:1040B000018F636DA7041567130707E2AA8563796B
:1040C000A7048981114737450F001305052433459F
:1040D000B50298A3930730064205418163E5A70422
:1040E000EFC20F95371501004111130505292EC6A2
:1040F000EF90800CB245371501001305C5FBEF901A
:10410000A00B1305400641016FC0CF94BA8555BF7F
:104110000967130707716376A700935515000947D0
:104120005DB705474DB782807971854537050040F9
:1041300022D626D44AD24ED052CE56CC5ACA5EC8C7
:1041400062C666C46AC26EC0EF10D03F6303054406
:10415000854537050040EF10704083A741921384D6
:10416000419299EF83C6018D83C7118D93F7F70FA5
:104170006398D72E9305007D37050040EF10903BE4
:104180001C406388074083C707022388F190858B12
:104190001389C1909389019193840182638C0732C2
:1041A00005469305000237150140EF30F063FD57D7
:1041B0009CA083C7C181A1CB37150140930500089E
:1041C000130505C0EF10806783C6C18593874190B2
:1041D0003387A6403337E0006386A60294239DC24E
:1041E000144090426350C0023716002083250627F2
:1041F000944A371600202320B6288545238BB18E9C
:104200002320D90098A383C70900898B638E072CCC
:10421000371A014005469305000413050A80EF3064
:10422000B05CFD579CB083C7C181A1CB9305002032
:1042300013050AC0EF10806083C6D1859387519023
:104240003387A6403337E0006388A60294238DC6E7
:10425000104054426352D002B716002093860627BE
:10426000CC42B716002093860628CCC28545A38B86
:10427000B18E144A2320D90098A383C70900918BDB
:1042800063800728371A01400146916513050A80AB
:10429000EF309055FD57BCA083C7C181A1CB9305DA
:1042A000004013050AC0EF10605983C6E18593876B
:1042B00061903387A6403337E0006388A6029423D9
:1042C0008DC6104014466352D002B7160020938664
:1042D00006278C46B7160020938606288CC685458F
:1042E000238CB18E144A2320D90098A383C70900D8
:1042F000A18B6382072237150140054685451305CA
:104300000580EF30704EFD57B7190140BCB0014A2F
:10431000938B09C0B71A00208387018F184063561A
:10432000FA209387819194431843369798C3635B2F
:10433000E002054691455E85EF30104B14409387AF
:1043400081919843944A01469145158F98C39C20CA
:1043500013870A271443E207E187B6975E851CC3DB
:10436000EF30904818409387C19194435843369753
:1043700098C3635FE0020546930500081385098032
:10438000EF30904614409387C1919843944A014678
:1043900093050008158F98C39C3013870A27544350
:1043A000E207E187B697138509805CC3EF30D043FD
:1043B00018409387019294431847369798C3635DDA
:1043C000E0020546C14513850980EF30F0411440F5
:1043D000938701929843944A0146C145158F98C32B
:1043E000BC2013870A271447E207E187B697138595
:1043F00009801CC7EF30503F184093874191944388
:104400005847369798C3635DE00205468945138592
:104410000980EF30703D1440938741919843944A4E
:1044200001468945158F98C3BC3013870A27544726
:10443000E207E187B697138509805CC7EF30D03A71
:1044400083270900184085072320F90083270900E6
:10445000184B63FCE70C050A620A135A8A416DBDCA
:1044600003C7118D93074005B387E7023717002074
:10447000130707D0BA97CA3F05472388E704238864
:10448000E7041CC023A00190EFF01FC22399A18E66
:104490000387018F2394E1901C4003D50704239ADE
:1044A000A18EEFF07FC023AEA18EAA853705004014
:1044B000EF1050081C409C4B8583B307F04023ACA1
:1044C000F19023AEF19023A0F19223AAF19023A6BC
:1044D00001907DB101469305000237150140EF3090
:1044E000B03085479CA005B33715014001469305C0
:1044F000000413050580EF30302F85479CB0B5BB15
:10450000371501400546916513050580EF30D02D24
:104510008547BCA0E1BB3715014001468545130521
:104520000580EF30702C8547C5B3184083270900FC
:10453000544B63EFF606504F83A6C18F9384C18F0F
:10454000B387C602B396C602E183505FA206D58F39
:104550003443B697C207C183239AF18E1387418FE4
:104560006373F60012A30A23EFF01FB4AA89AA8589
:1045700037050040EF10007C88404E9588C01840F9
:1045800083270900184B63E6E70023200400EFF0BF
:10459000FF9D3254A25412598259724AE24A524B38
:1045A000C24B324CA24C124D824D456173002030FB
:1045B00083270900144F63F2F604544F83A7019038
:1045C0007843938401903385D702B397D7026181F2
:1045D000A2075D8D9317050103D5418FC183637BCE
:1045E000F500131507014181E370E5F81315070184
:1045F00041819DBF1D8D4205FDB783D5218F3705B4
:104600000040EF10207383D781901387018F1CA384
:10461000BDB7EFB2FFC101112A8485450545EF10F2
:10462000E047930730024C08370500403ECAE0845B
:10463000231D0100EF10C062054685453705004087
:10464000EF10206E9307C0127C8685475C87680058
:1046500085473EC8EF10E02005616FB0BFBFEFB2E5
:104660003FBD930500023715014037140140EF307C
:10467000F01A1305048093050004EF30301A130577
:1046800004809165EF309019130504808545EF3063
:10469000F018C14537150140EF3050180546C145A7
:1046A00037150140EF305014C14537150140EF3048
:1046B000F0160546C14537150140EF30F012C145EF
:1046C00037150140EF3090150546C14537150140BB
:1046D000EF309011C14537150140EF3030140546D9
:1046E000C14537150140EF303010130504C0930564
:1046F0000008EF3030150546130504C09305000887
:10470000EF30900E130504C093050020EF30901396
:104710000546130504C093050020EF30F00C130587
:1047200004C093050040EF30F0110546130504C0A6
:1047300093050040EF30500B130504C09145EF3056
:10474000F00D130504C001469145EF30F009054610
:10475000C14537150140EF3030091305048093053A
:104760000008EF30B00B13050480014693050008E4
:10477000EF3090070546C14537150140EF30D006B0
:1047800013050480C145EF3070091305048001460C
:10479000C145EF3070050546C14537150140EF3082
:1047A000B004130504808945EF30500713050480D9
:1047B00001468945EF3050030546C1453715014094
:1047C000EF30900213054006EFF0BFE48545370552
:1047D0000040EF1080530547238EE180996793874F
:1047E0008708739007806FB0FFA6EFB27FA403C75E
:1047F000018D83C7118D93F7F70F6395E70083A7AA
:10480000419299C7EF30F03B092CEFC0FFCAC5B702
:104810006FB05FA41967731007800841B7170020B5
:104820009387072788C38C4113078708CCC310429E
:1048300090C79442D4C773100780828099677390A1
:1048400007801441371700201307072714C79387E1
:10485000870873900780828099677390078014415E
:10486000371700201307072754C7938787087390CB
:10487000078082809967739007801317250037158A
:104880000020130505273A95084193878708739000
:1048900007808280EFB2DF99EFF03FF50546C14512
:1048A00037150140EF3040740546C14537150140CA
:1048B000EF3080730546C14537150140EF30C072B7
:1048C0000546C14537150140EF3000726FB09F9823
:1048D000EFB21F96814537050040EF10004303C734
:1048E000018D83C7118D93F7F70F639BE700854513
:1048F0003705004023A20192EF1020416FB09F9531
:10490000EFF0CFE6E9BFEFB2BF9283A5C182B71740
:10491000010003A58758EF70100A23ACA1926FB075
:104920007F936355050003C541938280938701956A
:10493000AA9788238280EFB21F8E41112A849DC5D9
:10494000371501001305C5AE2EC6EF80F006B2453F
:104950003715010013050506EF8010063715010015
:1049600013050531EF805005EFC09FAE45679306F4
:10497000C75885471307C7581306D00383994600C5
:10498000635E34059386F7FF8A068A07BA96BA975C
:10499000839426000395270003990600058DEF8078
:1049A00080342A8A33052441EF80E033AA8552857A
:1049B000EF7070422A8433852941EF80C032AA8586
:1049C0002285EF70407F2A842685EF80C031AA853A
:1049D0002285EF70A04741016FB03F8785079106A0
:1049E000E39EC7F813050000FDB7EFB27F8403A56F
:1049F000C1968145EFF03FF423A0A1961307000074
:104A000023A2E1969967739007802380019493878E
:104A10008708739007806FB0FF8383C7019493F773
:104A2000F70F638C071AEFB22FFEEFF01FFC83A481
:104A3000019603A90197138441954A85EF80A02A26
:104A4000A685EF709062B717010083A5C7C9AA8930
:104A5000EF7050276352A00685471CA0B7170100CE
:104A600003A4875803A5C19413890195EF80A0275B
:104A7000A685EF70902D6359051403A58183EF80FF
:104A80008026A685EF7010246350A0142285EF8045
:104A9000001A05852300A90093874194984383A6B3
:104AA000C198998E0567130777BB6375D70003A775
:104AB000C19898C36FB0CFF8B717010083A5074B13
:104AC0004E85EF7090286344050063170900854701
:104AD0001CA01304000079B71C201389C19299C748
:104AE000930700002320F9002300040083A501831D
:104AF0004E85EF70502E832509002A8A4E85EF706F
:104B0000E03403A4C193AA89A285EF701024634BFB
:104B1000050003A481934E85A285EF70B01A63430C
:104B2000A0004E8483A5C182232089002285EF70D6
:104B3000902A138481920C40AA8A2685EF70F05245
:104B400083A5818213898194EF70F028EF80E03291
:104B5000B717010003A6874B83A6C74BEF608058A9
:104B60002A8B03250900AE8BEF802031B717010097
:104B700003A6074C83A6474CEF60C0562A86AE8634
:104B80005A85DE85EF508071EF80E039AA892320B5
:104B9000A90004C0D6855285EF70402BCE85EF70FA
:104BA000D04C930500002A84EF70301AE34305F2DD
:104BB000B717010003A987582285CA85EF709010A6
:104BC000E352A0EA4A8479BD371501001305854CEC
:104BD00023000900EF80405EC1B58280EFB24FE54F
:104BE0001307000023AEE19283A5C182B71701002D
:104BF00003A58758EF70205C23ACA192914537152F
:104C00000140EF30A04137150140014689451305A9
:104C100005C0EF30003EEF30204D595723A6E194F8
:104C2000B717010003A9074B13844183084081454E
:104C3000EFF07FD0CA85EF705011635605001C401D
:104C4000C1171CC0D5B71307500F23ACE182B717AB
:104C5000010003A947581384019308408145EFF0F0
:104C60009FCDCA85EF7010066356A0001C40C10797
:104C70001CC0D5B76FB00FDE8280EFB26FDB23A808
:104C8000019623AA019601469145371501402388D4
:104C90000194EF3060356FB0EFDBEFB26FD6397152
:104CA00083AAC19832CA854763DBB7003715010074
:104CB00013058534EF80405021616FB02FD8AA8C46
:104CC0003715010013054537AE84EF80E04EEFF055
:104CD000DFFA63D90414130700F8238AE192130C56
:104CE0000008B717010083AB0733B717010003A80B
:104CF000472883A70728130B000042CE3ECCB717E6
:104D0000010003A8C73383A78733628442D23ED011
:104D1000B717010003A8472183A70721628A42D65B
:104D20003ED4B717010003A8473483A7073456C4FD
:104D300056C802C6054D02C2DA893ED842DA83CD92
:104D4000019493FDFD0F63800D28EFF01FCA63C42B
:104D5000040E9397240013870196BA9783A907003E
:104D6000CE855A85EF7000766343A0004E8BCE85CA
:104D70005E85EF70807D63430500CE8B63010D047B
:104D8000E6854E85EF700074635FA022A24703A7FB
:104D9000C1981D8F85679387873863F6E722B3072D
:104DA0008A40858793F7F70F63DA0408238AF19224
:104DB00083AAC198A247668BB387FA403EC6E685B0
:104DC0004E85EF708078014D635F051E03A7C19883
:104DD00085679387873833075741014D63F5E71E91
:104DE00083A7C1983EC492476351F01CA247324743
:104DF000B3875741338DE700B307F7403384870209
:104E0000CD473344A403529463D0871E63DA042849
:104E10009307C00E63C987029307F00F228A634885
:104E20008C020DA893870195A6971307F00798A306
:104E3000130CF0077DB583A941961DB71387019523
:104E400026971CA3B5B71304C00E9307F00F228A50
:104E50003384874037150100D28513058538EF80EC
:104E6000A03537150100A28513058539EF80C034C0
:104E70005E85EF8080002A8637150100AE86130517
:104E8000453AEF8060335A85EF70307F2A863715B8
:104E90000100AE861305053BEF80003212478947BB
:104EA00063D5E7106A85EF701064B717010083A51A
:104EB00007A9EF7040302A8D2285EF60107262469C
:104EC000F246EF6020222ADC2EDE5A85DE85EF7066
:104ED000D019EF70907A02569256EF60A0202256B9
:104EE000B256EF6020206257F2572A86AE863A8586
:104EF000BE85EF50B02DEF800003EF7010782A864A
:104F00002ADC37150100AE861305C53B2EDEEF8087
:104F1000A02A6A85EF7070762A8637150100AE8662
:104F20001305853CEF8040296257F2574256D2560E
:104F30003A85BE85EF60001BEF70F07EAA8B3715B7
:104F400001001305453DEF8020275E85EF70F0726C
:104F50002A8637150100AE861305453EEF80C02531
:104F6000DE855E85EF60906EEA85EF70C024EF709D
:104F7000D0702A8637150100AE861305053FEF80F5
:104F8000A023DE856A85EF700065B717010083A551
:104F90004733EF704064EF70506E2A86371501007A
:104FA000AE861305C53FEF802021B3078A008587B1
:104FB00093F7F70F63DD0402238AF1929247E68BA1
:104FC0006E8D85073EC2B717010083A507CA6685A7
:104FD000EF60D067CE85EF704057635F05003715EF
:104FE000010013058540F9B1514A5144A5B5138715
:104FF000019526971CA3D9B7424783A7C198998FDB
:105000001307007D6377F70463D9040683CD4193CA
:105010003715010013054543EF80001A4E85EF70E8
:10502000D0652A8637150100AE861305C5E7EF80E7
:10503000A01837150100130545CFEF80E01737158D
:105040000100EE851305C5FBEF80001783A7C1980B
:105050003EC883A7C19803A7C198BA972247B387D0
:105060005741998F37571200130707F86371F702FA
:10507000371501001305C54335B993870195A697E8
:105080003715010083CD0700130505CE71B7924790
:105090005247E356F7CA371501001305C54519B93C
:1050A0009307B00E63D787001304B00E9307E00F89
:1050B00079BB9307E00F9DB3EFB28F972A84EFF08F
:1050C000DFBBEFC0AFCA05E5371501001305C5AE5C
:1050D000EF80800E37150100A28513050506EF80CD
:1050E000A00D371501001305454EEF80E00CEFC011
:1050F0006FC46FB02F96EFB2AF932A84EFF0FFB773
:10510000EFC0CFC605E5371501001305C5AEEF802A
:10511000A00A37150100A28513050506EF80C00916
:105120003715010013054551EF800009EFC08FC00E
:105130006FB04F92EFB2CF8FEFC04FC309ED37156D
:1051400001001305C5AEEF802007371501001305D8
:105150004554EF806006EFC0EFBD6FB0AF8F4111D7
:1051600022C63704004085451305044026C44AC2C0
:10517000EF00503D6309050E130504408545EF001F
:10518000F03D83C7C1831384C18393845195C1E7E4
:1051900083C701959CA095EB0146914537150140C9
:1051A000EF2090641C201D4785071CA083C77195C4
:1051B0009384619513847195636AF70E45678A0736
:1051C0001307C72CBA979C4382870546914537152C
:1051D0000140EF2070610146914537150140EF20F5
:1051E000B0600546914537150140EF20F05F372943
:1051F00001400146854513050980EF20F05E054614
:10520000854513050980EF20305E0146854513056D
:105210000980EF20705D98201C20E3E5E7F8ADBF22
:105220002545EF20F04D85471CA09820BD4763FC25
:10523000E702138701941023938601941376F60FE7
:10524000138781959387C19519E60C4323A6B196E0
:105250008C4323A4B196054690A22380040023200A
:10526000070023A007003244A24412494101730001
:1052700020303725014013050540ED29938781959E
:10528000984309852A9798C3894779BF8D4769BF95
:10529000914759BF954749BF994779B79D4769B726
:1052A0009C202300040085079CA041B7371501000E
:1052B0001305C5AEEF705070371501001305C52EEC
:1052C000EF70906F9DB7EFA2BFF6EF70103BB7176E
:1052D000010003A6873083A6C730EF50B060EF709F
:1052E00090446FA03FF7EFA2BFF4EF701039B717EB
:1052F000010003A6873083A6C730EF50206DEF7002
:1053000090426FA03FF5EFA2BFF2EF701037B717D2
:10531000010003A6873083A6C730EF50206BEF70E3
:1053200090406FA03FF3EFA2BFF0EF701035B717BA
:10533000010003A6873083A6C730EF50B05AEF7044
:10534000903E6FA03FF173002030EF20C052AA853D
:105350003715010013050568EF701066EF20005245
:10536000AA853715010013050569EF70F064EF2079
:105370002050AA85371501001305056AEF70D06328
:1053800001A0B71702409843B706FFF84111136711
:10539000170098C3D84337060200758FD8C39843C7
:1053A000B706F7FEFD16758F98C39843B706FCFF46
:1053B000FD16758F98C3D843B70681FFFD16758F0C
:1053C000D8C39843B70600ECFD16758F98C337070E
:1053D000FF0098C723A6070202C402C69843C1660D
:1053E000558F98C3B716024005679C42F18F3EC6A1
:1053F000A24785073EC4B24781E7A247E397E7FE8D
:10540000B71702409C431397E70063570706854789
:105410003EC632478547631FF704B7170240D8439B
:10542000B706C1FFFD16D8C3D843D8C3D843136706
:105430000740D8C3D843758FD8C3D843B7061D00DB
:10544000558FD8C39843B7060001558F98C398432A
:1054500093166700E3DD06FED843B7160240719B42
:10546000D8C3D84313672700D8C32147DC42B18B88
:10547000E39EE7FE4101828002C661BF01A001A058
:1054800001A001A001A001A001A001A001A001A014
:1054900001A001A001A001A001A001A001A001A004
:1054A00001A001A001A001A001A001A001A001A0F4
:1054B00001A001A001A001A001A001A001A001A0E4
:1054C00001A001A001A001A001A001A001A001A0D4
:1054D00001A001A001A001A001A001A001A001A0C4
:1054E00001A001A001A001A001A001A001A001A0B4
:1054F00001A001A001A001A001A001A001A001A0A4
:1055000001A001A001A001A001A001A001A001A093
:1055100001A001A001A001A001A001A001A001A083
:1055200001A001A001A001A001A001A001A001A073
:1055300001A001A001A001A001A097B1FF1F9381CC
:10554000614E17B100201301E1AB17D50000130520
:10555000651A97B5FF1F9385E5AA1386818663FABE
:10556000C5008322050023A0550011059105E3EA3B
:10557000C5FE1385818697C5FF1F938525FA63773E
:10558000B500232005001105E36DB5FEFD427390C3
:1055900002BCAD4273904280B762000093828208E1
:1055A00073A0023097B2FFFF938242A993E23200C8
:1055B00073905230EFF0FFDC97D2FFFF938202FD31
:1055C0007390123473002030EFA29FC6B7270140BA
:1055D00093870740631CF500854513050020F129DA
:1055E000814513050020D1296FA0DFC6B7370140E0
:1055F00093870780E31AF5FE85451305004075295A
:10560000814513050040C5B75C413707F1E013073A
:10561000F7EF944D7D8F9C41D58FD44DD58FD441DC
:10562000A206D58FD98F5CC11C4537F7F1FF130750
:10563000D77FD4457D8F9C49D58F94458606D58FDD
:10564000D98F1CC55C55370710FF7D177D8FDC296E
:10565000FD1793F7F70FD207D98F5CD582801C45D1
:1056600089C593E717001CC58280F99BEDBF1C45D7
:1056700089C593E707101CC5828093F7F7EFE5BF54
:105680001C4593E787001CC5828008450D8105896C
:1056900082801C4593E747001CC58280084509812C
:1056A000058982801C4591C537075000D98F1CC5DC
:1056B00082803707B0FF7D17F98FD5BFA54763F705
:1056C000B7048D47138765FF3307F7020328C5002A
:1056D0009D47B397E70093C7F7FFB3F70701B3966A
:1056E000E600DD8E54C5994763E3C70495477D16F0
:1056F0003306F6025859FD47B397C70093C7F7FF23
:10570000F98F3396C5005D8E50D982800D4733875F
:10571000E502032805019D47B397E70093C7F7FF0C
:10572000B3F70701B396E600DD8E14C96DBFB1472C
:1057300063E2C702954765163306F6021859FD471E
:10574000B397C70093C7F7FFF98F3396C5005D8EF7
:1057500010D9828095474D163306F6025855FD47FD
:10576000B397C70093C7F7FFF98FB395C500DD8DD9
:105770004CD5828068454205418182809C4513F763
:10578000070113F8F70001C7D8413368E8008E21FC
:1057900013F7F50F39C318418146854E3D4F930FDE
:1057A000800293028004214E3396DE00B3F8C500D8
:1057B000631116039398260033131F011343F3FF5D
:1057C0003377E300B318180133E7E800639FF70568
:1057D00050C98506E39AC6FD18C11307F00F63751B
:1057E000B70454412146854E3D4F930F80029302EA
:1057F0008004414EB398CE0033F715016392E8025E
:105800001317260001173313EF001343F3FFB3768A
:10581000D3003317E800D98E639DF701232A1501C1
:105820000506E319C6FD54C18280E39457FA10C9F6
:105830004DB7E39757FE23281501DDB708456D8D59
:105840003335A00082800CC982804CC98280AD674C
:10585000373700409387A7AA1CC3828023ACA19648
:105860008280938781979443182181E63C21920797
:1058700021A894430546639FC6023C21103192073C
:105880006314D60093E707F8B7E600E093F7F70F45
:10589000BA962380F6408546935757003397E60023
:1058A0005441A5C2938707048A07B7E600E0B6977C
:1058B00098C382808C4389466391D50214313C2180
:1058C0006365D6008A06B6975DB79386E6038A06B7
:1058D000B69793F7F70F920775B790438D46631C01
:1058E000D60014313C216364D6008606E9BF938656
:1058F000C6078606F1BF94439147E39EF6F81C3134
:10590000BDB7938707064DB7371702405C439146F2
:10591000B18B6385D700A1466382D706B7177A009B
:10592000938707201CC1371602405C4237070020CE
:10593000130707049183BD8BBA9794231C41B3D7F7
:10594000D7005CC15442A1829D8ABA969422B3D6F4
:10595000D70014C55442AD829D8A36971823B3D719
:10596000E7005CC55842398393763700138741843A
:1059700036971823B3D7E7021CC982805C4358438B
:10598000C166C983758FB7F6FF1F83A6C670BD8B2E
:1059900089071396160163480600C54601466392BF
:1059A000D702C94739A88946638FD702BD46638E9F
:1059B000D702C146638ED702C54601466393D7001E
:1059C000C1471DEF3747024003270780418B05C7BA
:1059D00037177A0013070720B307F7021CC121D637
:1059E0001C41858381B701466DBF0546B547D1BFD0
:1059F0000146BD47F9B737173D0013070790E9BFC8
:105A0000B7150240D8559316F700D85563DF060442
:105A100011833D8B9306170037177A001307072071
:105A20003357D70218C1D455A182BD8A8DE295465D
:105A30003307D702058318C137170240585714415E
:105A40003D8B050733D7E60218C1184171B785456C
:105A50006394B600E546E9BFBD456396B600D146FE
:105A60003387E602C9BF8906E5BF3D8B9306170061
:105A700037177A00130707203357D702F1B799C5B4
:105A8000371702401C4F5D8D08CF8280B717024048
:105A9000984F1345F5FF798D88CF828099C53717C8
:105AA00002405C4F5D8D48CF8280B7170240D84FCF
:105AB0001345F5FF798DC8CF828099C5371702400D
:105AC0005C475D8D48C78280B7170240D8471345B1
:105AD000F5FF798DC8C7828099C5371702401C4BE6
