:100000006F50805313000000130000001300000025
:100010001300000013000000130000001300000094
:100020001300000013000000130000001300000084
:08003000130000007300100032
:100038000000000000000000445300004853000086
:10004800000000007E5400000000000000000000D6
:1000580080540000825400000000000000000000EE
:100068006C800000000000008654000000000000C2
:10007800928300008A5400008C5400008E540000C3
:1000880090540000925400009454000096540000CC
:10009800985400009A5400009C5400009E5400009C
:1000A800A0540000A2540000A4540000A65400006C
:1000B800A8540000AA540000AC540000AE5400003C
:1000C800B0540000B2540000B4540000B65400000C
:1000D800B8540000BA540000BC540000BE540000DC
:1000E800284100005C510000C4540000C6540000C0
:1000F800C8540000CA540000CC540000CE5400007C
:10010800D0540000D2540000DE810000D654000014
:10011800D8540000DA540000DC540000DE5400001B
:10012800E0540000E2540000E4540000E6540000EB
:10013800E8540000EA540000EC540000EE540000BB
:1001480000260000F2540000F4540000F6540000A9
:10015800F8540000FA540000FC540000FE5400005B
:100168000055000002550000045500000655000027
:10017800085500000A5500000C5500000E550000F7
:1001880010550000125500001455000016550000C7
:10019800185500001A5500001C5500001E55000097
:1001A8002055000022550000245500002655000067
:1001B800285500002A5500002C5500002E55000037
:1001C8003055000032550000345500003655000007
:1001D8000000000000000000000000000000000017
:1001E8000000000000000000000000000000000007
:0801F8000000000000000000FF
:10020000397101436EC619A0397141536AC866CA73
:1002100062CC5ECE19A0397101535AD056D252D455
:100220004ED64AD826DA22DC06DE330161408282CD
:1002300041114AC026C222C406C68282B24D410183
:10024000024D924C224CB24B4101024B924A224A3F
:10025000B2494101024992442244B24041018280A4
:100260003D432A876373C3029377F700BDEFADE583
:10027000937606FF3D8ABA960CC34CC30CC74CC795
:100280004107E36BD7FE11E28280B306C3408A06C2
:100290009702000096966780A6002307B700A30682
:1002A000B7002306B700A305B7002305B700A304D2
:1002B000B7002304B700A303B7002303B700A302CA
:1002C000B7002302B700A301B7002301B700A300C2
:1002D000B7002300B700828093F5F50F9396850051
:1002E000D58D93960501D58D61B79396270097021A
:1002F000000096968682E78086FA9680C1171D8F49
:100300003E96E374C3F8A5B70100010001000100A7
:10031000010001000100014582803307C5009307F9
:10032000001063C7E702EFF21FEF3289AE89AA849B
:10033000014493170401C18363FE270133878900B9
:10034000A6970C231395070141817D3F0504D5B77E
:10035000014582800545D5BD010001000100010075
:10036000010001000100010001000100014582803F
:10037000EFF21FEC4111AA840144931704012EC629
:10038000C18332C463FEC700338584001375F50F43
:10039000E137B2452246B387850088A30504F1BF43
:1003A0000545410145BDEFF21FE72A89AE8432843D
:1003B0009309F00F371A0100B71A01007D14137466
:1003C000F40F630B34038C2003550900353F0345BC
:1003D000090059379C20638AA70013058AA6EFC03D
:1003E000905D13850AA7EFC0105D8327090085047F
:1003F00085072320F900D9B789BDEFF27FE32E9658
:100400004111AA841374F60F88202EC6B137B24565
:1004100088A19C40850585079CC093F7F50FE315DF
:10042000F4FE410105BDEFF2BFE07971C5651384AB
:1004300085A34146938585A30A85EFC0B04C41460C
:10044000930504010808EFC0F04B414693050402F0
:100450000810EFC0304BB716002037170020814737
:100460001386012D9386062513070724C1453308FB
:10047000F100032808003385C70000082320050188
:100480003308F400032808003385D7000010232028
:1004900005013308F400032808003385E7009107BD
:1004A00023200501E395B7FCEF303028B717010092
:1004B00083A7C7A81306000023A6F18C23A6F18EFC
:1004C00037170100032707A9B716010023A0E18E03
:1004D0009567938707E223A2F18E23A4C18EB717F5
:1004E000010083A747A983A686A923ACF18C23AE7C
:1004F000D18C23AAF18C138781B210C750C3371750
:1005000001000327C7A923A4C1B223A8E182B7171A
:10051000010003A507AAEF40F05A23A6A182B7174E
:10052000010003A547AAEF40F05D23A4A182EF409C
:10053000803D37170100032787AA371501001305EF
:1005400085A623A2E182EFC01047371501001305ED
:10055000C5AAEFC050464561F5B9EFF27FCA938551
:10056000C11F131425009388C50013888500138AC2
:100570004500C6864286338B8500AA899307000012
:10058000D2851385C11F2320FB00EF303007B7074A
:10059000002093878702A2978843938B4181EFC005
:1005A000B00DB717010003A687FF83A6C7FFCE9B38
:1005B000EFA030332A8C03850B00AE8C9384C120CE
:1005C000EFB090012A86AE866285E685B70C0020E2
:1005D000EFA03031938C8C01EFC0D01433898400AC
:1005E000A29C371E01002320A90003A50C0083252F
:1005F0004EFF9389818023A0A900EFB0B03B138305
:10060000C400138D840091042A879A866A86A68581
:100610001385C1209387018AEF20D05D93070000E6
:100620002320F900EF40601C930700002320FB000B
:100630009388812013884120D285370A0020C686FE
:1006400042861385C11F130ACA00EF30207B229A0D
:10065000832D0A0003850B00B7070080B3CDFD0092
:10066000EFC04068AA856E85EFB0D076371E0100D6
:1006700083254EFF2320A90003A50900930D000048
:10068000EFB05033138381212A879A866A86938735
:10069000018AA6851385C120EF20D0552320B901FA
:1006A000EF40A01483250A002E85EFB0007A2A8A35
:1006B00003850B00EE8BEFC0E062AA855285EFB098
:1006C0007071B717010083A507A92320A90003A50E
:1006D0000C00EFB03070371E010083254EFF23A0C1
:1006E000A900EFB0302D138381212A879A866A866C
:1006F0009387018AA6851385C120EF20B04F232060
:10070000B901EF40800E938781B2A29703AA070038
:10071000938741B3A2978C435285EFB000739387C0
:1007200001B4A297AA8A2320AB008843D285938480
:10073000C121EFB08071A29488C0B7070020B70430
:1007400000209387070093844403A2943E940840BA
:10075000D285EFB0806F88C02320590123A0B90152
:10076000EF303012E1BCEFF2BFAC2E84AA85371512
:100770000100130545E7EFC010242285EFC0C06FCC
:100780002A8637150100AE86130585E7EFC0B02233
:10079000D1B4EFF2FFA941112EC4AA85371501008B
:1007A000B286130545E736C6EFC0F0202246B246B2
:1007B00037150100130585E7EFC0F01F410159BC53
:1007C000EFF21FA72E84AA8537150100130545E710
:1007D000EFC0701E37150100A285130585E7EFC035
:1007E000901D8DBCEFF23FA39384C18898408D4744
:1007F00063C5E706138481891C4013090006B3070B
:10080000F9029389819AAA853385F900EFC0F03700
:1008100037150100130585A6EFC0F0193715010043
:10082000130585C5EFC030190C40371501001305BD
:1008300045E7B305B902CE95EFC0F01737150100B3
:10084000130545C6EFC030171C4011478507B3E7B5
:10085000E7021CC09C4085079CC0C5BAEFF25F9DB3
:100860005137CDBAEFF2DF9C37150100130585FD36
:10087000EFC07014996773900780B707EFBE37E732
:1008800000E0938707083CC76FF0DF9CEFF25F9AA8
:1008900037140140130504808565EF700078054624
:1008A000130504808565EF700074F165938505205C
:1008B00013850199EF70B01C37250140854513055C
:1008C0000580EF708075EF70E005371501001305A6
:1008D00005F1EFC0500E37150100130585F2EFC08A
:1008E000900DB7140100138584A6EFC0D00C371506
:1008F00001001305C5F3EFC0100C371501001305F7
:10090000C5F4EFC0500B37150100130545F6EFC0D5
:10091000900A37150100130505F7EFC0D009371508
:100920000100130505F9EFC0100937150100130583
:10093000C5F9EFC05008138584A6EFC0D00737155E
:100940000100130585FAEFC0100737150100814536
:10095000130585FBEFC03006371501001305C5FBF5
:10096000EFC070053715010093050054130545FDD0
:10097000EFC0700423A801887D34EF400026EF20EB
:100980009021EF30D04DEF70E07101468565130581
:100990000480EF7040656FF0FF8B014793060006FF
:1009A0003306E5000306060093178701E187631409
:1009B000B6069305F005254613978701618763CF37
:1009C000E504B306F50094228507938606FD93F6A9
:1009D000F60FE363D6FE8147A54829489305F00545
:1009E000B306E50003860600930606FD93F6F60FB0
:1009F00063E1D802B387070305079376F70F1397D0
:100A000086016187938707FDB297C207C183E3F927
:100A1000D5FC3E8582800507E314D7F88147D5BF12
:100A2000EFF21F81830715001307C004AA846388AF
:100A3000E700130700056380E7046FF0BF81B71577
:100A400001009385C5C6EFC0701619C59305A003B4
:100A50002685A1372399A18AB71501009385C5C7BB
:100A60002685EFC0B01471D99305A00326853537CC
:100A70002398A18AD9B7B7150100938545C8EFC05F
:100A8000F01245DD930530072685013F1384418B25
:100A90000AA01E209305A0032685C207C18381CF2B
:100AA000ED3D9307C0033305F5021A203A95420540
:100AB00041810AA059B7D535EDBFEFF26FF703A713
:100AC0004189930700063387E70283A701881385CE
:100AD000819A8145B306E500958F8507BA973E95C3
:100AE000EFD0A05BEFC000446FF0CFF6EFF24FF411
:100AF00003A74189930700063387E70283A701888C
:100B00001385819A29468145B306E500958F8507AF
:100B1000BA973E95EFD0C06D6FF0CFF3EFF24FF183
:100B200003A7418993070006AA85B387E7021385C7
:100B3000819A3E95EFC0F00323A0A1883335A00031
:100B40006FF04FF1EFF2CFEED13F6FF0AFF0EFF279
:100B5000AFEB9389818083A7090023AEF186938749
:100B60000181984323ACE18A1307400698C303A789
:100B7000C1989387C18A98C3EF3030470545EF305D
:100B800020511387C11F14439387C12094C354433A
:100B900013058005B7040020D4C314475847938B2E
:100BA000C18794C7D8C79307000023A0F900BD37B9
:100BB0009389C18A138B8180938A818B138A0181E7
:100BC0001384C11F938404226311050C130590053F
:100BD000B137631C050A1305A00589376317050A99
:100BE00085479CA00145EFF05F979C206386070A2C
:100BF0000545EFF09F969C2089E71305A005393F36
:100C000001C50945EFF07F9513058005013F11C926
:100C1000F13D01C95D35AA8503A581B2EFB0E0229F
:100C200008C013059005DD3D11C9C93501C97135ED
:100C3000AA8503A5C1B2EFB0402148C01305A005A5
:100C4000F13D11C9653501C98D3DAA8503A501B3E3
:100C5000EFB0A01F08C49306C400130684009305D8
:100C600044001385C11FEF30601983A70B002320B8
:100C7000FB0083A70A002320FA0083A7C19823A0C2
:100C8000F900EF3000406FF0AFDB130580052380E3
:100C900004006935E31805F4130590054135E3199F
:100CA00005F4A1BFEFF2CFD813850199EF70406D25
:100CB000371501001305C5EDEFC0E04F83A5C186D0
:100CC00037150100130585EE8505EFC0C04E6FF0A6
:100CD0006FD8EFF2EFD27571371A00209387018930
:100CE000130ACA481384819A3EC683270A08032739
:100CF0004A08998F93F7F707B1C703A7C1888D47B3
:100D0000938CC18863C0E70413850199EF70C064B8
:100D1000931585013715010093840187E18513053B
:100D200005AD8CA0EFC0204983860400A947138736
:100D30001187938441876397F6029440A9EAA388B8
:100D4000018631A81306000681450818EFF04FD13F
:100D50009387C1B49C33138DC1B4639F0726496147
:100D60006FF0CFCDB547E38AF6FC9307A0036394F9
:100D7000F6001C23F9D390409307E005E3CFC7FAB0
:100D80009307B003639AF62285471CA3B9BF938DDE
:100D9000818983A70D00130600061823B38AC702B2
:100DA00013898189B3095401CE962380060063120A
:100DB000071C32479305E0044E85BA97238007004D
:100DC000EFC0205B630A051A23A0A18833053541D3
:100DD00005055695294681452295EFD06041938BB4
:100DE000C18683A70B00138DC1892320AD00850721
:100DF000138B0188938AC1899389C186630EF50498
:100E000003A50D0013060006B71501003305A60261
:100E1000938505AE2295EFC060591DED3715010091
:100E2000130585AEEFC0203937150100130505AF56
:100E3000EFC0603883A50B0037140100130544B2DE
:100E4000EFC0603783250D00130544B2EFC0A03614
:100E5000913D23A0040021B703250900930B000650
:100E60009305A002B30B7503B30D74016E85EFC03B
:100E700040503DC18147014DEE861306A0023387E5
:100E8000F600030707006308C7008507E207E1874C
:100E9000334DA701EDB72320AB003305B541050560
:100EA0005E9581452295EFD0401FEFA0B0666308A4
:100EB000A50537150100130585AEEFC0C02F371506
:100EC0000100130585B2EFC0002F3715010083A57F
:100ED0000900130585EE9DBF37150100130585AE8A
:100EE000EFC0602D37150100130585B4EFC0A02CAD
:100EF0003715010083A50900130545B281BF83A7FB
:100F00000A0023A0F90083290900130500069305B0
:100F10007004B3093503B30A34015685EFC0604548
:100F200005CD23A0A1883305554105054E95814582
:100F30002295EFD08016EFA0F05D8D4763EEA700FD
:100F400083C78186ADE783C7C1B499E73715010030
:100F5000130505BAEFC0202683270900114785072E
:100F6000B3E7E7022320F90083A70C00850723A03D
:100F7000FC0023A0040095BB9305A0024E85EFC0A2
:100F8000403F51D137150100130585AEEFC0A022B7
:100F900037150100130545B7EFC0E02183A5C186D1
:100FA00037150100130545B2EFC0E0205DB53715D8
:100FB0000100130545BA79BF1C23E39807D283A724
:100FC00081891307160098C013070006B387E7024C
:100FD000A297B29794A311BB83A74187138441873B
:100FE000E39F07D6814C1389819A9389018903274E
:100FF0004D2683270D26E304F7D603A7C1888D4726
:10100000138CC188E3CDE7D413058D25EF60700103
:101010002388A186A947938D11876304F502B547FC
:101020006301F5029307A0036315F50083C70D0064
:1010300089CB18409307E00563C5E700FD576319A6
:10104000F50E03270D2683274D266311F708371564
:1010500001001305C5C1EFC00016371501001305C7
:1010600005C3EFC0401583A7C1989306C00323A012
:10107000F18C03A6C18B3D67130707A6918F33D769
:10108000E70237F63600130606E8B7150100938528
:1010900045C40808B376D70233D6C702EFC020276D
:1010A00037150100130585A6EFC0E01037150100C4
:1010B0000C08130585FBEFC000101385C1B4EF10B9
:1010C000502C85451385C1B4EF10901483C70D00D3
:1010D00099CF0818EFF0DF94814713070006141822
:1010E000BE96238006008507E39BE7FE814C1040F7
:1010F000E30706C4938681899C4213070006238078
:101100000D003387E702232004004A97329723001B
:10111000070005463387F90010A303270C00850755
:1011200005072320EC001147B3E7E7029CC2C1B5D5
:101130009307B0036310F50285472380FD0018096B
:1011400093871C00BA9C2380ACFA939C870193DCA4
:101150008C4171BD83C70D00FDF383A78189930680
:10116000170014C093060006B387D702CA97BA9730
:1011700088A3374700401375F50F8357074093F74F
:101180000708E5DF420541812312A7408DB503A77B
:10119000C19823A6E18A03A7418993870189BA9759
:1011A0009C2399EBEFF2CF8837150100130505BAA0
:1011B000EFC060006FF00F8A8280EFF2EF849384BB
:1011C000C11F1384C120014993890186138A418A72
:1011D000914AB387290103850700EFF03F9429CD99
:1011E000EFF0BF8DB3072A01AA8B882311E59387FF
:1011F000618B88231375F50FEFB0D02E8C40EFB0C4
:10120000603DDE85EFA0704408C00509910411041B
:10121000E31159FD13056004EFF05F9001CDEFF08D
:10122000DF89930500002A84EFB0A0296354A00051
:1012300023A481806FF0CF809C401CC0F9B7EFE2FF
:101240003FFFA53F13059004EFF05F8D1384C19914
:1012500011CDEFF09F8608C01305A004EFF01F8C9E
:1012600011C9EFF09F8548C06FE0DFFE93070000D3
:101270001CC0DDB7930700005CC0FDB7EFE25FFB69
:1012800003A9C1212A840841CA859384C121EFB0F2
:10129000A02B635405002320240103A944004840E7
:1012A000CA85EFB0602A63540500232224018444D8
:1012B0000844A685EFB040296353050004C4B70471
:1012C000002003A94403084093844403CA85EFB077
:1012D000401F6354A0002320240103A94400484078
:1012E000CA85EFB0001E6354A00023222401844469
:1012F0000844A685EFB0E01C6353A00004C46FE06F
:101300007FF5EFE2FFEF1385C1208D3F03A7C19862
:101310009384C12003A5C11F8C4023A6E18A83AA20
:101320008180EFB04014CA8C1384C11F371A0100AA
:10133000938D4121138D012131E1CC404840EFB024
:1013400080120DED83254AFF5685EFA0B0662A87EF
:101350009387018A938681211386412193850121F8
:101360001385C120EF2000099C401CC0DC405CC0FC
:101370009C441CC4DC445CC46FE05FEC03A50181A9
:10138000EFB05016D685EFB0E02483254AFFEFA0DA
:101390007062B717010083A587C6EFA0B0612A87E6
:1013A0009387018A938681216E86EA851385C12001
:1013B00055BFEFE25FE61384C1992A8948400111C5
:1013C0001379F90FEFB0502B2ACC08402ECEEFB096
:1013D000B02A6246F246EF70803FEFB0B0342ACCBC
:1013E00003A50181EFB0101083A58180EFB0801EAE
:1013F000B717010083A547FFEFA0D05BB717010027
:1014000083A587C6EFA0105B83C7018AE248938457
:10141000C1203EC24AC02A888947054781461386B3
:10142000C1999385C1201385C11F1384C11FEF107B
:1014300020789C401CC0DC405CC09C441CC4DC4444
:101440005CC403A7C19823A6E18A05616FE0FFDFB2
:10145000EFE21FDE996773900780EF30F0010546D9
:10146000C14537150140EF6010380546C1453715B5
:101470000140EF6050370546C14537150140EF6028
:1014800090360546C14537150140EF60D035371518
:101490000100130585A6EFB01052371501001305A2
:1014A00005EFEFB05051371501001305853DEFB042
:1014B0009050EFF02FBB01A0EFE29FD71386C18AB7
:1014C00083A6C1980C4203A641888D8E9387C18A5A
:1014D0006374D60011C2AD3F83A64180A1CA03A7A1
:1014E000C1989C43B307F74063F2F60403C7018D2C
:1014F00083C7118D93F7F70F639AE7020546C1453D
:1015000037150140EF60302E0546C14537150140C3
:10151000EF60702D0546C14537150140EF60B02CD6
:101520000546C14537150140EF60F02BEF10106AFA
:101530006FE05FD2EFE2DFCFEF30007493878186F8
:1015400098231DE3054798A303A7C186371501001B
:10155000130585A623A4E188EFB0F04537150100F7
:10156000130545BAEFB030456FE0DFCE03C5818685
:101570008280EFE2FFCB83C7018AAA84130540056E
:10158000238CF186EFF08FD909E501494A856FE098
:101590007FCC2A89EFF06FD2EFB0606F1384818720
:1015A0001375F50F08A075D137150100130585A631
:1015B000EFB07040930790066384F40463CE970005
:1015C000930780066387F4020C203715010013058A
:1015D00085FBEFB0503E5DBF9307D0066387F402F2
:1015E0009307A00DE392F4FE37150100130545ECB7
:1015F00029A0371501001305C5E7EFB0D03BE9B7C7
:1016000037150100130545E9CDBF37150100130556
:10161000C5EAE5B7EFE2DFBE5D7113057004EFF0D8
:10162000EFCF63060516EFF04FC9EFB0206091478A
:101630006303F50C63CCA7008947630EF50863C507
:10164000A70A63500508EFF09FB459A09307A005BF
:101650006303F51063C8A700F147E316F5FEEFF04A
:101660000FCFD5B79307B005630AF50E9307C005F2
:10167000E31BF5FC13055004EFF04FCA19E1EF30FE
:10168000C0161384C11F8144938901861389812068
:10169000138A81B2930A8400B387990003850700F7
:1016A000EFF0CFC711C98D47639EF40AEFF0EFC08A
:1016B00048C44A85EF20900385049147E39EF4FCDB
:1016C00059B783C7818681EBEFF03FAFEFF07FC35F
:1016D00061616FE0BFB683C7818699E7EFF03FB6DF
:1016E0000545EFF01FCDEDB783C7818689E7EFF0A1
:1016F0001FB50145FDB713050005EFF02FC20144EA
:1017000011C5EFF08FBBEFB080582A841305300568
:10171000EFF0CFC001CDEFF04FBAB717010083A5AE
:10172000C7A8EFA0306BEFB080562A84EF30E00BF3
:1017300003A7C19883A6C198BE843A9423A6D18AF0
:1017400083A7C198E3F187F0EF609047EF30C02C9A
:10175000EFF09FD6F5B7238B018AF5B50547238BAC
:10176000E18AD5B5EFF06FB593972400330BF40001
:10177000D297AA858843EFA0406D2320AB00CA868C
:101780005686930544002285EF20406735B7130540
:10179000D004EFF0AFB819E16F003052EFF0EFB1C5
:1017A000EFB0C04813079006AA876302E566634E50
:1017B000A7147147630DE5506342A70A5947630FA9
:1017C000E546634EA7044947630DE50C634EA70247
:1017D0004547E31AE5E60146C14537150140EF608C
:1017E00090000146C14537150140EF60C07F0146BA
:1017F000C14537150140EF60007F0146C1453715EF
:101800000140EF60407E81B551476308E540554790
:10181000E31BE5E21385C1B4EF1080012DB56547E8
:101820006300E5486341A7025D47630EE5406147F9
:10183000E31BE5E01385C1B4EF10000403A7C198D2
:1018400023AEE18A09B569476302E5466D47E31CAB
:10185000E5DE1385C1B4EF10A010F5B31307200522
:10186000630EE56A6341A7027947630FE54A63495E
:10187000E54A7D476303E55613071005E315E5DCEC
:10188000EFE05FFEC9B313075005630EE572634DC9
:10189000A702130730056307E56813074005E31443
:1018A000E5DA13053005EFF06FA763020568EFF086
:1018B000CFA0B717010083A5C7A8EFA0B051EFB024
:1018C000003D23A2A18041B31307C005630FE5705B
:1018D00013078006E319E5D613058006EFF07FC9EC
:1018E000E31305D613053005EFF04FA301CDEFF05C
:1018F000CF9C03C48187938701970A043E94EFB07D
:10190000E03208C0EF3020373DBB1307C00CE308BE
:10191000E518634BA72213077007E302E50863424B
:10192000A71C130720076308E5766348A718130769
:10193000D006E31AE5D01305D006EFF09FC3E314F9
:1019400005D013053005EFF06F9D93848187138ACE
:10195000019709C9EFF06F968020EFB0202D0A049F
:10196000529408C0EF30203103C904000A09B307BC
:101970002A01884383AAC198B71B0100EFB08036C3
:10198000938701963E9983270900AA8C7D593EC40E
:10199000B717010003AC87C993890196371D010071
:1019A000E28D83A7C1981307803EB3875741637CBC
:1019B000F708B7170100138507D0EFB0C07F9C2050
:1019C0008A07CE978843EFB0204BB71701002A86CD
:1019D000AE86138547D0EFB0007EB71701001385A0
:1019E000C7D0EFB0407D8C2013854BCFEFB0A07CEB
:1019F00013050DD1EFB0207C03A50197EFB0802E29
:101A0000EFB0C022AA8513854BCFEFB0C07A37154F
:101A10000100130545D1EFB0007AFD576303F94A81
:101A200083A7C1988965938505719D8DCA95130714
:101A3000803EB3D5E50237150100130585EEEFB002
:101A4000807783AAC198EF60B017EF20F07CEFF0A9
:101A5000BFA6FD57631CF948A2456685EFA0702616
:101A60009C208A073EC63307FA006353A04608430A
:101A7000EFB04027EE85EFA0305FB247CE978C43A2
:101A8000EFA0902CE34FA0F003A9C198FD57E30A03
:101A9000F9F0634B090003A7C19889679387F77032
:101AA00033072741E3FFE7EE03A7C19823AEE18A9E
:101AB00003A7C19823A6E18A79B613073007630408
:101AC000E55C13075007E310E5B803A5018893050B
:101AD000A0021505EFB0F009E30705B6A30F05FE58
:101AE0009DB61307C0086306E530634EA7001307D1
:101AF00080076303E56A130790070545E395E7B49C
:101B0000EF20005989B61307900C630BE574130797
:101B1000B00C0144E319E5B2371900209384018623
:101B2000130909259149B387840003850700EFE075
:101B3000FFFE19C5EFE07FF893172400CA9788C30A
:101B40000504E31234FF01B61307D012E302E504E3
:101B5000634DA7021307E00C6305E57E6347E57656
:101B60001307C00DE307E5001307D00DE31DE5AC37
:101B700013053005EFE09FFAE30705ACEFE0FFF354
:101B8000EFB0C00A23A6A1807DBC13070019E302B1
:101B9000E5126344A7061307E012E307E50E1307F7
:101BA000F012E312E5AA13055004EFE03FF7814479
:101BB000E30B050EEFE07FF0EFB04007AA84E3549B
:101BC000050EB717010003A447C913053005EFE060
:101BD000FFF401C5EFE07FEE2A8413053004EFE047
:101BE000FFF3154611C5EFE05FEDEFB020042A8644
:101BF000A6852285EF30400AB9B41307003A630680
:101C0000E5181307703EE310E5A42384018603A7BB
:101C1000818823A6E186EFF0BF8337150100130505
:101C200045CBEFB040591385C1B4EF00903D371557
:101C30000100130545CCEFB0005831B41385C1B491
:101C4000EF00F04209B49389418903A40900130904
:101C50000006330489029384819AB71501009385A5
:101C600045CD33858400EFB06074E30E059C930589
:101C70004400A6950808EFB040710C08054613858E
:101C8000C1B4EF00304383A50900B305B902A6959E
:101C900037150100130545E7EFB0E0516FF0BF9A2B
:101CA0001385C1B4EF00F03D6FF0FF991384C1B408
:101CB0003C20E38A079813053005EFE03FE6E30494
:101CC0000598EFE0BFE22322A4266FF0DF9703A57B
:101CD00001889305A002138401881105EFB06069A3
:101CE000AA8415C503A54189930700069305E0045E
:101CF000B387A7021385819A3E95EFB0806793055D
:101D00000002EFB00067050508C0A38F04FE0C4079
:101D1000014691051385C1B4EF00D0396FF0BF9231
:101D2000238601B46FF03F929387C1B4BC23E38C48
:101D300007901385C1B4EF00505003A501889305A7
:101D4000A002938401881105EFB0A0622A8915C50D
:101D500003A54189930700069305E004B387A70212
:101D60001385819A3E95EFB0C06093050002EFB0F5
:101D70004060050588C0A30F09FE8C401385C1B4DF
:101D80009105EF00103C6FF01F8C03A501889305AF
:101D9000A002138401881505EFB0A05DAA8415C5C3
:101DA00003A54189930700069305E004B387A702C2
:101DB0001385819A3E95EFB0C05B93050002EFB0AA
:101DC000405B050508C0A38F04FE0C401385C1B419
:101DD0009505EF00F0356FF01F8703A7C198371501
:101DE0000100130585A623A0E18CEFB0C03C0C08D0
:101DF00045B513053005EFE07FD2E3060584EFE03B
:101E0000DFCBEFA0B06223AAA1966FF0DF83EFF0E3
:101E10004FF6E31A0582371501001305C5CDEFB063
:101E20008039138481871C20138701968A07BA970B
:101E30008843B7140100EFB020042A86AE861385CC
:101E400044CEEFB04037371501001305C5CEEFB0D3
:101E500080361C20138701978A07BA978843EFA022
:101E60007068EFB060012A86AE86138544CEEFB06D
:101E7000803437150100130505CFEFB0C0330820BB
:101E8000EF20302AAA8537150100130545CFEFB0A2
:101E9000803237150100130585CFEFB0C0317D5575
:101EA000EF203028AA8537150100130585FBEFB018
:101EB0008030371501001305853DEFB0C02F6FF05E
:101EC0003F8137150100130585D1EFB0C02E95BEB7
:101ED0000843EFA03061E285EF903077B247CE97AC
:101EE0008C43EFA0005EE35105BA65BC9C208A07D5
:101EF0003387F900D29788433AC6EFA0B05E3247E5
:101F0000AA850843EFA05016EFA050529357F54111
:101F10003D8D1D8DA947E3D0A7B8BDB6A383018A27
:101F20006FF06FF20547A383E18A6FF0CFF11305DD
:101F30008005EFE0BFBE29CDEF20300B13058005F3
:101F4000EFE0DFBD19C50546C14537150140EF601B
:101F5000800913059005EFE07FBC19C50546C14512
:101F600037150140EF6020081305A005EFE01FBB07
:101F700019C50546C14537150140EF60C006130578
:101F80005004EFE0BFB9630005EC05466FF01F8712
:101F900013059005EFE09FB845F11305A005EFE0AC
:101FA000FFB759F913055004EFE05FB751F5EF2083
:101FB000D0030546C14537150140EF60C002EF2050
:101FC000700D6FF04FE813053005EFE03FB5EFE01F
:101FD000DFAEB717010083A5C7A8EFA0A05FEFA0F1
:101FE000104B23A2A1886FF00FE6B717010003ACD6
:101FF000C7C9B71A00200144138B01869384012DB1
:10200000938A0A25B3078B0003850700EFE01FB111
:1020100031CD8D476312F406EFE03FAAE2852A8AAC
:10202000EFA0805263520504C844D285EFA0801807
:10203000AA89AA8503A5418D1389012CEFA0805997
:1020400023AAA18C03A5CA00CE85EFA0A05823A681
:10205000AA000325C900EFA05055CE85EFA08057F8
:10206000EFA0F0422326A90023A6440105049147CE
:10207000E31AF4F86FF02FDDEFE03FA4931724008C
:10208000A69788C3E5B737150100130505D2EFB051
:1020900040276FF04FDB371501001305C5DBEFB0AC
:1020A00080111384C11F0840B7140100EFA0D05C59
:1020B0002A86AE86138584E7EFB0E00F371501005E
:1020C000130505DCEFB0200F4840EFA0F05A2A8638
:1020D000AE86138584E7EFB0000E371501001305B7
:1020E00045DCEFB0400D0844EFA010592A86AE86BB
:1020F000138584E7EFB0200C37150100130585DC4C
:10210000EFB0600B4844EFA030572A863715010026
:10211000AE861305C5DCEFB0000A371501001305C4
:1021200045DDEFB040090145EF20C074EFA0903BC2
:1021300083A5012D1384012DEFA0C007EFA0D0537C
:102140002A86AE86138584E7EFB0E0060545EF20CA
:102150006072EFA030394C40EFA0C005EFA0D05125
:102160002A8637150100AE86130505DEEFB0A00400
:102170000945EF202070EFA0F0360C44EFA080035B
:10218000EFA0904F2A8637150100AE86130585DE35
:10219000EFB060026FF02FCB01456FF07F963715DF
:1021A0000100130545DFEFB00001371501001305ED
:1021B00005E1EFB040003715014093050008130515
:1021C00005C0EF3080678547631DF506B715010030
:1021D0009385C5CA37140100130584FBEFA0B07DB9
:1021E00037150100130585E1EFA0F07C371501409C
:1021F00093050020130505C0EF3020648547631761
:10220000F504B71501009385C5CA130584FBEFA03B
:10221000907A37150100130505E2EFA0D079371544
:10222000014093050040130505C0EF30006185476C
:102230006313F502B71501009385C5CA130584FB26
:10224000A1BCB7150100938505CA69B7B715010090
:10225000938505CA5DBFB7150100938505CAF9BF0F
:102260003719002001449384018613090924114A77
:10227000B387840003850700EFE05F8A11C9EFE0B0
:10228000DF8393192400CA99EFA0702023A0A9002E
:102290000504E31F44FDEF1050496FF0CFBA13055A
:1022A0003005EFE0BF8709C5EFE03F8123A6A18C91
:1022B00013054005EFE09F8619E16FF0CFB8EFE01E
:1022C000CFFF23A6A18E6FF00FB813053005EFE006
:1022D000FF8409C5EFE06FFE23A0A18E1305400522
:1022E000EFE0DF8309C5EFE04FFD23A4A18E1305C6
:1022F0002004EFE0BF8219C5EFE02FFCEFA03019FA
:1023000023A2A18E13058005EFE05F8109C5EFE0F0
:10231000CFFA23ACA18C1305A005EFE03F8009C5DF
:10232000EFE0AFF923AEA18C13055004EFE00FFFEF
:1023300019E16FF04FB1EFE04FF823AAA18C6FF0D5
:102340008FB0014493840186138981B28D49B3878C
:10235000840003850700EFE06FFC19C5EFE0EFF59F
:1023600093172400CA9788C30504E31234FF6FF063
:102370008FAD13053005EFE06FFA19E16FF0AFACE8
:10238000EFE0AFF3EFA0900A23A8A1806FF0AFAB0E
:1023900013050005EFE08FF809C5EFE00FF223A861
:1023A000A18213059004EFE06FF719C5EFE0EFF09D
:1023B000EF20507123A6A18213054004EFE00FF631
:1023C00019C5EFE08FEFEF20F07323A4A18213056E
:1023D0003004EFE0AFF409C5EFE02FEE23A2A182B5
:1023E000EF20605237150100130505BAEFA0B05C6D
:1023F00037150100130585E2EFA0F05B03A501830B
:1024000037140100EFA050272A86AE86130584E713
:10241000EFA0705A371501001305C5E2EFA0B059BF
:1024200003A5C182EF20106CEFA010252A86AE868E
:10243000130584E7EFA0305837150100130505E3B5
:10244000EFA0705703A58182EF20D06DEFA0D022BE
:102450002A86AE86130584E7EFA0F05537150100F4
:10246000130545E3EFA0305503A54182EFA0D0202E
:102470002A86AE86130584E7EFA0F05337150100D6
:102480001305853D6FF02FFB13053005EFE00FE9D5
:102490009307000001C5EFE04FE2AA873E85EF10E9
:1024A00070286FF04F9AB717010003A407C96FF0A7
:1024B000CFF1EF2080336FF00F9913054005EFE067
:1024C000EFE5B714010051C1EFE02FDFEFA0207C52
:1024D0001375F50F1384818708A015C5138584A68D
:1024E000EFA0704D13054005EFA010510C203715DB
:1024F0000100130545CEEFA0104C37150100130560
:1025000085E36FF04FF313056004EFE02FE101CD99
:10251000EFE0AFDA930500002A84EF90907A6354DD
:10252000A00023A48180138584A6EFA0D04837158E
:1025300001001305C5E4EFA010483715010083C55D
:10254000018A130585056FF02FF5138584A6EFA08A
:10255000904637150100130505E6EFA0D04583A589
:1025600041899307000637150100B387B7029385A9
:10257000819A130545E7BE95EFA0F043371501009A
:10258000130545C66FF02FEBEFD21FC8EFE00FB079
:10259000894A1384819A930B0006114C83A7C18842
:1025A0001389C18863C4FA00EFE0AFF28145138557
:1025B000C1B4B9298327090095C7938441898C4008
:1025C0001385C1B4B385BB02A2954929EFF08F846E
:1025D00083270900FD172320F9009C408507B3E7F6
:1025E00087039CC0EF204043EFE01FEDEF10F01990
:1025F00075B7EFD2FFC31385C1B449206FD09FC513
:10260000EFD21FC33754004093055052130504C046
:10261000EF30900739C19387812283A607080356BC
:1026200044C083A547081387160042061377F703B3
:1026300041826306B700BE9690A223A0E70883A755
:10264000C1983755004093874706930550521305AC
:1026500005C023A2F18CEF30F006375400409305FB
:102660006062130504C0EF30300219C59305606243
:10267000130504C0EF3010056FD0DFBDEFD25FBB94
:102680009307C559232AF548B71501009307001091
:102690002A84232CF5482310050023010500938587
:1026A000451F1305C549EFA0504E85472300F46A26
:1026B00083A7C1989387077D232EF4686FD09FB9B5
:1026C000EFD21FB4130A452341112A845285AE89E3
:1026D000EF40107D71E54E85EFA0304C9307C44765
:1026E00001493EC4130BE002B71B0100371C010077
:1026F000B38AA900B71C0100371D0100930D54488F
:10270000A2455285EF508000AA843DE183075448DA
:10271000A5C3E38767FF8347444813F767006DF35A
:10272000032644490307060011E36E860327446A23
:1027300005094209135909011DE3C18B95CF938502
:102740004C085685EFA0B03CCE8513058D08EFA050
:102750009026CE852285AD3729ED23800A00832778
:10276000446A09476398E7028317846AE39A27F962
:10277000268541016FD09FAC93854BCD328532C603
:10278000EFA0D04269DD3246CE851305CC09EFA01B
:102790009022F1B70547E395E7F62314246B8DB734
:1027A000AA84AA85371501001305050BEFA0B020F8
:1027B000C1B7AA8475BFEFD2BFA741112E85B285DC
:1027C00032C6EF40F06D2A84324601E93715010028
:1027D000B2851305850CEFA0101E228541016FD034
:1027E0007FA7EFD2FFA441112E85B28532C6EF40FC
:1027F000F07132468307960091E3114541016FD095
:102800007FA5EFD2FFA2117191672A84938707A356
:102810001306B00F814548003EC0EFD07FA48A85E3
:102820002322046A2285EFF0BFE911616FD09FA2D5
:102830003C218DEFEFD2DF9F930545002A840145AF
:10284000EF409029AA8509C9371501001305C50372
:10285000EFA070166FD01FA037150100814513053A
:102860000506EFA0501585473CA0EDB78280A30078
:1028700005002301050082803C2199C385471CB1D6
:1028800082801C3199C3A30005008280EFD25F9A39
:10289000411174001305852502C6EF40703C19C52F
:1028A000371501001305C519EFA0F010324541019D
:1028B0006FD05F9A3C21A5CFEFD29F9741112EC6D2
:1028C000130485250DCE371501001305050EEFA065
:1028D000900EB24505462285EF401022AA8511C907
:1028E0003715010013050510EFA0F00C41016FD062
:1028F0007F963715010081451305C511F5B73715CA
:1029000001001305C513EFA0100BB245294622851F
:10291000EF40901EAA8511C5371501001305051655
:10292000E1B73715010081451305C51775BF8280D2
:10293000EFD21F9085473CB10146EFF0BFF76FD053
:102940007F91EFD2FF8E2E85EF40F06201C9AA85FC
:102950003715010013050500EFA0F0056FD09F8F1C
:10296000EFD21F8D3C2195CF2A8437150100130526
:10297000051DEFA05004832504263715010013051B
:1029800045B2EFA050031305F002EFA0F006832537
:10299000442637150100130585FBEFA0D0016FD049
:1029A0007F8B371501001305451EEFA0D000C5BF72
:1029B000EFD21F882E852E84EFA0301EAA849305A7
:1029C000E0042285EFA0F01A15ED1385F4FF22959F
:1029D000B5471CB1A9473CA1A3010500371501006B
:1029E000130585AEEFA0207D371501001305850185
:1029F000EFA0607C371501001305853DEFA0A07B9B
:102A00006FD05F859305A002EFA0B0167D15C9B702
:102A100091E98347056A8DC383A7C1980327C569D8
:102A200063ECE7003C212300056A99E7EFD25F8061
:102A3000EFF01FE06FD01F828280EFD26FFF930410
:102A400085252A842685EF40B0392685EF4010443D
:102A500023000400A30104006FD0CFFFEFD24FFD8D
:102A6000370400208347C45605498DC7AE84B71587
:102A700001009385851B2685EFA050131DE51305E6
:102A8000C456A685EFF0DFF21304C4563C3091C75C
:102A9000EFE05FB84A856FD0EFFB371501001305F3
:102AA00005BAEFA040710149F5B71305C456EFF020
:102AB000DFF8371501001305C51BEFA0C06FD9BFA4
:102AC000EFD20FF709472322E56A2314B56AB285CE
:102AD000EFF01FBF6FD00FF8EFD28FF5854723229D
:102AE000F56A2A84EFF0DFBD8315846A371501008B
:102AF000130585FBEFA0206C0355846A6FD08FF51A
:102B0000EFD20FF39305F0021305C549EFA070064D
:102B1000133515006FD00FF4EFD28FF11305C549AF
:102B2000EFA0B0066FD00FF3AA87038507006305F7
:102B3000B50001CD8507D5BF2E8581C9238007004B
:102B40008507038707007DFB05458280EFD24FEEA6
:102B50009305F0021305C549EFF01FFD6FD08FEF0D
:102B6000EFD20FED2E849307C549B71501003E85BE
:102B70009385C50DEFA0007EA285EFA0A07D6FD04C
:102B80006FEDEFD2EFEA2A84EF103046EF10505489
:102B900013058425EF40902FA3000400EF10904F01
:102BA0003715010013050503EFD05FCB6FD08FEA17
:102BB000EFD20FE5939A2600330B56013971832427
:102BC0000B00BA89330755012E893E8C0C4383478D
:102BD00001082A8A268542CAC68C3ED032C2EF90AE
:102BE000C02612468A0933073A01B30736018043EB
:102BF0000C432AC422853EC20A0CEF900025B3077D
:102C00008901B30B8A0183A50B002AC68843EF9084
:102C1000B0458327C900A2452AC83ED48327CA00ED
:102C20003ECCB7070080BD8C3D8CB307590188436B
:102C3000EF909043B30739012A8DB2458843EF9056
:102C4000B042AA8DEA852685EF90D018EE852AD667
:102C50002285EF903018B257AA853E85EF90E01E8E
:102C6000EE852AD62685EF90F016EA85AA8D228574
:102C7000EF905016AA856E85EF90103FB257BE8533
:102C8000EF50304D930500002A8DEF90F00B63500C
:102C900005026A85EFA0401EB717010003A6871F33
:102CA00083A6C71FEF70605FEFA0C0272A8D8257F1
:102CB00099CF6A85EFA0401CB717010003A6871FB4
:102CC00083A6C71FEF80700DEFA0C0252A8DC247D5
:102CD000139517000581EFA0201A2AD02ED26A85FD
:102CE000E685EF90300FEFA0201902569256EF5074
:102CF000102EEFA02023AA8DEFA00018B717010017
:102D000003A6072083A64720EF8040326346051CB8
:102D10006E85EF50B016EF909077931D050193DD0F
:102D20000D0163930D00854D6E85EF90B07BAA8CED
:102D3000AA856A85EF9000482A8D4245E685EF9086
:102D40006047E2452AC82255EF901032E685EF90A1
:102D500060462AD46A85EFA02012B716010003A6A8
:102D6000862083A6C6202ACC2ECEEF8080376247ED
:102D7000F2473A86BE86EF80C036B71701002A8632
:102D8000AE8603A5072183A54721EF801001EFA0A0
:102D9000601903A70B009C00E29723A8E7FE032716
:102DA000CA00AA8C054A3ADE980056973ACC980099
:102DB0004E97814B3AD03E8C93170A01C18363F33F
:102DC000B711E14763CC7709EA852685EF9090003B
:102DD000AA89E6852285EF90E07FAA854E85EF904F
:102DE000C006AA89E6852685EF90C07EAA84EA857A
:102DF0002285EF90207EAA852685EF90F026138805
:102E00001B00931B8801AA8493DB8B414E84A2454F
:102E10002685050AEF906003E247B24523A8A7FE86
:102E20002285EF9080028257C24523A8A7FE032582
:102E30000CFFEF9080012328ACFEA2557255EF9055
:102E4000C0002ADE0818EFE06FC352475C01741817
:102E500030184C180818EF00E059B9BF5285EF90B0
:102E60007068EA85EF9000772A84EF50E078AA89AD
:102E70002285EF50700D83270B0037070080AA8A48
:102E8000B3CBE7009247CE855E858043EF90807498
:102E9000AA84D6852285EF90E073AA852685EF80E7
:102EA000D07AD685AA845E85EF90C072AA8ACE8534
:102EB0002285EF902072AA855685EF90F01A2A8419
:102EC000814BB1B752475C019306C90013068900D4
:102ED000930549004A85392B21616FD02FB6EFD277
:102EE0002FB22A84485D4111AE8B328BEF90F06B8C
:102EF0002A89284083298404EF90306B2A8C4E85E0
:102F0000EF90505E93050000AA8CEF90C0556300CF
:102F1000051ECA854A85EF90E06BAA84E28562852A
:102F2000EF90406BAA852685EF901014EF90D07437
:102F30002A8A6685AE8AEF9030742A86AE86EF7054
:102F4000C0352A86AE865285D685EF701028EF9060
:102F5000707DEF50205DEF90704DAA846840EF9037
:102F6000D064AA8A33053041EF90D0579305000012
:102F7000AA89EF90404F630F0516D6855685EF90CE
:102F800060652A8ACA854A85EF90C064AA85528501
:102F9000EF90900DEF90506E2A8D4E85AE8DEF9094
:102FA000B06D2A86AE86EF70402F2A86AE866A857F
:102FB000EE85EF709021EF90F076EF50206C032AB1
:102FC0000401EF90B046B3099A403385A940635F8E
:102FD000050A930500006685EF90E048630F051031
:102FE0006685EF9070692A86AE862A8DAE8DEF7069
:102FF000C02A2AC452852EC6EF90305BEF90D0676E
:103000002247B2472A86AE863A85BE85EF80600D9C
:103010002AC42EC66285E285EF90C05BEF90D06532
:103020002247B2472A86AE863A85BE85EF80E056B3
:103030002A8CAE8C5685D685EF90C059EF90D06320
:103040002A86AE866285E685EF702025B7170100D7
:1030500003A6872783A6C7272A8CAE8C6A85EE85B0
:10306000EF8020082A86AE866285E685EF70F0152F
:10307000EF90506BEF50004BEF90503BAA8463539E
:1030800005008144014563E34401D284996773904C
:10309000078083470405E207E187B1E344C8AA94A7
:1030A000DE8504CC4A85EF90E052EF50A047EF90C8
:1030B000103E930780076374F50013058007DA85D7
:1030C00028C04A85EF900051EF50C045EF90303C4A
:1030D000930780076374F5001305800768C099673C
:1030E000938787087390078041016FD02F95130550
:1030F000000085B513050000C9B5130500009DBF8C
:10310000EFD20F934111AA842E8532C6EF90804CE6
:103110002A84A6852685EF8050533246B285EF90EB
:10312000604BAA852285EF902074EF50B0024101D8
:103130006FD04F92ADC925CAEFD2EF8D2E8403A96F
:10314000C5020854B284CA85EF90E03121C183479B
:103150009403B9E703AA84024A85D285EF906036CA
:103160006350A00448581058B7090080D2853345F1
:103170003501EFF0FFF8AA854A85EF90E03C6359EE
:103180000500485408D48547230CF4026FD0EF8B18
:10319000485810588C5433453501EFF07FF6DDB7B1
:1031A00023242403CDB78280EFD2EF869387018D4D
:1031B000982319677310078003C9118D13078708B7
:1031C0001379F90F73100780982333072741318B48
:1031D0000DCF8023014675143D888149138A012E45
:1031E000930A4005630324036204618411E04144AF
:1031F0007D141374F40FB3045403CE85D294268542
:10320000EFF05FF34E86A689F1BF6FD00F8435C50E
:1032100083479503BDE3EFD20F80032A850283A97C
:103220008502AE842A84CE855285EF90E031635BBF
:1032300005024858105837090080D28533452501CA
:10324000EFF01FECAA854E85EF900030635E05001D
:1032500080548854A285EF90002109C5854780D409
:10326000238CF4026FC07FFE485810580C5433452D
:103270002501EFF0FFE82A84E9BF8280EFC2BFF9A1
:1032800003C4118D81441374F40F01459389012EF9
:10329000930A4005414B9387018D9C236304F402FC
:1032A0003309540305046204A68561844E994A8655
:1032B000EFF0FFF563136401014426851374F40FE6
:1032C000CA84D1BF0146A685EFF07FF46FC0FFF737
:1032D000EFC29FF383C4118D4111E204E1840144E4
:1032E0009389012E130A4005C14B9387018D9C23BE
:1032F0006389F404338944034E9905CC83478403DE
:1033000081E78347890395C7B3874403832A44022F
:10331000D685CE978857EF80F0692AC60854D6859F
:10332000EF8050693246AA852285EFF05FBB230CFF
:1033300004028504E204E1846393740181444A84B5
:103340006DB70DCC44502685EF901033B7170100B0
:103350002A86AE8603A5072883A54728EF70E06676
:10336000EF90503C2AC60854A685EF80B0643246E0
:10337000AA852285EFF0BFB6230C040241016FC07D
:103380003FECEFC2FFEAEFF03FE2EFF03FEFEFF08C
:103390003FF46FC03FEC2388018CA388018CB717E2
:1033A00000209387072623A0070023A2070023A459
:1033B000070023A607009387012B1307000098C37B
:1033C000D8C398C7D8C723A4E18C82809386118D77
:1033D0001387018D8C2210231376F60F630BB60032
:1033E0009C2293F7F70F14236385D7008507BD8BC5
:1033F000DDBF8280EFC2DFE0BA8C3E8B9387018D08
:103400009C2359711387018D8507E207E1873EC62A
:103410003ACA3247C147AE8BB28936896313F70087
:1034200002C69387118D9C233247631BF7002AC87D
:10343000EF401079EF10405EEFE00F884245D5B7BE
:103440009384012D8C40084137140100138A012D0B
:10345000EF904018832504A9EF80301FEF50002221
:10346000EF90C07CCC40AA8A03A50B00EF90801699
:10347000832504A9EF80701DEF504020EF90007B62
:103480008C44AA8B03A50900EF90C014832504A9DE
:10349000EF80B01BEF50801EEF904079CC442A8C17
:1034A00003250900EF900013832504A9EF80F0198C
:1034B000EF50C01CEF908077B717002013870726C6
:1034C000584722C83ED42A89938907266304E50A0F
:1034D00083C7018A138701968A07BA978C4303A58D
:1034E0008181EF80107E6356A0023715010013051D
:1034F00085A623A62901EF90104C3715010013056E
:103500008523EF90504B371501001305853DEF9053
:10351000904A83A7C900B307F94013D5F741A98F93
:103520003385A740EF90007CB717010083A587C6BD
:103530002A840325CA00EF90E009AA85EF80F010E5
:10354000AA852285EF80F0776356A0023715010027
:10355000130585A623A62901EF90F0453715010034
:1035600013054525EF903045371501001305853DBE
:10357000EF907044D24713074005802383A50900CC
:103580009387012E1374F40F3307E4029384012E02
:10359000BA97238807042380070263D5BA0005473A
:1035A0002380E70203A5490063DDAB001307400554
:1035B0003307E40226978347070293E72700230097
:1035C000F70283A68900635DDC001307400533071B
:1035D000E40226978347070293E747002300F70298
:1035E00003A7C900635DE900130640053306C40262
:1035F00026968347060293E787002300F602B387E7
:10360000BA4013D6F7413348F6003308C840338632
:10361000AB409357F6413D8EB306DC401D8E93D7E9
:10362000F641BD8E3307E9409D8E9357F7413D8F9C
:103630001D8F83A7C18093084005B3081403330787
:10364000F70293074006A69823A0080123A2C8000A
:1036500023A4D800B347F702368723A6F80063D324
:10366000F6003E876347C7786346070163D5D700F6
:10367000B68711A0C287130740053307E4029546B9
:1036800026971CCB63FBF65C83A7818A7CC78347A4
:103690000B00A300F7026388BA000146C145371545
:1036A0000140EF40501493074005B307F402A6977A
:1036B000DC4399C70146C14537150140EF40B012C0
:1036C00093074005B307F402A6979C4799C70146A4
:1036D000C14537150140EF401011130B4005330B66
:1036E0006403269B8327CB00639C075603AB818E24
:1036F000E6855A85EF80F05C6343A000668B03A5E6
:1037000009003385AA40EF90E05D83250A00EF8031
:10371000702AAAC82AD003A549003385AB40EF9090
:10372000605C83254A00EF80F028AACA2A8D03A591
:1037300089003305AC40EF90E05A83258A00EF8082
:103740007027AACCAA8C03A5C9003305A940EF9025
:1037500060598325CA00EF80F025AA8903A5C1809E
:10376000EF904058AA854E85EF80D066B7170100CC
:1037700083A587C6EF80102493074005B307F402A2
:10378000AACE15478256A69790436368C74ED0438A
:103790006365C74E90476362C74E0605058188DBA7
:1037A00093074005B307F402371A010003258AAADC
:1037B000A69783AC0703E685EF80D01FDA85EF80FC
:1037C0007061D2471387118D9C23182352D0AA8988
:1037D000998F93F7F70F13FBF7003ECC1307EBFF1E
:1037E000954763ECE706EF902069B71701002A863A
:1037F000AE8603A5072283A54722EF70001DB717E9
:10380000010003A6872083A6C720EF601029EF40A0
:10381000F03BEF80A0562A8A03A5418E637FAA025F
:1038200033054541060533556503EF900058C247FF
:1038300083A507A9EF806061EF4050642AD25285CA
:10384000EF90A0569255EF804060B7170100AA850F
:1038500003A58721EF801016AA89130A4005330AB1
:103860004403CE856685EF80F056AA8D014D269AD9
:103870002322AA0203250A01EF902053CE852A8B2A
:10388000EF805055EF40104AEF9060408257370765
:103890000080232EAA0203AA87AA9347F7FF3717AF
:1038A00000203ED6930707252AD23ED89C083387AE
:1038B000A7010C434E85EF80F0519C103387A70180
:1038C000B25708C33377F500C257BA853ADEB386DC
:1038D000A7019442368536DCEF801047635005021D
:1038E000E25672573685BA85EF80D00CD2852ADC35
:1038F000EF80303D6344A00062573A8A110DC14702
:10390000E316FDFA8257528583A587AAEF80D0433C
:10391000635405049309010603A50900D2859109A2
:10392000EF80504B23AEA9FE9C18E39737FF930915
:103930004005B3093403D2856E85EF80B049A6995E
:1039400023A2A9021255EF904046D285EF809048FD
:10395000EF90E03323AEA902130A4005330A440373
:10396000E6855A85EF801005AA89269A832D0A00DC
:1039700063930D3483274A00639F073283278A00AD
:10398000639B073283A5C18EEF80D044EF4090390E
:10399000EF90E02F2324AA04130A4005330A4403BE
:1039A000269A03258A04EF904040CE852A8BEF802B
:1039B0007000232AAA025A85EF90004CB717010025
:1039C00003A6872283A6C722EF70A071EF80803400
:1039D000C247232EAA0003A5818D83A507A9138DB5
:1039E000818DEF80303FC2472A8A03A5C18D83A510
:1039F00007A9A65CEF80103E93951C008581AA89DB
:103A0000EF8090349387C18D3ED263590500D285F3
:103A10004E85EF80102B6343A0004E8AC24703A55A
:103A2000418D83A507A9365BEF80D03A93151B0023
:103A30008581AA89EF8050319387418D3ED66359A5
:103A40000500D2854E85EF80D0276343A0004E8AC3
:103A500093074005B307F402D285A69783A94702CE
:103A60004E85EF8010266343A0004E8AE2471387FD
:103A7000818CB98B3AC8D289638C071283290700DD
:103A80004E85EF90603FB717010003A6072383A67A
:103A90004723EF70C04E635CA0349387012B8C43A7
:103AA0000655EF80705CEF90203D9387012B2AD85C
:103AB0002EDA1655CC43EF80305BEF90E03B2A8640
:103AC000AE86EF7000624258D2582ACC4286C68633
:103AD00042852ECEC685EF70C060F24762472A86C7
:103AE000AE863A85BE85EF60407BEF40105BEF907D
:103AF000604393074005B307F402032D0D00AA8528
:103B00002AD86A85A697DC533ECCEF80F023635C0D
:103B1000052C42576A85BA85EF80C0692A8D938744
:103B2000012B8C476685EF8030549257931C15000B
:103B300093DC1C009C43E6853E853ED0EF80D02080
:103B4000635E05008257E6853E85EF80A066EA85C4
:103B5000AA8CEF8010176343A000668D9387012B1A
:103B6000CC475A85EF805050B257131B1500135B9A
:103B70001B0083AC0700DA856685EF80F01C635D6F
:103B80000500DA856685EF80E062EA852A8BEF80A2
:103B900050136343A0005A8DE2456A85EF8090235D
:103BA0002A8BAA854E85EF80301A63430500DA8997
:103BB00093074005B307F402A697C85B23A6370313
:103BC000905BB717010083A5C721B70700803D8D23
:103BD000EFF00FD3CE852A8BEF80B00E6343A000A9
:103BE000DA89930740053304F4025A85A294C05041
:103BF00023A43403A285EF80D00C1345F5FF85473D
:103C00007D814146A38CA402238CF4028C10138581
:103C1000012BEF90204FC247A285528580C3EF80D1
:103C200060592AC8A2854E85EF80C0584246AA85B1
:103C30002685EFF0CFAA52471C8641468C001CA374
:103C4000A257D6C0DEC213850726E2C4CAC6EF90CB
:103C5000604BEFF00FF3EF00004465616FC00FDEC3
:103C60000146C14537150140EF40E0378327CB00BF
:103C7000E38E07A603AB018EA5BCB6853685EF8023
:103C80007015AA89EA856A85EF80D014AA854E85C9
:103C9000EF80A01BAA89E6856685EF80B013AA8510
:103CA0004E85EF80801AEF40F04A93074005B30736
:103CB000F402A697EDB4930C4005B30C940383A5CE
:103CC000C18C4E85EF801011EF40D005EF80307C25
:103CD00003AA012C138D012CA69C23A4AC04EF9005
:103CE000C00C2AD26E85EF80F07F9257AA853E8560
:103CF000EF80500EDA85EF80E04BAA8D5285EF9071
:103D0000C00AAA856E85EF80C07B6354A00023A4FF
:103D10004C05930C4005B30C9403032A4D00A69C5C
:103D200003A58C04EF906008AA8D03A54C00EF80DA
:103D3000707BAA856E85EF80F009DA85EF80804779
:103D4000AA8D5285EF906006AA856E85EF80607718
:103D50006354A00023A44C05930C4005B30C9403BA
:103D6000032ACD00A69C03A58C04EF900004AA8D25
:103D700003A5CC00EF801077AA856E85EF809005B3
:103D8000DA85EF802043AA8D5285EF900002AA8544
:103D90006E85EF8000736354A00023A44C05930C40
:103DA0004005B30C9403032A8D00A69C03A58C0444
:103DB000EF80B07F2A8D03A58C00EF80B072AA85BA
:103DC0006A85EF803001DA85EF80C03E2A8B52850C
:103DD000EF80B07DAA855A85EF80A06EE35EA0BA21
:103DE00023A44C0555BE825703AD87AA0DBBD289CB
:103DF000C1B3E3410689B2876FF0FF87EFC2AFC15D
:103E00009384012D08412E8A8C40411136C432C65C
:103E100037190100EF80007C832509A9B71900201C
:103E200013840926EF806002EF405005EF80106098
:103E3000CC4008C003250A00EF80C079832509A97A
:103E4000EF80A000EF409003EF80505E32468C443C
:103E500048C00842EF800078832509A9EF70F07E02
:103E6000EF40D001EF80905CA246CC4408C4884269
:103E7000EF804076832509A9EF70307DEF40100078
:103E8000EF80D05A48C49306C400130684009305FB
:103E9000440013850926EF00F0171307000023A440
:103EA000E18C9387012B98C3D8C398C7D8C7410129
:103EB0006FC0AFB9EFC2CFB783A5812D08413714CA
:103EC000002013040426EF80E070B717010083A5DB
:103ED00007A9EF709077EF40607AEF80305508C403
:103EE00013058400EF0090156FC0CFB6EFC24FB43A
:103EF00083A5C12D08413714002013040426EF8048
:103F0000606DB717010083A507A9EF701074EF402B
:103F1000E076EF80B05148C41305C400EF00D01321
:103F20006FC04FB323ACA1808280EFC2CFAE3719F0
:103F3000002001449389012C130909249384012D45
:103F4000414AB30789008843B38A8900EF80F0654E
:103F5000B38784008C431104EF80C067EF80305337
:103F600023A0AA00E31F44FD6FC02FAE83C6018DBE
:103F700083C7118D93F7F70F6388D70083C7118D1F
:103F80008507BD8BA388F18C8280EFC26FAA9387CF
:103F9000618F9C2393F7F70F1389618F9384718F3F
:103FA0001384818F91EB9C2093F7F70F91E71C20EE
:103FB00093F7F70F6385070C37150100130585A6E6
:103FC000EF90601F371501001305C529EF90A01E63
:103FD0008347090093F7F70F8DC7B717002003A594
:103FE0000728EF80305083A5012DEF80A01CEF80C3
:103FF000B0682A8637150100AE861305C52AEF90F2
:10400000801B9C2093F7F70F95C7B7170020938765
:104010000728C843EF80104D83A5412DEF808019FC
:10402000EF8090652A8637150100AE861305452B73
:10403000EF9060181C2093F7F70F95C7B717002073
:10404000938707288847EF80F04983A5812DEF806B
:104050006016EF8070622A8637150100AE86130560
:10406000C52BEF904015371501001305853DEF90E6
:1040700080142300090023800400230004006FC083
:104080006F9D238B018EA38B018E238C018E8280EA
:10409000238EA1808280EFC2AF998545370500400D
:1040A000EF1090466FC00F9B2967130707C49387D3
:1040B000018F636DA7041567130707E2AA8563796B
:1040C000A7048981114737450F001305052433459F
:1040D000B50298A3930730064205418163E5A70422
:1040E000EFC20F95371501004111130585282EC623
:1040F000EF90600CB24537150100130585FBEF907A
:10410000800B1305400641016FC0CF94BA8555BF9F
:104110000967130707716376A700935515000947D0
:104120005DB705474DB782807971854537050040F9
:1041300022D626D44AD24ED052CE56CC5ACA5EC8C7
:1041400062C666C46AC26EC0EF10B03F6303054426
:10415000854537050040EF10504083A741921384F6
:10416000419299EF83C6018D83C7118D93F7F70FA5
:104170006398D72E9305007D37050040EF10703B04
:104180001C406388074083C707022388F190858B12
:104190001389C1909389019193840182638C0732C2
:1041A00005469305000237150140EF30D063FD57F7
:1041B0009CA083C7C181A1CB37150140930500089E
:1041C000130505C0EF10606783C6C18593874190D2
:1041D0003387A6403337E0006386A60294239DC24E
:1041E000144090426350C0023716002083250627F2
:1041F000944A371600202320B6288545238BB18E9C
:104200002320D90098A383C70900898B638E072CCC
:10421000371A014005469305000413050A80EF3064
:10422000905CFD579CB083C7C181A1CB9305002052
:1042300013050AC0EF10606083C6D1859387519043
:104240003387A6403337E0006388A60294238DC6E7
:10425000104054426352D002B716002093860627BE
:10426000CC42B716002093860628CCC28545A38B86
:10427000B18E144A2320D90098A383C70900918BDB
:1042800063800728371A01400146916513050A80AB
:10429000EF307055FD57BCA083C7C181A1CB9305FA
:1042A000004013050AC0EF10405983C6E18593878B
:1042B00061903387A6403337E0006388A6029423D9
:1042C0008DC6104014466352D002B7160020938664
:1042D00006278C46B7160020938606288CC685458F
:1042E000238CB18E144A2320D90098A383C70900D8
:1042F000A18B6382072237150140054685451305CA
:104300000580EF30504EFD57B7190140BCB0014A4F
:10431000938B09C0B71A00208387018F184063561A
:10432000FA209387819194431843369798C3635B2F
:10433000E002054691455E85EF30F04A14409387D0
:1043400081919843944A01469145158F98C39C20CA
:1043500013870A271443E207E187B6975E851CC3DB
:10436000EF30704818409387C19194435843369773
:1043700098C3635FE0020546930500081385098032
:10438000EF30704614409387C1919843944A014698
:1043900093050008158F98C39C3013870A27544350
:1043A000E207E187B697138509805CC3EF30B0431D
:1043B00018409387019294431847369798C3635DDA
:1043C000E0020546C14513850980EF30D041144015
:1043D000938701929843944A0146C145158F98C32B
:1043E000BC2013870A271447E207E187B697138595
:1043F00009801CC7EF30303F1840938741919443A8
:104400005847369798C3635DE00205468945138592
:104410000980EF30503D1440938741919843944A6E
:1044200001468945158F98C3BC3013870A27544726
:10443000E207E187B697138509805CC7EF30B03A91
:1044400083270900184085072320F90083270900E6
:10445000184B63FCE70C050A620A135A8A416DBDCA
:1044600003C7118D93074005B387E7023717002074
:10447000130707D0BA97CA3F05472388E704238864
:10448000E7041CC023A00190EFF01FC22399A18E66
:104490000387018F2394E1901C4003D50704239ADE
:1044A000A18EEFF07FC023AEA18EAA853705004014
:1044B000EF1030081C409C4B8583B307F04023ACC1
:1044C000F19023AEF19023A0F19223AAF19023A6BC
:1044D00001907DB101469305000237150140EF3090
:1044E000903085479CA005B33715014001469305E0
:1044F000000413050580EF30102F85479CB0B5BB35
:10450000371501400546916513050580EF30B02D44
:104510008547BCA0E1BB3715014001468545130521
:104520000580EF30502C8547C5B31840832709001C
:10453000544B63EFF606504F83A6C18F9384C18F0F
:10454000B387C602B396C602E183505FA206D58F39
:104550003443B697C207C183239AF18E1387418FE4
:104560006373F60012A30A23EFF01FB4AA89AA8589
:1045700037050040EF10E07B88404E9588C018401A
:1045800083270900184B63E6E70023200400EFF0BF
:10459000FF9D3254A25412598259724AE24A524B38
:1045A000C24B324CA24C124D824D456173002030FB
:1045B00083270900144F63F2F604544F83A7019038
:1045C0007843938401903385D702B397D7026181F2
:1045D000A2075D8D9317050103D5418FC183637BCE
:1045E000F500131507014181E370E5F81315070184
:1045F00041819DBF1D8D4205FDB783D5218F3705B4
:104600000040EF10007383D781901387018F1CA3A4
:10461000BDB7EFB2FFC101112A8485450545EF10F2
:10462000C047930730024C08370500403ECAE0847B
:10463000231D0100EF10A0620546854537050040A7
:10464000EF10006E9307C0127C8685475C87680078
:1046500085473EC8EF10C02005616FB0BFBFEFB205
:104660003FBD930500023715014037140140EF307C
:10467000D01A1305048093050004EF30101A1305B7
:1046800004809165EF307019130504808545EF3083
:10469000D018C14537150140EF3030180546C145E7
:1046A00037150140EF303014C14537150140EF3068
:1046B000D0160546C14537150140EF30D012C1452F
:1046C00037150140EF3070150546C14537150140DB
:1046D000EF307011C14537150140EF301014054619
:1046E000C14537150140EF301010130504C0930584
:1046F0000008EF3010150546130504C093050008A7
:10470000EF30700E130504C093050020EF307013D6
:104710000546130504C093050020EF30D00C1305A7
:1047200004C093050040EF30D0110546130504C0C6
:1047300093050040EF30300B130504C09145EF3076
:10474000D00D130504C001469145EF30D009054650
:10475000C14537150140EF3010091305048093055A
:104760000008EF30900B1305048001469305000804
:10477000EF3070070546C14537150140EF30B006F0
:1047800013050480C145EF3050091305048001462C
:10479000C145EF3050050546C14537150140EF30A2
:1047A0009004130504808945EF3030071305048019
:1047B00001468945EF3030030546C14537150140B4
:1047C000EF30700213054006EFF0BFE48545370572
:1047D0000040EF1060530547238EE180996793876F
:1047E0008708739007806FB0FFA6EFB27FA403C75E
:1047F000018D83C7118D93F7F70F6395E70083A7AA
:10480000419299C7EF30D03B012CEFC0FFCAC5B72A
:104810006FB05FA41967731007800841B7170020B5
:104820009387072788C38C4113078708CCC310429E
:1048300090C79442D4C773100780828099677390A1
:1048400007801441371700201307072714C79387E1
:10485000870873900780828099677390078014415E
:10486000371700201307072754C7938787087390CB
:10487000078082809967739007801317250037158A
:104880000020130505273A95084193878708739000
:1048900007808280EFB2DF99EFF03FF50546C14512
:1048A00037150140EF3020740546C14537150140EA
:1048B000EF3060730546C14537150140EF30A072F7
:1048C0000546C14537150140EF30E0716FB09F9844
:1048D000EFB21F96814537050040EF10E04203C755
:1048E000018D83C7118D93F7F70F639BE700854513
:1048F0003705004023A20192EF1000416FB09F9551
:10490000EFF0CFE6E9BFEFB2BF9283A5C182B71740
:10491000010003A50758EF70F00923ACA1926FB016
:104920007F936355050003C541938280938701956A
:10493000AA9788238280EFB21F8E41112A849DC5D9
:1049400037150100130585AE2EC6EF80D006B2459F
:104950003715010013058505EF80F00537150100B7
:1049600013058530EF803005EFC09FAE4567930695
:1049700047588547130747587D4683994600635E2D
:1049800034059386F7FF8A068A07BA96BA97839406
:1049900026000395270003990600058DEF808034DB
:1049A0002A8A33052441EF80E033AA855285EF70CF
:1049B00070422A8433852941EF80C032AA8522853E
:1049C000EF70407F2A842685EF80C031AA8522853A
:1049D000EF70A04741016FB05F8785079106E39EA6
:1049E000C7F813050000FDB7EFB29F8403A5C19679
:1049F0008145EFF05FF423A0A1961307000023A2E6
:104A0000E1969967739007802380019493878708C4
:104A1000739007806FB01F8483C7019493F7F70FDB
:104A2000638C071AEFB24FFEEFF01FFC83A40196D0
:104A300003A90197138441954A85EF80A02AA68592
:104A4000EF709062B717010083A587C9AA89EF703C
:104A500050276352A00685471CA0B717010003A486
:104A6000075803A5C19413890195EF80A027A68557
:104A7000EF70902D6359051403A58183EF80802684
:104A8000A685EF7010246350A0142285EF80001AD1
:104A900005852300A90093874194984383A6C19874
:104AA000998E0567130777BB6375D70003A7C19875
:104AB00098C36FB0EFF8B717010083A5874A4E85FA
:104AC000EF709028634405006317090085471CA018
:104AD0001304000079B71C201389C19299C793076A
:104AE00000002320F9002300040083A501834E85E4
:104AF000EF70502E832509002A8A4E85EF70E0342E
:104B000003A4C193AA89A285EF701024634B05000A
:104B100003A481934E85A285EF70B01A6343A00071
:104B20004E8483A5C182232089002285EF70902ABC
:104B3000138481920C40AA8A2685EF70F05283A5D7
:104B4000818213898194EF70F028EF80E032B717EB
:104B5000010003A6074B83A6474BEF6080582A8BC2
:104B600003250900AE8BEF802031B717010003A6A3
:104B7000874B83A6C74BEF60C0562A86AE865A8500
:104B8000DE85EF508071EF80E039AA892320A900EB
:104B900004C0D6855285EF70402BCE85EF70D04C87
:104BA000930500002A84EF70301AE34305F2B7172B
:104BB000010003A907582285CA85EF709010E352BF
:104BC000A0EA4A8479BD371501001305054C23007E
:104BD0000900EF80405EC1B58280EFB26FE5130738
:104BE000000023AEE19283A5C182B717010003A59F
:104BF0000758EF70205C23ACA19291453715014016
:104C0000EF30A0413715014001468945130505C025
:104C1000EF30003EEF30204D595723A6E194B717EF
:104C2000010003A9874A1384418308408145EFF0BE
:104C30009FD0CA85EF705011635605001C40C11704
:104C40001CC0D5B71307600E23ACE182B717010073
:104C500003A9C7571384019308408145EFF0BFCDE6
:104C6000CA85EF7010066356A0001C40C1071CC027
:104C7000D5B76FB02FDE8280EFB28FDB23A801960D
:104C800023AA0196014691453715014023880194D6
:104C9000EF3060356FB00FDCEFB28FD6397183AA79
:104CA000C19832CA854763DBB70037150100130589
:104CB0000534EF80405021616FB04FD8AA8C371572
:104CC00001001305C536AE84EF80E04EEFF0DFFA49
:104CD00063D90414130700F8238AE192130C000827
:104CE000B717010083AB8732B717010003A8C727A6
:104CF00083A78727130B000042CE3ECCB7170100D5
:104D000003A8473383A70733628442D23ED0B71744
:104D1000010003A8C72083A78720628A42D63ED419
:104D2000B717010003A8C73383A7873356C456C8F3
:104D300002C6054D02C2DA893ED842DA83CD01941B
:104D400093FDFD0F63800D28EFF01FCA63C4040EAE
:104D50009397240013870196BA9783A90700CE85FD
:104D60005A85EF7000766343A0004E8BCE855E853A
:104D7000EF70807D63430500CE8B63010D04E685F3
:104D80004E85EF700074635FA022A24703A7C1980D
:104D90001D8F85679387873863F6E722B3078A40BC
:104DA000858793F7F70F63DA0408238AF19283AAC1
:104DB000C198A247668BB387FA403EC6E6854E850A
:104DC000EF708078014D635F051E03A7C19885676A
:104DD0009387873833075741014D63F5E71E83A753
:104DE000C1983EC492476351F01CA2473247B38733
:104DF0005741338DE700B307F74033848702CD472F
:104E00003344A403529463D0871E63DA04289307C3
:104E1000C00E63C987029307F00F228A63488C0291
:104E20000DA893870195A6971307F00798A3130C75
:104E3000F0077DB583A941961DB713870195269785
:104E40001CA3B5B71304C00E9307F00F228A338456
:104E5000874037150100D28513050538EF80A0354E
:104E600037150100A28513050539EF80C0345E8532
:104E7000EF8080002A8637150100AE861305C539FC
:104E8000EF8060335A85EF70307F2A863715010036
:104E9000AE861305853AEF8000321247894763D505
:104EA000E7106A85EF701064B717010083A5C7A8E3
:104EB000EF7040302A8D2285EF6010726246F24614
:104EC000EF6020222ADC2EDE5A85DE85EF70D019B5
:104ED000EF70907A02569256EF60A0202256B2569A
:104EE000EF6020206257F2572A86AE863A85BE854B
:104EF000EF50B02DEF800003EF7010782A862ADC87
:104F000037150100AE861305453B2EDEEF80A02A43
:104F10006A85EF7070762A8637150100AE86130514
:104F2000053CEF8040296257F2574256D2563A85E7
:104F3000BE85EF60001BEF70F07EAA8B3715010075
:104F40001305C53CEF8020275E85EF70F0722A863E
:104F500037150100AE861305C53DEF80C025DE85FF
:104F60005E85EF60906EEA85EF70C024EF70D070C0
:104F70002A8637150100AE861305853EEF80A023F3
:104F8000DE856A85EF700065B717010083A5C7321B
:104F9000EF704064EF70506E2A8637150100AE86C0
:104FA0001305453FEF802021B3078A00858793F7DB
:104FB000F70F63DD0402238AF1929247E68B6E8D30
:104FC00085073EC2B717010083A5C7C96685EF6094
:104FD000D067CE85EF704057635F0500371501003D
:104FE00013050540F9B1514A5144A5B51387019500
:104FF00026971CA3D9B7424783A7C198998F130757
:10500000007D6377F70463D9040683CD4193371598
:1050100001001305C542EF80001A4E85EF70D06580
:105020002A8637150100AE86130585E7EF80A018A4
:1050300037150100130505CFEF80E0173715010084
:10504000EE85130585FBEF80001783A7C1983EC846
:1050500083A7C19803A7C198BA972247B38757413E
:10506000998F37571200130707F86371F702371546
:1050700001001305454335B993870195A697371568
:10508000010083CD07001305C5CD71B79247524784
:10509000E356F7CA371501001305454519B99307BB
:1050A000B00E63D787001304B00E9307E00F79BBEF
:1050B0009307E00F9DB3EFB2AF972A84EFF0DFBB09
:1050C000EFC0CFCA05E537150100130585AEEF80A7
:1050D000800E37150100A28513058505EF80A00D10
:1050E000371501001305C54DEF80E00CEFC08FC4EC
:1050F0006FB04F96EFB2CF932A84EFF0FFB7EFC0B7
:10510000EFC605E537150100130585AEEF80A00A4F
:1051100037150100A28513058505EF80C0093715F5
:1051200001001305C550EF800009EFC0AFC06FB09C
:105130006F92EFB2EF8FEFC06FC309ED371501002B
:10514000130585AEEF802007371501001305C55301
:10515000EF806006EFC00FBE6FB0CF8F411122C647
:105160003704004085451305044026C44AC2EF00B9
:10517000503D6309050E130504408545EF00F03DE1
:1051800083C7C1831384C18393845195C1E783C7C7
:1051900001959CA095EB0146914537150140EF2004
:1051A00090641C201D4785071CA083C771959384BC
:1051B000619513847195636AF70E45678A07130733
:1051C000472CBA979C438287054691453715014085
:1051D000EF2070610146914537150140EF20B06026
:1051E0000546914537150140EF20F05F3729014012
:1051F0000146854513050980EF20F05E054685458B
:1052000013050980EF20305E0146854513050980AE
:10521000EF20705D98201C20E3E5E7F8ADBF254541
:10522000EF20F04D85471CA09820BD4763FCE702A6
:10523000138701941023938601941376F60F138736
:1052400081959387C19519E60C4323A6B1968C43AB
:1052500023A4B196054690A22380040023200700D2
:1052600023A007003244A2441249410173002030B8
:105270003725014013050540ED2993878195984313
:1052800009852A9798C3894779BF8D4769BF914798
:1052900059BF954749BF994779B79D4769B79C2042
:1052A0002300040085079CA041B7371501001305B2
:1052B00085AEEF705070371501001305452EEF7065
:1052C000906F9DB7EFA2DFF6EF70103BB7170100AC
:1052D00003A6073083A64730EF50B060EF709044CC
:1052E0006FA05FF7EFA2DFF4EF701039B71701007E
:1052F00003A6073083A64730EF50206DEF70904231
:105300006FA05FF5EFA2DFF2EF701037B717010063
:1053100003A6073083A64730EF50206BEF70904014
:105320006FA05FF3EFA2DFF0EF701035B717010049
:1053300003A6073083A64730EF50B05AEF70903E77
:105340006FA05FF173002030EF20C052AA8537159F
:10535000010013050560EF701066EF200052AA856A
:105360003715010013050561EF70F064EF20205040
:10537000AA853715010013050562EF70D06301A0FF
:10538000B71702409843B706FFF84111136717009B
:1053900098C3D84337060200758FD8C39843B70621
:1053A000F7FEFD16758F98C39843B706FCFFFD16F0
:1053B000758F98C3D843B70681FFFD16758FD8C384
:1053C0009843B70600ECFD16758F98C33707FF00AA
:1053D00098C723A6070202C402C69843C166558F28
:1053E00098C3B716024005679C42F18F3EC6A2479C
:1053F00085073EC4B24781E7A247E397E7FEB717A8
:1054000002409C431397E7006357070685473EC653
:1054100032478547631FF704B7170240D843B706E2
:10542000C1FFFD16D8C3D843D8C3D843136707407C
:10543000D8C3D843758FD8C3D843B7061D00558F3E
:10544000D8C39843B7060001558F98C39843931665
:105450006700E3DD06FED843B7160240719BD8C350
:10546000D84313672700D8C32147DC42B18BE39EA2
:10547000E7FE4101828002C661BF01A001A001A038
:1054800001A001A001A001A001A001A001A001A014
:1054900001A001A001A001A001A001A001A001A004
:1054A00001A001A001A001A001A001A001A001A0F4
:1054B00001A001A001A001A001A001A001A001A0E4
:1054C00001A001A001A001A001A001A001A001A0D4
:1054D00001A001A001A001A001A001A001A001A0C4
:1054E00001A001A001A001A001A001A001A001A0B4
:1054F00001A001A001A001A001A001A001A001A0A4
:1055000001A001A001A001A001A001A001A001A093
:1055100001A001A001A001A001A001A001A001A083
:1055200001A001A001A001A001A001A001A001A073
:1055300001A001A001A001A097B1FF1F9381814E9E
:1055400017B10020130101AC17D500001305851217
:1055500097B5FF1F938505AB1386818663FAC50057
:105560008322050023A0550011059105E3EAC5FE3D
:105570001385818697C5FF1F938545FA6377B5002C
:10558000232005001105E36DB5FEFD42739002BCBA
:10559000AD4273904280B76200009382820873A08C
:1055A000023097B2FFFF938262A993E232007390B8
:1055B0005230EFF0FFDC97D2FFFF938222FD739011
:1055C000123473002030EFA2BFC6B7270140938783
:1055D0000740631CF500854513050020F12981452E
:1055E00013050020D1296FA0FFC6B737014093876C
:1055F0000780E31AF5FE85451305004075298145AE
:1056000013050040C5B75C413707F1E01307F7EF1A
:10561000944D7D8F9C41D58FD44DD58FD441A2061A
:10562000D58FD98F5CC11C4537F7F1FF1307D77FA2
:10563000D4457D8F9C49D58F94458606D58FD98FCB
:105640001CC55C55370710FF7D177D8FDC29FD17C2
:1056500093F7F70FD207D98F5CD582801C4589C597
:1056600093E717001CC58280F99BEDBF1C4589C5D7
:1056700093E707101CC5828093F7F7EFE5BF1C4541
:1056800093E787001CC5828008450D8105898280CB
:105690001C4593E747001CC58280084509810589A0
:1056A00082801C4591C537075000D98F1CC5828068
:1056B0003707B0FF7D17F98FD5BFA54763F7B7044C
:1056C0008D47138765FF3307F7020328C5009D4701
:1056D000B397E70093C7F7FFB3F70701B396E60068
:1056E000DD8E54C5994763E3C70495477D1633069D
:1056F000F6025859FD47B397C70093C7F7FFF98FD4
:105700003396C5005D8E50D982800D473387E50200
:10571000032805019D47B397E70093C7F7FFB3F749
:105720000701B396E600DD8E14C96DBFB14763E291
:10573000C702954765163306F6021859FD47B39719
:10574000C70093C7F7FFF98F3396C5005D8E10D958
:10575000828095474D163306F6025855FD47B3979C
:10576000C70093C7F7FFF98FB395C500DD8D4CD502
:10577000828068454205418182809C4513F707017C
:1057800013F8F70001C7D8413368E8008E2113F7FA
:10579000F50F39C318418146854E3D4F930F800266
:1057A00093028004214E3396DE00B3F8C5006311E6
:1057B00016039398260033131F011343F3FF337727
:1057C000E300B318180133E7E800639FF70550C9F9
:1057D0008506E39AC6FD18C11307F00F6375B70479
:1057E00054412146854E3D4F930F80029302800421
:1057F000414EB398CE0033F715016392E8021317B8
:10580000260001173313EF001343F3FFB376D300E1
:105810003317E800D98E639DF701232A1501050689
:10582000E319C6FD54C18280E39457FA10C94DB7FD
:10583000E39757FE23281501DDB708456D8D3335F5
:10584000A00082800CC982804CC98280AD67373746
:1058500000409387A7AA1CC3828023ACA1968280B4
:10586000938781979443182181E63C21920721A8D0
:1058700094430546639FC6023C211031920763148E
:10588000D60093E707F8B7E600E093F7F70FBA966C
:105890002380F6408546935757003397E6005441DE
:1058A000A5C2938707048A07B7E600E0B69798C3B6
:1058B00082808C4389466391D50214313C21636513
:1058C000D6008A06B6975DB79386E6038A06B69732
:1058D00093F7F70F920775B790438D46631CD60078
:1058E00014313C216364D6008606E9BF9386C6075F
:1058F0008606F1BF94439147E39EF6F81C31BDB78D
:10590000938707064DB7371702405C439146B18B2A
:105910006385D700A1466382D706B7177A009387BD
:1059200007201CC1371602405C42370700201307CE
:1059300007049183BD8BBA9794231C41B3D7D7003A
:105940005CC15442A1829D8ABA969422B3D6D700F4
:1059500014C55442AD829D8A36971823B3D7E70009
:105960005CC5584239839376370013874184369754
:105970001823B3D7E7021CC982805C435843C16631
:10598000C983758FB7F6FF1F83A6C670BD8B8907C5
:105990001396160163480600C54601466392D70276
:1059A000C94739A88946638FD702BD46638ED7029F
:1059B000C146638ED702C54601466393D700C147EF
:1059C0001DEF3747024003270780418B05C7371774
:1059D0007A0013070720B307F7021CC121D61C4128
:1059E000858381B701466DBF0546B547D1BF0146E6
:1059F000BD47F9B737173D0013070790E9BFB71543
:105A00000240D8559316F700D85563DF060411837A
:105A10003D8B9306170037177A001307072033577B
:105A2000D70218C1D455A182BD8A8DE295463307AD
:105A3000D702058318C137170240585714413D8BD0
:105A4000050733D7E60218C1184171B7854563943D
:105A5000B600E546E9BFBD456396B600D14633873B
:105A6000E602C9BF8906E5BF3D8B930617003717CD
:105A70007A00130707203357D702F1B799C53717B4
:105A800002401C4F5D8D08CF8280B7170240984FAF
:105A90001345F5FF798D88CF828099C5371702406D
:105AA0005C4F5D8D48CF8280B7170240D84F1345B9
:105AB000F5FF798DC8CF828099C5371702405C47C2
:105AC0005D8D48C78280B7170240D8471345F5FF60
:105AD000798DC8C7828099C5371702401C4B5D8DF0
